{
	"data": {
		"bytecode": {
			"linkReferences": {},
			"object": "6080604052607b60005534801561001557600080fd5b5061021c806100256000396000f3fe608060405234801561001057600080fd5b50600436106100415760003560e01c80637daff29b14610046578063927c66f714610076578063fe87ea3014610080575b600080fd5b610060600480360381019061005b919061012c565b61008a565b60405161006d9190610168565b60405180910390f35b61007e6100a1565b005b6100886100b3565b005b60008160005461009a91906101b2565b9050919050565b6100a96100cd565b6100b16100df565b565b6100bb6100a1565b6100c36100cd565b6100cb6100df565b565b6100d56100a1565b6100dd6100df565b565b6100e76100a1565b6100ef6100cd565b565b600080fd5b6000819050919050565b610109816100f6565b811461011457600080fd5b50565b60008135905061012681610100565b92915050565b600060208284031215610142576101416100f1565b5b600061015084828501610117565b91505092915050565b610162816100f6565b82525050565b600060208201905061017d6000830184610159565b92915050565b7f4e487b7100000000000000000000000000000000000000000000000000000000600052601160045260246000fd5b60006101bd826100f6565b91506101c8836100f6565b92508282019050808211156101e0576101df610183565b5b9291505056fea2646970667358221220285b089b69651a727e307183e0f9de93ad7af3b10709d7fc6a779caa4908152764736f6c63430008120033",
			"opcodes": "PUSH1 0x80 PUSH1 0x40 MSTORE PUSH1 0x7B PUSH1 0x0 SSTORE CALLVALUE DUP1 ISZERO PUSH2 0x15 JUMPI PUSH1 0x0 DUP1 REVERT JUMPDEST POP PUSH2 0x21C DUP1 PUSH2 0x25 PUSH1 0x0 CODECOPY PUSH1 0x0 RETURN INVALID PUSH1 0x80 PUSH1 0x40 MSTORE CALLVALUE DUP1 ISZERO PUSH2 0x10 JUMPI PUSH1 0x0 DUP1 REVERT JUMPDEST POP PUSH1 0x4 CALLDATASIZE LT PUSH2 0x41 JUMPI PUSH1 0x0 CALLDATALOAD PUSH1 0xE0 SHR DUP1 PUSH4 0x7DAFF29B EQ PUSH2 0x46 JUMPI DUP1 PUSH4 0x927C66F7 EQ PUSH2 0x76 JUMPI DUP1 PUSH4 0xFE87EA30 EQ PUSH2 0x80 JUMPI JUMPDEST PUSH1 0x0 DUP1 REVERT JUMPDEST PUSH2 0x60 PUSH1 0x4 DUP1 CALLDATASIZE SUB DUP2 ADD SWAP1 PUSH2 0x5B SWAP2 SWAP1 PUSH2 0x12C JUMP JUMPDEST PUSH2 0x8A JUMP JUMPDEST PUSH1 0x40 MLOAD PUSH2 0x6D SWAP2 SWAP1 PUSH2 0x168 JUMP JUMPDEST PUSH1 0x40 MLOAD DUP1 SWAP2 SUB SWAP1 RETURN JUMPDEST PUSH2 0x7E PUSH2 0xA1 JUMP JUMPDEST STOP JUMPDEST PUSH2 0x88 PUSH2 0xB3 JUMP JUMPDEST STOP JUMPDEST PUSH1 0x0 DUP2 PUSH1 0x0 SLOAD PUSH2 0x9A SWAP2 SWAP1 PUSH2 0x1B2 JUMP JUMPDEST SWAP1 POP SWAP2 SWAP1 POP JUMP JUMPDEST PUSH2 0xA9 PUSH2 0xCD JUMP JUMPDEST PUSH2 0xB1 PUSH2 0xDF JUMP JUMPDEST JUMP JUMPDEST PUSH2 0xBB PUSH2 0xA1 JUMP JUMPDEST PUSH2 0xC3 PUSH2 0xCD JUMP JUMPDEST PUSH2 0xCB PUSH2 0xDF JUMP JUMPDEST JUMP JUMPDEST PUSH2 0xD5 PUSH2 0xA1 JUMP JUMPDEST PUSH2 0xDD PUSH2 0xDF JUMP JUMPDEST JUMP JUMPDEST PUSH2 0xE7 PUSH2 0xA1 JUMP JUMPDEST PUSH2 0xEF PUSH2 0xCD JUMP JUMPDEST JUMP JUMPDEST PUSH1 0x0 DUP1 REVERT JUMPDEST PUSH1 0x0 DUP2 SWAP1 POP SWAP2 SWAP1 POP JUMP JUMPDEST PUSH2 0x109 DUP2 PUSH2 0xF6 JUMP JUMPDEST DUP2 EQ PUSH2 0x114 JUMPI PUSH1 0x0 DUP1 REVERT JUMPDEST POP JUMP JUMPDEST PUSH1 0x0 DUP2 CALLDATALOAD SWAP1 POP PUSH2 0x126 DUP2 PUSH2 0x100 JUMP JUMPDEST SWAP3 SWAP2 POP POP JUMP JUMPDEST PUSH1 0x0 PUSH1 0x20 DUP3 DUP5 SUB SLT ISZERO PUSH2 0x142 JUMPI PUSH2 0x141 PUSH2 0xF1 JUMP JUMPDEST JUMPDEST PUSH1 0x0 PUSH2 0x150 DUP5 DUP3 DUP6 ADD PUSH2 0x117 JUMP JUMPDEST SWAP2 POP POP SWAP3 SWAP2 POP POP JUMP JUMPDEST PUSH2 0x162 DUP2 PUSH2 0xF6 JUMP JUMPDEST DUP3 MSTORE POP POP JUMP JUMPDEST PUSH1 0x0 PUSH1 0x20 DUP3 ADD SWAP1 POP PUSH2 0x17D PUSH1 0x0 DUP4 ADD DUP5 PUSH2 0x159 JUMP JUMPDEST SWAP3 SWAP2 POP POP JUMP JUMPDEST PUSH32 0x4E487B7100000000000000000000000000000000000000000000000000000000 PUSH1 0x0 MSTORE PUSH1 0x11 PUSH1 0x4 MSTORE PUSH1 0x24 PUSH1 0x0 REVERT JUMPDEST PUSH1 0x0 PUSH2 0x1BD DUP3 PUSH2 0xF6 JUMP JUMPDEST SWAP2 POP PUSH2 0x1C8 DUP4 PUSH2 0xF6 JUMP JUMPDEST SWAP3 POP DUP3 DUP3 ADD SWAP1 POP DUP1 DUP3 GT ISZERO PUSH2 0x1E0 JUMPI PUSH2 0x1DF PUSH2 0x183 JUMP JUMPDEST JUMPDEST SWAP3 SWAP2 POP POP JUMP INVALID LOG2 PUSH5 0x6970667358 0x22 SLT KECCAK256 0x28 JUMPDEST ADDMOD SWAP12 PUSH10 0x651A727E307183E0F9DE SWAP4 0xAD PUSH27 0xF3B10709D7FC6A779CAA4908152764736F6C634300081200330000 "
		},
		"gasEstimates": {
			"creation": {
				"codeDepositCost": "108000",
				"executionCost": "22259",
				"totalCost": "130259"
			},
			"external": {
				"externalVer()": "infinite",
				"publicVer()": "infinite",
				"viewVer(uint256)": "infinite"
			},
			"internal": {
				"internalVer()": "infinite",
				"privateVer()": "infinite"
			}
		},
		"methodIdentifiers": {
			"externalVer()": "fe87ea30",
			"publicVer()": "927c66f7",
			"viewVer(uint256)": "7daff29b"
		}
	},
	"abi": [
		{
			"inputs": [],
			"name": "externalVer",
			"outputs": [],
			"stateMutability": "nonpayable",
			"type": "function"
		},
		{
			"inputs": [],
			"name": "publicVer",
			"outputs": [],
			"stateMutability": "nonpayable",
			"type": "function"
		},
		{
			"inputs": [
				{
					"internalType": "uint256",
					"name": "_num",
					"type": "uint256"
				}
			],
			"name": "viewVer",
			"outputs": [
				{
					"internalType": "uint256",
					"name": "",
					"type": "uint256"
				}
			],
			"stateMutability": "view",
			"type": "function"
		}
	]
}