{
	"data": {
		"bytecode": {
			"linkReferences": {},
			"object": "6080604052607b60005534801561001557600080fd5b50610252806100256000396000f3fe608060405234801561001057600080fd5b50600436106100575760003560e01c80631086dbf51461005c5780637daff29b14610066578063927c66f714610096578063a56de4df146100a0578063fe87ea30146100aa575b600080fd5b6100646100b4565b005b610080600480360381019061007b9190610162565b6100b6565b60405161008d919061019e565b60405180910390f35b61009e6100cd565b005b6100a86100df565b005b6100b26100e9565b005b565b6000816000546100c691906101e8565b9050919050565b6100d5610103565b6100dd610115565b565b6100e76100cd565b565b6100f16100cd565b6100f9610103565b610101610115565b565b61010b6100cd565b610113610115565b565b61011d6100cd565b610125610103565b565b600080fd5b6000819050919050565b61013f8161012c565b811461014a57600080fd5b50565b60008135905061015c81610136565b92915050565b60006020828403121561017857610177610127565b5b60006101868482850161014d565b91505092915050565b6101988161012c565b82525050565b60006020820190506101b3600083018461018f565b92915050565b7f4e487b7100000000000000000000000000000000000000000000000000000000600052601160045260246000fd5b60006101f38261012c565b91506101fe8361012c565b9250828201905080821115610216576102156101b9565b5b9291505056fea2646970667358221220c94a7fb0b9bbc63df21426208b1a254533d00d4ef50d7c1acbc9ac083a12496064736f6c63430008120033",
			"opcodes": "PUSH1 0x80 PUSH1 0x40 MSTORE PUSH1 0x7B PUSH1 0x0 SSTORE CALLVALUE DUP1 ISZERO PUSH2 0x15 JUMPI PUSH1 0x0 DUP1 REVERT JUMPDEST POP PUSH2 0x252 DUP1 PUSH2 0x25 PUSH1 0x0 CODECOPY PUSH1 0x0 RETURN INVALID PUSH1 0x80 PUSH1 0x40 MSTORE CALLVALUE DUP1 ISZERO PUSH2 0x10 JUMPI PUSH1 0x0 DUP1 REVERT JUMPDEST POP PUSH1 0x4 CALLDATASIZE LT PUSH2 0x57 JUMPI PUSH1 0x0 CALLDATALOAD PUSH1 0xE0 SHR DUP1 PUSH4 0x1086DBF5 EQ PUSH2 0x5C JUMPI DUP1 PUSH4 0x7DAFF29B EQ PUSH2 0x66 JUMPI DUP1 PUSH4 0x927C66F7 EQ PUSH2 0x96 JUMPI DUP1 PUSH4 0xA56DE4DF EQ PUSH2 0xA0 JUMPI DUP1 PUSH4 0xFE87EA30 EQ PUSH2 0xAA JUMPI JUMPDEST PUSH1 0x0 DUP1 REVERT JUMPDEST PUSH2 0x64 PUSH2 0xB4 JUMP JUMPDEST STOP JUMPDEST PUSH2 0x80 PUSH1 0x4 DUP1 CALLDATASIZE SUB DUP2 ADD SWAP1 PUSH2 0x7B SWAP2 SWAP1 PUSH2 0x162 JUMP JUMPDEST PUSH2 0xB6 JUMP JUMPDEST PUSH1 0x40 MLOAD PUSH2 0x8D SWAP2 SWAP1 PUSH2 0x19E JUMP JUMPDEST PUSH1 0x40 MLOAD DUP1 SWAP2 SUB SWAP1 RETURN JUMPDEST PUSH2 0x9E PUSH2 0xCD JUMP JUMPDEST STOP JUMPDEST PUSH2 0xA8 PUSH2 0xDF JUMP JUMPDEST STOP JUMPDEST PUSH2 0xB2 PUSH2 0xE9 JUMP JUMPDEST STOP JUMPDEST JUMP JUMPDEST PUSH1 0x0 DUP2 PUSH1 0x0 SLOAD PUSH2 0xC6 SWAP2 SWAP1 PUSH2 0x1E8 JUMP JUMPDEST SWAP1 POP SWAP2 SWAP1 POP JUMP JUMPDEST PUSH2 0xD5 PUSH2 0x103 JUMP JUMPDEST PUSH2 0xDD PUSH2 0x115 JUMP JUMPDEST JUMP JUMPDEST PUSH2 0xE7 PUSH2 0xCD JUMP JUMPDEST JUMP JUMPDEST PUSH2 0xF1 PUSH2 0xCD JUMP JUMPDEST PUSH2 0xF9 PUSH2 0x103 JUMP JUMPDEST PUSH2 0x101 PUSH2 0x115 JUMP JUMPDEST JUMP JUMPDEST PUSH2 0x10B PUSH2 0xCD JUMP JUMPDEST PUSH2 0x113 PUSH2 0x115 JUMP JUMPDEST JUMP JUMPDEST PUSH2 0x11D PUSH2 0xCD JUMP JUMPDEST PUSH2 0x125 PUSH2 0x103 JUMP JUMPDEST JUMP JUMPDEST PUSH1 0x0 DUP1 REVERT JUMPDEST PUSH1 0x0 DUP2 SWAP1 POP SWAP2 SWAP1 POP JUMP JUMPDEST PUSH2 0x13F DUP2 PUSH2 0x12C JUMP JUMPDEST DUP2 EQ PUSH2 0x14A JUMPI PUSH1 0x0 DUP1 REVERT JUMPDEST POP JUMP JUMPDEST PUSH1 0x0 DUP2 CALLDATALOAD SWAP1 POP PUSH2 0x15C DUP2 PUSH2 0x136 JUMP JUMPDEST SWAP3 SWAP2 POP POP JUMP JUMPDEST PUSH1 0x0 PUSH1 0x20 DUP3 DUP5 SUB SLT ISZERO PUSH2 0x178 JUMPI PUSH2 0x177 PUSH2 0x127 JUMP JUMPDEST JUMPDEST PUSH1 0x0 PUSH2 0x186 DUP5 DUP3 DUP6 ADD PUSH2 0x14D JUMP JUMPDEST SWAP2 POP POP SWAP3 SWAP2 POP POP JUMP JUMPDEST PUSH2 0x198 DUP2 PUSH2 0x12C JUMP JUMPDEST DUP3 MSTORE POP POP JUMP JUMPDEST PUSH1 0x0 PUSH1 0x20 DUP3 ADD SWAP1 POP PUSH2 0x1B3 PUSH1 0x0 DUP4 ADD DUP5 PUSH2 0x18F JUMP JUMPDEST SWAP3 SWAP2 POP POP JUMP JUMPDEST PUSH32 0x4E487B7100000000000000000000000000000000000000000000000000000000 PUSH1 0x0 MSTORE PUSH1 0x11 PUSH1 0x4 MSTORE PUSH1 0x24 PUSH1 0x0 REVERT JUMPDEST PUSH1 0x0 PUSH2 0x1F3 DUP3 PUSH2 0x12C JUMP JUMPDEST SWAP2 POP PUSH2 0x1FE DUP4 PUSH2 0x12C JUMP JUMPDEST SWAP3 POP DUP3 DUP3 ADD SWAP1 POP DUP1 DUP3 GT ISZERO PUSH2 0x216 JUMPI PUSH2 0x215 PUSH2 0x1B9 JUMP JUMPDEST JUMPDEST SWAP3 SWAP2 POP POP JUMP INVALID LOG2 PUSH5 0x6970667358 0x22 SLT KECCAK256 0xC9 0x4A PUSH32 0xB0B9BBC63DF21426208B1A254533D00D4EF50D7C1ACBC9AC083A12496064736F PUSH13 0x63430008120033000000000000 "
		},
		"gasEstimates": {
			"creation": {
				"codeDepositCost": "118800",
				"executionCost": "22271",
				"totalCost": "141071"
			},
			"external": {
				"externalVer()": "infinite",
				"externalVerInherit()": "122",
				"publicVer()": "infinite",
				"publicVerInherit()": "infinite",
				"viewVer(uint256)": "infinite"
			},
			"internal": {
				"internalVerInherit()": "infinite",
				"privateVerInherit()": "infinite"
			}
		},
		"methodIdentifiers": {
			"externalVer()": "fe87ea30",
			"externalVerInherit()": "1086dbf5",
			"publicVer()": "927c66f7",
			"publicVerInherit()": "a56de4df",
			"viewVer(uint256)": "7daff29b"
		}
	},
	"abi": [
		{
			"inputs": [],
			"name": "externalVer",
			"outputs": [],
			"stateMutability": "nonpayable",
			"type": "function"
		},
		{
			"inputs": [],
			"name": "externalVerInherit",
			"outputs": [],
			"stateMutability": "nonpayable",
			"type": "function"
		},
		{
			"inputs": [],
			"name": "publicVer",
			"outputs": [],
			"stateMutability": "nonpayable",
			"type": "function"
		},
		{
			"inputs": [],
			"name": "publicVerInherit",
			"outputs": [],
			"stateMutability": "nonpayable",
			"type": "function"
		},
		{
			"inputs": [
				{
					"internalType": "uint256",
					"name": "_num",
					"type": "uint256"
				}
			],
			"name": "viewVer",
			"outputs": [
				{
					"internalType": "uint256",
					"name": "",
					"type": "uint256"
				}
			],
			"stateMutability": "view",
			"type": "function"
		}
	]
}