{
	"data": {
		"bytecode": {
			"linkReferences": {},
			"object": "608060405260008055600180556002805534801561001c57600080fd5b506102ec8061002c6000396000f3fe608060405234801561001057600080fd5b50600436106100575760003560e01c8063335d00c21461005c57806342b148aa146100665780634b73383f14610084578063c3be8e2c146100a2578063c5d7802e146100ac575b600080fd5b6100646100ca565b005b61006e610175565b60405161007b91906101da565b60405180910390f35b61008c61017f565b60405161009991906101da565b60405180910390f35b6100aa610188565b005b6100b46101ad565b6040516100c191906101da565b60405180910390f35b6002546001546000546100dd9190610224565b6100e79190610224565b506100f06101b3565b506100f96101b8565b5061010261017f565b503073ffffffffffffffffffffffffffffffffffffffff166342b148aa6040518163ffffffff1660e01b8152600401602060405180830381865afa15801561014e573d6000803e3d6000fd5b505050506040513d601f19601f820116820180604052508101906101729190610289565b50565b600061012c905090565b600060c8905090565b6002546001546101989190610224565b506101a16101b8565b506101aa61017f565b50565b60025481565b600090565b60006064905090565b6000819050919050565b6101d4816101c1565b82525050565b60006020820190506101ef60008301846101cb565b92915050565b7f4e487b7100000000000000000000000000000000000000000000000000000000600052601160045260246000fd5b600061022f826101c1565b915061023a836101c1565b9250828201905080821115610252576102516101f5565b5b92915050565b600080fd5b610266816101c1565b811461027157600080fd5b50565b6000815190506102838161025d565b92915050565b60006020828403121561029f5761029e610258565b5b60006102ad84828501610274565b9150509291505056fea2646970667358221220c9ae5ce59e99544517143c80a9cc1fb714e557404c8d8bd9c4e0c1a897a3cd0264736f6c63430008120033",
			"opcodes": "PUSH1 0x80 PUSH1 0x40 MSTORE PUSH1 0x0 DUP1 SSTORE PUSH1 0x1 DUP1 SSTORE PUSH1 0x2 DUP1 SSTORE CALLVALUE DUP1 ISZERO PUSH2 0x1C JUMPI PUSH1 0x0 DUP1 REVERT JUMPDEST POP PUSH2 0x2EC DUP1 PUSH2 0x2C PUSH1 0x0 CODECOPY PUSH1 0x0 RETURN INVALID PUSH1 0x80 PUSH1 0x40 MSTORE CALLVALUE DUP1 ISZERO PUSH2 0x10 JUMPI PUSH1 0x0 DUP1 REVERT JUMPDEST POP PUSH1 0x4 CALLDATASIZE LT PUSH2 0x57 JUMPI PUSH1 0x0 CALLDATALOAD PUSH1 0xE0 SHR DUP1 PUSH4 0x335D00C2 EQ PUSH2 0x5C JUMPI DUP1 PUSH4 0x42B148AA EQ PUSH2 0x66 JUMPI DUP1 PUSH4 0x4B73383F EQ PUSH2 0x84 JUMPI DUP1 PUSH4 0xC3BE8E2C EQ PUSH2 0xA2 JUMPI DUP1 PUSH4 0xC5D7802E EQ PUSH2 0xAC JUMPI JUMPDEST PUSH1 0x0 DUP1 REVERT JUMPDEST PUSH2 0x64 PUSH2 0xCA JUMP JUMPDEST STOP JUMPDEST PUSH2 0x6E PUSH2 0x175 JUMP JUMPDEST PUSH1 0x40 MLOAD PUSH2 0x7B SWAP2 SWAP1 PUSH2 0x1DA JUMP JUMPDEST PUSH1 0x40 MLOAD DUP1 SWAP2 SUB SWAP1 RETURN JUMPDEST PUSH2 0x8C PUSH2 0x17F JUMP JUMPDEST PUSH1 0x40 MLOAD PUSH2 0x99 SWAP2 SWAP1 PUSH2 0x1DA JUMP JUMPDEST PUSH1 0x40 MLOAD DUP1 SWAP2 SUB SWAP1 RETURN JUMPDEST PUSH2 0xAA PUSH2 0x188 JUMP JUMPDEST STOP JUMPDEST PUSH2 0xB4 PUSH2 0x1AD JUMP JUMPDEST PUSH1 0x40 MLOAD PUSH2 0xC1 SWAP2 SWAP1 PUSH2 0x1DA JUMP JUMPDEST PUSH1 0x40 MLOAD DUP1 SWAP2 SUB SWAP1 RETURN JUMPDEST PUSH1 0x2 SLOAD PUSH1 0x1 SLOAD PUSH1 0x0 SLOAD PUSH2 0xDD SWAP2 SWAP1 PUSH2 0x224 JUMP JUMPDEST PUSH2 0xE7 SWAP2 SWAP1 PUSH2 0x224 JUMP JUMPDEST POP PUSH2 0xF0 PUSH2 0x1B3 JUMP JUMPDEST POP PUSH2 0xF9 PUSH2 0x1B8 JUMP JUMPDEST POP PUSH2 0x102 PUSH2 0x17F JUMP JUMPDEST POP ADDRESS PUSH20 0xFFFFFFFFFFFFFFFFFFFFFFFFFFFFFFFFFFFFFFFF AND PUSH4 0x42B148AA PUSH1 0x40 MLOAD DUP2 PUSH4 0xFFFFFFFF AND PUSH1 0xE0 SHL DUP2 MSTORE PUSH1 0x4 ADD PUSH1 0x20 PUSH1 0x40 MLOAD DUP1 DUP4 SUB DUP2 DUP7 GAS STATICCALL ISZERO DUP1 ISZERO PUSH2 0x14E JUMPI RETURNDATASIZE PUSH1 0x0 DUP1 RETURNDATACOPY RETURNDATASIZE PUSH1 0x0 REVERT JUMPDEST POP POP POP POP PUSH1 0x40 MLOAD RETURNDATASIZE PUSH1 0x1F NOT PUSH1 0x1F DUP3 ADD AND DUP3 ADD DUP1 PUSH1 0x40 MSTORE POP DUP2 ADD SWAP1 PUSH2 0x172 SWAP2 SWAP1 PUSH2 0x289 JUMP JUMPDEST POP JUMP JUMPDEST PUSH1 0x0 PUSH2 0x12C SWAP1 POP SWAP1 JUMP JUMPDEST PUSH1 0x0 PUSH1 0xC8 SWAP1 POP SWAP1 JUMP JUMPDEST PUSH1 0x2 SLOAD PUSH1 0x1 SLOAD PUSH2 0x198 SWAP2 SWAP1 PUSH2 0x224 JUMP JUMPDEST POP PUSH2 0x1A1 PUSH2 0x1B8 JUMP JUMPDEST POP PUSH2 0x1AA PUSH2 0x17F JUMP JUMPDEST POP JUMP JUMPDEST PUSH1 0x2 SLOAD DUP2 JUMP JUMPDEST PUSH1 0x0 SWAP1 JUMP JUMPDEST PUSH1 0x0 PUSH1 0x64 SWAP1 POP SWAP1 JUMP JUMPDEST PUSH1 0x0 DUP2 SWAP1 POP SWAP2 SWAP1 POP JUMP JUMPDEST PUSH2 0x1D4 DUP2 PUSH2 0x1C1 JUMP JUMPDEST DUP3 MSTORE POP POP JUMP JUMPDEST PUSH1 0x0 PUSH1 0x20 DUP3 ADD SWAP1 POP PUSH2 0x1EF PUSH1 0x0 DUP4 ADD DUP5 PUSH2 0x1CB JUMP JUMPDEST SWAP3 SWAP2 POP POP JUMP JUMPDEST PUSH32 0x4E487B7100000000000000000000000000000000000000000000000000000000 PUSH1 0x0 MSTORE PUSH1 0x11 PUSH1 0x4 MSTORE PUSH1 0x24 PUSH1 0x0 REVERT JUMPDEST PUSH1 0x0 PUSH2 0x22F DUP3 PUSH2 0x1C1 JUMP JUMPDEST SWAP2 POP PUSH2 0x23A DUP4 PUSH2 0x1C1 JUMP JUMPDEST SWAP3 POP DUP3 DUP3 ADD SWAP1 POP DUP1 DUP3 GT ISZERO PUSH2 0x252 JUMPI PUSH2 0x251 PUSH2 0x1F5 JUMP JUMPDEST JUMPDEST SWAP3 SWAP2 POP POP JUMP JUMPDEST PUSH1 0x0 DUP1 REVERT JUMPDEST PUSH2 0x266 DUP2 PUSH2 0x1C1 JUMP JUMPDEST DUP2 EQ PUSH2 0x271 JUMPI PUSH1 0x0 DUP1 REVERT JUMPDEST POP JUMP JUMPDEST PUSH1 0x0 DUP2 MLOAD SWAP1 POP PUSH2 0x283 DUP2 PUSH2 0x25D JUMP JUMPDEST SWAP3 SWAP2 POP POP JUMP JUMPDEST PUSH1 0x0 PUSH1 0x20 DUP3 DUP5 SUB SLT ISZERO PUSH2 0x29F JUMPI PUSH2 0x29E PUSH2 0x258 JUMP JUMPDEST JUMPDEST PUSH1 0x0 PUSH2 0x2AD DUP5 DUP3 DUP6 ADD PUSH2 0x274 JUMP JUMPDEST SWAP2 POP POP SWAP3 SWAP2 POP POP JUMP INVALID LOG2 PUSH5 0x6970667358 0x22 SLT KECCAK256 0xC9 0xAE 0x5C 0xE5 SWAP15 SWAP10 SLOAD GASLIMIT OR EQ EXTCODECOPY DUP1 0xA9 0xCC 0x1F 0xB7 EQ 0xE5 JUMPI BLOCKHASH 0x4C DUP14 DUP12 0xD9 0xC4 0xE0 0xC1 0xA8 SWAP8 LOG3 0xCD MUL PUSH5 0x736F6C6343 STOP ADDMOD SLT STOP CALLER "
		},
		"gasEstimates": {
			"creation": {
				"codeDepositCost": "149600",
				"executionCost": "49414",
				"totalCost": "199014"
			},
			"external": {
				"examples()": "infinite",
				"examples2()": "infinite",
				"externalFunc()": "337",
				"publicFunc()": "359",
				"z()": "2495"
			}
		},
		"methodIdentifiers": {
			"examples()": "335d00c2",
			"examples2()": "c3be8e2c",
			"externalFunc()": "42b148aa",
			"publicFunc()": "4b73383f",
			"z()": "c5d7802e"
		}
	},
	"abi": [
		{
			"inputs": [],
			"name": "examples",
			"outputs": [],
			"stateMutability": "view",
			"type": "function"
		},
		{
			"inputs": [],
			"name": "examples2",
			"outputs": [],
			"stateMutability": "view",
			"type": "function"
		},
		{
			"inputs": [],
			"name": "externalFunc",
			"outputs": [
				{
					"internalType": "uint256",
					"name": "",
					"type": "uint256"
				}
			],
			"stateMutability": "pure",
			"type": "function"
		},
		{
			"inputs": [],
			"name": "publicFunc",
			"outputs": [
				{
					"internalType": "uint256",
					"name": "",
					"type": "uint256"
				}
			],
			"stateMutability": "pure",
			"type": "function"
		},
		{
			"inputs": [],
			"name": "z",
			"outputs": [
				{
					"internalType": "uint256",
					"name": "",
					"type": "uint256"
				}
			],
			"stateMutability": "view",
			"type": "function"
		}
	]
}