{
	"TodoListOpenVer.sol": {
		"TodoList": {
			"abi": [
				{
					"inputs": [],
					"stateMutability": "nonpayable",
					"type": "constructor"
				},
				{
					"anonymous": false,
					"inputs": [
						{
							"indexed": false,
							"internalType": "uint256",
							"name": "taskId",
							"type": "uint256"
						},
						{
							"indexed": false,
							"internalType": "string",
							"name": "name",
							"type": "string"
						},
						{
							"indexed": false,
							"internalType": "bool",
							"name": "completed",
							"type": "bool"
						}
					],
					"name": "NewTask",
					"type": "event"
				},
				{
					"anonymous": false,
					"inputs": [
						{
							"indexed": false,
							"internalType": "uint256",
							"name": "taskId",
							"type": "uint256"
						},
						{
							"indexed": false,
							"internalType": "bool",
							"name": "completed",
							"type": "bool"
						}
					],
					"name": "UpdateTask",
					"type": "event"
				},
				{
					"inputs": [
						{
							"internalType": "string",
							"name": "_name",
							"type": "string"
						}
					],
					"name": "create",
					"outputs": [],
					"stateMutability": "nonpayable",
					"type": "function"
				},
				{
					"inputs": [
						{
							"internalType": "uint256",
							"name": "_taskId",
							"type": "uint256"
						}
					],
					"name": "get",
					"outputs": [
						{
							"internalType": "string",
							"name": "name",
							"type": "string"
						},
						{
							"internalType": "bool",
							"name": "completed",
							"type": "bool"
						}
					],
					"stateMutability": "view",
					"type": "function"
				},
				{
					"inputs": [],
					"name": "kill",
					"outputs": [],
					"stateMutability": "nonpayable",
					"type": "function"
				},
				{
					"inputs": [],
					"name": "owner",
					"outputs": [
						{
							"internalType": "address",
							"name": "",
							"type": "address"
						}
					],
					"stateMutability": "view",
					"type": "function"
				},
				{
					"inputs": [
						{
							"internalType": "uint256",
							"name": "",
							"type": "uint256"
						}
					],
					"name": "taskToOwner",
					"outputs": [
						{
							"internalType": "address",
							"name": "",
							"type": "address"
						}
					],
					"stateMutability": "view",
					"type": "function"
				},
				{
					"inputs": [
						{
							"internalType": "uint256",
							"name": "",
							"type": "uint256"
						}
					],
					"name": "tasks",
					"outputs": [
						{
							"internalType": "string",
							"name": "name",
							"type": "string"
						},
						{
							"internalType": "bool",
							"name": "completed",
							"type": "bool"
						}
					],
					"stateMutability": "view",
					"type": "function"
				},
				{
					"inputs": [
						{
							"internalType": "uint256",
							"name": "_taskId",
							"type": "uint256"
						},
						{
							"internalType": "bool",
							"name": "_completed",
							"type": "bool"
						}
					],
					"name": "update",
					"outputs": [],
					"stateMutability": "nonpayable",
					"type": "function"
				}
			],
			"devdoc": {
				"kind": "dev",
				"methods": {},
				"version": 1
			},
			"evm": {
				"assembly": "    /* \"TodoListOpenVer.sol\":709:2504  contract TodoList {... */\n  mstore(0x40, 0x80)\n    /* \"TodoListOpenVer.sol\":873:922  constructor() {... */\n  callvalue\n  dup1\n  iszero\n  tag_1\n  jumpi\n  0x00\n  dup1\n  revert\ntag_1:\n  pop\n    /* \"TodoListOpenVer.sol\":905:915  msg.sender */\n  caller\n    /* \"TodoListOpenVer.sol\":897:902  owner */\n  0x00\n  dup1\n    /* \"TodoListOpenVer.sol\":897:915  owner = msg.sender */\n  0x0100\n  exp\n  dup2\n  sload\n  dup2\n  0xffffffffffffffffffffffffffffffffffffffff\n  mul\n  not\n  and\n  swap1\n  dup4\n  0xffffffffffffffffffffffffffffffffffffffff\n  and\n  mul\n  or\n  swap1\n  sstore\n  pop\n    /* \"TodoListOpenVer.sol\":709:2504  contract TodoList {... */\n  dataSize(sub_0)\n  dup1\n  dataOffset(sub_0)\n  0x00\n  codecopy\n  0x00\n  return\nstop\n\nsub_0: assembly {\n        /* \"TodoListOpenVer.sol\":709:2504  contract TodoList {... */\n      mstore(0x40, 0x80)\n      callvalue\n      dup1\n      iszero\n      tag_1\n      jumpi\n      0x00\n      dup1\n      revert\n    tag_1:\n      pop\n      jumpi(tag_2, lt(calldatasize, 0x04))\n      shr(0xe0, calldataload(0x00))\n      dup1\n      0x8d977672\n      gt\n      tag_10\n      jumpi\n      dup1\n      0x8d977672\n      eq\n      tag_6\n      jumpi\n      dup1\n      0x8da5cb5b\n      eq\n      tag_7\n      jumpi\n      dup1\n      0x9507d39a\n      eq\n      tag_8\n      jumpi\n      dup1\n      0xb6a46b3b\n      eq\n      tag_9\n      jumpi\n      jump(tag_2)\n    tag_10:\n      dup1\n      0x41c0e1b5\n      eq\n      tag_3\n      jumpi\n      dup1\n      0x48284b62\n      eq\n      tag_4\n      jumpi\n      dup1\n      0x6641c6c4\n      eq\n      tag_5\n      jumpi\n    tag_2:\n      0x00\n      dup1\n      revert\n        /* \"TodoListOpenVer.sol\":2367:2502  function kill() external {... */\n    tag_3:\n      tag_11\n      tag_12\n      jump\t// in\n    tag_11:\n      stop\n        /* \"TodoListOpenVer.sol\":1805:2038  function update(uint _taskId, bool _completed) public onlyTaskOwner(_taskId) {... */\n    tag_4:\n      tag_13\n      0x04\n      dup1\n      calldatasize\n      sub\n      dup2\n      add\n      swap1\n      tag_14\n      swap2\n      swap1\n      tag_15\n      jump\t// in\n    tag_14:\n      tag_16\n      jump\t// in\n    tag_13:\n      stop\n        /* \"TodoListOpenVer.sol\":1028:1072  mapping (uint => address) public taskToOwner */\n    tag_5:\n      tag_17\n      0x04\n      dup1\n      calldatasize\n      sub\n      dup2\n      add\n      swap1\n      tag_18\n      swap2\n      swap1\n      tag_19\n      jump\t// in\n    tag_18:\n      tag_20\n      jump\t// in\n    tag_17:\n      mload(0x40)\n      tag_21\n      swap2\n      swap1\n      tag_22\n      jump\t// in\n    tag_21:\n      mload(0x40)\n      dup1\n      swap2\n      sub\n      swap1\n      return\n        /* \"TodoListOpenVer.sol\":998:1017  Task[] public tasks */\n    tag_6:\n      tag_23\n      0x04\n      dup1\n      calldatasize\n      sub\n      dup2\n      add\n      swap1\n      tag_24\n      swap2\n      swap1\n      tag_19\n      jump\t// in\n    tag_24:\n      tag_25\n      jump\t// in\n    tag_23:\n      mload(0x40)\n      tag_26\n      swap3\n      swap2\n      swap1\n      tag_27\n      jump\t// in\n    tag_26:\n      mload(0x40)\n      dup1\n      swap2\n      sub\n      swap1\n      return\n        /* \"TodoListOpenVer.sol\":846:866  address public owner */\n    tag_7:\n      tag_28\n      tag_29\n      jump\t// in\n    tag_28:\n      mload(0x40)\n      tag_30\n      swap2\n      swap1\n      tag_22\n      jump\t// in\n    tag_30:\n      mload(0x40)\n      dup1\n      swap2\n      sub\n      swap1\n      return\n        /* \"TodoListOpenVer.sol\":2157:2335  function get(uint _taskId) public onlyTaskOwner(_taskId) view returns (string memory name, bool completed) {... */\n    tag_8:\n      tag_31\n      0x04\n      dup1\n      calldatasize\n      sub\n      dup2\n      add\n      swap1\n      tag_32\n      swap2\n      swap1\n      tag_19\n      jump\t// in\n    tag_32:\n      tag_33\n      jump\t// in\n    tag_31:\n      mload(0x40)\n      tag_34\n      swap3\n      swap2\n      swap1\n      tag_27\n      jump\t// in\n    tag_34:\n      mload(0x40)\n      dup1\n      swap2\n      sub\n      swap1\n      return\n        /* \"TodoListOpenVer.sol\":1400:1767  function create(string memory _name) public {... */\n    tag_9:\n      tag_35\n      0x04\n      dup1\n      calldatasize\n      sub\n      dup2\n      add\n      swap1\n      tag_36\n      swap2\n      swap1\n      tag_37\n      jump\t// in\n    tag_36:\n      tag_38\n      jump\t// in\n    tag_35:\n      stop\n        /* \"TodoListOpenVer.sol\":2367:2502  function kill() external {... */\n    tag_12:\n        /* \"TodoListOpenVer.sol\":2424:2429  owner */\n      0x00\n      dup1\n      sload\n      swap1\n      0x0100\n      exp\n      swap1\n      div\n      0xffffffffffffffffffffffffffffffffffffffff\n      and\n        /* \"TodoListOpenVer.sol\":2410:2429  msg.sender == owner */\n      0xffffffffffffffffffffffffffffffffffffffff\n      and\n        /* \"TodoListOpenVer.sol\":2410:2420  msg.sender */\n      caller\n        /* \"TodoListOpenVer.sol\":2410:2429  msg.sender == owner */\n      0xffffffffffffffffffffffffffffffffffffffff\n      and\n      eq\n        /* \"TodoListOpenVer.sol\":2402:2452  require(msg.sender == owner, \"not contract owner\") */\n      tag_40\n      jumpi\n      mload(0x40)\n      0x08c379a000000000000000000000000000000000000000000000000000000000\n      dup2\n      mstore\n      0x04\n      add\n      tag_41\n      swap1\n      tag_42\n      jump\t// in\n    tag_41:\n      mload(0x40)\n      dup1\n      swap2\n      sub\n      swap1\n      revert\n    tag_40:\n        /* \"TodoListOpenVer.sol\":2483:2493  msg.sender */\n      caller\n        /* \"TodoListOpenVer.sol\":2462:2495  selfdestruct(payable(msg.sender)) */\n      0xffffffffffffffffffffffffffffffffffffffff\n      and\n      selfdestruct\n        /* \"TodoListOpenVer.sol\":1805:2038  function update(uint _taskId, bool _completed) public onlyTaskOwner(_taskId) {... */\n    tag_16:\n        /* \"TodoListOpenVer.sol\":1873:1880  _taskId */\n      dup2\n        /* \"TodoListOpenVer.sol\":1330:1341  taskToOwner */\n      0x02\n        /* \"TodoListOpenVer.sol\":1330:1350  taskToOwner[_taskId] */\n      0x00\n        /* \"TodoListOpenVer.sol\":1342:1349  _taskId */\n      dup3\n        /* \"TodoListOpenVer.sol\":1330:1350  taskToOwner[_taskId] */\n      dup2\n      mstore\n      0x20\n      add\n      swap1\n      dup2\n      mstore\n      0x20\n      add\n      0x00\n      keccak256\n      0x00\n      swap1\n      sload\n      swap1\n      0x0100\n      exp\n      swap1\n      div\n      0xffffffffffffffffffffffffffffffffffffffff\n      and\n        /* \"TodoListOpenVer.sol\":1316:1350  msg.sender == taskToOwner[_taskId] */\n      0xffffffffffffffffffffffffffffffffffffffff\n      and\n        /* \"TodoListOpenVer.sol\":1316:1326  msg.sender */\n      caller\n        /* \"TodoListOpenVer.sol\":1316:1350  msg.sender == taskToOwner[_taskId] */\n      0xffffffffffffffffffffffffffffffffffffffff\n      and\n      eq\n        /* \"TodoListOpenVer.sol\":1308:1351  require(msg.sender == taskToOwner[_taskId]) */\n      tag_44\n      jumpi\n      0x00\n      dup1\n      revert\n    tag_44:\n        /* \"TodoListOpenVer.sol\":1919:1929  _completed */\n      dup2\n        /* \"TodoListOpenVer.sol\":1892:1897  tasks */\n      0x01\n        /* \"TodoListOpenVer.sol\":1898:1905  _taskId */\n      dup5\n        /* \"TodoListOpenVer.sol\":1892:1906  tasks[_taskId] */\n      dup2\n      sload\n      dup2\n      lt\n      tag_46\n      jumpi\n      tag_47\n      tag_48\n      jump\t// in\n    tag_47:\n    tag_46:\n      swap1\n      0x00\n      mstore\n      keccak256(0x00, 0x20)\n      swap1\n      0x02\n      mul\n      add\n        /* \"TodoListOpenVer.sol\":1892:1916  tasks[_taskId].completed */\n      0x01\n      add\n      0x00\n        /* \"TodoListOpenVer.sol\":1892:1929  tasks[_taskId].completed = _completed */\n      0x0100\n      exp\n      dup2\n      sload\n      dup2\n      0xff\n      mul\n      not\n      and\n      swap1\n      dup4\n      iszero\n      iszero\n      mul\n      or\n      swap1\n      sstore\n      pop\n        /* \"TodoListOpenVer.sol\":2000:2031  UpdateTask(_taskId, _completed) */\n      0x40f4ecd2923438fa255c9ec921b119ae150358907bbc9ba7d5c34bf9c151b6ac\n        /* \"TodoListOpenVer.sol\":2011:2018  _taskId */\n      dup4\n        /* \"TodoListOpenVer.sol\":2020:2030  _completed */\n      dup4\n        /* \"TodoListOpenVer.sol\":2000:2031  UpdateTask(_taskId, _completed) */\n      mload(0x40)\n      tag_50\n      swap3\n      swap2\n      swap1\n      tag_51\n      jump\t// in\n    tag_50:\n      mload(0x40)\n      dup1\n      swap2\n      sub\n      swap1\n      log1\n        /* \"TodoListOpenVer.sol\":1805:2038  function update(uint _taskId, bool _completed) public onlyTaskOwner(_taskId) {... */\n      pop\n      pop\n      pop\n      jump\t// out\n        /* \"TodoListOpenVer.sol\":1028:1072  mapping (uint => address) public taskToOwner */\n    tag_20:\n      mstore(0x20, 0x02)\n      dup1\n      0x00\n      mstore\n      keccak256(0x00, 0x40)\n      0x00\n      swap2\n      pop\n      sload\n      swap1\n      0x0100\n      exp\n      swap1\n      div\n      0xffffffffffffffffffffffffffffffffffffffff\n      and\n      dup2\n      jump\t// out\n        /* \"TodoListOpenVer.sol\":998:1017  Task[] public tasks */\n    tag_25:\n      0x01\n      dup2\n      dup2\n      sload\n      dup2\n      lt\n      tag_52\n      jumpi\n      0x00\n      dup1\n      revert\n    tag_52:\n      swap1\n      0x00\n      mstore\n      keccak256(0x00, 0x20)\n      swap1\n      0x02\n      mul\n      add\n      0x00\n      swap2\n      pop\n      swap1\n      pop\n      dup1\n      0x00\n      add\n      dup1\n      sload\n      tag_54\n      swap1\n      tag_55\n      jump\t// in\n    tag_54:\n      dup1\n      0x1f\n      add\n      0x20\n      dup1\n      swap2\n      div\n      mul\n      0x20\n      add\n      mload(0x40)\n      swap1\n      dup2\n      add\n      0x40\n      mstore\n      dup1\n      swap3\n      swap2\n      swap1\n      dup2\n      dup2\n      mstore\n      0x20\n      add\n      dup3\n      dup1\n      sload\n      tag_56\n      swap1\n      tag_55\n      jump\t// in\n    tag_56:\n      dup1\n      iszero\n      tag_57\n      jumpi\n      dup1\n      0x1f\n      lt\n      tag_58\n      jumpi\n      0x0100\n      dup1\n      dup4\n      sload\n      div\n      mul\n      dup4\n      mstore\n      swap2\n      0x20\n      add\n      swap2\n      jump(tag_57)\n    tag_58:\n      dup3\n      add\n      swap2\n      swap1\n      0x00\n      mstore\n      keccak256(0x00, 0x20)\n      swap1\n    tag_59:\n      dup2\n      sload\n      dup2\n      mstore\n      swap1\n      0x01\n      add\n      swap1\n      0x20\n      add\n      dup1\n      dup4\n      gt\n      tag_59\n      jumpi\n      dup3\n      swap1\n      sub\n      0x1f\n      and\n      dup3\n      add\n      swap2\n    tag_57:\n      pop\n      pop\n      pop\n      pop\n      pop\n      swap1\n      dup1\n      0x01\n      add\n      0x00\n      swap1\n      sload\n      swap1\n      0x0100\n      exp\n      swap1\n      div\n      0xff\n      and\n      swap1\n      pop\n      dup3\n      jump\t// out\n        /* \"TodoListOpenVer.sol\":846:866  address public owner */\n    tag_29:\n      0x00\n      dup1\n      sload\n      swap1\n      0x0100\n      exp\n      swap1\n      div\n      0xffffffffffffffffffffffffffffffffffffffff\n      and\n      dup2\n      jump\t// out\n        /* \"TodoListOpenVer.sol\":2157:2335  function get(uint _taskId) public onlyTaskOwner(_taskId) view returns (string memory name, bool completed) {... */\n    tag_33:\n        /* \"TodoListOpenVer.sol\":2228:2246  string memory name */\n      0x60\n        /* \"TodoListOpenVer.sol\":2248:2262  bool completed */\n      0x00\n        /* \"TodoListOpenVer.sol\":2205:2212  _taskId */\n      dup3\n        /* \"TodoListOpenVer.sol\":1330:1341  taskToOwner */\n      0x02\n        /* \"TodoListOpenVer.sol\":1330:1350  taskToOwner[_taskId] */\n      0x00\n        /* \"TodoListOpenVer.sol\":1342:1349  _taskId */\n      dup3\n        /* \"TodoListOpenVer.sol\":1330:1350  taskToOwner[_taskId] */\n      dup2\n      mstore\n      0x20\n      add\n      swap1\n      dup2\n      mstore\n      0x20\n      add\n      0x00\n      keccak256\n      0x00\n      swap1\n      sload\n      swap1\n      0x0100\n      exp\n      swap1\n      div\n      0xffffffffffffffffffffffffffffffffffffffff\n      and\n        /* \"TodoListOpenVer.sol\":1316:1350  msg.sender == taskToOwner[_taskId] */\n      0xffffffffffffffffffffffffffffffffffffffff\n      and\n        /* \"TodoListOpenVer.sol\":1316:1326  msg.sender */\n      caller\n        /* \"TodoListOpenVer.sol\":1316:1350  msg.sender == taskToOwner[_taskId] */\n      0xffffffffffffffffffffffffffffffffffffffff\n      and\n      eq\n        /* \"TodoListOpenVer.sol\":1308:1351  require(msg.sender == taskToOwner[_taskId]) */\n      tag_61\n      jumpi\n      0x00\n      dup1\n      revert\n    tag_61:\n        /* \"TodoListOpenVer.sol\":2282:2287  tasks */\n      0x01\n        /* \"TodoListOpenVer.sol\":2288:2295  _taskId */\n      dup5\n        /* \"TodoListOpenVer.sol\":2282:2296  tasks[_taskId] */\n      dup2\n      sload\n      dup2\n      lt\n      tag_63\n      jumpi\n      tag_64\n      tag_48\n      jump\t// in\n    tag_64:\n    tag_63:\n      swap1\n      0x00\n      mstore\n      keccak256(0x00, 0x20)\n      swap1\n      0x02\n      mul\n      add\n        /* \"TodoListOpenVer.sol\":2282:2301  tasks[_taskId].name */\n      0x00\n      add\n        /* \"TodoListOpenVer.sol\":2303:2308  tasks */\n      0x01\n        /* \"TodoListOpenVer.sol\":2309:2316  _taskId */\n      dup6\n        /* \"TodoListOpenVer.sol\":2303:2317  tasks[_taskId] */\n      dup2\n      sload\n      dup2\n      lt\n      tag_66\n      jumpi\n      tag_67\n      tag_48\n      jump\t// in\n    tag_67:\n    tag_66:\n      swap1\n      0x00\n      mstore\n      keccak256(0x00, 0x20)\n      swap1\n      0x02\n      mul\n      add\n        /* \"TodoListOpenVer.sol\":2303:2327  tasks[_taskId].completed */\n      0x01\n      add\n      0x00\n      swap1\n      sload\n      swap1\n      0x0100\n      exp\n      swap1\n      div\n      0xff\n      and\n        /* \"TodoListOpenVer.sol\":2274:2328  return (tasks[_taskId].name, tasks[_taskId].completed) */\n      dup2\n      dup1\n      sload\n      tag_69\n      swap1\n      tag_55\n      jump\t// in\n    tag_69:\n      dup1\n      0x1f\n      add\n      0x20\n      dup1\n      swap2\n      div\n      mul\n      0x20\n      add\n      mload(0x40)\n      swap1\n      dup2\n      add\n      0x40\n      mstore\n      dup1\n      swap3\n      swap2\n      swap1\n      dup2\n      dup2\n      mstore\n      0x20\n      add\n      dup3\n      dup1\n      sload\n      tag_70\n      swap1\n      tag_55\n      jump\t// in\n    tag_70:\n      dup1\n      iszero\n      tag_71\n      jumpi\n      dup1\n      0x1f\n      lt\n      tag_72\n      jumpi\n      0x0100\n      dup1\n      dup4\n      sload\n      div\n      mul\n      dup4\n      mstore\n      swap2\n      0x20\n      add\n      swap2\n      jump(tag_71)\n    tag_72:\n      dup3\n      add\n      swap2\n      swap1\n      0x00\n      mstore\n      keccak256(0x00, 0x20)\n      swap1\n    tag_73:\n      dup2\n      sload\n      dup2\n      mstore\n      swap1\n      0x01\n      add\n      swap1\n      0x20\n      add\n      dup1\n      dup4\n      gt\n      tag_73\n      jumpi\n      dup3\n      swap1\n      sub\n      0x1f\n      and\n      dup3\n      add\n      swap2\n    tag_71:\n      pop\n      pop\n      pop\n      pop\n      pop\n      swap2\n      pop\n      swap3\n      pop\n      swap3\n      pop\n        /* \"TodoListOpenVer.sol\":2157:2335  function get(uint _taskId) public onlyTaskOwner(_taskId) view returns (string memory name, bool completed) {... */\n      pop\n      swap2\n      pop\n      swap2\n      jump\t// out\n        /* \"TodoListOpenVer.sol\":1400:1767  function create(string memory _name) public {... */\n    tag_38:\n        /* \"TodoListOpenVer.sol\":1454:1459  tasks */\n      0x01\n        /* \"TodoListOpenVer.sol\":1465:1483  Task(_name, false) */\n      mload(0x40)\n      dup1\n      0x40\n      add\n      0x40\n      mstore\n      dup1\n        /* \"TodoListOpenVer.sol\":1470:1475  _name */\n      dup4\n        /* \"TodoListOpenVer.sol\":1465:1483  Task(_name, false) */\n      dup2\n      mstore\n      0x20\n      add\n        /* \"TodoListOpenVer.sol\":1477:1482  false */\n      0x00\n        /* \"TodoListOpenVer.sol\":1465:1483  Task(_name, false) */\n      iszero\n      iszero\n      dup2\n      mstore\n      pop\n        /* \"TodoListOpenVer.sol\":1454:1484  tasks.push(Task(_name, false)) */\n      swap1\n      dup1\n      0x01\n      dup2\n      sload\n      add\n      dup1\n      dup3\n      sstore\n      dup1\n      swap2\n      pop\n      pop\n      0x01\n      swap1\n      sub\n      swap1\n      0x00\n      mstore\n      keccak256(0x00, 0x20)\n      swap1\n      0x02\n      mul\n      add\n      0x00\n      swap1\n      swap2\n      swap1\n      swap2\n      swap1\n      swap2\n      pop\n      0x00\n      dup3\n      add\n      mload\n      dup2\n      0x00\n      add\n      swap1\n      dup2\n      tag_76\n      swap2\n      swap1\n      tag_77\n      jump\t// in\n    tag_76:\n      pop\n      0x20\n      dup3\n      add\n      mload\n      dup2\n      0x01\n      add\n      exp(0x0100, 0x00)\n      dup2\n      sload\n      dup2\n      0xff\n      mul\n      not\n      and\n      swap1\n      dup4\n      iszero\n      iszero\n      mul\n      or\n      swap1\n      sstore\n      pop\n      pop\n      pop\n        /* \"TodoListOpenVer.sol\":1495:1502  uint id */\n      0x00\n        /* \"TodoListOpenVer.sol\":1520:1521  1 */\n      0x01\n        /* \"TodoListOpenVer.sol\":1505:1510  tasks */\n      dup1\n        /* \"TodoListOpenVer.sol\":1505:1517  tasks.length */\n      dup1\n      sload\n      swap1\n      pop\n        /* \"TodoListOpenVer.sol\":1505:1521  tasks.length - 1 */\n      tag_78\n      swap2\n      swap1\n      tag_79\n      jump\t// in\n    tag_78:\n        /* \"TodoListOpenVer.sol\":1495:1521  uint id = tasks.length - 1 */\n      swap1\n      pop\n        /* \"TodoListOpenVer.sol\":1585:1595  msg.sender */\n      caller\n        /* \"TodoListOpenVer.sol\":1567:1578  taskToOwner */\n      0x02\n        /* \"TodoListOpenVer.sol\":1567:1582  taskToOwner[id] */\n      0x00\n        /* \"TodoListOpenVer.sol\":1579:1581  id */\n      dup4\n        /* \"TodoListOpenVer.sol\":1567:1582  taskToOwner[id] */\n      dup2\n      mstore\n      0x20\n      add\n      swap1\n      dup2\n      mstore\n      0x20\n      add\n      0x00\n      keccak256\n      0x00\n        /* \"TodoListOpenVer.sol\":1567:1595  taskToOwner[id] = msg.sender */\n      0x0100\n      exp\n      dup2\n      sload\n      dup2\n      0xffffffffffffffffffffffffffffffffffffffff\n      mul\n      not\n      and\n      swap1\n      dup4\n      0xffffffffffffffffffffffffffffffffffffffff\n      and\n      mul\n      or\n      swap1\n      sstore\n      pop\n        /* \"TodoListOpenVer.sol\":1642:1657  ownerTasksCount */\n      0x03\n        /* \"TodoListOpenVer.sol\":1642:1669  ownerTasksCount[msg.sender] */\n      0x00\n        /* \"TodoListOpenVer.sol\":1658:1668  msg.sender */\n      caller\n        /* \"TodoListOpenVer.sol\":1642:1669  ownerTasksCount[msg.sender] */\n      0xffffffffffffffffffffffffffffffffffffffff\n      and\n      0xffffffffffffffffffffffffffffffffffffffff\n      and\n      dup2\n      mstore\n      0x20\n      add\n      swap1\n      dup2\n      mstore\n      0x20\n      add\n      0x00\n      keccak256\n      0x00\n        /* \"TodoListOpenVer.sol\":1642:1671  ownerTasksCount[msg.sender]++ */\n      dup2\n      sload\n      dup1\n      swap3\n      swap2\n      swap1\n      tag_80\n      swap1\n      tag_81\n      jump\t// in\n    tag_80:\n      swap2\n      swap1\n      pop\n      sstore\n      pop\n        /* \"TodoListOpenVer.sol\":1735:1760  NewTask(id, _name, false) */\n      0x8de7fcf423c3be88a1d33619458254be5a02866653e3209631248661ba7db881\n        /* \"TodoListOpenVer.sol\":1743:1745  id */\n      dup2\n        /* \"TodoListOpenVer.sol\":1747:1752  _name */\n      dup4\n        /* \"TodoListOpenVer.sol\":1754:1759  false */\n      0x00\n        /* \"TodoListOpenVer.sol\":1735:1760  NewTask(id, _name, false) */\n      mload(0x40)\n      tag_82\n      swap4\n      swap3\n      swap2\n      swap1\n      tag_83\n      jump\t// in\n    tag_82:\n      mload(0x40)\n      dup1\n      swap2\n      sub\n      swap1\n      log1\n        /* \"TodoListOpenVer.sol\":1444:1767  {... */\n      pop\n        /* \"TodoListOpenVer.sol\":1400:1767  function create(string memory _name) public {... */\n      pop\n      jump\t// out\n        /* \"#utility.yul\":7:82   */\n    tag_84:\n        /* \"#utility.yul\":40:46   */\n      0x00\n        /* \"#utility.yul\":73:75   */\n      0x40\n        /* \"#utility.yul\":67:76   */\n      mload\n        /* \"#utility.yul\":57:76   */\n      swap1\n      pop\n        /* \"#utility.yul\":7:82   */\n      swap1\n      jump\t// out\n        /* \"#utility.yul\":88:205   */\n    tag_85:\n        /* \"#utility.yul\":197:198   */\n      0x00\n        /* \"#utility.yul\":194:195   */\n      dup1\n        /* \"#utility.yul\":187:199   */\n      revert\n        /* \"#utility.yul\":211:328   */\n    tag_86:\n        /* \"#utility.yul\":320:321   */\n      0x00\n        /* \"#utility.yul\":317:318   */\n      dup1\n        /* \"#utility.yul\":310:322   */\n      revert\n        /* \"#utility.yul\":334:411   */\n    tag_87:\n        /* \"#utility.yul\":371:378   */\n      0x00\n        /* \"#utility.yul\":400:405   */\n      dup2\n        /* \"#utility.yul\":389:405   */\n      swap1\n      pop\n        /* \"#utility.yul\":334:411   */\n      swap2\n      swap1\n      pop\n      jump\t// out\n        /* \"#utility.yul\":417:539   */\n    tag_88:\n        /* \"#utility.yul\":490:514   */\n      tag_137\n        /* \"#utility.yul\":508:513   */\n      dup2\n        /* \"#utility.yul\":490:514   */\n      tag_87\n      jump\t// in\n    tag_137:\n        /* \"#utility.yul\":483:488   */\n      dup2\n        /* \"#utility.yul\":480:515   */\n      eq\n        /* \"#utility.yul\":470:533   */\n      tag_138\n      jumpi\n        /* \"#utility.yul\":529:530   */\n      0x00\n        /* \"#utility.yul\":526:527   */\n      dup1\n        /* \"#utility.yul\":519:531   */\n      revert\n        /* \"#utility.yul\":470:533   */\n    tag_138:\n        /* \"#utility.yul\":417:539   */\n      pop\n      jump\t// out\n        /* \"#utility.yul\":545:684   */\n    tag_89:\n        /* \"#utility.yul\":591:596   */\n      0x00\n        /* \"#utility.yul\":629:635   */\n      dup2\n        /* \"#utility.yul\":616:636   */\n      calldataload\n        /* \"#utility.yul\":607:636   */\n      swap1\n      pop\n        /* \"#utility.yul\":645:678   */\n      tag_140\n        /* \"#utility.yul\":672:677   */\n      dup2\n        /* \"#utility.yul\":645:678   */\n      tag_88\n      jump\t// in\n    tag_140:\n        /* \"#utility.yul\":545:684   */\n      swap3\n      swap2\n      pop\n      pop\n      jump\t// out\n        /* \"#utility.yul\":690:780   */\n    tag_90:\n        /* \"#utility.yul\":724:731   */\n      0x00\n        /* \"#utility.yul\":767:772   */\n      dup2\n        /* \"#utility.yul\":760:773   */\n      iszero\n        /* \"#utility.yul\":753:774   */\n      iszero\n        /* \"#utility.yul\":742:774   */\n      swap1\n      pop\n        /* \"#utility.yul\":690:780   */\n      swap2\n      swap1\n      pop\n      jump\t// out\n        /* \"#utility.yul\":786:902   */\n    tag_91:\n        /* \"#utility.yul\":856:877   */\n      tag_143\n        /* \"#utility.yul\":871:876   */\n      dup2\n        /* \"#utility.yul\":856:877   */\n      tag_90\n      jump\t// in\n    tag_143:\n        /* \"#utility.yul\":849:854   */\n      dup2\n        /* \"#utility.yul\":846:878   */\n      eq\n        /* \"#utility.yul\":836:896   */\n      tag_144\n      jumpi\n        /* \"#utility.yul\":892:893   */\n      0x00\n        /* \"#utility.yul\":889:890   */\n      dup1\n        /* \"#utility.yul\":882:894   */\n      revert\n        /* \"#utility.yul\":836:896   */\n    tag_144:\n        /* \"#utility.yul\":786:902   */\n      pop\n      jump\t// out\n        /* \"#utility.yul\":908:1041   */\n    tag_92:\n        /* \"#utility.yul\":951:956   */\n      0x00\n        /* \"#utility.yul\":989:995   */\n      dup2\n        /* \"#utility.yul\":976:996   */\n      calldataload\n        /* \"#utility.yul\":967:996   */\n      swap1\n      pop\n        /* \"#utility.yul\":1005:1035   */\n      tag_146\n        /* \"#utility.yul\":1029:1034   */\n      dup2\n        /* \"#utility.yul\":1005:1035   */\n      tag_91\n      jump\t// in\n    tag_146:\n        /* \"#utility.yul\":908:1041   */\n      swap3\n      swap2\n      pop\n      pop\n      jump\t// out\n        /* \"#utility.yul\":1047:1515   */\n    tag_15:\n        /* \"#utility.yul\":1112:1118   */\n      0x00\n        /* \"#utility.yul\":1120:1126   */\n      dup1\n        /* \"#utility.yul\":1169:1171   */\n      0x40\n        /* \"#utility.yul\":1157:1166   */\n      dup4\n        /* \"#utility.yul\":1148:1155   */\n      dup6\n        /* \"#utility.yul\":1144:1167   */\n      sub\n        /* \"#utility.yul\":1140:1172   */\n      slt\n        /* \"#utility.yul\":1137:1256   */\n      iszero\n      tag_148\n      jumpi\n        /* \"#utility.yul\":1175:1254   */\n      tag_149\n      tag_85\n      jump\t// in\n    tag_149:\n        /* \"#utility.yul\":1137:1256   */\n    tag_148:\n        /* \"#utility.yul\":1295:1296   */\n      0x00\n        /* \"#utility.yul\":1320:1373   */\n      tag_150\n        /* \"#utility.yul\":1365:1372   */\n      dup6\n        /* \"#utility.yul\":1356:1362   */\n      dup3\n        /* \"#utility.yul\":1345:1354   */\n      dup7\n        /* \"#utility.yul\":1341:1363   */\n      add\n        /* \"#utility.yul\":1320:1373   */\n      tag_89\n      jump\t// in\n    tag_150:\n        /* \"#utility.yul\":1310:1373   */\n      swap3\n      pop\n        /* \"#utility.yul\":1266:1383   */\n      pop\n        /* \"#utility.yul\":1422:1424   */\n      0x20\n        /* \"#utility.yul\":1448:1498   */\n      tag_151\n        /* \"#utility.yul\":1490:1497   */\n      dup6\n        /* \"#utility.yul\":1481:1487   */\n      dup3\n        /* \"#utility.yul\":1470:1479   */\n      dup7\n        /* \"#utility.yul\":1466:1488   */\n      add\n        /* \"#utility.yul\":1448:1498   */\n      tag_92\n      jump\t// in\n    tag_151:\n        /* \"#utility.yul\":1438:1498   */\n      swap2\n      pop\n        /* \"#utility.yul\":1393:1508   */\n      pop\n        /* \"#utility.yul\":1047:1515   */\n      swap3\n      pop\n      swap3\n      swap1\n      pop\n      jump\t// out\n        /* \"#utility.yul\":1521:1850   */\n    tag_19:\n        /* \"#utility.yul\":1580:1586   */\n      0x00\n        /* \"#utility.yul\":1629:1631   */\n      0x20\n        /* \"#utility.yul\":1617:1626   */\n      dup3\n        /* \"#utility.yul\":1608:1615   */\n      dup5\n        /* \"#utility.yul\":1604:1627   */\n      sub\n        /* \"#utility.yul\":1600:1632   */\n      slt\n        /* \"#utility.yul\":1597:1716   */\n      iszero\n      tag_153\n      jumpi\n        /* \"#utility.yul\":1635:1714   */\n      tag_154\n      tag_85\n      jump\t// in\n    tag_154:\n        /* \"#utility.yul\":1597:1716   */\n    tag_153:\n        /* \"#utility.yul\":1755:1756   */\n      0x00\n        /* \"#utility.yul\":1780:1833   */\n      tag_155\n        /* \"#utility.yul\":1825:1832   */\n      dup5\n        /* \"#utility.yul\":1816:1822   */\n      dup3\n        /* \"#utility.yul\":1805:1814   */\n      dup6\n        /* \"#utility.yul\":1801:1823   */\n      add\n        /* \"#utility.yul\":1780:1833   */\n      tag_89\n      jump\t// in\n    tag_155:\n        /* \"#utility.yul\":1770:1833   */\n      swap2\n      pop\n        /* \"#utility.yul\":1726:1843   */\n      pop\n        /* \"#utility.yul\":1521:1850   */\n      swap3\n      swap2\n      pop\n      pop\n      jump\t// out\n        /* \"#utility.yul\":1856:1982   */\n    tag_93:\n        /* \"#utility.yul\":1893:1900   */\n      0x00\n        /* \"#utility.yul\":1933:1975   */\n      0xffffffffffffffffffffffffffffffffffffffff\n        /* \"#utility.yul\":1926:1931   */\n      dup3\n        /* \"#utility.yul\":1922:1976   */\n      and\n        /* \"#utility.yul\":1911:1976   */\n      swap1\n      pop\n        /* \"#utility.yul\":1856:1982   */\n      swap2\n      swap1\n      pop\n      jump\t// out\n        /* \"#utility.yul\":1988:2084   */\n    tag_94:\n        /* \"#utility.yul\":2025:2032   */\n      0x00\n        /* \"#utility.yul\":2054:2078   */\n      tag_158\n        /* \"#utility.yul\":2072:2077   */\n      dup3\n        /* \"#utility.yul\":2054:2078   */\n      tag_93\n      jump\t// in\n    tag_158:\n        /* \"#utility.yul\":2043:2078   */\n      swap1\n      pop\n        /* \"#utility.yul\":1988:2084   */\n      swap2\n      swap1\n      pop\n      jump\t// out\n        /* \"#utility.yul\":2090:2208   */\n    tag_95:\n        /* \"#utility.yul\":2177:2201   */\n      tag_160\n        /* \"#utility.yul\":2195:2200   */\n      dup2\n        /* \"#utility.yul\":2177:2201   */\n      tag_94\n      jump\t// in\n    tag_160:\n        /* \"#utility.yul\":2172:2175   */\n      dup3\n        /* \"#utility.yul\":2165:2202   */\n      mstore\n        /* \"#utility.yul\":2090:2208   */\n      pop\n      pop\n      jump\t// out\n        /* \"#utility.yul\":2214:2436   */\n    tag_22:\n        /* \"#utility.yul\":2307:2311   */\n      0x00\n        /* \"#utility.yul\":2345:2347   */\n      0x20\n        /* \"#utility.yul\":2334:2343   */\n      dup3\n        /* \"#utility.yul\":2330:2348   */\n      add\n        /* \"#utility.yul\":2322:2348   */\n      swap1\n      pop\n        /* \"#utility.yul\":2358:2429   */\n      tag_162\n        /* \"#utility.yul\":2426:2427   */\n      0x00\n        /* \"#utility.yul\":2415:2424   */\n      dup4\n        /* \"#utility.yul\":2411:2428   */\n      add\n        /* \"#utility.yul\":2402:2408   */\n      dup5\n        /* \"#utility.yul\":2358:2429   */\n      tag_95\n      jump\t// in\n    tag_162:\n        /* \"#utility.yul\":2214:2436   */\n      swap3\n      swap2\n      pop\n      pop\n      jump\t// out\n        /* \"#utility.yul\":2442:2541   */\n    tag_96:\n        /* \"#utility.yul\":2494:2500   */\n      0x00\n        /* \"#utility.yul\":2528:2533   */\n      dup2\n        /* \"#utility.yul\":2522:2534   */\n      mload\n        /* \"#utility.yul\":2512:2534   */\n      swap1\n      pop\n        /* \"#utility.yul\":2442:2541   */\n      swap2\n      swap1\n      pop\n      jump\t// out\n        /* \"#utility.yul\":2547:2716   */\n    tag_97:\n        /* \"#utility.yul\":2631:2642   */\n      0x00\n        /* \"#utility.yul\":2665:2671   */\n      dup3\n        /* \"#utility.yul\":2660:2663   */\n      dup3\n        /* \"#utility.yul\":2653:2672   */\n      mstore\n        /* \"#utility.yul\":2705:2709   */\n      0x20\n        /* \"#utility.yul\":2700:2703   */\n      dup3\n        /* \"#utility.yul\":2696:2710   */\n      add\n        /* \"#utility.yul\":2681:2710   */\n      swap1\n      pop\n        /* \"#utility.yul\":2547:2716   */\n      swap3\n      swap2\n      pop\n      pop\n      jump\t// out\n        /* \"#utility.yul\":2722:2968   */\n    tag_98:\n        /* \"#utility.yul\":2803:2804   */\n      0x00\n        /* \"#utility.yul\":2813:2926   */\n    tag_166:\n        /* \"#utility.yul\":2827:2833   */\n      dup4\n        /* \"#utility.yul\":2824:2825   */\n      dup2\n        /* \"#utility.yul\":2821:2834   */\n      lt\n        /* \"#utility.yul\":2813:2926   */\n      iszero\n      tag_168\n      jumpi\n        /* \"#utility.yul\":2912:2913   */\n      dup1\n        /* \"#utility.yul\":2907:2910   */\n      dup3\n        /* \"#utility.yul\":2903:2914   */\n      add\n        /* \"#utility.yul\":2897:2915   */\n      mload\n        /* \"#utility.yul\":2893:2894   */\n      dup2\n        /* \"#utility.yul\":2888:2891   */\n      dup5\n        /* \"#utility.yul\":2884:2895   */\n      add\n        /* \"#utility.yul\":2877:2916   */\n      mstore\n        /* \"#utility.yul\":2849:2851   */\n      0x20\n        /* \"#utility.yul\":2846:2847   */\n      dup2\n        /* \"#utility.yul\":2842:2852   */\n      add\n        /* \"#utility.yul\":2837:2852   */\n      swap1\n      pop\n        /* \"#utility.yul\":2813:2926   */\n      jump(tag_166)\n    tag_168:\n        /* \"#utility.yul\":2960:2961   */\n      0x00\n        /* \"#utility.yul\":2951:2957   */\n      dup5\n        /* \"#utility.yul\":2946:2949   */\n      dup5\n        /* \"#utility.yul\":2942:2958   */\n      add\n        /* \"#utility.yul\":2935:2962   */\n      mstore\n        /* \"#utility.yul\":2784:2968   */\n      pop\n        /* \"#utility.yul\":2722:2968   */\n      pop\n      pop\n      pop\n      jump\t// out\n        /* \"#utility.yul\":2974:3076   */\n    tag_99:\n        /* \"#utility.yul\":3015:3021   */\n      0x00\n        /* \"#utility.yul\":3066:3068   */\n      0x1f\n        /* \"#utility.yul\":3062:3069   */\n      not\n        /* \"#utility.yul\":3057:3059   */\n      0x1f\n        /* \"#utility.yul\":3050:3055   */\n      dup4\n        /* \"#utility.yul\":3046:3060   */\n      add\n        /* \"#utility.yul\":3042:3070   */\n      and\n        /* \"#utility.yul\":3032:3070   */\n      swap1\n      pop\n        /* \"#utility.yul\":2974:3076   */\n      swap2\n      swap1\n      pop\n      jump\t// out\n        /* \"#utility.yul\":3082:3459   */\n    tag_100:\n        /* \"#utility.yul\":3170:3173   */\n      0x00\n        /* \"#utility.yul\":3198:3237   */\n      tag_171\n        /* \"#utility.yul\":3231:3236   */\n      dup3\n        /* \"#utility.yul\":3198:3237   */\n      tag_96\n      jump\t// in\n    tag_171:\n        /* \"#utility.yul\":3253:3324   */\n      tag_172\n        /* \"#utility.yul\":3317:3323   */\n      dup2\n        /* \"#utility.yul\":3312:3315   */\n      dup6\n        /* \"#utility.yul\":3253:3324   */\n      tag_97\n      jump\t// in\n    tag_172:\n        /* \"#utility.yul\":3246:3324   */\n      swap4\n      pop\n        /* \"#utility.yul\":3333:3398   */\n      tag_173\n        /* \"#utility.yul\":3391:3397   */\n      dup2\n        /* \"#utility.yul\":3386:3389   */\n      dup6\n        /* \"#utility.yul\":3379:3383   */\n      0x20\n        /* \"#utility.yul\":3372:3377   */\n      dup7\n        /* \"#utility.yul\":3368:3384   */\n      add\n        /* \"#utility.yul\":3333:3398   */\n      tag_98\n      jump\t// in\n    tag_173:\n        /* \"#utility.yul\":3423:3452   */\n      tag_174\n        /* \"#utility.yul\":3445:3451   */\n      dup2\n        /* \"#utility.yul\":3423:3452   */\n      tag_99\n      jump\t// in\n    tag_174:\n        /* \"#utility.yul\":3418:3421   */\n      dup5\n        /* \"#utility.yul\":3414:3453   */\n      add\n        /* \"#utility.yul\":3407:3453   */\n      swap2\n      pop\n        /* \"#utility.yul\":3174:3459   */\n      pop\n        /* \"#utility.yul\":3082:3459   */\n      swap3\n      swap2\n      pop\n      pop\n      jump\t// out\n        /* \"#utility.yul\":3465:3574   */\n    tag_101:\n        /* \"#utility.yul\":3546:3567   */\n      tag_176\n        /* \"#utility.yul\":3561:3566   */\n      dup2\n        /* \"#utility.yul\":3546:3567   */\n      tag_90\n      jump\t// in\n    tag_176:\n        /* \"#utility.yul\":3541:3544   */\n      dup3\n        /* \"#utility.yul\":3534:3568   */\n      mstore\n        /* \"#utility.yul\":3465:3574   */\n      pop\n      pop\n      jump\t// out\n        /* \"#utility.yul\":3580:3991   */\n    tag_27:\n        /* \"#utility.yul\":3715:3719   */\n      0x00\n        /* \"#utility.yul\":3753:3755   */\n      0x40\n        /* \"#utility.yul\":3742:3751   */\n      dup3\n        /* \"#utility.yul\":3738:3756   */\n      add\n        /* \"#utility.yul\":3730:3756   */\n      swap1\n      pop\n        /* \"#utility.yul\":3802:3811   */\n      dup2\n        /* \"#utility.yul\":3796:3800   */\n      dup2\n        /* \"#utility.yul\":3792:3812   */\n      sub\n        /* \"#utility.yul\":3788:3789   */\n      0x00\n        /* \"#utility.yul\":3777:3786   */\n      dup4\n        /* \"#utility.yul\":3773:3790   */\n      add\n        /* \"#utility.yul\":3766:3813   */\n      mstore\n        /* \"#utility.yul\":3830:3908   */\n      tag_178\n        /* \"#utility.yul\":3903:3907   */\n      dup2\n        /* \"#utility.yul\":3894:3900   */\n      dup6\n        /* \"#utility.yul\":3830:3908   */\n      tag_100\n      jump\t// in\n    tag_178:\n        /* \"#utility.yul\":3822:3908   */\n      swap1\n      pop\n        /* \"#utility.yul\":3918:3984   */\n      tag_179\n        /* \"#utility.yul\":3980:3982   */\n      0x20\n        /* \"#utility.yul\":3969:3978   */\n      dup4\n        /* \"#utility.yul\":3965:3983   */\n      add\n        /* \"#utility.yul\":3956:3962   */\n      dup5\n        /* \"#utility.yul\":3918:3984   */\n      tag_101\n      jump\t// in\n    tag_179:\n        /* \"#utility.yul\":3580:3991   */\n      swap4\n      swap3\n      pop\n      pop\n      pop\n      jump\t// out\n        /* \"#utility.yul\":3997:4114   */\n    tag_102:\n        /* \"#utility.yul\":4106:4107   */\n      0x00\n        /* \"#utility.yul\":4103:4104   */\n      dup1\n        /* \"#utility.yul\":4096:4108   */\n      revert\n        /* \"#utility.yul\":4120:4237   */\n    tag_103:\n        /* \"#utility.yul\":4229:4230   */\n      0x00\n        /* \"#utility.yul\":4226:4227   */\n      dup1\n        /* \"#utility.yul\":4219:4231   */\n      revert\n        /* \"#utility.yul\":4243:4423   */\n    tag_104:\n        /* \"#utility.yul\":4291:4368   */\n      0x4e487b7100000000000000000000000000000000000000000000000000000000\n        /* \"#utility.yul\":4288:4289   */\n      0x00\n        /* \"#utility.yul\":4281:4369   */\n      mstore\n        /* \"#utility.yul\":4388:4392   */\n      0x41\n        /* \"#utility.yul\":4385:4386   */\n      0x04\n        /* \"#utility.yul\":4378:4393   */\n      mstore\n        /* \"#utility.yul\":4412:4416   */\n      0x24\n        /* \"#utility.yul\":4409:4410   */\n      0x00\n        /* \"#utility.yul\":4402:4417   */\n      revert\n        /* \"#utility.yul\":4429:4710   */\n    tag_105:\n        /* \"#utility.yul\":4512:4539   */\n      tag_184\n        /* \"#utility.yul\":4534:4538   */\n      dup3\n        /* \"#utility.yul\":4512:4539   */\n      tag_99\n      jump\t// in\n    tag_184:\n        /* \"#utility.yul\":4504:4510   */\n      dup2\n        /* \"#utility.yul\":4500:4540   */\n      add\n        /* \"#utility.yul\":4642:4648   */\n      dup2\n        /* \"#utility.yul\":4630:4640   */\n      dup2\n        /* \"#utility.yul\":4627:4649   */\n      lt\n        /* \"#utility.yul\":4606:4624   */\n      0xffffffffffffffff\n        /* \"#utility.yul\":4594:4604   */\n      dup3\n        /* \"#utility.yul\":4591:4625   */\n      gt\n        /* \"#utility.yul\":4588:4650   */\n      or\n        /* \"#utility.yul\":4585:4673   */\n      iszero\n      tag_185\n      jumpi\n        /* \"#utility.yul\":4653:4671   */\n      tag_186\n      tag_104\n      jump\t// in\n    tag_186:\n        /* \"#utility.yul\":4585:4673   */\n    tag_185:\n        /* \"#utility.yul\":4693:4703   */\n      dup1\n        /* \"#utility.yul\":4689:4691   */\n      0x40\n        /* \"#utility.yul\":4682:4704   */\n      mstore\n        /* \"#utility.yul\":4472:4710   */\n      pop\n        /* \"#utility.yul\":4429:4710   */\n      pop\n      pop\n      jump\t// out\n        /* \"#utility.yul\":4716:4845   */\n    tag_106:\n        /* \"#utility.yul\":4750:4756   */\n      0x00\n        /* \"#utility.yul\":4777:4797   */\n      tag_188\n      tag_84\n      jump\t// in\n    tag_188:\n        /* \"#utility.yul\":4767:4797   */\n      swap1\n      pop\n        /* \"#utility.yul\":4806:4839   */\n      tag_189\n        /* \"#utility.yul\":4834:4838   */\n      dup3\n        /* \"#utility.yul\":4826:4832   */\n      dup3\n        /* \"#utility.yul\":4806:4839   */\n      tag_105\n      jump\t// in\n    tag_189:\n        /* \"#utility.yul\":4716:4845   */\n      swap2\n      swap1\n      pop\n      jump\t// out\n        /* \"#utility.yul\":4851:5159   */\n    tag_107:\n        /* \"#utility.yul\":4913:4917   */\n      0x00\n        /* \"#utility.yul\":5003:5021   */\n      0xffffffffffffffff\n        /* \"#utility.yul\":4995:5001   */\n      dup3\n        /* \"#utility.yul\":4992:5022   */\n      gt\n        /* \"#utility.yul\":4989:5045   */\n      iszero\n      tag_191\n      jumpi\n        /* \"#utility.yul\":5025:5043   */\n      tag_192\n      tag_104\n      jump\t// in\n    tag_192:\n        /* \"#utility.yul\":4989:5045   */\n    tag_191:\n        /* \"#utility.yul\":5063:5092   */\n      tag_193\n        /* \"#utility.yul\":5085:5091   */\n      dup3\n        /* \"#utility.yul\":5063:5092   */\n      tag_99\n      jump\t// in\n    tag_193:\n        /* \"#utility.yul\":5055:5092   */\n      swap1\n      pop\n        /* \"#utility.yul\":5147:5151   */\n      0x20\n        /* \"#utility.yul\":5141:5145   */\n      dup2\n        /* \"#utility.yul\":5137:5152   */\n      add\n        /* \"#utility.yul\":5129:5152   */\n      swap1\n      pop\n        /* \"#utility.yul\":4851:5159   */\n      swap2\n      swap1\n      pop\n      jump\t// out\n        /* \"#utility.yul\":5165:5311   */\n    tag_108:\n        /* \"#utility.yul\":5262:5268   */\n      dup3\n        /* \"#utility.yul\":5257:5260   */\n      dup2\n        /* \"#utility.yul\":5252:5255   */\n      dup4\n        /* \"#utility.yul\":5239:5269   */\n      calldatacopy\n        /* \"#utility.yul\":5303:5304   */\n      0x00\n        /* \"#utility.yul\":5294:5300   */\n      dup4\n        /* \"#utility.yul\":5289:5292   */\n      dup4\n        /* \"#utility.yul\":5285:5301   */\n      add\n        /* \"#utility.yul\":5278:5305   */\n      mstore\n        /* \"#utility.yul\":5165:5311   */\n      pop\n      pop\n      pop\n      jump\t// out\n        /* \"#utility.yul\":5317:5742   */\n    tag_109:\n        /* \"#utility.yul\":5395:5400   */\n      0x00\n        /* \"#utility.yul\":5420:5486   */\n      tag_196\n        /* \"#utility.yul\":5436:5485   */\n      tag_197\n        /* \"#utility.yul\":5478:5484   */\n      dup5\n        /* \"#utility.yul\":5436:5485   */\n      tag_107\n      jump\t// in\n    tag_197:\n        /* \"#utility.yul\":5420:5486   */\n      tag_106\n      jump\t// in\n    tag_196:\n        /* \"#utility.yul\":5411:5486   */\n      swap1\n      pop\n        /* \"#utility.yul\":5509:5515   */\n      dup3\n        /* \"#utility.yul\":5502:5507   */\n      dup2\n        /* \"#utility.yul\":5495:5516   */\n      mstore\n        /* \"#utility.yul\":5547:5551   */\n      0x20\n        /* \"#utility.yul\":5540:5545   */\n      dup2\n        /* \"#utility.yul\":5536:5552   */\n      add\n        /* \"#utility.yul\":5585:5588   */\n      dup5\n        /* \"#utility.yul\":5576:5582   */\n      dup5\n        /* \"#utility.yul\":5571:5574   */\n      dup5\n        /* \"#utility.yul\":5567:5583   */\n      add\n        /* \"#utility.yul\":5564:5589   */\n      gt\n        /* \"#utility.yul\":5561:5673   */\n      iszero\n      tag_198\n      jumpi\n        /* \"#utility.yul\":5592:5671   */\n      tag_199\n      tag_103\n      jump\t// in\n    tag_199:\n        /* \"#utility.yul\":5561:5673   */\n    tag_198:\n        /* \"#utility.yul\":5682:5736   */\n      tag_200\n        /* \"#utility.yul\":5729:5735   */\n      dup5\n        /* \"#utility.yul\":5724:5727   */\n      dup3\n        /* \"#utility.yul\":5719:5722   */\n      dup6\n        /* \"#utility.yul\":5682:5736   */\n      tag_108\n      jump\t// in\n    tag_200:\n        /* \"#utility.yul\":5401:5742   */\n      pop\n        /* \"#utility.yul\":5317:5742   */\n      swap4\n      swap3\n      pop\n      pop\n      pop\n      jump\t// out\n        /* \"#utility.yul\":5762:6102   */\n    tag_110:\n        /* \"#utility.yul\":5818:5823   */\n      0x00\n        /* \"#utility.yul\":5867:5870   */\n      dup3\n        /* \"#utility.yul\":5860:5864   */\n      0x1f\n        /* \"#utility.yul\":5852:5858   */\n      dup4\n        /* \"#utility.yul\":5848:5865   */\n      add\n        /* \"#utility.yul\":5844:5871   */\n      slt\n        /* \"#utility.yul\":5834:5956   */\n      tag_202\n      jumpi\n        /* \"#utility.yul\":5875:5954   */\n      tag_203\n      tag_102\n      jump\t// in\n    tag_203:\n        /* \"#utility.yul\":5834:5956   */\n    tag_202:\n        /* \"#utility.yul\":5992:5998   */\n      dup2\n        /* \"#utility.yul\":5979:5999   */\n      calldataload\n        /* \"#utility.yul\":6017:6096   */\n      tag_204\n        /* \"#utility.yul\":6092:6095   */\n      dup5\n        /* \"#utility.yul\":6084:6090   */\n      dup3\n        /* \"#utility.yul\":6077:6081   */\n      0x20\n        /* \"#utility.yul\":6069:6075   */\n      dup7\n        /* \"#utility.yul\":6065:6082   */\n      add\n        /* \"#utility.yul\":6017:6096   */\n      tag_109\n      jump\t// in\n    tag_204:\n        /* \"#utility.yul\":6008:6096   */\n      swap2\n      pop\n        /* \"#utility.yul\":5824:6102   */\n      pop\n        /* \"#utility.yul\":5762:6102   */\n      swap3\n      swap2\n      pop\n      pop\n      jump\t// out\n        /* \"#utility.yul\":6108:6617   */\n    tag_37:\n        /* \"#utility.yul\":6177:6183   */\n      0x00\n        /* \"#utility.yul\":6226:6228   */\n      0x20\n        /* \"#utility.yul\":6214:6223   */\n      dup3\n        /* \"#utility.yul\":6205:6212   */\n      dup5\n        /* \"#utility.yul\":6201:6224   */\n      sub\n        /* \"#utility.yul\":6197:6229   */\n      slt\n        /* \"#utility.yul\":6194:6313   */\n      iszero\n      tag_206\n      jumpi\n        /* \"#utility.yul\":6232:6311   */\n      tag_207\n      tag_85\n      jump\t// in\n    tag_207:\n        /* \"#utility.yul\":6194:6313   */\n    tag_206:\n        /* \"#utility.yul\":6380:6381   */\n      0x00\n        /* \"#utility.yul\":6369:6378   */\n      dup3\n        /* \"#utility.yul\":6365:6382   */\n      add\n        /* \"#utility.yul\":6352:6383   */\n      calldataload\n        /* \"#utility.yul\":6410:6428   */\n      0xffffffffffffffff\n        /* \"#utility.yul\":6402:6408   */\n      dup2\n        /* \"#utility.yul\":6399:6429   */\n      gt\n        /* \"#utility.yul\":6396:6513   */\n      iszero\n      tag_208\n      jumpi\n        /* \"#utility.yul\":6432:6511   */\n      tag_209\n      tag_86\n      jump\t// in\n    tag_209:\n        /* \"#utility.yul\":6396:6513   */\n    tag_208:\n        /* \"#utility.yul\":6537:6600   */\n      tag_210\n        /* \"#utility.yul\":6592:6599   */\n      dup5\n        /* \"#utility.yul\":6583:6589   */\n      dup3\n        /* \"#utility.yul\":6572:6581   */\n      dup6\n        /* \"#utility.yul\":6568:6590   */\n      add\n        /* \"#utility.yul\":6537:6600   */\n      tag_110\n      jump\t// in\n    tag_210:\n        /* \"#utility.yul\":6527:6600   */\n      swap2\n      pop\n        /* \"#utility.yul\":6323:6610   */\n      pop\n        /* \"#utility.yul\":6108:6617   */\n      swap3\n      swap2\n      pop\n      pop\n      jump\t// out\n        /* \"#utility.yul\":6623:6791   */\n    tag_111:\n        /* \"#utility.yul\":6763:6783   */\n      0x6e6f7420636f6e7472616374206f776e65720000000000000000000000000000\n        /* \"#utility.yul\":6759:6760   */\n      0x00\n        /* \"#utility.yul\":6751:6757   */\n      dup3\n        /* \"#utility.yul\":6747:6761   */\n      add\n        /* \"#utility.yul\":6740:6784   */\n      mstore\n        /* \"#utility.yul\":6623:6791   */\n      pop\n      jump\t// out\n        /* \"#utility.yul\":6797:7163   */\n    tag_112:\n        /* \"#utility.yul\":6939:6942   */\n      0x00\n        /* \"#utility.yul\":6960:7027   */\n      tag_213\n        /* \"#utility.yul\":7024:7026   */\n      0x12\n        /* \"#utility.yul\":7019:7022   */\n      dup4\n        /* \"#utility.yul\":6960:7027   */\n      tag_97\n      jump\t// in\n    tag_213:\n        /* \"#utility.yul\":6953:7027   */\n      swap2\n      pop\n        /* \"#utility.yul\":7036:7129   */\n      tag_214\n        /* \"#utility.yul\":7125:7128   */\n      dup3\n        /* \"#utility.yul\":7036:7129   */\n      tag_111\n      jump\t// in\n    tag_214:\n        /* \"#utility.yul\":7154:7156   */\n      0x20\n        /* \"#utility.yul\":7149:7152   */\n      dup3\n        /* \"#utility.yul\":7145:7157   */\n      add\n        /* \"#utility.yul\":7138:7157   */\n      swap1\n      pop\n        /* \"#utility.yul\":6797:7163   */\n      swap2\n      swap1\n      pop\n      jump\t// out\n        /* \"#utility.yul\":7169:7588   */\n    tag_42:\n        /* \"#utility.yul\":7335:7339   */\n      0x00\n        /* \"#utility.yul\":7373:7375   */\n      0x20\n        /* \"#utility.yul\":7362:7371   */\n      dup3\n        /* \"#utility.yul\":7358:7376   */\n      add\n        /* \"#utility.yul\":7350:7376   */\n      swap1\n      pop\n        /* \"#utility.yul\":7422:7431   */\n      dup2\n        /* \"#utility.yul\":7416:7420   */\n      dup2\n        /* \"#utility.yul\":7412:7432   */\n      sub\n        /* \"#utility.yul\":7408:7409   */\n      0x00\n        /* \"#utility.yul\":7397:7406   */\n      dup4\n        /* \"#utility.yul\":7393:7410   */\n      add\n        /* \"#utility.yul\":7386:7433   */\n      mstore\n        /* \"#utility.yul\":7450:7581   */\n      tag_216\n        /* \"#utility.yul\":7576:7580   */\n      dup2\n        /* \"#utility.yul\":7450:7581   */\n      tag_112\n      jump\t// in\n    tag_216:\n        /* \"#utility.yul\":7442:7581   */\n      swap1\n      pop\n        /* \"#utility.yul\":7169:7588   */\n      swap2\n      swap1\n      pop\n      jump\t// out\n        /* \"#utility.yul\":7594:7774   */\n    tag_48:\n        /* \"#utility.yul\":7642:7719   */\n      0x4e487b7100000000000000000000000000000000000000000000000000000000\n        /* \"#utility.yul\":7639:7640   */\n      0x00\n        /* \"#utility.yul\":7632:7720   */\n      mstore\n        /* \"#utility.yul\":7739:7743   */\n      0x32\n        /* \"#utility.yul\":7736:7737   */\n      0x04\n        /* \"#utility.yul\":7729:7744   */\n      mstore\n        /* \"#utility.yul\":7763:7767   */\n      0x24\n        /* \"#utility.yul\":7760:7761   */\n      0x00\n        /* \"#utility.yul\":7753:7768   */\n      revert\n        /* \"#utility.yul\":7780:7898   */\n    tag_113:\n        /* \"#utility.yul\":7867:7891   */\n      tag_219\n        /* \"#utility.yul\":7885:7890   */\n      dup2\n        /* \"#utility.yul\":7867:7891   */\n      tag_87\n      jump\t// in\n    tag_219:\n        /* \"#utility.yul\":7862:7865   */\n      dup3\n        /* \"#utility.yul\":7855:7892   */\n      mstore\n        /* \"#utility.yul\":7780:7898   */\n      pop\n      pop\n      jump\t// out\n        /* \"#utility.yul\":7904:8224   */\n    tag_51:\n        /* \"#utility.yul\":8019:8023   */\n      0x00\n        /* \"#utility.yul\":8057:8059   */\n      0x40\n        /* \"#utility.yul\":8046:8055   */\n      dup3\n        /* \"#utility.yul\":8042:8060   */\n      add\n        /* \"#utility.yul\":8034:8060   */\n      swap1\n      pop\n        /* \"#utility.yul\":8070:8141   */\n      tag_221\n        /* \"#utility.yul\":8138:8139   */\n      0x00\n        /* \"#utility.yul\":8127:8136   */\n      dup4\n        /* \"#utility.yul\":8123:8140   */\n      add\n        /* \"#utility.yul\":8114:8120   */\n      dup6\n        /* \"#utility.yul\":8070:8141   */\n      tag_113\n      jump\t// in\n    tag_221:\n        /* \"#utility.yul\":8151:8217   */\n      tag_222\n        /* \"#utility.yul\":8213:8215   */\n      0x20\n        /* \"#utility.yul\":8202:8211   */\n      dup4\n        /* \"#utility.yul\":8198:8216   */\n      add\n        /* \"#utility.yul\":8189:8195   */\n      dup5\n        /* \"#utility.yul\":8151:8217   */\n      tag_101\n      jump\t// in\n    tag_222:\n        /* \"#utility.yul\":7904:8224   */\n      swap4\n      swap3\n      pop\n      pop\n      pop\n      jump\t// out\n        /* \"#utility.yul\":8230:8410   */\n    tag_114:\n        /* \"#utility.yul\":8278:8355   */\n      0x4e487b7100000000000000000000000000000000000000000000000000000000\n        /* \"#utility.yul\":8275:8276   */\n      0x00\n        /* \"#utility.yul\":8268:8356   */\n      mstore\n        /* \"#utility.yul\":8375:8379   */\n      0x22\n        /* \"#utility.yul\":8372:8373   */\n      0x04\n        /* \"#utility.yul\":8365:8380   */\n      mstore\n        /* \"#utility.yul\":8399:8403   */\n      0x24\n        /* \"#utility.yul\":8396:8397   */\n      0x00\n        /* \"#utility.yul\":8389:8404   */\n      revert\n        /* \"#utility.yul\":8416:8736   */\n    tag_55:\n        /* \"#utility.yul\":8460:8466   */\n      0x00\n        /* \"#utility.yul\":8497:8498   */\n      0x02\n        /* \"#utility.yul\":8491:8495   */\n      dup3\n        /* \"#utility.yul\":8487:8499   */\n      div\n        /* \"#utility.yul\":8477:8499   */\n      swap1\n      pop\n        /* \"#utility.yul\":8544:8545   */\n      0x01\n        /* \"#utility.yul\":8538:8542   */\n      dup3\n        /* \"#utility.yul\":8534:8546   */\n      and\n        /* \"#utility.yul\":8565:8583   */\n      dup1\n        /* \"#utility.yul\":8555:8636   */\n      tag_225\n      jumpi\n        /* \"#utility.yul\":8621:8625   */\n      0x7f\n        /* \"#utility.yul\":8613:8619   */\n      dup3\n        /* \"#utility.yul\":8609:8626   */\n      and\n        /* \"#utility.yul\":8599:8626   */\n      swap2\n      pop\n        /* \"#utility.yul\":8555:8636   */\n    tag_225:\n        /* \"#utility.yul\":8683:8685   */\n      0x20\n        /* \"#utility.yul\":8675:8681   */\n      dup3\n        /* \"#utility.yul\":8672:8686   */\n      lt\n        /* \"#utility.yul\":8652:8670   */\n      dup2\n        /* \"#utility.yul\":8649:8687   */\n      sub\n        /* \"#utility.yul\":8646:8730   */\n      tag_226\n      jumpi\n        /* \"#utility.yul\":8702:8720   */\n      tag_227\n      tag_114\n      jump\t// in\n    tag_227:\n        /* \"#utility.yul\":8646:8730   */\n    tag_226:\n        /* \"#utility.yul\":8467:8736   */\n      pop\n        /* \"#utility.yul\":8416:8736   */\n      swap2\n      swap1\n      pop\n      jump\t// out\n        /* \"#utility.yul\":8742:8883   */\n    tag_115:\n        /* \"#utility.yul\":8791:8795   */\n      0x00\n        /* \"#utility.yul\":8814:8817   */\n      dup2\n        /* \"#utility.yul\":8806:8817   */\n      swap1\n      pop\n        /* \"#utility.yul\":8837:8840   */\n      dup2\n        /* \"#utility.yul\":8834:8835   */\n      0x00\n        /* \"#utility.yul\":8827:8841   */\n      mstore\n        /* \"#utility.yul\":8871:8875   */\n      0x20\n        /* \"#utility.yul\":8868:8869   */\n      0x00\n        /* \"#utility.yul\":8858:8876   */\n      keccak256\n        /* \"#utility.yul\":8850:8876   */\n      swap1\n      pop\n        /* \"#utility.yul\":8742:8883   */\n      swap2\n      swap1\n      pop\n      jump\t// out\n        /* \"#utility.yul\":8889:8982   */\n    tag_116:\n        /* \"#utility.yul\":8926:8932   */\n      0x00\n        /* \"#utility.yul\":8973:8975   */\n      0x20\n        /* \"#utility.yul\":8968:8970   */\n      0x1f\n        /* \"#utility.yul\":8961:8966   */\n      dup4\n        /* \"#utility.yul\":8957:8971   */\n      add\n        /* \"#utility.yul\":8953:8976   */\n      div\n        /* \"#utility.yul\":8943:8976   */\n      swap1\n      pop\n        /* \"#utility.yul\":8889:8982   */\n      swap2\n      swap1\n      pop\n      jump\t// out\n        /* \"#utility.yul\":8988:9095   */\n    tag_117:\n        /* \"#utility.yul\":9032:9040   */\n      0x00\n        /* \"#utility.yul\":9082:9087   */\n      dup3\n        /* \"#utility.yul\":9076:9080   */\n      dup3\n        /* \"#utility.yul\":9072:9088   */\n      shl\n        /* \"#utility.yul\":9051:9088   */\n      swap1\n      pop\n        /* \"#utility.yul\":8988:9095   */\n      swap3\n      swap2\n      pop\n      pop\n      jump\t// out\n        /* \"#utility.yul\":9101:9494   */\n    tag_118:\n        /* \"#utility.yul\":9170:9176   */\n      0x00\n        /* \"#utility.yul\":9220:9221   */\n      0x08\n        /* \"#utility.yul\":9208:9218   */\n      dup4\n        /* \"#utility.yul\":9204:9222   */\n      mul\n        /* \"#utility.yul\":9243:9340   */\n      tag_232\n        /* \"#utility.yul\":9273:9339   */\n      0xffffffffffffffffffffffffffffffffffffffffffffffffffffffffffffffff\n        /* \"#utility.yul\":9262:9271   */\n      dup3\n        /* \"#utility.yul\":9243:9340   */\n      tag_117\n      jump\t// in\n    tag_232:\n        /* \"#utility.yul\":9361:9400   */\n      tag_233\n        /* \"#utility.yul\":9391:9399   */\n      dup7\n        /* \"#utility.yul\":9380:9389   */\n      dup4\n        /* \"#utility.yul\":9361:9400   */\n      tag_117\n      jump\t// in\n    tag_233:\n        /* \"#utility.yul\":9349:9400   */\n      swap6\n      pop\n        /* \"#utility.yul\":9433:9437   */\n      dup1\n        /* \"#utility.yul\":9429:9438   */\n      not\n        /* \"#utility.yul\":9422:9427   */\n      dup5\n        /* \"#utility.yul\":9418:9439   */\n      and\n        /* \"#utility.yul\":9409:9439   */\n      swap4\n      pop\n        /* \"#utility.yul\":9482:9486   */\n      dup1\n        /* \"#utility.yul\":9472:9480   */\n      dup7\n        /* \"#utility.yul\":9468:9487   */\n      and\n        /* \"#utility.yul\":9461:9466   */\n      dup5\n        /* \"#utility.yul\":9458:9488   */\n      or\n        /* \"#utility.yul\":9448:9488   */\n      swap3\n      pop\n        /* \"#utility.yul\":9177:9494   */\n      pop\n      pop\n        /* \"#utility.yul\":9101:9494   */\n      swap4\n      swap3\n      pop\n      pop\n      pop\n      jump\t// out\n        /* \"#utility.yul\":9500:9560   */\n    tag_119:\n        /* \"#utility.yul\":9528:9531   */\n      0x00\n        /* \"#utility.yul\":9549:9554   */\n      dup2\n        /* \"#utility.yul\":9542:9554   */\n      swap1\n      pop\n        /* \"#utility.yul\":9500:9560   */\n      swap2\n      swap1\n      pop\n      jump\t// out\n        /* \"#utility.yul\":9566:9708   */\n    tag_120:\n        /* \"#utility.yul\":9616:9625   */\n      0x00\n        /* \"#utility.yul\":9649:9702   */\n      tag_236\n        /* \"#utility.yul\":9667:9701   */\n      tag_237\n        /* \"#utility.yul\":9676:9700   */\n      tag_238\n        /* \"#utility.yul\":9694:9699   */\n      dup5\n        /* \"#utility.yul\":9676:9700   */\n      tag_87\n      jump\t// in\n    tag_238:\n        /* \"#utility.yul\":9667:9701   */\n      tag_119\n      jump\t// in\n    tag_237:\n        /* \"#utility.yul\":9649:9702   */\n      tag_87\n      jump\t// in\n    tag_236:\n        /* \"#utility.yul\":9636:9702   */\n      swap1\n      pop\n        /* \"#utility.yul\":9566:9708   */\n      swap2\n      swap1\n      pop\n      jump\t// out\n        /* \"#utility.yul\":9714:9789   */\n    tag_121:\n        /* \"#utility.yul\":9757:9760   */\n      0x00\n        /* \"#utility.yul\":9778:9783   */\n      dup2\n        /* \"#utility.yul\":9771:9783   */\n      swap1\n      pop\n        /* \"#utility.yul\":9714:9789   */\n      swap2\n      swap1\n      pop\n      jump\t// out\n        /* \"#utility.yul\":9795:10064   */\n    tag_122:\n        /* \"#utility.yul\":9905:9944   */\n      tag_241\n        /* \"#utility.yul\":9936:9943   */\n      dup4\n        /* \"#utility.yul\":9905:9944   */\n      tag_120\n      jump\t// in\n    tag_241:\n        /* \"#utility.yul\":9966:10057   */\n      tag_242\n        /* \"#utility.yul\":10015:10056   */\n      tag_243\n        /* \"#utility.yul\":10039:10055   */\n      dup3\n        /* \"#utility.yul\":10015:10056   */\n      tag_121\n      jump\t// in\n    tag_243:\n        /* \"#utility.yul\":10007:10013   */\n      dup5\n        /* \"#utility.yul\":10000:10004   */\n      dup5\n        /* \"#utility.yul\":9994:10005   */\n      sload\n        /* \"#utility.yul\":9966:10057   */\n      tag_118\n      jump\t// in\n    tag_242:\n        /* \"#utility.yul\":9960:9964   */\n      dup3\n        /* \"#utility.yul\":9953:10058   */\n      sstore\n        /* \"#utility.yul\":9871:10064   */\n      pop\n        /* \"#utility.yul\":9795:10064   */\n      pop\n      pop\n      pop\n      jump\t// out\n        /* \"#utility.yul\":10070:10143   */\n    tag_123:\n        /* \"#utility.yul\":10115:10118   */\n      0x00\n        /* \"#utility.yul\":10070:10143   */\n      swap1\n      jump\t// out\n        /* \"#utility.yul\":10149:10338   */\n    tag_124:\n        /* \"#utility.yul\":10226:10258   */\n      tag_246\n      tag_123\n      jump\t// in\n    tag_246:\n        /* \"#utility.yul\":10267:10332   */\n      tag_247\n        /* \"#utility.yul\":10325:10331   */\n      dup2\n        /* \"#utility.yul\":10317:10323   */\n      dup5\n        /* \"#utility.yul\":10311:10315   */\n      dup5\n        /* \"#utility.yul\":10267:10332   */\n      tag_122\n      jump\t// in\n    tag_247:\n        /* \"#utility.yul\":10202:10338   */\n      pop\n        /* \"#utility.yul\":10149:10338   */\n      pop\n      pop\n      jump\t// out\n        /* \"#utility.yul\":10344:10530   */\n    tag_125:\n        /* \"#utility.yul\":10404:10524   */\n    tag_249:\n        /* \"#utility.yul\":10421:10424   */\n      dup2\n        /* \"#utility.yul\":10414:10419   */\n      dup2\n        /* \"#utility.yul\":10411:10425   */\n      lt\n        /* \"#utility.yul\":10404:10524   */\n      iszero\n      tag_251\n      jumpi\n        /* \"#utility.yul\":10475:10514   */\n      tag_252\n        /* \"#utility.yul\":10512:10513   */\n      0x00\n        /* \"#utility.yul\":10505:10510   */\n      dup3\n        /* \"#utility.yul\":10475:10514   */\n      tag_124\n      jump\t// in\n    tag_252:\n        /* \"#utility.yul\":10448:10449   */\n      0x01\n        /* \"#utility.yul\":10441:10446   */\n      dup2\n        /* \"#utility.yul\":10437:10450   */\n      add\n        /* \"#utility.yul\":10428:10450   */\n      swap1\n      pop\n        /* \"#utility.yul\":10404:10524   */\n      jump(tag_249)\n    tag_251:\n        /* \"#utility.yul\":10344:10530   */\n      pop\n      pop\n      jump\t// out\n        /* \"#utility.yul\":10536:11079   */\n    tag_126:\n        /* \"#utility.yul\":10637:10639   */\n      0x1f\n        /* \"#utility.yul\":10632:10635   */\n      dup3\n        /* \"#utility.yul\":10629:10640   */\n      gt\n        /* \"#utility.yul\":10626:11072   */\n      iszero\n      tag_254\n      jumpi\n        /* \"#utility.yul\":10671:10709   */\n      tag_255\n        /* \"#utility.yul\":10703:10708   */\n      dup2\n        /* \"#utility.yul\":10671:10709   */\n      tag_115\n      jump\t// in\n    tag_255:\n        /* \"#utility.yul\":10755:10784   */\n      tag_256\n        /* \"#utility.yul\":10773:10783   */\n      dup5\n        /* \"#utility.yul\":10755:10784   */\n      tag_116\n      jump\t// in\n    tag_256:\n        /* \"#utility.yul\":10745:10753   */\n      dup2\n        /* \"#utility.yul\":10741:10785   */\n      add\n        /* \"#utility.yul\":10938:10940   */\n      0x20\n        /* \"#utility.yul\":10926:10936   */\n      dup6\n        /* \"#utility.yul\":10923:10941   */\n      lt\n        /* \"#utility.yul\":10920:10969   */\n      iszero\n      tag_257\n      jumpi\n        /* \"#utility.yul\":10959:10967   */\n      dup2\n        /* \"#utility.yul\":10944:10967   */\n      swap1\n      pop\n        /* \"#utility.yul\":10920:10969   */\n    tag_257:\n        /* \"#utility.yul\":10982:11062   */\n      tag_258\n        /* \"#utility.yul\":11038:11060   */\n      tag_259\n        /* \"#utility.yul\":11056:11059   */\n      dup6\n        /* \"#utility.yul\":11038:11060   */\n      tag_116\n      jump\t// in\n    tag_259:\n        /* \"#utility.yul\":11028:11036   */\n      dup4\n        /* \"#utility.yul\":11024:11061   */\n      add\n        /* \"#utility.yul\":11011:11022   */\n      dup3\n        /* \"#utility.yul\":10982:11062   */\n      tag_125\n      jump\t// in\n    tag_258:\n        /* \"#utility.yul\":10641:11072   */\n      pop\n      pop\n        /* \"#utility.yul\":10626:11072   */\n    tag_254:\n        /* \"#utility.yul\":10536:11079   */\n      pop\n      pop\n      pop\n      jump\t// out\n        /* \"#utility.yul\":11085:11202   */\n    tag_127:\n        /* \"#utility.yul\":11139:11147   */\n      0x00\n        /* \"#utility.yul\":11189:11194   */\n      dup3\n        /* \"#utility.yul\":11183:11187   */\n      dup3\n        /* \"#utility.yul\":11179:11195   */\n      shr\n        /* \"#utility.yul\":11158:11195   */\n      swap1\n      pop\n        /* \"#utility.yul\":11085:11202   */\n      swap3\n      swap2\n      pop\n      pop\n      jump\t// out\n        /* \"#utility.yul\":11208:11377   */\n    tag_128:\n        /* \"#utility.yul\":11252:11258   */\n      0x00\n        /* \"#utility.yul\":11285:11336   */\n      tag_262\n        /* \"#utility.yul\":11333:11334   */\n      0x00\n        /* \"#utility.yul\":11329:11335   */\n      not\n        /* \"#utility.yul\":11321:11326   */\n      dup5\n        /* \"#utility.yul\":11318:11319   */\n      0x08\n        /* \"#utility.yul\":11314:11327   */\n      mul\n        /* \"#utility.yul\":11285:11336   */\n      tag_127\n      jump\t// in\n    tag_262:\n        /* \"#utility.yul\":11281:11337   */\n      not\n        /* \"#utility.yul\":11366:11370   */\n      dup1\n        /* \"#utility.yul\":11360:11364   */\n      dup4\n        /* \"#utility.yul\":11356:11371   */\n      and\n        /* \"#utility.yul\":11346:11371   */\n      swap2\n      pop\n        /* \"#utility.yul\":11259:11377   */\n      pop\n        /* \"#utility.yul\":11208:11377   */\n      swap3\n      swap2\n      pop\n      pop\n      jump\t// out\n        /* \"#utility.yul\":11382:11677   */\n    tag_129:\n        /* \"#utility.yul\":11458:11462   */\n      0x00\n        /* \"#utility.yul\":11604:11633   */\n      tag_264\n        /* \"#utility.yul\":11629:11632   */\n      dup4\n        /* \"#utility.yul\":11623:11627   */\n      dup4\n        /* \"#utility.yul\":11604:11633   */\n      tag_128\n      jump\t// in\n    tag_264:\n        /* \"#utility.yul\":11596:11633   */\n      swap2\n      pop\n        /* \"#utility.yul\":11666:11669   */\n      dup3\n        /* \"#utility.yul\":11663:11664   */\n      0x02\n        /* \"#utility.yul\":11659:11670   */\n      mul\n        /* \"#utility.yul\":11653:11657   */\n      dup3\n        /* \"#utility.yul\":11650:11671   */\n      or\n        /* \"#utility.yul\":11642:11671   */\n      swap1\n      pop\n        /* \"#utility.yul\":11382:11677   */\n      swap3\n      swap2\n      pop\n      pop\n      jump\t// out\n        /* \"#utility.yul\":11682:13077   */\n    tag_77:\n        /* \"#utility.yul\":11799:11836   */\n      tag_266\n        /* \"#utility.yul\":11832:11835   */\n      dup3\n        /* \"#utility.yul\":11799:11836   */\n      tag_96\n      jump\t// in\n    tag_266:\n        /* \"#utility.yul\":11901:11919   */\n      0xffffffffffffffff\n        /* \"#utility.yul\":11893:11899   */\n      dup2\n        /* \"#utility.yul\":11890:11920   */\n      gt\n        /* \"#utility.yul\":11887:11943   */\n      iszero\n      tag_267\n      jumpi\n        /* \"#utility.yul\":11923:11941   */\n      tag_268\n      tag_104\n      jump\t// in\n    tag_268:\n        /* \"#utility.yul\":11887:11943   */\n    tag_267:\n        /* \"#utility.yul\":11967:12005   */\n      tag_269\n        /* \"#utility.yul\":11999:12003   */\n      dup3\n        /* \"#utility.yul\":11993:12004   */\n      sload\n        /* \"#utility.yul\":11967:12005   */\n      tag_55\n      jump\t// in\n    tag_269:\n        /* \"#utility.yul\":12052:12119   */\n      tag_270\n        /* \"#utility.yul\":12112:12118   */\n      dup3\n        /* \"#utility.yul\":12104:12110   */\n      dup3\n        /* \"#utility.yul\":12098:12102   */\n      dup6\n        /* \"#utility.yul\":12052:12119   */\n      tag_126\n      jump\t// in\n    tag_270:\n        /* \"#utility.yul\":12146:12147   */\n      0x00\n        /* \"#utility.yul\":12170:12174   */\n      0x20\n        /* \"#utility.yul\":12157:12174   */\n      swap1\n      pop\n        /* \"#utility.yul\":12202:12204   */\n      0x1f\n        /* \"#utility.yul\":12194:12200   */\n      dup4\n        /* \"#utility.yul\":12191:12205   */\n      gt\n        /* \"#utility.yul\":12219:12220   */\n      0x01\n        /* \"#utility.yul\":12214:12832   */\n      dup2\n      eq\n      tag_272\n      jumpi\n        /* \"#utility.yul\":12876:12877   */\n      0x00\n        /* \"#utility.yul\":12893:12899   */\n      dup5\n        /* \"#utility.yul\":12890:12967   */\n      iszero\n      tag_273\n      jumpi\n        /* \"#utility.yul\":12942:12951   */\n      dup3\n        /* \"#utility.yul\":12937:12940   */\n      dup8\n        /* \"#utility.yul\":12933:12952   */\n      add\n        /* \"#utility.yul\":12927:12953   */\n      mload\n        /* \"#utility.yul\":12918:12953   */\n      swap1\n      pop\n        /* \"#utility.yul\":12890:12967   */\n    tag_273:\n        /* \"#utility.yul\":12993:13060   */\n      tag_274\n        /* \"#utility.yul\":13053:13059   */\n      dup6\n        /* \"#utility.yul\":13046:13051   */\n      dup3\n        /* \"#utility.yul\":12993:13060   */\n      tag_129\n      jump\t// in\n    tag_274:\n        /* \"#utility.yul\":12987:12991   */\n      dup7\n        /* \"#utility.yul\":12980:13061   */\n      sstore\n        /* \"#utility.yul\":12849:13071   */\n      pop\n        /* \"#utility.yul\":12184:13071   */\n      jump(tag_271)\n        /* \"#utility.yul\":12214:12832   */\n    tag_272:\n        /* \"#utility.yul\":12266:12270   */\n      0x1f\n        /* \"#utility.yul\":12262:12271   */\n      not\n        /* \"#utility.yul\":12254:12260   */\n      dup5\n        /* \"#utility.yul\":12250:12272   */\n      and\n        /* \"#utility.yul\":12300:12337   */\n      tag_275\n        /* \"#utility.yul\":12332:12336   */\n      dup7\n        /* \"#utility.yul\":12300:12337   */\n      tag_115\n      jump\t// in\n    tag_275:\n        /* \"#utility.yul\":12359:12360   */\n      0x00\n        /* \"#utility.yul\":12373:12581   */\n    tag_276:\n        /* \"#utility.yul\":12387:12394   */\n      dup3\n        /* \"#utility.yul\":12384:12385   */\n      dup2\n        /* \"#utility.yul\":12381:12395   */\n      lt\n        /* \"#utility.yul\":12373:12581   */\n      iszero\n      tag_278\n      jumpi\n        /* \"#utility.yul\":12466:12475   */\n      dup5\n        /* \"#utility.yul\":12461:12464   */\n      dup10\n        /* \"#utility.yul\":12457:12476   */\n      add\n        /* \"#utility.yul\":12451:12477   */\n      mload\n        /* \"#utility.yul\":12443:12449   */\n      dup3\n        /* \"#utility.yul\":12436:12478   */\n      sstore\n        /* \"#utility.yul\":12517:12518   */\n      0x01\n        /* \"#utility.yul\":12509:12515   */\n      dup3\n        /* \"#utility.yul\":12505:12519   */\n      add\n        /* \"#utility.yul\":12495:12519   */\n      swap2\n      pop\n        /* \"#utility.yul\":12564:12566   */\n      0x20\n        /* \"#utility.yul\":12553:12562   */\n      dup6\n        /* \"#utility.yul\":12549:12567   */\n      add\n        /* \"#utility.yul\":12536:12567   */\n      swap5\n      pop\n        /* \"#utility.yul\":12410:12414   */\n      0x20\n        /* \"#utility.yul\":12407:12408   */\n      dup2\n        /* \"#utility.yul\":12403:12415   */\n      add\n        /* \"#utility.yul\":12398:12415   */\n      swap1\n      pop\n        /* \"#utility.yul\":12373:12581   */\n      jump(tag_276)\n    tag_278:\n        /* \"#utility.yul\":12609:12615   */\n      dup7\n        /* \"#utility.yul\":12600:12607   */\n      dup4\n        /* \"#utility.yul\":12597:12616   */\n      lt\n        /* \"#utility.yul\":12594:12773   */\n      iszero\n      tag_279\n      jumpi\n        /* \"#utility.yul\":12667:12676   */\n      dup5\n        /* \"#utility.yul\":12662:12665   */\n      dup10\n        /* \"#utility.yul\":12658:12677   */\n      add\n        /* \"#utility.yul\":12652:12678   */\n      mload\n        /* \"#utility.yul\":12710:12758   */\n      tag_280\n        /* \"#utility.yul\":12752:12756   */\n      0x1f\n        /* \"#utility.yul\":12744:12750   */\n      dup10\n        /* \"#utility.yul\":12740:12757   */\n      and\n        /* \"#utility.yul\":12729:12738   */\n      dup3\n        /* \"#utility.yul\":12710:12758   */\n      tag_128\n      jump\t// in\n    tag_280:\n        /* \"#utility.yul\":12702:12708   */\n      dup4\n        /* \"#utility.yul\":12695:12759   */\n      sstore\n        /* \"#utility.yul\":12617:12773   */\n      pop\n        /* \"#utility.yul\":12594:12773   */\n    tag_279:\n        /* \"#utility.yul\":12819:12820   */\n      0x01\n        /* \"#utility.yul\":12815:12816   */\n      0x02\n        /* \"#utility.yul\":12807:12813   */\n      dup9\n        /* \"#utility.yul\":12803:12817   */\n      mul\n        /* \"#utility.yul\":12799:12821   */\n      add\n        /* \"#utility.yul\":12793:12797   */\n      dup9\n        /* \"#utility.yul\":12786:12822   */\n      sstore\n        /* \"#utility.yul\":12221:12832   */\n      pop\n      pop\n      pop\n        /* \"#utility.yul\":12184:13071   */\n    tag_271:\n      pop\n        /* \"#utility.yul\":11774:13077   */\n      pop\n      pop\n      pop\n        /* \"#utility.yul\":11682:13077   */\n      pop\n      pop\n      jump\t// out\n        /* \"#utility.yul\":13083:13263   */\n    tag_130:\n        /* \"#utility.yul\":13131:13208   */\n      0x4e487b7100000000000000000000000000000000000000000000000000000000\n        /* \"#utility.yul\":13128:13129   */\n      0x00\n        /* \"#utility.yul\":13121:13209   */\n      mstore\n        /* \"#utility.yul\":13228:13232   */\n      0x11\n        /* \"#utility.yul\":13225:13226   */\n      0x04\n        /* \"#utility.yul\":13218:13233   */\n      mstore\n        /* \"#utility.yul\":13252:13256   */\n      0x24\n        /* \"#utility.yul\":13249:13250   */\n      0x00\n        /* \"#utility.yul\":13242:13257   */\n      revert\n        /* \"#utility.yul\":13269:13463   */\n    tag_79:\n        /* \"#utility.yul\":13309:13313   */\n      0x00\n        /* \"#utility.yul\":13329:13349   */\n      tag_283\n        /* \"#utility.yul\":13347:13348   */\n      dup3\n        /* \"#utility.yul\":13329:13349   */\n      tag_87\n      jump\t// in\n    tag_283:\n        /* \"#utility.yul\":13324:13349   */\n      swap2\n      pop\n        /* \"#utility.yul\":13363:13383   */\n      tag_284\n        /* \"#utility.yul\":13381:13382   */\n      dup4\n        /* \"#utility.yul\":13363:13383   */\n      tag_87\n      jump\t// in\n    tag_284:\n        /* \"#utility.yul\":13358:13383   */\n      swap3\n      pop\n        /* \"#utility.yul\":13407:13408   */\n      dup3\n        /* \"#utility.yul\":13404:13405   */\n      dup3\n        /* \"#utility.yul\":13400:13409   */\n      sub\n        /* \"#utility.yul\":13392:13409   */\n      swap1\n      pop\n        /* \"#utility.yul\":13431:13432   */\n      dup2\n        /* \"#utility.yul\":13425:13429   */\n      dup2\n        /* \"#utility.yul\":13422:13433   */\n      gt\n        /* \"#utility.yul\":13419:13456   */\n      iszero\n      tag_285\n      jumpi\n        /* \"#utility.yul\":13436:13454   */\n      tag_286\n      tag_130\n      jump\t// in\n    tag_286:\n        /* \"#utility.yul\":13419:13456   */\n    tag_285:\n        /* \"#utility.yul\":13269:13463   */\n      swap3\n      swap2\n      pop\n      pop\n      jump\t// out\n        /* \"#utility.yul\":13469:13702   */\n    tag_81:\n        /* \"#utility.yul\":13508:13511   */\n      0x00\n        /* \"#utility.yul\":13531:13555   */\n      tag_288\n        /* \"#utility.yul\":13549:13554   */\n      dup3\n        /* \"#utility.yul\":13531:13555   */\n      tag_87\n      jump\t// in\n    tag_288:\n        /* \"#utility.yul\":13522:13555   */\n      swap2\n      pop\n        /* \"#utility.yul\":13577:13643   */\n      0xffffffffffffffffffffffffffffffffffffffffffffffffffffffffffffffff\n        /* \"#utility.yul\":13570:13575   */\n      dup3\n        /* \"#utility.yul\":13567:13644   */\n      sub\n        /* \"#utility.yul\":13564:13667   */\n      tag_289\n      jumpi\n        /* \"#utility.yul\":13647:13665   */\n      tag_290\n      tag_130\n      jump\t// in\n    tag_290:\n        /* \"#utility.yul\":13564:13667   */\n    tag_289:\n        /* \"#utility.yul\":13694:13695   */\n      0x01\n        /* \"#utility.yul\":13687:13692   */\n      dup3\n        /* \"#utility.yul\":13683:13696   */\n      add\n        /* \"#utility.yul\":13676:13696   */\n      swap1\n      pop\n        /* \"#utility.yul\":13469:13702   */\n      swap2\n      swap1\n      pop\n      jump\t// out\n        /* \"#utility.yul\":13708:14229   */\n    tag_83:\n        /* \"#utility.yul\":13871:13875   */\n      0x00\n        /* \"#utility.yul\":13909:13911   */\n      0x60\n        /* \"#utility.yul\":13898:13907   */\n      dup3\n        /* \"#utility.yul\":13894:13912   */\n      add\n        /* \"#utility.yul\":13886:13912   */\n      swap1\n      pop\n        /* \"#utility.yul\":13922:13993   */\n      tag_292\n        /* \"#utility.yul\":13990:13991   */\n      0x00\n        /* \"#utility.yul\":13979:13988   */\n      dup4\n        /* \"#utility.yul\":13975:13992   */\n      add\n        /* \"#utility.yul\":13966:13972   */\n      dup7\n        /* \"#utility.yul\":13922:13993   */\n      tag_113\n      jump\t// in\n    tag_292:\n        /* \"#utility.yul\":14040:14049   */\n      dup2\n        /* \"#utility.yul\":14034:14038   */\n      dup2\n        /* \"#utility.yul\":14030:14050   */\n      sub\n        /* \"#utility.yul\":14025:14027   */\n      0x20\n        /* \"#utility.yul\":14014:14023   */\n      dup4\n        /* \"#utility.yul\":14010:14028   */\n      add\n        /* \"#utility.yul\":14003:14051   */\n      mstore\n        /* \"#utility.yul\":14068:14146   */\n      tag_293\n        /* \"#utility.yul\":14141:14145   */\n      dup2\n        /* \"#utility.yul\":14132:14138   */\n      dup6\n        /* \"#utility.yul\":14068:14146   */\n      tag_100\n      jump\t// in\n    tag_293:\n        /* \"#utility.yul\":14060:14146   */\n      swap1\n      pop\n        /* \"#utility.yul\":14156:14222   */\n      tag_294\n        /* \"#utility.yul\":14218:14220   */\n      0x40\n        /* \"#utility.yul\":14207:14216   */\n      dup4\n        /* \"#utility.yul\":14203:14221   */\n      add\n        /* \"#utility.yul\":14194:14200   */\n      dup5\n        /* \"#utility.yul\":14156:14222   */\n      tag_101\n      jump\t// in\n    tag_294:\n        /* \"#utility.yul\":13708:14229   */\n      swap5\n      swap4\n      pop\n      pop\n      pop\n      pop\n      jump\t// out\n\n    auxdata: 0xa264697066735822122025bdcfe00652c88e37542d7115560d40cad77c515c04c5ea3f5f01667823430c64736f6c63430008130033\n}\n",
				"bytecode": {
					"linkReferences": {},
					"object": "608060405234801561001057600080fd5b50336000806101000a81548173ffffffffffffffffffffffffffffffffffffffff021916908373ffffffffffffffffffffffffffffffffffffffff160217905550610f5f806100606000396000f3fe608060405234801561001057600080fd5b506004361061007d5760003560e01c80638d9776721161005b5780638d977672146100d85780638da5cb5b146101095780639507d39a14610127578063b6a46b3b146101585761007d565b806341c0e1b51461008257806348284b621461008c5780636641c6c4146100a8575b600080fd5b61008a610174565b005b6100a660048036038101906100a19190610779565b61021b565b005b6100c260048036038101906100bd91906107b9565b610302565b6040516100cf9190610827565b60405180910390f35b6100f260048036038101906100ed91906107b9565b610335565b6040516101009291906108e1565b60405180910390f35b6101116103fe565b60405161011e9190610827565b60405180910390f35b610141600480360381019061013c91906107b9565b610422565b60405161014f9291906108e1565b60405180910390f35b610172600480360381019061016d9190610a46565b610580565b005b60008054906101000a900473ffffffffffffffffffffffffffffffffffffffff1673ffffffffffffffffffffffffffffffffffffffff163373ffffffffffffffffffffffffffffffffffffffff1614610202576040517f08c379a00000000000000000000000000000000000000000000000000000000081526004016101f990610adb565b60405180910390fd5b3373ffffffffffffffffffffffffffffffffffffffff16ff5b816002600082815260200190815260200160002060009054906101000a900473ffffffffffffffffffffffffffffffffffffffff1673ffffffffffffffffffffffffffffffffffffffff163373ffffffffffffffffffffffffffffffffffffffff161461028757600080fd5b816001848154811061029c5761029b610afb565b5b906000526020600020906002020160010160006101000a81548160ff0219169083151502179055507f40f4ecd2923438fa255c9ec921b119ae150358907bbc9ba7d5c34bf9c151b6ac83836040516102f5929190610b39565b60405180910390a1505050565b60026020528060005260406000206000915054906101000a900473ffffffffffffffffffffffffffffffffffffffff1681565b6001818154811061034557600080fd5b906000526020600020906002020160009150905080600001805461036890610b91565b80601f016020809104026020016040519081016040528092919081815260200182805461039490610b91565b80156103e15780601f106103b6576101008083540402835291602001916103e1565b820191906000526020600020905b8154815290600101906020018083116103c457829003601f168201915b5050505050908060010160009054906101000a900460ff16905082565b60008054906101000a900473ffffffffffffffffffffffffffffffffffffffff1681565b60606000826002600082815260200190815260200160002060009054906101000a900473ffffffffffffffffffffffffffffffffffffffff1673ffffffffffffffffffffffffffffffffffffffff163373ffffffffffffffffffffffffffffffffffffffff161461049257600080fd5b600184815481106104a6576104a5610afb565b5b9060005260206000209060020201600001600185815481106104cb576104ca610afb565b5b906000526020600020906002020160010160009054906101000a900460ff168180546104f690610b91565b80601f016020809104026020016040519081016040528092919081815260200182805461052290610b91565b801561056f5780601f106105445761010080835404028352916020019161056f565b820191906000526020600020905b81548152906001019060200180831161055257829003601f168201915b505050505091509250925050915091565b6001604051806040016040528083815260200160001515815250908060018154018082558091505060019003906000526020600020906002020160009091909190915060008201518160000190816105d89190610d6e565b5060208201518160010160006101000a81548160ff021916908315150217905550505060006001808054905061060e9190610e6f565b9050336002600083815260200190815260200160002060006101000a81548173ffffffffffffffffffffffffffffffffffffffff021916908373ffffffffffffffffffffffffffffffffffffffff160217905550600360003373ffffffffffffffffffffffffffffffffffffffff1673ffffffffffffffffffffffffffffffffffffffff16815260200190815260200160002060008154809291906106b290610ea3565b91905055507f8de7fcf423c3be88a1d33619458254be5a02866653e3209631248661ba7db881818360006040516106eb93929190610eeb565b60405180910390a15050565b6000604051905090565b600080fd5b600080fd5b6000819050919050565b61071e8161070b565b811461072957600080fd5b50565b60008135905061073b81610715565b92915050565b60008115159050919050565b61075681610741565b811461076157600080fd5b50565b6000813590506107738161074d565b92915050565b600080604083850312156107905761078f610701565b5b600061079e8582860161072c565b92505060206107af85828601610764565b9150509250929050565b6000602082840312156107cf576107ce610701565b5b60006107dd8482850161072c565b91505092915050565b600073ffffffffffffffffffffffffffffffffffffffff82169050919050565b6000610811826107e6565b9050919050565b61082181610806565b82525050565b600060208201905061083c6000830184610818565b92915050565b600081519050919050565b600082825260208201905092915050565b60005b8381101561087c578082015181840152602081019050610861565b60008484015250505050565b6000601f19601f8301169050919050565b60006108a482610842565b6108ae818561084d565b93506108be81856020860161085e565b6108c781610888565b840191505092915050565b6108db81610741565b82525050565b600060408201905081810360008301526108fb8185610899565b905061090a60208301846108d2565b9392505050565b600080fd5b600080fd5b7f4e487b7100000000000000000000000000000000000000000000000000000000600052604160045260246000fd5b61095382610888565b810181811067ffffffffffffffff821117156109725761097161091b565b5b80604052505050565b60006109856106f7565b9050610991828261094a565b919050565b600067ffffffffffffffff8211156109b1576109b061091b565b5b6109ba82610888565b9050602081019050919050565b82818337600083830152505050565b60006109e96109e484610996565b61097b565b905082815260208101848484011115610a0557610a04610916565b5b610a108482856109c7565b509392505050565b600082601f830112610a2d57610a2c610911565b5b8135610a3d8482602086016109d6565b91505092915050565b600060208284031215610a5c57610a5b610701565b5b600082013567ffffffffffffffff811115610a7a57610a79610706565b5b610a8684828501610a18565b91505092915050565b7f6e6f7420636f6e7472616374206f776e65720000000000000000000000000000600082015250565b6000610ac560128361084d565b9150610ad082610a8f565b602082019050919050565b60006020820190508181036000830152610af481610ab8565b9050919050565b7f4e487b7100000000000000000000000000000000000000000000000000000000600052603260045260246000fd5b610b338161070b565b82525050565b6000604082019050610b4e6000830185610b2a565b610b5b60208301846108d2565b9392505050565b7f4e487b7100000000000000000000000000000000000000000000000000000000600052602260045260246000fd5b60006002820490506001821680610ba957607f821691505b602082108103610bbc57610bbb610b62565b5b50919050565b60008190508160005260206000209050919050565b60006020601f8301049050919050565b600082821b905092915050565b600060088302610c247fffffffffffffffffffffffffffffffffffffffffffffffffffffffffffffffff82610be7565b610c2e8683610be7565b95508019841693508086168417925050509392505050565b6000819050919050565b6000610c6b610c66610c618461070b565b610c46565b61070b565b9050919050565b6000819050919050565b610c8583610c50565b610c99610c9182610c72565b848454610bf4565b825550505050565b600090565b610cae610ca1565b610cb9818484610c7c565b505050565b5b81811015610cdd57610cd2600082610ca6565b600181019050610cbf565b5050565b601f821115610d2257610cf381610bc2565b610cfc84610bd7565b81016020851015610d0b578190505b610d1f610d1785610bd7565b830182610cbe565b50505b505050565b600082821c905092915050565b6000610d4560001984600802610d27565b1980831691505092915050565b6000610d5e8383610d34565b9150826002028217905092915050565b610d7782610842565b67ffffffffffffffff811115610d9057610d8f61091b565b5b610d9a8254610b91565b610da5828285610ce1565b600060209050601f831160018114610dd85760008415610dc6578287015190505b610dd08582610d52565b865550610e38565b601f198416610de686610bc2565b60005b82811015610e0e57848901518255600182019150602085019450602081019050610de9565b86831015610e2b5784890151610e27601f891682610d34565b8355505b6001600288020188555050505b505050505050565b7f4e487b7100000000000000000000000000000000000000000000000000000000600052601160045260246000fd5b6000610e7a8261070b565b9150610e858361070b565b9250828203905081811115610e9d57610e9c610e40565b5b92915050565b6000610eae8261070b565b91507fffffffffffffffffffffffffffffffffffffffffffffffffffffffffffffffff8203610ee057610edf610e40565b5b600182019050919050565b6000606082019050610f006000830186610b2a565b8181036020830152610f128185610899565b9050610f2160408301846108d2565b94935050505056fea264697066735822122025bdcfe00652c88e37542d7115560d40cad77c515c04c5ea3f5f01667823430c64736f6c63430008130033",
					"opcodes": "PUSH1 0x80 PUSH1 0x40 MSTORE CALLVALUE DUP1 ISZERO PUSH2 0x10 JUMPI PUSH1 0x0 DUP1 REVERT JUMPDEST POP CALLER PUSH1 0x0 DUP1 PUSH2 0x100 EXP DUP2 SLOAD DUP2 PUSH20 0xFFFFFFFFFFFFFFFFFFFFFFFFFFFFFFFFFFFFFFFF MUL NOT AND SWAP1 DUP4 PUSH20 0xFFFFFFFFFFFFFFFFFFFFFFFFFFFFFFFFFFFFFFFF AND MUL OR SWAP1 SSTORE POP PUSH2 0xF5F DUP1 PUSH2 0x60 PUSH1 0x0 CODECOPY PUSH1 0x0 RETURN INVALID PUSH1 0x80 PUSH1 0x40 MSTORE CALLVALUE DUP1 ISZERO PUSH2 0x10 JUMPI PUSH1 0x0 DUP1 REVERT JUMPDEST POP PUSH1 0x4 CALLDATASIZE LT PUSH2 0x7D JUMPI PUSH1 0x0 CALLDATALOAD PUSH1 0xE0 SHR DUP1 PUSH4 0x8D977672 GT PUSH2 0x5B JUMPI DUP1 PUSH4 0x8D977672 EQ PUSH2 0xD8 JUMPI DUP1 PUSH4 0x8DA5CB5B EQ PUSH2 0x109 JUMPI DUP1 PUSH4 0x9507D39A EQ PUSH2 0x127 JUMPI DUP1 PUSH4 0xB6A46B3B EQ PUSH2 0x158 JUMPI PUSH2 0x7D JUMP JUMPDEST DUP1 PUSH4 0x41C0E1B5 EQ PUSH2 0x82 JUMPI DUP1 PUSH4 0x48284B62 EQ PUSH2 0x8C JUMPI DUP1 PUSH4 0x6641C6C4 EQ PUSH2 0xA8 JUMPI JUMPDEST PUSH1 0x0 DUP1 REVERT JUMPDEST PUSH2 0x8A PUSH2 0x174 JUMP JUMPDEST STOP JUMPDEST PUSH2 0xA6 PUSH1 0x4 DUP1 CALLDATASIZE SUB DUP2 ADD SWAP1 PUSH2 0xA1 SWAP2 SWAP1 PUSH2 0x779 JUMP JUMPDEST PUSH2 0x21B JUMP JUMPDEST STOP JUMPDEST PUSH2 0xC2 PUSH1 0x4 DUP1 CALLDATASIZE SUB DUP2 ADD SWAP1 PUSH2 0xBD SWAP2 SWAP1 PUSH2 0x7B9 JUMP JUMPDEST PUSH2 0x302 JUMP JUMPDEST PUSH1 0x40 MLOAD PUSH2 0xCF SWAP2 SWAP1 PUSH2 0x827 JUMP JUMPDEST PUSH1 0x40 MLOAD DUP1 SWAP2 SUB SWAP1 RETURN JUMPDEST PUSH2 0xF2 PUSH1 0x4 DUP1 CALLDATASIZE SUB DUP2 ADD SWAP1 PUSH2 0xED SWAP2 SWAP1 PUSH2 0x7B9 JUMP JUMPDEST PUSH2 0x335 JUMP JUMPDEST PUSH1 0x40 MLOAD PUSH2 0x100 SWAP3 SWAP2 SWAP1 PUSH2 0x8E1 JUMP JUMPDEST PUSH1 0x40 MLOAD DUP1 SWAP2 SUB SWAP1 RETURN JUMPDEST PUSH2 0x111 PUSH2 0x3FE JUMP JUMPDEST PUSH1 0x40 MLOAD PUSH2 0x11E SWAP2 SWAP1 PUSH2 0x827 JUMP JUMPDEST PUSH1 0x40 MLOAD DUP1 SWAP2 SUB SWAP1 RETURN JUMPDEST PUSH2 0x141 PUSH1 0x4 DUP1 CALLDATASIZE SUB DUP2 ADD SWAP1 PUSH2 0x13C SWAP2 SWAP1 PUSH2 0x7B9 JUMP JUMPDEST PUSH2 0x422 JUMP JUMPDEST PUSH1 0x40 MLOAD PUSH2 0x14F SWAP3 SWAP2 SWAP1 PUSH2 0x8E1 JUMP JUMPDEST PUSH1 0x40 MLOAD DUP1 SWAP2 SUB SWAP1 RETURN JUMPDEST PUSH2 0x172 PUSH1 0x4 DUP1 CALLDATASIZE SUB DUP2 ADD SWAP1 PUSH2 0x16D SWAP2 SWAP1 PUSH2 0xA46 JUMP JUMPDEST PUSH2 0x580 JUMP JUMPDEST STOP JUMPDEST PUSH1 0x0 DUP1 SLOAD SWAP1 PUSH2 0x100 EXP SWAP1 DIV PUSH20 0xFFFFFFFFFFFFFFFFFFFFFFFFFFFFFFFFFFFFFFFF AND PUSH20 0xFFFFFFFFFFFFFFFFFFFFFFFFFFFFFFFFFFFFFFFF AND CALLER PUSH20 0xFFFFFFFFFFFFFFFFFFFFFFFFFFFFFFFFFFFFFFFF AND EQ PUSH2 0x202 JUMPI PUSH1 0x40 MLOAD PUSH32 0x8C379A000000000000000000000000000000000000000000000000000000000 DUP2 MSTORE PUSH1 0x4 ADD PUSH2 0x1F9 SWAP1 PUSH2 0xADB JUMP JUMPDEST PUSH1 0x40 MLOAD DUP1 SWAP2 SUB SWAP1 REVERT JUMPDEST CALLER PUSH20 0xFFFFFFFFFFFFFFFFFFFFFFFFFFFFFFFFFFFFFFFF AND SELFDESTRUCT JUMPDEST DUP2 PUSH1 0x2 PUSH1 0x0 DUP3 DUP2 MSTORE PUSH1 0x20 ADD SWAP1 DUP2 MSTORE PUSH1 0x20 ADD PUSH1 0x0 KECCAK256 PUSH1 0x0 SWAP1 SLOAD SWAP1 PUSH2 0x100 EXP SWAP1 DIV PUSH20 0xFFFFFFFFFFFFFFFFFFFFFFFFFFFFFFFFFFFFFFFF AND PUSH20 0xFFFFFFFFFFFFFFFFFFFFFFFFFFFFFFFFFFFFFFFF AND CALLER PUSH20 0xFFFFFFFFFFFFFFFFFFFFFFFFFFFFFFFFFFFFFFFF AND EQ PUSH2 0x287 JUMPI PUSH1 0x0 DUP1 REVERT JUMPDEST DUP2 PUSH1 0x1 DUP5 DUP2 SLOAD DUP2 LT PUSH2 0x29C JUMPI PUSH2 0x29B PUSH2 0xAFB JUMP JUMPDEST JUMPDEST SWAP1 PUSH1 0x0 MSTORE PUSH1 0x20 PUSH1 0x0 KECCAK256 SWAP1 PUSH1 0x2 MUL ADD PUSH1 0x1 ADD PUSH1 0x0 PUSH2 0x100 EXP DUP2 SLOAD DUP2 PUSH1 0xFF MUL NOT AND SWAP1 DUP4 ISZERO ISZERO MUL OR SWAP1 SSTORE POP PUSH32 0x40F4ECD2923438FA255C9EC921B119AE150358907BBC9BA7D5C34BF9C151B6AC DUP4 DUP4 PUSH1 0x40 MLOAD PUSH2 0x2F5 SWAP3 SWAP2 SWAP1 PUSH2 0xB39 JUMP JUMPDEST PUSH1 0x40 MLOAD DUP1 SWAP2 SUB SWAP1 LOG1 POP POP POP JUMP JUMPDEST PUSH1 0x2 PUSH1 0x20 MSTORE DUP1 PUSH1 0x0 MSTORE PUSH1 0x40 PUSH1 0x0 KECCAK256 PUSH1 0x0 SWAP2 POP SLOAD SWAP1 PUSH2 0x100 EXP SWAP1 DIV PUSH20 0xFFFFFFFFFFFFFFFFFFFFFFFFFFFFFFFFFFFFFFFF AND DUP2 JUMP JUMPDEST PUSH1 0x1 DUP2 DUP2 SLOAD DUP2 LT PUSH2 0x345 JUMPI PUSH1 0x0 DUP1 REVERT JUMPDEST SWAP1 PUSH1 0x0 MSTORE PUSH1 0x20 PUSH1 0x0 KECCAK256 SWAP1 PUSH1 0x2 MUL ADD PUSH1 0x0 SWAP2 POP SWAP1 POP DUP1 PUSH1 0x0 ADD DUP1 SLOAD PUSH2 0x368 SWAP1 PUSH2 0xB91 JUMP JUMPDEST DUP1 PUSH1 0x1F ADD PUSH1 0x20 DUP1 SWAP2 DIV MUL PUSH1 0x20 ADD PUSH1 0x40 MLOAD SWAP1 DUP2 ADD PUSH1 0x40 MSTORE DUP1 SWAP3 SWAP2 SWAP1 DUP2 DUP2 MSTORE PUSH1 0x20 ADD DUP3 DUP1 SLOAD PUSH2 0x394 SWAP1 PUSH2 0xB91 JUMP JUMPDEST DUP1 ISZERO PUSH2 0x3E1 JUMPI DUP1 PUSH1 0x1F LT PUSH2 0x3B6 JUMPI PUSH2 0x100 DUP1 DUP4 SLOAD DIV MUL DUP4 MSTORE SWAP2 PUSH1 0x20 ADD SWAP2 PUSH2 0x3E1 JUMP JUMPDEST DUP3 ADD SWAP2 SWAP1 PUSH1 0x0 MSTORE PUSH1 0x20 PUSH1 0x0 KECCAK256 SWAP1 JUMPDEST DUP2 SLOAD DUP2 MSTORE SWAP1 PUSH1 0x1 ADD SWAP1 PUSH1 0x20 ADD DUP1 DUP4 GT PUSH2 0x3C4 JUMPI DUP3 SWAP1 SUB PUSH1 0x1F AND DUP3 ADD SWAP2 JUMPDEST POP POP POP POP POP SWAP1 DUP1 PUSH1 0x1 ADD PUSH1 0x0 SWAP1 SLOAD SWAP1 PUSH2 0x100 EXP SWAP1 DIV PUSH1 0xFF AND SWAP1 POP DUP3 JUMP JUMPDEST PUSH1 0x0 DUP1 SLOAD SWAP1 PUSH2 0x100 EXP SWAP1 DIV PUSH20 0xFFFFFFFFFFFFFFFFFFFFFFFFFFFFFFFFFFFFFFFF AND DUP2 JUMP JUMPDEST PUSH1 0x60 PUSH1 0x0 DUP3 PUSH1 0x2 PUSH1 0x0 DUP3 DUP2 MSTORE PUSH1 0x20 ADD SWAP1 DUP2 MSTORE PUSH1 0x20 ADD PUSH1 0x0 KECCAK256 PUSH1 0x0 SWAP1 SLOAD SWAP1 PUSH2 0x100 EXP SWAP1 DIV PUSH20 0xFFFFFFFFFFFFFFFFFFFFFFFFFFFFFFFFFFFFFFFF AND PUSH20 0xFFFFFFFFFFFFFFFFFFFFFFFFFFFFFFFFFFFFFFFF AND CALLER PUSH20 0xFFFFFFFFFFFFFFFFFFFFFFFFFFFFFFFFFFFFFFFF AND EQ PUSH2 0x492 JUMPI PUSH1 0x0 DUP1 REVERT JUMPDEST PUSH1 0x1 DUP5 DUP2 SLOAD DUP2 LT PUSH2 0x4A6 JUMPI PUSH2 0x4A5 PUSH2 0xAFB JUMP JUMPDEST JUMPDEST SWAP1 PUSH1 0x0 MSTORE PUSH1 0x20 PUSH1 0x0 KECCAK256 SWAP1 PUSH1 0x2 MUL ADD PUSH1 0x0 ADD PUSH1 0x1 DUP6 DUP2 SLOAD DUP2 LT PUSH2 0x4CB JUMPI PUSH2 0x4CA PUSH2 0xAFB JUMP JUMPDEST JUMPDEST SWAP1 PUSH1 0x0 MSTORE PUSH1 0x20 PUSH1 0x0 KECCAK256 SWAP1 PUSH1 0x2 MUL ADD PUSH1 0x1 ADD PUSH1 0x0 SWAP1 SLOAD SWAP1 PUSH2 0x100 EXP SWAP1 DIV PUSH1 0xFF AND DUP2 DUP1 SLOAD PUSH2 0x4F6 SWAP1 PUSH2 0xB91 JUMP JUMPDEST DUP1 PUSH1 0x1F ADD PUSH1 0x20 DUP1 SWAP2 DIV MUL PUSH1 0x20 ADD PUSH1 0x40 MLOAD SWAP1 DUP2 ADD PUSH1 0x40 MSTORE DUP1 SWAP3 SWAP2 SWAP1 DUP2 DUP2 MSTORE PUSH1 0x20 ADD DUP3 DUP1 SLOAD PUSH2 0x522 SWAP1 PUSH2 0xB91 JUMP JUMPDEST DUP1 ISZERO PUSH2 0x56F JUMPI DUP1 PUSH1 0x1F LT PUSH2 0x544 JUMPI PUSH2 0x100 DUP1 DUP4 SLOAD DIV MUL DUP4 MSTORE SWAP2 PUSH1 0x20 ADD SWAP2 PUSH2 0x56F JUMP JUMPDEST DUP3 ADD SWAP2 SWAP1 PUSH1 0x0 MSTORE PUSH1 0x20 PUSH1 0x0 KECCAK256 SWAP1 JUMPDEST DUP2 SLOAD DUP2 MSTORE SWAP1 PUSH1 0x1 ADD SWAP1 PUSH1 0x20 ADD DUP1 DUP4 GT PUSH2 0x552 JUMPI DUP3 SWAP1 SUB PUSH1 0x1F AND DUP3 ADD SWAP2 JUMPDEST POP POP POP POP POP SWAP2 POP SWAP3 POP SWAP3 POP POP SWAP2 POP SWAP2 JUMP JUMPDEST PUSH1 0x1 PUSH1 0x40 MLOAD DUP1 PUSH1 0x40 ADD PUSH1 0x40 MSTORE DUP1 DUP4 DUP2 MSTORE PUSH1 0x20 ADD PUSH1 0x0 ISZERO ISZERO DUP2 MSTORE POP SWAP1 DUP1 PUSH1 0x1 DUP2 SLOAD ADD DUP1 DUP3 SSTORE DUP1 SWAP2 POP POP PUSH1 0x1 SWAP1 SUB SWAP1 PUSH1 0x0 MSTORE PUSH1 0x20 PUSH1 0x0 KECCAK256 SWAP1 PUSH1 0x2 MUL ADD PUSH1 0x0 SWAP1 SWAP2 SWAP1 SWAP2 SWAP1 SWAP2 POP PUSH1 0x0 DUP3 ADD MLOAD DUP2 PUSH1 0x0 ADD SWAP1 DUP2 PUSH2 0x5D8 SWAP2 SWAP1 PUSH2 0xD6E JUMP JUMPDEST POP PUSH1 0x20 DUP3 ADD MLOAD DUP2 PUSH1 0x1 ADD PUSH1 0x0 PUSH2 0x100 EXP DUP2 SLOAD DUP2 PUSH1 0xFF MUL NOT AND SWAP1 DUP4 ISZERO ISZERO MUL OR SWAP1 SSTORE POP POP POP PUSH1 0x0 PUSH1 0x1 DUP1 DUP1 SLOAD SWAP1 POP PUSH2 0x60E SWAP2 SWAP1 PUSH2 0xE6F JUMP JUMPDEST SWAP1 POP CALLER PUSH1 0x2 PUSH1 0x0 DUP4 DUP2 MSTORE PUSH1 0x20 ADD SWAP1 DUP2 MSTORE PUSH1 0x20 ADD PUSH1 0x0 KECCAK256 PUSH1 0x0 PUSH2 0x100 EXP DUP2 SLOAD DUP2 PUSH20 0xFFFFFFFFFFFFFFFFFFFFFFFFFFFFFFFFFFFFFFFF MUL NOT AND SWAP1 DUP4 PUSH20 0xFFFFFFFFFFFFFFFFFFFFFFFFFFFFFFFFFFFFFFFF AND MUL OR SWAP1 SSTORE POP PUSH1 0x3 PUSH1 0x0 CALLER PUSH20 0xFFFFFFFFFFFFFFFFFFFFFFFFFFFFFFFFFFFFFFFF AND PUSH20 0xFFFFFFFFFFFFFFFFFFFFFFFFFFFFFFFFFFFFFFFF AND DUP2 MSTORE PUSH1 0x20 ADD SWAP1 DUP2 MSTORE PUSH1 0x20 ADD PUSH1 0x0 KECCAK256 PUSH1 0x0 DUP2 SLOAD DUP1 SWAP3 SWAP2 SWAP1 PUSH2 0x6B2 SWAP1 PUSH2 0xEA3 JUMP JUMPDEST SWAP2 SWAP1 POP SSTORE POP PUSH32 0x8DE7FCF423C3BE88A1D33619458254BE5A02866653E3209631248661BA7DB881 DUP2 DUP4 PUSH1 0x0 PUSH1 0x40 MLOAD PUSH2 0x6EB SWAP4 SWAP3 SWAP2 SWAP1 PUSH2 0xEEB JUMP JUMPDEST PUSH1 0x40 MLOAD DUP1 SWAP2 SUB SWAP1 LOG1 POP POP JUMP JUMPDEST PUSH1 0x0 PUSH1 0x40 MLOAD SWAP1 POP SWAP1 JUMP JUMPDEST PUSH1 0x0 DUP1 REVERT JUMPDEST PUSH1 0x0 DUP1 REVERT JUMPDEST PUSH1 0x0 DUP2 SWAP1 POP SWAP2 SWAP1 POP JUMP JUMPDEST PUSH2 0x71E DUP2 PUSH2 0x70B JUMP JUMPDEST DUP2 EQ PUSH2 0x729 JUMPI PUSH1 0x0 DUP1 REVERT JUMPDEST POP JUMP JUMPDEST PUSH1 0x0 DUP2 CALLDATALOAD SWAP1 POP PUSH2 0x73B DUP2 PUSH2 0x715 JUMP JUMPDEST SWAP3 SWAP2 POP POP JUMP JUMPDEST PUSH1 0x0 DUP2 ISZERO ISZERO SWAP1 POP SWAP2 SWAP1 POP JUMP JUMPDEST PUSH2 0x756 DUP2 PUSH2 0x741 JUMP JUMPDEST DUP2 EQ PUSH2 0x761 JUMPI PUSH1 0x0 DUP1 REVERT JUMPDEST POP JUMP JUMPDEST PUSH1 0x0 DUP2 CALLDATALOAD SWAP1 POP PUSH2 0x773 DUP2 PUSH2 0x74D JUMP JUMPDEST SWAP3 SWAP2 POP POP JUMP JUMPDEST PUSH1 0x0 DUP1 PUSH1 0x40 DUP4 DUP6 SUB SLT ISZERO PUSH2 0x790 JUMPI PUSH2 0x78F PUSH2 0x701 JUMP JUMPDEST JUMPDEST PUSH1 0x0 PUSH2 0x79E DUP6 DUP3 DUP7 ADD PUSH2 0x72C JUMP JUMPDEST SWAP3 POP POP PUSH1 0x20 PUSH2 0x7AF DUP6 DUP3 DUP7 ADD PUSH2 0x764 JUMP JUMPDEST SWAP2 POP POP SWAP3 POP SWAP3 SWAP1 POP JUMP JUMPDEST PUSH1 0x0 PUSH1 0x20 DUP3 DUP5 SUB SLT ISZERO PUSH2 0x7CF JUMPI PUSH2 0x7CE PUSH2 0x701 JUMP JUMPDEST JUMPDEST PUSH1 0x0 PUSH2 0x7DD DUP5 DUP3 DUP6 ADD PUSH2 0x72C JUMP JUMPDEST SWAP2 POP POP SWAP3 SWAP2 POP POP JUMP JUMPDEST PUSH1 0x0 PUSH20 0xFFFFFFFFFFFFFFFFFFFFFFFFFFFFFFFFFFFFFFFF DUP3 AND SWAP1 POP SWAP2 SWAP1 POP JUMP JUMPDEST PUSH1 0x0 PUSH2 0x811 DUP3 PUSH2 0x7E6 JUMP JUMPDEST SWAP1 POP SWAP2 SWAP1 POP JUMP JUMPDEST PUSH2 0x821 DUP2 PUSH2 0x806 JUMP JUMPDEST DUP3 MSTORE POP POP JUMP JUMPDEST PUSH1 0x0 PUSH1 0x20 DUP3 ADD SWAP1 POP PUSH2 0x83C PUSH1 0x0 DUP4 ADD DUP5 PUSH2 0x818 JUMP JUMPDEST SWAP3 SWAP2 POP POP JUMP JUMPDEST PUSH1 0x0 DUP2 MLOAD SWAP1 POP SWAP2 SWAP1 POP JUMP JUMPDEST PUSH1 0x0 DUP3 DUP3 MSTORE PUSH1 0x20 DUP3 ADD SWAP1 POP SWAP3 SWAP2 POP POP JUMP JUMPDEST PUSH1 0x0 JUMPDEST DUP4 DUP2 LT ISZERO PUSH2 0x87C JUMPI DUP1 DUP3 ADD MLOAD DUP2 DUP5 ADD MSTORE PUSH1 0x20 DUP2 ADD SWAP1 POP PUSH2 0x861 JUMP JUMPDEST PUSH1 0x0 DUP5 DUP5 ADD MSTORE POP POP POP POP JUMP JUMPDEST PUSH1 0x0 PUSH1 0x1F NOT PUSH1 0x1F DUP4 ADD AND SWAP1 POP SWAP2 SWAP1 POP JUMP JUMPDEST PUSH1 0x0 PUSH2 0x8A4 DUP3 PUSH2 0x842 JUMP JUMPDEST PUSH2 0x8AE DUP2 DUP6 PUSH2 0x84D JUMP JUMPDEST SWAP4 POP PUSH2 0x8BE DUP2 DUP6 PUSH1 0x20 DUP7 ADD PUSH2 0x85E JUMP JUMPDEST PUSH2 0x8C7 DUP2 PUSH2 0x888 JUMP JUMPDEST DUP5 ADD SWAP2 POP POP SWAP3 SWAP2 POP POP JUMP JUMPDEST PUSH2 0x8DB DUP2 PUSH2 0x741 JUMP JUMPDEST DUP3 MSTORE POP POP JUMP JUMPDEST PUSH1 0x0 PUSH1 0x40 DUP3 ADD SWAP1 POP DUP2 DUP2 SUB PUSH1 0x0 DUP4 ADD MSTORE PUSH2 0x8FB DUP2 DUP6 PUSH2 0x899 JUMP JUMPDEST SWAP1 POP PUSH2 0x90A PUSH1 0x20 DUP4 ADD DUP5 PUSH2 0x8D2 JUMP JUMPDEST SWAP4 SWAP3 POP POP POP JUMP JUMPDEST PUSH1 0x0 DUP1 REVERT JUMPDEST PUSH1 0x0 DUP1 REVERT JUMPDEST PUSH32 0x4E487B7100000000000000000000000000000000000000000000000000000000 PUSH1 0x0 MSTORE PUSH1 0x41 PUSH1 0x4 MSTORE PUSH1 0x24 PUSH1 0x0 REVERT JUMPDEST PUSH2 0x953 DUP3 PUSH2 0x888 JUMP JUMPDEST DUP2 ADD DUP2 DUP2 LT PUSH8 0xFFFFFFFFFFFFFFFF DUP3 GT OR ISZERO PUSH2 0x972 JUMPI PUSH2 0x971 PUSH2 0x91B JUMP JUMPDEST JUMPDEST DUP1 PUSH1 0x40 MSTORE POP POP POP JUMP JUMPDEST PUSH1 0x0 PUSH2 0x985 PUSH2 0x6F7 JUMP JUMPDEST SWAP1 POP PUSH2 0x991 DUP3 DUP3 PUSH2 0x94A JUMP JUMPDEST SWAP2 SWAP1 POP JUMP JUMPDEST PUSH1 0x0 PUSH8 0xFFFFFFFFFFFFFFFF DUP3 GT ISZERO PUSH2 0x9B1 JUMPI PUSH2 0x9B0 PUSH2 0x91B JUMP JUMPDEST JUMPDEST PUSH2 0x9BA DUP3 PUSH2 0x888 JUMP JUMPDEST SWAP1 POP PUSH1 0x20 DUP2 ADD SWAP1 POP SWAP2 SWAP1 POP JUMP JUMPDEST DUP3 DUP2 DUP4 CALLDATACOPY PUSH1 0x0 DUP4 DUP4 ADD MSTORE POP POP POP JUMP JUMPDEST PUSH1 0x0 PUSH2 0x9E9 PUSH2 0x9E4 DUP5 PUSH2 0x996 JUMP JUMPDEST PUSH2 0x97B JUMP JUMPDEST SWAP1 POP DUP3 DUP2 MSTORE PUSH1 0x20 DUP2 ADD DUP5 DUP5 DUP5 ADD GT ISZERO PUSH2 0xA05 JUMPI PUSH2 0xA04 PUSH2 0x916 JUMP JUMPDEST JUMPDEST PUSH2 0xA10 DUP5 DUP3 DUP6 PUSH2 0x9C7 JUMP JUMPDEST POP SWAP4 SWAP3 POP POP POP JUMP JUMPDEST PUSH1 0x0 DUP3 PUSH1 0x1F DUP4 ADD SLT PUSH2 0xA2D JUMPI PUSH2 0xA2C PUSH2 0x911 JUMP JUMPDEST JUMPDEST DUP2 CALLDATALOAD PUSH2 0xA3D DUP5 DUP3 PUSH1 0x20 DUP7 ADD PUSH2 0x9D6 JUMP JUMPDEST SWAP2 POP POP SWAP3 SWAP2 POP POP JUMP JUMPDEST PUSH1 0x0 PUSH1 0x20 DUP3 DUP5 SUB SLT ISZERO PUSH2 0xA5C JUMPI PUSH2 0xA5B PUSH2 0x701 JUMP JUMPDEST JUMPDEST PUSH1 0x0 DUP3 ADD CALLDATALOAD PUSH8 0xFFFFFFFFFFFFFFFF DUP2 GT ISZERO PUSH2 0xA7A JUMPI PUSH2 0xA79 PUSH2 0x706 JUMP JUMPDEST JUMPDEST PUSH2 0xA86 DUP5 DUP3 DUP6 ADD PUSH2 0xA18 JUMP JUMPDEST SWAP2 POP POP SWAP3 SWAP2 POP POP JUMP JUMPDEST PUSH32 0x6E6F7420636F6E7472616374206F776E65720000000000000000000000000000 PUSH1 0x0 DUP3 ADD MSTORE POP JUMP JUMPDEST PUSH1 0x0 PUSH2 0xAC5 PUSH1 0x12 DUP4 PUSH2 0x84D JUMP JUMPDEST SWAP2 POP PUSH2 0xAD0 DUP3 PUSH2 0xA8F JUMP JUMPDEST PUSH1 0x20 DUP3 ADD SWAP1 POP SWAP2 SWAP1 POP JUMP JUMPDEST PUSH1 0x0 PUSH1 0x20 DUP3 ADD SWAP1 POP DUP2 DUP2 SUB PUSH1 0x0 DUP4 ADD MSTORE PUSH2 0xAF4 DUP2 PUSH2 0xAB8 JUMP JUMPDEST SWAP1 POP SWAP2 SWAP1 POP JUMP JUMPDEST PUSH32 0x4E487B7100000000000000000000000000000000000000000000000000000000 PUSH1 0x0 MSTORE PUSH1 0x32 PUSH1 0x4 MSTORE PUSH1 0x24 PUSH1 0x0 REVERT JUMPDEST PUSH2 0xB33 DUP2 PUSH2 0x70B JUMP JUMPDEST DUP3 MSTORE POP POP JUMP JUMPDEST PUSH1 0x0 PUSH1 0x40 DUP3 ADD SWAP1 POP PUSH2 0xB4E PUSH1 0x0 DUP4 ADD DUP6 PUSH2 0xB2A JUMP JUMPDEST PUSH2 0xB5B PUSH1 0x20 DUP4 ADD DUP5 PUSH2 0x8D2 JUMP JUMPDEST SWAP4 SWAP3 POP POP POP JUMP JUMPDEST PUSH32 0x4E487B7100000000000000000000000000000000000000000000000000000000 PUSH1 0x0 MSTORE PUSH1 0x22 PUSH1 0x4 MSTORE PUSH1 0x24 PUSH1 0x0 REVERT JUMPDEST PUSH1 0x0 PUSH1 0x2 DUP3 DIV SWAP1 POP PUSH1 0x1 DUP3 AND DUP1 PUSH2 0xBA9 JUMPI PUSH1 0x7F DUP3 AND SWAP2 POP JUMPDEST PUSH1 0x20 DUP3 LT DUP2 SUB PUSH2 0xBBC JUMPI PUSH2 0xBBB PUSH2 0xB62 JUMP JUMPDEST JUMPDEST POP SWAP2 SWAP1 POP JUMP JUMPDEST PUSH1 0x0 DUP2 SWAP1 POP DUP2 PUSH1 0x0 MSTORE PUSH1 0x20 PUSH1 0x0 KECCAK256 SWAP1 POP SWAP2 SWAP1 POP JUMP JUMPDEST PUSH1 0x0 PUSH1 0x20 PUSH1 0x1F DUP4 ADD DIV SWAP1 POP SWAP2 SWAP1 POP JUMP JUMPDEST PUSH1 0x0 DUP3 DUP3 SHL SWAP1 POP SWAP3 SWAP2 POP POP JUMP JUMPDEST PUSH1 0x0 PUSH1 0x8 DUP4 MUL PUSH2 0xC24 PUSH32 0xFFFFFFFFFFFFFFFFFFFFFFFFFFFFFFFFFFFFFFFFFFFFFFFFFFFFFFFFFFFFFFFF DUP3 PUSH2 0xBE7 JUMP JUMPDEST PUSH2 0xC2E DUP7 DUP4 PUSH2 0xBE7 JUMP JUMPDEST SWAP6 POP DUP1 NOT DUP5 AND SWAP4 POP DUP1 DUP7 AND DUP5 OR SWAP3 POP POP POP SWAP4 SWAP3 POP POP POP JUMP JUMPDEST PUSH1 0x0 DUP2 SWAP1 POP SWAP2 SWAP1 POP JUMP JUMPDEST PUSH1 0x0 PUSH2 0xC6B PUSH2 0xC66 PUSH2 0xC61 DUP5 PUSH2 0x70B JUMP JUMPDEST PUSH2 0xC46 JUMP JUMPDEST PUSH2 0x70B JUMP JUMPDEST SWAP1 POP SWAP2 SWAP1 POP JUMP JUMPDEST PUSH1 0x0 DUP2 SWAP1 POP SWAP2 SWAP1 POP JUMP JUMPDEST PUSH2 0xC85 DUP4 PUSH2 0xC50 JUMP JUMPDEST PUSH2 0xC99 PUSH2 0xC91 DUP3 PUSH2 0xC72 JUMP JUMPDEST DUP5 DUP5 SLOAD PUSH2 0xBF4 JUMP JUMPDEST DUP3 SSTORE POP POP POP POP JUMP JUMPDEST PUSH1 0x0 SWAP1 JUMP JUMPDEST PUSH2 0xCAE PUSH2 0xCA1 JUMP JUMPDEST PUSH2 0xCB9 DUP2 DUP5 DUP5 PUSH2 0xC7C JUMP JUMPDEST POP POP POP JUMP JUMPDEST JUMPDEST DUP2 DUP2 LT ISZERO PUSH2 0xCDD JUMPI PUSH2 0xCD2 PUSH1 0x0 DUP3 PUSH2 0xCA6 JUMP JUMPDEST PUSH1 0x1 DUP2 ADD SWAP1 POP PUSH2 0xCBF JUMP JUMPDEST POP POP JUMP JUMPDEST PUSH1 0x1F DUP3 GT ISZERO PUSH2 0xD22 JUMPI PUSH2 0xCF3 DUP2 PUSH2 0xBC2 JUMP JUMPDEST PUSH2 0xCFC DUP5 PUSH2 0xBD7 JUMP JUMPDEST DUP2 ADD PUSH1 0x20 DUP6 LT ISZERO PUSH2 0xD0B JUMPI DUP2 SWAP1 POP JUMPDEST PUSH2 0xD1F PUSH2 0xD17 DUP6 PUSH2 0xBD7 JUMP JUMPDEST DUP4 ADD DUP3 PUSH2 0xCBE JUMP JUMPDEST POP POP JUMPDEST POP POP POP JUMP JUMPDEST PUSH1 0x0 DUP3 DUP3 SHR SWAP1 POP SWAP3 SWAP2 POP POP JUMP JUMPDEST PUSH1 0x0 PUSH2 0xD45 PUSH1 0x0 NOT DUP5 PUSH1 0x8 MUL PUSH2 0xD27 JUMP JUMPDEST NOT DUP1 DUP4 AND SWAP2 POP POP SWAP3 SWAP2 POP POP JUMP JUMPDEST PUSH1 0x0 PUSH2 0xD5E DUP4 DUP4 PUSH2 0xD34 JUMP JUMPDEST SWAP2 POP DUP3 PUSH1 0x2 MUL DUP3 OR SWAP1 POP SWAP3 SWAP2 POP POP JUMP JUMPDEST PUSH2 0xD77 DUP3 PUSH2 0x842 JUMP JUMPDEST PUSH8 0xFFFFFFFFFFFFFFFF DUP2 GT ISZERO PUSH2 0xD90 JUMPI PUSH2 0xD8F PUSH2 0x91B JUMP JUMPDEST JUMPDEST PUSH2 0xD9A DUP3 SLOAD PUSH2 0xB91 JUMP JUMPDEST PUSH2 0xDA5 DUP3 DUP3 DUP6 PUSH2 0xCE1 JUMP JUMPDEST PUSH1 0x0 PUSH1 0x20 SWAP1 POP PUSH1 0x1F DUP4 GT PUSH1 0x1 DUP2 EQ PUSH2 0xDD8 JUMPI PUSH1 0x0 DUP5 ISZERO PUSH2 0xDC6 JUMPI DUP3 DUP8 ADD MLOAD SWAP1 POP JUMPDEST PUSH2 0xDD0 DUP6 DUP3 PUSH2 0xD52 JUMP JUMPDEST DUP7 SSTORE POP PUSH2 0xE38 JUMP JUMPDEST PUSH1 0x1F NOT DUP5 AND PUSH2 0xDE6 DUP7 PUSH2 0xBC2 JUMP JUMPDEST PUSH1 0x0 JUMPDEST DUP3 DUP2 LT ISZERO PUSH2 0xE0E JUMPI DUP5 DUP10 ADD MLOAD DUP3 SSTORE PUSH1 0x1 DUP3 ADD SWAP2 POP PUSH1 0x20 DUP6 ADD SWAP5 POP PUSH1 0x20 DUP2 ADD SWAP1 POP PUSH2 0xDE9 JUMP JUMPDEST DUP7 DUP4 LT ISZERO PUSH2 0xE2B JUMPI DUP5 DUP10 ADD MLOAD PUSH2 0xE27 PUSH1 0x1F DUP10 AND DUP3 PUSH2 0xD34 JUMP JUMPDEST DUP4 SSTORE POP JUMPDEST PUSH1 0x1 PUSH1 0x2 DUP9 MUL ADD DUP9 SSTORE POP POP POP JUMPDEST POP POP POP POP POP POP JUMP JUMPDEST PUSH32 0x4E487B7100000000000000000000000000000000000000000000000000000000 PUSH1 0x0 MSTORE PUSH1 0x11 PUSH1 0x4 MSTORE PUSH1 0x24 PUSH1 0x0 REVERT JUMPDEST PUSH1 0x0 PUSH2 0xE7A DUP3 PUSH2 0x70B JUMP JUMPDEST SWAP2 POP PUSH2 0xE85 DUP4 PUSH2 0x70B JUMP JUMPDEST SWAP3 POP DUP3 DUP3 SUB SWAP1 POP DUP2 DUP2 GT ISZERO PUSH2 0xE9D JUMPI PUSH2 0xE9C PUSH2 0xE40 JUMP JUMPDEST JUMPDEST SWAP3 SWAP2 POP POP JUMP JUMPDEST PUSH1 0x0 PUSH2 0xEAE DUP3 PUSH2 0x70B JUMP JUMPDEST SWAP2 POP PUSH32 0xFFFFFFFFFFFFFFFFFFFFFFFFFFFFFFFFFFFFFFFFFFFFFFFFFFFFFFFFFFFFFFFF DUP3 SUB PUSH2 0xEE0 JUMPI PUSH2 0xEDF PUSH2 0xE40 JUMP JUMPDEST JUMPDEST PUSH1 0x1 DUP3 ADD SWAP1 POP SWAP2 SWAP1 POP JUMP JUMPDEST PUSH1 0x0 PUSH1 0x60 DUP3 ADD SWAP1 POP PUSH2 0xF00 PUSH1 0x0 DUP4 ADD DUP7 PUSH2 0xB2A JUMP JUMPDEST DUP2 DUP2 SUB PUSH1 0x20 DUP4 ADD MSTORE PUSH2 0xF12 DUP2 DUP6 PUSH2 0x899 JUMP JUMPDEST SWAP1 POP PUSH2 0xF21 PUSH1 0x40 DUP4 ADD DUP5 PUSH2 0x8D2 JUMP JUMPDEST SWAP5 SWAP4 POP POP POP POP JUMP INVALID LOG2 PUSH5 0x6970667358 0x22 SLT KECCAK256 0x25 0xBD 0xCF 0xE0 MOD MSTORE 0xC8 DUP15 CALLDATACOPY SLOAD 0x2D PUSH18 0x15560D40CAD77C515C04C5EA3F5F01667823 NUMBER 0xC PUSH5 0x736F6C6343 STOP ADDMOD SGT STOP CALLER "
				},
				"gasEstimates": {
					"creation": {
						"codeDepositCost": "787000",
						"executionCost": "25084",
						"totalCost": "812084"
					},
					"external": {
						"create(string)": "infinite",
						"get(uint256)": "infinite",
						"kill()": "29911",
						"owner()": "2533",
						"taskToOwner(uint256)": "2884",
						"tasks(uint256)": "infinite",
						"update(uint256,bool)": "infinite"
					}
				},
				"methodIdentifiers": {
					"create(string)": "b6a46b3b",
					"get(uint256)": "9507d39a",
					"kill()": "41c0e1b5",
					"owner()": "8da5cb5b",
					"taskToOwner(uint256)": "6641c6c4",
					"tasks(uint256)": "8d977672",
					"update(uint256,bool)": "48284b62"
				}
			},
			"storageLayout": {
				"storage": [
					{
						"astId": 17,
						"contract": "TodoListOpenVer.sol:TodoList",
						"label": "owner",
						"offset": 0,
						"slot": "0",
						"type": "t_address"
					},
					{
						"astId": 35,
						"contract": "TodoListOpenVer.sol:TodoList",
						"label": "tasks",
						"offset": 0,
						"slot": "1",
						"type": "t_array(t_struct(Task)31_storage)dyn_storage"
					},
					{
						"astId": 39,
						"contract": "TodoListOpenVer.sol:TodoList",
						"label": "taskToOwner",
						"offset": 0,
						"slot": "2",
						"type": "t_mapping(t_uint256,t_address)"
					},
					{
						"astId": 43,
						"contract": "TodoListOpenVer.sol:TodoList",
						"label": "ownerTasksCount",
						"offset": 0,
						"slot": "3",
						"type": "t_mapping(t_address,t_uint256)"
					}
				],
				"types": {
					"t_address": {
						"encoding": "inplace",
						"label": "address",
						"numberOfBytes": "20"
					},
					"t_array(t_struct(Task)31_storage)dyn_storage": {
						"base": "t_struct(Task)31_storage",
						"encoding": "dynamic_array",
						"label": "struct TodoList.Task[]",
						"numberOfBytes": "32"
					},
					"t_bool": {
						"encoding": "inplace",
						"label": "bool",
						"numberOfBytes": "1"
					},
					"t_mapping(t_address,t_uint256)": {
						"encoding": "mapping",
						"key": "t_address",
						"label": "mapping(address => uint256)",
						"numberOfBytes": "32",
						"value": "t_uint256"
					},
					"t_mapping(t_uint256,t_address)": {
						"encoding": "mapping",
						"key": "t_uint256",
						"label": "mapping(uint256 => address)",
						"numberOfBytes": "32",
						"value": "t_address"
					},
					"t_string_storage": {
						"encoding": "bytes",
						"label": "string",
						"numberOfBytes": "32"
					},
					"t_struct(Task)31_storage": {
						"encoding": "inplace",
						"label": "struct TodoList.Task",
						"members": [
							{
								"astId": 28,
								"contract": "TodoListOpenVer.sol:TodoList",
								"label": "name",
								"offset": 0,
								"slot": "0",
								"type": "t_string_storage"
							},
							{
								"astId": 30,
								"contract": "TodoListOpenVer.sol:TodoList",
								"label": "completed",
								"offset": 0,
								"slot": "1",
								"type": "t_bool"
							}
						],
						"numberOfBytes": "64"
					},
					"t_uint256": {
						"encoding": "inplace",
						"label": "uint256",
						"numberOfBytes": "32"
					}
				}
			},
			"userdoc": {
				"kind": "user",
				"methods": {},
				"version": 1
			}
		}
	}
}