{
	"OwnTodoList.sol": {
		"TodoList": {
			"abi": [
				{
					"anonymous": false,
					"inputs": [
						{
							"indexed": false,
							"internalType": "uint256",
							"name": "taskId",
							"type": "uint256"
						},
						{
							"indexed": false,
							"internalType": "string",
							"name": "name",
							"type": "string"
						},
						{
							"indexed": false,
							"internalType": "bool",
							"name": "completed",
							"type": "bool"
						}
					],
					"name": "NewTask",
					"type": "event"
				},
				{
					"anonymous": false,
					"inputs": [
						{
							"indexed": false,
							"internalType": "uint256",
							"name": "taskId",
							"type": "uint256"
						},
						{
							"indexed": false,
							"internalType": "bool",
							"name": "completed",
							"type": "bool"
						}
					],
					"name": "UpdateTask",
					"type": "event"
				},
				{
					"inputs": [
						{
							"internalType": "string",
							"name": "_name",
							"type": "string"
						}
					],
					"name": "create",
					"outputs": [],
					"stateMutability": "nonpayable",
					"type": "function"
				},
				{
					"inputs": [
						{
							"internalType": "uint256",
							"name": "_taskId",
							"type": "uint256"
						}
					],
					"name": "get",
					"outputs": [
						{
							"internalType": "string",
							"name": "name",
							"type": "string"
						},
						{
							"internalType": "bool",
							"name": "completed",
							"type": "bool"
						}
					],
					"stateMutability": "view",
					"type": "function"
				},
				{
					"inputs": [],
					"name": "kill",
					"outputs": [],
					"stateMutability": "nonpayable",
					"type": "function"
				},
				{
					"inputs": [
						{
							"internalType": "uint256",
							"name": "",
							"type": "uint256"
						}
					],
					"name": "tasks",
					"outputs": [
						{
							"internalType": "string",
							"name": "name",
							"type": "string"
						},
						{
							"internalType": "bool",
							"name": "completed",
							"type": "bool"
						}
					],
					"stateMutability": "view",
					"type": "function"
				},
				{
					"inputs": [
						{
							"internalType": "uint256",
							"name": "_taskId",
							"type": "uint256"
						},
						{
							"internalType": "bool",
							"name": "_completed",
							"type": "bool"
						}
					],
					"name": "update",
					"outputs": [],
					"stateMutability": "nonpayable",
					"type": "function"
				}
			],
			"devdoc": {
				"kind": "dev",
				"methods": {},
				"version": 1
			},
			"evm": {
				"assembly": "    /* \"OwnTodoList.sol\":59:1144  contract TodoList {... */\n  mstore(0x40, 0x80)\n  callvalue\n  dup1\n  iszero\n  tag_1\n  jumpi\n  0x00\n  dup1\n  revert\ntag_1:\n  pop\n  dataSize(sub_0)\n  dup1\n  dataOffset(sub_0)\n  0x00\n  codecopy\n  0x00\n  return\nstop\n\nsub_0: assembly {\n        /* \"OwnTodoList.sol\":59:1144  contract TodoList {... */\n      mstore(0x40, 0x80)\n      callvalue\n      dup1\n      iszero\n      tag_1\n      jumpi\n      0x00\n      dup1\n      revert\n    tag_1:\n      pop\n      jumpi(tag_2, lt(calldatasize, 0x04))\n      shr(0xe0, calldataload(0x00))\n      dup1\n      0x41c0e1b5\n      eq\n      tag_3\n      jumpi\n      dup1\n      0x48284b62\n      eq\n      tag_4\n      jumpi\n      dup1\n      0x8d977672\n      eq\n      tag_5\n      jumpi\n      dup1\n      0x9507d39a\n      eq\n      tag_6\n      jumpi\n      dup1\n      0xb6a46b3b\n      eq\n      tag_7\n      jumpi\n    tag_2:\n      0x00\n      dup1\n      revert\n        /* \"OwnTodoList.sol\":1067:1142  function kill() external {... */\n    tag_3:\n      tag_8\n      tag_9\n      jump\t// in\n    tag_8:\n      stop\n        /* \"OwnTodoList.sol\":746:900  function update(uint _taskId, bool _completed) public {... */\n    tag_4:\n      tag_10\n      0x04\n      dup1\n      calldatasize\n      sub\n      dup2\n      add\n      swap1\n      tag_11\n      swap2\n      swap1\n      tag_12\n      jump\t// in\n    tag_11:\n      tag_13\n      jump\t// in\n    tag_10:\n      stop\n        /* \"OwnTodoList.sol\":266:285  Task[] public tasks */\n    tag_5:\n      tag_14\n      0x04\n      dup1\n      calldatasize\n      sub\n      dup2\n      add\n      swap1\n      tag_15\n      swap2\n      swap1\n      tag_16\n      jump\t// in\n    tag_15:\n      tag_17\n      jump\t// in\n    tag_14:\n      mload(0x40)\n      tag_18\n      swap3\n      swap2\n      swap1\n      tag_19\n      jump\t// in\n    tag_18:\n      mload(0x40)\n      dup1\n      swap2\n      sub\n      swap1\n      return\n        /* \"OwnTodoList.sol\":906:1061  function get(uint _taskId) public view returns (string memory name, bool completed) {... */\n    tag_6:\n      tag_20\n      0x04\n      dup1\n      calldatasize\n      sub\n      dup2\n      add\n      swap1\n      tag_21\n      swap2\n      swap1\n      tag_16\n      jump\t// in\n    tag_21:\n      tag_22\n      jump\t// in\n    tag_20:\n      mload(0x40)\n      tag_23\n      swap3\n      swap2\n      swap1\n      tag_19\n      jump\t// in\n    tag_23:\n      mload(0x40)\n      dup1\n      swap2\n      sub\n      swap1\n      return\n        /* \"OwnTodoList.sol\":328:740  function create(string memory _name) public {... */\n    tag_7:\n      tag_24\n      0x04\n      dup1\n      calldatasize\n      sub\n      dup2\n      add\n      swap1\n      tag_25\n      swap2\n      swap1\n      tag_26\n      jump\t// in\n    tag_25:\n      tag_27\n      jump\t// in\n    tag_24:\n      stop\n        /* \"OwnTodoList.sol\":1067:1142  function kill() external {... */\n    tag_9:\n        /* \"OwnTodoList.sol\":1123:1133  msg.sender */\n      caller\n        /* \"OwnTodoList.sol\":1102:1135  selfdestruct(payable(msg.sender)) */\n      0xffffffffffffffffffffffffffffffffffffffff\n      and\n      selfdestruct\n        /* \"OwnTodoList.sol\":746:900  function update(uint _taskId, bool _completed) public {... */\n    tag_13:\n        /* \"OwnTodoList.sol\":837:847  _completed */\n      dup1\n        /* \"OwnTodoList.sol\":810:815  tasks */\n      0x00\n        /* \"OwnTodoList.sol\":816:823  _taskId */\n      dup4\n        /* \"OwnTodoList.sol\":810:824  tasks[_taskId] */\n      dup2\n      sload\n      dup2\n      lt\n      tag_30\n      jumpi\n      tag_31\n      tag_32\n      jump\t// in\n    tag_31:\n    tag_30:\n      swap1\n      0x00\n      mstore\n      keccak256(0x00, 0x20)\n      swap1\n      0x02\n      mul\n      add\n        /* \"OwnTodoList.sol\":810:834  tasks[_taskId].completed */\n      0x01\n      add\n      0x00\n        /* \"OwnTodoList.sol\":810:847  tasks[_taskId].completed = _completed */\n      0x0100\n      exp\n      dup2\n      sload\n      dup2\n      0xff\n      mul\n      not\n      and\n      swap1\n      dup4\n      iszero\n      iszero\n      mul\n      or\n      swap1\n      sstore\n      pop\n        /* \"OwnTodoList.sol\":862:893  UpdateTask(_taskId, _completed) */\n      0x40f4ecd2923438fa255c9ec921b119ae150358907bbc9ba7d5c34bf9c151b6ac\n        /* \"OwnTodoList.sol\":873:880  _taskId */\n      dup3\n        /* \"OwnTodoList.sol\":882:892  _completed */\n      dup3\n        /* \"OwnTodoList.sol\":862:893  UpdateTask(_taskId, _completed) */\n      mload(0x40)\n      tag_34\n      swap3\n      swap2\n      swap1\n      tag_35\n      jump\t// in\n    tag_34:\n      mload(0x40)\n      dup1\n      swap2\n      sub\n      swap1\n      log1\n        /* \"OwnTodoList.sol\":746:900  function update(uint _taskId, bool _completed) public {... */\n      pop\n      pop\n      jump\t// out\n        /* \"OwnTodoList.sol\":266:285  Task[] public tasks */\n    tag_17:\n      0x00\n      dup2\n      dup2\n      sload\n      dup2\n      lt\n      tag_36\n      jumpi\n      0x00\n      dup1\n      revert\n    tag_36:\n      swap1\n      0x00\n      mstore\n      keccak256(0x00, 0x20)\n      swap1\n      0x02\n      mul\n      add\n      0x00\n      swap2\n      pop\n      swap1\n      pop\n      dup1\n      0x00\n      add\n      dup1\n      sload\n      tag_38\n      swap1\n      tag_39\n      jump\t// in\n    tag_38:\n      dup1\n      0x1f\n      add\n      0x20\n      dup1\n      swap2\n      div\n      mul\n      0x20\n      add\n      mload(0x40)\n      swap1\n      dup2\n      add\n      0x40\n      mstore\n      dup1\n      swap3\n      swap2\n      swap1\n      dup2\n      dup2\n      mstore\n      0x20\n      add\n      dup3\n      dup1\n      sload\n      tag_40\n      swap1\n      tag_39\n      jump\t// in\n    tag_40:\n      dup1\n      iszero\n      tag_41\n      jumpi\n      dup1\n      0x1f\n      lt\n      tag_42\n      jumpi\n      0x0100\n      dup1\n      dup4\n      sload\n      div\n      mul\n      dup4\n      mstore\n      swap2\n      0x20\n      add\n      swap2\n      jump(tag_41)\n    tag_42:\n      dup3\n      add\n      swap2\n      swap1\n      0x00\n      mstore\n      keccak256(0x00, 0x20)\n      swap1\n    tag_43:\n      dup2\n      sload\n      dup2\n      mstore\n      swap1\n      0x01\n      add\n      swap1\n      0x20\n      add\n      dup1\n      dup4\n      gt\n      tag_43\n      jumpi\n      dup3\n      swap1\n      sub\n      0x1f\n      and\n      dup3\n      add\n      swap2\n    tag_41:\n      pop\n      pop\n      pop\n      pop\n      pop\n      swap1\n      dup1\n      0x01\n      add\n      0x00\n      swap1\n      sload\n      swap1\n      0x0100\n      exp\n      swap1\n      div\n      0xff\n      and\n      swap1\n      pop\n      dup3\n      jump\t// out\n        /* \"OwnTodoList.sol\":906:1061  function get(uint _taskId) public view returns (string memory name, bool completed) {... */\n    tag_22:\n        /* \"OwnTodoList.sol\":954:972  string memory name */\n      0x60\n        /* \"OwnTodoList.sol\":974:988  bool completed */\n      0x00\n        /* \"OwnTodoList.sol\":1008:1013  tasks */\n      dup1\n        /* \"OwnTodoList.sol\":1014:1021  _taskId */\n      dup4\n        /* \"OwnTodoList.sol\":1008:1022  tasks[_taskId] */\n      dup2\n      sload\n      dup2\n      lt\n      tag_45\n      jumpi\n      tag_46\n      tag_32\n      jump\t// in\n    tag_46:\n    tag_45:\n      swap1\n      0x00\n      mstore\n      keccak256(0x00, 0x20)\n      swap1\n      0x02\n      mul\n      add\n        /* \"OwnTodoList.sol\":1008:1027  tasks[_taskId].name */\n      0x00\n      add\n        /* \"OwnTodoList.sol\":1029:1034  tasks */\n      0x00\n        /* \"OwnTodoList.sol\":1035:1042  _taskId */\n      dup5\n        /* \"OwnTodoList.sol\":1029:1043  tasks[_taskId] */\n      dup2\n      sload\n      dup2\n      lt\n      tag_48\n      jumpi\n      tag_49\n      tag_32\n      jump\t// in\n    tag_49:\n    tag_48:\n      swap1\n      0x00\n      mstore\n      keccak256(0x00, 0x20)\n      swap1\n      0x02\n      mul\n      add\n        /* \"OwnTodoList.sol\":1029:1053  tasks[_taskId].completed */\n      0x01\n      add\n      0x00\n      swap1\n      sload\n      swap1\n      0x0100\n      exp\n      swap1\n      div\n      0xff\n      and\n        /* \"OwnTodoList.sol\":1000:1054  return (tasks[_taskId].name, tasks[_taskId].completed) */\n      dup2\n      dup1\n      sload\n      tag_51\n      swap1\n      tag_39\n      jump\t// in\n    tag_51:\n      dup1\n      0x1f\n      add\n      0x20\n      dup1\n      swap2\n      div\n      mul\n      0x20\n      add\n      mload(0x40)\n      swap1\n      dup2\n      add\n      0x40\n      mstore\n      dup1\n      swap3\n      swap2\n      swap1\n      dup2\n      dup2\n      mstore\n      0x20\n      add\n      dup3\n      dup1\n      sload\n      tag_52\n      swap1\n      tag_39\n      jump\t// in\n    tag_52:\n      dup1\n      iszero\n      tag_53\n      jumpi\n      dup1\n      0x1f\n      lt\n      tag_54\n      jumpi\n      0x0100\n      dup1\n      dup4\n      sload\n      div\n      mul\n      dup4\n      mstore\n      swap2\n      0x20\n      add\n      swap2\n      jump(tag_53)\n    tag_54:\n      dup3\n      add\n      swap2\n      swap1\n      0x00\n      mstore\n      keccak256(0x00, 0x20)\n      swap1\n    tag_55:\n      dup2\n      sload\n      dup2\n      mstore\n      swap1\n      0x01\n      add\n      swap1\n      0x20\n      add\n      dup1\n      dup4\n      gt\n      tag_55\n      jumpi\n      dup3\n      swap1\n      sub\n      0x1f\n      and\n      dup3\n      add\n      swap2\n    tag_53:\n      pop\n      pop\n      pop\n      pop\n      pop\n      swap2\n      pop\n      swap2\n      pop\n      swap2\n      pop\n        /* \"OwnTodoList.sol\":906:1061  function get(uint _taskId) public view returns (string memory name, bool completed) {... */\n      swap2\n      pop\n      swap2\n      jump\t// out\n        /* \"OwnTodoList.sol\":328:740  function create(string memory _name) public {... */\n    tag_27:\n        /* \"OwnTodoList.sol\":382:387  tasks */\n      0x00\n        /* \"OwnTodoList.sol\":393:411  Task(_name, false) */\n      mload(0x40)\n      dup1\n      0x40\n      add\n      0x40\n      mstore\n      dup1\n        /* \"OwnTodoList.sol\":398:403  _name */\n      dup4\n        /* \"OwnTodoList.sol\":393:411  Task(_name, false) */\n      dup2\n      mstore\n      0x20\n      add\n        /* \"OwnTodoList.sol\":405:410  false */\n      0x00\n        /* \"OwnTodoList.sol\":393:411  Task(_name, false) */\n      iszero\n      iszero\n      dup2\n      mstore\n      pop\n        /* \"OwnTodoList.sol\":382:412  tasks.push(Task(_name, false)) */\n      swap1\n      dup1\n      0x01\n      dup2\n      sload\n      add\n      dup1\n      dup3\n      sstore\n      dup1\n      swap2\n      pop\n      pop\n      0x01\n      swap1\n      sub\n      swap1\n      0x00\n      mstore\n      keccak256(0x00, 0x20)\n      swap1\n      0x02\n      mul\n      add\n      0x00\n      swap1\n      swap2\n      swap1\n      swap2\n      swap1\n      swap2\n      pop\n      0x00\n      dup3\n      add\n      mload\n      dup2\n      0x00\n      add\n      swap1\n      dup2\n      tag_58\n      swap2\n      swap1\n      tag_59\n      jump\t// in\n    tag_58:\n      pop\n      0x20\n      dup3\n      add\n      mload\n      dup2\n      0x01\n      add\n      exp(0x0100, 0x00)\n      dup2\n      sload\n      dup2\n      0xff\n      mul\n      not\n      and\n      swap1\n      dup4\n      iszero\n      iszero\n      mul\n      or\n      swap1\n      sstore\n      pop\n      pop\n      pop\n        /* \"OwnTodoList.sol\":616:623  uint id */\n      0x00\n        /* \"OwnTodoList.sol\":641:642  1 */\n      0x01\n        /* \"OwnTodoList.sol\":626:631  tasks */\n      0x00\n        /* \"OwnTodoList.sol\":626:638  tasks.length */\n      dup1\n      sload\n      swap1\n      pop\n        /* \"OwnTodoList.sol\":626:642  tasks.length - 1 */\n      tag_60\n      swap2\n      swap1\n      tag_61\n      jump\t// in\n    tag_60:\n        /* \"OwnTodoList.sol\":616:642  uint id = tasks.length - 1 */\n      swap1\n      pop\n        /* \"OwnTodoList.sol\":708:733  NewTask(id, _name, false) */\n      0x8de7fcf423c3be88a1d33619458254be5a02866653e3209631248661ba7db881\n        /* \"OwnTodoList.sol\":716:718  id */\n      dup2\n        /* \"OwnTodoList.sol\":720:725  _name */\n      dup4\n        /* \"OwnTodoList.sol\":727:732  false */\n      0x00\n        /* \"OwnTodoList.sol\":708:733  NewTask(id, _name, false) */\n      mload(0x40)\n      tag_62\n      swap4\n      swap3\n      swap2\n      swap1\n      tag_63\n      jump\t// in\n    tag_62:\n      mload(0x40)\n      dup1\n      swap2\n      sub\n      swap1\n      log1\n        /* \"OwnTodoList.sol\":372:740  {... */\n      pop\n        /* \"OwnTodoList.sol\":328:740  function create(string memory _name) public {... */\n      pop\n      jump\t// out\n        /* \"#utility.yul\":7:82   */\n    tag_64:\n        /* \"#utility.yul\":40:46   */\n      0x00\n        /* \"#utility.yul\":73:75   */\n      0x40\n        /* \"#utility.yul\":67:76   */\n      mload\n        /* \"#utility.yul\":57:76   */\n      swap1\n      pop\n        /* \"#utility.yul\":7:82   */\n      swap1\n      jump\t// out\n        /* \"#utility.yul\":88:205   */\n    tag_65:\n        /* \"#utility.yul\":197:198   */\n      0x00\n        /* \"#utility.yul\":194:195   */\n      dup1\n        /* \"#utility.yul\":187:199   */\n      revert\n        /* \"#utility.yul\":211:328   */\n    tag_66:\n        /* \"#utility.yul\":320:321   */\n      0x00\n        /* \"#utility.yul\":317:318   */\n      dup1\n        /* \"#utility.yul\":310:322   */\n      revert\n        /* \"#utility.yul\":334:411   */\n    tag_67:\n        /* \"#utility.yul\":371:378   */\n      0x00\n        /* \"#utility.yul\":400:405   */\n      dup2\n        /* \"#utility.yul\":389:405   */\n      swap1\n      pop\n        /* \"#utility.yul\":334:411   */\n      swap2\n      swap1\n      pop\n      jump\t// out\n        /* \"#utility.yul\":417:539   */\n    tag_68:\n        /* \"#utility.yul\":490:514   */\n      tag_112\n        /* \"#utility.yul\":508:513   */\n      dup2\n        /* \"#utility.yul\":490:514   */\n      tag_67\n      jump\t// in\n    tag_112:\n        /* \"#utility.yul\":483:488   */\n      dup2\n        /* \"#utility.yul\":480:515   */\n      eq\n        /* \"#utility.yul\":470:533   */\n      tag_113\n      jumpi\n        /* \"#utility.yul\":529:530   */\n      0x00\n        /* \"#utility.yul\":526:527   */\n      dup1\n        /* \"#utility.yul\":519:531   */\n      revert\n        /* \"#utility.yul\":470:533   */\n    tag_113:\n        /* \"#utility.yul\":417:539   */\n      pop\n      jump\t// out\n        /* \"#utility.yul\":545:684   */\n    tag_69:\n        /* \"#utility.yul\":591:596   */\n      0x00\n        /* \"#utility.yul\":629:635   */\n      dup2\n        /* \"#utility.yul\":616:636   */\n      calldataload\n        /* \"#utility.yul\":607:636   */\n      swap1\n      pop\n        /* \"#utility.yul\":645:678   */\n      tag_115\n        /* \"#utility.yul\":672:677   */\n      dup2\n        /* \"#utility.yul\":645:678   */\n      tag_68\n      jump\t// in\n    tag_115:\n        /* \"#utility.yul\":545:684   */\n      swap3\n      swap2\n      pop\n      pop\n      jump\t// out\n        /* \"#utility.yul\":690:780   */\n    tag_70:\n        /* \"#utility.yul\":724:731   */\n      0x00\n        /* \"#utility.yul\":767:772   */\n      dup2\n        /* \"#utility.yul\":760:773   */\n      iszero\n        /* \"#utility.yul\":753:774   */\n      iszero\n        /* \"#utility.yul\":742:774   */\n      swap1\n      pop\n        /* \"#utility.yul\":690:780   */\n      swap2\n      swap1\n      pop\n      jump\t// out\n        /* \"#utility.yul\":786:902   */\n    tag_71:\n        /* \"#utility.yul\":856:877   */\n      tag_118\n        /* \"#utility.yul\":871:876   */\n      dup2\n        /* \"#utility.yul\":856:877   */\n      tag_70\n      jump\t// in\n    tag_118:\n        /* \"#utility.yul\":849:854   */\n      dup2\n        /* \"#utility.yul\":846:878   */\n      eq\n        /* \"#utility.yul\":836:896   */\n      tag_119\n      jumpi\n        /* \"#utility.yul\":892:893   */\n      0x00\n        /* \"#utility.yul\":889:890   */\n      dup1\n        /* \"#utility.yul\":882:894   */\n      revert\n        /* \"#utility.yul\":836:896   */\n    tag_119:\n        /* \"#utility.yul\":786:902   */\n      pop\n      jump\t// out\n        /* \"#utility.yul\":908:1041   */\n    tag_72:\n        /* \"#utility.yul\":951:956   */\n      0x00\n        /* \"#utility.yul\":989:995   */\n      dup2\n        /* \"#utility.yul\":976:996   */\n      calldataload\n        /* \"#utility.yul\":967:996   */\n      swap1\n      pop\n        /* \"#utility.yul\":1005:1035   */\n      tag_121\n        /* \"#utility.yul\":1029:1034   */\n      dup2\n        /* \"#utility.yul\":1005:1035   */\n      tag_71\n      jump\t// in\n    tag_121:\n        /* \"#utility.yul\":908:1041   */\n      swap3\n      swap2\n      pop\n      pop\n      jump\t// out\n        /* \"#utility.yul\":1047:1515   */\n    tag_12:\n        /* \"#utility.yul\":1112:1118   */\n      0x00\n        /* \"#utility.yul\":1120:1126   */\n      dup1\n        /* \"#utility.yul\":1169:1171   */\n      0x40\n        /* \"#utility.yul\":1157:1166   */\n      dup4\n        /* \"#utility.yul\":1148:1155   */\n      dup6\n        /* \"#utility.yul\":1144:1167   */\n      sub\n        /* \"#utility.yul\":1140:1172   */\n      slt\n        /* \"#utility.yul\":1137:1256   */\n      iszero\n      tag_123\n      jumpi\n        /* \"#utility.yul\":1175:1254   */\n      tag_124\n      tag_65\n      jump\t// in\n    tag_124:\n        /* \"#utility.yul\":1137:1256   */\n    tag_123:\n        /* \"#utility.yul\":1295:1296   */\n      0x00\n        /* \"#utility.yul\":1320:1373   */\n      tag_125\n        /* \"#utility.yul\":1365:1372   */\n      dup6\n        /* \"#utility.yul\":1356:1362   */\n      dup3\n        /* \"#utility.yul\":1345:1354   */\n      dup7\n        /* \"#utility.yul\":1341:1363   */\n      add\n        /* \"#utility.yul\":1320:1373   */\n      tag_69\n      jump\t// in\n    tag_125:\n        /* \"#utility.yul\":1310:1373   */\n      swap3\n      pop\n        /* \"#utility.yul\":1266:1383   */\n      pop\n        /* \"#utility.yul\":1422:1424   */\n      0x20\n        /* \"#utility.yul\":1448:1498   */\n      tag_126\n        /* \"#utility.yul\":1490:1497   */\n      dup6\n        /* \"#utility.yul\":1481:1487   */\n      dup3\n        /* \"#utility.yul\":1470:1479   */\n      dup7\n        /* \"#utility.yul\":1466:1488   */\n      add\n        /* \"#utility.yul\":1448:1498   */\n      tag_72\n      jump\t// in\n    tag_126:\n        /* \"#utility.yul\":1438:1498   */\n      swap2\n      pop\n        /* \"#utility.yul\":1393:1508   */\n      pop\n        /* \"#utility.yul\":1047:1515   */\n      swap3\n      pop\n      swap3\n      swap1\n      pop\n      jump\t// out\n        /* \"#utility.yul\":1521:1850   */\n    tag_16:\n        /* \"#utility.yul\":1580:1586   */\n      0x00\n        /* \"#utility.yul\":1629:1631   */\n      0x20\n        /* \"#utility.yul\":1617:1626   */\n      dup3\n        /* \"#utility.yul\":1608:1615   */\n      dup5\n        /* \"#utility.yul\":1604:1627   */\n      sub\n        /* \"#utility.yul\":1600:1632   */\n      slt\n        /* \"#utility.yul\":1597:1716   */\n      iszero\n      tag_128\n      jumpi\n        /* \"#utility.yul\":1635:1714   */\n      tag_129\n      tag_65\n      jump\t// in\n    tag_129:\n        /* \"#utility.yul\":1597:1716   */\n    tag_128:\n        /* \"#utility.yul\":1755:1756   */\n      0x00\n        /* \"#utility.yul\":1780:1833   */\n      tag_130\n        /* \"#utility.yul\":1825:1832   */\n      dup5\n        /* \"#utility.yul\":1816:1822   */\n      dup3\n        /* \"#utility.yul\":1805:1814   */\n      dup6\n        /* \"#utility.yul\":1801:1823   */\n      add\n        /* \"#utility.yul\":1780:1833   */\n      tag_69\n      jump\t// in\n    tag_130:\n        /* \"#utility.yul\":1770:1833   */\n      swap2\n      pop\n        /* \"#utility.yul\":1726:1843   */\n      pop\n        /* \"#utility.yul\":1521:1850   */\n      swap3\n      swap2\n      pop\n      pop\n      jump\t// out\n        /* \"#utility.yul\":1856:1955   */\n    tag_73:\n        /* \"#utility.yul\":1908:1914   */\n      0x00\n        /* \"#utility.yul\":1942:1947   */\n      dup2\n        /* \"#utility.yul\":1936:1948   */\n      mload\n        /* \"#utility.yul\":1926:1948   */\n      swap1\n      pop\n        /* \"#utility.yul\":1856:1955   */\n      swap2\n      swap1\n      pop\n      jump\t// out\n        /* \"#utility.yul\":1961:2130   */\n    tag_74:\n        /* \"#utility.yul\":2045:2056   */\n      0x00\n        /* \"#utility.yul\":2079:2085   */\n      dup3\n        /* \"#utility.yul\":2074:2077   */\n      dup3\n        /* \"#utility.yul\":2067:2086   */\n      mstore\n        /* \"#utility.yul\":2119:2123   */\n      0x20\n        /* \"#utility.yul\":2114:2117   */\n      dup3\n        /* \"#utility.yul\":2110:2124   */\n      add\n        /* \"#utility.yul\":2095:2124   */\n      swap1\n      pop\n        /* \"#utility.yul\":1961:2130   */\n      swap3\n      swap2\n      pop\n      pop\n      jump\t// out\n        /* \"#utility.yul\":2136:2382   */\n    tag_75:\n        /* \"#utility.yul\":2217:2218   */\n      0x00\n        /* \"#utility.yul\":2227:2340   */\n    tag_134:\n        /* \"#utility.yul\":2241:2247   */\n      dup4\n        /* \"#utility.yul\":2238:2239   */\n      dup2\n        /* \"#utility.yul\":2235:2248   */\n      lt\n        /* \"#utility.yul\":2227:2340   */\n      iszero\n      tag_136\n      jumpi\n        /* \"#utility.yul\":2326:2327   */\n      dup1\n        /* \"#utility.yul\":2321:2324   */\n      dup3\n        /* \"#utility.yul\":2317:2328   */\n      add\n        /* \"#utility.yul\":2311:2329   */\n      mload\n        /* \"#utility.yul\":2307:2308   */\n      dup2\n        /* \"#utility.yul\":2302:2305   */\n      dup5\n        /* \"#utility.yul\":2298:2309   */\n      add\n        /* \"#utility.yul\":2291:2330   */\n      mstore\n        /* \"#utility.yul\":2263:2265   */\n      0x20\n        /* \"#utility.yul\":2260:2261   */\n      dup2\n        /* \"#utility.yul\":2256:2266   */\n      add\n        /* \"#utility.yul\":2251:2266   */\n      swap1\n      pop\n        /* \"#utility.yul\":2227:2340   */\n      jump(tag_134)\n    tag_136:\n        /* \"#utility.yul\":2374:2375   */\n      0x00\n        /* \"#utility.yul\":2365:2371   */\n      dup5\n        /* \"#utility.yul\":2360:2363   */\n      dup5\n        /* \"#utility.yul\":2356:2372   */\n      add\n        /* \"#utility.yul\":2349:2376   */\n      mstore\n        /* \"#utility.yul\":2198:2382   */\n      pop\n        /* \"#utility.yul\":2136:2382   */\n      pop\n      pop\n      pop\n      jump\t// out\n        /* \"#utility.yul\":2388:2490   */\n    tag_76:\n        /* \"#utility.yul\":2429:2435   */\n      0x00\n        /* \"#utility.yul\":2480:2482   */\n      0x1f\n        /* \"#utility.yul\":2476:2483   */\n      not\n        /* \"#utility.yul\":2471:2473   */\n      0x1f\n        /* \"#utility.yul\":2464:2469   */\n      dup4\n        /* \"#utility.yul\":2460:2474   */\n      add\n        /* \"#utility.yul\":2456:2484   */\n      and\n        /* \"#utility.yul\":2446:2484   */\n      swap1\n      pop\n        /* \"#utility.yul\":2388:2490   */\n      swap2\n      swap1\n      pop\n      jump\t// out\n        /* \"#utility.yul\":2496:2873   */\n    tag_77:\n        /* \"#utility.yul\":2584:2587   */\n      0x00\n        /* \"#utility.yul\":2612:2651   */\n      tag_139\n        /* \"#utility.yul\":2645:2650   */\n      dup3\n        /* \"#utility.yul\":2612:2651   */\n      tag_73\n      jump\t// in\n    tag_139:\n        /* \"#utility.yul\":2667:2738   */\n      tag_140\n        /* \"#utility.yul\":2731:2737   */\n      dup2\n        /* \"#utility.yul\":2726:2729   */\n      dup6\n        /* \"#utility.yul\":2667:2738   */\n      tag_74\n      jump\t// in\n    tag_140:\n        /* \"#utility.yul\":2660:2738   */\n      swap4\n      pop\n        /* \"#utility.yul\":2747:2812   */\n      tag_141\n        /* \"#utility.yul\":2805:2811   */\n      dup2\n        /* \"#utility.yul\":2800:2803   */\n      dup6\n        /* \"#utility.yul\":2793:2797   */\n      0x20\n        /* \"#utility.yul\":2786:2791   */\n      dup7\n        /* \"#utility.yul\":2782:2798   */\n      add\n        /* \"#utility.yul\":2747:2812   */\n      tag_75\n      jump\t// in\n    tag_141:\n        /* \"#utility.yul\":2837:2866   */\n      tag_142\n        /* \"#utility.yul\":2859:2865   */\n      dup2\n        /* \"#utility.yul\":2837:2866   */\n      tag_76\n      jump\t// in\n    tag_142:\n        /* \"#utility.yul\":2832:2835   */\n      dup5\n        /* \"#utility.yul\":2828:2867   */\n      add\n        /* \"#utility.yul\":2821:2867   */\n      swap2\n      pop\n        /* \"#utility.yul\":2588:2873   */\n      pop\n        /* \"#utility.yul\":2496:2873   */\n      swap3\n      swap2\n      pop\n      pop\n      jump\t// out\n        /* \"#utility.yul\":2879:2988   */\n    tag_78:\n        /* \"#utility.yul\":2960:2981   */\n      tag_144\n        /* \"#utility.yul\":2975:2980   */\n      dup2\n        /* \"#utility.yul\":2960:2981   */\n      tag_70\n      jump\t// in\n    tag_144:\n        /* \"#utility.yul\":2955:2958   */\n      dup3\n        /* \"#utility.yul\":2948:2982   */\n      mstore\n        /* \"#utility.yul\":2879:2988   */\n      pop\n      pop\n      jump\t// out\n        /* \"#utility.yul\":2994:3405   */\n    tag_19:\n        /* \"#utility.yul\":3129:3133   */\n      0x00\n        /* \"#utility.yul\":3167:3169   */\n      0x40\n        /* \"#utility.yul\":3156:3165   */\n      dup3\n        /* \"#utility.yul\":3152:3170   */\n      add\n        /* \"#utility.yul\":3144:3170   */\n      swap1\n      pop\n        /* \"#utility.yul\":3216:3225   */\n      dup2\n        /* \"#utility.yul\":3210:3214   */\n      dup2\n        /* \"#utility.yul\":3206:3226   */\n      sub\n        /* \"#utility.yul\":3202:3203   */\n      0x00\n        /* \"#utility.yul\":3191:3200   */\n      dup4\n        /* \"#utility.yul\":3187:3204   */\n      add\n        /* \"#utility.yul\":3180:3227   */\n      mstore\n        /* \"#utility.yul\":3244:3322   */\n      tag_146\n        /* \"#utility.yul\":3317:3321   */\n      dup2\n        /* \"#utility.yul\":3308:3314   */\n      dup6\n        /* \"#utility.yul\":3244:3322   */\n      tag_77\n      jump\t// in\n    tag_146:\n        /* \"#utility.yul\":3236:3322   */\n      swap1\n      pop\n        /* \"#utility.yul\":3332:3398   */\n      tag_147\n        /* \"#utility.yul\":3394:3396   */\n      0x20\n        /* \"#utility.yul\":3383:3392   */\n      dup4\n        /* \"#utility.yul\":3379:3397   */\n      add\n        /* \"#utility.yul\":3370:3376   */\n      dup5\n        /* \"#utility.yul\":3332:3398   */\n      tag_78\n      jump\t// in\n    tag_147:\n        /* \"#utility.yul\":2994:3405   */\n      swap4\n      swap3\n      pop\n      pop\n      pop\n      jump\t// out\n        /* \"#utility.yul\":3411:3528   */\n    tag_79:\n        /* \"#utility.yul\":3520:3521   */\n      0x00\n        /* \"#utility.yul\":3517:3518   */\n      dup1\n        /* \"#utility.yul\":3510:3522   */\n      revert\n        /* \"#utility.yul\":3534:3651   */\n    tag_80:\n        /* \"#utility.yul\":3643:3644   */\n      0x00\n        /* \"#utility.yul\":3640:3641   */\n      dup1\n        /* \"#utility.yul\":3633:3645   */\n      revert\n        /* \"#utility.yul\":3657:3837   */\n    tag_81:\n        /* \"#utility.yul\":3705:3782   */\n      0x4e487b7100000000000000000000000000000000000000000000000000000000\n        /* \"#utility.yul\":3702:3703   */\n      0x00\n        /* \"#utility.yul\":3695:3783   */\n      mstore\n        /* \"#utility.yul\":3802:3806   */\n      0x41\n        /* \"#utility.yul\":3799:3800   */\n      0x04\n        /* \"#utility.yul\":3792:3807   */\n      mstore\n        /* \"#utility.yul\":3826:3830   */\n      0x24\n        /* \"#utility.yul\":3823:3824   */\n      0x00\n        /* \"#utility.yul\":3816:3831   */\n      revert\n        /* \"#utility.yul\":3843:4124   */\n    tag_82:\n        /* \"#utility.yul\":3926:3953   */\n      tag_152\n        /* \"#utility.yul\":3948:3952   */\n      dup3\n        /* \"#utility.yul\":3926:3953   */\n      tag_76\n      jump\t// in\n    tag_152:\n        /* \"#utility.yul\":3918:3924   */\n      dup2\n        /* \"#utility.yul\":3914:3954   */\n      add\n        /* \"#utility.yul\":4056:4062   */\n      dup2\n        /* \"#utility.yul\":4044:4054   */\n      dup2\n        /* \"#utility.yul\":4041:4063   */\n      lt\n        /* \"#utility.yul\":4020:4038   */\n      0xffffffffffffffff\n        /* \"#utility.yul\":4008:4018   */\n      dup3\n        /* \"#utility.yul\":4005:4039   */\n      gt\n        /* \"#utility.yul\":4002:4064   */\n      or\n        /* \"#utility.yul\":3999:4087   */\n      iszero\n      tag_153\n      jumpi\n        /* \"#utility.yul\":4067:4085   */\n      tag_154\n      tag_81\n      jump\t// in\n    tag_154:\n        /* \"#utility.yul\":3999:4087   */\n    tag_153:\n        /* \"#utility.yul\":4107:4117   */\n      dup1\n        /* \"#utility.yul\":4103:4105   */\n      0x40\n        /* \"#utility.yul\":4096:4118   */\n      mstore\n        /* \"#utility.yul\":3886:4124   */\n      pop\n        /* \"#utility.yul\":3843:4124   */\n      pop\n      pop\n      jump\t// out\n        /* \"#utility.yul\":4130:4259   */\n    tag_83:\n        /* \"#utility.yul\":4164:4170   */\n      0x00\n        /* \"#utility.yul\":4191:4211   */\n      tag_156\n      tag_64\n      jump\t// in\n    tag_156:\n        /* \"#utility.yul\":4181:4211   */\n      swap1\n      pop\n        /* \"#utility.yul\":4220:4253   */\n      tag_157\n        /* \"#utility.yul\":4248:4252   */\n      dup3\n        /* \"#utility.yul\":4240:4246   */\n      dup3\n        /* \"#utility.yul\":4220:4253   */\n      tag_82\n      jump\t// in\n    tag_157:\n        /* \"#utility.yul\":4130:4259   */\n      swap2\n      swap1\n      pop\n      jump\t// out\n        /* \"#utility.yul\":4265:4573   */\n    tag_84:\n        /* \"#utility.yul\":4327:4331   */\n      0x00\n        /* \"#utility.yul\":4417:4435   */\n      0xffffffffffffffff\n        /* \"#utility.yul\":4409:4415   */\n      dup3\n        /* \"#utility.yul\":4406:4436   */\n      gt\n        /* \"#utility.yul\":4403:4459   */\n      iszero\n      tag_159\n      jumpi\n        /* \"#utility.yul\":4439:4457   */\n      tag_160\n      tag_81\n      jump\t// in\n    tag_160:\n        /* \"#utility.yul\":4403:4459   */\n    tag_159:\n        /* \"#utility.yul\":4477:4506   */\n      tag_161\n        /* \"#utility.yul\":4499:4505   */\n      dup3\n        /* \"#utility.yul\":4477:4506   */\n      tag_76\n      jump\t// in\n    tag_161:\n        /* \"#utility.yul\":4469:4506   */\n      swap1\n      pop\n        /* \"#utility.yul\":4561:4565   */\n      0x20\n        /* \"#utility.yul\":4555:4559   */\n      dup2\n        /* \"#utility.yul\":4551:4566   */\n      add\n        /* \"#utility.yul\":4543:4566   */\n      swap1\n      pop\n        /* \"#utility.yul\":4265:4573   */\n      swap2\n      swap1\n      pop\n      jump\t// out\n        /* \"#utility.yul\":4579:4725   */\n    tag_85:\n        /* \"#utility.yul\":4676:4682   */\n      dup3\n        /* \"#utility.yul\":4671:4674   */\n      dup2\n        /* \"#utility.yul\":4666:4669   */\n      dup4\n        /* \"#utility.yul\":4653:4683   */\n      calldatacopy\n        /* \"#utility.yul\":4717:4718   */\n      0x00\n        /* \"#utility.yul\":4708:4714   */\n      dup4\n        /* \"#utility.yul\":4703:4706   */\n      dup4\n        /* \"#utility.yul\":4699:4715   */\n      add\n        /* \"#utility.yul\":4692:4719   */\n      mstore\n        /* \"#utility.yul\":4579:4725   */\n      pop\n      pop\n      pop\n      jump\t// out\n        /* \"#utility.yul\":4731:5156   */\n    tag_86:\n        /* \"#utility.yul\":4809:4814   */\n      0x00\n        /* \"#utility.yul\":4834:4900   */\n      tag_164\n        /* \"#utility.yul\":4850:4899   */\n      tag_165\n        /* \"#utility.yul\":4892:4898   */\n      dup5\n        /* \"#utility.yul\":4850:4899   */\n      tag_84\n      jump\t// in\n    tag_165:\n        /* \"#utility.yul\":4834:4900   */\n      tag_83\n      jump\t// in\n    tag_164:\n        /* \"#utility.yul\":4825:4900   */\n      swap1\n      pop\n        /* \"#utility.yul\":4923:4929   */\n      dup3\n        /* \"#utility.yul\":4916:4921   */\n      dup2\n        /* \"#utility.yul\":4909:4930   */\n      mstore\n        /* \"#utility.yul\":4961:4965   */\n      0x20\n        /* \"#utility.yul\":4954:4959   */\n      dup2\n        /* \"#utility.yul\":4950:4966   */\n      add\n        /* \"#utility.yul\":4999:5002   */\n      dup5\n        /* \"#utility.yul\":4990:4996   */\n      dup5\n        /* \"#utility.yul\":4985:4988   */\n      dup5\n        /* \"#utility.yul\":4981:4997   */\n      add\n        /* \"#utility.yul\":4978:5003   */\n      gt\n        /* \"#utility.yul\":4975:5087   */\n      iszero\n      tag_166\n      jumpi\n        /* \"#utility.yul\":5006:5085   */\n      tag_167\n      tag_80\n      jump\t// in\n    tag_167:\n        /* \"#utility.yul\":4975:5087   */\n    tag_166:\n        /* \"#utility.yul\":5096:5150   */\n      tag_168\n        /* \"#utility.yul\":5143:5149   */\n      dup5\n        /* \"#utility.yul\":5138:5141   */\n      dup3\n        /* \"#utility.yul\":5133:5136   */\n      dup6\n        /* \"#utility.yul\":5096:5150   */\n      tag_85\n      jump\t// in\n    tag_168:\n        /* \"#utility.yul\":4815:5156   */\n      pop\n        /* \"#utility.yul\":4731:5156   */\n      swap4\n      swap3\n      pop\n      pop\n      pop\n      jump\t// out\n        /* \"#utility.yul\":5176:5516   */\n    tag_87:\n        /* \"#utility.yul\":5232:5237   */\n      0x00\n        /* \"#utility.yul\":5281:5284   */\n      dup3\n        /* \"#utility.yul\":5274:5278   */\n      0x1f\n        /* \"#utility.yul\":5266:5272   */\n      dup4\n        /* \"#utility.yul\":5262:5279   */\n      add\n        /* \"#utility.yul\":5258:5285   */\n      slt\n        /* \"#utility.yul\":5248:5370   */\n      tag_170\n      jumpi\n        /* \"#utility.yul\":5289:5368   */\n      tag_171\n      tag_79\n      jump\t// in\n    tag_171:\n        /* \"#utility.yul\":5248:5370   */\n    tag_170:\n        /* \"#utility.yul\":5406:5412   */\n      dup2\n        /* \"#utility.yul\":5393:5413   */\n      calldataload\n        /* \"#utility.yul\":5431:5510   */\n      tag_172\n        /* \"#utility.yul\":5506:5509   */\n      dup5\n        /* \"#utility.yul\":5498:5504   */\n      dup3\n        /* \"#utility.yul\":5491:5495   */\n      0x20\n        /* \"#utility.yul\":5483:5489   */\n      dup7\n        /* \"#utility.yul\":5479:5496   */\n      add\n        /* \"#utility.yul\":5431:5510   */\n      tag_86\n      jump\t// in\n    tag_172:\n        /* \"#utility.yul\":5422:5510   */\n      swap2\n      pop\n        /* \"#utility.yul\":5238:5516   */\n      pop\n        /* \"#utility.yul\":5176:5516   */\n      swap3\n      swap2\n      pop\n      pop\n      jump\t// out\n        /* \"#utility.yul\":5522:6031   */\n    tag_26:\n        /* \"#utility.yul\":5591:5597   */\n      0x00\n        /* \"#utility.yul\":5640:5642   */\n      0x20\n        /* \"#utility.yul\":5628:5637   */\n      dup3\n        /* \"#utility.yul\":5619:5626   */\n      dup5\n        /* \"#utility.yul\":5615:5638   */\n      sub\n        /* \"#utility.yul\":5611:5643   */\n      slt\n        /* \"#utility.yul\":5608:5727   */\n      iszero\n      tag_174\n      jumpi\n        /* \"#utility.yul\":5646:5725   */\n      tag_175\n      tag_65\n      jump\t// in\n    tag_175:\n        /* \"#utility.yul\":5608:5727   */\n    tag_174:\n        /* \"#utility.yul\":5794:5795   */\n      0x00\n        /* \"#utility.yul\":5783:5792   */\n      dup3\n        /* \"#utility.yul\":5779:5796   */\n      add\n        /* \"#utility.yul\":5766:5797   */\n      calldataload\n        /* \"#utility.yul\":5824:5842   */\n      0xffffffffffffffff\n        /* \"#utility.yul\":5816:5822   */\n      dup2\n        /* \"#utility.yul\":5813:5843   */\n      gt\n        /* \"#utility.yul\":5810:5927   */\n      iszero\n      tag_176\n      jumpi\n        /* \"#utility.yul\":5846:5925   */\n      tag_177\n      tag_66\n      jump\t// in\n    tag_177:\n        /* \"#utility.yul\":5810:5927   */\n    tag_176:\n        /* \"#utility.yul\":5951:6014   */\n      tag_178\n        /* \"#utility.yul\":6006:6013   */\n      dup5\n        /* \"#utility.yul\":5997:6003   */\n      dup3\n        /* \"#utility.yul\":5986:5995   */\n      dup6\n        /* \"#utility.yul\":5982:6004   */\n      add\n        /* \"#utility.yul\":5951:6014   */\n      tag_87\n      jump\t// in\n    tag_178:\n        /* \"#utility.yul\":5941:6014   */\n      swap2\n      pop\n        /* \"#utility.yul\":5737:6024   */\n      pop\n        /* \"#utility.yul\":5522:6031   */\n      swap3\n      swap2\n      pop\n      pop\n      jump\t// out\n        /* \"#utility.yul\":6037:6217   */\n    tag_32:\n        /* \"#utility.yul\":6085:6162   */\n      0x4e487b7100000000000000000000000000000000000000000000000000000000\n        /* \"#utility.yul\":6082:6083   */\n      0x00\n        /* \"#utility.yul\":6075:6163   */\n      mstore\n        /* \"#utility.yul\":6182:6186   */\n      0x32\n        /* \"#utility.yul\":6179:6180   */\n      0x04\n        /* \"#utility.yul\":6172:6187   */\n      mstore\n        /* \"#utility.yul\":6206:6210   */\n      0x24\n        /* \"#utility.yul\":6203:6204   */\n      0x00\n        /* \"#utility.yul\":6196:6211   */\n      revert\n        /* \"#utility.yul\":6223:6341   */\n    tag_88:\n        /* \"#utility.yul\":6310:6334   */\n      tag_181\n        /* \"#utility.yul\":6328:6333   */\n      dup2\n        /* \"#utility.yul\":6310:6334   */\n      tag_67\n      jump\t// in\n    tag_181:\n        /* \"#utility.yul\":6305:6308   */\n      dup3\n        /* \"#utility.yul\":6298:6335   */\n      mstore\n        /* \"#utility.yul\":6223:6341   */\n      pop\n      pop\n      jump\t// out\n        /* \"#utility.yul\":6347:6667   */\n    tag_35:\n        /* \"#utility.yul\":6462:6466   */\n      0x00\n        /* \"#utility.yul\":6500:6502   */\n      0x40\n        /* \"#utility.yul\":6489:6498   */\n      dup3\n        /* \"#utility.yul\":6485:6503   */\n      add\n        /* \"#utility.yul\":6477:6503   */\n      swap1\n      pop\n        /* \"#utility.yul\":6513:6584   */\n      tag_183\n        /* \"#utility.yul\":6581:6582   */\n      0x00\n        /* \"#utility.yul\":6570:6579   */\n      dup4\n        /* \"#utility.yul\":6566:6583   */\n      add\n        /* \"#utility.yul\":6557:6563   */\n      dup6\n        /* \"#utility.yul\":6513:6584   */\n      tag_88\n      jump\t// in\n    tag_183:\n        /* \"#utility.yul\":6594:6660   */\n      tag_184\n        /* \"#utility.yul\":6656:6658   */\n      0x20\n        /* \"#utility.yul\":6645:6654   */\n      dup4\n        /* \"#utility.yul\":6641:6659   */\n      add\n        /* \"#utility.yul\":6632:6638   */\n      dup5\n        /* \"#utility.yul\":6594:6660   */\n      tag_78\n      jump\t// in\n    tag_184:\n        /* \"#utility.yul\":6347:6667   */\n      swap4\n      swap3\n      pop\n      pop\n      pop\n      jump\t// out\n        /* \"#utility.yul\":6673:6853   */\n    tag_89:\n        /* \"#utility.yul\":6721:6798   */\n      0x4e487b7100000000000000000000000000000000000000000000000000000000\n        /* \"#utility.yul\":6718:6719   */\n      0x00\n        /* \"#utility.yul\":6711:6799   */\n      mstore\n        /* \"#utility.yul\":6818:6822   */\n      0x22\n        /* \"#utility.yul\":6815:6816   */\n      0x04\n        /* \"#utility.yul\":6808:6823   */\n      mstore\n        /* \"#utility.yul\":6842:6846   */\n      0x24\n        /* \"#utility.yul\":6839:6840   */\n      0x00\n        /* \"#utility.yul\":6832:6847   */\n      revert\n        /* \"#utility.yul\":6859:7179   */\n    tag_39:\n        /* \"#utility.yul\":6903:6909   */\n      0x00\n        /* \"#utility.yul\":6940:6941   */\n      0x02\n        /* \"#utility.yul\":6934:6938   */\n      dup3\n        /* \"#utility.yul\":6930:6942   */\n      div\n        /* \"#utility.yul\":6920:6942   */\n      swap1\n      pop\n        /* \"#utility.yul\":6987:6988   */\n      0x01\n        /* \"#utility.yul\":6981:6985   */\n      dup3\n        /* \"#utility.yul\":6977:6989   */\n      and\n        /* \"#utility.yul\":7008:7026   */\n      dup1\n        /* \"#utility.yul\":6998:7079   */\n      tag_187\n      jumpi\n        /* \"#utility.yul\":7064:7068   */\n      0x7f\n        /* \"#utility.yul\":7056:7062   */\n      dup3\n        /* \"#utility.yul\":7052:7069   */\n      and\n        /* \"#utility.yul\":7042:7069   */\n      swap2\n      pop\n        /* \"#utility.yul\":6998:7079   */\n    tag_187:\n        /* \"#utility.yul\":7126:7128   */\n      0x20\n        /* \"#utility.yul\":7118:7124   */\n      dup3\n        /* \"#utility.yul\":7115:7129   */\n      lt\n        /* \"#utility.yul\":7095:7113   */\n      dup2\n        /* \"#utility.yul\":7092:7130   */\n      sub\n        /* \"#utility.yul\":7089:7173   */\n      tag_188\n      jumpi\n        /* \"#utility.yul\":7145:7163   */\n      tag_189\n      tag_89\n      jump\t// in\n    tag_189:\n        /* \"#utility.yul\":7089:7173   */\n    tag_188:\n        /* \"#utility.yul\":6910:7179   */\n      pop\n        /* \"#utility.yul\":6859:7179   */\n      swap2\n      swap1\n      pop\n      jump\t// out\n        /* \"#utility.yul\":7185:7326   */\n    tag_90:\n        /* \"#utility.yul\":7234:7238   */\n      0x00\n        /* \"#utility.yul\":7257:7260   */\n      dup2\n        /* \"#utility.yul\":7249:7260   */\n      swap1\n      pop\n        /* \"#utility.yul\":7280:7283   */\n      dup2\n        /* \"#utility.yul\":7277:7278   */\n      0x00\n        /* \"#utility.yul\":7270:7284   */\n      mstore\n        /* \"#utility.yul\":7314:7318   */\n      0x20\n        /* \"#utility.yul\":7311:7312   */\n      0x00\n        /* \"#utility.yul\":7301:7319   */\n      keccak256\n        /* \"#utility.yul\":7293:7319   */\n      swap1\n      pop\n        /* \"#utility.yul\":7185:7326   */\n      swap2\n      swap1\n      pop\n      jump\t// out\n        /* \"#utility.yul\":7332:7425   */\n    tag_91:\n        /* \"#utility.yul\":7369:7375   */\n      0x00\n        /* \"#utility.yul\":7416:7418   */\n      0x20\n        /* \"#utility.yul\":7411:7413   */\n      0x1f\n        /* \"#utility.yul\":7404:7409   */\n      dup4\n        /* \"#utility.yul\":7400:7414   */\n      add\n        /* \"#utility.yul\":7396:7419   */\n      div\n        /* \"#utility.yul\":7386:7419   */\n      swap1\n      pop\n        /* \"#utility.yul\":7332:7425   */\n      swap2\n      swap1\n      pop\n      jump\t// out\n        /* \"#utility.yul\":7431:7538   */\n    tag_92:\n        /* \"#utility.yul\":7475:7483   */\n      0x00\n        /* \"#utility.yul\":7525:7530   */\n      dup3\n        /* \"#utility.yul\":7519:7523   */\n      dup3\n        /* \"#utility.yul\":7515:7531   */\n      shl\n        /* \"#utility.yul\":7494:7531   */\n      swap1\n      pop\n        /* \"#utility.yul\":7431:7538   */\n      swap3\n      swap2\n      pop\n      pop\n      jump\t// out\n        /* \"#utility.yul\":7544:7937   */\n    tag_93:\n        /* \"#utility.yul\":7613:7619   */\n      0x00\n        /* \"#utility.yul\":7663:7664   */\n      0x08\n        /* \"#utility.yul\":7651:7661   */\n      dup4\n        /* \"#utility.yul\":7647:7665   */\n      mul\n        /* \"#utility.yul\":7686:7783   */\n      tag_194\n        /* \"#utility.yul\":7716:7782   */\n      0xffffffffffffffffffffffffffffffffffffffffffffffffffffffffffffffff\n        /* \"#utility.yul\":7705:7714   */\n      dup3\n        /* \"#utility.yul\":7686:7783   */\n      tag_92\n      jump\t// in\n    tag_194:\n        /* \"#utility.yul\":7804:7843   */\n      tag_195\n        /* \"#utility.yul\":7834:7842   */\n      dup7\n        /* \"#utility.yul\":7823:7832   */\n      dup4\n        /* \"#utility.yul\":7804:7843   */\n      tag_92\n      jump\t// in\n    tag_195:\n        /* \"#utility.yul\":7792:7843   */\n      swap6\n      pop\n        /* \"#utility.yul\":7876:7880   */\n      dup1\n        /* \"#utility.yul\":7872:7881   */\n      not\n        /* \"#utility.yul\":7865:7870   */\n      dup5\n        /* \"#utility.yul\":7861:7882   */\n      and\n        /* \"#utility.yul\":7852:7882   */\n      swap4\n      pop\n        /* \"#utility.yul\":7925:7929   */\n      dup1\n        /* \"#utility.yul\":7915:7923   */\n      dup7\n        /* \"#utility.yul\":7911:7930   */\n      and\n        /* \"#utility.yul\":7904:7909   */\n      dup5\n        /* \"#utility.yul\":7901:7931   */\n      or\n        /* \"#utility.yul\":7891:7931   */\n      swap3\n      pop\n        /* \"#utility.yul\":7620:7937   */\n      pop\n      pop\n        /* \"#utility.yul\":7544:7937   */\n      swap4\n      swap3\n      pop\n      pop\n      pop\n      jump\t// out\n        /* \"#utility.yul\":7943:8003   */\n    tag_94:\n        /* \"#utility.yul\":7971:7974   */\n      0x00\n        /* \"#utility.yul\":7992:7997   */\n      dup2\n        /* \"#utility.yul\":7985:7997   */\n      swap1\n      pop\n        /* \"#utility.yul\":7943:8003   */\n      swap2\n      swap1\n      pop\n      jump\t// out\n        /* \"#utility.yul\":8009:8151   */\n    tag_95:\n        /* \"#utility.yul\":8059:8068   */\n      0x00\n        /* \"#utility.yul\":8092:8145   */\n      tag_198\n        /* \"#utility.yul\":8110:8144   */\n      tag_199\n        /* \"#utility.yul\":8119:8143   */\n      tag_200\n        /* \"#utility.yul\":8137:8142   */\n      dup5\n        /* \"#utility.yul\":8119:8143   */\n      tag_67\n      jump\t// in\n    tag_200:\n        /* \"#utility.yul\":8110:8144   */\n      tag_94\n      jump\t// in\n    tag_199:\n        /* \"#utility.yul\":8092:8145   */\n      tag_67\n      jump\t// in\n    tag_198:\n        /* \"#utility.yul\":8079:8145   */\n      swap1\n      pop\n        /* \"#utility.yul\":8009:8151   */\n      swap2\n      swap1\n      pop\n      jump\t// out\n        /* \"#utility.yul\":8157:8232   */\n    tag_96:\n        /* \"#utility.yul\":8200:8203   */\n      0x00\n        /* \"#utility.yul\":8221:8226   */\n      dup2\n        /* \"#utility.yul\":8214:8226   */\n      swap1\n      pop\n        /* \"#utility.yul\":8157:8232   */\n      swap2\n      swap1\n      pop\n      jump\t// out\n        /* \"#utility.yul\":8238:8507   */\n    tag_97:\n        /* \"#utility.yul\":8348:8387   */\n      tag_203\n        /* \"#utility.yul\":8379:8386   */\n      dup4\n        /* \"#utility.yul\":8348:8387   */\n      tag_95\n      jump\t// in\n    tag_203:\n        /* \"#utility.yul\":8409:8500   */\n      tag_204\n        /* \"#utility.yul\":8458:8499   */\n      tag_205\n        /* \"#utility.yul\":8482:8498   */\n      dup3\n        /* \"#utility.yul\":8458:8499   */\n      tag_96\n      jump\t// in\n    tag_205:\n        /* \"#utility.yul\":8450:8456   */\n      dup5\n        /* \"#utility.yul\":8443:8447   */\n      dup5\n        /* \"#utility.yul\":8437:8448   */\n      sload\n        /* \"#utility.yul\":8409:8500   */\n      tag_93\n      jump\t// in\n    tag_204:\n        /* \"#utility.yul\":8403:8407   */\n      dup3\n        /* \"#utility.yul\":8396:8501   */\n      sstore\n        /* \"#utility.yul\":8314:8507   */\n      pop\n        /* \"#utility.yul\":8238:8507   */\n      pop\n      pop\n      pop\n      jump\t// out\n        /* \"#utility.yul\":8513:8586   */\n    tag_98:\n        /* \"#utility.yul\":8558:8561   */\n      0x00\n        /* \"#utility.yul\":8513:8586   */\n      swap1\n      jump\t// out\n        /* \"#utility.yul\":8592:8781   */\n    tag_99:\n        /* \"#utility.yul\":8669:8701   */\n      tag_208\n      tag_98\n      jump\t// in\n    tag_208:\n        /* \"#utility.yul\":8710:8775   */\n      tag_209\n        /* \"#utility.yul\":8768:8774   */\n      dup2\n        /* \"#utility.yul\":8760:8766   */\n      dup5\n        /* \"#utility.yul\":8754:8758   */\n      dup5\n        /* \"#utility.yul\":8710:8775   */\n      tag_97\n      jump\t// in\n    tag_209:\n        /* \"#utility.yul\":8645:8781   */\n      pop\n        /* \"#utility.yul\":8592:8781   */\n      pop\n      pop\n      jump\t// out\n        /* \"#utility.yul\":8787:8973   */\n    tag_100:\n        /* \"#utility.yul\":8847:8967   */\n    tag_211:\n        /* \"#utility.yul\":8864:8867   */\n      dup2\n        /* \"#utility.yul\":8857:8862   */\n      dup2\n        /* \"#utility.yul\":8854:8868   */\n      lt\n        /* \"#utility.yul\":8847:8967   */\n      iszero\n      tag_213\n      jumpi\n        /* \"#utility.yul\":8918:8957   */\n      tag_214\n        /* \"#utility.yul\":8955:8956   */\n      0x00\n        /* \"#utility.yul\":8948:8953   */\n      dup3\n        /* \"#utility.yul\":8918:8957   */\n      tag_99\n      jump\t// in\n    tag_214:\n        /* \"#utility.yul\":8891:8892   */\n      0x01\n        /* \"#utility.yul\":8884:8889   */\n      dup2\n        /* \"#utility.yul\":8880:8893   */\n      add\n        /* \"#utility.yul\":8871:8893   */\n      swap1\n      pop\n        /* \"#utility.yul\":8847:8967   */\n      jump(tag_211)\n    tag_213:\n        /* \"#utility.yul\":8787:8973   */\n      pop\n      pop\n      jump\t// out\n        /* \"#utility.yul\":8979:9522   */\n    tag_101:\n        /* \"#utility.yul\":9080:9082   */\n      0x1f\n        /* \"#utility.yul\":9075:9078   */\n      dup3\n        /* \"#utility.yul\":9072:9083   */\n      gt\n        /* \"#utility.yul\":9069:9515   */\n      iszero\n      tag_216\n      jumpi\n        /* \"#utility.yul\":9114:9152   */\n      tag_217\n        /* \"#utility.yul\":9146:9151   */\n      dup2\n        /* \"#utility.yul\":9114:9152   */\n      tag_90\n      jump\t// in\n    tag_217:\n        /* \"#utility.yul\":9198:9227   */\n      tag_218\n        /* \"#utility.yul\":9216:9226   */\n      dup5\n        /* \"#utility.yul\":9198:9227   */\n      tag_91\n      jump\t// in\n    tag_218:\n        /* \"#utility.yul\":9188:9196   */\n      dup2\n        /* \"#utility.yul\":9184:9228   */\n      add\n        /* \"#utility.yul\":9381:9383   */\n      0x20\n        /* \"#utility.yul\":9369:9379   */\n      dup6\n        /* \"#utility.yul\":9366:9384   */\n      lt\n        /* \"#utility.yul\":9363:9412   */\n      iszero\n      tag_219\n      jumpi\n        /* \"#utility.yul\":9402:9410   */\n      dup2\n        /* \"#utility.yul\":9387:9410   */\n      swap1\n      pop\n        /* \"#utility.yul\":9363:9412   */\n    tag_219:\n        /* \"#utility.yul\":9425:9505   */\n      tag_220\n        /* \"#utility.yul\":9481:9503   */\n      tag_221\n        /* \"#utility.yul\":9499:9502   */\n      dup6\n        /* \"#utility.yul\":9481:9503   */\n      tag_91\n      jump\t// in\n    tag_221:\n        /* \"#utility.yul\":9471:9479   */\n      dup4\n        /* \"#utility.yul\":9467:9504   */\n      add\n        /* \"#utility.yul\":9454:9465   */\n      dup3\n        /* \"#utility.yul\":9425:9505   */\n      tag_100\n      jump\t// in\n    tag_220:\n        /* \"#utility.yul\":9084:9515   */\n      pop\n      pop\n        /* \"#utility.yul\":9069:9515   */\n    tag_216:\n        /* \"#utility.yul\":8979:9522   */\n      pop\n      pop\n      pop\n      jump\t// out\n        /* \"#utility.yul\":9528:9645   */\n    tag_102:\n        /* \"#utility.yul\":9582:9590   */\n      0x00\n        /* \"#utility.yul\":9632:9637   */\n      dup3\n        /* \"#utility.yul\":9626:9630   */\n      dup3\n        /* \"#utility.yul\":9622:9638   */\n      shr\n        /* \"#utility.yul\":9601:9638   */\n      swap1\n      pop\n        /* \"#utility.yul\":9528:9645   */\n      swap3\n      swap2\n      pop\n      pop\n      jump\t// out\n        /* \"#utility.yul\":9651:9820   */\n    tag_103:\n        /* \"#utility.yul\":9695:9701   */\n      0x00\n        /* \"#utility.yul\":9728:9779   */\n      tag_224\n        /* \"#utility.yul\":9776:9777   */\n      0x00\n        /* \"#utility.yul\":9772:9778   */\n      not\n        /* \"#utility.yul\":9764:9769   */\n      dup5\n        /* \"#utility.yul\":9761:9762   */\n      0x08\n        /* \"#utility.yul\":9757:9770   */\n      mul\n        /* \"#utility.yul\":9728:9779   */\n      tag_102\n      jump\t// in\n    tag_224:\n        /* \"#utility.yul\":9724:9780   */\n      not\n        /* \"#utility.yul\":9809:9813   */\n      dup1\n        /* \"#utility.yul\":9803:9807   */\n      dup4\n        /* \"#utility.yul\":9799:9814   */\n      and\n        /* \"#utility.yul\":9789:9814   */\n      swap2\n      pop\n        /* \"#utility.yul\":9702:9820   */\n      pop\n        /* \"#utility.yul\":9651:9820   */\n      swap3\n      swap2\n      pop\n      pop\n      jump\t// out\n        /* \"#utility.yul\":9825:10120   */\n    tag_104:\n        /* \"#utility.yul\":9901:9905   */\n      0x00\n        /* \"#utility.yul\":10047:10076   */\n      tag_226\n        /* \"#utility.yul\":10072:10075   */\n      dup4\n        /* \"#utility.yul\":10066:10070   */\n      dup4\n        /* \"#utility.yul\":10047:10076   */\n      tag_103\n      jump\t// in\n    tag_226:\n        /* \"#utility.yul\":10039:10076   */\n      swap2\n      pop\n        /* \"#utility.yul\":10109:10112   */\n      dup3\n        /* \"#utility.yul\":10106:10107   */\n      0x02\n        /* \"#utility.yul\":10102:10113   */\n      mul\n        /* \"#utility.yul\":10096:10100   */\n      dup3\n        /* \"#utility.yul\":10093:10114   */\n      or\n        /* \"#utility.yul\":10085:10114   */\n      swap1\n      pop\n        /* \"#utility.yul\":9825:10120   */\n      swap3\n      swap2\n      pop\n      pop\n      jump\t// out\n        /* \"#utility.yul\":10125:11520   */\n    tag_59:\n        /* \"#utility.yul\":10242:10279   */\n      tag_228\n        /* \"#utility.yul\":10275:10278   */\n      dup3\n        /* \"#utility.yul\":10242:10279   */\n      tag_73\n      jump\t// in\n    tag_228:\n        /* \"#utility.yul\":10344:10362   */\n      0xffffffffffffffff\n        /* \"#utility.yul\":10336:10342   */\n      dup2\n        /* \"#utility.yul\":10333:10363   */\n      gt\n        /* \"#utility.yul\":10330:10386   */\n      iszero\n      tag_229\n      jumpi\n        /* \"#utility.yul\":10366:10384   */\n      tag_230\n      tag_81\n      jump\t// in\n    tag_230:\n        /* \"#utility.yul\":10330:10386   */\n    tag_229:\n        /* \"#utility.yul\":10410:10448   */\n      tag_231\n        /* \"#utility.yul\":10442:10446   */\n      dup3\n        /* \"#utility.yul\":10436:10447   */\n      sload\n        /* \"#utility.yul\":10410:10448   */\n      tag_39\n      jump\t// in\n    tag_231:\n        /* \"#utility.yul\":10495:10562   */\n      tag_232\n        /* \"#utility.yul\":10555:10561   */\n      dup3\n        /* \"#utility.yul\":10547:10553   */\n      dup3\n        /* \"#utility.yul\":10541:10545   */\n      dup6\n        /* \"#utility.yul\":10495:10562   */\n      tag_101\n      jump\t// in\n    tag_232:\n        /* \"#utility.yul\":10589:10590   */\n      0x00\n        /* \"#utility.yul\":10613:10617   */\n      0x20\n        /* \"#utility.yul\":10600:10617   */\n      swap1\n      pop\n        /* \"#utility.yul\":10645:10647   */\n      0x1f\n        /* \"#utility.yul\":10637:10643   */\n      dup4\n        /* \"#utility.yul\":10634:10648   */\n      gt\n        /* \"#utility.yul\":10662:10663   */\n      0x01\n        /* \"#utility.yul\":10657:11275   */\n      dup2\n      eq\n      tag_234\n      jumpi\n        /* \"#utility.yul\":11319:11320   */\n      0x00\n        /* \"#utility.yul\":11336:11342   */\n      dup5\n        /* \"#utility.yul\":11333:11410   */\n      iszero\n      tag_235\n      jumpi\n        /* \"#utility.yul\":11385:11394   */\n      dup3\n        /* \"#utility.yul\":11380:11383   */\n      dup8\n        /* \"#utility.yul\":11376:11395   */\n      add\n        /* \"#utility.yul\":11370:11396   */\n      mload\n        /* \"#utility.yul\":11361:11396   */\n      swap1\n      pop\n        /* \"#utility.yul\":11333:11410   */\n    tag_235:\n        /* \"#utility.yul\":11436:11503   */\n      tag_236\n        /* \"#utility.yul\":11496:11502   */\n      dup6\n        /* \"#utility.yul\":11489:11494   */\n      dup3\n        /* \"#utility.yul\":11436:11503   */\n      tag_104\n      jump\t// in\n    tag_236:\n        /* \"#utility.yul\":11430:11434   */\n      dup7\n        /* \"#utility.yul\":11423:11504   */\n      sstore\n        /* \"#utility.yul\":11292:11514   */\n      pop\n        /* \"#utility.yul\":10627:11514   */\n      jump(tag_233)\n        /* \"#utility.yul\":10657:11275   */\n    tag_234:\n        /* \"#utility.yul\":10709:10713   */\n      0x1f\n        /* \"#utility.yul\":10705:10714   */\n      not\n        /* \"#utility.yul\":10697:10703   */\n      dup5\n        /* \"#utility.yul\":10693:10715   */\n      and\n        /* \"#utility.yul\":10743:10780   */\n      tag_237\n        /* \"#utility.yul\":10775:10779   */\n      dup7\n        /* \"#utility.yul\":10743:10780   */\n      tag_90\n      jump\t// in\n    tag_237:\n        /* \"#utility.yul\":10802:10803   */\n      0x00\n        /* \"#utility.yul\":10816:11024   */\n    tag_238:\n        /* \"#utility.yul\":10830:10837   */\n      dup3\n        /* \"#utility.yul\":10827:10828   */\n      dup2\n        /* \"#utility.yul\":10824:10838   */\n      lt\n        /* \"#utility.yul\":10816:11024   */\n      iszero\n      tag_240\n      jumpi\n        /* \"#utility.yul\":10909:10918   */\n      dup5\n        /* \"#utility.yul\":10904:10907   */\n      dup10\n        /* \"#utility.yul\":10900:10919   */\n      add\n        /* \"#utility.yul\":10894:10920   */\n      mload\n        /* \"#utility.yul\":10886:10892   */\n      dup3\n        /* \"#utility.yul\":10879:10921   */\n      sstore\n        /* \"#utility.yul\":10960:10961   */\n      0x01\n        /* \"#utility.yul\":10952:10958   */\n      dup3\n        /* \"#utility.yul\":10948:10962   */\n      add\n        /* \"#utility.yul\":10938:10962   */\n      swap2\n      pop\n        /* \"#utility.yul\":11007:11009   */\n      0x20\n        /* \"#utility.yul\":10996:11005   */\n      dup6\n        /* \"#utility.yul\":10992:11010   */\n      add\n        /* \"#utility.yul\":10979:11010   */\n      swap5\n      pop\n        /* \"#utility.yul\":10853:10857   */\n      0x20\n        /* \"#utility.yul\":10850:10851   */\n      dup2\n        /* \"#utility.yul\":10846:10858   */\n      add\n        /* \"#utility.yul\":10841:10858   */\n      swap1\n      pop\n        /* \"#utility.yul\":10816:11024   */\n      jump(tag_238)\n    tag_240:\n        /* \"#utility.yul\":11052:11058   */\n      dup7\n        /* \"#utility.yul\":11043:11050   */\n      dup4\n        /* \"#utility.yul\":11040:11059   */\n      lt\n        /* \"#utility.yul\":11037:11216   */\n      iszero\n      tag_241\n      jumpi\n        /* \"#utility.yul\":11110:11119   */\n      dup5\n        /* \"#utility.yul\":11105:11108   */\n      dup10\n        /* \"#utility.yul\":11101:11120   */\n      add\n        /* \"#utility.yul\":11095:11121   */\n      mload\n        /* \"#utility.yul\":11153:11201   */\n      tag_242\n        /* \"#utility.yul\":11195:11199   */\n      0x1f\n        /* \"#utility.yul\":11187:11193   */\n      dup10\n        /* \"#utility.yul\":11183:11200   */\n      and\n        /* \"#utility.yul\":11172:11181   */\n      dup3\n        /* \"#utility.yul\":11153:11201   */\n      tag_103\n      jump\t// in\n    tag_242:\n        /* \"#utility.yul\":11145:11151   */\n      dup4\n        /* \"#utility.yul\":11138:11202   */\n      sstore\n        /* \"#utility.yul\":11060:11216   */\n      pop\n        /* \"#utility.yul\":11037:11216   */\n    tag_241:\n        /* \"#utility.yul\":11262:11263   */\n      0x01\n        /* \"#utility.yul\":11258:11259   */\n      0x02\n        /* \"#utility.yul\":11250:11256   */\n      dup9\n        /* \"#utility.yul\":11246:11260   */\n      mul\n        /* \"#utility.yul\":11242:11264   */\n      add\n        /* \"#utility.yul\":11236:11240   */\n      dup9\n        /* \"#utility.yul\":11229:11265   */\n      sstore\n        /* \"#utility.yul\":10664:11275   */\n      pop\n      pop\n      pop\n        /* \"#utility.yul\":10627:11514   */\n    tag_233:\n      pop\n        /* \"#utility.yul\":10217:11520   */\n      pop\n      pop\n      pop\n        /* \"#utility.yul\":10125:11520   */\n      pop\n      pop\n      jump\t// out\n        /* \"#utility.yul\":11526:11706   */\n    tag_105:\n        /* \"#utility.yul\":11574:11651   */\n      0x4e487b7100000000000000000000000000000000000000000000000000000000\n        /* \"#utility.yul\":11571:11572   */\n      0x00\n        /* \"#utility.yul\":11564:11652   */\n      mstore\n        /* \"#utility.yul\":11671:11675   */\n      0x11\n        /* \"#utility.yul\":11668:11669   */\n      0x04\n        /* \"#utility.yul\":11661:11676   */\n      mstore\n        /* \"#utility.yul\":11695:11699   */\n      0x24\n        /* \"#utility.yul\":11692:11693   */\n      0x00\n        /* \"#utility.yul\":11685:11700   */\n      revert\n        /* \"#utility.yul\":11712:11906   */\n    tag_61:\n        /* \"#utility.yul\":11752:11756   */\n      0x00\n        /* \"#utility.yul\":11772:11792   */\n      tag_245\n        /* \"#utility.yul\":11790:11791   */\n      dup3\n        /* \"#utility.yul\":11772:11792   */\n      tag_67\n      jump\t// in\n    tag_245:\n        /* \"#utility.yul\":11767:11792   */\n      swap2\n      pop\n        /* \"#utility.yul\":11806:11826   */\n      tag_246\n        /* \"#utility.yul\":11824:11825   */\n      dup4\n        /* \"#utility.yul\":11806:11826   */\n      tag_67\n      jump\t// in\n    tag_246:\n        /* \"#utility.yul\":11801:11826   */\n      swap3\n      pop\n        /* \"#utility.yul\":11850:11851   */\n      dup3\n        /* \"#utility.yul\":11847:11848   */\n      dup3\n        /* \"#utility.yul\":11843:11852   */\n      sub\n        /* \"#utility.yul\":11835:11852   */\n      swap1\n      pop\n        /* \"#utility.yul\":11874:11875   */\n      dup2\n        /* \"#utility.yul\":11868:11872   */\n      dup2\n        /* \"#utility.yul\":11865:11876   */\n      gt\n        /* \"#utility.yul\":11862:11899   */\n      iszero\n      tag_247\n      jumpi\n        /* \"#utility.yul\":11879:11897   */\n      tag_248\n      tag_105\n      jump\t// in\n    tag_248:\n        /* \"#utility.yul\":11862:11899   */\n    tag_247:\n        /* \"#utility.yul\":11712:11906   */\n      swap3\n      swap2\n      pop\n      pop\n      jump\t// out\n        /* \"#utility.yul\":11912:12433   */\n    tag_63:\n        /* \"#utility.yul\":12075:12079   */\n      0x00\n        /* \"#utility.yul\":12113:12115   */\n      0x60\n        /* \"#utility.yul\":12102:12111   */\n      dup3\n        /* \"#utility.yul\":12098:12116   */\n      add\n        /* \"#utility.yul\":12090:12116   */\n      swap1\n      pop\n        /* \"#utility.yul\":12126:12197   */\n      tag_250\n        /* \"#utility.yul\":12194:12195   */\n      0x00\n        /* \"#utility.yul\":12183:12192   */\n      dup4\n        /* \"#utility.yul\":12179:12196   */\n      add\n        /* \"#utility.yul\":12170:12176   */\n      dup7\n        /* \"#utility.yul\":12126:12197   */\n      tag_88\n      jump\t// in\n    tag_250:\n        /* \"#utility.yul\":12244:12253   */\n      dup2\n        /* \"#utility.yul\":12238:12242   */\n      dup2\n        /* \"#utility.yul\":12234:12254   */\n      sub\n        /* \"#utility.yul\":12229:12231   */\n      0x20\n        /* \"#utility.yul\":12218:12227   */\n      dup4\n        /* \"#utility.yul\":12214:12232   */\n      add\n        /* \"#utility.yul\":12207:12255   */\n      mstore\n        /* \"#utility.yul\":12272:12350   */\n      tag_251\n        /* \"#utility.yul\":12345:12349   */\n      dup2\n        /* \"#utility.yul\":12336:12342   */\n      dup6\n        /* \"#utility.yul\":12272:12350   */\n      tag_77\n      jump\t// in\n    tag_251:\n        /* \"#utility.yul\":12264:12350   */\n      swap1\n      pop\n        /* \"#utility.yul\":12360:12426   */\n      tag_252\n        /* \"#utility.yul\":12422:12424   */\n      0x40\n        /* \"#utility.yul\":12411:12420   */\n      dup4\n        /* \"#utility.yul\":12407:12425   */\n      add\n        /* \"#utility.yul\":12398:12404   */\n      dup5\n        /* \"#utility.yul\":12360:12426   */\n      tag_78\n      jump\t// in\n    tag_252:\n        /* \"#utility.yul\":11912:12433   */\n      swap5\n      swap4\n      pop\n      pop\n      pop\n      pop\n      jump\t// out\n\n    auxdata: 0xa2646970667358221220fc4647c73e0c27d77e5673403c80d5a77f8f21b1964b89a1ca9daebbf128d9d264736f6c63430008130033\n}\n",
				"bytecode": {
					"linkReferences": {},
					"object": "608060405234801561001057600080fd5b50610b75806100206000396000f3fe608060405234801561001057600080fd5b50600436106100575760003560e01c806341c0e1b51461005c57806348284b62146100665780638d977672146100825780639507d39a146100b3578063b6a46b3b146100e4575b600080fd5b610064610100565b005b610080600480360381019061007b919061049f565b610119565b005b61009c600480360381019061009791906104df565b610193565b6040516100aa9291906105ab565b60405180910390f35b6100cd60048036038101906100c891906104df565b61025c565b6040516100db9291906105ab565b60405180910390f35b6100fe60048036038101906100f99190610710565b61034c565b005b3373ffffffffffffffffffffffffffffffffffffffff16ff5b806000838154811061012e5761012d610759565b5b906000526020600020906002020160010160006101000a81548160ff0219169083151502179055507f40f4ecd2923438fa255c9ec921b119ae150358907bbc9ba7d5c34bf9c151b6ac8282604051610187929190610797565b60405180910390a15050565b600081815481106101a357600080fd5b90600052602060002090600202016000915090508060000180546101c6906107ef565b80601f01602080910402602001604051908101604052809291908181526020018280546101f2906107ef565b801561023f5780601f106102145761010080835404028352916020019161023f565b820191906000526020600020905b81548152906001019060200180831161022257829003601f168201915b5050505050908060010160009054906101000a900460ff16905082565b6060600080838154811061027357610272610759565b5b90600052602060002090600202016000016000848154811061029857610297610759565b5b906000526020600020906002020160010160009054906101000a900460ff168180546102c3906107ef565b80601f01602080910402602001604051908101604052809291908181526020018280546102ef906107ef565b801561033c5780601f106103115761010080835404028352916020019161033c565b820191906000526020600020905b81548152906001019060200180831161031f57829003601f168201915b5050505050915091509150915091565b6000604051806040016040528083815260200160001515815250908060018154018082558091505060019003906000526020600020906002020160009091909190915060008201518160000190816103a491906109cc565b5060208201518160010160006101000a81548160ff0219169083151502179055505050600060016000805490506103db9190610acd565b90507f8de7fcf423c3be88a1d33619458254be5a02866653e3209631248661ba7db8818183600060405161041193929190610b01565b60405180910390a15050565b6000604051905090565b600080fd5b600080fd5b6000819050919050565b61044481610431565b811461044f57600080fd5b50565b6000813590506104618161043b565b92915050565b60008115159050919050565b61047c81610467565b811461048757600080fd5b50565b60008135905061049981610473565b92915050565b600080604083850312156104b6576104b5610427565b5b60006104c485828601610452565b92505060206104d58582860161048a565b9150509250929050565b6000602082840312156104f5576104f4610427565b5b600061050384828501610452565b91505092915050565b600081519050919050565b600082825260208201905092915050565b60005b8381101561054657808201518184015260208101905061052b565b60008484015250505050565b6000601f19601f8301169050919050565b600061056e8261050c565b6105788185610517565b9350610588818560208601610528565b61059181610552565b840191505092915050565b6105a581610467565b82525050565b600060408201905081810360008301526105c58185610563565b90506105d4602083018461059c565b9392505050565b600080fd5b600080fd5b7f4e487b7100000000000000000000000000000000000000000000000000000000600052604160045260246000fd5b61061d82610552565b810181811067ffffffffffffffff8211171561063c5761063b6105e5565b5b80604052505050565b600061064f61041d565b905061065b8282610614565b919050565b600067ffffffffffffffff82111561067b5761067a6105e5565b5b61068482610552565b9050602081019050919050565b82818337600083830152505050565b60006106b36106ae84610660565b610645565b9050828152602081018484840111156106cf576106ce6105e0565b5b6106da848285610691565b509392505050565b600082601f8301126106f7576106f66105db565b5b81356107078482602086016106a0565b91505092915050565b60006020828403121561072657610725610427565b5b600082013567ffffffffffffffff8111156107445761074361042c565b5b610750848285016106e2565b91505092915050565b7f4e487b7100000000000000000000000000000000000000000000000000000000600052603260045260246000fd5b61079181610431565b82525050565b60006040820190506107ac6000830185610788565b6107b9602083018461059c565b9392505050565b7f4e487b7100000000000000000000000000000000000000000000000000000000600052602260045260246000fd5b6000600282049050600182168061080757607f821691505b60208210810361081a576108196107c0565b5b50919050565b60008190508160005260206000209050919050565b60006020601f8301049050919050565b600082821b905092915050565b6000600883026108827fffffffffffffffffffffffffffffffffffffffffffffffffffffffffffffffff82610845565b61088c8683610845565b95508019841693508086168417925050509392505050565b6000819050919050565b60006108c96108c46108bf84610431565b6108a4565b610431565b9050919050565b6000819050919050565b6108e3836108ae565b6108f76108ef826108d0565b848454610852565b825550505050565b600090565b61090c6108ff565b6109178184846108da565b505050565b5b8181101561093b57610930600082610904565b60018101905061091d565b5050565b601f8211156109805761095181610820565b61095a84610835565b81016020851015610969578190505b61097d61097585610835565b83018261091c565b50505b505050565b600082821c905092915050565b60006109a360001984600802610985565b1980831691505092915050565b60006109bc8383610992565b9150826002028217905092915050565b6109d58261050c565b67ffffffffffffffff8111156109ee576109ed6105e5565b5b6109f882546107ef565b610a0382828561093f565b600060209050601f831160018114610a365760008415610a24578287015190505b610a2e85826109b0565b865550610a96565b601f198416610a4486610820565b60005b82811015610a6c57848901518255600182019150602085019450602081019050610a47565b86831015610a895784890151610a85601f891682610992565b8355505b6001600288020188555050505b505050505050565b7f4e487b7100000000000000000000000000000000000000000000000000000000600052601160045260246000fd5b6000610ad882610431565b9150610ae383610431565b9250828203905081811115610afb57610afa610a9e565b5b92915050565b6000606082019050610b166000830186610788565b8181036020830152610b288185610563565b9050610b37604083018461059c565b94935050505056fea2646970667358221220fc4647c73e0c27d77e5673403c80d5a77f8f21b1964b89a1ca9daebbf128d9d264736f6c63430008130033",
					"opcodes": "PUSH1 0x80 PUSH1 0x40 MSTORE CALLVALUE DUP1 ISZERO PUSH2 0x10 JUMPI PUSH1 0x0 DUP1 REVERT JUMPDEST POP PUSH2 0xB75 DUP1 PUSH2 0x20 PUSH1 0x0 CODECOPY PUSH1 0x0 RETURN INVALID PUSH1 0x80 PUSH1 0x40 MSTORE CALLVALUE DUP1 ISZERO PUSH2 0x10 JUMPI PUSH1 0x0 DUP1 REVERT JUMPDEST POP PUSH1 0x4 CALLDATASIZE LT PUSH2 0x57 JUMPI PUSH1 0x0 CALLDATALOAD PUSH1 0xE0 SHR DUP1 PUSH4 0x41C0E1B5 EQ PUSH2 0x5C JUMPI DUP1 PUSH4 0x48284B62 EQ PUSH2 0x66 JUMPI DUP1 PUSH4 0x8D977672 EQ PUSH2 0x82 JUMPI DUP1 PUSH4 0x9507D39A EQ PUSH2 0xB3 JUMPI DUP1 PUSH4 0xB6A46B3B EQ PUSH2 0xE4 JUMPI JUMPDEST PUSH1 0x0 DUP1 REVERT JUMPDEST PUSH2 0x64 PUSH2 0x100 JUMP JUMPDEST STOP JUMPDEST PUSH2 0x80 PUSH1 0x4 DUP1 CALLDATASIZE SUB DUP2 ADD SWAP1 PUSH2 0x7B SWAP2 SWAP1 PUSH2 0x49F JUMP JUMPDEST PUSH2 0x119 JUMP JUMPDEST STOP JUMPDEST PUSH2 0x9C PUSH1 0x4 DUP1 CALLDATASIZE SUB DUP2 ADD SWAP1 PUSH2 0x97 SWAP2 SWAP1 PUSH2 0x4DF JUMP JUMPDEST PUSH2 0x193 JUMP JUMPDEST PUSH1 0x40 MLOAD PUSH2 0xAA SWAP3 SWAP2 SWAP1 PUSH2 0x5AB JUMP JUMPDEST PUSH1 0x40 MLOAD DUP1 SWAP2 SUB SWAP1 RETURN JUMPDEST PUSH2 0xCD PUSH1 0x4 DUP1 CALLDATASIZE SUB DUP2 ADD SWAP1 PUSH2 0xC8 SWAP2 SWAP1 PUSH2 0x4DF JUMP JUMPDEST PUSH2 0x25C JUMP JUMPDEST PUSH1 0x40 MLOAD PUSH2 0xDB SWAP3 SWAP2 SWAP1 PUSH2 0x5AB JUMP JUMPDEST PUSH1 0x40 MLOAD DUP1 SWAP2 SUB SWAP1 RETURN JUMPDEST PUSH2 0xFE PUSH1 0x4 DUP1 CALLDATASIZE SUB DUP2 ADD SWAP1 PUSH2 0xF9 SWAP2 SWAP1 PUSH2 0x710 JUMP JUMPDEST PUSH2 0x34C JUMP JUMPDEST STOP JUMPDEST CALLER PUSH20 0xFFFFFFFFFFFFFFFFFFFFFFFFFFFFFFFFFFFFFFFF AND SELFDESTRUCT JUMPDEST DUP1 PUSH1 0x0 DUP4 DUP2 SLOAD DUP2 LT PUSH2 0x12E JUMPI PUSH2 0x12D PUSH2 0x759 JUMP JUMPDEST JUMPDEST SWAP1 PUSH1 0x0 MSTORE PUSH1 0x20 PUSH1 0x0 KECCAK256 SWAP1 PUSH1 0x2 MUL ADD PUSH1 0x1 ADD PUSH1 0x0 PUSH2 0x100 EXP DUP2 SLOAD DUP2 PUSH1 0xFF MUL NOT AND SWAP1 DUP4 ISZERO ISZERO MUL OR SWAP1 SSTORE POP PUSH32 0x40F4ECD2923438FA255C9EC921B119AE150358907BBC9BA7D5C34BF9C151B6AC DUP3 DUP3 PUSH1 0x40 MLOAD PUSH2 0x187 SWAP3 SWAP2 SWAP1 PUSH2 0x797 JUMP JUMPDEST PUSH1 0x40 MLOAD DUP1 SWAP2 SUB SWAP1 LOG1 POP POP JUMP JUMPDEST PUSH1 0x0 DUP2 DUP2 SLOAD DUP2 LT PUSH2 0x1A3 JUMPI PUSH1 0x0 DUP1 REVERT JUMPDEST SWAP1 PUSH1 0x0 MSTORE PUSH1 0x20 PUSH1 0x0 KECCAK256 SWAP1 PUSH1 0x2 MUL ADD PUSH1 0x0 SWAP2 POP SWAP1 POP DUP1 PUSH1 0x0 ADD DUP1 SLOAD PUSH2 0x1C6 SWAP1 PUSH2 0x7EF JUMP JUMPDEST DUP1 PUSH1 0x1F ADD PUSH1 0x20 DUP1 SWAP2 DIV MUL PUSH1 0x20 ADD PUSH1 0x40 MLOAD SWAP1 DUP2 ADD PUSH1 0x40 MSTORE DUP1 SWAP3 SWAP2 SWAP1 DUP2 DUP2 MSTORE PUSH1 0x20 ADD DUP3 DUP1 SLOAD PUSH2 0x1F2 SWAP1 PUSH2 0x7EF JUMP JUMPDEST DUP1 ISZERO PUSH2 0x23F JUMPI DUP1 PUSH1 0x1F LT PUSH2 0x214 JUMPI PUSH2 0x100 DUP1 DUP4 SLOAD DIV MUL DUP4 MSTORE SWAP2 PUSH1 0x20 ADD SWAP2 PUSH2 0x23F JUMP JUMPDEST DUP3 ADD SWAP2 SWAP1 PUSH1 0x0 MSTORE PUSH1 0x20 PUSH1 0x0 KECCAK256 SWAP1 JUMPDEST DUP2 SLOAD DUP2 MSTORE SWAP1 PUSH1 0x1 ADD SWAP1 PUSH1 0x20 ADD DUP1 DUP4 GT PUSH2 0x222 JUMPI DUP3 SWAP1 SUB PUSH1 0x1F AND DUP3 ADD SWAP2 JUMPDEST POP POP POP POP POP SWAP1 DUP1 PUSH1 0x1 ADD PUSH1 0x0 SWAP1 SLOAD SWAP1 PUSH2 0x100 EXP SWAP1 DIV PUSH1 0xFF AND SWAP1 POP DUP3 JUMP JUMPDEST PUSH1 0x60 PUSH1 0x0 DUP1 DUP4 DUP2 SLOAD DUP2 LT PUSH2 0x273 JUMPI PUSH2 0x272 PUSH2 0x759 JUMP JUMPDEST JUMPDEST SWAP1 PUSH1 0x0 MSTORE PUSH1 0x20 PUSH1 0x0 KECCAK256 SWAP1 PUSH1 0x2 MUL ADD PUSH1 0x0 ADD PUSH1 0x0 DUP5 DUP2 SLOAD DUP2 LT PUSH2 0x298 JUMPI PUSH2 0x297 PUSH2 0x759 JUMP JUMPDEST JUMPDEST SWAP1 PUSH1 0x0 MSTORE PUSH1 0x20 PUSH1 0x0 KECCAK256 SWAP1 PUSH1 0x2 MUL ADD PUSH1 0x1 ADD PUSH1 0x0 SWAP1 SLOAD SWAP1 PUSH2 0x100 EXP SWAP1 DIV PUSH1 0xFF AND DUP2 DUP1 SLOAD PUSH2 0x2C3 SWAP1 PUSH2 0x7EF JUMP JUMPDEST DUP1 PUSH1 0x1F ADD PUSH1 0x20 DUP1 SWAP2 DIV MUL PUSH1 0x20 ADD PUSH1 0x40 MLOAD SWAP1 DUP2 ADD PUSH1 0x40 MSTORE DUP1 SWAP3 SWAP2 SWAP1 DUP2 DUP2 MSTORE PUSH1 0x20 ADD DUP3 DUP1 SLOAD PUSH2 0x2EF SWAP1 PUSH2 0x7EF JUMP JUMPDEST DUP1 ISZERO PUSH2 0x33C JUMPI DUP1 PUSH1 0x1F LT PUSH2 0x311 JUMPI PUSH2 0x100 DUP1 DUP4 SLOAD DIV MUL DUP4 MSTORE SWAP2 PUSH1 0x20 ADD SWAP2 PUSH2 0x33C JUMP JUMPDEST DUP3 ADD SWAP2 SWAP1 PUSH1 0x0 MSTORE PUSH1 0x20 PUSH1 0x0 KECCAK256 SWAP1 JUMPDEST DUP2 SLOAD DUP2 MSTORE SWAP1 PUSH1 0x1 ADD SWAP1 PUSH1 0x20 ADD DUP1 DUP4 GT PUSH2 0x31F JUMPI DUP3 SWAP1 SUB PUSH1 0x1F AND DUP3 ADD SWAP2 JUMPDEST POP POP POP POP POP SWAP2 POP SWAP2 POP SWAP2 POP SWAP2 POP SWAP2 JUMP JUMPDEST PUSH1 0x0 PUSH1 0x40 MLOAD DUP1 PUSH1 0x40 ADD PUSH1 0x40 MSTORE DUP1 DUP4 DUP2 MSTORE PUSH1 0x20 ADD PUSH1 0x0 ISZERO ISZERO DUP2 MSTORE POP SWAP1 DUP1 PUSH1 0x1 DUP2 SLOAD ADD DUP1 DUP3 SSTORE DUP1 SWAP2 POP POP PUSH1 0x1 SWAP1 SUB SWAP1 PUSH1 0x0 MSTORE PUSH1 0x20 PUSH1 0x0 KECCAK256 SWAP1 PUSH1 0x2 MUL ADD PUSH1 0x0 SWAP1 SWAP2 SWAP1 SWAP2 SWAP1 SWAP2 POP PUSH1 0x0 DUP3 ADD MLOAD DUP2 PUSH1 0x0 ADD SWAP1 DUP2 PUSH2 0x3A4 SWAP2 SWAP1 PUSH2 0x9CC JUMP JUMPDEST POP PUSH1 0x20 DUP3 ADD MLOAD DUP2 PUSH1 0x1 ADD PUSH1 0x0 PUSH2 0x100 EXP DUP2 SLOAD DUP2 PUSH1 0xFF MUL NOT AND SWAP1 DUP4 ISZERO ISZERO MUL OR SWAP1 SSTORE POP POP POP PUSH1 0x0 PUSH1 0x1 PUSH1 0x0 DUP1 SLOAD SWAP1 POP PUSH2 0x3DB SWAP2 SWAP1 PUSH2 0xACD JUMP JUMPDEST SWAP1 POP PUSH32 0x8DE7FCF423C3BE88A1D33619458254BE5A02866653E3209631248661BA7DB881 DUP2 DUP4 PUSH1 0x0 PUSH1 0x40 MLOAD PUSH2 0x411 SWAP4 SWAP3 SWAP2 SWAP1 PUSH2 0xB01 JUMP JUMPDEST PUSH1 0x40 MLOAD DUP1 SWAP2 SUB SWAP1 LOG1 POP POP JUMP JUMPDEST PUSH1 0x0 PUSH1 0x40 MLOAD SWAP1 POP SWAP1 JUMP JUMPDEST PUSH1 0x0 DUP1 REVERT JUMPDEST PUSH1 0x0 DUP1 REVERT JUMPDEST PUSH1 0x0 DUP2 SWAP1 POP SWAP2 SWAP1 POP JUMP JUMPDEST PUSH2 0x444 DUP2 PUSH2 0x431 JUMP JUMPDEST DUP2 EQ PUSH2 0x44F JUMPI PUSH1 0x0 DUP1 REVERT JUMPDEST POP JUMP JUMPDEST PUSH1 0x0 DUP2 CALLDATALOAD SWAP1 POP PUSH2 0x461 DUP2 PUSH2 0x43B JUMP JUMPDEST SWAP3 SWAP2 POP POP JUMP JUMPDEST PUSH1 0x0 DUP2 ISZERO ISZERO SWAP1 POP SWAP2 SWAP1 POP JUMP JUMPDEST PUSH2 0x47C DUP2 PUSH2 0x467 JUMP JUMPDEST DUP2 EQ PUSH2 0x487 JUMPI PUSH1 0x0 DUP1 REVERT JUMPDEST POP JUMP JUMPDEST PUSH1 0x0 DUP2 CALLDATALOAD SWAP1 POP PUSH2 0x499 DUP2 PUSH2 0x473 JUMP JUMPDEST SWAP3 SWAP2 POP POP JUMP JUMPDEST PUSH1 0x0 DUP1 PUSH1 0x40 DUP4 DUP6 SUB SLT ISZERO PUSH2 0x4B6 JUMPI PUSH2 0x4B5 PUSH2 0x427 JUMP JUMPDEST JUMPDEST PUSH1 0x0 PUSH2 0x4C4 DUP6 DUP3 DUP7 ADD PUSH2 0x452 JUMP JUMPDEST SWAP3 POP POP PUSH1 0x20 PUSH2 0x4D5 DUP6 DUP3 DUP7 ADD PUSH2 0x48A JUMP JUMPDEST SWAP2 POP POP SWAP3 POP SWAP3 SWAP1 POP JUMP JUMPDEST PUSH1 0x0 PUSH1 0x20 DUP3 DUP5 SUB SLT ISZERO PUSH2 0x4F5 JUMPI PUSH2 0x4F4 PUSH2 0x427 JUMP JUMPDEST JUMPDEST PUSH1 0x0 PUSH2 0x503 DUP5 DUP3 DUP6 ADD PUSH2 0x452 JUMP JUMPDEST SWAP2 POP POP SWAP3 SWAP2 POP POP JUMP JUMPDEST PUSH1 0x0 DUP2 MLOAD SWAP1 POP SWAP2 SWAP1 POP JUMP JUMPDEST PUSH1 0x0 DUP3 DUP3 MSTORE PUSH1 0x20 DUP3 ADD SWAP1 POP SWAP3 SWAP2 POP POP JUMP JUMPDEST PUSH1 0x0 JUMPDEST DUP4 DUP2 LT ISZERO PUSH2 0x546 JUMPI DUP1 DUP3 ADD MLOAD DUP2 DUP5 ADD MSTORE PUSH1 0x20 DUP2 ADD SWAP1 POP PUSH2 0x52B JUMP JUMPDEST PUSH1 0x0 DUP5 DUP5 ADD MSTORE POP POP POP POP JUMP JUMPDEST PUSH1 0x0 PUSH1 0x1F NOT PUSH1 0x1F DUP4 ADD AND SWAP1 POP SWAP2 SWAP1 POP JUMP JUMPDEST PUSH1 0x0 PUSH2 0x56E DUP3 PUSH2 0x50C JUMP JUMPDEST PUSH2 0x578 DUP2 DUP6 PUSH2 0x517 JUMP JUMPDEST SWAP4 POP PUSH2 0x588 DUP2 DUP6 PUSH1 0x20 DUP7 ADD PUSH2 0x528 JUMP JUMPDEST PUSH2 0x591 DUP2 PUSH2 0x552 JUMP JUMPDEST DUP5 ADD SWAP2 POP POP SWAP3 SWAP2 POP POP JUMP JUMPDEST PUSH2 0x5A5 DUP2 PUSH2 0x467 JUMP JUMPDEST DUP3 MSTORE POP POP JUMP JUMPDEST PUSH1 0x0 PUSH1 0x40 DUP3 ADD SWAP1 POP DUP2 DUP2 SUB PUSH1 0x0 DUP4 ADD MSTORE PUSH2 0x5C5 DUP2 DUP6 PUSH2 0x563 JUMP JUMPDEST SWAP1 POP PUSH2 0x5D4 PUSH1 0x20 DUP4 ADD DUP5 PUSH2 0x59C JUMP JUMPDEST SWAP4 SWAP3 POP POP POP JUMP JUMPDEST PUSH1 0x0 DUP1 REVERT JUMPDEST PUSH1 0x0 DUP1 REVERT JUMPDEST PUSH32 0x4E487B7100000000000000000000000000000000000000000000000000000000 PUSH1 0x0 MSTORE PUSH1 0x41 PUSH1 0x4 MSTORE PUSH1 0x24 PUSH1 0x0 REVERT JUMPDEST PUSH2 0x61D DUP3 PUSH2 0x552 JUMP JUMPDEST DUP2 ADD DUP2 DUP2 LT PUSH8 0xFFFFFFFFFFFFFFFF DUP3 GT OR ISZERO PUSH2 0x63C JUMPI PUSH2 0x63B PUSH2 0x5E5 JUMP JUMPDEST JUMPDEST DUP1 PUSH1 0x40 MSTORE POP POP POP JUMP JUMPDEST PUSH1 0x0 PUSH2 0x64F PUSH2 0x41D JUMP JUMPDEST SWAP1 POP PUSH2 0x65B DUP3 DUP3 PUSH2 0x614 JUMP JUMPDEST SWAP2 SWAP1 POP JUMP JUMPDEST PUSH1 0x0 PUSH8 0xFFFFFFFFFFFFFFFF DUP3 GT ISZERO PUSH2 0x67B JUMPI PUSH2 0x67A PUSH2 0x5E5 JUMP JUMPDEST JUMPDEST PUSH2 0x684 DUP3 PUSH2 0x552 JUMP JUMPDEST SWAP1 POP PUSH1 0x20 DUP2 ADD SWAP1 POP SWAP2 SWAP1 POP JUMP JUMPDEST DUP3 DUP2 DUP4 CALLDATACOPY PUSH1 0x0 DUP4 DUP4 ADD MSTORE POP POP POP JUMP JUMPDEST PUSH1 0x0 PUSH2 0x6B3 PUSH2 0x6AE DUP5 PUSH2 0x660 JUMP JUMPDEST PUSH2 0x645 JUMP JUMPDEST SWAP1 POP DUP3 DUP2 MSTORE PUSH1 0x20 DUP2 ADD DUP5 DUP5 DUP5 ADD GT ISZERO PUSH2 0x6CF JUMPI PUSH2 0x6CE PUSH2 0x5E0 JUMP JUMPDEST JUMPDEST PUSH2 0x6DA DUP5 DUP3 DUP6 PUSH2 0x691 JUMP JUMPDEST POP SWAP4 SWAP3 POP POP POP JUMP JUMPDEST PUSH1 0x0 DUP3 PUSH1 0x1F DUP4 ADD SLT PUSH2 0x6F7 JUMPI PUSH2 0x6F6 PUSH2 0x5DB JUMP JUMPDEST JUMPDEST DUP2 CALLDATALOAD PUSH2 0x707 DUP5 DUP3 PUSH1 0x20 DUP7 ADD PUSH2 0x6A0 JUMP JUMPDEST SWAP2 POP POP SWAP3 SWAP2 POP POP JUMP JUMPDEST PUSH1 0x0 PUSH1 0x20 DUP3 DUP5 SUB SLT ISZERO PUSH2 0x726 JUMPI PUSH2 0x725 PUSH2 0x427 JUMP JUMPDEST JUMPDEST PUSH1 0x0 DUP3 ADD CALLDATALOAD PUSH8 0xFFFFFFFFFFFFFFFF DUP2 GT ISZERO PUSH2 0x744 JUMPI PUSH2 0x743 PUSH2 0x42C JUMP JUMPDEST JUMPDEST PUSH2 0x750 DUP5 DUP3 DUP6 ADD PUSH2 0x6E2 JUMP JUMPDEST SWAP2 POP POP SWAP3 SWAP2 POP POP JUMP JUMPDEST PUSH32 0x4E487B7100000000000000000000000000000000000000000000000000000000 PUSH1 0x0 MSTORE PUSH1 0x32 PUSH1 0x4 MSTORE PUSH1 0x24 PUSH1 0x0 REVERT JUMPDEST PUSH2 0x791 DUP2 PUSH2 0x431 JUMP JUMPDEST DUP3 MSTORE POP POP JUMP JUMPDEST PUSH1 0x0 PUSH1 0x40 DUP3 ADD SWAP1 POP PUSH2 0x7AC PUSH1 0x0 DUP4 ADD DUP6 PUSH2 0x788 JUMP JUMPDEST PUSH2 0x7B9 PUSH1 0x20 DUP4 ADD DUP5 PUSH2 0x59C JUMP JUMPDEST SWAP4 SWAP3 POP POP POP JUMP JUMPDEST PUSH32 0x4E487B7100000000000000000000000000000000000000000000000000000000 PUSH1 0x0 MSTORE PUSH1 0x22 PUSH1 0x4 MSTORE PUSH1 0x24 PUSH1 0x0 REVERT JUMPDEST PUSH1 0x0 PUSH1 0x2 DUP3 DIV SWAP1 POP PUSH1 0x1 DUP3 AND DUP1 PUSH2 0x807 JUMPI PUSH1 0x7F DUP3 AND SWAP2 POP JUMPDEST PUSH1 0x20 DUP3 LT DUP2 SUB PUSH2 0x81A JUMPI PUSH2 0x819 PUSH2 0x7C0 JUMP JUMPDEST JUMPDEST POP SWAP2 SWAP1 POP JUMP JUMPDEST PUSH1 0x0 DUP2 SWAP1 POP DUP2 PUSH1 0x0 MSTORE PUSH1 0x20 PUSH1 0x0 KECCAK256 SWAP1 POP SWAP2 SWAP1 POP JUMP JUMPDEST PUSH1 0x0 PUSH1 0x20 PUSH1 0x1F DUP4 ADD DIV SWAP1 POP SWAP2 SWAP1 POP JUMP JUMPDEST PUSH1 0x0 DUP3 DUP3 SHL SWAP1 POP SWAP3 SWAP2 POP POP JUMP JUMPDEST PUSH1 0x0 PUSH1 0x8 DUP4 MUL PUSH2 0x882 PUSH32 0xFFFFFFFFFFFFFFFFFFFFFFFFFFFFFFFFFFFFFFFFFFFFFFFFFFFFFFFFFFFFFFFF DUP3 PUSH2 0x845 JUMP JUMPDEST PUSH2 0x88C DUP7 DUP4 PUSH2 0x845 JUMP JUMPDEST SWAP6 POP DUP1 NOT DUP5 AND SWAP4 POP DUP1 DUP7 AND DUP5 OR SWAP3 POP POP POP SWAP4 SWAP3 POP POP POP JUMP JUMPDEST PUSH1 0x0 DUP2 SWAP1 POP SWAP2 SWAP1 POP JUMP JUMPDEST PUSH1 0x0 PUSH2 0x8C9 PUSH2 0x8C4 PUSH2 0x8BF DUP5 PUSH2 0x431 JUMP JUMPDEST PUSH2 0x8A4 JUMP JUMPDEST PUSH2 0x431 JUMP JUMPDEST SWAP1 POP SWAP2 SWAP1 POP JUMP JUMPDEST PUSH1 0x0 DUP2 SWAP1 POP SWAP2 SWAP1 POP JUMP JUMPDEST PUSH2 0x8E3 DUP4 PUSH2 0x8AE JUMP JUMPDEST PUSH2 0x8F7 PUSH2 0x8EF DUP3 PUSH2 0x8D0 JUMP JUMPDEST DUP5 DUP5 SLOAD PUSH2 0x852 JUMP JUMPDEST DUP3 SSTORE POP POP POP POP JUMP JUMPDEST PUSH1 0x0 SWAP1 JUMP JUMPDEST PUSH2 0x90C PUSH2 0x8FF JUMP JUMPDEST PUSH2 0x917 DUP2 DUP5 DUP5 PUSH2 0x8DA JUMP JUMPDEST POP POP POP JUMP JUMPDEST JUMPDEST DUP2 DUP2 LT ISZERO PUSH2 0x93B JUMPI PUSH2 0x930 PUSH1 0x0 DUP3 PUSH2 0x904 JUMP JUMPDEST PUSH1 0x1 DUP2 ADD SWAP1 POP PUSH2 0x91D JUMP JUMPDEST POP POP JUMP JUMPDEST PUSH1 0x1F DUP3 GT ISZERO PUSH2 0x980 JUMPI PUSH2 0x951 DUP2 PUSH2 0x820 JUMP JUMPDEST PUSH2 0x95A DUP5 PUSH2 0x835 JUMP JUMPDEST DUP2 ADD PUSH1 0x20 DUP6 LT ISZERO PUSH2 0x969 JUMPI DUP2 SWAP1 POP JUMPDEST PUSH2 0x97D PUSH2 0x975 DUP6 PUSH2 0x835 JUMP JUMPDEST DUP4 ADD DUP3 PUSH2 0x91C JUMP JUMPDEST POP POP JUMPDEST POP POP POP JUMP JUMPDEST PUSH1 0x0 DUP3 DUP3 SHR SWAP1 POP SWAP3 SWAP2 POP POP JUMP JUMPDEST PUSH1 0x0 PUSH2 0x9A3 PUSH1 0x0 NOT DUP5 PUSH1 0x8 MUL PUSH2 0x985 JUMP JUMPDEST NOT DUP1 DUP4 AND SWAP2 POP POP SWAP3 SWAP2 POP POP JUMP JUMPDEST PUSH1 0x0 PUSH2 0x9BC DUP4 DUP4 PUSH2 0x992 JUMP JUMPDEST SWAP2 POP DUP3 PUSH1 0x2 MUL DUP3 OR SWAP1 POP SWAP3 SWAP2 POP POP JUMP JUMPDEST PUSH2 0x9D5 DUP3 PUSH2 0x50C JUMP JUMPDEST PUSH8 0xFFFFFFFFFFFFFFFF DUP2 GT ISZERO PUSH2 0x9EE JUMPI PUSH2 0x9ED PUSH2 0x5E5 JUMP JUMPDEST JUMPDEST PUSH2 0x9F8 DUP3 SLOAD PUSH2 0x7EF JUMP JUMPDEST PUSH2 0xA03 DUP3 DUP3 DUP6 PUSH2 0x93F JUMP JUMPDEST PUSH1 0x0 PUSH1 0x20 SWAP1 POP PUSH1 0x1F DUP4 GT PUSH1 0x1 DUP2 EQ PUSH2 0xA36 JUMPI PUSH1 0x0 DUP5 ISZERO PUSH2 0xA24 JUMPI DUP3 DUP8 ADD MLOAD SWAP1 POP JUMPDEST PUSH2 0xA2E DUP6 DUP3 PUSH2 0x9B0 JUMP JUMPDEST DUP7 SSTORE POP PUSH2 0xA96 JUMP JUMPDEST PUSH1 0x1F NOT DUP5 AND PUSH2 0xA44 DUP7 PUSH2 0x820 JUMP JUMPDEST PUSH1 0x0 JUMPDEST DUP3 DUP2 LT ISZERO PUSH2 0xA6C JUMPI DUP5 DUP10 ADD MLOAD DUP3 SSTORE PUSH1 0x1 DUP3 ADD SWAP2 POP PUSH1 0x20 DUP6 ADD SWAP5 POP PUSH1 0x20 DUP2 ADD SWAP1 POP PUSH2 0xA47 JUMP JUMPDEST DUP7 DUP4 LT ISZERO PUSH2 0xA89 JUMPI DUP5 DUP10 ADD MLOAD PUSH2 0xA85 PUSH1 0x1F DUP10 AND DUP3 PUSH2 0x992 JUMP JUMPDEST DUP4 SSTORE POP JUMPDEST PUSH1 0x1 PUSH1 0x2 DUP9 MUL ADD DUP9 SSTORE POP POP POP JUMPDEST POP POP POP POP POP POP JUMP JUMPDEST PUSH32 0x4E487B7100000000000000000000000000000000000000000000000000000000 PUSH1 0x0 MSTORE PUSH1 0x11 PUSH1 0x4 MSTORE PUSH1 0x24 PUSH1 0x0 REVERT JUMPDEST PUSH1 0x0 PUSH2 0xAD8 DUP3 PUSH2 0x431 JUMP JUMPDEST SWAP2 POP PUSH2 0xAE3 DUP4 PUSH2 0x431 JUMP JUMPDEST SWAP3 POP DUP3 DUP3 SUB SWAP1 POP DUP2 DUP2 GT ISZERO PUSH2 0xAFB JUMPI PUSH2 0xAFA PUSH2 0xA9E JUMP JUMPDEST JUMPDEST SWAP3 SWAP2 POP POP JUMP JUMPDEST PUSH1 0x0 PUSH1 0x60 DUP3 ADD SWAP1 POP PUSH2 0xB16 PUSH1 0x0 DUP4 ADD DUP7 PUSH2 0x788 JUMP JUMPDEST DUP2 DUP2 SUB PUSH1 0x20 DUP4 ADD MSTORE PUSH2 0xB28 DUP2 DUP6 PUSH2 0x563 JUMP JUMPDEST SWAP1 POP PUSH2 0xB37 PUSH1 0x40 DUP4 ADD DUP5 PUSH2 0x59C JUMP JUMPDEST SWAP5 SWAP4 POP POP POP POP JUMP INVALID LOG2 PUSH5 0x6970667358 0x22 SLT KECCAK256 0xFC CHAINID SELFBALANCE 0xC7 RETURNDATACOPY 0xC 0x27 0xD7 PUSH31 0x5673403C80D5A77F8F21B1964B89A1CA9DAEBBF128D9D264736F6C63430008 SGT STOP CALLER "
				},
				"gasEstimates": {
					"creation": {
						"codeDepositCost": "586600",
						"executionCost": "619",
						"totalCost": "587219"
					},
					"external": {
						"create(string)": "infinite",
						"get(uint256)": "infinite",
						"kill()": "27721",
						"tasks(uint256)": "infinite",
						"update(uint256,bool)": "infinite"
					}
				},
				"methodIdentifiers": {
					"create(string)": "b6a46b3b",
					"get(uint256)": "9507d39a",
					"kill()": "41c0e1b5",
					"tasks(uint256)": "8d977672",
					"update(uint256,bool)": "48284b62"
				}
			},
			"storageLayout": {
				"storage": [
					{
						"astId": 24,
						"contract": "OwnTodoList.sol:TodoList",
						"label": "tasks",
						"offset": 0,
						"slot": "0",
						"type": "t_array(t_struct(Task)20_storage)dyn_storage"
					}
				],
				"types": {
					"t_array(t_struct(Task)20_storage)dyn_storage": {
						"base": "t_struct(Task)20_storage",
						"encoding": "dynamic_array",
						"label": "struct TodoList.Task[]",
						"numberOfBytes": "32"
					},
					"t_bool": {
						"encoding": "inplace",
						"label": "bool",
						"numberOfBytes": "1"
					},
					"t_string_storage": {
						"encoding": "bytes",
						"label": "string",
						"numberOfBytes": "32"
					},
					"t_struct(Task)20_storage": {
						"encoding": "inplace",
						"label": "struct TodoList.Task",
						"members": [
							{
								"astId": 17,
								"contract": "OwnTodoList.sol:TodoList",
								"label": "name",
								"offset": 0,
								"slot": "0",
								"type": "t_string_storage"
							},
							{
								"astId": 19,
								"contract": "OwnTodoList.sol:TodoList",
								"label": "completed",
								"offset": 0,
								"slot": "1",
								"type": "t_bool"
							}
						],
						"numberOfBytes": "64"
					}
				}
			},
			"userdoc": {
				"kind": "user",
				"methods": {},
				"version": 1
			}
		}
	}
}