{
	"00_class_practice_1.sol": {
		"class_practice1": {
			"abi": [
				{
					"inputs": [],
					"name": "bytes1_data",
					"outputs": [
						{
							"internalType": "bytes1",
							"name": "",
							"type": "bytes1"
						}
					],
					"stateMutability": "view",
					"type": "function"
				},
				{
					"inputs": [],
					"name": "bytes32_data",
					"outputs": [
						{
							"internalType": "bytes32",
							"name": "",
							"type": "bytes32"
						}
					],
					"stateMutability": "view",
					"type": "function"
				},
				{
					"inputs": [],
					"name": "bytes_data",
					"outputs": [
						{
							"internalType": "bytes",
							"name": "",
							"type": "bytes"
						}
					],
					"stateMutability": "view",
					"type": "function"
				},
				{
					"inputs": [],
					"name": "getBytes",
					"outputs": [
						{
							"internalType": "bytes",
							"name": "",
							"type": "bytes"
						}
					],
					"stateMutability": "view",
					"type": "function"
				},
				{
					"inputs": [],
					"name": "getBytes1",
					"outputs": [
						{
							"internalType": "bytes1",
							"name": "",
							"type": "bytes1"
						}
					],
					"stateMutability": "view",
					"type": "function"
				},
				{
					"inputs": [],
					"name": "getBytes32",
					"outputs": [
						{
							"internalType": "bytes32",
							"name": "",
							"type": "bytes32"
						}
					],
					"stateMutability": "view",
					"type": "function"
				},
				{
					"inputs": [],
					"name": "pushBys",
					"outputs": [],
					"stateMutability": "nonpayable",
					"type": "function"
				},
				{
					"inputs": [],
					"name": "setBys1",
					"outputs": [],
					"stateMutability": "nonpayable",
					"type": "function"
				},
				{
					"inputs": [],
					"name": "setBys32",
					"outputs": [],
					"stateMutability": "nonpayable",
					"type": "function"
				}
			],
			"devdoc": {
				"kind": "dev",
				"methods": {},
				"version": 1
			},
			"evm": {
				"assembly": "    /* \"00_class_practice_1.sol\":63:711  contract class_practice1 {... */\n  mstore(0x40, 0x80)\n  callvalue\n  dup1\n  iszero\n  tag_1\n  jumpi\n  0x00\n  dup1\n  revert\ntag_1:\n  pop\n  dataSize(sub_0)\n  dup1\n  dataOffset(sub_0)\n  0x00\n  codecopy\n  0x00\n  return\nstop\n\nsub_0: assembly {\n        /* \"00_class_practice_1.sol\":63:711  contract class_practice1 {... */\n      mstore(0x40, 0x80)\n      callvalue\n      dup1\n      iszero\n      tag_1\n      jumpi\n      0x00\n      dup1\n      revert\n    tag_1:\n      pop\n      jumpi(tag_2, lt(calldatasize, 0x04))\n      shr(0xe0, calldataload(0x00))\n      dup1\n      0xb05fafef\n      gt\n      tag_12\n      jumpi\n      dup1\n      0xb05fafef\n      eq\n      tag_7\n      jumpi\n      dup1\n      0xc584d530\n      eq\n      tag_8\n      jumpi\n      dup1\n      0xd78db221\n      eq\n      tag_9\n      jumpi\n      dup1\n      0xdeae46c2\n      eq\n      tag_10\n      jumpi\n      dup1\n      0xded516d2\n      eq\n      tag_11\n      jumpi\n      jump(tag_2)\n    tag_12:\n      dup1\n      0x0bcd3b33\n      eq\n      tag_3\n      jumpi\n      dup1\n      0x1f903037\n      eq\n      tag_4\n      jumpi\n      dup1\n      0x377e5394\n      eq\n      tag_5\n      jumpi\n      dup1\n      0x820083b8\n      eq\n      tag_6\n      jumpi\n    tag_2:\n      0x00\n      dup1\n      revert\n        /* \"00_class_practice_1.sol\":280:369  function getBytes() public view returns (bytes memory) {... */\n    tag_3:\n      tag_13\n      tag_14\n      jump\t// in\n    tag_13:\n      mload(0x40)\n      tag_15\n      swap2\n      swap1\n      tag_16\n      jump\t// in\n    tag_15:\n      mload(0x40)\n      dup1\n      swap2\n      sub\n      swap1\n      return\n        /* \"00_class_practice_1.sol\":621:709  function getBytes32() public view returns (bytes32) {... */\n    tag_4:\n      tag_17\n      tag_18\n      jump\t// in\n    tag_17:\n      mload(0x40)\n      tag_19\n      swap2\n      swap1\n      tag_20\n      jump\t// in\n    tag_19:\n      mload(0x40)\n      dup1\n      swap2\n      sub\n      swap1\n      return\n        /* \"00_class_practice_1.sol\":375:438  function setBys1() external {... */\n    tag_5:\n      tag_21\n      tag_22\n      jump\t// in\n    tag_21:\n      stop\n        /* \"00_class_practice_1.sol\":208:274  function pushBys() external {... */\n    tag_6:\n      tag_23\n      tag_24\n      jump\t// in\n    tag_23:\n      stop\n        /* \"00_class_practice_1.sol\":535:615  function setBys32() external {... */\n    tag_7:\n      tag_25\n      tag_26\n      jump\t// in\n    tag_25:\n      stop\n        /* \"00_class_practice_1.sol\":123:148  bytes1 public bytes1_data */\n    tag_8:\n      tag_27\n      tag_28\n      jump\t// in\n    tag_27:\n      mload(0x40)\n      tag_29\n      swap2\n      swap1\n      tag_30\n      jump\t// in\n    tag_29:\n      mload(0x40)\n      dup1\n      swap2\n      sub\n      swap1\n      return\n        /* \"00_class_practice_1.sol\":154:181  bytes32 public bytes32_data */\n    tag_9:\n      tag_31\n      tag_32\n      jump\t// in\n    tag_31:\n      mload(0x40)\n      tag_33\n      swap2\n      swap1\n      tag_20\n      jump\t// in\n    tag_33:\n      mload(0x40)\n      dup1\n      swap2\n      sub\n      swap1\n      return\n        /* \"00_class_practice_1.sol\":94:117  bytes public bytes_data */\n    tag_10:\n      tag_34\n      tag_35\n      jump\t// in\n    tag_34:\n      mload(0x40)\n      tag_36\n      swap2\n      swap1\n      tag_16\n      jump\t// in\n    tag_36:\n      mload(0x40)\n      dup1\n      swap2\n      sub\n      swap1\n      return\n        /* \"00_class_practice_1.sol\":444:529  function getBytes1() public view returns (bytes1) {... */\n    tag_11:\n      tag_37\n      tag_38\n      jump\t// in\n    tag_37:\n      mload(0x40)\n      tag_39\n      swap2\n      swap1\n      tag_30\n      jump\t// in\n    tag_39:\n      mload(0x40)\n      dup1\n      swap2\n      sub\n      swap1\n      return\n        /* \"00_class_practice_1.sol\":280:369  function getBytes() public view returns (bytes memory) {... */\n    tag_14:\n        /* \"00_class_practice_1.sol\":321:333  bytes memory */\n      0x60\n        /* \"00_class_practice_1.sol\":352:362  bytes_data */\n      0x00\n        /* \"00_class_practice_1.sol\":345:362  return bytes_data */\n      dup1\n      sload\n      tag_41\n      swap1\n      tag_42\n      jump\t// in\n    tag_41:\n      dup1\n      0x1f\n      add\n      0x20\n      dup1\n      swap2\n      div\n      mul\n      0x20\n      add\n      mload(0x40)\n      swap1\n      dup2\n      add\n      0x40\n      mstore\n      dup1\n      swap3\n      swap2\n      swap1\n      dup2\n      dup2\n      mstore\n      0x20\n      add\n      dup3\n      dup1\n      sload\n      tag_43\n      swap1\n      tag_42\n      jump\t// in\n    tag_43:\n      dup1\n      iszero\n      tag_44\n      jumpi\n      dup1\n      0x1f\n      lt\n      tag_45\n      jumpi\n      0x0100\n      dup1\n      dup4\n      sload\n      div\n      mul\n      dup4\n      mstore\n      swap2\n      0x20\n      add\n      swap2\n      jump(tag_44)\n    tag_45:\n      dup3\n      add\n      swap2\n      swap1\n      0x00\n      mstore\n      keccak256(0x00, 0x20)\n      swap1\n    tag_46:\n      dup2\n      sload\n      dup2\n      mstore\n      swap1\n      0x01\n      add\n      swap1\n      0x20\n      add\n      dup1\n      dup4\n      gt\n      tag_46\n      jumpi\n      dup3\n      swap1\n      sub\n      0x1f\n      and\n      dup3\n      add\n      swap2\n    tag_44:\n      pop\n      pop\n      pop\n      pop\n      pop\n      swap1\n      pop\n        /* \"00_class_practice_1.sol\":280:369  function getBytes() public view returns (bytes memory) {... */\n      swap1\n      jump\t// out\n        /* \"00_class_practice_1.sol\":621:709  function getBytes32() public view returns (bytes32) {... */\n    tag_18:\n        /* \"00_class_practice_1.sol\":664:671  bytes32 */\n      0x00\n        /* \"00_class_practice_1.sol\":690:702  bytes32_data */\n      sload(0x02)\n        /* \"00_class_practice_1.sol\":683:702  return bytes32_data */\n      swap1\n      pop\n        /* \"00_class_practice_1.sol\":621:709  function getBytes32() public view returns (bytes32) {... */\n      swap1\n      jump\t// out\n        /* \"00_class_practice_1.sol\":375:438  function setBys1() external {... */\n    tag_22:\n        /* \"00_class_practice_1.sol\":427:431  0x01 */\n      0x01\n        /* \"00_class_practice_1.sol\":413:431  bytes1_data = 0x01 */\n      0xf8\n      shl\n        /* \"00_class_practice_1.sol\":413:424  bytes1_data */\n      0x01\n      0x00\n        /* \"00_class_practice_1.sol\":413:431  bytes1_data = 0x01 */\n      0x0100\n      exp\n      dup2\n      sload\n      dup2\n      0xff\n      mul\n      not\n      and\n      swap1\n      dup4\n      0xf8\n      shr\n      mul\n      or\n      swap1\n      sstore\n      pop\n        /* \"00_class_practice_1.sol\":375:438  function setBys1() external {... */\n      jump\t// out\n        /* \"00_class_practice_1.sol\":208:274  function pushBys() external {... */\n    tag_24:\n        /* \"00_class_practice_1.sol\":246:256  bytes_data */\n      0x00\n        /* \"00_class_practice_1.sol\":262:266  0x01 */\n      0x01\n        /* \"00_class_practice_1.sol\":246:267  bytes_data.push(0x01) */\n      swap1\n      dup1\n      dup1\n      sload\n      dup1\n      tag_50\n      swap1\n      tag_42\n      jump\t// in\n    tag_50:\n      dup1\n      0x1f\n      dup2\n      sub\n      tag_51\n      jumpi\n      dup4\n      0x00\n      mstore\n      keccak256(0x00, 0x20)\n      not(0xff)\n      dup5\n      and\n      dup2\n      sstore\n      0x3f\n      swap4\n      pop\n      pop\n    tag_51:\n      pop\n      0x02\n      dup3\n      add\n      dup4\n      sstore\n      0x01\n      dup2\n      add\n      swap3\n      pop\n      pop\n      pop\n      0x01\n      swap1\n      sub\n      dup2\n      sload\n      0x01\n      and\n      iszero\n      tag_53\n      jumpi\n      swap1\n      0x00\n      mstore\n      keccak256(0x00, 0x20)\n      swap1\n      0x20\n      swap2\n      dup3\n      dup3\n      div\n      add\n      swap2\n      swap1\n      mod\n    tag_53:\n      swap1\n      swap2\n      0xf8\n      shl\n      swap1\n      swap2\n      swap1\n      swap2\n      0x1f\n      sub\n      0x0100\n      exp\n      dup2\n      sload\n      dup2\n      0xff\n      mul\n      not\n      and\n      swap1\n      0x0100000000000000000000000000000000000000000000000000000000000000\n      dup5\n      div\n      mul\n      or\n      swap1\n      sstore\n      pop\n        /* \"00_class_practice_1.sol\":208:274  function pushBys() external {... */\n      jump\t// out\n        /* \"00_class_practice_1.sol\":535:615  function setBys32() external {... */\n    tag_26:\n        /* \"00_class_practice_1.sol\":602:606  0x01 */\n      0x01\n        /* \"00_class_practice_1.sol\":589:608  bytes32(uint(0x01)) */\n      0x00\n      shl\n        /* \"00_class_practice_1.sol\":574:586  bytes32_data */\n      0x02\n        /* \"00_class_practice_1.sol\":574:608  bytes32_data = bytes32(uint(0x01)) */\n      dup2\n      swap1\n      sstore\n      pop\n        /* \"00_class_practice_1.sol\":535:615  function setBys32() external {... */\n      jump\t// out\n        /* \"00_class_practice_1.sol\":123:148  bytes1 public bytes1_data */\n    tag_28:\n      0x01\n      0x00\n      swap1\n      sload\n      swap1\n      0x0100\n      exp\n      swap1\n      div\n      0xf8\n      shl\n      dup2\n      jump\t// out\n        /* \"00_class_practice_1.sol\":154:181  bytes32 public bytes32_data */\n    tag_32:\n      sload(0x02)\n      dup2\n      jump\t// out\n        /* \"00_class_practice_1.sol\":94:117  bytes public bytes_data */\n    tag_35:\n      0x00\n      dup1\n      sload\n      tag_55\n      swap1\n      tag_42\n      jump\t// in\n    tag_55:\n      dup1\n      0x1f\n      add\n      0x20\n      dup1\n      swap2\n      div\n      mul\n      0x20\n      add\n      mload(0x40)\n      swap1\n      dup2\n      add\n      0x40\n      mstore\n      dup1\n      swap3\n      swap2\n      swap1\n      dup2\n      dup2\n      mstore\n      0x20\n      add\n      dup3\n      dup1\n      sload\n      tag_56\n      swap1\n      tag_42\n      jump\t// in\n    tag_56:\n      dup1\n      iszero\n      tag_57\n      jumpi\n      dup1\n      0x1f\n      lt\n      tag_58\n      jumpi\n      0x0100\n      dup1\n      dup4\n      sload\n      div\n      mul\n      dup4\n      mstore\n      swap2\n      0x20\n      add\n      swap2\n      jump(tag_57)\n    tag_58:\n      dup3\n      add\n      swap2\n      swap1\n      0x00\n      mstore\n      keccak256(0x00, 0x20)\n      swap1\n    tag_59:\n      dup2\n      sload\n      dup2\n      mstore\n      swap1\n      0x01\n      add\n      swap1\n      0x20\n      add\n      dup1\n      dup4\n      gt\n      tag_59\n      jumpi\n      dup3\n      swap1\n      sub\n      0x1f\n      and\n      dup3\n      add\n      swap2\n    tag_57:\n      pop\n      pop\n      pop\n      pop\n      pop\n      dup2\n      jump\t// out\n        /* \"00_class_practice_1.sol\":444:529  function getBytes1() public view returns (bytes1) {... */\n    tag_38:\n        /* \"00_class_practice_1.sol\":486:492  bytes1 */\n      0x00\n        /* \"00_class_practice_1.sol\":511:522  bytes1_data */\n      0x01\n      0x00\n      swap1\n      sload\n      swap1\n      0x0100\n      exp\n      swap1\n      div\n      0xf8\n      shl\n        /* \"00_class_practice_1.sol\":504:522  return bytes1_data */\n      swap1\n      pop\n        /* \"00_class_practice_1.sol\":444:529  function getBytes1() public view returns (bytes1) {... */\n      swap1\n      jump\t// out\n        /* \"#utility.yul\":7:105   */\n    tag_61:\n        /* \"#utility.yul\":58:64   */\n      0x00\n        /* \"#utility.yul\":92:97   */\n      dup2\n        /* \"#utility.yul\":86:98   */\n      mload\n        /* \"#utility.yul\":76:98   */\n      swap1\n      pop\n        /* \"#utility.yul\":7:105   */\n      swap2\n      swap1\n      pop\n      jump\t// out\n        /* \"#utility.yul\":111:279   */\n    tag_62:\n        /* \"#utility.yul\":194:205   */\n      0x00\n        /* \"#utility.yul\":228:234   */\n      dup3\n        /* \"#utility.yul\":223:226   */\n      dup3\n        /* \"#utility.yul\":216:235   */\n      mstore\n        /* \"#utility.yul\":268:272   */\n      0x20\n        /* \"#utility.yul\":263:266   */\n      dup3\n        /* \"#utility.yul\":259:273   */\n      add\n        /* \"#utility.yul\":244:273   */\n      swap1\n      pop\n        /* \"#utility.yul\":111:279   */\n      swap3\n      swap2\n      pop\n      pop\n      jump\t// out\n        /* \"#utility.yul\":285:531   */\n    tag_63:\n        /* \"#utility.yul\":366:367   */\n      0x00\n        /* \"#utility.yul\":376:489   */\n    tag_75:\n        /* \"#utility.yul\":390:396   */\n      dup4\n        /* \"#utility.yul\":387:388   */\n      dup2\n        /* \"#utility.yul\":384:397   */\n      lt\n        /* \"#utility.yul\":376:489   */\n      iszero\n      tag_77\n      jumpi\n        /* \"#utility.yul\":475:476   */\n      dup1\n        /* \"#utility.yul\":470:473   */\n      dup3\n        /* \"#utility.yul\":466:477   */\n      add\n        /* \"#utility.yul\":460:478   */\n      mload\n        /* \"#utility.yul\":456:457   */\n      dup2\n        /* \"#utility.yul\":451:454   */\n      dup5\n        /* \"#utility.yul\":447:458   */\n      add\n        /* \"#utility.yul\":440:479   */\n      mstore\n        /* \"#utility.yul\":412:414   */\n      0x20\n        /* \"#utility.yul\":409:410   */\n      dup2\n        /* \"#utility.yul\":405:415   */\n      add\n        /* \"#utility.yul\":400:415   */\n      swap1\n      pop\n        /* \"#utility.yul\":376:489   */\n      jump(tag_75)\n    tag_77:\n        /* \"#utility.yul\":523:524   */\n      0x00\n        /* \"#utility.yul\":514:520   */\n      dup5\n        /* \"#utility.yul\":509:512   */\n      dup5\n        /* \"#utility.yul\":505:521   */\n      add\n        /* \"#utility.yul\":498:525   */\n      mstore\n        /* \"#utility.yul\":347:531   */\n      pop\n        /* \"#utility.yul\":285:531   */\n      pop\n      pop\n      pop\n      jump\t// out\n        /* \"#utility.yul\":537:639   */\n    tag_64:\n        /* \"#utility.yul\":578:584   */\n      0x00\n        /* \"#utility.yul\":629:631   */\n      0x1f\n        /* \"#utility.yul\":625:632   */\n      not\n        /* \"#utility.yul\":620:622   */\n      0x1f\n        /* \"#utility.yul\":613:618   */\n      dup4\n        /* \"#utility.yul\":609:623   */\n      add\n        /* \"#utility.yul\":605:633   */\n      and\n        /* \"#utility.yul\":595:633   */\n      swap1\n      pop\n        /* \"#utility.yul\":537:639   */\n      swap2\n      swap1\n      pop\n      jump\t// out\n        /* \"#utility.yul\":645:1018   */\n    tag_65:\n        /* \"#utility.yul\":731:734   */\n      0x00\n        /* \"#utility.yul\":759:797   */\n      tag_80\n        /* \"#utility.yul\":791:796   */\n      dup3\n        /* \"#utility.yul\":759:797   */\n      tag_61\n      jump\t// in\n    tag_80:\n        /* \"#utility.yul\":813:883   */\n      tag_81\n        /* \"#utility.yul\":876:882   */\n      dup2\n        /* \"#utility.yul\":871:874   */\n      dup6\n        /* \"#utility.yul\":813:883   */\n      tag_62\n      jump\t// in\n    tag_81:\n        /* \"#utility.yul\":806:883   */\n      swap4\n      pop\n        /* \"#utility.yul\":892:957   */\n      tag_82\n        /* \"#utility.yul\":950:956   */\n      dup2\n        /* \"#utility.yul\":945:948   */\n      dup6\n        /* \"#utility.yul\":938:942   */\n      0x20\n        /* \"#utility.yul\":931:936   */\n      dup7\n        /* \"#utility.yul\":927:943   */\n      add\n        /* \"#utility.yul\":892:957   */\n      tag_63\n      jump\t// in\n    tag_82:\n        /* \"#utility.yul\":982:1011   */\n      tag_83\n        /* \"#utility.yul\":1004:1010   */\n      dup2\n        /* \"#utility.yul\":982:1011   */\n      tag_64\n      jump\t// in\n    tag_83:\n        /* \"#utility.yul\":977:980   */\n      dup5\n        /* \"#utility.yul\":973:1012   */\n      add\n        /* \"#utility.yul\":966:1012   */\n      swap2\n      pop\n        /* \"#utility.yul\":735:1018   */\n      pop\n        /* \"#utility.yul\":645:1018   */\n      swap3\n      swap2\n      pop\n      pop\n      jump\t// out\n        /* \"#utility.yul\":1024:1333   */\n    tag_16:\n        /* \"#utility.yul\":1135:1139   */\n      0x00\n        /* \"#utility.yul\":1173:1175   */\n      0x20\n        /* \"#utility.yul\":1162:1171   */\n      dup3\n        /* \"#utility.yul\":1158:1176   */\n      add\n        /* \"#utility.yul\":1150:1176   */\n      swap1\n      pop\n        /* \"#utility.yul\":1222:1231   */\n      dup2\n        /* \"#utility.yul\":1216:1220   */\n      dup2\n        /* \"#utility.yul\":1212:1232   */\n      sub\n        /* \"#utility.yul\":1208:1209   */\n      0x00\n        /* \"#utility.yul\":1197:1206   */\n      dup4\n        /* \"#utility.yul\":1193:1210   */\n      add\n        /* \"#utility.yul\":1186:1233   */\n      mstore\n        /* \"#utility.yul\":1250:1326   */\n      tag_85\n        /* \"#utility.yul\":1321:1325   */\n      dup2\n        /* \"#utility.yul\":1312:1318   */\n      dup5\n        /* \"#utility.yul\":1250:1326   */\n      tag_65\n      jump\t// in\n    tag_85:\n        /* \"#utility.yul\":1242:1326   */\n      swap1\n      pop\n        /* \"#utility.yul\":1024:1333   */\n      swap3\n      swap2\n      pop\n      pop\n      jump\t// out\n        /* \"#utility.yul\":1339:1416   */\n    tag_66:\n        /* \"#utility.yul\":1376:1383   */\n      0x00\n        /* \"#utility.yul\":1405:1410   */\n      dup2\n        /* \"#utility.yul\":1394:1410   */\n      swap1\n      pop\n        /* \"#utility.yul\":1339:1416   */\n      swap2\n      swap1\n      pop\n      jump\t// out\n        /* \"#utility.yul\":1422:1540   */\n    tag_67:\n        /* \"#utility.yul\":1509:1533   */\n      tag_88\n        /* \"#utility.yul\":1527:1532   */\n      dup2\n        /* \"#utility.yul\":1509:1533   */\n      tag_66\n      jump\t// in\n    tag_88:\n        /* \"#utility.yul\":1504:1507   */\n      dup3\n        /* \"#utility.yul\":1497:1534   */\n      mstore\n        /* \"#utility.yul\":1422:1540   */\n      pop\n      pop\n      jump\t// out\n        /* \"#utility.yul\":1546:1768   */\n    tag_20:\n        /* \"#utility.yul\":1639:1643   */\n      0x00\n        /* \"#utility.yul\":1677:1679   */\n      0x20\n        /* \"#utility.yul\":1666:1675   */\n      dup3\n        /* \"#utility.yul\":1662:1680   */\n      add\n        /* \"#utility.yul\":1654:1680   */\n      swap1\n      pop\n        /* \"#utility.yul\":1690:1761   */\n      tag_90\n        /* \"#utility.yul\":1758:1759   */\n      0x00\n        /* \"#utility.yul\":1747:1756   */\n      dup4\n        /* \"#utility.yul\":1743:1760   */\n      add\n        /* \"#utility.yul\":1734:1740   */\n      dup5\n        /* \"#utility.yul\":1690:1761   */\n      tag_67\n      jump\t// in\n    tag_90:\n        /* \"#utility.yul\":1546:1768   */\n      swap3\n      swap2\n      pop\n      pop\n      jump\t// out\n        /* \"#utility.yul\":1774:1923   */\n    tag_68:\n        /* \"#utility.yul\":1810:1817   */\n      0x00\n        /* \"#utility.yul\":1850:1916   */\n      0xff00000000000000000000000000000000000000000000000000000000000000\n        /* \"#utility.yul\":1843:1848   */\n      dup3\n        /* \"#utility.yul\":1839:1917   */\n      and\n        /* \"#utility.yul\":1828:1917   */\n      swap1\n      pop\n        /* \"#utility.yul\":1774:1923   */\n      swap2\n      swap1\n      pop\n      jump\t// out\n        /* \"#utility.yul\":1929:2044   */\n    tag_69:\n        /* \"#utility.yul\":2014:2037   */\n      tag_93\n        /* \"#utility.yul\":2031:2036   */\n      dup2\n        /* \"#utility.yul\":2014:2037   */\n      tag_68\n      jump\t// in\n    tag_93:\n        /* \"#utility.yul\":2009:2012   */\n      dup3\n        /* \"#utility.yul\":2002:2038   */\n      mstore\n        /* \"#utility.yul\":1929:2044   */\n      pop\n      pop\n      jump\t// out\n        /* \"#utility.yul\":2050:2268   */\n    tag_30:\n        /* \"#utility.yul\":2141:2145   */\n      0x00\n        /* \"#utility.yul\":2179:2181   */\n      0x20\n        /* \"#utility.yul\":2168:2177   */\n      dup3\n        /* \"#utility.yul\":2164:2182   */\n      add\n        /* \"#utility.yul\":2156:2182   */\n      swap1\n      pop\n        /* \"#utility.yul\":2192:2261   */\n      tag_95\n        /* \"#utility.yul\":2258:2259   */\n      0x00\n        /* \"#utility.yul\":2247:2256   */\n      dup4\n        /* \"#utility.yul\":2243:2260   */\n      add\n        /* \"#utility.yul\":2234:2240   */\n      dup5\n        /* \"#utility.yul\":2192:2261   */\n      tag_69\n      jump\t// in\n    tag_95:\n        /* \"#utility.yul\":2050:2268   */\n      swap3\n      swap2\n      pop\n      pop\n      jump\t// out\n        /* \"#utility.yul\":2274:2454   */\n    tag_70:\n        /* \"#utility.yul\":2322:2399   */\n      0x4e487b7100000000000000000000000000000000000000000000000000000000\n        /* \"#utility.yul\":2319:2320   */\n      0x00\n        /* \"#utility.yul\":2312:2400   */\n      mstore\n        /* \"#utility.yul\":2419:2423   */\n      0x22\n        /* \"#utility.yul\":2416:2417   */\n      0x04\n        /* \"#utility.yul\":2409:2424   */\n      mstore\n        /* \"#utility.yul\":2443:2447   */\n      0x24\n        /* \"#utility.yul\":2440:2441   */\n      0x00\n        /* \"#utility.yul\":2433:2448   */\n      revert\n        /* \"#utility.yul\":2460:2780   */\n    tag_42:\n        /* \"#utility.yul\":2504:2510   */\n      0x00\n        /* \"#utility.yul\":2541:2542   */\n      0x02\n        /* \"#utility.yul\":2535:2539   */\n      dup3\n        /* \"#utility.yul\":2531:2543   */\n      div\n        /* \"#utility.yul\":2521:2543   */\n      swap1\n      pop\n        /* \"#utility.yul\":2588:2589   */\n      0x01\n        /* \"#utility.yul\":2582:2586   */\n      dup3\n        /* \"#utility.yul\":2578:2590   */\n      and\n        /* \"#utility.yul\":2609:2627   */\n      dup1\n        /* \"#utility.yul\":2599:2680   */\n      tag_98\n      jumpi\n        /* \"#utility.yul\":2665:2669   */\n      0x7f\n        /* \"#utility.yul\":2657:2663   */\n      dup3\n        /* \"#utility.yul\":2653:2670   */\n      and\n        /* \"#utility.yul\":2643:2670   */\n      swap2\n      pop\n        /* \"#utility.yul\":2599:2680   */\n    tag_98:\n        /* \"#utility.yul\":2727:2729   */\n      0x20\n        /* \"#utility.yul\":2719:2725   */\n      dup3\n        /* \"#utility.yul\":2716:2730   */\n      lt\n        /* \"#utility.yul\":2696:2714   */\n      dup2\n        /* \"#utility.yul\":2693:2731   */\n      sub\n        /* \"#utility.yul\":2690:2774   */\n      tag_99\n      jumpi\n        /* \"#utility.yul\":2746:2764   */\n      tag_100\n      tag_70\n      jump\t// in\n    tag_100:\n        /* \"#utility.yul\":2690:2774   */\n    tag_99:\n        /* \"#utility.yul\":2511:2780   */\n      pop\n        /* \"#utility.yul\":2460:2780   */\n      swap2\n      swap1\n      pop\n      jump\t// out\n\n    auxdata: 0xa2646970667358221220814930b823e2ee09e8d82731281e2e373247b178891c69828f179c423855c95664736f6c63430008130033\n}\n",
				"bytecode": {
					"linkReferences": {},
					"object": "608060405234801561001057600080fd5b5061056a806100206000396000f3fe608060405234801561001057600080fd5b50600436106100935760003560e01c8063b05fafef11610066578063b05fafef146100e8578063c584d530146100f2578063d78db22114610110578063deae46c21461012e578063ded516d21461014c57610093565b80630bcd3b33146100985780631f903037146100b6578063377e5394146100d4578063820083b8146100de575b600080fd5b6100a061016a565b6040516100ad9190610428565b60405180910390f35b6100be6101fc565b6040516100cb9190610463565b60405180910390f35b6100dc610206565b005b6100e6610227565b005b6100f06102cd565b005b6100fa6102da565b60405161010791906104b9565b60405180910390f35b6101186102ed565b6040516101259190610463565b60405180910390f35b6101366102f3565b6040516101439190610428565b60405180910390f35b610154610381565b60405161016191906104b9565b60405180910390f35b60606000805461017990610503565b80601f01602080910402602001604051908101604052809291908181526020018280546101a590610503565b80156101f25780601f106101c7576101008083540402835291602001916101f2565b820191906000526020600020905b8154815290600101906020018083116101d557829003601f168201915b5050505050905090565b6000600254905090565b600160f81b600160006101000a81548160ff021916908360f81c0217905550565b60006001908080548061023990610503565b80601f81036102585783600052602060002060ff1984168155603f9350505b5060028201835560018101925050506001900381546001161561028a5790600052602060002090602091828204019190065b909160f81b90919091601f036101000a81548160ff021916907f010000000000000000000000000000000000000000000000000000000000000084040217905550565b600160001b600281905550565b600160009054906101000a900460f81b81565b60025481565b6000805461030090610503565b80601f016020809104026020016040519081016040528092919081815260200182805461032c90610503565b80156103795780601f1061034e57610100808354040283529160200191610379565b820191906000526020600020905b81548152906001019060200180831161035c57829003601f168201915b505050505081565b6000600160009054906101000a900460f81b905090565b600081519050919050565b600082825260208201905092915050565b60005b838110156103d25780820151818401526020810190506103b7565b60008484015250505050565b6000601f19601f8301169050919050565b60006103fa82610398565b61040481856103a3565b93506104148185602086016103b4565b61041d816103de565b840191505092915050565b6000602082019050818103600083015261044281846103ef565b905092915050565b6000819050919050565b61045d8161044a565b82525050565b60006020820190506104786000830184610454565b92915050565b60007fff0000000000000000000000000000000000000000000000000000000000000082169050919050565b6104b38161047e565b82525050565b60006020820190506104ce60008301846104aa565b92915050565b7f4e487b7100000000000000000000000000000000000000000000000000000000600052602260045260246000fd5b6000600282049050600182168061051b57607f821691505b60208210810361052e5761052d6104d4565b5b5091905056fea2646970667358221220814930b823e2ee09e8d82731281e2e373247b178891c69828f179c423855c95664736f6c63430008130033",
					"opcodes": "PUSH1 0x80 PUSH1 0x40 MSTORE CALLVALUE DUP1 ISZERO PUSH2 0x10 JUMPI PUSH1 0x0 DUP1 REVERT JUMPDEST POP PUSH2 0x56A DUP1 PUSH2 0x20 PUSH1 0x0 CODECOPY PUSH1 0x0 RETURN INVALID PUSH1 0x80 PUSH1 0x40 MSTORE CALLVALUE DUP1 ISZERO PUSH2 0x10 JUMPI PUSH1 0x0 DUP1 REVERT JUMPDEST POP PUSH1 0x4 CALLDATASIZE LT PUSH2 0x93 JUMPI PUSH1 0x0 CALLDATALOAD PUSH1 0xE0 SHR DUP1 PUSH4 0xB05FAFEF GT PUSH2 0x66 JUMPI DUP1 PUSH4 0xB05FAFEF EQ PUSH2 0xE8 JUMPI DUP1 PUSH4 0xC584D530 EQ PUSH2 0xF2 JUMPI DUP1 PUSH4 0xD78DB221 EQ PUSH2 0x110 JUMPI DUP1 PUSH4 0xDEAE46C2 EQ PUSH2 0x12E JUMPI DUP1 PUSH4 0xDED516D2 EQ PUSH2 0x14C JUMPI PUSH2 0x93 JUMP JUMPDEST DUP1 PUSH4 0xBCD3B33 EQ PUSH2 0x98 JUMPI DUP1 PUSH4 0x1F903037 EQ PUSH2 0xB6 JUMPI DUP1 PUSH4 0x377E5394 EQ PUSH2 0xD4 JUMPI DUP1 PUSH4 0x820083B8 EQ PUSH2 0xDE JUMPI JUMPDEST PUSH1 0x0 DUP1 REVERT JUMPDEST PUSH2 0xA0 PUSH2 0x16A JUMP JUMPDEST PUSH1 0x40 MLOAD PUSH2 0xAD SWAP2 SWAP1 PUSH2 0x428 JUMP JUMPDEST PUSH1 0x40 MLOAD DUP1 SWAP2 SUB SWAP1 RETURN JUMPDEST PUSH2 0xBE PUSH2 0x1FC JUMP JUMPDEST PUSH1 0x40 MLOAD PUSH2 0xCB SWAP2 SWAP1 PUSH2 0x463 JUMP JUMPDEST PUSH1 0x40 MLOAD DUP1 SWAP2 SUB SWAP1 RETURN JUMPDEST PUSH2 0xDC PUSH2 0x206 JUMP JUMPDEST STOP JUMPDEST PUSH2 0xE6 PUSH2 0x227 JUMP JUMPDEST STOP JUMPDEST PUSH2 0xF0 PUSH2 0x2CD JUMP JUMPDEST STOP JUMPDEST PUSH2 0xFA PUSH2 0x2DA JUMP JUMPDEST PUSH1 0x40 MLOAD PUSH2 0x107 SWAP2 SWAP1 PUSH2 0x4B9 JUMP JUMPDEST PUSH1 0x40 MLOAD DUP1 SWAP2 SUB SWAP1 RETURN JUMPDEST PUSH2 0x118 PUSH2 0x2ED JUMP JUMPDEST PUSH1 0x40 MLOAD PUSH2 0x125 SWAP2 SWAP1 PUSH2 0x463 JUMP JUMPDEST PUSH1 0x40 MLOAD DUP1 SWAP2 SUB SWAP1 RETURN JUMPDEST PUSH2 0x136 PUSH2 0x2F3 JUMP JUMPDEST PUSH1 0x40 MLOAD PUSH2 0x143 SWAP2 SWAP1 PUSH2 0x428 JUMP JUMPDEST PUSH1 0x40 MLOAD DUP1 SWAP2 SUB SWAP1 RETURN JUMPDEST PUSH2 0x154 PUSH2 0x381 JUMP JUMPDEST PUSH1 0x40 MLOAD PUSH2 0x161 SWAP2 SWAP1 PUSH2 0x4B9 JUMP JUMPDEST PUSH1 0x40 MLOAD DUP1 SWAP2 SUB SWAP1 RETURN JUMPDEST PUSH1 0x60 PUSH1 0x0 DUP1 SLOAD PUSH2 0x179 SWAP1 PUSH2 0x503 JUMP JUMPDEST DUP1 PUSH1 0x1F ADD PUSH1 0x20 DUP1 SWAP2 DIV MUL PUSH1 0x20 ADD PUSH1 0x40 MLOAD SWAP1 DUP2 ADD PUSH1 0x40 MSTORE DUP1 SWAP3 SWAP2 SWAP1 DUP2 DUP2 MSTORE PUSH1 0x20 ADD DUP3 DUP1 SLOAD PUSH2 0x1A5 SWAP1 PUSH2 0x503 JUMP JUMPDEST DUP1 ISZERO PUSH2 0x1F2 JUMPI DUP1 PUSH1 0x1F LT PUSH2 0x1C7 JUMPI PUSH2 0x100 DUP1 DUP4 SLOAD DIV MUL DUP4 MSTORE SWAP2 PUSH1 0x20 ADD SWAP2 PUSH2 0x1F2 JUMP JUMPDEST DUP3 ADD SWAP2 SWAP1 PUSH1 0x0 MSTORE PUSH1 0x20 PUSH1 0x0 KECCAK256 SWAP1 JUMPDEST DUP2 SLOAD DUP2 MSTORE SWAP1 PUSH1 0x1 ADD SWAP1 PUSH1 0x20 ADD DUP1 DUP4 GT PUSH2 0x1D5 JUMPI DUP3 SWAP1 SUB PUSH1 0x1F AND DUP3 ADD SWAP2 JUMPDEST POP POP POP POP POP SWAP1 POP SWAP1 JUMP JUMPDEST PUSH1 0x0 PUSH1 0x2 SLOAD SWAP1 POP SWAP1 JUMP JUMPDEST PUSH1 0x1 PUSH1 0xF8 SHL PUSH1 0x1 PUSH1 0x0 PUSH2 0x100 EXP DUP2 SLOAD DUP2 PUSH1 0xFF MUL NOT AND SWAP1 DUP4 PUSH1 0xF8 SHR MUL OR SWAP1 SSTORE POP JUMP JUMPDEST PUSH1 0x0 PUSH1 0x1 SWAP1 DUP1 DUP1 SLOAD DUP1 PUSH2 0x239 SWAP1 PUSH2 0x503 JUMP JUMPDEST DUP1 PUSH1 0x1F DUP2 SUB PUSH2 0x258 JUMPI DUP4 PUSH1 0x0 MSTORE PUSH1 0x20 PUSH1 0x0 KECCAK256 PUSH1 0xFF NOT DUP5 AND DUP2 SSTORE PUSH1 0x3F SWAP4 POP POP JUMPDEST POP PUSH1 0x2 DUP3 ADD DUP4 SSTORE PUSH1 0x1 DUP2 ADD SWAP3 POP POP POP PUSH1 0x1 SWAP1 SUB DUP2 SLOAD PUSH1 0x1 AND ISZERO PUSH2 0x28A JUMPI SWAP1 PUSH1 0x0 MSTORE PUSH1 0x20 PUSH1 0x0 KECCAK256 SWAP1 PUSH1 0x20 SWAP2 DUP3 DUP3 DIV ADD SWAP2 SWAP1 MOD JUMPDEST SWAP1 SWAP2 PUSH1 0xF8 SHL SWAP1 SWAP2 SWAP1 SWAP2 PUSH1 0x1F SUB PUSH2 0x100 EXP DUP2 SLOAD DUP2 PUSH1 0xFF MUL NOT AND SWAP1 PUSH32 0x100000000000000000000000000000000000000000000000000000000000000 DUP5 DIV MUL OR SWAP1 SSTORE POP JUMP JUMPDEST PUSH1 0x1 PUSH1 0x0 SHL PUSH1 0x2 DUP2 SWAP1 SSTORE POP JUMP JUMPDEST PUSH1 0x1 PUSH1 0x0 SWAP1 SLOAD SWAP1 PUSH2 0x100 EXP SWAP1 DIV PUSH1 0xF8 SHL DUP2 JUMP JUMPDEST PUSH1 0x2 SLOAD DUP2 JUMP JUMPDEST PUSH1 0x0 DUP1 SLOAD PUSH2 0x300 SWAP1 PUSH2 0x503 JUMP JUMPDEST DUP1 PUSH1 0x1F ADD PUSH1 0x20 DUP1 SWAP2 DIV MUL PUSH1 0x20 ADD PUSH1 0x40 MLOAD SWAP1 DUP2 ADD PUSH1 0x40 MSTORE DUP1 SWAP3 SWAP2 SWAP1 DUP2 DUP2 MSTORE PUSH1 0x20 ADD DUP3 DUP1 SLOAD PUSH2 0x32C SWAP1 PUSH2 0x503 JUMP JUMPDEST DUP1 ISZERO PUSH2 0x379 JUMPI DUP1 PUSH1 0x1F LT PUSH2 0x34E JUMPI PUSH2 0x100 DUP1 DUP4 SLOAD DIV MUL DUP4 MSTORE SWAP2 PUSH1 0x20 ADD SWAP2 PUSH2 0x379 JUMP JUMPDEST DUP3 ADD SWAP2 SWAP1 PUSH1 0x0 MSTORE PUSH1 0x20 PUSH1 0x0 KECCAK256 SWAP1 JUMPDEST DUP2 SLOAD DUP2 MSTORE SWAP1 PUSH1 0x1 ADD SWAP1 PUSH1 0x20 ADD DUP1 DUP4 GT PUSH2 0x35C JUMPI DUP3 SWAP1 SUB PUSH1 0x1F AND DUP3 ADD SWAP2 JUMPDEST POP POP POP POP POP DUP2 JUMP JUMPDEST PUSH1 0x0 PUSH1 0x1 PUSH1 0x0 SWAP1 SLOAD SWAP1 PUSH2 0x100 EXP SWAP1 DIV PUSH1 0xF8 SHL SWAP1 POP SWAP1 JUMP JUMPDEST PUSH1 0x0 DUP2 MLOAD SWAP1 POP SWAP2 SWAP1 POP JUMP JUMPDEST PUSH1 0x0 DUP3 DUP3 MSTORE PUSH1 0x20 DUP3 ADD SWAP1 POP SWAP3 SWAP2 POP POP JUMP JUMPDEST PUSH1 0x0 JUMPDEST DUP4 DUP2 LT ISZERO PUSH2 0x3D2 JUMPI DUP1 DUP3 ADD MLOAD DUP2 DUP5 ADD MSTORE PUSH1 0x20 DUP2 ADD SWAP1 POP PUSH2 0x3B7 JUMP JUMPDEST PUSH1 0x0 DUP5 DUP5 ADD MSTORE POP POP POP POP JUMP JUMPDEST PUSH1 0x0 PUSH1 0x1F NOT PUSH1 0x1F DUP4 ADD AND SWAP1 POP SWAP2 SWAP1 POP JUMP JUMPDEST PUSH1 0x0 PUSH2 0x3FA DUP3 PUSH2 0x398 JUMP JUMPDEST PUSH2 0x404 DUP2 DUP6 PUSH2 0x3A3 JUMP JUMPDEST SWAP4 POP PUSH2 0x414 DUP2 DUP6 PUSH1 0x20 DUP7 ADD PUSH2 0x3B4 JUMP JUMPDEST PUSH2 0x41D DUP2 PUSH2 0x3DE JUMP JUMPDEST DUP5 ADD SWAP2 POP POP SWAP3 SWAP2 POP POP JUMP JUMPDEST PUSH1 0x0 PUSH1 0x20 DUP3 ADD SWAP1 POP DUP2 DUP2 SUB PUSH1 0x0 DUP4 ADD MSTORE PUSH2 0x442 DUP2 DUP5 PUSH2 0x3EF JUMP JUMPDEST SWAP1 POP SWAP3 SWAP2 POP POP JUMP JUMPDEST PUSH1 0x0 DUP2 SWAP1 POP SWAP2 SWAP1 POP JUMP JUMPDEST PUSH2 0x45D DUP2 PUSH2 0x44A JUMP JUMPDEST DUP3 MSTORE POP POP JUMP JUMPDEST PUSH1 0x0 PUSH1 0x20 DUP3 ADD SWAP1 POP PUSH2 0x478 PUSH1 0x0 DUP4 ADD DUP5 PUSH2 0x454 JUMP JUMPDEST SWAP3 SWAP2 POP POP JUMP JUMPDEST PUSH1 0x0 PUSH32 0xFF00000000000000000000000000000000000000000000000000000000000000 DUP3 AND SWAP1 POP SWAP2 SWAP1 POP JUMP JUMPDEST PUSH2 0x4B3 DUP2 PUSH2 0x47E JUMP JUMPDEST DUP3 MSTORE POP POP JUMP JUMPDEST PUSH1 0x0 PUSH1 0x20 DUP3 ADD SWAP1 POP PUSH2 0x4CE PUSH1 0x0 DUP4 ADD DUP5 PUSH2 0x4AA JUMP JUMPDEST SWAP3 SWAP2 POP POP JUMP JUMPDEST PUSH32 0x4E487B7100000000000000000000000000000000000000000000000000000000 PUSH1 0x0 MSTORE PUSH1 0x22 PUSH1 0x4 MSTORE PUSH1 0x24 PUSH1 0x0 REVERT JUMPDEST PUSH1 0x0 PUSH1 0x2 DUP3 DIV SWAP1 POP PUSH1 0x1 DUP3 AND DUP1 PUSH2 0x51B JUMPI PUSH1 0x7F DUP3 AND SWAP2 POP JUMPDEST PUSH1 0x20 DUP3 LT DUP2 SUB PUSH2 0x52E JUMPI PUSH2 0x52D PUSH2 0x4D4 JUMP JUMPDEST JUMPDEST POP SWAP2 SWAP1 POP JUMP INVALID LOG2 PUSH5 0x6970667358 0x22 SLT KECCAK256 DUP2 0x49 ADDRESS 0xB8 0x23 0xE2 0xEE MULMOD 0xE8 0xD8 0x27 BALANCE 0x28 0x1E 0x2E CALLDATACOPY ORIGIN SELFBALANCE 0xB1 PUSH25 0x891C69828F179C423855C95664736F6C634300081300330000 "
				},
				"gasEstimates": {
					"creation": {
						"codeDepositCost": "277200",
						"executionCost": "318",
						"totalCost": "277518"
					},
					"external": {
						"bytes1_data()": "2493",
						"bytes32_data()": "2473",
						"bytes_data()": "infinite",
						"getBytes()": "infinite",
						"getBytes1()": "2567",
						"getBytes32()": "2460",
						"pushBys()": "74898",
						"setBys1()": "24462",
						"setBys32()": "22264"
					}
				},
				"methodIdentifiers": {
					"bytes1_data()": "c584d530",
					"bytes32_data()": "d78db221",
					"bytes_data()": "deae46c2",
					"getBytes()": "0bcd3b33",
					"getBytes1()": "ded516d2",
					"getBytes32()": "1f903037",
					"pushBys()": "820083b8",
					"setBys1()": "377e5394",
					"setBys32()": "b05fafef"
				}
			},
			"storageLayout": {
				"storage": [
					{
						"astId": 3,
						"contract": "00_class_practice_1.sol:class_practice1",
						"label": "bytes_data",
						"offset": 0,
						"slot": "0",
						"type": "t_bytes_storage"
					},
					{
						"astId": 5,
						"contract": "00_class_practice_1.sol:class_practice1",
						"label": "bytes1_data",
						"offset": 0,
						"slot": "1",
						"type": "t_bytes1"
					},
					{
						"astId": 7,
						"contract": "00_class_practice_1.sol:class_practice1",
						"label": "bytes32_data",
						"offset": 0,
						"slot": "2",
						"type": "t_bytes32"
					}
				],
				"types": {
					"t_bytes1": {
						"encoding": "inplace",
						"label": "bytes1",
						"numberOfBytes": "1"
					},
					"t_bytes32": {
						"encoding": "inplace",
						"label": "bytes32",
						"numberOfBytes": "32"
					},
					"t_bytes_storage": {
						"encoding": "bytes",
						"label": "bytes",
						"numberOfBytes": "32"
					}
				}
			},
			"userdoc": {
				"kind": "user",
				"methods": {},
				"version": 1
			}
		}
	}
}