{
	"TodoListBasicVer.sol": {
		"TodoList": {
			"abi": [
				{
					"inputs": [],
					"stateMutability": "nonpayable",
					"type": "constructor"
				},
				{
					"anonymous": false,
					"inputs": [
						{
							"indexed": false,
							"internalType": "uint256",
							"name": "taskId",
							"type": "uint256"
						},
						{
							"indexed": false,
							"internalType": "string",
							"name": "name",
							"type": "string"
						},
						{
							"indexed": false,
							"internalType": "bool",
							"name": "completed",
							"type": "bool"
						}
					],
					"name": "NewTask",
					"type": "event"
				},
				{
					"anonymous": false,
					"inputs": [
						{
							"indexed": false,
							"internalType": "uint256",
							"name": "taskId",
							"type": "uint256"
						},
						{
							"indexed": false,
							"internalType": "bool",
							"name": "completed",
							"type": "bool"
						}
					],
					"name": "UpdateTask",
					"type": "event"
				},
				{
					"inputs": [
						{
							"internalType": "string",
							"name": "_name",
							"type": "string"
						}
					],
					"name": "create",
					"outputs": [],
					"stateMutability": "nonpayable",
					"type": "function"
				},
				{
					"inputs": [
						{
							"internalType": "uint256",
							"name": "_taskId",
							"type": "uint256"
						}
					],
					"name": "get",
					"outputs": [
						{
							"internalType": "string",
							"name": "name",
							"type": "string"
						},
						{
							"internalType": "bool",
							"name": "completed",
							"type": "bool"
						}
					],
					"stateMutability": "nonpayable",
					"type": "function"
				},
				{
					"inputs": [],
					"name": "kill",
					"outputs": [],
					"stateMutability": "nonpayable",
					"type": "function"
				},
				{
					"inputs": [],
					"name": "owner",
					"outputs": [
						{
							"internalType": "address",
							"name": "",
							"type": "address"
						}
					],
					"stateMutability": "view",
					"type": "function"
				},
				{
					"inputs": [
						{
							"internalType": "uint256",
							"name": "",
							"type": "uint256"
						}
					],
					"name": "tasks",
					"outputs": [
						{
							"internalType": "string",
							"name": "name",
							"type": "string"
						},
						{
							"internalType": "bool",
							"name": "completed",
							"type": "bool"
						}
					],
					"stateMutability": "view",
					"type": "function"
				},
				{
					"inputs": [
						{
							"internalType": "uint256",
							"name": "_taskId",
							"type": "uint256"
						},
						{
							"internalType": "bool",
							"name": "_completed",
							"type": "bool"
						}
					],
					"name": "update",
					"outputs": [],
					"stateMutability": "nonpayable",
					"type": "function"
				}
			],
			"devdoc": {
				"kind": "dev",
				"methods": {},
				"version": 1
			},
			"evm": {
				"assembly": "    /* \"TodoListBasicVer.sol\":606:2213  contract TodoList {... */\n  mstore(0x40, 0x80)\n    /* \"TodoListBasicVer.sol\":770:819  constructor() {... */\n  callvalue\n  dup1\n  iszero\n  tag_1\n  jumpi\n  0x00\n  dup1\n  revert\ntag_1:\n  pop\n    /* \"TodoListBasicVer.sol\":802:812  msg.sender */\n  caller\n    /* \"TodoListBasicVer.sol\":794:799  owner */\n  0x00\n  dup1\n    /* \"TodoListBasicVer.sol\":794:812  owner = msg.sender */\n  0x0100\n  exp\n  dup2\n  sload\n  dup2\n  0xffffffffffffffffffffffffffffffffffffffff\n  mul\n  not\n  and\n  swap1\n  dup4\n  0xffffffffffffffffffffffffffffffffffffffff\n  and\n  mul\n  or\n  swap1\n  sstore\n  pop\n    /* \"TodoListBasicVer.sol\":606:2213  contract TodoList {... */\n  dataSize(sub_0)\n  dup1\n  dataOffset(sub_0)\n  0x00\n  codecopy\n  0x00\n  return\nstop\n\nsub_0: assembly {\n        /* \"TodoListBasicVer.sol\":606:2213  contract TodoList {... */\n      mstore(0x40, 0x80)\n      callvalue\n      dup1\n      iszero\n      tag_1\n      jumpi\n      0x00\n      dup1\n      revert\n    tag_1:\n      pop\n      jumpi(tag_2, lt(calldatasize, 0x04))\n      shr(0xe0, calldataload(0x00))\n      dup1\n      0x41c0e1b5\n      eq\n      tag_3\n      jumpi\n      dup1\n      0x48284b62\n      eq\n      tag_4\n      jumpi\n      dup1\n      0x8d977672\n      eq\n      tag_5\n      jumpi\n      dup1\n      0x8da5cb5b\n      eq\n      tag_6\n      jumpi\n      dup1\n      0x9507d39a\n      eq\n      tag_7\n      jumpi\n      dup1\n      0xb6a46b3b\n      eq\n      tag_8\n      jumpi\n    tag_2:\n      0x00\n      dup1\n      revert\n        /* \"TodoListBasicVer.sol\":2077:2211  function kill() public  {... */\n    tag_3:\n      tag_9\n      tag_10\n      jump\t// in\n    tag_9:\n      stop\n        /* \"TodoListBasicVer.sol\":1468:1679  function update(uint _taskId, bool _completed) public {... */\n    tag_4:\n      tag_11\n      0x04\n      dup1\n      calldatasize\n      sub\n      dup2\n      add\n      swap1\n      tag_12\n      swap2\n      swap1\n      tag_13\n      jump\t// in\n    tag_12:\n      tag_14\n      jump\t// in\n    tag_11:\n      stop\n        /* \"TodoListBasicVer.sol\":895:914  Task[] public tasks */\n    tag_5:\n      tag_15\n      0x04\n      dup1\n      calldatasize\n      sub\n      dup2\n      add\n      swap1\n      tag_16\n      swap2\n      swap1\n      tag_17\n      jump\t// in\n    tag_16:\n      tag_18\n      jump\t// in\n    tag_15:\n      mload(0x40)\n      tag_19\n      swap3\n      swap2\n      swap1\n      tag_20\n      jump\t// in\n    tag_19:\n      mload(0x40)\n      dup1\n      swap2\n      sub\n      swap1\n      return\n        /* \"TodoListBasicVer.sol\":743:763  address public owner */\n    tag_6:\n      tag_21\n      tag_22\n      jump\t// in\n    tag_21:\n      mload(0x40)\n      tag_23\n      swap2\n      swap1\n      tag_24\n      jump\t// in\n    tag_23:\n      mload(0x40)\n      dup1\n      swap2\n      sub\n      swap1\n      return\n        /* \"TodoListBasicVer.sol\":1798:1948  function get(uint _taskId) public returns (string memory name, bool completed) {... */\n    tag_7:\n      tag_25\n      0x04\n      dup1\n      calldatasize\n      sub\n      dup2\n      add\n      swap1\n      tag_26\n      swap2\n      swap1\n      tag_17\n      jump\t// in\n    tag_26:\n      tag_27\n      jump\t// in\n    tag_25:\n      mload(0x40)\n      tag_28\n      swap3\n      swap2\n      swap1\n      tag_20\n      jump\t// in\n    tag_28:\n      mload(0x40)\n      dup1\n      swap2\n      sub\n      swap1\n      return\n        /* \"TodoListBasicVer.sol\":1156:1430  function create(string memory _name) public  {... */\n    tag_8:\n      tag_29\n      0x04\n      dup1\n      calldatasize\n      sub\n      dup2\n      add\n      swap1\n      tag_30\n      swap2\n      swap1\n      tag_31\n      jump\t// in\n    tag_30:\n      tag_32\n      jump\t// in\n    tag_29:\n      stop\n        /* \"TodoListBasicVer.sol\":2077:2211  function kill() public  {... */\n    tag_10:\n        /* \"TodoListBasicVer.sol\":2133:2138  owner */\n      0x00\n      dup1\n      sload\n      swap1\n      0x0100\n      exp\n      swap1\n      div\n      0xffffffffffffffffffffffffffffffffffffffff\n      and\n        /* \"TodoListBasicVer.sol\":2119:2138  msg.sender == owner */\n      0xffffffffffffffffffffffffffffffffffffffff\n      and\n        /* \"TodoListBasicVer.sol\":2119:2129  msg.sender */\n      caller\n        /* \"TodoListBasicVer.sol\":2119:2138  msg.sender == owner */\n      0xffffffffffffffffffffffffffffffffffffffff\n      and\n      eq\n        /* \"TodoListBasicVer.sol\":2111:2161  require(msg.sender == owner, \"not contract owner\") */\n      tag_34\n      jumpi\n      mload(0x40)\n      0x08c379a000000000000000000000000000000000000000000000000000000000\n      dup2\n      mstore\n      0x04\n      add\n      tag_35\n      swap1\n      tag_36\n      jump\t// in\n    tag_35:\n      mload(0x40)\n      dup1\n      swap2\n      sub\n      swap1\n      revert\n    tag_34:\n        /* \"TodoListBasicVer.sol\":2192:2202  msg.sender */\n      caller\n        /* \"TodoListBasicVer.sol\":2171:2204  selfdestruct(payable(msg.sender)) */\n      0xffffffffffffffffffffffffffffffffffffffff\n      and\n      selfdestruct\n        /* \"TodoListBasicVer.sol\":1468:1679  function update(uint _taskId, bool _completed) public {... */\n    tag_14:\n        /* \"TodoListBasicVer.sol\":1559:1569  _completed */\n      dup1\n        /* \"TodoListBasicVer.sol\":1532:1537  tasks */\n      0x01\n        /* \"TodoListBasicVer.sol\":1538:1545  _taskId */\n      dup4\n        /* \"TodoListBasicVer.sol\":1532:1546  tasks[_taskId] */\n      dup2\n      sload\n      dup2\n      lt\n      tag_38\n      jumpi\n      tag_39\n      tag_40\n      jump\t// in\n    tag_39:\n    tag_38:\n      swap1\n      0x00\n      mstore\n      keccak256(0x00, 0x20)\n      swap1\n      0x02\n      mul\n      add\n        /* \"TodoListBasicVer.sol\":1532:1556  tasks[_taskId].completed */\n      0x01\n      add\n      0x00\n        /* \"TodoListBasicVer.sol\":1532:1569  tasks[_taskId].completed = _completed */\n      0x0100\n      exp\n      dup2\n      sload\n      dup2\n      0xff\n      mul\n      not\n      and\n      swap1\n      dup4\n      iszero\n      iszero\n      mul\n      or\n      swap1\n      sstore\n      pop\n        /* \"TodoListBasicVer.sol\":1641:1672  UpdateTask(_taskId, _completed) */\n      0x40f4ecd2923438fa255c9ec921b119ae150358907bbc9ba7d5c34bf9c151b6ac\n        /* \"TodoListBasicVer.sol\":1652:1659  _taskId */\n      dup3\n        /* \"TodoListBasicVer.sol\":1661:1671  _completed */\n      dup3\n        /* \"TodoListBasicVer.sol\":1641:1672  UpdateTask(_taskId, _completed) */\n      mload(0x40)\n      tag_42\n      swap3\n      swap2\n      swap1\n      tag_43\n      jump\t// in\n    tag_42:\n      mload(0x40)\n      dup1\n      swap2\n      sub\n      swap1\n      log1\n        /* \"TodoListBasicVer.sol\":1468:1679  function update(uint _taskId, bool _completed) public {... */\n      pop\n      pop\n      jump\t// out\n        /* \"TodoListBasicVer.sol\":895:914  Task[] public tasks */\n    tag_18:\n      0x01\n      dup2\n      dup2\n      sload\n      dup2\n      lt\n      tag_44\n      jumpi\n      0x00\n      dup1\n      revert\n    tag_44:\n      swap1\n      0x00\n      mstore\n      keccak256(0x00, 0x20)\n      swap1\n      0x02\n      mul\n      add\n      0x00\n      swap2\n      pop\n      swap1\n      pop\n      dup1\n      0x00\n      add\n      dup1\n      sload\n      tag_46\n      swap1\n      tag_47\n      jump\t// in\n    tag_46:\n      dup1\n      0x1f\n      add\n      0x20\n      dup1\n      swap2\n      div\n      mul\n      0x20\n      add\n      mload(0x40)\n      swap1\n      dup2\n      add\n      0x40\n      mstore\n      dup1\n      swap3\n      swap2\n      swap1\n      dup2\n      dup2\n      mstore\n      0x20\n      add\n      dup3\n      dup1\n      sload\n      tag_48\n      swap1\n      tag_47\n      jump\t// in\n    tag_48:\n      dup1\n      iszero\n      tag_49\n      jumpi\n      dup1\n      0x1f\n      lt\n      tag_50\n      jumpi\n      0x0100\n      dup1\n      dup4\n      sload\n      div\n      mul\n      dup4\n      mstore\n      swap2\n      0x20\n      add\n      swap2\n      jump(tag_49)\n    tag_50:\n      dup3\n      add\n      swap2\n      swap1\n      0x00\n      mstore\n      keccak256(0x00, 0x20)\n      swap1\n    tag_51:\n      dup2\n      sload\n      dup2\n      mstore\n      swap1\n      0x01\n      add\n      swap1\n      0x20\n      add\n      dup1\n      dup4\n      gt\n      tag_51\n      jumpi\n      dup3\n      swap1\n      sub\n      0x1f\n      and\n      dup3\n      add\n      swap2\n    tag_49:\n      pop\n      pop\n      pop\n      pop\n      pop\n      swap1\n      dup1\n      0x01\n      add\n      0x00\n      swap1\n      sload\n      swap1\n      0x0100\n      exp\n      swap1\n      div\n      0xff\n      and\n      swap1\n      pop\n      dup3\n      jump\t// out\n        /* \"TodoListBasicVer.sol\":743:763  address public owner */\n    tag_22:\n      0x00\n      dup1\n      sload\n      swap1\n      0x0100\n      exp\n      swap1\n      div\n      0xffffffffffffffffffffffffffffffffffffffff\n      and\n      dup2\n      jump\t// out\n        /* \"TodoListBasicVer.sol\":1798:1948  function get(uint _taskId) public returns (string memory name, bool completed) {... */\n    tag_27:\n        /* \"TodoListBasicVer.sol\":1841:1859  string memory name */\n      0x60\n        /* \"TodoListBasicVer.sol\":1861:1875  bool completed */\n      0x00\n        /* \"TodoListBasicVer.sol\":1895:1900  tasks */\n      0x01\n        /* \"TodoListBasicVer.sol\":1901:1908  _taskId */\n      dup4\n        /* \"TodoListBasicVer.sol\":1895:1909  tasks[_taskId] */\n      dup2\n      sload\n      dup2\n      lt\n      tag_53\n      jumpi\n      tag_54\n      tag_40\n      jump\t// in\n    tag_54:\n    tag_53:\n      swap1\n      0x00\n      mstore\n      keccak256(0x00, 0x20)\n      swap1\n      0x02\n      mul\n      add\n        /* \"TodoListBasicVer.sol\":1895:1914  tasks[_taskId].name */\n      0x00\n      add\n        /* \"TodoListBasicVer.sol\":1916:1921  tasks */\n      0x01\n        /* \"TodoListBasicVer.sol\":1922:1929  _taskId */\n      dup5\n        /* \"TodoListBasicVer.sol\":1916:1930  tasks[_taskId] */\n      dup2\n      sload\n      dup2\n      lt\n      tag_56\n      jumpi\n      tag_57\n      tag_40\n      jump\t// in\n    tag_57:\n    tag_56:\n      swap1\n      0x00\n      mstore\n      keccak256(0x00, 0x20)\n      swap1\n      0x02\n      mul\n      add\n        /* \"TodoListBasicVer.sol\":1916:1940  tasks[_taskId].completed */\n      0x01\n      add\n      0x00\n      swap1\n      sload\n      swap1\n      0x0100\n      exp\n      swap1\n      div\n      0xff\n      and\n        /* \"TodoListBasicVer.sol\":1887:1941  return (tasks[_taskId].name, tasks[_taskId].completed) */\n      dup2\n      dup1\n      sload\n      tag_59\n      swap1\n      tag_47\n      jump\t// in\n    tag_59:\n      dup1\n      0x1f\n      add\n      0x20\n      dup1\n      swap2\n      div\n      mul\n      0x20\n      add\n      mload(0x40)\n      swap1\n      dup2\n      add\n      0x40\n      mstore\n      dup1\n      swap3\n      swap2\n      swap1\n      dup2\n      dup2\n      mstore\n      0x20\n      add\n      dup3\n      dup1\n      sload\n      tag_60\n      swap1\n      tag_47\n      jump\t// in\n    tag_60:\n      dup1\n      iszero\n      tag_61\n      jumpi\n      dup1\n      0x1f\n      lt\n      tag_62\n      jumpi\n      0x0100\n      dup1\n      dup4\n      sload\n      div\n      mul\n      dup4\n      mstore\n      swap2\n      0x20\n      add\n      swap2\n      jump(tag_61)\n    tag_62:\n      dup3\n      add\n      swap2\n      swap1\n      0x00\n      mstore\n      keccak256(0x00, 0x20)\n      swap1\n    tag_63:\n      dup2\n      sload\n      dup2\n      mstore\n      swap1\n      0x01\n      add\n      swap1\n      0x20\n      add\n      dup1\n      dup4\n      gt\n      tag_63\n      jumpi\n      dup3\n      swap1\n      sub\n      0x1f\n      and\n      dup3\n      add\n      swap2\n    tag_61:\n      pop\n      pop\n      pop\n      pop\n      pop\n      swap2\n      pop\n      swap2\n      pop\n      swap2\n      pop\n        /* \"TodoListBasicVer.sol\":1798:1948  function get(uint _taskId) public returns (string memory name, bool completed) {... */\n      swap2\n      pop\n      swap2\n      jump\t// out\n        /* \"TodoListBasicVer.sol\":1156:1430  function create(string memory _name) public  {... */\n    tag_32:\n        /* \"TodoListBasicVer.sol\":1211:1216  tasks */\n      0x01\n        /* \"TodoListBasicVer.sol\":1222:1240  Task(_name, false) */\n      mload(0x40)\n      dup1\n      0x40\n      add\n      0x40\n      mstore\n      dup1\n        /* \"TodoListBasicVer.sol\":1227:1232  _name */\n      dup4\n        /* \"TodoListBasicVer.sol\":1222:1240  Task(_name, false) */\n      dup2\n      mstore\n      0x20\n      add\n        /* \"TodoListBasicVer.sol\":1234:1239  false */\n      0x00\n        /* \"TodoListBasicVer.sol\":1222:1240  Task(_name, false) */\n      iszero\n      iszero\n      dup2\n      mstore\n      pop\n        /* \"TodoListBasicVer.sol\":1211:1241  tasks.push(Task(_name, false)) */\n      swap1\n      dup1\n      0x01\n      dup2\n      sload\n      add\n      dup1\n      dup3\n      sstore\n      dup1\n      swap2\n      pop\n      pop\n      0x01\n      swap1\n      sub\n      swap1\n      0x00\n      mstore\n      keccak256(0x00, 0x20)\n      swap1\n      0x02\n      mul\n      add\n      0x00\n      swap1\n      swap2\n      swap1\n      swap2\n      swap1\n      swap2\n      pop\n      0x00\n      dup3\n      add\n      mload\n      dup2\n      0x00\n      add\n      swap1\n      dup2\n      tag_66\n      swap2\n      swap1\n      tag_67\n      jump\t// in\n    tag_66:\n      pop\n      0x20\n      dup3\n      add\n      mload\n      dup2\n      0x01\n      add\n      exp(0x0100, 0x00)\n      dup2\n      sload\n      dup2\n      0xff\n      mul\n      not\n      and\n      swap1\n      dup4\n      iszero\n      iszero\n      mul\n      or\n      swap1\n      sstore\n      pop\n      pop\n      pop\n        /* \"TodoListBasicVer.sol\":1307:1314  uint id */\n      0x00\n        /* \"TodoListBasicVer.sol\":1332:1333  1 */\n      0x01\n        /* \"TodoListBasicVer.sol\":1317:1322  tasks */\n      dup1\n        /* \"TodoListBasicVer.sol\":1317:1329  tasks.length */\n      dup1\n      sload\n      swap1\n      pop\n        /* \"TodoListBasicVer.sol\":1317:1333  tasks.length - 1 */\n      tag_68\n      swap2\n      swap1\n      tag_69\n      jump\t// in\n    tag_68:\n        /* \"TodoListBasicVer.sol\":1307:1333  uint id = tasks.length - 1 */\n      swap1\n      pop\n        /* \"TodoListBasicVer.sol\":1398:1423  NewTask(id, _name, false) */\n      0x8de7fcf423c3be88a1d33619458254be5a02866653e3209631248661ba7db881\n        /* \"TodoListBasicVer.sol\":1406:1408  id */\n      dup2\n        /* \"TodoListBasicVer.sol\":1410:1415  _name */\n      dup4\n        /* \"TodoListBasicVer.sol\":1417:1422  false */\n      0x00\n        /* \"TodoListBasicVer.sol\":1398:1423  NewTask(id, _name, false) */\n      mload(0x40)\n      tag_70\n      swap4\n      swap3\n      swap2\n      swap1\n      tag_71\n      jump\t// in\n    tag_70:\n      mload(0x40)\n      dup1\n      swap2\n      sub\n      swap1\n      log1\n        /* \"TodoListBasicVer.sol\":1201:1430  {... */\n      pop\n        /* \"TodoListBasicVer.sol\":1156:1430  function create(string memory _name) public  {... */\n      pop\n      jump\t// out\n        /* \"#utility.yul\":7:82   */\n    tag_72:\n        /* \"#utility.yul\":40:46   */\n      0x00\n        /* \"#utility.yul\":73:75   */\n      0x40\n        /* \"#utility.yul\":67:76   */\n      mload\n        /* \"#utility.yul\":57:76   */\n      swap1\n      pop\n        /* \"#utility.yul\":7:82   */\n      swap1\n      jump\t// out\n        /* \"#utility.yul\":88:205   */\n    tag_73:\n        /* \"#utility.yul\":197:198   */\n      0x00\n        /* \"#utility.yul\":194:195   */\n      dup1\n        /* \"#utility.yul\":187:199   */\n      revert\n        /* \"#utility.yul\":211:328   */\n    tag_74:\n        /* \"#utility.yul\":320:321   */\n      0x00\n        /* \"#utility.yul\":317:318   */\n      dup1\n        /* \"#utility.yul\":310:322   */\n      revert\n        /* \"#utility.yul\":334:411   */\n    tag_75:\n        /* \"#utility.yul\":371:378   */\n      0x00\n        /* \"#utility.yul\":400:405   */\n      dup2\n        /* \"#utility.yul\":389:405   */\n      swap1\n      pop\n        /* \"#utility.yul\":334:411   */\n      swap2\n      swap1\n      pop\n      jump\t// out\n        /* \"#utility.yul\":417:539   */\n    tag_76:\n        /* \"#utility.yul\":490:514   */\n      tag_125\n        /* \"#utility.yul\":508:513   */\n      dup2\n        /* \"#utility.yul\":490:514   */\n      tag_75\n      jump\t// in\n    tag_125:\n        /* \"#utility.yul\":483:488   */\n      dup2\n        /* \"#utility.yul\":480:515   */\n      eq\n        /* \"#utility.yul\":470:533   */\n      tag_126\n      jumpi\n        /* \"#utility.yul\":529:530   */\n      0x00\n        /* \"#utility.yul\":526:527   */\n      dup1\n        /* \"#utility.yul\":519:531   */\n      revert\n        /* \"#utility.yul\":470:533   */\n    tag_126:\n        /* \"#utility.yul\":417:539   */\n      pop\n      jump\t// out\n        /* \"#utility.yul\":545:684   */\n    tag_77:\n        /* \"#utility.yul\":591:596   */\n      0x00\n        /* \"#utility.yul\":629:635   */\n      dup2\n        /* \"#utility.yul\":616:636   */\n      calldataload\n        /* \"#utility.yul\":607:636   */\n      swap1\n      pop\n        /* \"#utility.yul\":645:678   */\n      tag_128\n        /* \"#utility.yul\":672:677   */\n      dup2\n        /* \"#utility.yul\":645:678   */\n      tag_76\n      jump\t// in\n    tag_128:\n        /* \"#utility.yul\":545:684   */\n      swap3\n      swap2\n      pop\n      pop\n      jump\t// out\n        /* \"#utility.yul\":690:780   */\n    tag_78:\n        /* \"#utility.yul\":724:731   */\n      0x00\n        /* \"#utility.yul\":767:772   */\n      dup2\n        /* \"#utility.yul\":760:773   */\n      iszero\n        /* \"#utility.yul\":753:774   */\n      iszero\n        /* \"#utility.yul\":742:774   */\n      swap1\n      pop\n        /* \"#utility.yul\":690:780   */\n      swap2\n      swap1\n      pop\n      jump\t// out\n        /* \"#utility.yul\":786:902   */\n    tag_79:\n        /* \"#utility.yul\":856:877   */\n      tag_131\n        /* \"#utility.yul\":871:876   */\n      dup2\n        /* \"#utility.yul\":856:877   */\n      tag_78\n      jump\t// in\n    tag_131:\n        /* \"#utility.yul\":849:854   */\n      dup2\n        /* \"#utility.yul\":846:878   */\n      eq\n        /* \"#utility.yul\":836:896   */\n      tag_132\n      jumpi\n        /* \"#utility.yul\":892:893   */\n      0x00\n        /* \"#utility.yul\":889:890   */\n      dup1\n        /* \"#utility.yul\":882:894   */\n      revert\n        /* \"#utility.yul\":836:896   */\n    tag_132:\n        /* \"#utility.yul\":786:902   */\n      pop\n      jump\t// out\n        /* \"#utility.yul\":908:1041   */\n    tag_80:\n        /* \"#utility.yul\":951:956   */\n      0x00\n        /* \"#utility.yul\":989:995   */\n      dup2\n        /* \"#utility.yul\":976:996   */\n      calldataload\n        /* \"#utility.yul\":967:996   */\n      swap1\n      pop\n        /* \"#utility.yul\":1005:1035   */\n      tag_134\n        /* \"#utility.yul\":1029:1034   */\n      dup2\n        /* \"#utility.yul\":1005:1035   */\n      tag_79\n      jump\t// in\n    tag_134:\n        /* \"#utility.yul\":908:1041   */\n      swap3\n      swap2\n      pop\n      pop\n      jump\t// out\n        /* \"#utility.yul\":1047:1515   */\n    tag_13:\n        /* \"#utility.yul\":1112:1118   */\n      0x00\n        /* \"#utility.yul\":1120:1126   */\n      dup1\n        /* \"#utility.yul\":1169:1171   */\n      0x40\n        /* \"#utility.yul\":1157:1166   */\n      dup4\n        /* \"#utility.yul\":1148:1155   */\n      dup6\n        /* \"#utility.yul\":1144:1167   */\n      sub\n        /* \"#utility.yul\":1140:1172   */\n      slt\n        /* \"#utility.yul\":1137:1256   */\n      iszero\n      tag_136\n      jumpi\n        /* \"#utility.yul\":1175:1254   */\n      tag_137\n      tag_73\n      jump\t// in\n    tag_137:\n        /* \"#utility.yul\":1137:1256   */\n    tag_136:\n        /* \"#utility.yul\":1295:1296   */\n      0x00\n        /* \"#utility.yul\":1320:1373   */\n      tag_138\n        /* \"#utility.yul\":1365:1372   */\n      dup6\n        /* \"#utility.yul\":1356:1362   */\n      dup3\n        /* \"#utility.yul\":1345:1354   */\n      dup7\n        /* \"#utility.yul\":1341:1363   */\n      add\n        /* \"#utility.yul\":1320:1373   */\n      tag_77\n      jump\t// in\n    tag_138:\n        /* \"#utility.yul\":1310:1373   */\n      swap3\n      pop\n        /* \"#utility.yul\":1266:1383   */\n      pop\n        /* \"#utility.yul\":1422:1424   */\n      0x20\n        /* \"#utility.yul\":1448:1498   */\n      tag_139\n        /* \"#utility.yul\":1490:1497   */\n      dup6\n        /* \"#utility.yul\":1481:1487   */\n      dup3\n        /* \"#utility.yul\":1470:1479   */\n      dup7\n        /* \"#utility.yul\":1466:1488   */\n      add\n        /* \"#utility.yul\":1448:1498   */\n      tag_80\n      jump\t// in\n    tag_139:\n        /* \"#utility.yul\":1438:1498   */\n      swap2\n      pop\n        /* \"#utility.yul\":1393:1508   */\n      pop\n        /* \"#utility.yul\":1047:1515   */\n      swap3\n      pop\n      swap3\n      swap1\n      pop\n      jump\t// out\n        /* \"#utility.yul\":1521:1850   */\n    tag_17:\n        /* \"#utility.yul\":1580:1586   */\n      0x00\n        /* \"#utility.yul\":1629:1631   */\n      0x20\n        /* \"#utility.yul\":1617:1626   */\n      dup3\n        /* \"#utility.yul\":1608:1615   */\n      dup5\n        /* \"#utility.yul\":1604:1627   */\n      sub\n        /* \"#utility.yul\":1600:1632   */\n      slt\n        /* \"#utility.yul\":1597:1716   */\n      iszero\n      tag_141\n      jumpi\n        /* \"#utility.yul\":1635:1714   */\n      tag_142\n      tag_73\n      jump\t// in\n    tag_142:\n        /* \"#utility.yul\":1597:1716   */\n    tag_141:\n        /* \"#utility.yul\":1755:1756   */\n      0x00\n        /* \"#utility.yul\":1780:1833   */\n      tag_143\n        /* \"#utility.yul\":1825:1832   */\n      dup5\n        /* \"#utility.yul\":1816:1822   */\n      dup3\n        /* \"#utility.yul\":1805:1814   */\n      dup6\n        /* \"#utility.yul\":1801:1823   */\n      add\n        /* \"#utility.yul\":1780:1833   */\n      tag_77\n      jump\t// in\n    tag_143:\n        /* \"#utility.yul\":1770:1833   */\n      swap2\n      pop\n        /* \"#utility.yul\":1726:1843   */\n      pop\n        /* \"#utility.yul\":1521:1850   */\n      swap3\n      swap2\n      pop\n      pop\n      jump\t// out\n        /* \"#utility.yul\":1856:1955   */\n    tag_81:\n        /* \"#utility.yul\":1908:1914   */\n      0x00\n        /* \"#utility.yul\":1942:1947   */\n      dup2\n        /* \"#utility.yul\":1936:1948   */\n      mload\n        /* \"#utility.yul\":1926:1948   */\n      swap1\n      pop\n        /* \"#utility.yul\":1856:1955   */\n      swap2\n      swap1\n      pop\n      jump\t// out\n        /* \"#utility.yul\":1961:2130   */\n    tag_82:\n        /* \"#utility.yul\":2045:2056   */\n      0x00\n        /* \"#utility.yul\":2079:2085   */\n      dup3\n        /* \"#utility.yul\":2074:2077   */\n      dup3\n        /* \"#utility.yul\":2067:2086   */\n      mstore\n        /* \"#utility.yul\":2119:2123   */\n      0x20\n        /* \"#utility.yul\":2114:2117   */\n      dup3\n        /* \"#utility.yul\":2110:2124   */\n      add\n        /* \"#utility.yul\":2095:2124   */\n      swap1\n      pop\n        /* \"#utility.yul\":1961:2130   */\n      swap3\n      swap2\n      pop\n      pop\n      jump\t// out\n        /* \"#utility.yul\":2136:2382   */\n    tag_83:\n        /* \"#utility.yul\":2217:2218   */\n      0x00\n        /* \"#utility.yul\":2227:2340   */\n    tag_147:\n        /* \"#utility.yul\":2241:2247   */\n      dup4\n        /* \"#utility.yul\":2238:2239   */\n      dup2\n        /* \"#utility.yul\":2235:2248   */\n      lt\n        /* \"#utility.yul\":2227:2340   */\n      iszero\n      tag_149\n      jumpi\n        /* \"#utility.yul\":2326:2327   */\n      dup1\n        /* \"#utility.yul\":2321:2324   */\n      dup3\n        /* \"#utility.yul\":2317:2328   */\n      add\n        /* \"#utility.yul\":2311:2329   */\n      mload\n        /* \"#utility.yul\":2307:2308   */\n      dup2\n        /* \"#utility.yul\":2302:2305   */\n      dup5\n        /* \"#utility.yul\":2298:2309   */\n      add\n        /* \"#utility.yul\":2291:2330   */\n      mstore\n        /* \"#utility.yul\":2263:2265   */\n      0x20\n        /* \"#utility.yul\":2260:2261   */\n      dup2\n        /* \"#utility.yul\":2256:2266   */\n      add\n        /* \"#utility.yul\":2251:2266   */\n      swap1\n      pop\n        /* \"#utility.yul\":2227:2340   */\n      jump(tag_147)\n    tag_149:\n        /* \"#utility.yul\":2374:2375   */\n      0x00\n        /* \"#utility.yul\":2365:2371   */\n      dup5\n        /* \"#utility.yul\":2360:2363   */\n      dup5\n        /* \"#utility.yul\":2356:2372   */\n      add\n        /* \"#utility.yul\":2349:2376   */\n      mstore\n        /* \"#utility.yul\":2198:2382   */\n      pop\n        /* \"#utility.yul\":2136:2382   */\n      pop\n      pop\n      pop\n      jump\t// out\n        /* \"#utility.yul\":2388:2490   */\n    tag_84:\n        /* \"#utility.yul\":2429:2435   */\n      0x00\n        /* \"#utility.yul\":2480:2482   */\n      0x1f\n        /* \"#utility.yul\":2476:2483   */\n      not\n        /* \"#utility.yul\":2471:2473   */\n      0x1f\n        /* \"#utility.yul\":2464:2469   */\n      dup4\n        /* \"#utility.yul\":2460:2474   */\n      add\n        /* \"#utility.yul\":2456:2484   */\n      and\n        /* \"#utility.yul\":2446:2484   */\n      swap1\n      pop\n        /* \"#utility.yul\":2388:2490   */\n      swap2\n      swap1\n      pop\n      jump\t// out\n        /* \"#utility.yul\":2496:2873   */\n    tag_85:\n        /* \"#utility.yul\":2584:2587   */\n      0x00\n        /* \"#utility.yul\":2612:2651   */\n      tag_152\n        /* \"#utility.yul\":2645:2650   */\n      dup3\n        /* \"#utility.yul\":2612:2651   */\n      tag_81\n      jump\t// in\n    tag_152:\n        /* \"#utility.yul\":2667:2738   */\n      tag_153\n        /* \"#utility.yul\":2731:2737   */\n      dup2\n        /* \"#utility.yul\":2726:2729   */\n      dup6\n        /* \"#utility.yul\":2667:2738   */\n      tag_82\n      jump\t// in\n    tag_153:\n        /* \"#utility.yul\":2660:2738   */\n      swap4\n      pop\n        /* \"#utility.yul\":2747:2812   */\n      tag_154\n        /* \"#utility.yul\":2805:2811   */\n      dup2\n        /* \"#utility.yul\":2800:2803   */\n      dup6\n        /* \"#utility.yul\":2793:2797   */\n      0x20\n        /* \"#utility.yul\":2786:2791   */\n      dup7\n        /* \"#utility.yul\":2782:2798   */\n      add\n        /* \"#utility.yul\":2747:2812   */\n      tag_83\n      jump\t// in\n    tag_154:\n        /* \"#utility.yul\":2837:2866   */\n      tag_155\n        /* \"#utility.yul\":2859:2865   */\n      dup2\n        /* \"#utility.yul\":2837:2866   */\n      tag_84\n      jump\t// in\n    tag_155:\n        /* \"#utility.yul\":2832:2835   */\n      dup5\n        /* \"#utility.yul\":2828:2867   */\n      add\n        /* \"#utility.yul\":2821:2867   */\n      swap2\n      pop\n        /* \"#utility.yul\":2588:2873   */\n      pop\n        /* \"#utility.yul\":2496:2873   */\n      swap3\n      swap2\n      pop\n      pop\n      jump\t// out\n        /* \"#utility.yul\":2879:2988   */\n    tag_86:\n        /* \"#utility.yul\":2960:2981   */\n      tag_157\n        /* \"#utility.yul\":2975:2980   */\n      dup2\n        /* \"#utility.yul\":2960:2981   */\n      tag_78\n      jump\t// in\n    tag_157:\n        /* \"#utility.yul\":2955:2958   */\n      dup3\n        /* \"#utility.yul\":2948:2982   */\n      mstore\n        /* \"#utility.yul\":2879:2988   */\n      pop\n      pop\n      jump\t// out\n        /* \"#utility.yul\":2994:3405   */\n    tag_20:\n        /* \"#utility.yul\":3129:3133   */\n      0x00\n        /* \"#utility.yul\":3167:3169   */\n      0x40\n        /* \"#utility.yul\":3156:3165   */\n      dup3\n        /* \"#utility.yul\":3152:3170   */\n      add\n        /* \"#utility.yul\":3144:3170   */\n      swap1\n      pop\n        /* \"#utility.yul\":3216:3225   */\n      dup2\n        /* \"#utility.yul\":3210:3214   */\n      dup2\n        /* \"#utility.yul\":3206:3226   */\n      sub\n        /* \"#utility.yul\":3202:3203   */\n      0x00\n        /* \"#utility.yul\":3191:3200   */\n      dup4\n        /* \"#utility.yul\":3187:3204   */\n      add\n        /* \"#utility.yul\":3180:3227   */\n      mstore\n        /* \"#utility.yul\":3244:3322   */\n      tag_159\n        /* \"#utility.yul\":3317:3321   */\n      dup2\n        /* \"#utility.yul\":3308:3314   */\n      dup6\n        /* \"#utility.yul\":3244:3322   */\n      tag_85\n      jump\t// in\n    tag_159:\n        /* \"#utility.yul\":3236:3322   */\n      swap1\n      pop\n        /* \"#utility.yul\":3332:3398   */\n      tag_160\n        /* \"#utility.yul\":3394:3396   */\n      0x20\n        /* \"#utility.yul\":3383:3392   */\n      dup4\n        /* \"#utility.yul\":3379:3397   */\n      add\n        /* \"#utility.yul\":3370:3376   */\n      dup5\n        /* \"#utility.yul\":3332:3398   */\n      tag_86\n      jump\t// in\n    tag_160:\n        /* \"#utility.yul\":2994:3405   */\n      swap4\n      swap3\n      pop\n      pop\n      pop\n      jump\t// out\n        /* \"#utility.yul\":3411:3537   */\n    tag_87:\n        /* \"#utility.yul\":3448:3455   */\n      0x00\n        /* \"#utility.yul\":3488:3530   */\n      0xffffffffffffffffffffffffffffffffffffffff\n        /* \"#utility.yul\":3481:3486   */\n      dup3\n        /* \"#utility.yul\":3477:3531   */\n      and\n        /* \"#utility.yul\":3466:3531   */\n      swap1\n      pop\n        /* \"#utility.yul\":3411:3537   */\n      swap2\n      swap1\n      pop\n      jump\t// out\n        /* \"#utility.yul\":3543:3639   */\n    tag_88:\n        /* \"#utility.yul\":3580:3587   */\n      0x00\n        /* \"#utility.yul\":3609:3633   */\n      tag_163\n        /* \"#utility.yul\":3627:3632   */\n      dup3\n        /* \"#utility.yul\":3609:3633   */\n      tag_87\n      jump\t// in\n    tag_163:\n        /* \"#utility.yul\":3598:3633   */\n      swap1\n      pop\n        /* \"#utility.yul\":3543:3639   */\n      swap2\n      swap1\n      pop\n      jump\t// out\n        /* \"#utility.yul\":3645:3763   */\n    tag_89:\n        /* \"#utility.yul\":3732:3756   */\n      tag_165\n        /* \"#utility.yul\":3750:3755   */\n      dup2\n        /* \"#utility.yul\":3732:3756   */\n      tag_88\n      jump\t// in\n    tag_165:\n        /* \"#utility.yul\":3727:3730   */\n      dup3\n        /* \"#utility.yul\":3720:3757   */\n      mstore\n        /* \"#utility.yul\":3645:3763   */\n      pop\n      pop\n      jump\t// out\n        /* \"#utility.yul\":3769:3991   */\n    tag_24:\n        /* \"#utility.yul\":3862:3866   */\n      0x00\n        /* \"#utility.yul\":3900:3902   */\n      0x20\n        /* \"#utility.yul\":3889:3898   */\n      dup3\n        /* \"#utility.yul\":3885:3903   */\n      add\n        /* \"#utility.yul\":3877:3903   */\n      swap1\n      pop\n        /* \"#utility.yul\":3913:3984   */\n      tag_167\n        /* \"#utility.yul\":3981:3982   */\n      0x00\n        /* \"#utility.yul\":3970:3979   */\n      dup4\n        /* \"#utility.yul\":3966:3983   */\n      add\n        /* \"#utility.yul\":3957:3963   */\n      dup5\n        /* \"#utility.yul\":3913:3984   */\n      tag_89\n      jump\t// in\n    tag_167:\n        /* \"#utility.yul\":3769:3991   */\n      swap3\n      swap2\n      pop\n      pop\n      jump\t// out\n        /* \"#utility.yul\":3997:4114   */\n    tag_90:\n        /* \"#utility.yul\":4106:4107   */\n      0x00\n        /* \"#utility.yul\":4103:4104   */\n      dup1\n        /* \"#utility.yul\":4096:4108   */\n      revert\n        /* \"#utility.yul\":4120:4237   */\n    tag_91:\n        /* \"#utility.yul\":4229:4230   */\n      0x00\n        /* \"#utility.yul\":4226:4227   */\n      dup1\n        /* \"#utility.yul\":4219:4231   */\n      revert\n        /* \"#utility.yul\":4243:4423   */\n    tag_92:\n        /* \"#utility.yul\":4291:4368   */\n      0x4e487b7100000000000000000000000000000000000000000000000000000000\n        /* \"#utility.yul\":4288:4289   */\n      0x00\n        /* \"#utility.yul\":4281:4369   */\n      mstore\n        /* \"#utility.yul\":4388:4392   */\n      0x41\n        /* \"#utility.yul\":4385:4386   */\n      0x04\n        /* \"#utility.yul\":4378:4393   */\n      mstore\n        /* \"#utility.yul\":4412:4416   */\n      0x24\n        /* \"#utility.yul\":4409:4410   */\n      0x00\n        /* \"#utility.yul\":4402:4417   */\n      revert\n        /* \"#utility.yul\":4429:4710   */\n    tag_93:\n        /* \"#utility.yul\":4512:4539   */\n      tag_172\n        /* \"#utility.yul\":4534:4538   */\n      dup3\n        /* \"#utility.yul\":4512:4539   */\n      tag_84\n      jump\t// in\n    tag_172:\n        /* \"#utility.yul\":4504:4510   */\n      dup2\n        /* \"#utility.yul\":4500:4540   */\n      add\n        /* \"#utility.yul\":4642:4648   */\n      dup2\n        /* \"#utility.yul\":4630:4640   */\n      dup2\n        /* \"#utility.yul\":4627:4649   */\n      lt\n        /* \"#utility.yul\":4606:4624   */\n      0xffffffffffffffff\n        /* \"#utility.yul\":4594:4604   */\n      dup3\n        /* \"#utility.yul\":4591:4625   */\n      gt\n        /* \"#utility.yul\":4588:4650   */\n      or\n        /* \"#utility.yul\":4585:4673   */\n      iszero\n      tag_173\n      jumpi\n        /* \"#utility.yul\":4653:4671   */\n      tag_174\n      tag_92\n      jump\t// in\n    tag_174:\n        /* \"#utility.yul\":4585:4673   */\n    tag_173:\n        /* \"#utility.yul\":4693:4703   */\n      dup1\n        /* \"#utility.yul\":4689:4691   */\n      0x40\n        /* \"#utility.yul\":4682:4704   */\n      mstore\n        /* \"#utility.yul\":4472:4710   */\n      pop\n        /* \"#utility.yul\":4429:4710   */\n      pop\n      pop\n      jump\t// out\n        /* \"#utility.yul\":4716:4845   */\n    tag_94:\n        /* \"#utility.yul\":4750:4756   */\n      0x00\n        /* \"#utility.yul\":4777:4797   */\n      tag_176\n      tag_72\n      jump\t// in\n    tag_176:\n        /* \"#utility.yul\":4767:4797   */\n      swap1\n      pop\n        /* \"#utility.yul\":4806:4839   */\n      tag_177\n        /* \"#utility.yul\":4834:4838   */\n      dup3\n        /* \"#utility.yul\":4826:4832   */\n      dup3\n        /* \"#utility.yul\":4806:4839   */\n      tag_93\n      jump\t// in\n    tag_177:\n        /* \"#utility.yul\":4716:4845   */\n      swap2\n      swap1\n      pop\n      jump\t// out\n        /* \"#utility.yul\":4851:5159   */\n    tag_95:\n        /* \"#utility.yul\":4913:4917   */\n      0x00\n        /* \"#utility.yul\":5003:5021   */\n      0xffffffffffffffff\n        /* \"#utility.yul\":4995:5001   */\n      dup3\n        /* \"#utility.yul\":4992:5022   */\n      gt\n        /* \"#utility.yul\":4989:5045   */\n      iszero\n      tag_179\n      jumpi\n        /* \"#utility.yul\":5025:5043   */\n      tag_180\n      tag_92\n      jump\t// in\n    tag_180:\n        /* \"#utility.yul\":4989:5045   */\n    tag_179:\n        /* \"#utility.yul\":5063:5092   */\n      tag_181\n        /* \"#utility.yul\":5085:5091   */\n      dup3\n        /* \"#utility.yul\":5063:5092   */\n      tag_84\n      jump\t// in\n    tag_181:\n        /* \"#utility.yul\":5055:5092   */\n      swap1\n      pop\n        /* \"#utility.yul\":5147:5151   */\n      0x20\n        /* \"#utility.yul\":5141:5145   */\n      dup2\n        /* \"#utility.yul\":5137:5152   */\n      add\n        /* \"#utility.yul\":5129:5152   */\n      swap1\n      pop\n        /* \"#utility.yul\":4851:5159   */\n      swap2\n      swap1\n      pop\n      jump\t// out\n        /* \"#utility.yul\":5165:5311   */\n    tag_96:\n        /* \"#utility.yul\":5262:5268   */\n      dup3\n        /* \"#utility.yul\":5257:5260   */\n      dup2\n        /* \"#utility.yul\":5252:5255   */\n      dup4\n        /* \"#utility.yul\":5239:5269   */\n      calldatacopy\n        /* \"#utility.yul\":5303:5304   */\n      0x00\n        /* \"#utility.yul\":5294:5300   */\n      dup4\n        /* \"#utility.yul\":5289:5292   */\n      dup4\n        /* \"#utility.yul\":5285:5301   */\n      add\n        /* \"#utility.yul\":5278:5305   */\n      mstore\n        /* \"#utility.yul\":5165:5311   */\n      pop\n      pop\n      pop\n      jump\t// out\n        /* \"#utility.yul\":5317:5742   */\n    tag_97:\n        /* \"#utility.yul\":5395:5400   */\n      0x00\n        /* \"#utility.yul\":5420:5486   */\n      tag_184\n        /* \"#utility.yul\":5436:5485   */\n      tag_185\n        /* \"#utility.yul\":5478:5484   */\n      dup5\n        /* \"#utility.yul\":5436:5485   */\n      tag_95\n      jump\t// in\n    tag_185:\n        /* \"#utility.yul\":5420:5486   */\n      tag_94\n      jump\t// in\n    tag_184:\n        /* \"#utility.yul\":5411:5486   */\n      swap1\n      pop\n        /* \"#utility.yul\":5509:5515   */\n      dup3\n        /* \"#utility.yul\":5502:5507   */\n      dup2\n        /* \"#utility.yul\":5495:5516   */\n      mstore\n        /* \"#utility.yul\":5547:5551   */\n      0x20\n        /* \"#utility.yul\":5540:5545   */\n      dup2\n        /* \"#utility.yul\":5536:5552   */\n      add\n        /* \"#utility.yul\":5585:5588   */\n      dup5\n        /* \"#utility.yul\":5576:5582   */\n      dup5\n        /* \"#utility.yul\":5571:5574   */\n      dup5\n        /* \"#utility.yul\":5567:5583   */\n      add\n        /* \"#utility.yul\":5564:5589   */\n      gt\n        /* \"#utility.yul\":5561:5673   */\n      iszero\n      tag_186\n      jumpi\n        /* \"#utility.yul\":5592:5671   */\n      tag_187\n      tag_91\n      jump\t// in\n    tag_187:\n        /* \"#utility.yul\":5561:5673   */\n    tag_186:\n        /* \"#utility.yul\":5682:5736   */\n      tag_188\n        /* \"#utility.yul\":5729:5735   */\n      dup5\n        /* \"#utility.yul\":5724:5727   */\n      dup3\n        /* \"#utility.yul\":5719:5722   */\n      dup6\n        /* \"#utility.yul\":5682:5736   */\n      tag_96\n      jump\t// in\n    tag_188:\n        /* \"#utility.yul\":5401:5742   */\n      pop\n        /* \"#utility.yul\":5317:5742   */\n      swap4\n      swap3\n      pop\n      pop\n      pop\n      jump\t// out\n        /* \"#utility.yul\":5762:6102   */\n    tag_98:\n        /* \"#utility.yul\":5818:5823   */\n      0x00\n        /* \"#utility.yul\":5867:5870   */\n      dup3\n        /* \"#utility.yul\":5860:5864   */\n      0x1f\n        /* \"#utility.yul\":5852:5858   */\n      dup4\n        /* \"#utility.yul\":5848:5865   */\n      add\n        /* \"#utility.yul\":5844:5871   */\n      slt\n        /* \"#utility.yul\":5834:5956   */\n      tag_190\n      jumpi\n        /* \"#utility.yul\":5875:5954   */\n      tag_191\n      tag_90\n      jump\t// in\n    tag_191:\n        /* \"#utility.yul\":5834:5956   */\n    tag_190:\n        /* \"#utility.yul\":5992:5998   */\n      dup2\n        /* \"#utility.yul\":5979:5999   */\n      calldataload\n        /* \"#utility.yul\":6017:6096   */\n      tag_192\n        /* \"#utility.yul\":6092:6095   */\n      dup5\n        /* \"#utility.yul\":6084:6090   */\n      dup3\n        /* \"#utility.yul\":6077:6081   */\n      0x20\n        /* \"#utility.yul\":6069:6075   */\n      dup7\n        /* \"#utility.yul\":6065:6082   */\n      add\n        /* \"#utility.yul\":6017:6096   */\n      tag_97\n      jump\t// in\n    tag_192:\n        /* \"#utility.yul\":6008:6096   */\n      swap2\n      pop\n        /* \"#utility.yul\":5824:6102   */\n      pop\n        /* \"#utility.yul\":5762:6102   */\n      swap3\n      swap2\n      pop\n      pop\n      jump\t// out\n        /* \"#utility.yul\":6108:6617   */\n    tag_31:\n        /* \"#utility.yul\":6177:6183   */\n      0x00\n        /* \"#utility.yul\":6226:6228   */\n      0x20\n        /* \"#utility.yul\":6214:6223   */\n      dup3\n        /* \"#utility.yul\":6205:6212   */\n      dup5\n        /* \"#utility.yul\":6201:6224   */\n      sub\n        /* \"#utility.yul\":6197:6229   */\n      slt\n        /* \"#utility.yul\":6194:6313   */\n      iszero\n      tag_194\n      jumpi\n        /* \"#utility.yul\":6232:6311   */\n      tag_195\n      tag_73\n      jump\t// in\n    tag_195:\n        /* \"#utility.yul\":6194:6313   */\n    tag_194:\n        /* \"#utility.yul\":6380:6381   */\n      0x00\n        /* \"#utility.yul\":6369:6378   */\n      dup3\n        /* \"#utility.yul\":6365:6382   */\n      add\n        /* \"#utility.yul\":6352:6383   */\n      calldataload\n        /* \"#utility.yul\":6410:6428   */\n      0xffffffffffffffff\n        /* \"#utility.yul\":6402:6408   */\n      dup2\n        /* \"#utility.yul\":6399:6429   */\n      gt\n        /* \"#utility.yul\":6396:6513   */\n      iszero\n      tag_196\n      jumpi\n        /* \"#utility.yul\":6432:6511   */\n      tag_197\n      tag_74\n      jump\t// in\n    tag_197:\n        /* \"#utility.yul\":6396:6513   */\n    tag_196:\n        /* \"#utility.yul\":6537:6600   */\n      tag_198\n        /* \"#utility.yul\":6592:6599   */\n      dup5\n        /* \"#utility.yul\":6583:6589   */\n      dup3\n        /* \"#utility.yul\":6572:6581   */\n      dup6\n        /* \"#utility.yul\":6568:6590   */\n      add\n        /* \"#utility.yul\":6537:6600   */\n      tag_98\n      jump\t// in\n    tag_198:\n        /* \"#utility.yul\":6527:6600   */\n      swap2\n      pop\n        /* \"#utility.yul\":6323:6610   */\n      pop\n        /* \"#utility.yul\":6108:6617   */\n      swap3\n      swap2\n      pop\n      pop\n      jump\t// out\n        /* \"#utility.yul\":6623:6791   */\n    tag_99:\n        /* \"#utility.yul\":6763:6783   */\n      0x6e6f7420636f6e7472616374206f776e65720000000000000000000000000000\n        /* \"#utility.yul\":6759:6760   */\n      0x00\n        /* \"#utility.yul\":6751:6757   */\n      dup3\n        /* \"#utility.yul\":6747:6761   */\n      add\n        /* \"#utility.yul\":6740:6784   */\n      mstore\n        /* \"#utility.yul\":6623:6791   */\n      pop\n      jump\t// out\n        /* \"#utility.yul\":6797:7163   */\n    tag_100:\n        /* \"#utility.yul\":6939:6942   */\n      0x00\n        /* \"#utility.yul\":6960:7027   */\n      tag_201\n        /* \"#utility.yul\":7024:7026   */\n      0x12\n        /* \"#utility.yul\":7019:7022   */\n      dup4\n        /* \"#utility.yul\":6960:7027   */\n      tag_82\n      jump\t// in\n    tag_201:\n        /* \"#utility.yul\":6953:7027   */\n      swap2\n      pop\n        /* \"#utility.yul\":7036:7129   */\n      tag_202\n        /* \"#utility.yul\":7125:7128   */\n      dup3\n        /* \"#utility.yul\":7036:7129   */\n      tag_99\n      jump\t// in\n    tag_202:\n        /* \"#utility.yul\":7154:7156   */\n      0x20\n        /* \"#utility.yul\":7149:7152   */\n      dup3\n        /* \"#utility.yul\":7145:7157   */\n      add\n        /* \"#utility.yul\":7138:7157   */\n      swap1\n      pop\n        /* \"#utility.yul\":6797:7163   */\n      swap2\n      swap1\n      pop\n      jump\t// out\n        /* \"#utility.yul\":7169:7588   */\n    tag_36:\n        /* \"#utility.yul\":7335:7339   */\n      0x00\n        /* \"#utility.yul\":7373:7375   */\n      0x20\n        /* \"#utility.yul\":7362:7371   */\n      dup3\n        /* \"#utility.yul\":7358:7376   */\n      add\n        /* \"#utility.yul\":7350:7376   */\n      swap1\n      pop\n        /* \"#utility.yul\":7422:7431   */\n      dup2\n        /* \"#utility.yul\":7416:7420   */\n      dup2\n        /* \"#utility.yul\":7412:7432   */\n      sub\n        /* \"#utility.yul\":7408:7409   */\n      0x00\n        /* \"#utility.yul\":7397:7406   */\n      dup4\n        /* \"#utility.yul\":7393:7410   */\n      add\n        /* \"#utility.yul\":7386:7433   */\n      mstore\n        /* \"#utility.yul\":7450:7581   */\n      tag_204\n        /* \"#utility.yul\":7576:7580   */\n      dup2\n        /* \"#utility.yul\":7450:7581   */\n      tag_100\n      jump\t// in\n    tag_204:\n        /* \"#utility.yul\":7442:7581   */\n      swap1\n      pop\n        /* \"#utility.yul\":7169:7588   */\n      swap2\n      swap1\n      pop\n      jump\t// out\n        /* \"#utility.yul\":7594:7774   */\n    tag_40:\n        /* \"#utility.yul\":7642:7719   */\n      0x4e487b7100000000000000000000000000000000000000000000000000000000\n        /* \"#utility.yul\":7639:7640   */\n      0x00\n        /* \"#utility.yul\":7632:7720   */\n      mstore\n        /* \"#utility.yul\":7739:7743   */\n      0x32\n        /* \"#utility.yul\":7736:7737   */\n      0x04\n        /* \"#utility.yul\":7729:7744   */\n      mstore\n        /* \"#utility.yul\":7763:7767   */\n      0x24\n        /* \"#utility.yul\":7760:7761   */\n      0x00\n        /* \"#utility.yul\":7753:7768   */\n      revert\n        /* \"#utility.yul\":7780:7898   */\n    tag_101:\n        /* \"#utility.yul\":7867:7891   */\n      tag_207\n        /* \"#utility.yul\":7885:7890   */\n      dup2\n        /* \"#utility.yul\":7867:7891   */\n      tag_75\n      jump\t// in\n    tag_207:\n        /* \"#utility.yul\":7862:7865   */\n      dup3\n        /* \"#utility.yul\":7855:7892   */\n      mstore\n        /* \"#utility.yul\":7780:7898   */\n      pop\n      pop\n      jump\t// out\n        /* \"#utility.yul\":7904:8224   */\n    tag_43:\n        /* \"#utility.yul\":8019:8023   */\n      0x00\n        /* \"#utility.yul\":8057:8059   */\n      0x40\n        /* \"#utility.yul\":8046:8055   */\n      dup3\n        /* \"#utility.yul\":8042:8060   */\n      add\n        /* \"#utility.yul\":8034:8060   */\n      swap1\n      pop\n        /* \"#utility.yul\":8070:8141   */\n      tag_209\n        /* \"#utility.yul\":8138:8139   */\n      0x00\n        /* \"#utility.yul\":8127:8136   */\n      dup4\n        /* \"#utility.yul\":8123:8140   */\n      add\n        /* \"#utility.yul\":8114:8120   */\n      dup6\n        /* \"#utility.yul\":8070:8141   */\n      tag_101\n      jump\t// in\n    tag_209:\n        /* \"#utility.yul\":8151:8217   */\n      tag_210\n        /* \"#utility.yul\":8213:8215   */\n      0x20\n        /* \"#utility.yul\":8202:8211   */\n      dup4\n        /* \"#utility.yul\":8198:8216   */\n      add\n        /* \"#utility.yul\":8189:8195   */\n      dup5\n        /* \"#utility.yul\":8151:8217   */\n      tag_86\n      jump\t// in\n    tag_210:\n        /* \"#utility.yul\":7904:8224   */\n      swap4\n      swap3\n      pop\n      pop\n      pop\n      jump\t// out\n        /* \"#utility.yul\":8230:8410   */\n    tag_102:\n        /* \"#utility.yul\":8278:8355   */\n      0x4e487b7100000000000000000000000000000000000000000000000000000000\n        /* \"#utility.yul\":8275:8276   */\n      0x00\n        /* \"#utility.yul\":8268:8356   */\n      mstore\n        /* \"#utility.yul\":8375:8379   */\n      0x22\n        /* \"#utility.yul\":8372:8373   */\n      0x04\n        /* \"#utility.yul\":8365:8380   */\n      mstore\n        /* \"#utility.yul\":8399:8403   */\n      0x24\n        /* \"#utility.yul\":8396:8397   */\n      0x00\n        /* \"#utility.yul\":8389:8404   */\n      revert\n        /* \"#utility.yul\":8416:8736   */\n    tag_47:\n        /* \"#utility.yul\":8460:8466   */\n      0x00\n        /* \"#utility.yul\":8497:8498   */\n      0x02\n        /* \"#utility.yul\":8491:8495   */\n      dup3\n        /* \"#utility.yul\":8487:8499   */\n      div\n        /* \"#utility.yul\":8477:8499   */\n      swap1\n      pop\n        /* \"#utility.yul\":8544:8545   */\n      0x01\n        /* \"#utility.yul\":8538:8542   */\n      dup3\n        /* \"#utility.yul\":8534:8546   */\n      and\n        /* \"#utility.yul\":8565:8583   */\n      dup1\n        /* \"#utility.yul\":8555:8636   */\n      tag_213\n      jumpi\n        /* \"#utility.yul\":8621:8625   */\n      0x7f\n        /* \"#utility.yul\":8613:8619   */\n      dup3\n        /* \"#utility.yul\":8609:8626   */\n      and\n        /* \"#utility.yul\":8599:8626   */\n      swap2\n      pop\n        /* \"#utility.yul\":8555:8636   */\n    tag_213:\n        /* \"#utility.yul\":8683:8685   */\n      0x20\n        /* \"#utility.yul\":8675:8681   */\n      dup3\n        /* \"#utility.yul\":8672:8686   */\n      lt\n        /* \"#utility.yul\":8652:8670   */\n      dup2\n        /* \"#utility.yul\":8649:8687   */\n      sub\n        /* \"#utility.yul\":8646:8730   */\n      tag_214\n      jumpi\n        /* \"#utility.yul\":8702:8720   */\n      tag_215\n      tag_102\n      jump\t// in\n    tag_215:\n        /* \"#utility.yul\":8646:8730   */\n    tag_214:\n        /* \"#utility.yul\":8467:8736   */\n      pop\n        /* \"#utility.yul\":8416:8736   */\n      swap2\n      swap1\n      pop\n      jump\t// out\n        /* \"#utility.yul\":8742:8883   */\n    tag_103:\n        /* \"#utility.yul\":8791:8795   */\n      0x00\n        /* \"#utility.yul\":8814:8817   */\n      dup2\n        /* \"#utility.yul\":8806:8817   */\n      swap1\n      pop\n        /* \"#utility.yul\":8837:8840   */\n      dup2\n        /* \"#utility.yul\":8834:8835   */\n      0x00\n        /* \"#utility.yul\":8827:8841   */\n      mstore\n        /* \"#utility.yul\":8871:8875   */\n      0x20\n        /* \"#utility.yul\":8868:8869   */\n      0x00\n        /* \"#utility.yul\":8858:8876   */\n      keccak256\n        /* \"#utility.yul\":8850:8876   */\n      swap1\n      pop\n        /* \"#utility.yul\":8742:8883   */\n      swap2\n      swap1\n      pop\n      jump\t// out\n        /* \"#utility.yul\":8889:8982   */\n    tag_104:\n        /* \"#utility.yul\":8926:8932   */\n      0x00\n        /* \"#utility.yul\":8973:8975   */\n      0x20\n        /* \"#utility.yul\":8968:8970   */\n      0x1f\n        /* \"#utility.yul\":8961:8966   */\n      dup4\n        /* \"#utility.yul\":8957:8971   */\n      add\n        /* \"#utility.yul\":8953:8976   */\n      div\n        /* \"#utility.yul\":8943:8976   */\n      swap1\n      pop\n        /* \"#utility.yul\":8889:8982   */\n      swap2\n      swap1\n      pop\n      jump\t// out\n        /* \"#utility.yul\":8988:9095   */\n    tag_105:\n        /* \"#utility.yul\":9032:9040   */\n      0x00\n        /* \"#utility.yul\":9082:9087   */\n      dup3\n        /* \"#utility.yul\":9076:9080   */\n      dup3\n        /* \"#utility.yul\":9072:9088   */\n      shl\n        /* \"#utility.yul\":9051:9088   */\n      swap1\n      pop\n        /* \"#utility.yul\":8988:9095   */\n      swap3\n      swap2\n      pop\n      pop\n      jump\t// out\n        /* \"#utility.yul\":9101:9494   */\n    tag_106:\n        /* \"#utility.yul\":9170:9176   */\n      0x00\n        /* \"#utility.yul\":9220:9221   */\n      0x08\n        /* \"#utility.yul\":9208:9218   */\n      dup4\n        /* \"#utility.yul\":9204:9222   */\n      mul\n        /* \"#utility.yul\":9243:9340   */\n      tag_220\n        /* \"#utility.yul\":9273:9339   */\n      0xffffffffffffffffffffffffffffffffffffffffffffffffffffffffffffffff\n        /* \"#utility.yul\":9262:9271   */\n      dup3\n        /* \"#utility.yul\":9243:9340   */\n      tag_105\n      jump\t// in\n    tag_220:\n        /* \"#utility.yul\":9361:9400   */\n      tag_221\n        /* \"#utility.yul\":9391:9399   */\n      dup7\n        /* \"#utility.yul\":9380:9389   */\n      dup4\n        /* \"#utility.yul\":9361:9400   */\n      tag_105\n      jump\t// in\n    tag_221:\n        /* \"#utility.yul\":9349:9400   */\n      swap6\n      pop\n        /* \"#utility.yul\":9433:9437   */\n      dup1\n        /* \"#utility.yul\":9429:9438   */\n      not\n        /* \"#utility.yul\":9422:9427   */\n      dup5\n        /* \"#utility.yul\":9418:9439   */\n      and\n        /* \"#utility.yul\":9409:9439   */\n      swap4\n      pop\n        /* \"#utility.yul\":9482:9486   */\n      dup1\n        /* \"#utility.yul\":9472:9480   */\n      dup7\n        /* \"#utility.yul\":9468:9487   */\n      and\n        /* \"#utility.yul\":9461:9466   */\n      dup5\n        /* \"#utility.yul\":9458:9488   */\n      or\n        /* \"#utility.yul\":9448:9488   */\n      swap3\n      pop\n        /* \"#utility.yul\":9177:9494   */\n      pop\n      pop\n        /* \"#utility.yul\":9101:9494   */\n      swap4\n      swap3\n      pop\n      pop\n      pop\n      jump\t// out\n        /* \"#utility.yul\":9500:9560   */\n    tag_107:\n        /* \"#utility.yul\":9528:9531   */\n      0x00\n        /* \"#utility.yul\":9549:9554   */\n      dup2\n        /* \"#utility.yul\":9542:9554   */\n      swap1\n      pop\n        /* \"#utility.yul\":9500:9560   */\n      swap2\n      swap1\n      pop\n      jump\t// out\n        /* \"#utility.yul\":9566:9708   */\n    tag_108:\n        /* \"#utility.yul\":9616:9625   */\n      0x00\n        /* \"#utility.yul\":9649:9702   */\n      tag_224\n        /* \"#utility.yul\":9667:9701   */\n      tag_225\n        /* \"#utility.yul\":9676:9700   */\n      tag_226\n        /* \"#utility.yul\":9694:9699   */\n      dup5\n        /* \"#utility.yul\":9676:9700   */\n      tag_75\n      jump\t// in\n    tag_226:\n        /* \"#utility.yul\":9667:9701   */\n      tag_107\n      jump\t// in\n    tag_225:\n        /* \"#utility.yul\":9649:9702   */\n      tag_75\n      jump\t// in\n    tag_224:\n        /* \"#utility.yul\":9636:9702   */\n      swap1\n      pop\n        /* \"#utility.yul\":9566:9708   */\n      swap2\n      swap1\n      pop\n      jump\t// out\n        /* \"#utility.yul\":9714:9789   */\n    tag_109:\n        /* \"#utility.yul\":9757:9760   */\n      0x00\n        /* \"#utility.yul\":9778:9783   */\n      dup2\n        /* \"#utility.yul\":9771:9783   */\n      swap1\n      pop\n        /* \"#utility.yul\":9714:9789   */\n      swap2\n      swap1\n      pop\n      jump\t// out\n        /* \"#utility.yul\":9795:10064   */\n    tag_110:\n        /* \"#utility.yul\":9905:9944   */\n      tag_229\n        /* \"#utility.yul\":9936:9943   */\n      dup4\n        /* \"#utility.yul\":9905:9944   */\n      tag_108\n      jump\t// in\n    tag_229:\n        /* \"#utility.yul\":9966:10057   */\n      tag_230\n        /* \"#utility.yul\":10015:10056   */\n      tag_231\n        /* \"#utility.yul\":10039:10055   */\n      dup3\n        /* \"#utility.yul\":10015:10056   */\n      tag_109\n      jump\t// in\n    tag_231:\n        /* \"#utility.yul\":10007:10013   */\n      dup5\n        /* \"#utility.yul\":10000:10004   */\n      dup5\n        /* \"#utility.yul\":9994:10005   */\n      sload\n        /* \"#utility.yul\":9966:10057   */\n      tag_106\n      jump\t// in\n    tag_230:\n        /* \"#utility.yul\":9960:9964   */\n      dup3\n        /* \"#utility.yul\":9953:10058   */\n      sstore\n        /* \"#utility.yul\":9871:10064   */\n      pop\n        /* \"#utility.yul\":9795:10064   */\n      pop\n      pop\n      pop\n      jump\t// out\n        /* \"#utility.yul\":10070:10143   */\n    tag_111:\n        /* \"#utility.yul\":10115:10118   */\n      0x00\n        /* \"#utility.yul\":10070:10143   */\n      swap1\n      jump\t// out\n        /* \"#utility.yul\":10149:10338   */\n    tag_112:\n        /* \"#utility.yul\":10226:10258   */\n      tag_234\n      tag_111\n      jump\t// in\n    tag_234:\n        /* \"#utility.yul\":10267:10332   */\n      tag_235\n        /* \"#utility.yul\":10325:10331   */\n      dup2\n        /* \"#utility.yul\":10317:10323   */\n      dup5\n        /* \"#utility.yul\":10311:10315   */\n      dup5\n        /* \"#utility.yul\":10267:10332   */\n      tag_110\n      jump\t// in\n    tag_235:\n        /* \"#utility.yul\":10202:10338   */\n      pop\n        /* \"#utility.yul\":10149:10338   */\n      pop\n      pop\n      jump\t// out\n        /* \"#utility.yul\":10344:10530   */\n    tag_113:\n        /* \"#utility.yul\":10404:10524   */\n    tag_237:\n        /* \"#utility.yul\":10421:10424   */\n      dup2\n        /* \"#utility.yul\":10414:10419   */\n      dup2\n        /* \"#utility.yul\":10411:10425   */\n      lt\n        /* \"#utility.yul\":10404:10524   */\n      iszero\n      tag_239\n      jumpi\n        /* \"#utility.yul\":10475:10514   */\n      tag_240\n        /* \"#utility.yul\":10512:10513   */\n      0x00\n        /* \"#utility.yul\":10505:10510   */\n      dup3\n        /* \"#utility.yul\":10475:10514   */\n      tag_112\n      jump\t// in\n    tag_240:\n        /* \"#utility.yul\":10448:10449   */\n      0x01\n        /* \"#utility.yul\":10441:10446   */\n      dup2\n        /* \"#utility.yul\":10437:10450   */\n      add\n        /* \"#utility.yul\":10428:10450   */\n      swap1\n      pop\n        /* \"#utility.yul\":10404:10524   */\n      jump(tag_237)\n    tag_239:\n        /* \"#utility.yul\":10344:10530   */\n      pop\n      pop\n      jump\t// out\n        /* \"#utility.yul\":10536:11079   */\n    tag_114:\n        /* \"#utility.yul\":10637:10639   */\n      0x1f\n        /* \"#utility.yul\":10632:10635   */\n      dup3\n        /* \"#utility.yul\":10629:10640   */\n      gt\n        /* \"#utility.yul\":10626:11072   */\n      iszero\n      tag_242\n      jumpi\n        /* \"#utility.yul\":10671:10709   */\n      tag_243\n        /* \"#utility.yul\":10703:10708   */\n      dup2\n        /* \"#utility.yul\":10671:10709   */\n      tag_103\n      jump\t// in\n    tag_243:\n        /* \"#utility.yul\":10755:10784   */\n      tag_244\n        /* \"#utility.yul\":10773:10783   */\n      dup5\n        /* \"#utility.yul\":10755:10784   */\n      tag_104\n      jump\t// in\n    tag_244:\n        /* \"#utility.yul\":10745:10753   */\n      dup2\n        /* \"#utility.yul\":10741:10785   */\n      add\n        /* \"#utility.yul\":10938:10940   */\n      0x20\n        /* \"#utility.yul\":10926:10936   */\n      dup6\n        /* \"#utility.yul\":10923:10941   */\n      lt\n        /* \"#utility.yul\":10920:10969   */\n      iszero\n      tag_245\n      jumpi\n        /* \"#utility.yul\":10959:10967   */\n      dup2\n        /* \"#utility.yul\":10944:10967   */\n      swap1\n      pop\n        /* \"#utility.yul\":10920:10969   */\n    tag_245:\n        /* \"#utility.yul\":10982:11062   */\n      tag_246\n        /* \"#utility.yul\":11038:11060   */\n      tag_247\n        /* \"#utility.yul\":11056:11059   */\n      dup6\n        /* \"#utility.yul\":11038:11060   */\n      tag_104\n      jump\t// in\n    tag_247:\n        /* \"#utility.yul\":11028:11036   */\n      dup4\n        /* \"#utility.yul\":11024:11061   */\n      add\n        /* \"#utility.yul\":11011:11022   */\n      dup3\n        /* \"#utility.yul\":10982:11062   */\n      tag_113\n      jump\t// in\n    tag_246:\n        /* \"#utility.yul\":10641:11072   */\n      pop\n      pop\n        /* \"#utility.yul\":10626:11072   */\n    tag_242:\n        /* \"#utility.yul\":10536:11079   */\n      pop\n      pop\n      pop\n      jump\t// out\n        /* \"#utility.yul\":11085:11202   */\n    tag_115:\n        /* \"#utility.yul\":11139:11147   */\n      0x00\n        /* \"#utility.yul\":11189:11194   */\n      dup3\n        /* \"#utility.yul\":11183:11187   */\n      dup3\n        /* \"#utility.yul\":11179:11195   */\n      shr\n        /* \"#utility.yul\":11158:11195   */\n      swap1\n      pop\n        /* \"#utility.yul\":11085:11202   */\n      swap3\n      swap2\n      pop\n      pop\n      jump\t// out\n        /* \"#utility.yul\":11208:11377   */\n    tag_116:\n        /* \"#utility.yul\":11252:11258   */\n      0x00\n        /* \"#utility.yul\":11285:11336   */\n      tag_250\n        /* \"#utility.yul\":11333:11334   */\n      0x00\n        /* \"#utility.yul\":11329:11335   */\n      not\n        /* \"#utility.yul\":11321:11326   */\n      dup5\n        /* \"#utility.yul\":11318:11319   */\n      0x08\n        /* \"#utility.yul\":11314:11327   */\n      mul\n        /* \"#utility.yul\":11285:11336   */\n      tag_115\n      jump\t// in\n    tag_250:\n        /* \"#utility.yul\":11281:11337   */\n      not\n        /* \"#utility.yul\":11366:11370   */\n      dup1\n        /* \"#utility.yul\":11360:11364   */\n      dup4\n        /* \"#utility.yul\":11356:11371   */\n      and\n        /* \"#utility.yul\":11346:11371   */\n      swap2\n      pop\n        /* \"#utility.yul\":11259:11377   */\n      pop\n        /* \"#utility.yul\":11208:11377   */\n      swap3\n      swap2\n      pop\n      pop\n      jump\t// out\n        /* \"#utility.yul\":11382:11677   */\n    tag_117:\n        /* \"#utility.yul\":11458:11462   */\n      0x00\n        /* \"#utility.yul\":11604:11633   */\n      tag_252\n        /* \"#utility.yul\":11629:11632   */\n      dup4\n        /* \"#utility.yul\":11623:11627   */\n      dup4\n        /* \"#utility.yul\":11604:11633   */\n      tag_116\n      jump\t// in\n    tag_252:\n        /* \"#utility.yul\":11596:11633   */\n      swap2\n      pop\n        /* \"#utility.yul\":11666:11669   */\n      dup3\n        /* \"#utility.yul\":11663:11664   */\n      0x02\n        /* \"#utility.yul\":11659:11670   */\n      mul\n        /* \"#utility.yul\":11653:11657   */\n      dup3\n        /* \"#utility.yul\":11650:11671   */\n      or\n        /* \"#utility.yul\":11642:11671   */\n      swap1\n      pop\n        /* \"#utility.yul\":11382:11677   */\n      swap3\n      swap2\n      pop\n      pop\n      jump\t// out\n        /* \"#utility.yul\":11682:13077   */\n    tag_67:\n        /* \"#utility.yul\":11799:11836   */\n      tag_254\n        /* \"#utility.yul\":11832:11835   */\n      dup3\n        /* \"#utility.yul\":11799:11836   */\n      tag_81\n      jump\t// in\n    tag_254:\n        /* \"#utility.yul\":11901:11919   */\n      0xffffffffffffffff\n        /* \"#utility.yul\":11893:11899   */\n      dup2\n        /* \"#utility.yul\":11890:11920   */\n      gt\n        /* \"#utility.yul\":11887:11943   */\n      iszero\n      tag_255\n      jumpi\n        /* \"#utility.yul\":11923:11941   */\n      tag_256\n      tag_92\n      jump\t// in\n    tag_256:\n        /* \"#utility.yul\":11887:11943   */\n    tag_255:\n        /* \"#utility.yul\":11967:12005   */\n      tag_257\n        /* \"#utility.yul\":11999:12003   */\n      dup3\n        /* \"#utility.yul\":11993:12004   */\n      sload\n        /* \"#utility.yul\":11967:12005   */\n      tag_47\n      jump\t// in\n    tag_257:\n        /* \"#utility.yul\":12052:12119   */\n      tag_258\n        /* \"#utility.yul\":12112:12118   */\n      dup3\n        /* \"#utility.yul\":12104:12110   */\n      dup3\n        /* \"#utility.yul\":12098:12102   */\n      dup6\n        /* \"#utility.yul\":12052:12119   */\n      tag_114\n      jump\t// in\n    tag_258:\n        /* \"#utility.yul\":12146:12147   */\n      0x00\n        /* \"#utility.yul\":12170:12174   */\n      0x20\n        /* \"#utility.yul\":12157:12174   */\n      swap1\n      pop\n        /* \"#utility.yul\":12202:12204   */\n      0x1f\n        /* \"#utility.yul\":12194:12200   */\n      dup4\n        /* \"#utility.yul\":12191:12205   */\n      gt\n        /* \"#utility.yul\":12219:12220   */\n      0x01\n        /* \"#utility.yul\":12214:12832   */\n      dup2\n      eq\n      tag_260\n      jumpi\n        /* \"#utility.yul\":12876:12877   */\n      0x00\n        /* \"#utility.yul\":12893:12899   */\n      dup5\n        /* \"#utility.yul\":12890:12967   */\n      iszero\n      tag_261\n      jumpi\n        /* \"#utility.yul\":12942:12951   */\n      dup3\n        /* \"#utility.yul\":12937:12940   */\n      dup8\n        /* \"#utility.yul\":12933:12952   */\n      add\n        /* \"#utility.yul\":12927:12953   */\n      mload\n        /* \"#utility.yul\":12918:12953   */\n      swap1\n      pop\n        /* \"#utility.yul\":12890:12967   */\n    tag_261:\n        /* \"#utility.yul\":12993:13060   */\n      tag_262\n        /* \"#utility.yul\":13053:13059   */\n      dup6\n        /* \"#utility.yul\":13046:13051   */\n      dup3\n        /* \"#utility.yul\":12993:13060   */\n      tag_117\n      jump\t// in\n    tag_262:\n        /* \"#utility.yul\":12987:12991   */\n      dup7\n        /* \"#utility.yul\":12980:13061   */\n      sstore\n        /* \"#utility.yul\":12849:13071   */\n      pop\n        /* \"#utility.yul\":12184:13071   */\n      jump(tag_259)\n        /* \"#utility.yul\":12214:12832   */\n    tag_260:\n        /* \"#utility.yul\":12266:12270   */\n      0x1f\n        /* \"#utility.yul\":12262:12271   */\n      not\n        /* \"#utility.yul\":12254:12260   */\n      dup5\n        /* \"#utility.yul\":12250:12272   */\n      and\n        /* \"#utility.yul\":12300:12337   */\n      tag_263\n        /* \"#utility.yul\":12332:12336   */\n      dup7\n        /* \"#utility.yul\":12300:12337   */\n      tag_103\n      jump\t// in\n    tag_263:\n        /* \"#utility.yul\":12359:12360   */\n      0x00\n        /* \"#utility.yul\":12373:12581   */\n    tag_264:\n        /* \"#utility.yul\":12387:12394   */\n      dup3\n        /* \"#utility.yul\":12384:12385   */\n      dup2\n        /* \"#utility.yul\":12381:12395   */\n      lt\n        /* \"#utility.yul\":12373:12581   */\n      iszero\n      tag_266\n      jumpi\n        /* \"#utility.yul\":12466:12475   */\n      dup5\n        /* \"#utility.yul\":12461:12464   */\n      dup10\n        /* \"#utility.yul\":12457:12476   */\n      add\n        /* \"#utility.yul\":12451:12477   */\n      mload\n        /* \"#utility.yul\":12443:12449   */\n      dup3\n        /* \"#utility.yul\":12436:12478   */\n      sstore\n        /* \"#utility.yul\":12517:12518   */\n      0x01\n        /* \"#utility.yul\":12509:12515   */\n      dup3\n        /* \"#utility.yul\":12505:12519   */\n      add\n        /* \"#utility.yul\":12495:12519   */\n      swap2\n      pop\n        /* \"#utility.yul\":12564:12566   */\n      0x20\n        /* \"#utility.yul\":12553:12562   */\n      dup6\n        /* \"#utility.yul\":12549:12567   */\n      add\n        /* \"#utility.yul\":12536:12567   */\n      swap5\n      pop\n        /* \"#utility.yul\":12410:12414   */\n      0x20\n        /* \"#utility.yul\":12407:12408   */\n      dup2\n        /* \"#utility.yul\":12403:12415   */\n      add\n        /* \"#utility.yul\":12398:12415   */\n      swap1\n      pop\n        /* \"#utility.yul\":12373:12581   */\n      jump(tag_264)\n    tag_266:\n        /* \"#utility.yul\":12609:12615   */\n      dup7\n        /* \"#utility.yul\":12600:12607   */\n      dup4\n        /* \"#utility.yul\":12597:12616   */\n      lt\n        /* \"#utility.yul\":12594:12773   */\n      iszero\n      tag_267\n      jumpi\n        /* \"#utility.yul\":12667:12676   */\n      dup5\n        /* \"#utility.yul\":12662:12665   */\n      dup10\n        /* \"#utility.yul\":12658:12677   */\n      add\n        /* \"#utility.yul\":12652:12678   */\n      mload\n        /* \"#utility.yul\":12710:12758   */\n      tag_268\n        /* \"#utility.yul\":12752:12756   */\n      0x1f\n        /* \"#utility.yul\":12744:12750   */\n      dup10\n        /* \"#utility.yul\":12740:12757   */\n      and\n        /* \"#utility.yul\":12729:12738   */\n      dup3\n        /* \"#utility.yul\":12710:12758   */\n      tag_116\n      jump\t// in\n    tag_268:\n        /* \"#utility.yul\":12702:12708   */\n      dup4\n        /* \"#utility.yul\":12695:12759   */\n      sstore\n        /* \"#utility.yul\":12617:12773   */\n      pop\n        /* \"#utility.yul\":12594:12773   */\n    tag_267:\n        /* \"#utility.yul\":12819:12820   */\n      0x01\n        /* \"#utility.yul\":12815:12816   */\n      0x02\n        /* \"#utility.yul\":12807:12813   */\n      dup9\n        /* \"#utility.yul\":12803:12817   */\n      mul\n        /* \"#utility.yul\":12799:12821   */\n      add\n        /* \"#utility.yul\":12793:12797   */\n      dup9\n        /* \"#utility.yul\":12786:12822   */\n      sstore\n        /* \"#utility.yul\":12221:12832   */\n      pop\n      pop\n      pop\n        /* \"#utility.yul\":12184:13071   */\n    tag_259:\n      pop\n        /* \"#utility.yul\":11774:13077   */\n      pop\n      pop\n      pop\n        /* \"#utility.yul\":11682:13077   */\n      pop\n      pop\n      jump\t// out\n        /* \"#utility.yul\":13083:13263   */\n    tag_118:\n        /* \"#utility.yul\":13131:13208   */\n      0x4e487b7100000000000000000000000000000000000000000000000000000000\n        /* \"#utility.yul\":13128:13129   */\n      0x00\n        /* \"#utility.yul\":13121:13209   */\n      mstore\n        /* \"#utility.yul\":13228:13232   */\n      0x11\n        /* \"#utility.yul\":13225:13226   */\n      0x04\n        /* \"#utility.yul\":13218:13233   */\n      mstore\n        /* \"#utility.yul\":13252:13256   */\n      0x24\n        /* \"#utility.yul\":13249:13250   */\n      0x00\n        /* \"#utility.yul\":13242:13257   */\n      revert\n        /* \"#utility.yul\":13269:13463   */\n    tag_69:\n        /* \"#utility.yul\":13309:13313   */\n      0x00\n        /* \"#utility.yul\":13329:13349   */\n      tag_271\n        /* \"#utility.yul\":13347:13348   */\n      dup3\n        /* \"#utility.yul\":13329:13349   */\n      tag_75\n      jump\t// in\n    tag_271:\n        /* \"#utility.yul\":13324:13349   */\n      swap2\n      pop\n        /* \"#utility.yul\":13363:13383   */\n      tag_272\n        /* \"#utility.yul\":13381:13382   */\n      dup4\n        /* \"#utility.yul\":13363:13383   */\n      tag_75\n      jump\t// in\n    tag_272:\n        /* \"#utility.yul\":13358:13383   */\n      swap3\n      pop\n        /* \"#utility.yul\":13407:13408   */\n      dup3\n        /* \"#utility.yul\":13404:13405   */\n      dup3\n        /* \"#utility.yul\":13400:13409   */\n      sub\n        /* \"#utility.yul\":13392:13409   */\n      swap1\n      pop\n        /* \"#utility.yul\":13431:13432   */\n      dup2\n        /* \"#utility.yul\":13425:13429   */\n      dup2\n        /* \"#utility.yul\":13422:13433   */\n      gt\n        /* \"#utility.yul\":13419:13456   */\n      iszero\n      tag_273\n      jumpi\n        /* \"#utility.yul\":13436:13454   */\n      tag_274\n      tag_118\n      jump\t// in\n    tag_274:\n        /* \"#utility.yul\":13419:13456   */\n    tag_273:\n        /* \"#utility.yul\":13269:13463   */\n      swap3\n      swap2\n      pop\n      pop\n      jump\t// out\n        /* \"#utility.yul\":13469:13990   */\n    tag_71:\n        /* \"#utility.yul\":13632:13636   */\n      0x00\n        /* \"#utility.yul\":13670:13672   */\n      0x60\n        /* \"#utility.yul\":13659:13668   */\n      dup3\n        /* \"#utility.yul\":13655:13673   */\n      add\n        /* \"#utility.yul\":13647:13673   */\n      swap1\n      pop\n        /* \"#utility.yul\":13683:13754   */\n      tag_276\n        /* \"#utility.yul\":13751:13752   */\n      0x00\n        /* \"#utility.yul\":13740:13749   */\n      dup4\n        /* \"#utility.yul\":13736:13753   */\n      add\n        /* \"#utility.yul\":13727:13733   */\n      dup7\n        /* \"#utility.yul\":13683:13754   */\n      tag_101\n      jump\t// in\n    tag_276:\n        /* \"#utility.yul\":13801:13810   */\n      dup2\n        /* \"#utility.yul\":13795:13799   */\n      dup2\n        /* \"#utility.yul\":13791:13811   */\n      sub\n        /* \"#utility.yul\":13786:13788   */\n      0x20\n        /* \"#utility.yul\":13775:13784   */\n      dup4\n        /* \"#utility.yul\":13771:13789   */\n      add\n        /* \"#utility.yul\":13764:13812   */\n      mstore\n        /* \"#utility.yul\":13829:13907   */\n      tag_277\n        /* \"#utility.yul\":13902:13906   */\n      dup2\n        /* \"#utility.yul\":13893:13899   */\n      dup6\n        /* \"#utility.yul\":13829:13907   */\n      tag_85\n      jump\t// in\n    tag_277:\n        /* \"#utility.yul\":13821:13907   */\n      swap1\n      pop\n        /* \"#utility.yul\":13917:13983   */\n      tag_278\n        /* \"#utility.yul\":13979:13981   */\n      0x40\n        /* \"#utility.yul\":13968:13977   */\n      dup4\n        /* \"#utility.yul\":13964:13982   */\n      add\n        /* \"#utility.yul\":13955:13961   */\n      dup5\n        /* \"#utility.yul\":13917:13983   */\n      tag_86\n      jump\t// in\n    tag_278:\n        /* \"#utility.yul\":13469:13990   */\n      swap5\n      swap4\n      pop\n      pop\n      pop\n      pop\n      jump\t// out\n\n    auxdata: 0xa26469706673582212206a37ec7d0896df31c621fb9bfe48c5219bd4bd3aa80e052654a6bddec5f66c9864736f6c63430008130033\n}\n",
				"bytecode": {
					"linkReferences": {},
					"object": "608060405234801561001057600080fd5b50336000806101000a81548173ffffffffffffffffffffffffffffffffffffffff021916908373ffffffffffffffffffffffffffffffffffffffff160217905550610d18806100606000396000f3fe608060405234801561001057600080fd5b50600436106100625760003560e01c806341c0e1b51461006757806348284b62146100715780638d9776721461008d5780638da5cb5b146100be5780639507d39a146100dc578063b6a46b3b1461010d575b600080fd5b61006f610129565b005b61008b6004803603810190610086919061057a565b6101d0565b005b6100a760048036038101906100a291906105ba565b61024a565b6040516100b5929190610686565b60405180910390f35b6100c6610313565b6040516100d391906106f7565b60405180910390f35b6100f660048036038101906100f191906105ba565b610337565b604051610104929190610686565b60405180910390f35b61012760048036038101906101229190610847565b610428565b005b60008054906101000a900473ffffffffffffffffffffffffffffffffffffffff1673ffffffffffffffffffffffffffffffffffffffff163373ffffffffffffffffffffffffffffffffffffffff16146101b7576040517f08c379a00000000000000000000000000000000000000000000000000000000081526004016101ae906108dc565b60405180910390fd5b3373ffffffffffffffffffffffffffffffffffffffff16ff5b80600183815481106101e5576101e46108fc565b5b906000526020600020906002020160010160006101000a81548160ff0219169083151502179055507f40f4ecd2923438fa255c9ec921b119ae150358907bbc9ba7d5c34bf9c151b6ac828260405161023e92919061093a565b60405180910390a15050565b6001818154811061025a57600080fd5b906000526020600020906002020160009150905080600001805461027d90610992565b80601f01602080910402602001604051908101604052809291908181526020018280546102a990610992565b80156102f65780601f106102cb576101008083540402835291602001916102f6565b820191906000526020600020905b8154815290600101906020018083116102d957829003601f168201915b5050505050908060010160009054906101000a900460ff16905082565b60008054906101000a900473ffffffffffffffffffffffffffffffffffffffff1681565b606060006001838154811061034f5761034e6108fc565b5b906000526020600020906002020160000160018481548110610374576103736108fc565b5b906000526020600020906002020160010160009054906101000a900460ff1681805461039f90610992565b80601f01602080910402602001604051908101604052809291908181526020018280546103cb90610992565b80156104185780601f106103ed57610100808354040283529160200191610418565b820191906000526020600020905b8154815290600101906020018083116103fb57829003601f168201915b5050505050915091509150915091565b6001604051806040016040528083815260200160001515815250908060018154018082558091505060019003906000526020600020906002020160009091909190915060008201518160000190816104809190610b6f565b5060208201518160010160006101000a81548160ff02191690831515021790555050506000600180805490506104b69190610c70565b90507f8de7fcf423c3be88a1d33619458254be5a02866653e3209631248661ba7db881818360006040516104ec93929190610ca4565b60405180910390a15050565b6000604051905090565b600080fd5b600080fd5b6000819050919050565b61051f8161050c565b811461052a57600080fd5b50565b60008135905061053c81610516565b92915050565b60008115159050919050565b61055781610542565b811461056257600080fd5b50565b6000813590506105748161054e565b92915050565b6000806040838503121561059157610590610502565b5b600061059f8582860161052d565b92505060206105b085828601610565565b9150509250929050565b6000602082840312156105d0576105cf610502565b5b60006105de8482850161052d565b91505092915050565b600081519050919050565b600082825260208201905092915050565b60005b83811015610621578082015181840152602081019050610606565b60008484015250505050565b6000601f19601f8301169050919050565b6000610649826105e7565b61065381856105f2565b9350610663818560208601610603565b61066c8161062d565b840191505092915050565b61068081610542565b82525050565b600060408201905081810360008301526106a0818561063e565b90506106af6020830184610677565b9392505050565b600073ffffffffffffffffffffffffffffffffffffffff82169050919050565b60006106e1826106b6565b9050919050565b6106f1816106d6565b82525050565b600060208201905061070c60008301846106e8565b92915050565b600080fd5b600080fd5b7f4e487b7100000000000000000000000000000000000000000000000000000000600052604160045260246000fd5b6107548261062d565b810181811067ffffffffffffffff821117156107735761077261071c565b5b80604052505050565b60006107866104f8565b9050610792828261074b565b919050565b600067ffffffffffffffff8211156107b2576107b161071c565b5b6107bb8261062d565b9050602081019050919050565b82818337600083830152505050565b60006107ea6107e584610797565b61077c565b90508281526020810184848401111561080657610805610717565b5b6108118482856107c8565b509392505050565b600082601f83011261082e5761082d610712565b5b813561083e8482602086016107d7565b91505092915050565b60006020828403121561085d5761085c610502565b5b600082013567ffffffffffffffff81111561087b5761087a610507565b5b61088784828501610819565b91505092915050565b7f6e6f7420636f6e7472616374206f776e65720000000000000000000000000000600082015250565b60006108c66012836105f2565b91506108d182610890565b602082019050919050565b600060208201905081810360008301526108f5816108b9565b9050919050565b7f4e487b7100000000000000000000000000000000000000000000000000000000600052603260045260246000fd5b6109348161050c565b82525050565b600060408201905061094f600083018561092b565b61095c6020830184610677565b9392505050565b7f4e487b7100000000000000000000000000000000000000000000000000000000600052602260045260246000fd5b600060028204905060018216806109aa57607f821691505b6020821081036109bd576109bc610963565b5b50919050565b60008190508160005260206000209050919050565b60006020601f8301049050919050565b600082821b905092915050565b600060088302610a257fffffffffffffffffffffffffffffffffffffffffffffffffffffffffffffffff826109e8565b610a2f86836109e8565b95508019841693508086168417925050509392505050565b6000819050919050565b6000610a6c610a67610a628461050c565b610a47565b61050c565b9050919050565b6000819050919050565b610a8683610a51565b610a9a610a9282610a73565b8484546109f5565b825550505050565b600090565b610aaf610aa2565b610aba818484610a7d565b505050565b5b81811015610ade57610ad3600082610aa7565b600181019050610ac0565b5050565b601f821115610b2357610af4816109c3565b610afd846109d8565b81016020851015610b0c578190505b610b20610b18856109d8565b830182610abf565b50505b505050565b600082821c905092915050565b6000610b4660001984600802610b28565b1980831691505092915050565b6000610b5f8383610b35565b9150826002028217905092915050565b610b78826105e7565b67ffffffffffffffff811115610b9157610b9061071c565b5b610b9b8254610992565b610ba6828285610ae2565b600060209050601f831160018114610bd95760008415610bc7578287015190505b610bd18582610b53565b865550610c39565b601f198416610be7866109c3565b60005b82811015610c0f57848901518255600182019150602085019450602081019050610bea565b86831015610c2c5784890151610c28601f891682610b35565b8355505b6001600288020188555050505b505050505050565b7f4e487b7100000000000000000000000000000000000000000000000000000000600052601160045260246000fd5b6000610c7b8261050c565b9150610c868361050c565b9250828203905081811115610c9e57610c9d610c41565b5b92915050565b6000606082019050610cb9600083018661092b565b8181036020830152610ccb818561063e565b9050610cda6040830184610677565b94935050505056fea26469706673582212206a37ec7d0896df31c621fb9bfe48c5219bd4bd3aa80e052654a6bddec5f66c9864736f6c63430008130033",
					"opcodes": "PUSH1 0x80 PUSH1 0x40 MSTORE CALLVALUE DUP1 ISZERO PUSH2 0x10 JUMPI PUSH1 0x0 DUP1 REVERT JUMPDEST POP CALLER PUSH1 0x0 DUP1 PUSH2 0x100 EXP DUP2 SLOAD DUP2 PUSH20 0xFFFFFFFFFFFFFFFFFFFFFFFFFFFFFFFFFFFFFFFF MUL NOT AND SWAP1 DUP4 PUSH20 0xFFFFFFFFFFFFFFFFFFFFFFFFFFFFFFFFFFFFFFFF AND MUL OR SWAP1 SSTORE POP PUSH2 0xD18 DUP1 PUSH2 0x60 PUSH1 0x0 CODECOPY PUSH1 0x0 RETURN INVALID PUSH1 0x80 PUSH1 0x40 MSTORE CALLVALUE DUP1 ISZERO PUSH2 0x10 JUMPI PUSH1 0x0 DUP1 REVERT JUMPDEST POP PUSH1 0x4 CALLDATASIZE LT PUSH2 0x62 JUMPI PUSH1 0x0 CALLDATALOAD PUSH1 0xE0 SHR DUP1 PUSH4 0x41C0E1B5 EQ PUSH2 0x67 JUMPI DUP1 PUSH4 0x48284B62 EQ PUSH2 0x71 JUMPI DUP1 PUSH4 0x8D977672 EQ PUSH2 0x8D JUMPI DUP1 PUSH4 0x8DA5CB5B EQ PUSH2 0xBE JUMPI DUP1 PUSH4 0x9507D39A EQ PUSH2 0xDC JUMPI DUP1 PUSH4 0xB6A46B3B EQ PUSH2 0x10D JUMPI JUMPDEST PUSH1 0x0 DUP1 REVERT JUMPDEST PUSH2 0x6F PUSH2 0x129 JUMP JUMPDEST STOP JUMPDEST PUSH2 0x8B PUSH1 0x4 DUP1 CALLDATASIZE SUB DUP2 ADD SWAP1 PUSH2 0x86 SWAP2 SWAP1 PUSH2 0x57A JUMP JUMPDEST PUSH2 0x1D0 JUMP JUMPDEST STOP JUMPDEST PUSH2 0xA7 PUSH1 0x4 DUP1 CALLDATASIZE SUB DUP2 ADD SWAP1 PUSH2 0xA2 SWAP2 SWAP1 PUSH2 0x5BA JUMP JUMPDEST PUSH2 0x24A JUMP JUMPDEST PUSH1 0x40 MLOAD PUSH2 0xB5 SWAP3 SWAP2 SWAP1 PUSH2 0x686 JUMP JUMPDEST PUSH1 0x40 MLOAD DUP1 SWAP2 SUB SWAP1 RETURN JUMPDEST PUSH2 0xC6 PUSH2 0x313 JUMP JUMPDEST PUSH1 0x40 MLOAD PUSH2 0xD3 SWAP2 SWAP1 PUSH2 0x6F7 JUMP JUMPDEST PUSH1 0x40 MLOAD DUP1 SWAP2 SUB SWAP1 RETURN JUMPDEST PUSH2 0xF6 PUSH1 0x4 DUP1 CALLDATASIZE SUB DUP2 ADD SWAP1 PUSH2 0xF1 SWAP2 SWAP1 PUSH2 0x5BA JUMP JUMPDEST PUSH2 0x337 JUMP JUMPDEST PUSH1 0x40 MLOAD PUSH2 0x104 SWAP3 SWAP2 SWAP1 PUSH2 0x686 JUMP JUMPDEST PUSH1 0x40 MLOAD DUP1 SWAP2 SUB SWAP1 RETURN JUMPDEST PUSH2 0x127 PUSH1 0x4 DUP1 CALLDATASIZE SUB DUP2 ADD SWAP1 PUSH2 0x122 SWAP2 SWAP1 PUSH2 0x847 JUMP JUMPDEST PUSH2 0x428 JUMP JUMPDEST STOP JUMPDEST PUSH1 0x0 DUP1 SLOAD SWAP1 PUSH2 0x100 EXP SWAP1 DIV PUSH20 0xFFFFFFFFFFFFFFFFFFFFFFFFFFFFFFFFFFFFFFFF AND PUSH20 0xFFFFFFFFFFFFFFFFFFFFFFFFFFFFFFFFFFFFFFFF AND CALLER PUSH20 0xFFFFFFFFFFFFFFFFFFFFFFFFFFFFFFFFFFFFFFFF AND EQ PUSH2 0x1B7 JUMPI PUSH1 0x40 MLOAD PUSH32 0x8C379A000000000000000000000000000000000000000000000000000000000 DUP2 MSTORE PUSH1 0x4 ADD PUSH2 0x1AE SWAP1 PUSH2 0x8DC JUMP JUMPDEST PUSH1 0x40 MLOAD DUP1 SWAP2 SUB SWAP1 REVERT JUMPDEST CALLER PUSH20 0xFFFFFFFFFFFFFFFFFFFFFFFFFFFFFFFFFFFFFFFF AND SELFDESTRUCT JUMPDEST DUP1 PUSH1 0x1 DUP4 DUP2 SLOAD DUP2 LT PUSH2 0x1E5 JUMPI PUSH2 0x1E4 PUSH2 0x8FC JUMP JUMPDEST JUMPDEST SWAP1 PUSH1 0x0 MSTORE PUSH1 0x20 PUSH1 0x0 KECCAK256 SWAP1 PUSH1 0x2 MUL ADD PUSH1 0x1 ADD PUSH1 0x0 PUSH2 0x100 EXP DUP2 SLOAD DUP2 PUSH1 0xFF MUL NOT AND SWAP1 DUP4 ISZERO ISZERO MUL OR SWAP1 SSTORE POP PUSH32 0x40F4ECD2923438FA255C9EC921B119AE150358907BBC9BA7D5C34BF9C151B6AC DUP3 DUP3 PUSH1 0x40 MLOAD PUSH2 0x23E SWAP3 SWAP2 SWAP1 PUSH2 0x93A JUMP JUMPDEST PUSH1 0x40 MLOAD DUP1 SWAP2 SUB SWAP1 LOG1 POP POP JUMP JUMPDEST PUSH1 0x1 DUP2 DUP2 SLOAD DUP2 LT PUSH2 0x25A JUMPI PUSH1 0x0 DUP1 REVERT JUMPDEST SWAP1 PUSH1 0x0 MSTORE PUSH1 0x20 PUSH1 0x0 KECCAK256 SWAP1 PUSH1 0x2 MUL ADD PUSH1 0x0 SWAP2 POP SWAP1 POP DUP1 PUSH1 0x0 ADD DUP1 SLOAD PUSH2 0x27D SWAP1 PUSH2 0x992 JUMP JUMPDEST DUP1 PUSH1 0x1F ADD PUSH1 0x20 DUP1 SWAP2 DIV MUL PUSH1 0x20 ADD PUSH1 0x40 MLOAD SWAP1 DUP2 ADD PUSH1 0x40 MSTORE DUP1 SWAP3 SWAP2 SWAP1 DUP2 DUP2 MSTORE PUSH1 0x20 ADD DUP3 DUP1 SLOAD PUSH2 0x2A9 SWAP1 PUSH2 0x992 JUMP JUMPDEST DUP1 ISZERO PUSH2 0x2F6 JUMPI DUP1 PUSH1 0x1F LT PUSH2 0x2CB JUMPI PUSH2 0x100 DUP1 DUP4 SLOAD DIV MUL DUP4 MSTORE SWAP2 PUSH1 0x20 ADD SWAP2 PUSH2 0x2F6 JUMP JUMPDEST DUP3 ADD SWAP2 SWAP1 PUSH1 0x0 MSTORE PUSH1 0x20 PUSH1 0x0 KECCAK256 SWAP1 JUMPDEST DUP2 SLOAD DUP2 MSTORE SWAP1 PUSH1 0x1 ADD SWAP1 PUSH1 0x20 ADD DUP1 DUP4 GT PUSH2 0x2D9 JUMPI DUP3 SWAP1 SUB PUSH1 0x1F AND DUP3 ADD SWAP2 JUMPDEST POP POP POP POP POP SWAP1 DUP1 PUSH1 0x1 ADD PUSH1 0x0 SWAP1 SLOAD SWAP1 PUSH2 0x100 EXP SWAP1 DIV PUSH1 0xFF AND SWAP1 POP DUP3 JUMP JUMPDEST PUSH1 0x0 DUP1 SLOAD SWAP1 PUSH2 0x100 EXP SWAP1 DIV PUSH20 0xFFFFFFFFFFFFFFFFFFFFFFFFFFFFFFFFFFFFFFFF AND DUP2 JUMP JUMPDEST PUSH1 0x60 PUSH1 0x0 PUSH1 0x1 DUP4 DUP2 SLOAD DUP2 LT PUSH2 0x34F JUMPI PUSH2 0x34E PUSH2 0x8FC JUMP JUMPDEST JUMPDEST SWAP1 PUSH1 0x0 MSTORE PUSH1 0x20 PUSH1 0x0 KECCAK256 SWAP1 PUSH1 0x2 MUL ADD PUSH1 0x0 ADD PUSH1 0x1 DUP5 DUP2 SLOAD DUP2 LT PUSH2 0x374 JUMPI PUSH2 0x373 PUSH2 0x8FC JUMP JUMPDEST JUMPDEST SWAP1 PUSH1 0x0 MSTORE PUSH1 0x20 PUSH1 0x0 KECCAK256 SWAP1 PUSH1 0x2 MUL ADD PUSH1 0x1 ADD PUSH1 0x0 SWAP1 SLOAD SWAP1 PUSH2 0x100 EXP SWAP1 DIV PUSH1 0xFF AND DUP2 DUP1 SLOAD PUSH2 0x39F SWAP1 PUSH2 0x992 JUMP JUMPDEST DUP1 PUSH1 0x1F ADD PUSH1 0x20 DUP1 SWAP2 DIV MUL PUSH1 0x20 ADD PUSH1 0x40 MLOAD SWAP1 DUP2 ADD PUSH1 0x40 MSTORE DUP1 SWAP3 SWAP2 SWAP1 DUP2 DUP2 MSTORE PUSH1 0x20 ADD DUP3 DUP1 SLOAD PUSH2 0x3CB SWAP1 PUSH2 0x992 JUMP JUMPDEST DUP1 ISZERO PUSH2 0x418 JUMPI DUP1 PUSH1 0x1F LT PUSH2 0x3ED JUMPI PUSH2 0x100 DUP1 DUP4 SLOAD DIV MUL DUP4 MSTORE SWAP2 PUSH1 0x20 ADD SWAP2 PUSH2 0x418 JUMP JUMPDEST DUP3 ADD SWAP2 SWAP1 PUSH1 0x0 MSTORE PUSH1 0x20 PUSH1 0x0 KECCAK256 SWAP1 JUMPDEST DUP2 SLOAD DUP2 MSTORE SWAP1 PUSH1 0x1 ADD SWAP1 PUSH1 0x20 ADD DUP1 DUP4 GT PUSH2 0x3FB JUMPI DUP3 SWAP1 SUB PUSH1 0x1F AND DUP3 ADD SWAP2 JUMPDEST POP POP POP POP POP SWAP2 POP SWAP2 POP SWAP2 POP SWAP2 POP SWAP2 JUMP JUMPDEST PUSH1 0x1 PUSH1 0x40 MLOAD DUP1 PUSH1 0x40 ADD PUSH1 0x40 MSTORE DUP1 DUP4 DUP2 MSTORE PUSH1 0x20 ADD PUSH1 0x0 ISZERO ISZERO DUP2 MSTORE POP SWAP1 DUP1 PUSH1 0x1 DUP2 SLOAD ADD DUP1 DUP3 SSTORE DUP1 SWAP2 POP POP PUSH1 0x1 SWAP1 SUB SWAP1 PUSH1 0x0 MSTORE PUSH1 0x20 PUSH1 0x0 KECCAK256 SWAP1 PUSH1 0x2 MUL ADD PUSH1 0x0 SWAP1 SWAP2 SWAP1 SWAP2 SWAP1 SWAP2 POP PUSH1 0x0 DUP3 ADD MLOAD DUP2 PUSH1 0x0 ADD SWAP1 DUP2 PUSH2 0x480 SWAP2 SWAP1 PUSH2 0xB6F JUMP JUMPDEST POP PUSH1 0x20 DUP3 ADD MLOAD DUP2 PUSH1 0x1 ADD PUSH1 0x0 PUSH2 0x100 EXP DUP2 SLOAD DUP2 PUSH1 0xFF MUL NOT AND SWAP1 DUP4 ISZERO ISZERO MUL OR SWAP1 SSTORE POP POP POP PUSH1 0x0 PUSH1 0x1 DUP1 DUP1 SLOAD SWAP1 POP PUSH2 0x4B6 SWAP2 SWAP1 PUSH2 0xC70 JUMP JUMPDEST SWAP1 POP PUSH32 0x8DE7FCF423C3BE88A1D33619458254BE5A02866653E3209631248661BA7DB881 DUP2 DUP4 PUSH1 0x0 PUSH1 0x40 MLOAD PUSH2 0x4EC SWAP4 SWAP3 SWAP2 SWAP1 PUSH2 0xCA4 JUMP JUMPDEST PUSH1 0x40 MLOAD DUP1 SWAP2 SUB SWAP1 LOG1 POP POP JUMP JUMPDEST PUSH1 0x0 PUSH1 0x40 MLOAD SWAP1 POP SWAP1 JUMP JUMPDEST PUSH1 0x0 DUP1 REVERT JUMPDEST PUSH1 0x0 DUP1 REVERT JUMPDEST PUSH1 0x0 DUP2 SWAP1 POP SWAP2 SWAP1 POP JUMP JUMPDEST PUSH2 0x51F DUP2 PUSH2 0x50C JUMP JUMPDEST DUP2 EQ PUSH2 0x52A JUMPI PUSH1 0x0 DUP1 REVERT JUMPDEST POP JUMP JUMPDEST PUSH1 0x0 DUP2 CALLDATALOAD SWAP1 POP PUSH2 0x53C DUP2 PUSH2 0x516 JUMP JUMPDEST SWAP3 SWAP2 POP POP JUMP JUMPDEST PUSH1 0x0 DUP2 ISZERO ISZERO SWAP1 POP SWAP2 SWAP1 POP JUMP JUMPDEST PUSH2 0x557 DUP2 PUSH2 0x542 JUMP JUMPDEST DUP2 EQ PUSH2 0x562 JUMPI PUSH1 0x0 DUP1 REVERT JUMPDEST POP JUMP JUMPDEST PUSH1 0x0 DUP2 CALLDATALOAD SWAP1 POP PUSH2 0x574 DUP2 PUSH2 0x54E JUMP JUMPDEST SWAP3 SWAP2 POP POP JUMP JUMPDEST PUSH1 0x0 DUP1 PUSH1 0x40 DUP4 DUP6 SUB SLT ISZERO PUSH2 0x591 JUMPI PUSH2 0x590 PUSH2 0x502 JUMP JUMPDEST JUMPDEST PUSH1 0x0 PUSH2 0x59F DUP6 DUP3 DUP7 ADD PUSH2 0x52D JUMP JUMPDEST SWAP3 POP POP PUSH1 0x20 PUSH2 0x5B0 DUP6 DUP3 DUP7 ADD PUSH2 0x565 JUMP JUMPDEST SWAP2 POP POP SWAP3 POP SWAP3 SWAP1 POP JUMP JUMPDEST PUSH1 0x0 PUSH1 0x20 DUP3 DUP5 SUB SLT ISZERO PUSH2 0x5D0 JUMPI PUSH2 0x5CF PUSH2 0x502 JUMP JUMPDEST JUMPDEST PUSH1 0x0 PUSH2 0x5DE DUP5 DUP3 DUP6 ADD PUSH2 0x52D JUMP JUMPDEST SWAP2 POP POP SWAP3 SWAP2 POP POP JUMP JUMPDEST PUSH1 0x0 DUP2 MLOAD SWAP1 POP SWAP2 SWAP1 POP JUMP JUMPDEST PUSH1 0x0 DUP3 DUP3 MSTORE PUSH1 0x20 DUP3 ADD SWAP1 POP SWAP3 SWAP2 POP POP JUMP JUMPDEST PUSH1 0x0 JUMPDEST DUP4 DUP2 LT ISZERO PUSH2 0x621 JUMPI DUP1 DUP3 ADD MLOAD DUP2 DUP5 ADD MSTORE PUSH1 0x20 DUP2 ADD SWAP1 POP PUSH2 0x606 JUMP JUMPDEST PUSH1 0x0 DUP5 DUP5 ADD MSTORE POP POP POP POP JUMP JUMPDEST PUSH1 0x0 PUSH1 0x1F NOT PUSH1 0x1F DUP4 ADD AND SWAP1 POP SWAP2 SWAP1 POP JUMP JUMPDEST PUSH1 0x0 PUSH2 0x649 DUP3 PUSH2 0x5E7 JUMP JUMPDEST PUSH2 0x653 DUP2 DUP6 PUSH2 0x5F2 JUMP JUMPDEST SWAP4 POP PUSH2 0x663 DUP2 DUP6 PUSH1 0x20 DUP7 ADD PUSH2 0x603 JUMP JUMPDEST PUSH2 0x66C DUP2 PUSH2 0x62D JUMP JUMPDEST DUP5 ADD SWAP2 POP POP SWAP3 SWAP2 POP POP JUMP JUMPDEST PUSH2 0x680 DUP2 PUSH2 0x542 JUMP JUMPDEST DUP3 MSTORE POP POP JUMP JUMPDEST PUSH1 0x0 PUSH1 0x40 DUP3 ADD SWAP1 POP DUP2 DUP2 SUB PUSH1 0x0 DUP4 ADD MSTORE PUSH2 0x6A0 DUP2 DUP6 PUSH2 0x63E JUMP JUMPDEST SWAP1 POP PUSH2 0x6AF PUSH1 0x20 DUP4 ADD DUP5 PUSH2 0x677 JUMP JUMPDEST SWAP4 SWAP3 POP POP POP JUMP JUMPDEST PUSH1 0x0 PUSH20 0xFFFFFFFFFFFFFFFFFFFFFFFFFFFFFFFFFFFFFFFF DUP3 AND SWAP1 POP SWAP2 SWAP1 POP JUMP JUMPDEST PUSH1 0x0 PUSH2 0x6E1 DUP3 PUSH2 0x6B6 JUMP JUMPDEST SWAP1 POP SWAP2 SWAP1 POP JUMP JUMPDEST PUSH2 0x6F1 DUP2 PUSH2 0x6D6 JUMP JUMPDEST DUP3 MSTORE POP POP JUMP JUMPDEST PUSH1 0x0 PUSH1 0x20 DUP3 ADD SWAP1 POP PUSH2 0x70C PUSH1 0x0 DUP4 ADD DUP5 PUSH2 0x6E8 JUMP JUMPDEST SWAP3 SWAP2 POP POP JUMP JUMPDEST PUSH1 0x0 DUP1 REVERT JUMPDEST PUSH1 0x0 DUP1 REVERT JUMPDEST PUSH32 0x4E487B7100000000000000000000000000000000000000000000000000000000 PUSH1 0x0 MSTORE PUSH1 0x41 PUSH1 0x4 MSTORE PUSH1 0x24 PUSH1 0x0 REVERT JUMPDEST PUSH2 0x754 DUP3 PUSH2 0x62D JUMP JUMPDEST DUP2 ADD DUP2 DUP2 LT PUSH8 0xFFFFFFFFFFFFFFFF DUP3 GT OR ISZERO PUSH2 0x773 JUMPI PUSH2 0x772 PUSH2 0x71C JUMP JUMPDEST JUMPDEST DUP1 PUSH1 0x40 MSTORE POP POP POP JUMP JUMPDEST PUSH1 0x0 PUSH2 0x786 PUSH2 0x4F8 JUMP JUMPDEST SWAP1 POP PUSH2 0x792 DUP3 DUP3 PUSH2 0x74B JUMP JUMPDEST SWAP2 SWAP1 POP JUMP JUMPDEST PUSH1 0x0 PUSH8 0xFFFFFFFFFFFFFFFF DUP3 GT ISZERO PUSH2 0x7B2 JUMPI PUSH2 0x7B1 PUSH2 0x71C JUMP JUMPDEST JUMPDEST PUSH2 0x7BB DUP3 PUSH2 0x62D JUMP JUMPDEST SWAP1 POP PUSH1 0x20 DUP2 ADD SWAP1 POP SWAP2 SWAP1 POP JUMP JUMPDEST DUP3 DUP2 DUP4 CALLDATACOPY PUSH1 0x0 DUP4 DUP4 ADD MSTORE POP POP POP JUMP JUMPDEST PUSH1 0x0 PUSH2 0x7EA PUSH2 0x7E5 DUP5 PUSH2 0x797 JUMP JUMPDEST PUSH2 0x77C JUMP JUMPDEST SWAP1 POP DUP3 DUP2 MSTORE PUSH1 0x20 DUP2 ADD DUP5 DUP5 DUP5 ADD GT ISZERO PUSH2 0x806 JUMPI PUSH2 0x805 PUSH2 0x717 JUMP JUMPDEST JUMPDEST PUSH2 0x811 DUP5 DUP3 DUP6 PUSH2 0x7C8 JUMP JUMPDEST POP SWAP4 SWAP3 POP POP POP JUMP JUMPDEST PUSH1 0x0 DUP3 PUSH1 0x1F DUP4 ADD SLT PUSH2 0x82E JUMPI PUSH2 0x82D PUSH2 0x712 JUMP JUMPDEST JUMPDEST DUP2 CALLDATALOAD PUSH2 0x83E DUP5 DUP3 PUSH1 0x20 DUP7 ADD PUSH2 0x7D7 JUMP JUMPDEST SWAP2 POP POP SWAP3 SWAP2 POP POP JUMP JUMPDEST PUSH1 0x0 PUSH1 0x20 DUP3 DUP5 SUB SLT ISZERO PUSH2 0x85D JUMPI PUSH2 0x85C PUSH2 0x502 JUMP JUMPDEST JUMPDEST PUSH1 0x0 DUP3 ADD CALLDATALOAD PUSH8 0xFFFFFFFFFFFFFFFF DUP2 GT ISZERO PUSH2 0x87B JUMPI PUSH2 0x87A PUSH2 0x507 JUMP JUMPDEST JUMPDEST PUSH2 0x887 DUP5 DUP3 DUP6 ADD PUSH2 0x819 JUMP JUMPDEST SWAP2 POP POP SWAP3 SWAP2 POP POP JUMP JUMPDEST PUSH32 0x6E6F7420636F6E7472616374206F776E65720000000000000000000000000000 PUSH1 0x0 DUP3 ADD MSTORE POP JUMP JUMPDEST PUSH1 0x0 PUSH2 0x8C6 PUSH1 0x12 DUP4 PUSH2 0x5F2 JUMP JUMPDEST SWAP2 POP PUSH2 0x8D1 DUP3 PUSH2 0x890 JUMP JUMPDEST PUSH1 0x20 DUP3 ADD SWAP1 POP SWAP2 SWAP1 POP JUMP JUMPDEST PUSH1 0x0 PUSH1 0x20 DUP3 ADD SWAP1 POP DUP2 DUP2 SUB PUSH1 0x0 DUP4 ADD MSTORE PUSH2 0x8F5 DUP2 PUSH2 0x8B9 JUMP JUMPDEST SWAP1 POP SWAP2 SWAP1 POP JUMP JUMPDEST PUSH32 0x4E487B7100000000000000000000000000000000000000000000000000000000 PUSH1 0x0 MSTORE PUSH1 0x32 PUSH1 0x4 MSTORE PUSH1 0x24 PUSH1 0x0 REVERT JUMPDEST PUSH2 0x934 DUP2 PUSH2 0x50C JUMP JUMPDEST DUP3 MSTORE POP POP JUMP JUMPDEST PUSH1 0x0 PUSH1 0x40 DUP3 ADD SWAP1 POP PUSH2 0x94F PUSH1 0x0 DUP4 ADD DUP6 PUSH2 0x92B JUMP JUMPDEST PUSH2 0x95C PUSH1 0x20 DUP4 ADD DUP5 PUSH2 0x677 JUMP JUMPDEST SWAP4 SWAP3 POP POP POP JUMP JUMPDEST PUSH32 0x4E487B7100000000000000000000000000000000000000000000000000000000 PUSH1 0x0 MSTORE PUSH1 0x22 PUSH1 0x4 MSTORE PUSH1 0x24 PUSH1 0x0 REVERT JUMPDEST PUSH1 0x0 PUSH1 0x2 DUP3 DIV SWAP1 POP PUSH1 0x1 DUP3 AND DUP1 PUSH2 0x9AA JUMPI PUSH1 0x7F DUP3 AND SWAP2 POP JUMPDEST PUSH1 0x20 DUP3 LT DUP2 SUB PUSH2 0x9BD JUMPI PUSH2 0x9BC PUSH2 0x963 JUMP JUMPDEST JUMPDEST POP SWAP2 SWAP1 POP JUMP JUMPDEST PUSH1 0x0 DUP2 SWAP1 POP DUP2 PUSH1 0x0 MSTORE PUSH1 0x20 PUSH1 0x0 KECCAK256 SWAP1 POP SWAP2 SWAP1 POP JUMP JUMPDEST PUSH1 0x0 PUSH1 0x20 PUSH1 0x1F DUP4 ADD DIV SWAP1 POP SWAP2 SWAP1 POP JUMP JUMPDEST PUSH1 0x0 DUP3 DUP3 SHL SWAP1 POP SWAP3 SWAP2 POP POP JUMP JUMPDEST PUSH1 0x0 PUSH1 0x8 DUP4 MUL PUSH2 0xA25 PUSH32 0xFFFFFFFFFFFFFFFFFFFFFFFFFFFFFFFFFFFFFFFFFFFFFFFFFFFFFFFFFFFFFFFF DUP3 PUSH2 0x9E8 JUMP JUMPDEST PUSH2 0xA2F DUP7 DUP4 PUSH2 0x9E8 JUMP JUMPDEST SWAP6 POP DUP1 NOT DUP5 AND SWAP4 POP DUP1 DUP7 AND DUP5 OR SWAP3 POP POP POP SWAP4 SWAP3 POP POP POP JUMP JUMPDEST PUSH1 0x0 DUP2 SWAP1 POP SWAP2 SWAP1 POP JUMP JUMPDEST PUSH1 0x0 PUSH2 0xA6C PUSH2 0xA67 PUSH2 0xA62 DUP5 PUSH2 0x50C JUMP JUMPDEST PUSH2 0xA47 JUMP JUMPDEST PUSH2 0x50C JUMP JUMPDEST SWAP1 POP SWAP2 SWAP1 POP JUMP JUMPDEST PUSH1 0x0 DUP2 SWAP1 POP SWAP2 SWAP1 POP JUMP JUMPDEST PUSH2 0xA86 DUP4 PUSH2 0xA51 JUMP JUMPDEST PUSH2 0xA9A PUSH2 0xA92 DUP3 PUSH2 0xA73 JUMP JUMPDEST DUP5 DUP5 SLOAD PUSH2 0x9F5 JUMP JUMPDEST DUP3 SSTORE POP POP POP POP JUMP JUMPDEST PUSH1 0x0 SWAP1 JUMP JUMPDEST PUSH2 0xAAF PUSH2 0xAA2 JUMP JUMPDEST PUSH2 0xABA DUP2 DUP5 DUP5 PUSH2 0xA7D JUMP JUMPDEST POP POP POP JUMP JUMPDEST JUMPDEST DUP2 DUP2 LT ISZERO PUSH2 0xADE JUMPI PUSH2 0xAD3 PUSH1 0x0 DUP3 PUSH2 0xAA7 JUMP JUMPDEST PUSH1 0x1 DUP2 ADD SWAP1 POP PUSH2 0xAC0 JUMP JUMPDEST POP POP JUMP JUMPDEST PUSH1 0x1F DUP3 GT ISZERO PUSH2 0xB23 JUMPI PUSH2 0xAF4 DUP2 PUSH2 0x9C3 JUMP JUMPDEST PUSH2 0xAFD DUP5 PUSH2 0x9D8 JUMP JUMPDEST DUP2 ADD PUSH1 0x20 DUP6 LT ISZERO PUSH2 0xB0C JUMPI DUP2 SWAP1 POP JUMPDEST PUSH2 0xB20 PUSH2 0xB18 DUP6 PUSH2 0x9D8 JUMP JUMPDEST DUP4 ADD DUP3 PUSH2 0xABF JUMP JUMPDEST POP POP JUMPDEST POP POP POP JUMP JUMPDEST PUSH1 0x0 DUP3 DUP3 SHR SWAP1 POP SWAP3 SWAP2 POP POP JUMP JUMPDEST PUSH1 0x0 PUSH2 0xB46 PUSH1 0x0 NOT DUP5 PUSH1 0x8 MUL PUSH2 0xB28 JUMP JUMPDEST NOT DUP1 DUP4 AND SWAP2 POP POP SWAP3 SWAP2 POP POP JUMP JUMPDEST PUSH1 0x0 PUSH2 0xB5F DUP4 DUP4 PUSH2 0xB35 JUMP JUMPDEST SWAP2 POP DUP3 PUSH1 0x2 MUL DUP3 OR SWAP1 POP SWAP3 SWAP2 POP POP JUMP JUMPDEST PUSH2 0xB78 DUP3 PUSH2 0x5E7 JUMP JUMPDEST PUSH8 0xFFFFFFFFFFFFFFFF DUP2 GT ISZERO PUSH2 0xB91 JUMPI PUSH2 0xB90 PUSH2 0x71C JUMP JUMPDEST JUMPDEST PUSH2 0xB9B DUP3 SLOAD PUSH2 0x992 JUMP JUMPDEST PUSH2 0xBA6 DUP3 DUP3 DUP6 PUSH2 0xAE2 JUMP JUMPDEST PUSH1 0x0 PUSH1 0x20 SWAP1 POP PUSH1 0x1F DUP4 GT PUSH1 0x1 DUP2 EQ PUSH2 0xBD9 JUMPI PUSH1 0x0 DUP5 ISZERO PUSH2 0xBC7 JUMPI DUP3 DUP8 ADD MLOAD SWAP1 POP JUMPDEST PUSH2 0xBD1 DUP6 DUP3 PUSH2 0xB53 JUMP JUMPDEST DUP7 SSTORE POP PUSH2 0xC39 JUMP JUMPDEST PUSH1 0x1F NOT DUP5 AND PUSH2 0xBE7 DUP7 PUSH2 0x9C3 JUMP JUMPDEST PUSH1 0x0 JUMPDEST DUP3 DUP2 LT ISZERO PUSH2 0xC0F JUMPI DUP5 DUP10 ADD MLOAD DUP3 SSTORE PUSH1 0x1 DUP3 ADD SWAP2 POP PUSH1 0x20 DUP6 ADD SWAP5 POP PUSH1 0x20 DUP2 ADD SWAP1 POP PUSH2 0xBEA JUMP JUMPDEST DUP7 DUP4 LT ISZERO PUSH2 0xC2C JUMPI DUP5 DUP10 ADD MLOAD PUSH2 0xC28 PUSH1 0x1F DUP10 AND DUP3 PUSH2 0xB35 JUMP JUMPDEST DUP4 SSTORE POP JUMPDEST PUSH1 0x1 PUSH1 0x2 DUP9 MUL ADD DUP9 SSTORE POP POP POP JUMPDEST POP POP POP POP POP POP JUMP JUMPDEST PUSH32 0x4E487B7100000000000000000000000000000000000000000000000000000000 PUSH1 0x0 MSTORE PUSH1 0x11 PUSH1 0x4 MSTORE PUSH1 0x24 PUSH1 0x0 REVERT JUMPDEST PUSH1 0x0 PUSH2 0xC7B DUP3 PUSH2 0x50C JUMP JUMPDEST SWAP2 POP PUSH2 0xC86 DUP4 PUSH2 0x50C JUMP JUMPDEST SWAP3 POP DUP3 DUP3 SUB SWAP1 POP DUP2 DUP2 GT ISZERO PUSH2 0xC9E JUMPI PUSH2 0xC9D PUSH2 0xC41 JUMP JUMPDEST JUMPDEST SWAP3 SWAP2 POP POP JUMP JUMPDEST PUSH1 0x0 PUSH1 0x60 DUP3 ADD SWAP1 POP PUSH2 0xCB9 PUSH1 0x0 DUP4 ADD DUP7 PUSH2 0x92B JUMP JUMPDEST DUP2 DUP2 SUB PUSH1 0x20 DUP4 ADD MSTORE PUSH2 0xCCB DUP2 DUP6 PUSH2 0x63E JUMP JUMPDEST SWAP1 POP PUSH2 0xCDA PUSH1 0x40 DUP4 ADD DUP5 PUSH2 0x677 JUMP JUMPDEST SWAP5 SWAP4 POP POP POP POP JUMP INVALID LOG2 PUSH5 0x6970667358 0x22 SLT KECCAK256 PUSH11 0x37EC7D0896DF31C621FB9B INVALID BASEFEE 0xC5 0x21 SWAP12 0xD4 0xBD GASPRICE 0xA8 0xE SDIV 0x26 SLOAD 0xA6 0xBD 0xDE 0xC5 0xF6 PUSH13 0x9864736F6C6343000813003300 "
				},
				"gasEstimates": {
					"creation": {
						"codeDepositCost": "670400",
						"executionCost": "24968",
						"totalCost": "695368"
					},
					"external": {
						"create(string)": "infinite",
						"get(uint256)": "infinite",
						"kill()": "29888",
						"owner()": "2555",
						"tasks(uint256)": "infinite",
						"update(uint256,bool)": "infinite"
					}
				},
				"methodIdentifiers": {
					"create(string)": "b6a46b3b",
					"get(uint256)": "9507d39a",
					"kill()": "41c0e1b5",
					"owner()": "8da5cb5b",
					"tasks(uint256)": "8d977672",
					"update(uint256,bool)": "48284b62"
				}
			},
			"storageLayout": {
				"storage": [
					{
						"astId": 17,
						"contract": "TodoListBasicVer.sol:TodoList",
						"label": "owner",
						"offset": 0,
						"slot": "0",
						"type": "t_address"
					},
					{
						"astId": 35,
						"contract": "TodoListBasicVer.sol:TodoList",
						"label": "tasks",
						"offset": 0,
						"slot": "1",
						"type": "t_array(t_struct(Task)31_storage)dyn_storage"
					}
				],
				"types": {
					"t_address": {
						"encoding": "inplace",
						"label": "address",
						"numberOfBytes": "20"
					},
					"t_array(t_struct(Task)31_storage)dyn_storage": {
						"base": "t_struct(Task)31_storage",
						"encoding": "dynamic_array",
						"label": "struct TodoList.Task[]",
						"numberOfBytes": "32"
					},
					"t_bool": {
						"encoding": "inplace",
						"label": "bool",
						"numberOfBytes": "1"
					},
					"t_string_storage": {
						"encoding": "bytes",
						"label": "string",
						"numberOfBytes": "32"
					},
					"t_struct(Task)31_storage": {
						"encoding": "inplace",
						"label": "struct TodoList.Task",
						"members": [
							{
								"astId": 28,
								"contract": "TodoListBasicVer.sol:TodoList",
								"label": "name",
								"offset": 0,
								"slot": "0",
								"type": "t_string_storage"
							},
							{
								"astId": 30,
								"contract": "TodoListBasicVer.sol:TodoList",
								"label": "completed",
								"offset": 0,
								"slot": "1",
								"type": "t_bool"
							}
						],
						"numberOfBytes": "64"
					}
				}
			},
			"userdoc": {
				"kind": "user",
				"methods": {},
				"version": 1
			}
		}
	}
}