{
	"week5/TodoListMeVer.sol": {
		"TodoList": {
			"abi": [
				{
					"anonymous": false,
					"inputs": [
						{
							"indexed": false,
							"internalType": "uint256",
							"name": "taskId",
							"type": "uint256"
						},
						{
							"indexed": false,
							"internalType": "string",
							"name": "name",
							"type": "string"
						},
						{
							"indexed": false,
							"internalType": "bool",
							"name": "completed",
							"type": "bool"
						}
					],
					"name": "NewTask",
					"type": "event"
				},
				{
					"anonymous": false,
					"inputs": [
						{
							"indexed": true,
							"internalType": "address",
							"name": "previousOwner",
							"type": "address"
						},
						{
							"indexed": true,
							"internalType": "address",
							"name": "newOwner",
							"type": "address"
						}
					],
					"name": "OwnershipTransferred",
					"type": "event"
				},
				{
					"anonymous": false,
					"inputs": [
						{
							"indexed": false,
							"internalType": "uint256",
							"name": "taskId",
							"type": "uint256"
						},
						{
							"indexed": false,
							"internalType": "bool",
							"name": "completed",
							"type": "bool"
						}
					],
					"name": "UpdateTask",
					"type": "event"
				},
				{
					"inputs": [
						{
							"internalType": "string",
							"name": "_name",
							"type": "string"
						}
					],
					"name": "create",
					"outputs": [],
					"stateMutability": "nonpayable",
					"type": "function"
				},
				{
					"inputs": [
						{
							"internalType": "uint256",
							"name": "_taskId",
							"type": "uint256"
						}
					],
					"name": "get",
					"outputs": [
						{
							"internalType": "string",
							"name": "name",
							"type": "string"
						},
						{
							"internalType": "bool",
							"name": "completed",
							"type": "bool"
						}
					],
					"stateMutability": "view",
					"type": "function"
				},
				{
					"inputs": [],
					"name": "kill",
					"outputs": [],
					"stateMutability": "nonpayable",
					"type": "function"
				},
				{
					"inputs": [],
					"name": "owner",
					"outputs": [
						{
							"internalType": "address",
							"name": "",
							"type": "address"
						}
					],
					"stateMutability": "view",
					"type": "function"
				},
				{
					"inputs": [
						{
							"internalType": "uint256",
							"name": "",
							"type": "uint256"
						}
					],
					"name": "tasks",
					"outputs": [
						{
							"internalType": "string",
							"name": "name",
							"type": "string"
						},
						{
							"internalType": "bool",
							"name": "completed",
							"type": "bool"
						}
					],
					"stateMutability": "view",
					"type": "function"
				},
				{
					"inputs": [
						{
							"internalType": "address",
							"name": "newOwner",
							"type": "address"
						}
					],
					"name": "transferOwnership",
					"outputs": [],
					"stateMutability": "nonpayable",
					"type": "function"
				},
				{
					"inputs": [
						{
							"internalType": "uint256",
							"name": "_taskId",
							"type": "uint256"
						},
						{
							"internalType": "bool",
							"name": "_completed",
							"type": "bool"
						}
					],
					"name": "update",
					"outputs": [],
					"stateMutability": "nonpayable",
					"type": "function"
				}
			],
			"devdoc": {
				"kind": "dev",
				"methods": {
					"transferOwnership(address)": {
						"details": "Allows the current owner to transfer control of the contract to a newOwner.",
						"params": {
							"newOwner": "The address to transfer ownership to."
						}
					}
				},
				"version": 1
			},
			"evm": {
				"assembly": "    /* \"week5/TodoListMeVer.sol\":1273:2640  contract TodoList is Ownable {... */\n  mstore(0x40, 0x80)\n  callvalue\n  dup1\n  iszero\n  tag_1\n  jumpi\n  0x00\n  dup1\n  revert\ntag_1:\n  pop\n    /* \"week5/TodoListMeVer.sol\":642:652  msg.sender */\n  caller\n    /* \"week5/TodoListMeVer.sol\":634:639  owner */\n  0x00\n  dup1\n    /* \"week5/TodoListMeVer.sol\":634:652  owner = msg.sender */\n  0x0100\n  exp\n  dup2\n  sload\n  dup2\n  0xffffffffffffffffffffffffffffffffffffffff\n  mul\n  not\n  and\n  swap1\n  dup4\n  0xffffffffffffffffffffffffffffffffffffffff\n  and\n  mul\n  or\n  swap1\n  sstore\n  pop\n    /* \"week5/TodoListMeVer.sol\":1273:2640  contract TodoList is Ownable {... */\n  dataSize(sub_0)\n  dup1\n  dataOffset(sub_0)\n  0x00\n  codecopy\n  0x00\n  return\nstop\n\nsub_0: assembly {\n        /* \"week5/TodoListMeVer.sol\":1273:2640  contract TodoList is Ownable {... */\n      mstore(0x40, 0x80)\n      callvalue\n      dup1\n      iszero\n      tag_1\n      jumpi\n      0x00\n      dup1\n      revert\n    tag_1:\n      pop\n      jumpi(tag_2, lt(calldatasize, 0x04))\n      shr(0xe0, calldataload(0x00))\n      dup1\n      0x8da5cb5b\n      gt\n      tag_10\n      jumpi\n      dup1\n      0x8da5cb5b\n      eq\n      tag_6\n      jumpi\n      dup1\n      0x9507d39a\n      eq\n      tag_7\n      jumpi\n      dup1\n      0xb6a46b3b\n      eq\n      tag_8\n      jumpi\n      dup1\n      0xf2fde38b\n      eq\n      tag_9\n      jumpi\n      jump(tag_2)\n    tag_10:\n      dup1\n      0x41c0e1b5\n      eq\n      tag_3\n      jumpi\n      dup1\n      0x48284b62\n      eq\n      tag_4\n      jumpi\n      dup1\n      0x8d977672\n      eq\n      tag_5\n      jumpi\n    tag_2:\n      0x00\n      dup1\n      revert\n        /* \"week5/TodoListMeVer.sol\":2553:2638  function kill() external onlyOwner {... */\n    tag_3:\n      tag_11\n      tag_12\n      jump\t// in\n    tag_11:\n      stop\n        /* \"week5/TodoListMeVer.sol\":1956:2177  function update(uint _taskId, bool _completed) public onlyOwner {... */\n    tag_4:\n      tag_13\n      0x04\n      dup1\n      calldatasize\n      sub\n      dup2\n      add\n      swap1\n      tag_14\n      swap2\n      swap1\n      tag_15\n      jump\t// in\n    tag_14:\n      tag_16\n      jump\t// in\n    tag_13:\n      stop\n        /* \"week5/TodoListMeVer.sol\":1579:1598  Task[] public tasks */\n    tag_5:\n      tag_17\n      0x04\n      dup1\n      calldatasize\n      sub\n      dup2\n      add\n      swap1\n      tag_18\n      swap2\n      swap1\n      tag_19\n      jump\t// in\n    tag_18:\n      tag_20\n      jump\t// in\n    tag_17:\n      mload(0x40)\n      tag_21\n      swap3\n      swap2\n      swap1\n      tag_22\n      jump\t// in\n    tag_21:\n      mload(0x40)\n      dup1\n      swap2\n      sub\n      swap1\n      return\n        /* \"week5/TodoListMeVer.sol\":583:603  address public owner */\n    tag_6:\n      tag_23\n      tag_24\n      jump\t// in\n    tag_23:\n      mload(0x40)\n      tag_25\n      swap2\n      swap1\n      tag_26\n      jump\t// in\n    tag_25:\n      mload(0x40)\n      dup1\n      swap2\n      sub\n      swap1\n      return\n        /* \"week5/TodoListMeVer.sol\":2326:2491  function get(uint _taskId) public onlyOwner view returns (string memory name, bool completed) {... */\n    tag_7:\n      tag_27\n      0x04\n      dup1\n      calldatasize\n      sub\n      dup2\n      add\n      swap1\n      tag_28\n      swap2\n      swap1\n      tag_19\n      jump\t// in\n    tag_28:\n      tag_29\n      jump\t// in\n    tag_27:\n      mload(0x40)\n      tag_30\n      swap3\n      swap2\n      swap1\n      tag_22\n      jump\t// in\n    tag_30:\n      mload(0x40)\n      dup1\n      swap2\n      sub\n      swap1\n      return\n        /* \"week5/TodoListMeVer.sol\":1661:1888  function create(string memory _name) public onlyOwner {... */\n    tag_8:\n      tag_31\n      0x04\n      dup1\n      calldatasize\n      sub\n      dup2\n      add\n      swap1\n      tag_32\n      swap2\n      swap1\n      tag_33\n      jump\t// in\n    tag_32:\n      tag_34\n      jump\t// in\n    tag_31:\n      stop\n        /* \"week5/TodoListMeVer.sol\":1080:1268  function transferOwnership(address newOwner) public onlyOwner {... */\n    tag_9:\n      tag_35\n      0x04\n      dup1\n      calldatasize\n      sub\n      dup2\n      add\n      swap1\n      tag_36\n      swap2\n      swap1\n      tag_37\n      jump\t// in\n    tag_36:\n      tag_38\n      jump\t// in\n    tag_35:\n      stop\n        /* \"week5/TodoListMeVer.sol\":2553:2638  function kill() external onlyOwner {... */\n    tag_12:\n        /* \"week5/TodoListMeVer.sol\":888:893  owner */\n      0x00\n      dup1\n      sload\n      swap1\n      0x0100\n      exp\n      swap1\n      div\n      0xffffffffffffffffffffffffffffffffffffffff\n      and\n        /* \"week5/TodoListMeVer.sol\":874:893  msg.sender == owner */\n      0xffffffffffffffffffffffffffffffffffffffff\n      and\n        /* \"week5/TodoListMeVer.sol\":874:884  msg.sender */\n      caller\n        /* \"week5/TodoListMeVer.sol\":874:893  msg.sender == owner */\n      0xffffffffffffffffffffffffffffffffffffffff\n      and\n      eq\n        /* \"week5/TodoListMeVer.sol\":866:894  require(msg.sender == owner) */\n      tag_40\n      jumpi\n      0x00\n      dup1\n      revert\n    tag_40:\n        /* \"week5/TodoListMeVer.sol\":2619:2629  msg.sender */\n      caller\n        /* \"week5/TodoListMeVer.sol\":2598:2631  selfdestruct(payable(msg.sender)) */\n      0xffffffffffffffffffffffffffffffffffffffff\n      and\n      selfdestruct\n        /* \"week5/TodoListMeVer.sol\":1956:2177  function update(uint _taskId, bool _completed) public onlyOwner {... */\n    tag_16:\n        /* \"week5/TodoListMeVer.sol\":888:893  owner */\n      0x00\n      dup1\n      sload\n      swap1\n      0x0100\n      exp\n      swap1\n      div\n      0xffffffffffffffffffffffffffffffffffffffff\n      and\n        /* \"week5/TodoListMeVer.sol\":874:893  msg.sender == owner */\n      0xffffffffffffffffffffffffffffffffffffffff\n      and\n        /* \"week5/TodoListMeVer.sol\":874:884  msg.sender */\n      caller\n        /* \"week5/TodoListMeVer.sol\":874:893  msg.sender == owner */\n      0xffffffffffffffffffffffffffffffffffffffff\n      and\n      eq\n        /* \"week5/TodoListMeVer.sol\":866:894  require(msg.sender == owner) */\n      tag_43\n      jumpi\n      0x00\n      dup1\n      revert\n    tag_43:\n        /* \"week5/TodoListMeVer.sol\":2057:2067  _completed */\n      dup1\n        /* \"week5/TodoListMeVer.sol\":2030:2035  tasks */\n      0x01\n        /* \"week5/TodoListMeVer.sol\":2036:2043  _taskId */\n      dup4\n        /* \"week5/TodoListMeVer.sol\":2030:2044  tasks[_taskId] */\n      dup2\n      sload\n      dup2\n      lt\n      tag_45\n      jumpi\n      tag_46\n      tag_47\n      jump\t// in\n    tag_46:\n    tag_45:\n      swap1\n      0x00\n      mstore\n      keccak256(0x00, 0x20)\n      swap1\n      0x02\n      mul\n      add\n        /* \"week5/TodoListMeVer.sol\":2030:2054  tasks[_taskId].completed */\n      0x01\n      add\n      0x00\n        /* \"week5/TodoListMeVer.sol\":2030:2067  tasks[_taskId].completed = _completed */\n      0x0100\n      exp\n      dup2\n      sload\n      dup2\n      0xff\n      mul\n      not\n      and\n      swap1\n      dup4\n      iszero\n      iszero\n      mul\n      or\n      swap1\n      sstore\n      pop\n        /* \"week5/TodoListMeVer.sol\":2139:2170  UpdateTask(_taskId, _completed) */\n      0x40f4ecd2923438fa255c9ec921b119ae150358907bbc9ba7d5c34bf9c151b6ac\n        /* \"week5/TodoListMeVer.sol\":2150:2157  _taskId */\n      dup3\n        /* \"week5/TodoListMeVer.sol\":2159:2169  _completed */\n      dup3\n        /* \"week5/TodoListMeVer.sol\":2139:2170  UpdateTask(_taskId, _completed) */\n      mload(0x40)\n      tag_49\n      swap3\n      swap2\n      swap1\n      tag_50\n      jump\t// in\n    tag_49:\n      mload(0x40)\n      dup1\n      swap2\n      sub\n      swap1\n      log1\n        /* \"week5/TodoListMeVer.sol\":1956:2177  function update(uint _taskId, bool _completed) public onlyOwner {... */\n      pop\n      pop\n      jump\t// out\n        /* \"week5/TodoListMeVer.sol\":1579:1598  Task[] public tasks */\n    tag_20:\n      0x01\n      dup2\n      dup2\n      sload\n      dup2\n      lt\n      tag_51\n      jumpi\n      0x00\n      dup1\n      revert\n    tag_51:\n      swap1\n      0x00\n      mstore\n      keccak256(0x00, 0x20)\n      swap1\n      0x02\n      mul\n      add\n      0x00\n      swap2\n      pop\n      swap1\n      pop\n      dup1\n      0x00\n      add\n      dup1\n      sload\n      tag_53\n      swap1\n      tag_54\n      jump\t// in\n    tag_53:\n      dup1\n      0x1f\n      add\n      0x20\n      dup1\n      swap2\n      div\n      mul\n      0x20\n      add\n      mload(0x40)\n      swap1\n      dup2\n      add\n      0x40\n      mstore\n      dup1\n      swap3\n      swap2\n      swap1\n      dup2\n      dup2\n      mstore\n      0x20\n      add\n      dup3\n      dup1\n      sload\n      tag_55\n      swap1\n      tag_54\n      jump\t// in\n    tag_55:\n      dup1\n      iszero\n      tag_56\n      jumpi\n      dup1\n      0x1f\n      lt\n      tag_57\n      jumpi\n      0x0100\n      dup1\n      dup4\n      sload\n      div\n      mul\n      dup4\n      mstore\n      swap2\n      0x20\n      add\n      swap2\n      jump(tag_56)\n    tag_57:\n      dup3\n      add\n      swap2\n      swap1\n      0x00\n      mstore\n      keccak256(0x00, 0x20)\n      swap1\n    tag_58:\n      dup2\n      sload\n      dup2\n      mstore\n      swap1\n      0x01\n      add\n      swap1\n      0x20\n      add\n      dup1\n      dup4\n      gt\n      tag_58\n      jumpi\n      dup3\n      swap1\n      sub\n      0x1f\n      and\n      dup3\n      add\n      swap2\n    tag_56:\n      pop\n      pop\n      pop\n      pop\n      pop\n      swap1\n      dup1\n      0x01\n      add\n      0x00\n      swap1\n      sload\n      swap1\n      0x0100\n      exp\n      swap1\n      div\n      0xff\n      and\n      swap1\n      pop\n      dup3\n      jump\t// out\n        /* \"week5/TodoListMeVer.sol\":583:603  address public owner */\n    tag_24:\n      0x00\n      dup1\n      sload\n      swap1\n      0x0100\n      exp\n      swap1\n      div\n      0xffffffffffffffffffffffffffffffffffffffff\n      and\n      dup2\n      jump\t// out\n        /* \"week5/TodoListMeVer.sol\":2326:2491  function get(uint _taskId) public onlyOwner view returns (string memory name, bool completed) {... */\n    tag_29:\n        /* \"week5/TodoListMeVer.sol\":2384:2402  string memory name */\n      0x60\n        /* \"week5/TodoListMeVer.sol\":2404:2418  bool completed */\n      0x00\n        /* \"week5/TodoListMeVer.sol\":888:893  owner */\n      dup1\n      0x00\n      swap1\n      sload\n      swap1\n      0x0100\n      exp\n      swap1\n      div\n      0xffffffffffffffffffffffffffffffffffffffff\n      and\n        /* \"week5/TodoListMeVer.sol\":874:893  msg.sender == owner */\n      0xffffffffffffffffffffffffffffffffffffffff\n      and\n        /* \"week5/TodoListMeVer.sol\":874:884  msg.sender */\n      caller\n        /* \"week5/TodoListMeVer.sol\":874:893  msg.sender == owner */\n      0xffffffffffffffffffffffffffffffffffffffff\n      and\n      eq\n        /* \"week5/TodoListMeVer.sol\":866:894  require(msg.sender == owner) */\n      tag_60\n      jumpi\n      0x00\n      dup1\n      revert\n    tag_60:\n        /* \"week5/TodoListMeVer.sol\":2438:2443  tasks */\n      0x01\n        /* \"week5/TodoListMeVer.sol\":2444:2451  _taskId */\n      dup4\n        /* \"week5/TodoListMeVer.sol\":2438:2452  tasks[_taskId] */\n      dup2\n      sload\n      dup2\n      lt\n      tag_62\n      jumpi\n      tag_63\n      tag_47\n      jump\t// in\n    tag_63:\n    tag_62:\n      swap1\n      0x00\n      mstore\n      keccak256(0x00, 0x20)\n      swap1\n      0x02\n      mul\n      add\n        /* \"week5/TodoListMeVer.sol\":2438:2457  tasks[_taskId].name */\n      0x00\n      add\n        /* \"week5/TodoListMeVer.sol\":2459:2464  tasks */\n      0x01\n        /* \"week5/TodoListMeVer.sol\":2465:2472  _taskId */\n      dup5\n        /* \"week5/TodoListMeVer.sol\":2459:2473  tasks[_taskId] */\n      dup2\n      sload\n      dup2\n      lt\n      tag_65\n      jumpi\n      tag_66\n      tag_47\n      jump\t// in\n    tag_66:\n    tag_65:\n      swap1\n      0x00\n      mstore\n      keccak256(0x00, 0x20)\n      swap1\n      0x02\n      mul\n      add\n        /* \"week5/TodoListMeVer.sol\":2459:2483  tasks[_taskId].completed */\n      0x01\n      add\n      0x00\n      swap1\n      sload\n      swap1\n      0x0100\n      exp\n      swap1\n      div\n      0xff\n      and\n        /* \"week5/TodoListMeVer.sol\":2430:2484  return (tasks[_taskId].name, tasks[_taskId].completed) */\n      dup2\n      dup1\n      sload\n      tag_68\n      swap1\n      tag_54\n      jump\t// in\n    tag_68:\n      dup1\n      0x1f\n      add\n      0x20\n      dup1\n      swap2\n      div\n      mul\n      0x20\n      add\n      mload(0x40)\n      swap1\n      dup2\n      add\n      0x40\n      mstore\n      dup1\n      swap3\n      swap2\n      swap1\n      dup2\n      dup2\n      mstore\n      0x20\n      add\n      dup3\n      dup1\n      sload\n      tag_69\n      swap1\n      tag_54\n      jump\t// in\n    tag_69:\n      dup1\n      iszero\n      tag_70\n      jumpi\n      dup1\n      0x1f\n      lt\n      tag_71\n      jumpi\n      0x0100\n      dup1\n      dup4\n      sload\n      div\n      mul\n      dup4\n      mstore\n      swap2\n      0x20\n      add\n      swap2\n      jump(tag_70)\n    tag_71:\n      dup3\n      add\n      swap2\n      swap1\n      0x00\n      mstore\n      keccak256(0x00, 0x20)\n      swap1\n    tag_72:\n      dup2\n      sload\n      dup2\n      mstore\n      swap1\n      0x01\n      add\n      swap1\n      0x20\n      add\n      dup1\n      dup4\n      gt\n      tag_72\n      jumpi\n      dup3\n      swap1\n      sub\n      0x1f\n      and\n      dup3\n      add\n      swap2\n    tag_70:\n      pop\n      pop\n      pop\n      pop\n      pop\n      swap2\n      pop\n      swap2\n      pop\n      swap2\n      pop\n        /* \"week5/TodoListMeVer.sol\":2326:2491  function get(uint _taskId) public onlyOwner view returns (string memory name, bool completed) {... */\n      swap2\n      pop\n      swap2\n      jump\t// out\n        /* \"week5/TodoListMeVer.sol\":1661:1888  function create(string memory _name) public onlyOwner {... */\n    tag_34:\n        /* \"week5/TodoListMeVer.sol\":888:893  owner */\n      0x00\n      dup1\n      sload\n      swap1\n      0x0100\n      exp\n      swap1\n      div\n      0xffffffffffffffffffffffffffffffffffffffff\n      and\n        /* \"week5/TodoListMeVer.sol\":874:893  msg.sender == owner */\n      0xffffffffffffffffffffffffffffffffffffffff\n      and\n        /* \"week5/TodoListMeVer.sol\":874:884  msg.sender */\n      caller\n        /* \"week5/TodoListMeVer.sol\":874:893  msg.sender == owner */\n      0xffffffffffffffffffffffffffffffffffffffff\n      and\n      eq\n        /* \"week5/TodoListMeVer.sol\":866:894  require(msg.sender == owner) */\n      tag_74\n      jumpi\n      0x00\n      dup1\n      revert\n    tag_74:\n        /* \"week5/TodoListMeVer.sol\":1725:1730  tasks */\n      0x01\n        /* \"week5/TodoListMeVer.sol\":1736:1754  Task(_name, false) */\n      mload(0x40)\n      dup1\n      0x40\n      add\n      0x40\n      mstore\n      dup1\n        /* \"week5/TodoListMeVer.sol\":1741:1746  _name */\n      dup4\n        /* \"week5/TodoListMeVer.sol\":1736:1754  Task(_name, false) */\n      dup2\n      mstore\n      0x20\n      add\n        /* \"week5/TodoListMeVer.sol\":1748:1753  false */\n      0x00\n        /* \"week5/TodoListMeVer.sol\":1736:1754  Task(_name, false) */\n      iszero\n      iszero\n      dup2\n      mstore\n      pop\n        /* \"week5/TodoListMeVer.sol\":1725:1755  tasks.push(Task(_name, false)) */\n      swap1\n      dup1\n      0x01\n      dup2\n      sload\n      add\n      dup1\n      dup3\n      sstore\n      dup1\n      swap2\n      pop\n      pop\n      0x01\n      swap1\n      sub\n      swap1\n      0x00\n      mstore\n      keccak256(0x00, 0x20)\n      swap1\n      0x02\n      mul\n      add\n      0x00\n      swap1\n      swap2\n      swap1\n      swap2\n      swap1\n      swap2\n      pop\n      0x00\n      dup3\n      add\n      mload\n      dup2\n      0x00\n      add\n      swap1\n      dup2\n      tag_77\n      swap2\n      swap1\n      tag_78\n      jump\t// in\n    tag_77:\n      pop\n      0x20\n      dup3\n      add\n      mload\n      dup2\n      0x01\n      add\n      exp(0x0100, 0x00)\n      dup2\n      sload\n      dup2\n      0xff\n      mul\n      not\n      and\n      swap1\n      dup4\n      iszero\n      iszero\n      mul\n      or\n      swap1\n      sstore\n      pop\n      pop\n      pop\n        /* \"week5/TodoListMeVer.sol\":1765:1772  uint id */\n      0x00\n        /* \"week5/TodoListMeVer.sol\":1790:1791  1 */\n      0x01\n        /* \"week5/TodoListMeVer.sol\":1775:1780  tasks */\n      dup1\n        /* \"week5/TodoListMeVer.sol\":1775:1787  tasks.length */\n      dup1\n      sload\n      swap1\n      pop\n        /* \"week5/TodoListMeVer.sol\":1775:1791  tasks.length - 1 */\n      tag_79\n      swap2\n      swap1\n      tag_80\n      jump\t// in\n    tag_79:\n        /* \"week5/TodoListMeVer.sol\":1765:1791  uint id = tasks.length - 1 */\n      swap1\n      pop\n        /* \"week5/TodoListMeVer.sol\":1856:1881  NewTask(id, _name, false) */\n      0x8de7fcf423c3be88a1d33619458254be5a02866653e3209631248661ba7db881\n        /* \"week5/TodoListMeVer.sol\":1864:1866  id */\n      dup2\n        /* \"week5/TodoListMeVer.sol\":1868:1873  _name */\n      dup4\n        /* \"week5/TodoListMeVer.sol\":1875:1880  false */\n      0x00\n        /* \"week5/TodoListMeVer.sol\":1856:1881  NewTask(id, _name, false) */\n      mload(0x40)\n      tag_81\n      swap4\n      swap3\n      swap2\n      swap1\n      tag_82\n      jump\t// in\n    tag_81:\n      mload(0x40)\n      dup1\n      swap2\n      sub\n      swap1\n      log1\n        /* \"week5/TodoListMeVer.sol\":1715:1888  {... */\n      pop\n        /* \"week5/TodoListMeVer.sol\":1661:1888  function create(string memory _name) public onlyOwner {... */\n      pop\n      jump\t// out\n        /* \"week5/TodoListMeVer.sol\":1080:1268  function transferOwnership(address newOwner) public onlyOwner {... */\n    tag_38:\n        /* \"week5/TodoListMeVer.sol\":888:893  owner */\n      0x00\n      dup1\n      sload\n      swap1\n      0x0100\n      exp\n      swap1\n      div\n      0xffffffffffffffffffffffffffffffffffffffff\n      and\n        /* \"week5/TodoListMeVer.sol\":874:893  msg.sender == owner */\n      0xffffffffffffffffffffffffffffffffffffffff\n      and\n        /* \"week5/TodoListMeVer.sol\":874:884  msg.sender */\n      caller\n        /* \"week5/TodoListMeVer.sol\":874:893  msg.sender == owner */\n      0xffffffffffffffffffffffffffffffffffffffff\n      and\n      eq\n        /* \"week5/TodoListMeVer.sol\":866:894  require(msg.sender == owner) */\n      tag_84\n      jumpi\n      0x00\n      dup1\n      revert\n    tag_84:\n        /* \"week5/TodoListMeVer.sol\":1180:1181  0 */\n      0x00\n        /* \"week5/TodoListMeVer.sol\":1160:1182  newOwner != address(0) */\n      0xffffffffffffffffffffffffffffffffffffffff\n      and\n        /* \"week5/TodoListMeVer.sol\":1160:1168  newOwner */\n      dup2\n        /* \"week5/TodoListMeVer.sol\":1160:1182  newOwner != address(0) */\n      0xffffffffffffffffffffffffffffffffffffffff\n      and\n      sub\n        /* \"week5/TodoListMeVer.sol\":1152:1183  require(newOwner != address(0)) */\n      tag_86\n      jumpi\n      0x00\n      dup1\n      revert\n    tag_86:\n        /* \"week5/TodoListMeVer.sol\":1226:1234  newOwner */\n      dup1\n        /* \"week5/TodoListMeVer.sol\":1198:1235  OwnershipTransferred(owner, newOwner) */\n      0xffffffffffffffffffffffffffffffffffffffff\n      and\n        /* \"week5/TodoListMeVer.sol\":1219:1224  owner */\n      0x00\n      dup1\n      sload\n      swap1\n      0x0100\n      exp\n      swap1\n      div\n      0xffffffffffffffffffffffffffffffffffffffff\n      and\n        /* \"week5/TodoListMeVer.sol\":1198:1235  OwnershipTransferred(owner, newOwner) */\n      0xffffffffffffffffffffffffffffffffffffffff\n      and\n      0x8be0079c531659141344cd1fd0a4f28419497f9722a3daafe3b4186f6b6457e0\n      mload(0x40)\n      mload(0x40)\n      dup1\n      swap2\n      sub\n      swap1\n      log3\n        /* \"week5/TodoListMeVer.sol\":1253:1261  newOwner */\n      dup1\n        /* \"week5/TodoListMeVer.sol\":1245:1250  owner */\n      0x00\n      dup1\n        /* \"week5/TodoListMeVer.sol\":1245:1261  owner = newOwner */\n      0x0100\n      exp\n      dup2\n      sload\n      dup2\n      0xffffffffffffffffffffffffffffffffffffffff\n      mul\n      not\n      and\n      swap1\n      dup4\n      0xffffffffffffffffffffffffffffffffffffffff\n      and\n      mul\n      or\n      swap1\n      sstore\n      pop\n        /* \"week5/TodoListMeVer.sol\":1080:1268  function transferOwnership(address newOwner) public onlyOwner {... */\n      pop\n      jump\t// out\n        /* \"#utility.yul\":7:82   */\n    tag_87:\n        /* \"#utility.yul\":40:46   */\n      0x00\n        /* \"#utility.yul\":73:75   */\n      0x40\n        /* \"#utility.yul\":67:76   */\n      mload\n        /* \"#utility.yul\":57:76   */\n      swap1\n      pop\n        /* \"#utility.yul\":7:82   */\n      swap1\n      jump\t// out\n        /* \"#utility.yul\":88:205   */\n    tag_88:\n        /* \"#utility.yul\":197:198   */\n      0x00\n        /* \"#utility.yul\":194:195   */\n      dup1\n        /* \"#utility.yul\":187:199   */\n      revert\n        /* \"#utility.yul\":211:328   */\n    tag_89:\n        /* \"#utility.yul\":320:321   */\n      0x00\n        /* \"#utility.yul\":317:318   */\n      dup1\n        /* \"#utility.yul\":310:322   */\n      revert\n        /* \"#utility.yul\":334:411   */\n    tag_90:\n        /* \"#utility.yul\":371:378   */\n      0x00\n        /* \"#utility.yul\":400:405   */\n      dup2\n        /* \"#utility.yul\":389:405   */\n      swap1\n      pop\n        /* \"#utility.yul\":334:411   */\n      swap2\n      swap1\n      pop\n      jump\t// out\n        /* \"#utility.yul\":417:539   */\n    tag_91:\n        /* \"#utility.yul\":490:514   */\n      tag_140\n        /* \"#utility.yul\":508:513   */\n      dup2\n        /* \"#utility.yul\":490:514   */\n      tag_90\n      jump\t// in\n    tag_140:\n        /* \"#utility.yul\":483:488   */\n      dup2\n        /* \"#utility.yul\":480:515   */\n      eq\n        /* \"#utility.yul\":470:533   */\n      tag_141\n      jumpi\n        /* \"#utility.yul\":529:530   */\n      0x00\n        /* \"#utility.yul\":526:527   */\n      dup1\n        /* \"#utility.yul\":519:531   */\n      revert\n        /* \"#utility.yul\":470:533   */\n    tag_141:\n        /* \"#utility.yul\":417:539   */\n      pop\n      jump\t// out\n        /* \"#utility.yul\":545:684   */\n    tag_92:\n        /* \"#utility.yul\":591:596   */\n      0x00\n        /* \"#utility.yul\":629:635   */\n      dup2\n        /* \"#utility.yul\":616:636   */\n      calldataload\n        /* \"#utility.yul\":607:636   */\n      swap1\n      pop\n        /* \"#utility.yul\":645:678   */\n      tag_143\n        /* \"#utility.yul\":672:677   */\n      dup2\n        /* \"#utility.yul\":645:678   */\n      tag_91\n      jump\t// in\n    tag_143:\n        /* \"#utility.yul\":545:684   */\n      swap3\n      swap2\n      pop\n      pop\n      jump\t// out\n        /* \"#utility.yul\":690:780   */\n    tag_93:\n        /* \"#utility.yul\":724:731   */\n      0x00\n        /* \"#utility.yul\":767:772   */\n      dup2\n        /* \"#utility.yul\":760:773   */\n      iszero\n        /* \"#utility.yul\":753:774   */\n      iszero\n        /* \"#utility.yul\":742:774   */\n      swap1\n      pop\n        /* \"#utility.yul\":690:780   */\n      swap2\n      swap1\n      pop\n      jump\t// out\n        /* \"#utility.yul\":786:902   */\n    tag_94:\n        /* \"#utility.yul\":856:877   */\n      tag_146\n        /* \"#utility.yul\":871:876   */\n      dup2\n        /* \"#utility.yul\":856:877   */\n      tag_93\n      jump\t// in\n    tag_146:\n        /* \"#utility.yul\":849:854   */\n      dup2\n        /* \"#utility.yul\":846:878   */\n      eq\n        /* \"#utility.yul\":836:896   */\n      tag_147\n      jumpi\n        /* \"#utility.yul\":892:893   */\n      0x00\n        /* \"#utility.yul\":889:890   */\n      dup1\n        /* \"#utility.yul\":882:894   */\n      revert\n        /* \"#utility.yul\":836:896   */\n    tag_147:\n        /* \"#utility.yul\":786:902   */\n      pop\n      jump\t// out\n        /* \"#utility.yul\":908:1041   */\n    tag_95:\n        /* \"#utility.yul\":951:956   */\n      0x00\n        /* \"#utility.yul\":989:995   */\n      dup2\n        /* \"#utility.yul\":976:996   */\n      calldataload\n        /* \"#utility.yul\":967:996   */\n      swap1\n      pop\n        /* \"#utility.yul\":1005:1035   */\n      tag_149\n        /* \"#utility.yul\":1029:1034   */\n      dup2\n        /* \"#utility.yul\":1005:1035   */\n      tag_94\n      jump\t// in\n    tag_149:\n        /* \"#utility.yul\":908:1041   */\n      swap3\n      swap2\n      pop\n      pop\n      jump\t// out\n        /* \"#utility.yul\":1047:1515   */\n    tag_15:\n        /* \"#utility.yul\":1112:1118   */\n      0x00\n        /* \"#utility.yul\":1120:1126   */\n      dup1\n        /* \"#utility.yul\":1169:1171   */\n      0x40\n        /* \"#utility.yul\":1157:1166   */\n      dup4\n        /* \"#utility.yul\":1148:1155   */\n      dup6\n        /* \"#utility.yul\":1144:1167   */\n      sub\n        /* \"#utility.yul\":1140:1172   */\n      slt\n        /* \"#utility.yul\":1137:1256   */\n      iszero\n      tag_151\n      jumpi\n        /* \"#utility.yul\":1175:1254   */\n      tag_152\n      tag_88\n      jump\t// in\n    tag_152:\n        /* \"#utility.yul\":1137:1256   */\n    tag_151:\n        /* \"#utility.yul\":1295:1296   */\n      0x00\n        /* \"#utility.yul\":1320:1373   */\n      tag_153\n        /* \"#utility.yul\":1365:1372   */\n      dup6\n        /* \"#utility.yul\":1356:1362   */\n      dup3\n        /* \"#utility.yul\":1345:1354   */\n      dup7\n        /* \"#utility.yul\":1341:1363   */\n      add\n        /* \"#utility.yul\":1320:1373   */\n      tag_92\n      jump\t// in\n    tag_153:\n        /* \"#utility.yul\":1310:1373   */\n      swap3\n      pop\n        /* \"#utility.yul\":1266:1383   */\n      pop\n        /* \"#utility.yul\":1422:1424   */\n      0x20\n        /* \"#utility.yul\":1448:1498   */\n      tag_154\n        /* \"#utility.yul\":1490:1497   */\n      dup6\n        /* \"#utility.yul\":1481:1487   */\n      dup3\n        /* \"#utility.yul\":1470:1479   */\n      dup7\n        /* \"#utility.yul\":1466:1488   */\n      add\n        /* \"#utility.yul\":1448:1498   */\n      tag_95\n      jump\t// in\n    tag_154:\n        /* \"#utility.yul\":1438:1498   */\n      swap2\n      pop\n        /* \"#utility.yul\":1393:1508   */\n      pop\n        /* \"#utility.yul\":1047:1515   */\n      swap3\n      pop\n      swap3\n      swap1\n      pop\n      jump\t// out\n        /* \"#utility.yul\":1521:1850   */\n    tag_19:\n        /* \"#utility.yul\":1580:1586   */\n      0x00\n        /* \"#utility.yul\":1629:1631   */\n      0x20\n        /* \"#utility.yul\":1617:1626   */\n      dup3\n        /* \"#utility.yul\":1608:1615   */\n      dup5\n        /* \"#utility.yul\":1604:1627   */\n      sub\n        /* \"#utility.yul\":1600:1632   */\n      slt\n        /* \"#utility.yul\":1597:1716   */\n      iszero\n      tag_156\n      jumpi\n        /* \"#utility.yul\":1635:1714   */\n      tag_157\n      tag_88\n      jump\t// in\n    tag_157:\n        /* \"#utility.yul\":1597:1716   */\n    tag_156:\n        /* \"#utility.yul\":1755:1756   */\n      0x00\n        /* \"#utility.yul\":1780:1833   */\n      tag_158\n        /* \"#utility.yul\":1825:1832   */\n      dup5\n        /* \"#utility.yul\":1816:1822   */\n      dup3\n        /* \"#utility.yul\":1805:1814   */\n      dup6\n        /* \"#utility.yul\":1801:1823   */\n      add\n        /* \"#utility.yul\":1780:1833   */\n      tag_92\n      jump\t// in\n    tag_158:\n        /* \"#utility.yul\":1770:1833   */\n      swap2\n      pop\n        /* \"#utility.yul\":1726:1843   */\n      pop\n        /* \"#utility.yul\":1521:1850   */\n      swap3\n      swap2\n      pop\n      pop\n      jump\t// out\n        /* \"#utility.yul\":1856:1955   */\n    tag_96:\n        /* \"#utility.yul\":1908:1914   */\n      0x00\n        /* \"#utility.yul\":1942:1947   */\n      dup2\n        /* \"#utility.yul\":1936:1948   */\n      mload\n        /* \"#utility.yul\":1926:1948   */\n      swap1\n      pop\n        /* \"#utility.yul\":1856:1955   */\n      swap2\n      swap1\n      pop\n      jump\t// out\n        /* \"#utility.yul\":1961:2130   */\n    tag_97:\n        /* \"#utility.yul\":2045:2056   */\n      0x00\n        /* \"#utility.yul\":2079:2085   */\n      dup3\n        /* \"#utility.yul\":2074:2077   */\n      dup3\n        /* \"#utility.yul\":2067:2086   */\n      mstore\n        /* \"#utility.yul\":2119:2123   */\n      0x20\n        /* \"#utility.yul\":2114:2117   */\n      dup3\n        /* \"#utility.yul\":2110:2124   */\n      add\n        /* \"#utility.yul\":2095:2124   */\n      swap1\n      pop\n        /* \"#utility.yul\":1961:2130   */\n      swap3\n      swap2\n      pop\n      pop\n      jump\t// out\n        /* \"#utility.yul\":2136:2382   */\n    tag_98:\n        /* \"#utility.yul\":2217:2218   */\n      0x00\n        /* \"#utility.yul\":2227:2340   */\n    tag_162:\n        /* \"#utility.yul\":2241:2247   */\n      dup4\n        /* \"#utility.yul\":2238:2239   */\n      dup2\n        /* \"#utility.yul\":2235:2248   */\n      lt\n        /* \"#utility.yul\":2227:2340   */\n      iszero\n      tag_164\n      jumpi\n        /* \"#utility.yul\":2326:2327   */\n      dup1\n        /* \"#utility.yul\":2321:2324   */\n      dup3\n        /* \"#utility.yul\":2317:2328   */\n      add\n        /* \"#utility.yul\":2311:2329   */\n      mload\n        /* \"#utility.yul\":2307:2308   */\n      dup2\n        /* \"#utility.yul\":2302:2305   */\n      dup5\n        /* \"#utility.yul\":2298:2309   */\n      add\n        /* \"#utility.yul\":2291:2330   */\n      mstore\n        /* \"#utility.yul\":2263:2265   */\n      0x20\n        /* \"#utility.yul\":2260:2261   */\n      dup2\n        /* \"#utility.yul\":2256:2266   */\n      add\n        /* \"#utility.yul\":2251:2266   */\n      swap1\n      pop\n        /* \"#utility.yul\":2227:2340   */\n      jump(tag_162)\n    tag_164:\n        /* \"#utility.yul\":2374:2375   */\n      0x00\n        /* \"#utility.yul\":2365:2371   */\n      dup5\n        /* \"#utility.yul\":2360:2363   */\n      dup5\n        /* \"#utility.yul\":2356:2372   */\n      add\n        /* \"#utility.yul\":2349:2376   */\n      mstore\n        /* \"#utility.yul\":2198:2382   */\n      pop\n        /* \"#utility.yul\":2136:2382   */\n      pop\n      pop\n      pop\n      jump\t// out\n        /* \"#utility.yul\":2388:2490   */\n    tag_99:\n        /* \"#utility.yul\":2429:2435   */\n      0x00\n        /* \"#utility.yul\":2480:2482   */\n      0x1f\n        /* \"#utility.yul\":2476:2483   */\n      not\n        /* \"#utility.yul\":2471:2473   */\n      0x1f\n        /* \"#utility.yul\":2464:2469   */\n      dup4\n        /* \"#utility.yul\":2460:2474   */\n      add\n        /* \"#utility.yul\":2456:2484   */\n      and\n        /* \"#utility.yul\":2446:2484   */\n      swap1\n      pop\n        /* \"#utility.yul\":2388:2490   */\n      swap2\n      swap1\n      pop\n      jump\t// out\n        /* \"#utility.yul\":2496:2873   */\n    tag_100:\n        /* \"#utility.yul\":2584:2587   */\n      0x00\n        /* \"#utility.yul\":2612:2651   */\n      tag_167\n        /* \"#utility.yul\":2645:2650   */\n      dup3\n        /* \"#utility.yul\":2612:2651   */\n      tag_96\n      jump\t// in\n    tag_167:\n        /* \"#utility.yul\":2667:2738   */\n      tag_168\n        /* \"#utility.yul\":2731:2737   */\n      dup2\n        /* \"#utility.yul\":2726:2729   */\n      dup6\n        /* \"#utility.yul\":2667:2738   */\n      tag_97\n      jump\t// in\n    tag_168:\n        /* \"#utility.yul\":2660:2738   */\n      swap4\n      pop\n        /* \"#utility.yul\":2747:2812   */\n      tag_169\n        /* \"#utility.yul\":2805:2811   */\n      dup2\n        /* \"#utility.yul\":2800:2803   */\n      dup6\n        /* \"#utility.yul\":2793:2797   */\n      0x20\n        /* \"#utility.yul\":2786:2791   */\n      dup7\n        /* \"#utility.yul\":2782:2798   */\n      add\n        /* \"#utility.yul\":2747:2812   */\n      tag_98\n      jump\t// in\n    tag_169:\n        /* \"#utility.yul\":2837:2866   */\n      tag_170\n        /* \"#utility.yul\":2859:2865   */\n      dup2\n        /* \"#utility.yul\":2837:2866   */\n      tag_99\n      jump\t// in\n    tag_170:\n        /* \"#utility.yul\":2832:2835   */\n      dup5\n        /* \"#utility.yul\":2828:2867   */\n      add\n        /* \"#utility.yul\":2821:2867   */\n      swap2\n      pop\n        /* \"#utility.yul\":2588:2873   */\n      pop\n        /* \"#utility.yul\":2496:2873   */\n      swap3\n      swap2\n      pop\n      pop\n      jump\t// out\n        /* \"#utility.yul\":2879:2988   */\n    tag_101:\n        /* \"#utility.yul\":2960:2981   */\n      tag_172\n        /* \"#utility.yul\":2975:2980   */\n      dup2\n        /* \"#utility.yul\":2960:2981   */\n      tag_93\n      jump\t// in\n    tag_172:\n        /* \"#utility.yul\":2955:2958   */\n      dup3\n        /* \"#utility.yul\":2948:2982   */\n      mstore\n        /* \"#utility.yul\":2879:2988   */\n      pop\n      pop\n      jump\t// out\n        /* \"#utility.yul\":2994:3405   */\n    tag_22:\n        /* \"#utility.yul\":3129:3133   */\n      0x00\n        /* \"#utility.yul\":3167:3169   */\n      0x40\n        /* \"#utility.yul\":3156:3165   */\n      dup3\n        /* \"#utility.yul\":3152:3170   */\n      add\n        /* \"#utility.yul\":3144:3170   */\n      swap1\n      pop\n        /* \"#utility.yul\":3216:3225   */\n      dup2\n        /* \"#utility.yul\":3210:3214   */\n      dup2\n        /* \"#utility.yul\":3206:3226   */\n      sub\n        /* \"#utility.yul\":3202:3203   */\n      0x00\n        /* \"#utility.yul\":3191:3200   */\n      dup4\n        /* \"#utility.yul\":3187:3204   */\n      add\n        /* \"#utility.yul\":3180:3227   */\n      mstore\n        /* \"#utility.yul\":3244:3322   */\n      tag_174\n        /* \"#utility.yul\":3317:3321   */\n      dup2\n        /* \"#utility.yul\":3308:3314   */\n      dup6\n        /* \"#utility.yul\":3244:3322   */\n      tag_100\n      jump\t// in\n    tag_174:\n        /* \"#utility.yul\":3236:3322   */\n      swap1\n      pop\n        /* \"#utility.yul\":3332:3398   */\n      tag_175\n        /* \"#utility.yul\":3394:3396   */\n      0x20\n        /* \"#utility.yul\":3383:3392   */\n      dup4\n        /* \"#utility.yul\":3379:3397   */\n      add\n        /* \"#utility.yul\":3370:3376   */\n      dup5\n        /* \"#utility.yul\":3332:3398   */\n      tag_101\n      jump\t// in\n    tag_175:\n        /* \"#utility.yul\":2994:3405   */\n      swap4\n      swap3\n      pop\n      pop\n      pop\n      jump\t// out\n        /* \"#utility.yul\":3411:3537   */\n    tag_102:\n        /* \"#utility.yul\":3448:3455   */\n      0x00\n        /* \"#utility.yul\":3488:3530   */\n      0xffffffffffffffffffffffffffffffffffffffff\n        /* \"#utility.yul\":3481:3486   */\n      dup3\n        /* \"#utility.yul\":3477:3531   */\n      and\n        /* \"#utility.yul\":3466:3531   */\n      swap1\n      pop\n        /* \"#utility.yul\":3411:3537   */\n      swap2\n      swap1\n      pop\n      jump\t// out\n        /* \"#utility.yul\":3543:3639   */\n    tag_103:\n        /* \"#utility.yul\":3580:3587   */\n      0x00\n        /* \"#utility.yul\":3609:3633   */\n      tag_178\n        /* \"#utility.yul\":3627:3632   */\n      dup3\n        /* \"#utility.yul\":3609:3633   */\n      tag_102\n      jump\t// in\n    tag_178:\n        /* \"#utility.yul\":3598:3633   */\n      swap1\n      pop\n        /* \"#utility.yul\":3543:3639   */\n      swap2\n      swap1\n      pop\n      jump\t// out\n        /* \"#utility.yul\":3645:3763   */\n    tag_104:\n        /* \"#utility.yul\":3732:3756   */\n      tag_180\n        /* \"#utility.yul\":3750:3755   */\n      dup2\n        /* \"#utility.yul\":3732:3756   */\n      tag_103\n      jump\t// in\n    tag_180:\n        /* \"#utility.yul\":3727:3730   */\n      dup3\n        /* \"#utility.yul\":3720:3757   */\n      mstore\n        /* \"#utility.yul\":3645:3763   */\n      pop\n      pop\n      jump\t// out\n        /* \"#utility.yul\":3769:3991   */\n    tag_26:\n        /* \"#utility.yul\":3862:3866   */\n      0x00\n        /* \"#utility.yul\":3900:3902   */\n      0x20\n        /* \"#utility.yul\":3889:3898   */\n      dup3\n        /* \"#utility.yul\":3885:3903   */\n      add\n        /* \"#utility.yul\":3877:3903   */\n      swap1\n      pop\n        /* \"#utility.yul\":3913:3984   */\n      tag_182\n        /* \"#utility.yul\":3981:3982   */\n      0x00\n        /* \"#utility.yul\":3970:3979   */\n      dup4\n        /* \"#utility.yul\":3966:3983   */\n      add\n        /* \"#utility.yul\":3957:3963   */\n      dup5\n        /* \"#utility.yul\":3913:3984   */\n      tag_104\n      jump\t// in\n    tag_182:\n        /* \"#utility.yul\":3769:3991   */\n      swap3\n      swap2\n      pop\n      pop\n      jump\t// out\n        /* \"#utility.yul\":3997:4114   */\n    tag_105:\n        /* \"#utility.yul\":4106:4107   */\n      0x00\n        /* \"#utility.yul\":4103:4104   */\n      dup1\n        /* \"#utility.yul\":4096:4108   */\n      revert\n        /* \"#utility.yul\":4120:4237   */\n    tag_106:\n        /* \"#utility.yul\":4229:4230   */\n      0x00\n        /* \"#utility.yul\":4226:4227   */\n      dup1\n        /* \"#utility.yul\":4219:4231   */\n      revert\n        /* \"#utility.yul\":4243:4423   */\n    tag_107:\n        /* \"#utility.yul\":4291:4368   */\n      0x4e487b7100000000000000000000000000000000000000000000000000000000\n        /* \"#utility.yul\":4288:4289   */\n      0x00\n        /* \"#utility.yul\":4281:4369   */\n      mstore\n        /* \"#utility.yul\":4388:4392   */\n      0x41\n        /* \"#utility.yul\":4385:4386   */\n      0x04\n        /* \"#utility.yul\":4378:4393   */\n      mstore\n        /* \"#utility.yul\":4412:4416   */\n      0x24\n        /* \"#utility.yul\":4409:4410   */\n      0x00\n        /* \"#utility.yul\":4402:4417   */\n      revert\n        /* \"#utility.yul\":4429:4710   */\n    tag_108:\n        /* \"#utility.yul\":4512:4539   */\n      tag_187\n        /* \"#utility.yul\":4534:4538   */\n      dup3\n        /* \"#utility.yul\":4512:4539   */\n      tag_99\n      jump\t// in\n    tag_187:\n        /* \"#utility.yul\":4504:4510   */\n      dup2\n        /* \"#utility.yul\":4500:4540   */\n      add\n        /* \"#utility.yul\":4642:4648   */\n      dup2\n        /* \"#utility.yul\":4630:4640   */\n      dup2\n        /* \"#utility.yul\":4627:4649   */\n      lt\n        /* \"#utility.yul\":4606:4624   */\n      0xffffffffffffffff\n        /* \"#utility.yul\":4594:4604   */\n      dup3\n        /* \"#utility.yul\":4591:4625   */\n      gt\n        /* \"#utility.yul\":4588:4650   */\n      or\n        /* \"#utility.yul\":4585:4673   */\n      iszero\n      tag_188\n      jumpi\n        /* \"#utility.yul\":4653:4671   */\n      tag_189\n      tag_107\n      jump\t// in\n    tag_189:\n        /* \"#utility.yul\":4585:4673   */\n    tag_188:\n        /* \"#utility.yul\":4693:4703   */\n      dup1\n        /* \"#utility.yul\":4689:4691   */\n      0x40\n        /* \"#utility.yul\":4682:4704   */\n      mstore\n        /* \"#utility.yul\":4472:4710   */\n      pop\n        /* \"#utility.yul\":4429:4710   */\n      pop\n      pop\n      jump\t// out\n        /* \"#utility.yul\":4716:4845   */\n    tag_109:\n        /* \"#utility.yul\":4750:4756   */\n      0x00\n        /* \"#utility.yul\":4777:4797   */\n      tag_191\n      tag_87\n      jump\t// in\n    tag_191:\n        /* \"#utility.yul\":4767:4797   */\n      swap1\n      pop\n        /* \"#utility.yul\":4806:4839   */\n      tag_192\n        /* \"#utility.yul\":4834:4838   */\n      dup3\n        /* \"#utility.yul\":4826:4832   */\n      dup3\n        /* \"#utility.yul\":4806:4839   */\n      tag_108\n      jump\t// in\n    tag_192:\n        /* \"#utility.yul\":4716:4845   */\n      swap2\n      swap1\n      pop\n      jump\t// out\n        /* \"#utility.yul\":4851:5159   */\n    tag_110:\n        /* \"#utility.yul\":4913:4917   */\n      0x00\n        /* \"#utility.yul\":5003:5021   */\n      0xffffffffffffffff\n        /* \"#utility.yul\":4995:5001   */\n      dup3\n        /* \"#utility.yul\":4992:5022   */\n      gt\n        /* \"#utility.yul\":4989:5045   */\n      iszero\n      tag_194\n      jumpi\n        /* \"#utility.yul\":5025:5043   */\n      tag_195\n      tag_107\n      jump\t// in\n    tag_195:\n        /* \"#utility.yul\":4989:5045   */\n    tag_194:\n        /* \"#utility.yul\":5063:5092   */\n      tag_196\n        /* \"#utility.yul\":5085:5091   */\n      dup3\n        /* \"#utility.yul\":5063:5092   */\n      tag_99\n      jump\t// in\n    tag_196:\n        /* \"#utility.yul\":5055:5092   */\n      swap1\n      pop\n        /* \"#utility.yul\":5147:5151   */\n      0x20\n        /* \"#utility.yul\":5141:5145   */\n      dup2\n        /* \"#utility.yul\":5137:5152   */\n      add\n        /* \"#utility.yul\":5129:5152   */\n      swap1\n      pop\n        /* \"#utility.yul\":4851:5159   */\n      swap2\n      swap1\n      pop\n      jump\t// out\n        /* \"#utility.yul\":5165:5311   */\n    tag_111:\n        /* \"#utility.yul\":5262:5268   */\n      dup3\n        /* \"#utility.yul\":5257:5260   */\n      dup2\n        /* \"#utility.yul\":5252:5255   */\n      dup4\n        /* \"#utility.yul\":5239:5269   */\n      calldatacopy\n        /* \"#utility.yul\":5303:5304   */\n      0x00\n        /* \"#utility.yul\":5294:5300   */\n      dup4\n        /* \"#utility.yul\":5289:5292   */\n      dup4\n        /* \"#utility.yul\":5285:5301   */\n      add\n        /* \"#utility.yul\":5278:5305   */\n      mstore\n        /* \"#utility.yul\":5165:5311   */\n      pop\n      pop\n      pop\n      jump\t// out\n        /* \"#utility.yul\":5317:5742   */\n    tag_112:\n        /* \"#utility.yul\":5395:5400   */\n      0x00\n        /* \"#utility.yul\":5420:5486   */\n      tag_199\n        /* \"#utility.yul\":5436:5485   */\n      tag_200\n        /* \"#utility.yul\":5478:5484   */\n      dup5\n        /* \"#utility.yul\":5436:5485   */\n      tag_110\n      jump\t// in\n    tag_200:\n        /* \"#utility.yul\":5420:5486   */\n      tag_109\n      jump\t// in\n    tag_199:\n        /* \"#utility.yul\":5411:5486   */\n      swap1\n      pop\n        /* \"#utility.yul\":5509:5515   */\n      dup3\n        /* \"#utility.yul\":5502:5507   */\n      dup2\n        /* \"#utility.yul\":5495:5516   */\n      mstore\n        /* \"#utility.yul\":5547:5551   */\n      0x20\n        /* \"#utility.yul\":5540:5545   */\n      dup2\n        /* \"#utility.yul\":5536:5552   */\n      add\n        /* \"#utility.yul\":5585:5588   */\n      dup5\n        /* \"#utility.yul\":5576:5582   */\n      dup5\n        /* \"#utility.yul\":5571:5574   */\n      dup5\n        /* \"#utility.yul\":5567:5583   */\n      add\n        /* \"#utility.yul\":5564:5589   */\n      gt\n        /* \"#utility.yul\":5561:5673   */\n      iszero\n      tag_201\n      jumpi\n        /* \"#utility.yul\":5592:5671   */\n      tag_202\n      tag_106\n      jump\t// in\n    tag_202:\n        /* \"#utility.yul\":5561:5673   */\n    tag_201:\n        /* \"#utility.yul\":5682:5736   */\n      tag_203\n        /* \"#utility.yul\":5729:5735   */\n      dup5\n        /* \"#utility.yul\":5724:5727   */\n      dup3\n        /* \"#utility.yul\":5719:5722   */\n      dup6\n        /* \"#utility.yul\":5682:5736   */\n      tag_111\n      jump\t// in\n    tag_203:\n        /* \"#utility.yul\":5401:5742   */\n      pop\n        /* \"#utility.yul\":5317:5742   */\n      swap4\n      swap3\n      pop\n      pop\n      pop\n      jump\t// out\n        /* \"#utility.yul\":5762:6102   */\n    tag_113:\n        /* \"#utility.yul\":5818:5823   */\n      0x00\n        /* \"#utility.yul\":5867:5870   */\n      dup3\n        /* \"#utility.yul\":5860:5864   */\n      0x1f\n        /* \"#utility.yul\":5852:5858   */\n      dup4\n        /* \"#utility.yul\":5848:5865   */\n      add\n        /* \"#utility.yul\":5844:5871   */\n      slt\n        /* \"#utility.yul\":5834:5956   */\n      tag_205\n      jumpi\n        /* \"#utility.yul\":5875:5954   */\n      tag_206\n      tag_105\n      jump\t// in\n    tag_206:\n        /* \"#utility.yul\":5834:5956   */\n    tag_205:\n        /* \"#utility.yul\":5992:5998   */\n      dup2\n        /* \"#utility.yul\":5979:5999   */\n      calldataload\n        /* \"#utility.yul\":6017:6096   */\n      tag_207\n        /* \"#utility.yul\":6092:6095   */\n      dup5\n        /* \"#utility.yul\":6084:6090   */\n      dup3\n        /* \"#utility.yul\":6077:6081   */\n      0x20\n        /* \"#utility.yul\":6069:6075   */\n      dup7\n        /* \"#utility.yul\":6065:6082   */\n      add\n        /* \"#utility.yul\":6017:6096   */\n      tag_112\n      jump\t// in\n    tag_207:\n        /* \"#utility.yul\":6008:6096   */\n      swap2\n      pop\n        /* \"#utility.yul\":5824:6102   */\n      pop\n        /* \"#utility.yul\":5762:6102   */\n      swap3\n      swap2\n      pop\n      pop\n      jump\t// out\n        /* \"#utility.yul\":6108:6617   */\n    tag_33:\n        /* \"#utility.yul\":6177:6183   */\n      0x00\n        /* \"#utility.yul\":6226:6228   */\n      0x20\n        /* \"#utility.yul\":6214:6223   */\n      dup3\n        /* \"#utility.yul\":6205:6212   */\n      dup5\n        /* \"#utility.yul\":6201:6224   */\n      sub\n        /* \"#utility.yul\":6197:6229   */\n      slt\n        /* \"#utility.yul\":6194:6313   */\n      iszero\n      tag_209\n      jumpi\n        /* \"#utility.yul\":6232:6311   */\n      tag_210\n      tag_88\n      jump\t// in\n    tag_210:\n        /* \"#utility.yul\":6194:6313   */\n    tag_209:\n        /* \"#utility.yul\":6380:6381   */\n      0x00\n        /* \"#utility.yul\":6369:6378   */\n      dup3\n        /* \"#utility.yul\":6365:6382   */\n      add\n        /* \"#utility.yul\":6352:6383   */\n      calldataload\n        /* \"#utility.yul\":6410:6428   */\n      0xffffffffffffffff\n        /* \"#utility.yul\":6402:6408   */\n      dup2\n        /* \"#utility.yul\":6399:6429   */\n      gt\n        /* \"#utility.yul\":6396:6513   */\n      iszero\n      tag_211\n      jumpi\n        /* \"#utility.yul\":6432:6511   */\n      tag_212\n      tag_89\n      jump\t// in\n    tag_212:\n        /* \"#utility.yul\":6396:6513   */\n    tag_211:\n        /* \"#utility.yul\":6537:6600   */\n      tag_213\n        /* \"#utility.yul\":6592:6599   */\n      dup5\n        /* \"#utility.yul\":6583:6589   */\n      dup3\n        /* \"#utility.yul\":6572:6581   */\n      dup6\n        /* \"#utility.yul\":6568:6590   */\n      add\n        /* \"#utility.yul\":6537:6600   */\n      tag_113\n      jump\t// in\n    tag_213:\n        /* \"#utility.yul\":6527:6600   */\n      swap2\n      pop\n        /* \"#utility.yul\":6323:6610   */\n      pop\n        /* \"#utility.yul\":6108:6617   */\n      swap3\n      swap2\n      pop\n      pop\n      jump\t// out\n        /* \"#utility.yul\":6623:6745   */\n    tag_114:\n        /* \"#utility.yul\":6696:6720   */\n      tag_215\n        /* \"#utility.yul\":6714:6719   */\n      dup2\n        /* \"#utility.yul\":6696:6720   */\n      tag_103\n      jump\t// in\n    tag_215:\n        /* \"#utility.yul\":6689:6694   */\n      dup2\n        /* \"#utility.yul\":6686:6721   */\n      eq\n        /* \"#utility.yul\":6676:6739   */\n      tag_216\n      jumpi\n        /* \"#utility.yul\":6735:6736   */\n      0x00\n        /* \"#utility.yul\":6732:6733   */\n      dup1\n        /* \"#utility.yul\":6725:6737   */\n      revert\n        /* \"#utility.yul\":6676:6739   */\n    tag_216:\n        /* \"#utility.yul\":6623:6745   */\n      pop\n      jump\t// out\n        /* \"#utility.yul\":6751:6890   */\n    tag_115:\n        /* \"#utility.yul\":6797:6802   */\n      0x00\n        /* \"#utility.yul\":6835:6841   */\n      dup2\n        /* \"#utility.yul\":6822:6842   */\n      calldataload\n        /* \"#utility.yul\":6813:6842   */\n      swap1\n      pop\n        /* \"#utility.yul\":6851:6884   */\n      tag_218\n        /* \"#utility.yul\":6878:6883   */\n      dup2\n        /* \"#utility.yul\":6851:6884   */\n      tag_114\n      jump\t// in\n    tag_218:\n        /* \"#utility.yul\":6751:6890   */\n      swap3\n      swap2\n      pop\n      pop\n      jump\t// out\n        /* \"#utility.yul\":6896:7225   */\n    tag_37:\n        /* \"#utility.yul\":6955:6961   */\n      0x00\n        /* \"#utility.yul\":7004:7006   */\n      0x20\n        /* \"#utility.yul\":6992:7001   */\n      dup3\n        /* \"#utility.yul\":6983:6990   */\n      dup5\n        /* \"#utility.yul\":6979:7002   */\n      sub\n        /* \"#utility.yul\":6975:7007   */\n      slt\n        /* \"#utility.yul\":6972:7091   */\n      iszero\n      tag_220\n      jumpi\n        /* \"#utility.yul\":7010:7089   */\n      tag_221\n      tag_88\n      jump\t// in\n    tag_221:\n        /* \"#utility.yul\":6972:7091   */\n    tag_220:\n        /* \"#utility.yul\":7130:7131   */\n      0x00\n        /* \"#utility.yul\":7155:7208   */\n      tag_222\n        /* \"#utility.yul\":7200:7207   */\n      dup5\n        /* \"#utility.yul\":7191:7197   */\n      dup3\n        /* \"#utility.yul\":7180:7189   */\n      dup6\n        /* \"#utility.yul\":7176:7198   */\n      add\n        /* \"#utility.yul\":7155:7208   */\n      tag_115\n      jump\t// in\n    tag_222:\n        /* \"#utility.yul\":7145:7208   */\n      swap2\n      pop\n        /* \"#utility.yul\":7101:7218   */\n      pop\n        /* \"#utility.yul\":6896:7225   */\n      swap3\n      swap2\n      pop\n      pop\n      jump\t// out\n        /* \"#utility.yul\":7231:7411   */\n    tag_47:\n        /* \"#utility.yul\":7279:7356   */\n      0x4e487b7100000000000000000000000000000000000000000000000000000000\n        /* \"#utility.yul\":7276:7277   */\n      0x00\n        /* \"#utility.yul\":7269:7357   */\n      mstore\n        /* \"#utility.yul\":7376:7380   */\n      0x32\n        /* \"#utility.yul\":7373:7374   */\n      0x04\n        /* \"#utility.yul\":7366:7381   */\n      mstore\n        /* \"#utility.yul\":7400:7404   */\n      0x24\n        /* \"#utility.yul\":7397:7398   */\n      0x00\n        /* \"#utility.yul\":7390:7405   */\n      revert\n        /* \"#utility.yul\":7417:7535   */\n    tag_116:\n        /* \"#utility.yul\":7504:7528   */\n      tag_225\n        /* \"#utility.yul\":7522:7527   */\n      dup2\n        /* \"#utility.yul\":7504:7528   */\n      tag_90\n      jump\t// in\n    tag_225:\n        /* \"#utility.yul\":7499:7502   */\n      dup3\n        /* \"#utility.yul\":7492:7529   */\n      mstore\n        /* \"#utility.yul\":7417:7535   */\n      pop\n      pop\n      jump\t// out\n        /* \"#utility.yul\":7541:7861   */\n    tag_50:\n        /* \"#utility.yul\":7656:7660   */\n      0x00\n        /* \"#utility.yul\":7694:7696   */\n      0x40\n        /* \"#utility.yul\":7683:7692   */\n      dup3\n        /* \"#utility.yul\":7679:7697   */\n      add\n        /* \"#utility.yul\":7671:7697   */\n      swap1\n      pop\n        /* \"#utility.yul\":7707:7778   */\n      tag_227\n        /* \"#utility.yul\":7775:7776   */\n      0x00\n        /* \"#utility.yul\":7764:7773   */\n      dup4\n        /* \"#utility.yul\":7760:7777   */\n      add\n        /* \"#utility.yul\":7751:7757   */\n      dup6\n        /* \"#utility.yul\":7707:7778   */\n      tag_116\n      jump\t// in\n    tag_227:\n        /* \"#utility.yul\":7788:7854   */\n      tag_228\n        /* \"#utility.yul\":7850:7852   */\n      0x20\n        /* \"#utility.yul\":7839:7848   */\n      dup4\n        /* \"#utility.yul\":7835:7853   */\n      add\n        /* \"#utility.yul\":7826:7832   */\n      dup5\n        /* \"#utility.yul\":7788:7854   */\n      tag_101\n      jump\t// in\n    tag_228:\n        /* \"#utility.yul\":7541:7861   */\n      swap4\n      swap3\n      pop\n      pop\n      pop\n      jump\t// out\n        /* \"#utility.yul\":7867:8047   */\n    tag_117:\n        /* \"#utility.yul\":7915:7992   */\n      0x4e487b7100000000000000000000000000000000000000000000000000000000\n        /* \"#utility.yul\":7912:7913   */\n      0x00\n        /* \"#utility.yul\":7905:7993   */\n      mstore\n        /* \"#utility.yul\":8012:8016   */\n      0x22\n        /* \"#utility.yul\":8009:8010   */\n      0x04\n        /* \"#utility.yul\":8002:8017   */\n      mstore\n        /* \"#utility.yul\":8036:8040   */\n      0x24\n        /* \"#utility.yul\":8033:8034   */\n      0x00\n        /* \"#utility.yul\":8026:8041   */\n      revert\n        /* \"#utility.yul\":8053:8373   */\n    tag_54:\n        /* \"#utility.yul\":8097:8103   */\n      0x00\n        /* \"#utility.yul\":8134:8135   */\n      0x02\n        /* \"#utility.yul\":8128:8132   */\n      dup3\n        /* \"#utility.yul\":8124:8136   */\n      div\n        /* \"#utility.yul\":8114:8136   */\n      swap1\n      pop\n        /* \"#utility.yul\":8181:8182   */\n      0x01\n        /* \"#utility.yul\":8175:8179   */\n      dup3\n        /* \"#utility.yul\":8171:8183   */\n      and\n        /* \"#utility.yul\":8202:8220   */\n      dup1\n        /* \"#utility.yul\":8192:8273   */\n      tag_231\n      jumpi\n        /* \"#utility.yul\":8258:8262   */\n      0x7f\n        /* \"#utility.yul\":8250:8256   */\n      dup3\n        /* \"#utility.yul\":8246:8263   */\n      and\n        /* \"#utility.yul\":8236:8263   */\n      swap2\n      pop\n        /* \"#utility.yul\":8192:8273   */\n    tag_231:\n        /* \"#utility.yul\":8320:8322   */\n      0x20\n        /* \"#utility.yul\":8312:8318   */\n      dup3\n        /* \"#utility.yul\":8309:8323   */\n      lt\n        /* \"#utility.yul\":8289:8307   */\n      dup2\n        /* \"#utility.yul\":8286:8324   */\n      sub\n        /* \"#utility.yul\":8283:8367   */\n      tag_232\n      jumpi\n        /* \"#utility.yul\":8339:8357   */\n      tag_233\n      tag_117\n      jump\t// in\n    tag_233:\n        /* \"#utility.yul\":8283:8367   */\n    tag_232:\n        /* \"#utility.yul\":8104:8373   */\n      pop\n        /* \"#utility.yul\":8053:8373   */\n      swap2\n      swap1\n      pop\n      jump\t// out\n        /* \"#utility.yul\":8379:8520   */\n    tag_118:\n        /* \"#utility.yul\":8428:8432   */\n      0x00\n        /* \"#utility.yul\":8451:8454   */\n      dup2\n        /* \"#utility.yul\":8443:8454   */\n      swap1\n      pop\n        /* \"#utility.yul\":8474:8477   */\n      dup2\n        /* \"#utility.yul\":8471:8472   */\n      0x00\n        /* \"#utility.yul\":8464:8478   */\n      mstore\n        /* \"#utility.yul\":8508:8512   */\n      0x20\n        /* \"#utility.yul\":8505:8506   */\n      0x00\n        /* \"#utility.yul\":8495:8513   */\n      keccak256\n        /* \"#utility.yul\":8487:8513   */\n      swap1\n      pop\n        /* \"#utility.yul\":8379:8520   */\n      swap2\n      swap1\n      pop\n      jump\t// out\n        /* \"#utility.yul\":8526:8619   */\n    tag_119:\n        /* \"#utility.yul\":8563:8569   */\n      0x00\n        /* \"#utility.yul\":8610:8612   */\n      0x20\n        /* \"#utility.yul\":8605:8607   */\n      0x1f\n        /* \"#utility.yul\":8598:8603   */\n      dup4\n        /* \"#utility.yul\":8594:8608   */\n      add\n        /* \"#utility.yul\":8590:8613   */\n      div\n        /* \"#utility.yul\":8580:8613   */\n      swap1\n      pop\n        /* \"#utility.yul\":8526:8619   */\n      swap2\n      swap1\n      pop\n      jump\t// out\n        /* \"#utility.yul\":8625:8732   */\n    tag_120:\n        /* \"#utility.yul\":8669:8677   */\n      0x00\n        /* \"#utility.yul\":8719:8724   */\n      dup3\n        /* \"#utility.yul\":8713:8717   */\n      dup3\n        /* \"#utility.yul\":8709:8725   */\n      shl\n        /* \"#utility.yul\":8688:8725   */\n      swap1\n      pop\n        /* \"#utility.yul\":8625:8732   */\n      swap3\n      swap2\n      pop\n      pop\n      jump\t// out\n        /* \"#utility.yul\":8738:9131   */\n    tag_121:\n        /* \"#utility.yul\":8807:8813   */\n      0x00\n        /* \"#utility.yul\":8857:8858   */\n      0x08\n        /* \"#utility.yul\":8845:8855   */\n      dup4\n        /* \"#utility.yul\":8841:8859   */\n      mul\n        /* \"#utility.yul\":8880:8977   */\n      tag_238\n        /* \"#utility.yul\":8910:8976   */\n      0xffffffffffffffffffffffffffffffffffffffffffffffffffffffffffffffff\n        /* \"#utility.yul\":8899:8908   */\n      dup3\n        /* \"#utility.yul\":8880:8977   */\n      tag_120\n      jump\t// in\n    tag_238:\n        /* \"#utility.yul\":8998:9037   */\n      tag_239\n        /* \"#utility.yul\":9028:9036   */\n      dup7\n        /* \"#utility.yul\":9017:9026   */\n      dup4\n        /* \"#utility.yul\":8998:9037   */\n      tag_120\n      jump\t// in\n    tag_239:\n        /* \"#utility.yul\":8986:9037   */\n      swap6\n      pop\n        /* \"#utility.yul\":9070:9074   */\n      dup1\n        /* \"#utility.yul\":9066:9075   */\n      not\n        /* \"#utility.yul\":9059:9064   */\n      dup5\n        /* \"#utility.yul\":9055:9076   */\n      and\n        /* \"#utility.yul\":9046:9076   */\n      swap4\n      pop\n        /* \"#utility.yul\":9119:9123   */\n      dup1\n        /* \"#utility.yul\":9109:9117   */\n      dup7\n        /* \"#utility.yul\":9105:9124   */\n      and\n        /* \"#utility.yul\":9098:9103   */\n      dup5\n        /* \"#utility.yul\":9095:9125   */\n      or\n        /* \"#utility.yul\":9085:9125   */\n      swap3\n      pop\n        /* \"#utility.yul\":8814:9131   */\n      pop\n      pop\n        /* \"#utility.yul\":8738:9131   */\n      swap4\n      swap3\n      pop\n      pop\n      pop\n      jump\t// out\n        /* \"#utility.yul\":9137:9197   */\n    tag_122:\n        /* \"#utility.yul\":9165:9168   */\n      0x00\n        /* \"#utility.yul\":9186:9191   */\n      dup2\n        /* \"#utility.yul\":9179:9191   */\n      swap1\n      pop\n        /* \"#utility.yul\":9137:9197   */\n      swap2\n      swap1\n      pop\n      jump\t// out\n        /* \"#utility.yul\":9203:9345   */\n    tag_123:\n        /* \"#utility.yul\":9253:9262   */\n      0x00\n        /* \"#utility.yul\":9286:9339   */\n      tag_242\n        /* \"#utility.yul\":9304:9338   */\n      tag_243\n        /* \"#utility.yul\":9313:9337   */\n      tag_244\n        /* \"#utility.yul\":9331:9336   */\n      dup5\n        /* \"#utility.yul\":9313:9337   */\n      tag_90\n      jump\t// in\n    tag_244:\n        /* \"#utility.yul\":9304:9338   */\n      tag_122\n      jump\t// in\n    tag_243:\n        /* \"#utility.yul\":9286:9339   */\n      tag_90\n      jump\t// in\n    tag_242:\n        /* \"#utility.yul\":9273:9339   */\n      swap1\n      pop\n        /* \"#utility.yul\":9203:9345   */\n      swap2\n      swap1\n      pop\n      jump\t// out\n        /* \"#utility.yul\":9351:9426   */\n    tag_124:\n        /* \"#utility.yul\":9394:9397   */\n      0x00\n        /* \"#utility.yul\":9415:9420   */\n      dup2\n        /* \"#utility.yul\":9408:9420   */\n      swap1\n      pop\n        /* \"#utility.yul\":9351:9426   */\n      swap2\n      swap1\n      pop\n      jump\t// out\n        /* \"#utility.yul\":9432:9701   */\n    tag_125:\n        /* \"#utility.yul\":9542:9581   */\n      tag_247\n        /* \"#utility.yul\":9573:9580   */\n      dup4\n        /* \"#utility.yul\":9542:9581   */\n      tag_123\n      jump\t// in\n    tag_247:\n        /* \"#utility.yul\":9603:9694   */\n      tag_248\n        /* \"#utility.yul\":9652:9693   */\n      tag_249\n        /* \"#utility.yul\":9676:9692   */\n      dup3\n        /* \"#utility.yul\":9652:9693   */\n      tag_124\n      jump\t// in\n    tag_249:\n        /* \"#utility.yul\":9644:9650   */\n      dup5\n        /* \"#utility.yul\":9637:9641   */\n      dup5\n        /* \"#utility.yul\":9631:9642   */\n      sload\n        /* \"#utility.yul\":9603:9694   */\n      tag_121\n      jump\t// in\n    tag_248:\n        /* \"#utility.yul\":9597:9601   */\n      dup3\n        /* \"#utility.yul\":9590:9695   */\n      sstore\n        /* \"#utility.yul\":9508:9701   */\n      pop\n        /* \"#utility.yul\":9432:9701   */\n      pop\n      pop\n      pop\n      jump\t// out\n        /* \"#utility.yul\":9707:9780   */\n    tag_126:\n        /* \"#utility.yul\":9752:9755   */\n      0x00\n        /* \"#utility.yul\":9707:9780   */\n      swap1\n      jump\t// out\n        /* \"#utility.yul\":9786:9975   */\n    tag_127:\n        /* \"#utility.yul\":9863:9895   */\n      tag_252\n      tag_126\n      jump\t// in\n    tag_252:\n        /* \"#utility.yul\":9904:9969   */\n      tag_253\n        /* \"#utility.yul\":9962:9968   */\n      dup2\n        /* \"#utility.yul\":9954:9960   */\n      dup5\n        /* \"#utility.yul\":9948:9952   */\n      dup5\n        /* \"#utility.yul\":9904:9969   */\n      tag_125\n      jump\t// in\n    tag_253:\n        /* \"#utility.yul\":9839:9975   */\n      pop\n        /* \"#utility.yul\":9786:9975   */\n      pop\n      pop\n      jump\t// out\n        /* \"#utility.yul\":9981:10167   */\n    tag_128:\n        /* \"#utility.yul\":10041:10161   */\n    tag_255:\n        /* \"#utility.yul\":10058:10061   */\n      dup2\n        /* \"#utility.yul\":10051:10056   */\n      dup2\n        /* \"#utility.yul\":10048:10062   */\n      lt\n        /* \"#utility.yul\":10041:10161   */\n      iszero\n      tag_257\n      jumpi\n        /* \"#utility.yul\":10112:10151   */\n      tag_258\n        /* \"#utility.yul\":10149:10150   */\n      0x00\n        /* \"#utility.yul\":10142:10147   */\n      dup3\n        /* \"#utility.yul\":10112:10151   */\n      tag_127\n      jump\t// in\n    tag_258:\n        /* \"#utility.yul\":10085:10086   */\n      0x01\n        /* \"#utility.yul\":10078:10083   */\n      dup2\n        /* \"#utility.yul\":10074:10087   */\n      add\n        /* \"#utility.yul\":10065:10087   */\n      swap1\n      pop\n        /* \"#utility.yul\":10041:10161   */\n      jump(tag_255)\n    tag_257:\n        /* \"#utility.yul\":9981:10167   */\n      pop\n      pop\n      jump\t// out\n        /* \"#utility.yul\":10173:10716   */\n    tag_129:\n        /* \"#utility.yul\":10274:10276   */\n      0x1f\n        /* \"#utility.yul\":10269:10272   */\n      dup3\n        /* \"#utility.yul\":10266:10277   */\n      gt\n        /* \"#utility.yul\":10263:10709   */\n      iszero\n      tag_260\n      jumpi\n        /* \"#utility.yul\":10308:10346   */\n      tag_261\n        /* \"#utility.yul\":10340:10345   */\n      dup2\n        /* \"#utility.yul\":10308:10346   */\n      tag_118\n      jump\t// in\n    tag_261:\n        /* \"#utility.yul\":10392:10421   */\n      tag_262\n        /* \"#utility.yul\":10410:10420   */\n      dup5\n        /* \"#utility.yul\":10392:10421   */\n      tag_119\n      jump\t// in\n    tag_262:\n        /* \"#utility.yul\":10382:10390   */\n      dup2\n        /* \"#utility.yul\":10378:10422   */\n      add\n        /* \"#utility.yul\":10575:10577   */\n      0x20\n        /* \"#utility.yul\":10563:10573   */\n      dup6\n        /* \"#utility.yul\":10560:10578   */\n      lt\n        /* \"#utility.yul\":10557:10606   */\n      iszero\n      tag_263\n      jumpi\n        /* \"#utility.yul\":10596:10604   */\n      dup2\n        /* \"#utility.yul\":10581:10604   */\n      swap1\n      pop\n        /* \"#utility.yul\":10557:10606   */\n    tag_263:\n        /* \"#utility.yul\":10619:10699   */\n      tag_264\n        /* \"#utility.yul\":10675:10697   */\n      tag_265\n        /* \"#utility.yul\":10693:10696   */\n      dup6\n        /* \"#utility.yul\":10675:10697   */\n      tag_119\n      jump\t// in\n    tag_265:\n        /* \"#utility.yul\":10665:10673   */\n      dup4\n        /* \"#utility.yul\":10661:10698   */\n      add\n        /* \"#utility.yul\":10648:10659   */\n      dup3\n        /* \"#utility.yul\":10619:10699   */\n      tag_128\n      jump\t// in\n    tag_264:\n        /* \"#utility.yul\":10278:10709   */\n      pop\n      pop\n        /* \"#utility.yul\":10263:10709   */\n    tag_260:\n        /* \"#utility.yul\":10173:10716   */\n      pop\n      pop\n      pop\n      jump\t// out\n        /* \"#utility.yul\":10722:10839   */\n    tag_130:\n        /* \"#utility.yul\":10776:10784   */\n      0x00\n        /* \"#utility.yul\":10826:10831   */\n      dup3\n        /* \"#utility.yul\":10820:10824   */\n      dup3\n        /* \"#utility.yul\":10816:10832   */\n      shr\n        /* \"#utility.yul\":10795:10832   */\n      swap1\n      pop\n        /* \"#utility.yul\":10722:10839   */\n      swap3\n      swap2\n      pop\n      pop\n      jump\t// out\n        /* \"#utility.yul\":10845:11014   */\n    tag_131:\n        /* \"#utility.yul\":10889:10895   */\n      0x00\n        /* \"#utility.yul\":10922:10973   */\n      tag_268\n        /* \"#utility.yul\":10970:10971   */\n      0x00\n        /* \"#utility.yul\":10966:10972   */\n      not\n        /* \"#utility.yul\":10958:10963   */\n      dup5\n        /* \"#utility.yul\":10955:10956   */\n      0x08\n        /* \"#utility.yul\":10951:10964   */\n      mul\n        /* \"#utility.yul\":10922:10973   */\n      tag_130\n      jump\t// in\n    tag_268:\n        /* \"#utility.yul\":10918:10974   */\n      not\n        /* \"#utility.yul\":11003:11007   */\n      dup1\n        /* \"#utility.yul\":10997:11001   */\n      dup4\n        /* \"#utility.yul\":10993:11008   */\n      and\n        /* \"#utility.yul\":10983:11008   */\n      swap2\n      pop\n        /* \"#utility.yul\":10896:11014   */\n      pop\n        /* \"#utility.yul\":10845:11014   */\n      swap3\n      swap2\n      pop\n      pop\n      jump\t// out\n        /* \"#utility.yul\":11019:11314   */\n    tag_132:\n        /* \"#utility.yul\":11095:11099   */\n      0x00\n        /* \"#utility.yul\":11241:11270   */\n      tag_270\n        /* \"#utility.yul\":11266:11269   */\n      dup4\n        /* \"#utility.yul\":11260:11264   */\n      dup4\n        /* \"#utility.yul\":11241:11270   */\n      tag_131\n      jump\t// in\n    tag_270:\n        /* \"#utility.yul\":11233:11270   */\n      swap2\n      pop\n        /* \"#utility.yul\":11303:11306   */\n      dup3\n        /* \"#utility.yul\":11300:11301   */\n      0x02\n        /* \"#utility.yul\":11296:11307   */\n      mul\n        /* \"#utility.yul\":11290:11294   */\n      dup3\n        /* \"#utility.yul\":11287:11308   */\n      or\n        /* \"#utility.yul\":11279:11308   */\n      swap1\n      pop\n        /* \"#utility.yul\":11019:11314   */\n      swap3\n      swap2\n      pop\n      pop\n      jump\t// out\n        /* \"#utility.yul\":11319:12714   */\n    tag_78:\n        /* \"#utility.yul\":11436:11473   */\n      tag_272\n        /* \"#utility.yul\":11469:11472   */\n      dup3\n        /* \"#utility.yul\":11436:11473   */\n      tag_96\n      jump\t// in\n    tag_272:\n        /* \"#utility.yul\":11538:11556   */\n      0xffffffffffffffff\n        /* \"#utility.yul\":11530:11536   */\n      dup2\n        /* \"#utility.yul\":11527:11557   */\n      gt\n        /* \"#utility.yul\":11524:11580   */\n      iszero\n      tag_273\n      jumpi\n        /* \"#utility.yul\":11560:11578   */\n      tag_274\n      tag_107\n      jump\t// in\n    tag_274:\n        /* \"#utility.yul\":11524:11580   */\n    tag_273:\n        /* \"#utility.yul\":11604:11642   */\n      tag_275\n        /* \"#utility.yul\":11636:11640   */\n      dup3\n        /* \"#utility.yul\":11630:11641   */\n      sload\n        /* \"#utility.yul\":11604:11642   */\n      tag_54\n      jump\t// in\n    tag_275:\n        /* \"#utility.yul\":11689:11756   */\n      tag_276\n        /* \"#utility.yul\":11749:11755   */\n      dup3\n        /* \"#utility.yul\":11741:11747   */\n      dup3\n        /* \"#utility.yul\":11735:11739   */\n      dup6\n        /* \"#utility.yul\":11689:11756   */\n      tag_129\n      jump\t// in\n    tag_276:\n        /* \"#utility.yul\":11783:11784   */\n      0x00\n        /* \"#utility.yul\":11807:11811   */\n      0x20\n        /* \"#utility.yul\":11794:11811   */\n      swap1\n      pop\n        /* \"#utility.yul\":11839:11841   */\n      0x1f\n        /* \"#utility.yul\":11831:11837   */\n      dup4\n        /* \"#utility.yul\":11828:11842   */\n      gt\n        /* \"#utility.yul\":11856:11857   */\n      0x01\n        /* \"#utility.yul\":11851:12469   */\n      dup2\n      eq\n      tag_278\n      jumpi\n        /* \"#utility.yul\":12513:12514   */\n      0x00\n        /* \"#utility.yul\":12530:12536   */\n      dup5\n        /* \"#utility.yul\":12527:12604   */\n      iszero\n      tag_279\n      jumpi\n        /* \"#utility.yul\":12579:12588   */\n      dup3\n        /* \"#utility.yul\":12574:12577   */\n      dup8\n        /* \"#utility.yul\":12570:12589   */\n      add\n        /* \"#utility.yul\":12564:12590   */\n      mload\n        /* \"#utility.yul\":12555:12590   */\n      swap1\n      pop\n        /* \"#utility.yul\":12527:12604   */\n    tag_279:\n        /* \"#utility.yul\":12630:12697   */\n      tag_280\n        /* \"#utility.yul\":12690:12696   */\n      dup6\n        /* \"#utility.yul\":12683:12688   */\n      dup3\n        /* \"#utility.yul\":12630:12697   */\n      tag_132\n      jump\t// in\n    tag_280:\n        /* \"#utility.yul\":12624:12628   */\n      dup7\n        /* \"#utility.yul\":12617:12698   */\n      sstore\n        /* \"#utility.yul\":12486:12708   */\n      pop\n        /* \"#utility.yul\":11821:12708   */\n      jump(tag_277)\n        /* \"#utility.yul\":11851:12469   */\n    tag_278:\n        /* \"#utility.yul\":11903:11907   */\n      0x1f\n        /* \"#utility.yul\":11899:11908   */\n      not\n        /* \"#utility.yul\":11891:11897   */\n      dup5\n        /* \"#utility.yul\":11887:11909   */\n      and\n        /* \"#utility.yul\":11937:11974   */\n      tag_281\n        /* \"#utility.yul\":11969:11973   */\n      dup7\n        /* \"#utility.yul\":11937:11974   */\n      tag_118\n      jump\t// in\n    tag_281:\n        /* \"#utility.yul\":11996:11997   */\n      0x00\n        /* \"#utility.yul\":12010:12218   */\n    tag_282:\n        /* \"#utility.yul\":12024:12031   */\n      dup3\n        /* \"#utility.yul\":12021:12022   */\n      dup2\n        /* \"#utility.yul\":12018:12032   */\n      lt\n        /* \"#utility.yul\":12010:12218   */\n      iszero\n      tag_284\n      jumpi\n        /* \"#utility.yul\":12103:12112   */\n      dup5\n        /* \"#utility.yul\":12098:12101   */\n      dup10\n        /* \"#utility.yul\":12094:12113   */\n      add\n        /* \"#utility.yul\":12088:12114   */\n      mload\n        /* \"#utility.yul\":12080:12086   */\n      dup3\n        /* \"#utility.yul\":12073:12115   */\n      sstore\n        /* \"#utility.yul\":12154:12155   */\n      0x01\n        /* \"#utility.yul\":12146:12152   */\n      dup3\n        /* \"#utility.yul\":12142:12156   */\n      add\n        /* \"#utility.yul\":12132:12156   */\n      swap2\n      pop\n        /* \"#utility.yul\":12201:12203   */\n      0x20\n        /* \"#utility.yul\":12190:12199   */\n      dup6\n        /* \"#utility.yul\":12186:12204   */\n      add\n        /* \"#utility.yul\":12173:12204   */\n      swap5\n      pop\n        /* \"#utility.yul\":12047:12051   */\n      0x20\n        /* \"#utility.yul\":12044:12045   */\n      dup2\n        /* \"#utility.yul\":12040:12052   */\n      add\n        /* \"#utility.yul\":12035:12052   */\n      swap1\n      pop\n        /* \"#utility.yul\":12010:12218   */\n      jump(tag_282)\n    tag_284:\n        /* \"#utility.yul\":12246:12252   */\n      dup7\n        /* \"#utility.yul\":12237:12244   */\n      dup4\n        /* \"#utility.yul\":12234:12253   */\n      lt\n        /* \"#utility.yul\":12231:12410   */\n      iszero\n      tag_285\n      jumpi\n        /* \"#utility.yul\":12304:12313   */\n      dup5\n        /* \"#utility.yul\":12299:12302   */\n      dup10\n        /* \"#utility.yul\":12295:12314   */\n      add\n        /* \"#utility.yul\":12289:12315   */\n      mload\n        /* \"#utility.yul\":12347:12395   */\n      tag_286\n        /* \"#utility.yul\":12389:12393   */\n      0x1f\n        /* \"#utility.yul\":12381:12387   */\n      dup10\n        /* \"#utility.yul\":12377:12394   */\n      and\n        /* \"#utility.yul\":12366:12375   */\n      dup3\n        /* \"#utility.yul\":12347:12395   */\n      tag_131\n      jump\t// in\n    tag_286:\n        /* \"#utility.yul\":12339:12345   */\n      dup4\n        /* \"#utility.yul\":12332:12396   */\n      sstore\n        /* \"#utility.yul\":12254:12410   */\n      pop\n        /* \"#utility.yul\":12231:12410   */\n    tag_285:\n        /* \"#utility.yul\":12456:12457   */\n      0x01\n        /* \"#utility.yul\":12452:12453   */\n      0x02\n        /* \"#utility.yul\":12444:12450   */\n      dup9\n        /* \"#utility.yul\":12440:12454   */\n      mul\n        /* \"#utility.yul\":12436:12458   */\n      add\n        /* \"#utility.yul\":12430:12434   */\n      dup9\n        /* \"#utility.yul\":12423:12459   */\n      sstore\n        /* \"#utility.yul\":11858:12469   */\n      pop\n      pop\n      pop\n        /* \"#utility.yul\":11821:12708   */\n    tag_277:\n      pop\n        /* \"#utility.yul\":11411:12714   */\n      pop\n      pop\n      pop\n        /* \"#utility.yul\":11319:12714   */\n      pop\n      pop\n      jump\t// out\n        /* \"#utility.yul\":12720:12900   */\n    tag_133:\n        /* \"#utility.yul\":12768:12845   */\n      0x4e487b7100000000000000000000000000000000000000000000000000000000\n        /* \"#utility.yul\":12765:12766   */\n      0x00\n        /* \"#utility.yul\":12758:12846   */\n      mstore\n        /* \"#utility.yul\":12865:12869   */\n      0x11\n        /* \"#utility.yul\":12862:12863   */\n      0x04\n        /* \"#utility.yul\":12855:12870   */\n      mstore\n        /* \"#utility.yul\":12889:12893   */\n      0x24\n        /* \"#utility.yul\":12886:12887   */\n      0x00\n        /* \"#utility.yul\":12879:12894   */\n      revert\n        /* \"#utility.yul\":12906:13100   */\n    tag_80:\n        /* \"#utility.yul\":12946:12950   */\n      0x00\n        /* \"#utility.yul\":12966:12986   */\n      tag_289\n        /* \"#utility.yul\":12984:12985   */\n      dup3\n        /* \"#utility.yul\":12966:12986   */\n      tag_90\n      jump\t// in\n    tag_289:\n        /* \"#utility.yul\":12961:12986   */\n      swap2\n      pop\n        /* \"#utility.yul\":13000:13020   */\n      tag_290\n        /* \"#utility.yul\":13018:13019   */\n      dup4\n        /* \"#utility.yul\":13000:13020   */\n      tag_90\n      jump\t// in\n    tag_290:\n        /* \"#utility.yul\":12995:13020   */\n      swap3\n      pop\n        /* \"#utility.yul\":13044:13045   */\n      dup3\n        /* \"#utility.yul\":13041:13042   */\n      dup3\n        /* \"#utility.yul\":13037:13046   */\n      sub\n        /* \"#utility.yul\":13029:13046   */\n      swap1\n      pop\n        /* \"#utility.yul\":13068:13069   */\n      dup2\n        /* \"#utility.yul\":13062:13066   */\n      dup2\n        /* \"#utility.yul\":13059:13070   */\n      gt\n        /* \"#utility.yul\":13056:13093   */\n      iszero\n      tag_291\n      jumpi\n        /* \"#utility.yul\":13073:13091   */\n      tag_292\n      tag_133\n      jump\t// in\n    tag_292:\n        /* \"#utility.yul\":13056:13093   */\n    tag_291:\n        /* \"#utility.yul\":12906:13100   */\n      swap3\n      swap2\n      pop\n      pop\n      jump\t// out\n        /* \"#utility.yul\":13106:13627   */\n    tag_82:\n        /* \"#utility.yul\":13269:13273   */\n      0x00\n        /* \"#utility.yul\":13307:13309   */\n      0x60\n        /* \"#utility.yul\":13296:13305   */\n      dup3\n        /* \"#utility.yul\":13292:13310   */\n      add\n        /* \"#utility.yul\":13284:13310   */\n      swap1\n      pop\n        /* \"#utility.yul\":13320:13391   */\n      tag_294\n        /* \"#utility.yul\":13388:13389   */\n      0x00\n        /* \"#utility.yul\":13377:13386   */\n      dup4\n        /* \"#utility.yul\":13373:13390   */\n      add\n        /* \"#utility.yul\":13364:13370   */\n      dup7\n        /* \"#utility.yul\":13320:13391   */\n      tag_116\n      jump\t// in\n    tag_294:\n        /* \"#utility.yul\":13438:13447   */\n      dup2\n        /* \"#utility.yul\":13432:13436   */\n      dup2\n        /* \"#utility.yul\":13428:13448   */\n      sub\n        /* \"#utility.yul\":13423:13425   */\n      0x20\n        /* \"#utility.yul\":13412:13421   */\n      dup4\n        /* \"#utility.yul\":13408:13426   */\n      add\n        /* \"#utility.yul\":13401:13449   */\n      mstore\n        /* \"#utility.yul\":13466:13544   */\n      tag_295\n        /* \"#utility.yul\":13539:13543   */\n      dup2\n        /* \"#utility.yul\":13530:13536   */\n      dup6\n        /* \"#utility.yul\":13466:13544   */\n      tag_100\n      jump\t// in\n    tag_295:\n        /* \"#utility.yul\":13458:13544   */\n      swap1\n      pop\n        /* \"#utility.yul\":13554:13620   */\n      tag_296\n        /* \"#utility.yul\":13616:13618   */\n      0x40\n        /* \"#utility.yul\":13605:13614   */\n      dup4\n        /* \"#utility.yul\":13601:13619   */\n      add\n        /* \"#utility.yul\":13592:13598   */\n      dup5\n        /* \"#utility.yul\":13554:13620   */\n      tag_101\n      jump\t// in\n    tag_296:\n        /* \"#utility.yul\":13106:13627   */\n      swap5\n      swap4\n      pop\n      pop\n      pop\n      pop\n      jump\t// out\n\n    auxdata: 0xa264697066735822122070a1965dc7a6d36c5f0cd9ba5778abea5b766853fcda37feaeee691a358abd7464736f6c63430008130033\n}\n",
				"bytecode": {
					"linkReferences": {},
					"object": "608060405234801561001057600080fd5b50336000806101000a81548173ffffffffffffffffffffffffffffffffffffffff021916908373ffffffffffffffffffffffffffffffffffffffff160217905550610f5d806100606000396000f3fe608060405234801561001057600080fd5b506004361061007d5760003560e01c80638da5cb5b1161005b5780638da5cb5b146100d95780639507d39a146100f7578063b6a46b3b14610128578063f2fde38b146101445761007d565b806341c0e1b51461008257806348284b621461008c5780638d977672146100a8575b600080fd5b61008a610160565b005b6100a660048036038101906100a191906107d2565b6101d1565b005b6100c260048036038101906100bd9190610812565b6102a3565b6040516100d09291906108de565b60405180910390f35b6100e161036c565b6040516100ee919061094f565b60405180910390f35b610111600480360381019061010c9190610812565b610390565b60405161011f9291906108de565b60405180910390f35b610142600480360381019061013d9190610a9f565b6104da565b005b61015e60048036038101906101599190610b14565b610602565b005b60008054906101000a900473ffffffffffffffffffffffffffffffffffffffff1673ffffffffffffffffffffffffffffffffffffffff163373ffffffffffffffffffffffffffffffffffffffff16146101b857600080fd5b3373ffffffffffffffffffffffffffffffffffffffff16ff5b60008054906101000a900473ffffffffffffffffffffffffffffffffffffffff1673ffffffffffffffffffffffffffffffffffffffff163373ffffffffffffffffffffffffffffffffffffffff161461022957600080fd5b806001838154811061023e5761023d610b41565b5b906000526020600020906002020160010160006101000a81548160ff0219169083151502179055507f40f4ecd2923438fa255c9ec921b119ae150358907bbc9ba7d5c34bf9c151b6ac8282604051610297929190610b7f565b60405180910390a15050565b600181815481106102b357600080fd5b90600052602060002090600202016000915090508060000180546102d690610bd7565b80601f016020809104026020016040519081016040528092919081815260200182805461030290610bd7565b801561034f5780601f106103245761010080835404028352916020019161034f565b820191906000526020600020905b81548152906001019060200180831161033257829003601f168201915b5050505050908060010160009054906101000a900460ff16905082565b60008054906101000a900473ffffffffffffffffffffffffffffffffffffffff1681565b606060008060009054906101000a900473ffffffffffffffffffffffffffffffffffffffff1673ffffffffffffffffffffffffffffffffffffffff163373ffffffffffffffffffffffffffffffffffffffff16146103ed57600080fd5b6001838154811061040157610400610b41565b5b90600052602060002090600202016000016001848154811061042657610425610b41565b5b906000526020600020906002020160010160009054906101000a900460ff1681805461045190610bd7565b80601f016020809104026020016040519081016040528092919081815260200182805461047d90610bd7565b80156104ca5780601f1061049f576101008083540402835291602001916104ca565b820191906000526020600020905b8154815290600101906020018083116104ad57829003601f168201915b5050505050915091509150915091565b60008054906101000a900473ffffffffffffffffffffffffffffffffffffffff1673ffffffffffffffffffffffffffffffffffffffff163373ffffffffffffffffffffffffffffffffffffffff161461053257600080fd5b60016040518060400160405280838152602001600015158152509080600181540180825580915050600190039060005260206000209060020201600090919091909150600082015181600001908161058a9190610db4565b5060208201518160010160006101000a81548160ff02191690831515021790555050506000600180805490506105c09190610eb5565b90507f8de7fcf423c3be88a1d33619458254be5a02866653e3209631248661ba7db881818360006040516105f693929190610ee9565b60405180910390a15050565b60008054906101000a900473ffffffffffffffffffffffffffffffffffffffff1673ffffffffffffffffffffffffffffffffffffffff163373ffffffffffffffffffffffffffffffffffffffff161461065a57600080fd5b600073ffffffffffffffffffffffffffffffffffffffff168173ffffffffffffffffffffffffffffffffffffffff160361069357600080fd5b8073ffffffffffffffffffffffffffffffffffffffff1660008054906101000a900473ffffffffffffffffffffffffffffffffffffffff1673ffffffffffffffffffffffffffffffffffffffff167f8be0079c531659141344cd1fd0a4f28419497f9722a3daafe3b4186f6b6457e060405160405180910390a3806000806101000a81548173ffffffffffffffffffffffffffffffffffffffff021916908373ffffffffffffffffffffffffffffffffffffffff16021790555050565b6000604051905090565b600080fd5b600080fd5b6000819050919050565b61077781610764565b811461078257600080fd5b50565b6000813590506107948161076e565b92915050565b60008115159050919050565b6107af8161079a565b81146107ba57600080fd5b50565b6000813590506107cc816107a6565b92915050565b600080604083850312156107e9576107e861075a565b5b60006107f785828601610785565b9250506020610808858286016107bd565b9150509250929050565b6000602082840312156108285761082761075a565b5b600061083684828501610785565b91505092915050565b600081519050919050565b600082825260208201905092915050565b60005b8381101561087957808201518184015260208101905061085e565b60008484015250505050565b6000601f19601f8301169050919050565b60006108a18261083f565b6108ab818561084a565b93506108bb81856020860161085b565b6108c481610885565b840191505092915050565b6108d88161079a565b82525050565b600060408201905081810360008301526108f88185610896565b905061090760208301846108cf565b9392505050565b600073ffffffffffffffffffffffffffffffffffffffff82169050919050565b60006109398261090e565b9050919050565b6109498161092e565b82525050565b60006020820190506109646000830184610940565b92915050565b600080fd5b600080fd5b7f4e487b7100000000000000000000000000000000000000000000000000000000600052604160045260246000fd5b6109ac82610885565b810181811067ffffffffffffffff821117156109cb576109ca610974565b5b80604052505050565b60006109de610750565b90506109ea82826109a3565b919050565b600067ffffffffffffffff821115610a0a57610a09610974565b5b610a1382610885565b9050602081019050919050565b82818337600083830152505050565b6000610a42610a3d846109ef565b6109d4565b905082815260208101848484011115610a5e57610a5d61096f565b5b610a69848285610a20565b509392505050565b600082601f830112610a8657610a8561096a565b5b8135610a96848260208601610a2f565b91505092915050565b600060208284031215610ab557610ab461075a565b5b600082013567ffffffffffffffff811115610ad357610ad261075f565b5b610adf84828501610a71565b91505092915050565b610af18161092e565b8114610afc57600080fd5b50565b600081359050610b0e81610ae8565b92915050565b600060208284031215610b2a57610b2961075a565b5b6000610b3884828501610aff565b91505092915050565b7f4e487b7100000000000000000000000000000000000000000000000000000000600052603260045260246000fd5b610b7981610764565b82525050565b6000604082019050610b946000830185610b70565b610ba160208301846108cf565b9392505050565b7f4e487b7100000000000000000000000000000000000000000000000000000000600052602260045260246000fd5b60006002820490506001821680610bef57607f821691505b602082108103610c0257610c01610ba8565b5b50919050565b60008190508160005260206000209050919050565b60006020601f8301049050919050565b600082821b905092915050565b600060088302610c6a7fffffffffffffffffffffffffffffffffffffffffffffffffffffffffffffffff82610c2d565b610c748683610c2d565b95508019841693508086168417925050509392505050565b6000819050919050565b6000610cb1610cac610ca784610764565b610c8c565b610764565b9050919050565b6000819050919050565b610ccb83610c96565b610cdf610cd782610cb8565b848454610c3a565b825550505050565b600090565b610cf4610ce7565b610cff818484610cc2565b505050565b5b81811015610d2357610d18600082610cec565b600181019050610d05565b5050565b601f821115610d6857610d3981610c08565b610d4284610c1d565b81016020851015610d51578190505b610d65610d5d85610c1d565b830182610d04565b50505b505050565b600082821c905092915050565b6000610d8b60001984600802610d6d565b1980831691505092915050565b6000610da48383610d7a565b9150826002028217905092915050565b610dbd8261083f565b67ffffffffffffffff811115610dd657610dd5610974565b5b610de08254610bd7565b610deb828285610d27565b600060209050601f831160018114610e1e5760008415610e0c578287015190505b610e168582610d98565b865550610e7e565b601f198416610e2c86610c08565b60005b82811015610e5457848901518255600182019150602085019450602081019050610e2f565b86831015610e715784890151610e6d601f891682610d7a565b8355505b6001600288020188555050505b505050505050565b7f4e487b7100000000000000000000000000000000000000000000000000000000600052601160045260246000fd5b6000610ec082610764565b9150610ecb83610764565b9250828203905081811115610ee357610ee2610e86565b5b92915050565b6000606082019050610efe6000830186610b70565b8181036020830152610f108185610896565b9050610f1f60408301846108cf565b94935050505056fea264697066735822122070a1965dc7a6d36c5f0cd9ba5778abea5b766853fcda37feaeee691a358abd7464736f6c63430008130033",
					"opcodes": "PUSH1 0x80 PUSH1 0x40 MSTORE CALLVALUE DUP1 ISZERO PUSH2 0x10 JUMPI PUSH1 0x0 DUP1 REVERT JUMPDEST POP CALLER PUSH1 0x0 DUP1 PUSH2 0x100 EXP DUP2 SLOAD DUP2 PUSH20 0xFFFFFFFFFFFFFFFFFFFFFFFFFFFFFFFFFFFFFFFF MUL NOT AND SWAP1 DUP4 PUSH20 0xFFFFFFFFFFFFFFFFFFFFFFFFFFFFFFFFFFFFFFFF AND MUL OR SWAP1 SSTORE POP PUSH2 0xF5D DUP1 PUSH2 0x60 PUSH1 0x0 CODECOPY PUSH1 0x0 RETURN INVALID PUSH1 0x80 PUSH1 0x40 MSTORE CALLVALUE DUP1 ISZERO PUSH2 0x10 JUMPI PUSH1 0x0 DUP1 REVERT JUMPDEST POP PUSH1 0x4 CALLDATASIZE LT PUSH2 0x7D JUMPI PUSH1 0x0 CALLDATALOAD PUSH1 0xE0 SHR DUP1 PUSH4 0x8DA5CB5B GT PUSH2 0x5B JUMPI DUP1 PUSH4 0x8DA5CB5B EQ PUSH2 0xD9 JUMPI DUP1 PUSH4 0x9507D39A EQ PUSH2 0xF7 JUMPI DUP1 PUSH4 0xB6A46B3B EQ PUSH2 0x128 JUMPI DUP1 PUSH4 0xF2FDE38B EQ PUSH2 0x144 JUMPI PUSH2 0x7D JUMP JUMPDEST DUP1 PUSH4 0x41C0E1B5 EQ PUSH2 0x82 JUMPI DUP1 PUSH4 0x48284B62 EQ PUSH2 0x8C JUMPI DUP1 PUSH4 0x8D977672 EQ PUSH2 0xA8 JUMPI JUMPDEST PUSH1 0x0 DUP1 REVERT JUMPDEST PUSH2 0x8A PUSH2 0x160 JUMP JUMPDEST STOP JUMPDEST PUSH2 0xA6 PUSH1 0x4 DUP1 CALLDATASIZE SUB DUP2 ADD SWAP1 PUSH2 0xA1 SWAP2 SWAP1 PUSH2 0x7D2 JUMP JUMPDEST PUSH2 0x1D1 JUMP JUMPDEST STOP JUMPDEST PUSH2 0xC2 PUSH1 0x4 DUP1 CALLDATASIZE SUB DUP2 ADD SWAP1 PUSH2 0xBD SWAP2 SWAP1 PUSH2 0x812 JUMP JUMPDEST PUSH2 0x2A3 JUMP JUMPDEST PUSH1 0x40 MLOAD PUSH2 0xD0 SWAP3 SWAP2 SWAP1 PUSH2 0x8DE JUMP JUMPDEST PUSH1 0x40 MLOAD DUP1 SWAP2 SUB SWAP1 RETURN JUMPDEST PUSH2 0xE1 PUSH2 0x36C JUMP JUMPDEST PUSH1 0x40 MLOAD PUSH2 0xEE SWAP2 SWAP1 PUSH2 0x94F JUMP JUMPDEST PUSH1 0x40 MLOAD DUP1 SWAP2 SUB SWAP1 RETURN JUMPDEST PUSH2 0x111 PUSH1 0x4 DUP1 CALLDATASIZE SUB DUP2 ADD SWAP1 PUSH2 0x10C SWAP2 SWAP1 PUSH2 0x812 JUMP JUMPDEST PUSH2 0x390 JUMP JUMPDEST PUSH1 0x40 MLOAD PUSH2 0x11F SWAP3 SWAP2 SWAP1 PUSH2 0x8DE JUMP JUMPDEST PUSH1 0x40 MLOAD DUP1 SWAP2 SUB SWAP1 RETURN JUMPDEST PUSH2 0x142 PUSH1 0x4 DUP1 CALLDATASIZE SUB DUP2 ADD SWAP1 PUSH2 0x13D SWAP2 SWAP1 PUSH2 0xA9F JUMP JUMPDEST PUSH2 0x4DA JUMP JUMPDEST STOP JUMPDEST PUSH2 0x15E PUSH1 0x4 DUP1 CALLDATASIZE SUB DUP2 ADD SWAP1 PUSH2 0x159 SWAP2 SWAP1 PUSH2 0xB14 JUMP JUMPDEST PUSH2 0x602 JUMP JUMPDEST STOP JUMPDEST PUSH1 0x0 DUP1 SLOAD SWAP1 PUSH2 0x100 EXP SWAP1 DIV PUSH20 0xFFFFFFFFFFFFFFFFFFFFFFFFFFFFFFFFFFFFFFFF AND PUSH20 0xFFFFFFFFFFFFFFFFFFFFFFFFFFFFFFFFFFFFFFFF AND CALLER PUSH20 0xFFFFFFFFFFFFFFFFFFFFFFFFFFFFFFFFFFFFFFFF AND EQ PUSH2 0x1B8 JUMPI PUSH1 0x0 DUP1 REVERT JUMPDEST CALLER PUSH20 0xFFFFFFFFFFFFFFFFFFFFFFFFFFFFFFFFFFFFFFFF AND SELFDESTRUCT JUMPDEST PUSH1 0x0 DUP1 SLOAD SWAP1 PUSH2 0x100 EXP SWAP1 DIV PUSH20 0xFFFFFFFFFFFFFFFFFFFFFFFFFFFFFFFFFFFFFFFF AND PUSH20 0xFFFFFFFFFFFFFFFFFFFFFFFFFFFFFFFFFFFFFFFF AND CALLER PUSH20 0xFFFFFFFFFFFFFFFFFFFFFFFFFFFFFFFFFFFFFFFF AND EQ PUSH2 0x229 JUMPI PUSH1 0x0 DUP1 REVERT JUMPDEST DUP1 PUSH1 0x1 DUP4 DUP2 SLOAD DUP2 LT PUSH2 0x23E JUMPI PUSH2 0x23D PUSH2 0xB41 JUMP JUMPDEST JUMPDEST SWAP1 PUSH1 0x0 MSTORE PUSH1 0x20 PUSH1 0x0 KECCAK256 SWAP1 PUSH1 0x2 MUL ADD PUSH1 0x1 ADD PUSH1 0x0 PUSH2 0x100 EXP DUP2 SLOAD DUP2 PUSH1 0xFF MUL NOT AND SWAP1 DUP4 ISZERO ISZERO MUL OR SWAP1 SSTORE POP PUSH32 0x40F4ECD2923438FA255C9EC921B119AE150358907BBC9BA7D5C34BF9C151B6AC DUP3 DUP3 PUSH1 0x40 MLOAD PUSH2 0x297 SWAP3 SWAP2 SWAP1 PUSH2 0xB7F JUMP JUMPDEST PUSH1 0x40 MLOAD DUP1 SWAP2 SUB SWAP1 LOG1 POP POP JUMP JUMPDEST PUSH1 0x1 DUP2 DUP2 SLOAD DUP2 LT PUSH2 0x2B3 JUMPI PUSH1 0x0 DUP1 REVERT JUMPDEST SWAP1 PUSH1 0x0 MSTORE PUSH1 0x20 PUSH1 0x0 KECCAK256 SWAP1 PUSH1 0x2 MUL ADD PUSH1 0x0 SWAP2 POP SWAP1 POP DUP1 PUSH1 0x0 ADD DUP1 SLOAD PUSH2 0x2D6 SWAP1 PUSH2 0xBD7 JUMP JUMPDEST DUP1 PUSH1 0x1F ADD PUSH1 0x20 DUP1 SWAP2 DIV MUL PUSH1 0x20 ADD PUSH1 0x40 MLOAD SWAP1 DUP2 ADD PUSH1 0x40 MSTORE DUP1 SWAP3 SWAP2 SWAP1 DUP2 DUP2 MSTORE PUSH1 0x20 ADD DUP3 DUP1 SLOAD PUSH2 0x302 SWAP1 PUSH2 0xBD7 JUMP JUMPDEST DUP1 ISZERO PUSH2 0x34F JUMPI DUP1 PUSH1 0x1F LT PUSH2 0x324 JUMPI PUSH2 0x100 DUP1 DUP4 SLOAD DIV MUL DUP4 MSTORE SWAP2 PUSH1 0x20 ADD SWAP2 PUSH2 0x34F JUMP JUMPDEST DUP3 ADD SWAP2 SWAP1 PUSH1 0x0 MSTORE PUSH1 0x20 PUSH1 0x0 KECCAK256 SWAP1 JUMPDEST DUP2 SLOAD DUP2 MSTORE SWAP1 PUSH1 0x1 ADD SWAP1 PUSH1 0x20 ADD DUP1 DUP4 GT PUSH2 0x332 JUMPI DUP3 SWAP1 SUB PUSH1 0x1F AND DUP3 ADD SWAP2 JUMPDEST POP POP POP POP POP SWAP1 DUP1 PUSH1 0x1 ADD PUSH1 0x0 SWAP1 SLOAD SWAP1 PUSH2 0x100 EXP SWAP1 DIV PUSH1 0xFF AND SWAP1 POP DUP3 JUMP JUMPDEST PUSH1 0x0 DUP1 SLOAD SWAP1 PUSH2 0x100 EXP SWAP1 DIV PUSH20 0xFFFFFFFFFFFFFFFFFFFFFFFFFFFFFFFFFFFFFFFF AND DUP2 JUMP JUMPDEST PUSH1 0x60 PUSH1 0x0 DUP1 PUSH1 0x0 SWAP1 SLOAD SWAP1 PUSH2 0x100 EXP SWAP1 DIV PUSH20 0xFFFFFFFFFFFFFFFFFFFFFFFFFFFFFFFFFFFFFFFF AND PUSH20 0xFFFFFFFFFFFFFFFFFFFFFFFFFFFFFFFFFFFFFFFF AND CALLER PUSH20 0xFFFFFFFFFFFFFFFFFFFFFFFFFFFFFFFFFFFFFFFF AND EQ PUSH2 0x3ED JUMPI PUSH1 0x0 DUP1 REVERT JUMPDEST PUSH1 0x1 DUP4 DUP2 SLOAD DUP2 LT PUSH2 0x401 JUMPI PUSH2 0x400 PUSH2 0xB41 JUMP JUMPDEST JUMPDEST SWAP1 PUSH1 0x0 MSTORE PUSH1 0x20 PUSH1 0x0 KECCAK256 SWAP1 PUSH1 0x2 MUL ADD PUSH1 0x0 ADD PUSH1 0x1 DUP5 DUP2 SLOAD DUP2 LT PUSH2 0x426 JUMPI PUSH2 0x425 PUSH2 0xB41 JUMP JUMPDEST JUMPDEST SWAP1 PUSH1 0x0 MSTORE PUSH1 0x20 PUSH1 0x0 KECCAK256 SWAP1 PUSH1 0x2 MUL ADD PUSH1 0x1 ADD PUSH1 0x0 SWAP1 SLOAD SWAP1 PUSH2 0x100 EXP SWAP1 DIV PUSH1 0xFF AND DUP2 DUP1 SLOAD PUSH2 0x451 SWAP1 PUSH2 0xBD7 JUMP JUMPDEST DUP1 PUSH1 0x1F ADD PUSH1 0x20 DUP1 SWAP2 DIV MUL PUSH1 0x20 ADD PUSH1 0x40 MLOAD SWAP1 DUP2 ADD PUSH1 0x40 MSTORE DUP1 SWAP3 SWAP2 SWAP1 DUP2 DUP2 MSTORE PUSH1 0x20 ADD DUP3 DUP1 SLOAD PUSH2 0x47D SWAP1 PUSH2 0xBD7 JUMP JUMPDEST DUP1 ISZERO PUSH2 0x4CA JUMPI DUP1 PUSH1 0x1F LT PUSH2 0x49F JUMPI PUSH2 0x100 DUP1 DUP4 SLOAD DIV MUL DUP4 MSTORE SWAP2 PUSH1 0x20 ADD SWAP2 PUSH2 0x4CA JUMP JUMPDEST DUP3 ADD SWAP2 SWAP1 PUSH1 0x0 MSTORE PUSH1 0x20 PUSH1 0x0 KECCAK256 SWAP1 JUMPDEST DUP2 SLOAD DUP2 MSTORE SWAP1 PUSH1 0x1 ADD SWAP1 PUSH1 0x20 ADD DUP1 DUP4 GT PUSH2 0x4AD JUMPI DUP3 SWAP1 SUB PUSH1 0x1F AND DUP3 ADD SWAP2 JUMPDEST POP POP POP POP POP SWAP2 POP SWAP2 POP SWAP2 POP SWAP2 POP SWAP2 JUMP JUMPDEST PUSH1 0x0 DUP1 SLOAD SWAP1 PUSH2 0x100 EXP SWAP1 DIV PUSH20 0xFFFFFFFFFFFFFFFFFFFFFFFFFFFFFFFFFFFFFFFF AND PUSH20 0xFFFFFFFFFFFFFFFFFFFFFFFFFFFFFFFFFFFFFFFF AND CALLER PUSH20 0xFFFFFFFFFFFFFFFFFFFFFFFFFFFFFFFFFFFFFFFF AND EQ PUSH2 0x532 JUMPI PUSH1 0x0 DUP1 REVERT JUMPDEST PUSH1 0x1 PUSH1 0x40 MLOAD DUP1 PUSH1 0x40 ADD PUSH1 0x40 MSTORE DUP1 DUP4 DUP2 MSTORE PUSH1 0x20 ADD PUSH1 0x0 ISZERO ISZERO DUP2 MSTORE POP SWAP1 DUP1 PUSH1 0x1 DUP2 SLOAD ADD DUP1 DUP3 SSTORE DUP1 SWAP2 POP POP PUSH1 0x1 SWAP1 SUB SWAP1 PUSH1 0x0 MSTORE PUSH1 0x20 PUSH1 0x0 KECCAK256 SWAP1 PUSH1 0x2 MUL ADD PUSH1 0x0 SWAP1 SWAP2 SWAP1 SWAP2 SWAP1 SWAP2 POP PUSH1 0x0 DUP3 ADD MLOAD DUP2 PUSH1 0x0 ADD SWAP1 DUP2 PUSH2 0x58A SWAP2 SWAP1 PUSH2 0xDB4 JUMP JUMPDEST POP PUSH1 0x20 DUP3 ADD MLOAD DUP2 PUSH1 0x1 ADD PUSH1 0x0 PUSH2 0x100 EXP DUP2 SLOAD DUP2 PUSH1 0xFF MUL NOT AND SWAP1 DUP4 ISZERO ISZERO MUL OR SWAP1 SSTORE POP POP POP PUSH1 0x0 PUSH1 0x1 DUP1 DUP1 SLOAD SWAP1 POP PUSH2 0x5C0 SWAP2 SWAP1 PUSH2 0xEB5 JUMP JUMPDEST SWAP1 POP PUSH32 0x8DE7FCF423C3BE88A1D33619458254BE5A02866653E3209631248661BA7DB881 DUP2 DUP4 PUSH1 0x0 PUSH1 0x40 MLOAD PUSH2 0x5F6 SWAP4 SWAP3 SWAP2 SWAP1 PUSH2 0xEE9 JUMP JUMPDEST PUSH1 0x40 MLOAD DUP1 SWAP2 SUB SWAP1 LOG1 POP POP JUMP JUMPDEST PUSH1 0x0 DUP1 SLOAD SWAP1 PUSH2 0x100 EXP SWAP1 DIV PUSH20 0xFFFFFFFFFFFFFFFFFFFFFFFFFFFFFFFFFFFFFFFF AND PUSH20 0xFFFFFFFFFFFFFFFFFFFFFFFFFFFFFFFFFFFFFFFF AND CALLER PUSH20 0xFFFFFFFFFFFFFFFFFFFFFFFFFFFFFFFFFFFFFFFF AND EQ PUSH2 0x65A JUMPI PUSH1 0x0 DUP1 REVERT JUMPDEST PUSH1 0x0 PUSH20 0xFFFFFFFFFFFFFFFFFFFFFFFFFFFFFFFFFFFFFFFF AND DUP2 PUSH20 0xFFFFFFFFFFFFFFFFFFFFFFFFFFFFFFFFFFFFFFFF AND SUB PUSH2 0x693 JUMPI PUSH1 0x0 DUP1 REVERT JUMPDEST DUP1 PUSH20 0xFFFFFFFFFFFFFFFFFFFFFFFFFFFFFFFFFFFFFFFF AND PUSH1 0x0 DUP1 SLOAD SWAP1 PUSH2 0x100 EXP SWAP1 DIV PUSH20 0xFFFFFFFFFFFFFFFFFFFFFFFFFFFFFFFFFFFFFFFF AND PUSH20 0xFFFFFFFFFFFFFFFFFFFFFFFFFFFFFFFFFFFFFFFF AND PUSH32 0x8BE0079C531659141344CD1FD0A4F28419497F9722A3DAAFE3B4186F6B6457E0 PUSH1 0x40 MLOAD PUSH1 0x40 MLOAD DUP1 SWAP2 SUB SWAP1 LOG3 DUP1 PUSH1 0x0 DUP1 PUSH2 0x100 EXP DUP2 SLOAD DUP2 PUSH20 0xFFFFFFFFFFFFFFFFFFFFFFFFFFFFFFFFFFFFFFFF MUL NOT AND SWAP1 DUP4 PUSH20 0xFFFFFFFFFFFFFFFFFFFFFFFFFFFFFFFFFFFFFFFF AND MUL OR SWAP1 SSTORE POP POP JUMP JUMPDEST PUSH1 0x0 PUSH1 0x40 MLOAD SWAP1 POP SWAP1 JUMP JUMPDEST PUSH1 0x0 DUP1 REVERT JUMPDEST PUSH1 0x0 DUP1 REVERT JUMPDEST PUSH1 0x0 DUP2 SWAP1 POP SWAP2 SWAP1 POP JUMP JUMPDEST PUSH2 0x777 DUP2 PUSH2 0x764 JUMP JUMPDEST DUP2 EQ PUSH2 0x782 JUMPI PUSH1 0x0 DUP1 REVERT JUMPDEST POP JUMP JUMPDEST PUSH1 0x0 DUP2 CALLDATALOAD SWAP1 POP PUSH2 0x794 DUP2 PUSH2 0x76E JUMP JUMPDEST SWAP3 SWAP2 POP POP JUMP JUMPDEST PUSH1 0x0 DUP2 ISZERO ISZERO SWAP1 POP SWAP2 SWAP1 POP JUMP JUMPDEST PUSH2 0x7AF DUP2 PUSH2 0x79A JUMP JUMPDEST DUP2 EQ PUSH2 0x7BA JUMPI PUSH1 0x0 DUP1 REVERT JUMPDEST POP JUMP JUMPDEST PUSH1 0x0 DUP2 CALLDATALOAD SWAP1 POP PUSH2 0x7CC DUP2 PUSH2 0x7A6 JUMP JUMPDEST SWAP3 SWAP2 POP POP JUMP JUMPDEST PUSH1 0x0 DUP1 PUSH1 0x40 DUP4 DUP6 SUB SLT ISZERO PUSH2 0x7E9 JUMPI PUSH2 0x7E8 PUSH2 0x75A JUMP JUMPDEST JUMPDEST PUSH1 0x0 PUSH2 0x7F7 DUP6 DUP3 DUP7 ADD PUSH2 0x785 JUMP JUMPDEST SWAP3 POP POP PUSH1 0x20 PUSH2 0x808 DUP6 DUP3 DUP7 ADD PUSH2 0x7BD JUMP JUMPDEST SWAP2 POP POP SWAP3 POP SWAP3 SWAP1 POP JUMP JUMPDEST PUSH1 0x0 PUSH1 0x20 DUP3 DUP5 SUB SLT ISZERO PUSH2 0x828 JUMPI PUSH2 0x827 PUSH2 0x75A JUMP JUMPDEST JUMPDEST PUSH1 0x0 PUSH2 0x836 DUP5 DUP3 DUP6 ADD PUSH2 0x785 JUMP JUMPDEST SWAP2 POP POP SWAP3 SWAP2 POP POP JUMP JUMPDEST PUSH1 0x0 DUP2 MLOAD SWAP1 POP SWAP2 SWAP1 POP JUMP JUMPDEST PUSH1 0x0 DUP3 DUP3 MSTORE PUSH1 0x20 DUP3 ADD SWAP1 POP SWAP3 SWAP2 POP POP JUMP JUMPDEST PUSH1 0x0 JUMPDEST DUP4 DUP2 LT ISZERO PUSH2 0x879 JUMPI DUP1 DUP3 ADD MLOAD DUP2 DUP5 ADD MSTORE PUSH1 0x20 DUP2 ADD SWAP1 POP PUSH2 0x85E JUMP JUMPDEST PUSH1 0x0 DUP5 DUP5 ADD MSTORE POP POP POP POP JUMP JUMPDEST PUSH1 0x0 PUSH1 0x1F NOT PUSH1 0x1F DUP4 ADD AND SWAP1 POP SWAP2 SWAP1 POP JUMP JUMPDEST PUSH1 0x0 PUSH2 0x8A1 DUP3 PUSH2 0x83F JUMP JUMPDEST PUSH2 0x8AB DUP2 DUP6 PUSH2 0x84A JUMP JUMPDEST SWAP4 POP PUSH2 0x8BB DUP2 DUP6 PUSH1 0x20 DUP7 ADD PUSH2 0x85B JUMP JUMPDEST PUSH2 0x8C4 DUP2 PUSH2 0x885 JUMP JUMPDEST DUP5 ADD SWAP2 POP POP SWAP3 SWAP2 POP POP JUMP JUMPDEST PUSH2 0x8D8 DUP2 PUSH2 0x79A JUMP JUMPDEST DUP3 MSTORE POP POP JUMP JUMPDEST PUSH1 0x0 PUSH1 0x40 DUP3 ADD SWAP1 POP DUP2 DUP2 SUB PUSH1 0x0 DUP4 ADD MSTORE PUSH2 0x8F8 DUP2 DUP6 PUSH2 0x896 JUMP JUMPDEST SWAP1 POP PUSH2 0x907 PUSH1 0x20 DUP4 ADD DUP5 PUSH2 0x8CF JUMP JUMPDEST SWAP4 SWAP3 POP POP POP JUMP JUMPDEST PUSH1 0x0 PUSH20 0xFFFFFFFFFFFFFFFFFFFFFFFFFFFFFFFFFFFFFFFF DUP3 AND SWAP1 POP SWAP2 SWAP1 POP JUMP JUMPDEST PUSH1 0x0 PUSH2 0x939 DUP3 PUSH2 0x90E JUMP JUMPDEST SWAP1 POP SWAP2 SWAP1 POP JUMP JUMPDEST PUSH2 0x949 DUP2 PUSH2 0x92E JUMP JUMPDEST DUP3 MSTORE POP POP JUMP JUMPDEST PUSH1 0x0 PUSH1 0x20 DUP3 ADD SWAP1 POP PUSH2 0x964 PUSH1 0x0 DUP4 ADD DUP5 PUSH2 0x940 JUMP JUMPDEST SWAP3 SWAP2 POP POP JUMP JUMPDEST PUSH1 0x0 DUP1 REVERT JUMPDEST PUSH1 0x0 DUP1 REVERT JUMPDEST PUSH32 0x4E487B7100000000000000000000000000000000000000000000000000000000 PUSH1 0x0 MSTORE PUSH1 0x41 PUSH1 0x4 MSTORE PUSH1 0x24 PUSH1 0x0 REVERT JUMPDEST PUSH2 0x9AC DUP3 PUSH2 0x885 JUMP JUMPDEST DUP2 ADD DUP2 DUP2 LT PUSH8 0xFFFFFFFFFFFFFFFF DUP3 GT OR ISZERO PUSH2 0x9CB JUMPI PUSH2 0x9CA PUSH2 0x974 JUMP JUMPDEST JUMPDEST DUP1 PUSH1 0x40 MSTORE POP POP POP JUMP JUMPDEST PUSH1 0x0 PUSH2 0x9DE PUSH2 0x750 JUMP JUMPDEST SWAP1 POP PUSH2 0x9EA DUP3 DUP3 PUSH2 0x9A3 JUMP JUMPDEST SWAP2 SWAP1 POP JUMP JUMPDEST PUSH1 0x0 PUSH8 0xFFFFFFFFFFFFFFFF DUP3 GT ISZERO PUSH2 0xA0A JUMPI PUSH2 0xA09 PUSH2 0x974 JUMP JUMPDEST JUMPDEST PUSH2 0xA13 DUP3 PUSH2 0x885 JUMP JUMPDEST SWAP1 POP PUSH1 0x20 DUP2 ADD SWAP1 POP SWAP2 SWAP1 POP JUMP JUMPDEST DUP3 DUP2 DUP4 CALLDATACOPY PUSH1 0x0 DUP4 DUP4 ADD MSTORE POP POP POP JUMP JUMPDEST PUSH1 0x0 PUSH2 0xA42 PUSH2 0xA3D DUP5 PUSH2 0x9EF JUMP JUMPDEST PUSH2 0x9D4 JUMP JUMPDEST SWAP1 POP DUP3 DUP2 MSTORE PUSH1 0x20 DUP2 ADD DUP5 DUP5 DUP5 ADD GT ISZERO PUSH2 0xA5E JUMPI PUSH2 0xA5D PUSH2 0x96F JUMP JUMPDEST JUMPDEST PUSH2 0xA69 DUP5 DUP3 DUP6 PUSH2 0xA20 JUMP JUMPDEST POP SWAP4 SWAP3 POP POP POP JUMP JUMPDEST PUSH1 0x0 DUP3 PUSH1 0x1F DUP4 ADD SLT PUSH2 0xA86 JUMPI PUSH2 0xA85 PUSH2 0x96A JUMP JUMPDEST JUMPDEST DUP2 CALLDATALOAD PUSH2 0xA96 DUP5 DUP3 PUSH1 0x20 DUP7 ADD PUSH2 0xA2F JUMP JUMPDEST SWAP2 POP POP SWAP3 SWAP2 POP POP JUMP JUMPDEST PUSH1 0x0 PUSH1 0x20 DUP3 DUP5 SUB SLT ISZERO PUSH2 0xAB5 JUMPI PUSH2 0xAB4 PUSH2 0x75A JUMP JUMPDEST JUMPDEST PUSH1 0x0 DUP3 ADD CALLDATALOAD PUSH8 0xFFFFFFFFFFFFFFFF DUP2 GT ISZERO PUSH2 0xAD3 JUMPI PUSH2 0xAD2 PUSH2 0x75F JUMP JUMPDEST JUMPDEST PUSH2 0xADF DUP5 DUP3 DUP6 ADD PUSH2 0xA71 JUMP JUMPDEST SWAP2 POP POP SWAP3 SWAP2 POP POP JUMP JUMPDEST PUSH2 0xAF1 DUP2 PUSH2 0x92E JUMP JUMPDEST DUP2 EQ PUSH2 0xAFC JUMPI PUSH1 0x0 DUP1 REVERT JUMPDEST POP JUMP JUMPDEST PUSH1 0x0 DUP2 CALLDATALOAD SWAP1 POP PUSH2 0xB0E DUP2 PUSH2 0xAE8 JUMP JUMPDEST SWAP3 SWAP2 POP POP JUMP JUMPDEST PUSH1 0x0 PUSH1 0x20 DUP3 DUP5 SUB SLT ISZERO PUSH2 0xB2A JUMPI PUSH2 0xB29 PUSH2 0x75A JUMP JUMPDEST JUMPDEST PUSH1 0x0 PUSH2 0xB38 DUP5 DUP3 DUP6 ADD PUSH2 0xAFF JUMP JUMPDEST SWAP2 POP POP SWAP3 SWAP2 POP POP JUMP JUMPDEST PUSH32 0x4E487B7100000000000000000000000000000000000000000000000000000000 PUSH1 0x0 MSTORE PUSH1 0x32 PUSH1 0x4 MSTORE PUSH1 0x24 PUSH1 0x0 REVERT JUMPDEST PUSH2 0xB79 DUP2 PUSH2 0x764 JUMP JUMPDEST DUP3 MSTORE POP POP JUMP JUMPDEST PUSH1 0x0 PUSH1 0x40 DUP3 ADD SWAP1 POP PUSH2 0xB94 PUSH1 0x0 DUP4 ADD DUP6 PUSH2 0xB70 JUMP JUMPDEST PUSH2 0xBA1 PUSH1 0x20 DUP4 ADD DUP5 PUSH2 0x8CF JUMP JUMPDEST SWAP4 SWAP3 POP POP POP JUMP JUMPDEST PUSH32 0x4E487B7100000000000000000000000000000000000000000000000000000000 PUSH1 0x0 MSTORE PUSH1 0x22 PUSH1 0x4 MSTORE PUSH1 0x24 PUSH1 0x0 REVERT JUMPDEST PUSH1 0x0 PUSH1 0x2 DUP3 DIV SWAP1 POP PUSH1 0x1 DUP3 AND DUP1 PUSH2 0xBEF JUMPI PUSH1 0x7F DUP3 AND SWAP2 POP JUMPDEST PUSH1 0x20 DUP3 LT DUP2 SUB PUSH2 0xC02 JUMPI PUSH2 0xC01 PUSH2 0xBA8 JUMP JUMPDEST JUMPDEST POP SWAP2 SWAP1 POP JUMP JUMPDEST PUSH1 0x0 DUP2 SWAP1 POP DUP2 PUSH1 0x0 MSTORE PUSH1 0x20 PUSH1 0x0 KECCAK256 SWAP1 POP SWAP2 SWAP1 POP JUMP JUMPDEST PUSH1 0x0 PUSH1 0x20 PUSH1 0x1F DUP4 ADD DIV SWAP1 POP SWAP2 SWAP1 POP JUMP JUMPDEST PUSH1 0x0 DUP3 DUP3 SHL SWAP1 POP SWAP3 SWAP2 POP POP JUMP JUMPDEST PUSH1 0x0 PUSH1 0x8 DUP4 MUL PUSH2 0xC6A PUSH32 0xFFFFFFFFFFFFFFFFFFFFFFFFFFFFFFFFFFFFFFFFFFFFFFFFFFFFFFFFFFFFFFFF DUP3 PUSH2 0xC2D JUMP JUMPDEST PUSH2 0xC74 DUP7 DUP4 PUSH2 0xC2D JUMP JUMPDEST SWAP6 POP DUP1 NOT DUP5 AND SWAP4 POP DUP1 DUP7 AND DUP5 OR SWAP3 POP POP POP SWAP4 SWAP3 POP POP POP JUMP JUMPDEST PUSH1 0x0 DUP2 SWAP1 POP SWAP2 SWAP1 POP JUMP JUMPDEST PUSH1 0x0 PUSH2 0xCB1 PUSH2 0xCAC PUSH2 0xCA7 DUP5 PUSH2 0x764 JUMP JUMPDEST PUSH2 0xC8C JUMP JUMPDEST PUSH2 0x764 JUMP JUMPDEST SWAP1 POP SWAP2 SWAP1 POP JUMP JUMPDEST PUSH1 0x0 DUP2 SWAP1 POP SWAP2 SWAP1 POP JUMP JUMPDEST PUSH2 0xCCB DUP4 PUSH2 0xC96 JUMP JUMPDEST PUSH2 0xCDF PUSH2 0xCD7 DUP3 PUSH2 0xCB8 JUMP JUMPDEST DUP5 DUP5 SLOAD PUSH2 0xC3A JUMP JUMPDEST DUP3 SSTORE POP POP POP POP JUMP JUMPDEST PUSH1 0x0 SWAP1 JUMP JUMPDEST PUSH2 0xCF4 PUSH2 0xCE7 JUMP JUMPDEST PUSH2 0xCFF DUP2 DUP5 DUP5 PUSH2 0xCC2 JUMP JUMPDEST POP POP POP JUMP JUMPDEST JUMPDEST DUP2 DUP2 LT ISZERO PUSH2 0xD23 JUMPI PUSH2 0xD18 PUSH1 0x0 DUP3 PUSH2 0xCEC JUMP JUMPDEST PUSH1 0x1 DUP2 ADD SWAP1 POP PUSH2 0xD05 JUMP JUMPDEST POP POP JUMP JUMPDEST PUSH1 0x1F DUP3 GT ISZERO PUSH2 0xD68 JUMPI PUSH2 0xD39 DUP2 PUSH2 0xC08 JUMP JUMPDEST PUSH2 0xD42 DUP5 PUSH2 0xC1D JUMP JUMPDEST DUP2 ADD PUSH1 0x20 DUP6 LT ISZERO PUSH2 0xD51 JUMPI DUP2 SWAP1 POP JUMPDEST PUSH2 0xD65 PUSH2 0xD5D DUP6 PUSH2 0xC1D JUMP JUMPDEST DUP4 ADD DUP3 PUSH2 0xD04 JUMP JUMPDEST POP POP JUMPDEST POP POP POP JUMP JUMPDEST PUSH1 0x0 DUP3 DUP3 SHR SWAP1 POP SWAP3 SWAP2 POP POP JUMP JUMPDEST PUSH1 0x0 PUSH2 0xD8B PUSH1 0x0 NOT DUP5 PUSH1 0x8 MUL PUSH2 0xD6D JUMP JUMPDEST NOT DUP1 DUP4 AND SWAP2 POP POP SWAP3 SWAP2 POP POP JUMP JUMPDEST PUSH1 0x0 PUSH2 0xDA4 DUP4 DUP4 PUSH2 0xD7A JUMP JUMPDEST SWAP2 POP DUP3 PUSH1 0x2 MUL DUP3 OR SWAP1 POP SWAP3 SWAP2 POP POP JUMP JUMPDEST PUSH2 0xDBD DUP3 PUSH2 0x83F JUMP JUMPDEST PUSH8 0xFFFFFFFFFFFFFFFF DUP2 GT ISZERO PUSH2 0xDD6 JUMPI PUSH2 0xDD5 PUSH2 0x974 JUMP JUMPDEST JUMPDEST PUSH2 0xDE0 DUP3 SLOAD PUSH2 0xBD7 JUMP JUMPDEST PUSH2 0xDEB DUP3 DUP3 DUP6 PUSH2 0xD27 JUMP JUMPDEST PUSH1 0x0 PUSH1 0x20 SWAP1 POP PUSH1 0x1F DUP4 GT PUSH1 0x1 DUP2 EQ PUSH2 0xE1E JUMPI PUSH1 0x0 DUP5 ISZERO PUSH2 0xE0C JUMPI DUP3 DUP8 ADD MLOAD SWAP1 POP JUMPDEST PUSH2 0xE16 DUP6 DUP3 PUSH2 0xD98 JUMP JUMPDEST DUP7 SSTORE POP PUSH2 0xE7E JUMP JUMPDEST PUSH1 0x1F NOT DUP5 AND PUSH2 0xE2C DUP7 PUSH2 0xC08 JUMP JUMPDEST PUSH1 0x0 JUMPDEST DUP3 DUP2 LT ISZERO PUSH2 0xE54 JUMPI DUP5 DUP10 ADD MLOAD DUP3 SSTORE PUSH1 0x1 DUP3 ADD SWAP2 POP PUSH1 0x20 DUP6 ADD SWAP5 POP PUSH1 0x20 DUP2 ADD SWAP1 POP PUSH2 0xE2F JUMP JUMPDEST DUP7 DUP4 LT ISZERO PUSH2 0xE71 JUMPI DUP5 DUP10 ADD MLOAD PUSH2 0xE6D PUSH1 0x1F DUP10 AND DUP3 PUSH2 0xD7A JUMP JUMPDEST DUP4 SSTORE POP JUMPDEST PUSH1 0x1 PUSH1 0x2 DUP9 MUL ADD DUP9 SSTORE POP POP POP JUMPDEST POP POP POP POP POP POP JUMP JUMPDEST PUSH32 0x4E487B7100000000000000000000000000000000000000000000000000000000 PUSH1 0x0 MSTORE PUSH1 0x11 PUSH1 0x4 MSTORE PUSH1 0x24 PUSH1 0x0 REVERT JUMPDEST PUSH1 0x0 PUSH2 0xEC0 DUP3 PUSH2 0x764 JUMP JUMPDEST SWAP2 POP PUSH2 0xECB DUP4 PUSH2 0x764 JUMP JUMPDEST SWAP3 POP DUP3 DUP3 SUB SWAP1 POP DUP2 DUP2 GT ISZERO PUSH2 0xEE3 JUMPI PUSH2 0xEE2 PUSH2 0xE86 JUMP JUMPDEST JUMPDEST SWAP3 SWAP2 POP POP JUMP JUMPDEST PUSH1 0x0 PUSH1 0x60 DUP3 ADD SWAP1 POP PUSH2 0xEFE PUSH1 0x0 DUP4 ADD DUP7 PUSH2 0xB70 JUMP JUMPDEST DUP2 DUP2 SUB PUSH1 0x20 DUP4 ADD MSTORE PUSH2 0xF10 DUP2 DUP6 PUSH2 0x896 JUMP JUMPDEST SWAP1 POP PUSH2 0xF1F PUSH1 0x40 DUP4 ADD DUP5 PUSH2 0x8CF JUMP JUMPDEST SWAP5 SWAP4 POP POP POP POP JUMP INVALID LOG2 PUSH5 0x6970667358 0x22 SLT KECCAK256 PUSH17 0xA1965DC7A6D36C5F0CD9BA5778ABEA5B76 PUSH9 0x53FCDA37FEAEEE691A CALLDATALOAD DUP11 0xBD PUSH21 0x64736F6C6343000813003300000000000000000000 "
				},
				"gasEstimates": {
					"creation": {
						"codeDepositCost": "786600",
						"executionCost": "25084",
						"totalCost": "811684"
					},
					"external": {
						"create(string)": "infinite",
						"get(uint256)": "infinite",
						"kill()": "29911",
						"owner()": "2511",
						"tasks(uint256)": "infinite",
						"transferOwnership(address)": "30668",
						"update(uint256,bool)": "infinite"
					}
				},
				"methodIdentifiers": {
					"create(string)": "b6a46b3b",
					"get(uint256)": "9507d39a",
					"kill()": "41c0e1b5",
					"owner()": "8da5cb5b",
					"tasks(uint256)": "8d977672",
					"transferOwnership(address)": "f2fde38b",
					"update(uint256,bool)": "48284b62"
				}
			},
			"storageLayout": {
				"storage": [
					{
						"astId": 3,
						"contract": "week5/TodoListMeVer.sol:TodoList",
						"label": "owner",
						"offset": 0,
						"slot": "0",
						"type": "t_address"
					},
					{
						"astId": 83,
						"contract": "week5/TodoListMeVer.sol:TodoList",
						"label": "tasks",
						"offset": 0,
						"slot": "1",
						"type": "t_array(t_struct(Task)79_storage)dyn_storage"
					}
				],
				"types": {
					"t_address": {
						"encoding": "inplace",
						"label": "address",
						"numberOfBytes": "20"
					},
					"t_array(t_struct(Task)79_storage)dyn_storage": {
						"base": "t_struct(Task)79_storage",
						"encoding": "dynamic_array",
						"label": "struct TodoList.Task[]",
						"numberOfBytes": "32"
					},
					"t_bool": {
						"encoding": "inplace",
						"label": "bool",
						"numberOfBytes": "1"
					},
					"t_string_storage": {
						"encoding": "bytes",
						"label": "string",
						"numberOfBytes": "32"
					},
					"t_struct(Task)79_storage": {
						"encoding": "inplace",
						"label": "struct TodoList.Task",
						"members": [
							{
								"astId": 76,
								"contract": "week5/TodoListMeVer.sol:TodoList",
								"label": "name",
								"offset": 0,
								"slot": "0",
								"type": "t_string_storage"
							},
							{
								"astId": 78,
								"contract": "week5/TodoListMeVer.sol:TodoList",
								"label": "completed",
								"offset": 0,
								"slot": "1",
								"type": "t_bool"
							}
						],
						"numberOfBytes": "64"
					}
				}
			},
			"userdoc": {
				"kind": "user",
				"methods": {},
				"version": 1
			}
		}
	}
}