{
	"week5/ViewAndPureFunctions.sol": {
		"ViewAndPureFunctions": {
			"abi": [
				{
					"inputs": [],
					"name": "num",
					"outputs": [
						{
							"internalType": "uint256",
							"name": "",
							"type": "uint256"
						}
					],
					"stateMutability": "view",
					"type": "function"
				},
				{
					"inputs": [],
					"name": "pureFunc",
					"outputs": [
						{
							"internalType": "uint256",
							"name": "",
							"type": "uint256"
						}
					],
					"stateMutability": "pure",
					"type": "function"
				},
				{
					"inputs": [],
					"name": "viewFunc",
					"outputs": [
						{
							"internalType": "uint256",
							"name": "",
							"type": "uint256"
						}
					],
					"stateMutability": "view",
					"type": "function"
				}
			],
			"devdoc": {
				"kind": "dev",
				"methods": {},
				"version": 1
			},
			"evm": {
				"assembly": "    /* \"week5/ViewAndPureFunctions.sol\":58:735  contract ViewAndPureFunctions {... */\n  mstore(0x40, 0x80)\n  callvalue\n  dup1\n  iszero\n  tag_1\n  jumpi\n  0x00\n  dup1\n  revert\ntag_1:\n  pop\n  dataSize(sub_0)\n  dup1\n  dataOffset(sub_0)\n  0x00\n  codecopy\n  0x00\n  return\nstop\n\nsub_0: assembly {\n        /* \"week5/ViewAndPureFunctions.sol\":58:735  contract ViewAndPureFunctions {... */\n      mstore(0x40, 0x80)\n      callvalue\n      dup1\n      iszero\n      tag_1\n      jumpi\n      0x00\n      dup1\n      revert\n    tag_1:\n      pop\n      jumpi(tag_2, lt(calldatasize, 0x04))\n      shr(0xe0, calldataload(0x00))\n      dup1\n      0x231e18a9\n      eq\n      tag_3\n      jumpi\n      dup1\n      0x4e70b1dc\n      eq\n      tag_4\n      jumpi\n      dup1\n      0x7f2857b6\n      eq\n      tag_5\n      jumpi\n    tag_2:\n      0x00\n      dup1\n      revert\n        /* \"week5/ViewAndPureFunctions.sol\":375:449  function pureFunc() external pure returns (uint) {... */\n    tag_3:\n      tag_6\n      tag_7\n      jump\t// in\n    tag_6:\n      mload(0x40)\n      tag_8\n      swap2\n      swap1\n      tag_9\n      jump\t// in\n    tag_8:\n      mload(0x40)\n      dup1\n      swap2\n      sub\n      swap1\n      return\n        /* \"week5/ViewAndPureFunctions.sol\":94:109  uint public num */\n    tag_4:\n      tag_10\n      tag_11\n      jump\t// in\n    tag_10:\n      mload(0x40)\n      tag_12\n      swap2\n      swap1\n      tag_9\n      jump\t// in\n    tag_12:\n      mload(0x40)\n      dup1\n      swap2\n      sub\n      swap1\n      return\n        /* \"week5/ViewAndPureFunctions.sol\":168:245  function viewFunc() external view returns (uint) { ... */\n    tag_5:\n      tag_13\n      tag_14\n      jump\t// in\n    tag_13:\n      mload(0x40)\n      tag_15\n      swap2\n      swap1\n      tag_9\n      jump\t// in\n    tag_15:\n      mload(0x40)\n      dup1\n      swap2\n      sub\n      swap1\n      return\n        /* \"week5/ViewAndPureFunctions.sol\":375:449  function pureFunc() external pure returns (uint) {... */\n    tag_7:\n        /* \"week5/ViewAndPureFunctions.sol\":418:422  uint */\n      0x00\n        /* \"week5/ViewAndPureFunctions.sol\":441:442  1 */\n      0x01\n        /* \"week5/ViewAndPureFunctions.sol\":434:442  return 1 */\n      swap1\n      pop\n        /* \"week5/ViewAndPureFunctions.sol\":375:449  function pureFunc() external pure returns (uint) {... */\n      swap1\n      jump\t// out\n        /* \"week5/ViewAndPureFunctions.sol\":94:109  uint public num */\n    tag_11:\n      sload(0x00)\n      dup2\n      jump\t// out\n        /* \"week5/ViewAndPureFunctions.sol\":168:245  function viewFunc() external view returns (uint) { ... */\n    tag_14:\n        /* \"week5/ViewAndPureFunctions.sol\":211:215  uint */\n      0x00\n        /* \"week5/ViewAndPureFunctions.sol\":235:238  num */\n      dup1\n      sload\n        /* \"week5/ViewAndPureFunctions.sol\":228:238  return num */\n      swap1\n      pop\n        /* \"week5/ViewAndPureFunctions.sol\":168:245  function viewFunc() external view returns (uint) { ... */\n      swap1\n      jump\t// out\n        /* \"#utility.yul\":7:84   */\n    tag_18:\n        /* \"#utility.yul\":44:51   */\n      0x00\n        /* \"#utility.yul\":73:78   */\n      dup2\n        /* \"#utility.yul\":62:78   */\n      swap1\n      pop\n        /* \"#utility.yul\":7:84   */\n      swap2\n      swap1\n      pop\n      jump\t// out\n        /* \"#utility.yul\":90:208   */\n    tag_19:\n        /* \"#utility.yul\":177:201   */\n      tag_23\n        /* \"#utility.yul\":195:200   */\n      dup2\n        /* \"#utility.yul\":177:201   */\n      tag_18\n      jump\t// in\n    tag_23:\n        /* \"#utility.yul\":172:175   */\n      dup3\n        /* \"#utility.yul\":165:202   */\n      mstore\n        /* \"#utility.yul\":90:208   */\n      pop\n      pop\n      jump\t// out\n        /* \"#utility.yul\":214:436   */\n    tag_9:\n        /* \"#utility.yul\":307:311   */\n      0x00\n        /* \"#utility.yul\":345:347   */\n      0x20\n        /* \"#utility.yul\":334:343   */\n      dup3\n        /* \"#utility.yul\":330:348   */\n      add\n        /* \"#utility.yul\":322:348   */\n      swap1\n      pop\n        /* \"#utility.yul\":358:429   */\n      tag_25\n        /* \"#utility.yul\":426:427   */\n      0x00\n        /* \"#utility.yul\":415:424   */\n      dup4\n        /* \"#utility.yul\":411:428   */\n      add\n        /* \"#utility.yul\":402:408   */\n      dup5\n        /* \"#utility.yul\":358:429   */\n      tag_19\n      jump\t// in\n    tag_25:\n        /* \"#utility.yul\":214:436   */\n      swap3\n      swap2\n      pop\n      pop\n      jump\t// out\n\n    auxdata: 0xa2646970667358221220d94764ff336b2c926c9f7f9b82ecaa63e7caa38bcd9fde3cc95a1adc8f0e8d6864736f6c63430008120033\n}\n",
				"bytecode": {
					"linkReferences": {},
					"object": "608060405234801561001057600080fd5b5061010d806100206000396000f3fe6080604052348015600f57600080fd5b5060043610603c5760003560e01c8063231e18a91460415780634e70b1dc14605b5780637f2857b6146075575b600080fd5b6047608f565b6040516052919060be565b60405180910390f35b60616098565b604051606c919060be565b60405180910390f35b607b609e565b6040516086919060be565b60405180910390f35b60006001905090565b60005481565b60008054905090565b6000819050919050565b60b88160a7565b82525050565b600060208201905060d1600083018460b1565b9291505056fea2646970667358221220d94764ff336b2c926c9f7f9b82ecaa63e7caa38bcd9fde3cc95a1adc8f0e8d6864736f6c63430008120033",
					"opcodes": "PUSH1 0x80 PUSH1 0x40 MSTORE CALLVALUE DUP1 ISZERO PUSH2 0x10 JUMPI PUSH1 0x0 DUP1 REVERT JUMPDEST POP PUSH2 0x10D DUP1 PUSH2 0x20 PUSH1 0x0 CODECOPY PUSH1 0x0 RETURN INVALID PUSH1 0x80 PUSH1 0x40 MSTORE CALLVALUE DUP1 ISZERO PUSH1 0xF JUMPI PUSH1 0x0 DUP1 REVERT JUMPDEST POP PUSH1 0x4 CALLDATASIZE LT PUSH1 0x3C JUMPI PUSH1 0x0 CALLDATALOAD PUSH1 0xE0 SHR DUP1 PUSH4 0x231E18A9 EQ PUSH1 0x41 JUMPI DUP1 PUSH4 0x4E70B1DC EQ PUSH1 0x5B JUMPI DUP1 PUSH4 0x7F2857B6 EQ PUSH1 0x75 JUMPI JUMPDEST PUSH1 0x0 DUP1 REVERT JUMPDEST PUSH1 0x47 PUSH1 0x8F JUMP JUMPDEST PUSH1 0x40 MLOAD PUSH1 0x52 SWAP2 SWAP1 PUSH1 0xBE JUMP JUMPDEST PUSH1 0x40 MLOAD DUP1 SWAP2 SUB SWAP1 RETURN JUMPDEST PUSH1 0x61 PUSH1 0x98 JUMP JUMPDEST PUSH1 0x40 MLOAD PUSH1 0x6C SWAP2 SWAP1 PUSH1 0xBE JUMP JUMPDEST PUSH1 0x40 MLOAD DUP1 SWAP2 SUB SWAP1 RETURN JUMPDEST PUSH1 0x7B PUSH1 0x9E JUMP JUMPDEST PUSH1 0x40 MLOAD PUSH1 0x86 SWAP2 SWAP1 PUSH1 0xBE JUMP JUMPDEST PUSH1 0x40 MLOAD DUP1 SWAP2 SUB SWAP1 RETURN JUMPDEST PUSH1 0x0 PUSH1 0x1 SWAP1 POP SWAP1 JUMP JUMPDEST PUSH1 0x0 SLOAD DUP2 JUMP JUMPDEST PUSH1 0x0 DUP1 SLOAD SWAP1 POP SWAP1 JUMP JUMPDEST PUSH1 0x0 DUP2 SWAP1 POP SWAP2 SWAP1 POP JUMP JUMPDEST PUSH1 0xB8 DUP2 PUSH1 0xA7 JUMP JUMPDEST DUP3 MSTORE POP POP JUMP JUMPDEST PUSH1 0x0 PUSH1 0x20 DUP3 ADD SWAP1 POP PUSH1 0xD1 PUSH1 0x0 DUP4 ADD DUP5 PUSH1 0xB1 JUMP JUMPDEST SWAP3 SWAP2 POP POP JUMP INVALID LOG2 PUSH5 0x6970667358 0x22 SLT KECCAK256 0xD9 SELFBALANCE PUSH5 0xFF336B2C92 PUSH13 0x9F7F9B82ECAA63E7CAA38BCD9F 0xDE EXTCODECOPY 0xC9 GAS BYTE 0xDC DUP16 0xE DUP14 PUSH9 0x64736F6C6343000812 STOP CALLER "
				},
				"gasEstimates": {
					"creation": {
						"codeDepositCost": "53800",
						"executionCost": "105",
						"totalCost": "53905"
					},
					"external": {
						"num()": "2429",
						"pureFunc()": "315",
						"viewFunc()": "2459"
					}
				},
				"methodIdentifiers": {
					"num()": "4e70b1dc",
					"pureFunc()": "231e18a9",
					"viewFunc()": "7f2857b6"
				}
			},
			"storageLayout": {
				"storage": [
					{
						"astId": 3,
						"contract": "week5/ViewAndPureFunctions.sol:ViewAndPureFunctions",
						"label": "num",
						"offset": 0,
						"slot": "0",
						"type": "t_uint256"
					}
				],
				"types": {
					"t_uint256": {
						"encoding": "inplace",
						"label": "uint256",
						"numberOfBytes": "32"
					}
				}
			},
			"userdoc": {
				"kind": "user",
				"methods": {},
				"version": 1
			}
		}
	}
}