{
	"week5/FunctionVisibility.sol": {
		"Inherit": {
			"abi": [
				{
					"inputs": [],
					"name": "externalVer",
					"outputs": [],
					"stateMutability": "nonpayable",
					"type": "function"
				},
				{
					"inputs": [],
					"name": "externalVerInherit",
					"outputs": [],
					"stateMutability": "nonpayable",
					"type": "function"
				},
				{
					"inputs": [],
					"name": "publicVer",
					"outputs": [],
					"stateMutability": "nonpayable",
					"type": "function"
				},
				{
					"inputs": [],
					"name": "publicVerInherit",
					"outputs": [],
					"stateMutability": "nonpayable",
					"type": "function"
				},
				{
					"inputs": [
						{
							"internalType": "uint256",
							"name": "_num",
							"type": "uint256"
						}
					],
					"name": "viewVer",
					"outputs": [
						{
							"internalType": "uint256",
							"name": "",
							"type": "uint256"
						}
					],
					"stateMutability": "view",
					"type": "function"
				}
			],
			"devdoc": {
				"kind": "dev",
				"methods": {},
				"version": 1
			},
			"evm": {
				"assembly": "    /* \"week5/FunctionVisibility.sol\":983:1321  contract Inherit is FunctionVisibility {... */\n  mstore(0x40, 0x80)\n    /* \"week5/FunctionVisibility.sol\":104:107  123 */\n  0x7b\n    /* \"week5/FunctionVisibility.sol\":93:107  uint num = 123 */\n  0x00\n  sstore\n    /* \"week5/FunctionVisibility.sol\":983:1321  contract Inherit is FunctionVisibility {... */\n  callvalue\n  dup1\n  iszero\n  tag_1\n  jumpi\n  0x00\n  dup1\n  revert\ntag_1:\n  pop\n  dataSize(sub_0)\n  dup1\n  dataOffset(sub_0)\n  0x00\n  codecopy\n  0x00\n  return\nstop\n\nsub_0: assembly {\n        /* \"week5/FunctionVisibility.sol\":983:1321  contract Inherit is FunctionVisibility {... */\n      mstore(0x40, 0x80)\n      callvalue\n      dup1\n      iszero\n      tag_1\n      jumpi\n      0x00\n      dup1\n      revert\n    tag_1:\n      pop\n      jumpi(tag_2, lt(calldatasize, 0x04))\n      shr(0xe0, calldataload(0x00))\n      dup1\n      0x1086dbf5\n      eq\n      tag_3\n      jumpi\n      dup1\n      0x7daff29b\n      eq\n      tag_4\n      jumpi\n      dup1\n      0x927c66f7\n      eq\n      tag_5\n      jumpi\n      dup1\n      0xa56de4df\n      eq\n      tag_6\n      jumpi\n      dup1\n      0xfe87ea30\n      eq\n      tag_7\n      jumpi\n    tag_2:\n      0x00\n      dup1\n      revert\n        /* \"week5/FunctionVisibility.sol\":1172:1244  function externalVerInherit() external {... */\n    tag_3:\n      tag_8\n      tag_9\n      jump\t// in\n    tag_8:\n      stop\n        /* \"week5/FunctionVisibility.sol\":273:362  function viewVer(uint _num) public view returns (uint) {... */\n    tag_4:\n      tag_10\n      0x04\n      dup1\n      calldatasize\n      sub\n      dup2\n      add\n      swap1\n      tag_11\n      swap2\n      swap1\n      tag_12\n      jump\t// in\n    tag_11:\n      tag_13\n      jump\t// in\n    tag_10:\n      mload(0x40)\n      tag_14\n      swap2\n      swap1\n      tag_15\n      jump\t// in\n    tag_14:\n      mload(0x40)\n      dup1\n      swap2\n      sub\n      swap1\n      return\n        /* \"week5/FunctionVisibility.sol\":427:533  function publicVer() public {... */\n    tag_5:\n      tag_16\n      tag_17\n      jump\t// in\n    tag_16:\n      stop\n        /* \"week5/FunctionVisibility.sol\":1028:1091  function publicVerInherit() public {... */\n    tag_6:\n      tag_18\n      tag_19\n      jump\t// in\n    tag_18:\n      stop\n        /* \"week5/FunctionVisibility.sol\":732:837  function externalVer() external {... */\n    tag_7:\n      tag_20\n      tag_21\n      jump\t// in\n    tag_20:\n      stop\n        /* \"week5/FunctionVisibility.sol\":1172:1244  function externalVerInherit() external {... */\n    tag_9:\n      jump\t// out\n        /* \"week5/FunctionVisibility.sol\":273:362  function viewVer(uint _num) public view returns (uint) {... */\n    tag_13:\n        /* \"week5/FunctionVisibility.sol\":322:326  uint */\n      0x00\n        /* \"week5/FunctionVisibility.sol\":351:355  _num */\n      dup2\n        /* \"week5/FunctionVisibility.sol\":345:348  num */\n      sload(0x00)\n        /* \"week5/FunctionVisibility.sol\":345:355  num + _num */\n      tag_24\n      swap2\n      swap1\n      tag_25\n      jump\t// in\n    tag_24:\n        /* \"week5/FunctionVisibility.sol\":338:355  return num + _num */\n      swap1\n      pop\n        /* \"week5/FunctionVisibility.sol\":273:362  function viewVer(uint _num) public view returns (uint) {... */\n      swap2\n      swap1\n      pop\n      jump\t// out\n        /* \"week5/FunctionVisibility.sol\":427:533  function publicVer() public {... */\n    tag_17:\n        /* \"week5/FunctionVisibility.sol\":465:478  internalVer() */\n      tag_27\n        /* \"week5/FunctionVisibility.sol\":465:476  internalVer */\n      tag_28\n        /* \"week5/FunctionVisibility.sol\":465:478  internalVer() */\n      jump\t// in\n    tag_27:\n        /* \"week5/FunctionVisibility.sol\":514:526  privateVer() */\n      tag_29\n        /* \"week5/FunctionVisibility.sol\":514:524  privateVer */\n      tag_30\n        /* \"week5/FunctionVisibility.sol\":514:526  privateVer() */\n      jump\t// in\n    tag_29:\n        /* \"week5/FunctionVisibility.sol\":427:533  function publicVer() public {... */\n      jump\t// out\n        /* \"week5/FunctionVisibility.sol\":1028:1091  function publicVerInherit() public {... */\n    tag_19:\n        /* \"week5/FunctionVisibility.sol\":1073:1084  publicVer() */\n      tag_32\n        /* \"week5/FunctionVisibility.sol\":1073:1082  publicVer */\n      tag_17\n        /* \"week5/FunctionVisibility.sol\":1073:1084  publicVer() */\n      jump\t// in\n    tag_32:\n        /* \"week5/FunctionVisibility.sol\":1028:1091  function publicVerInherit() public {... */\n      jump\t// out\n        /* \"week5/FunctionVisibility.sol\":732:837  function externalVer() external {... */\n    tag_21:\n        /* \"week5/FunctionVisibility.sol\":774:785  publicVer() */\n      tag_34\n        /* \"week5/FunctionVisibility.sol\":774:783  publicVer */\n      tag_17\n        /* \"week5/FunctionVisibility.sol\":774:785  publicVer() */\n      jump\t// in\n    tag_34:\n        /* \"week5/FunctionVisibility.sol\":795:808  internalVer() */\n      tag_35\n        /* \"week5/FunctionVisibility.sol\":795:806  internalVer */\n      tag_28\n        /* \"week5/FunctionVisibility.sol\":795:808  internalVer() */\n      jump\t// in\n    tag_35:\n        /* \"week5/FunctionVisibility.sol\":818:830  privateVer() */\n      tag_36\n        /* \"week5/FunctionVisibility.sol\":818:828  privateVer */\n      tag_30\n        /* \"week5/FunctionVisibility.sol\":818:830  privateVer() */\n      jump\t// in\n    tag_36:\n        /* \"week5/FunctionVisibility.sol\":732:837  function externalVer() external {... */\n      jump\t// out\n        /* \"week5/FunctionVisibility.sol\":583:691  function internalVer() internal {... */\n    tag_28:\n        /* \"week5/FunctionVisibility.sol\":625:636  publicVer() */\n      tag_38\n        /* \"week5/FunctionVisibility.sol\":625:634  publicVer */\n      tag_17\n        /* \"week5/FunctionVisibility.sol\":625:636  publicVer() */\n      jump\t// in\n    tag_38:\n        /* \"week5/FunctionVisibility.sol\":672:684  privateVer() */\n      tag_39\n        /* \"week5/FunctionVisibility.sol\":672:682  privateVer */\n      tag_30\n        /* \"week5/FunctionVisibility.sol\":672:684  privateVer() */\n      jump\t// in\n    tag_39:\n        /* \"week5/FunctionVisibility.sol\":583:691  function internalVer() internal {... */\n      jump\t// out\n        /* \"week5/FunctionVisibility.sol\":872:979  function privateVer() private {... */\n    tag_30:\n        /* \"week5/FunctionVisibility.sol\":912:923  publicVer() */\n      tag_41\n        /* \"week5/FunctionVisibility.sol\":912:921  publicVer */\n      tag_17\n        /* \"week5/FunctionVisibility.sol\":912:923  publicVer() */\n      jump\t// in\n    tag_41:\n        /* \"week5/FunctionVisibility.sol\":933:946  internalVer() */\n      tag_42\n        /* \"week5/FunctionVisibility.sol\":933:944  internalVer */\n      tag_28\n        /* \"week5/FunctionVisibility.sol\":933:946  internalVer() */\n      jump\t// in\n    tag_42:\n        /* \"week5/FunctionVisibility.sol\":872:979  function privateVer() private {... */\n      jump\t// out\n        /* \"#utility.yul\":88:205   */\n    tag_44:\n        /* \"#utility.yul\":197:198   */\n      0x00\n        /* \"#utility.yul\":194:195   */\n      dup1\n        /* \"#utility.yul\":187:199   */\n      revert\n        /* \"#utility.yul\":334:411   */\n    tag_46:\n        /* \"#utility.yul\":371:378   */\n      0x00\n        /* \"#utility.yul\":400:405   */\n      dup2\n        /* \"#utility.yul\":389:405   */\n      swap1\n      pop\n        /* \"#utility.yul\":334:411   */\n      swap2\n      swap1\n      pop\n      jump\t// out\n        /* \"#utility.yul\":417:539   */\n    tag_47:\n        /* \"#utility.yul\":490:514   */\n      tag_57\n        /* \"#utility.yul\":508:513   */\n      dup2\n        /* \"#utility.yul\":490:514   */\n      tag_46\n      jump\t// in\n    tag_57:\n        /* \"#utility.yul\":483:488   */\n      dup2\n        /* \"#utility.yul\":480:515   */\n      eq\n        /* \"#utility.yul\":470:533   */\n      tag_58\n      jumpi\n        /* \"#utility.yul\":529:530   */\n      0x00\n        /* \"#utility.yul\":526:527   */\n      dup1\n        /* \"#utility.yul\":519:531   */\n      revert\n        /* \"#utility.yul\":470:533   */\n    tag_58:\n        /* \"#utility.yul\":417:539   */\n      pop\n      jump\t// out\n        /* \"#utility.yul\":545:684   */\n    tag_48:\n        /* \"#utility.yul\":591:596   */\n      0x00\n        /* \"#utility.yul\":629:635   */\n      dup2\n        /* \"#utility.yul\":616:636   */\n      calldataload\n        /* \"#utility.yul\":607:636   */\n      swap1\n      pop\n        /* \"#utility.yul\":645:678   */\n      tag_60\n        /* \"#utility.yul\":672:677   */\n      dup2\n        /* \"#utility.yul\":645:678   */\n      tag_47\n      jump\t// in\n    tag_60:\n        /* \"#utility.yul\":545:684   */\n      swap3\n      swap2\n      pop\n      pop\n      jump\t// out\n        /* \"#utility.yul\":690:1019   */\n    tag_12:\n        /* \"#utility.yul\":749:755   */\n      0x00\n        /* \"#utility.yul\":798:800   */\n      0x20\n        /* \"#utility.yul\":786:795   */\n      dup3\n        /* \"#utility.yul\":777:784   */\n      dup5\n        /* \"#utility.yul\":773:796   */\n      sub\n        /* \"#utility.yul\":769:801   */\n      slt\n        /* \"#utility.yul\":766:885   */\n      iszero\n      tag_62\n      jumpi\n        /* \"#utility.yul\":804:883   */\n      tag_63\n      tag_44\n      jump\t// in\n    tag_63:\n        /* \"#utility.yul\":766:885   */\n    tag_62:\n        /* \"#utility.yul\":924:925   */\n      0x00\n        /* \"#utility.yul\":949:1002   */\n      tag_64\n        /* \"#utility.yul\":994:1001   */\n      dup5\n        /* \"#utility.yul\":985:991   */\n      dup3\n        /* \"#utility.yul\":974:983   */\n      dup6\n        /* \"#utility.yul\":970:992   */\n      add\n        /* \"#utility.yul\":949:1002   */\n      tag_48\n      jump\t// in\n    tag_64:\n        /* \"#utility.yul\":939:1002   */\n      swap2\n      pop\n        /* \"#utility.yul\":895:1012   */\n      pop\n        /* \"#utility.yul\":690:1019   */\n      swap3\n      swap2\n      pop\n      pop\n      jump\t// out\n        /* \"#utility.yul\":1025:1143   */\n    tag_49:\n        /* \"#utility.yul\":1112:1136   */\n      tag_66\n        /* \"#utility.yul\":1130:1135   */\n      dup2\n        /* \"#utility.yul\":1112:1136   */\n      tag_46\n      jump\t// in\n    tag_66:\n        /* \"#utility.yul\":1107:1110   */\n      dup3\n        /* \"#utility.yul\":1100:1137   */\n      mstore\n        /* \"#utility.yul\":1025:1143   */\n      pop\n      pop\n      jump\t// out\n        /* \"#utility.yul\":1149:1371   */\n    tag_15:\n        /* \"#utility.yul\":1242:1246   */\n      0x00\n        /* \"#utility.yul\":1280:1282   */\n      0x20\n        /* \"#utility.yul\":1269:1278   */\n      dup3\n        /* \"#utility.yul\":1265:1283   */\n      add\n        /* \"#utility.yul\":1257:1283   */\n      swap1\n      pop\n        /* \"#utility.yul\":1293:1364   */\n      tag_68\n        /* \"#utility.yul\":1361:1362   */\n      0x00\n        /* \"#utility.yul\":1350:1359   */\n      dup4\n        /* \"#utility.yul\":1346:1363   */\n      add\n        /* \"#utility.yul\":1337:1343   */\n      dup5\n        /* \"#utility.yul\":1293:1364   */\n      tag_49\n      jump\t// in\n    tag_68:\n        /* \"#utility.yul\":1149:1371   */\n      swap3\n      swap2\n      pop\n      pop\n      jump\t// out\n        /* \"#utility.yul\":1377:1557   */\n    tag_50:\n        /* \"#utility.yul\":1425:1502   */\n      0x4e487b7100000000000000000000000000000000000000000000000000000000\n        /* \"#utility.yul\":1422:1423   */\n      0x00\n        /* \"#utility.yul\":1415:1503   */\n      mstore\n        /* \"#utility.yul\":1522:1526   */\n      0x11\n        /* \"#utility.yul\":1519:1520   */\n      0x04\n        /* \"#utility.yul\":1512:1527   */\n      mstore\n        /* \"#utility.yul\":1546:1550   */\n      0x24\n        /* \"#utility.yul\":1543:1544   */\n      0x00\n        /* \"#utility.yul\":1536:1551   */\n      revert\n        /* \"#utility.yul\":1563:1754   */\n    tag_25:\n        /* \"#utility.yul\":1603:1606   */\n      0x00\n        /* \"#utility.yul\":1622:1642   */\n      tag_71\n        /* \"#utility.yul\":1640:1641   */\n      dup3\n        /* \"#utility.yul\":1622:1642   */\n      tag_46\n      jump\t// in\n    tag_71:\n        /* \"#utility.yul\":1617:1642   */\n      swap2\n      pop\n        /* \"#utility.yul\":1656:1676   */\n      tag_72\n        /* \"#utility.yul\":1674:1675   */\n      dup4\n        /* \"#utility.yul\":1656:1676   */\n      tag_46\n      jump\t// in\n    tag_72:\n        /* \"#utility.yul\":1651:1676   */\n      swap3\n      pop\n        /* \"#utility.yul\":1699:1700   */\n      dup3\n        /* \"#utility.yul\":1696:1697   */\n      dup3\n        /* \"#utility.yul\":1692:1701   */\n      add\n        /* \"#utility.yul\":1685:1701   */\n      swap1\n      pop\n        /* \"#utility.yul\":1720:1723   */\n      dup1\n        /* \"#utility.yul\":1717:1718   */\n      dup3\n        /* \"#utility.yul\":1714:1724   */\n      gt\n        /* \"#utility.yul\":1711:1747   */\n      iszero\n      tag_73\n      jumpi\n        /* \"#utility.yul\":1727:1745   */\n      tag_74\n      tag_50\n      jump\t// in\n    tag_74:\n        /* \"#utility.yul\":1711:1747   */\n    tag_73:\n        /* \"#utility.yul\":1563:1754   */\n      swap3\n      swap2\n      pop\n      pop\n      jump\t// out\n\n    auxdata: 0xa2646970667358221220c94a7fb0b9bbc63df21426208b1a254533d00d4ef50d7c1acbc9ac083a12496064736f6c63430008120033\n}\n",
				"bytecode": {
					"linkReferences": {},
					"object": "6080604052607b60005534801561001557600080fd5b50610252806100256000396000f3fe608060405234801561001057600080fd5b50600436106100575760003560e01c80631086dbf51461005c5780637daff29b14610066578063927c66f714610096578063a56de4df146100a0578063fe87ea30146100aa575b600080fd5b6100646100b4565b005b610080600480360381019061007b9190610162565b6100b6565b60405161008d919061019e565b60405180910390f35b61009e6100cd565b005b6100a86100df565b005b6100b26100e9565b005b565b6000816000546100c691906101e8565b9050919050565b6100d5610103565b6100dd610115565b565b6100e76100cd565b565b6100f16100cd565b6100f9610103565b610101610115565b565b61010b6100cd565b610113610115565b565b61011d6100cd565b610125610103565b565b600080fd5b6000819050919050565b61013f8161012c565b811461014a57600080fd5b50565b60008135905061015c81610136565b92915050565b60006020828403121561017857610177610127565b5b60006101868482850161014d565b91505092915050565b6101988161012c565b82525050565b60006020820190506101b3600083018461018f565b92915050565b7f4e487b7100000000000000000000000000000000000000000000000000000000600052601160045260246000fd5b60006101f38261012c565b91506101fe8361012c565b9250828201905080821115610216576102156101b9565b5b9291505056fea2646970667358221220c94a7fb0b9bbc63df21426208b1a254533d00d4ef50d7c1acbc9ac083a12496064736f6c63430008120033",
					"opcodes": "PUSH1 0x80 PUSH1 0x40 MSTORE PUSH1 0x7B PUSH1 0x0 SSTORE CALLVALUE DUP1 ISZERO PUSH2 0x15 JUMPI PUSH1 0x0 DUP1 REVERT JUMPDEST POP PUSH2 0x252 DUP1 PUSH2 0x25 PUSH1 0x0 CODECOPY PUSH1 0x0 RETURN INVALID PUSH1 0x80 PUSH1 0x40 MSTORE CALLVALUE DUP1 ISZERO PUSH2 0x10 JUMPI PUSH1 0x0 DUP1 REVERT JUMPDEST POP PUSH1 0x4 CALLDATASIZE LT PUSH2 0x57 JUMPI PUSH1 0x0 CALLDATALOAD PUSH1 0xE0 SHR DUP1 PUSH4 0x1086DBF5 EQ PUSH2 0x5C JUMPI DUP1 PUSH4 0x7DAFF29B EQ PUSH2 0x66 JUMPI DUP1 PUSH4 0x927C66F7 EQ PUSH2 0x96 JUMPI DUP1 PUSH4 0xA56DE4DF EQ PUSH2 0xA0 JUMPI DUP1 PUSH4 0xFE87EA30 EQ PUSH2 0xAA JUMPI JUMPDEST PUSH1 0x0 DUP1 REVERT JUMPDEST PUSH2 0x64 PUSH2 0xB4 JUMP JUMPDEST STOP JUMPDEST PUSH2 0x80 PUSH1 0x4 DUP1 CALLDATASIZE SUB DUP2 ADD SWAP1 PUSH2 0x7B SWAP2 SWAP1 PUSH2 0x162 JUMP JUMPDEST PUSH2 0xB6 JUMP JUMPDEST PUSH1 0x40 MLOAD PUSH2 0x8D SWAP2 SWAP1 PUSH2 0x19E JUMP JUMPDEST PUSH1 0x40 MLOAD DUP1 SWAP2 SUB SWAP1 RETURN JUMPDEST PUSH2 0x9E PUSH2 0xCD JUMP JUMPDEST STOP JUMPDEST PUSH2 0xA8 PUSH2 0xDF JUMP JUMPDEST STOP JUMPDEST PUSH2 0xB2 PUSH2 0xE9 JUMP JUMPDEST STOP JUMPDEST JUMP JUMPDEST PUSH1 0x0 DUP2 PUSH1 0x0 SLOAD PUSH2 0xC6 SWAP2 SWAP1 PUSH2 0x1E8 JUMP JUMPDEST SWAP1 POP SWAP2 SWAP1 POP JUMP JUMPDEST PUSH2 0xD5 PUSH2 0x103 JUMP JUMPDEST PUSH2 0xDD PUSH2 0x115 JUMP JUMPDEST JUMP JUMPDEST PUSH2 0xE7 PUSH2 0xCD JUMP JUMPDEST JUMP JUMPDEST PUSH2 0xF1 PUSH2 0xCD JUMP JUMPDEST PUSH2 0xF9 PUSH2 0x103 JUMP JUMPDEST PUSH2 0x101 PUSH2 0x115 JUMP JUMPDEST JUMP JUMPDEST PUSH2 0x10B PUSH2 0xCD JUMP JUMPDEST PUSH2 0x113 PUSH2 0x115 JUMP JUMPDEST JUMP JUMPDEST PUSH2 0x11D PUSH2 0xCD JUMP JUMPDEST PUSH2 0x125 PUSH2 0x103 JUMP JUMPDEST JUMP JUMPDEST PUSH1 0x0 DUP1 REVERT JUMPDEST PUSH1 0x0 DUP2 SWAP1 POP SWAP2 SWAP1 POP JUMP JUMPDEST PUSH2 0x13F DUP2 PUSH2 0x12C JUMP JUMPDEST DUP2 EQ PUSH2 0x14A JUMPI PUSH1 0x0 DUP1 REVERT JUMPDEST POP JUMP JUMPDEST PUSH1 0x0 DUP2 CALLDATALOAD SWAP1 POP PUSH2 0x15C DUP2 PUSH2 0x136 JUMP JUMPDEST SWAP3 SWAP2 POP POP JUMP JUMPDEST PUSH1 0x0 PUSH1 0x20 DUP3 DUP5 SUB SLT ISZERO PUSH2 0x178 JUMPI PUSH2 0x177 PUSH2 0x127 JUMP JUMPDEST JUMPDEST PUSH1 0x0 PUSH2 0x186 DUP5 DUP3 DUP6 ADD PUSH2 0x14D JUMP JUMPDEST SWAP2 POP POP SWAP3 SWAP2 POP POP JUMP JUMPDEST PUSH2 0x198 DUP2 PUSH2 0x12C JUMP JUMPDEST DUP3 MSTORE POP POP JUMP JUMPDEST PUSH1 0x0 PUSH1 0x20 DUP3 ADD SWAP1 POP PUSH2 0x1B3 PUSH1 0x0 DUP4 ADD DUP5 PUSH2 0x18F JUMP JUMPDEST SWAP3 SWAP2 POP POP JUMP JUMPDEST PUSH32 0x4E487B7100000000000000000000000000000000000000000000000000000000 PUSH1 0x0 MSTORE PUSH1 0x11 PUSH1 0x4 MSTORE PUSH1 0x24 PUSH1 0x0 REVERT JUMPDEST PUSH1 0x0 PUSH2 0x1F3 DUP3 PUSH2 0x12C JUMP JUMPDEST SWAP2 POP PUSH2 0x1FE DUP4 PUSH2 0x12C JUMP JUMPDEST SWAP3 POP DUP3 DUP3 ADD SWAP1 POP DUP1 DUP3 GT ISZERO PUSH2 0x216 JUMPI PUSH2 0x215 PUSH2 0x1B9 JUMP JUMPDEST JUMPDEST SWAP3 SWAP2 POP POP JUMP INVALID LOG2 PUSH5 0x6970667358 0x22 SLT KECCAK256 0xC9 0x4A PUSH32 0xB0B9BBC63DF21426208B1A254533D00D4EF50D7C1ACBC9AC083A12496064736F PUSH13 0x63430008120033000000000000 "
				},
				"gasEstimates": {
					"creation": {
						"codeDepositCost": "118800",
						"executionCost": "22271",
						"totalCost": "141071"
					},
					"external": {
						"externalVer()": "infinite",
						"externalVerInherit()": "122",
						"publicVer()": "infinite",
						"publicVerInherit()": "infinite",
						"viewVer(uint256)": "infinite"
					},
					"internal": {
						"internalVerInherit()": "infinite",
						"privateVerInherit()": "infinite"
					}
				},
				"methodIdentifiers": {
					"externalVer()": "fe87ea30",
					"externalVerInherit()": "1086dbf5",
					"publicVer()": "927c66f7",
					"publicVerInherit()": "a56de4df",
					"viewVer(uint256)": "7daff29b"
				}
			},
			"storageLayout": {
				"storage": [
					{
						"astId": 4,
						"contract": "week5/FunctionVisibility.sol:Inherit",
						"label": "num",
						"offset": 0,
						"slot": "0",
						"type": "t_uint256"
					}
				],
				"types": {
					"t_uint256": {
						"encoding": "inplace",
						"label": "uint256",
						"numberOfBytes": "32"
					}
				}
			},
			"userdoc": {
				"kind": "user",
				"methods": {},
				"version": 1
			}
		}
	}
}