{
	"week4/04_1_counter.sol": {
		"Counter": {
			"abi": [
				{
					"inputs": [],
					"name": "count",
					"outputs": [
						{
							"internalType": "uint256",
							"name": "",
							"type": "uint256"
						}
					],
					"stateMutability": "view",
					"type": "function"
				},
				{
					"inputs": [],
					"name": "dev",
					"outputs": [],
					"stateMutability": "nonpayable",
					"type": "function"
				},
				{
					"inputs": [],
					"name": "inc",
					"outputs": [],
					"stateMutability": "nonpayable",
					"type": "function"
				}
			],
			"devdoc": {
				"kind": "dev",
				"methods": {},
				"version": 1
			},
			"evm": {
				"assembly": "    /* \"week4/04_1_counter.sol\":57:218  contract Counter {... */\n  mstore(0x40, 0x80)\n  callvalue\n  dup1\n  iszero\n  tag_1\n  jumpi\n  0x00\n  dup1\n  revert\ntag_1:\n  pop\n  dataSize(sub_0)\n  dup1\n  dataOffset(sub_0)\n  0x00\n  codecopy\n  0x00\n  return\nstop\n\nsub_0: assembly {\n        /* \"week4/04_1_counter.sol\":57:218  contract Counter {... */\n      mstore(0x40, 0x80)\n      callvalue\n      dup1\n      iszero\n      tag_1\n      jumpi\n      0x00\n      dup1\n      revert\n    tag_1:\n      pop\n      jumpi(tag_2, lt(calldatasize, 0x04))\n      shr(0xe0, calldataload(0x00))\n      dup1\n      0x06661abd\n      eq\n      tag_3\n      jumpi\n      dup1\n      0x371303c0\n      eq\n      tag_4\n      jumpi\n      dup1\n      0x91cca3db\n      eq\n      tag_5\n      jumpi\n    tag_2:\n      0x00\n      dup1\n      revert\n        /* \"week4/04_1_counter.sol\":80:97  uint public count */\n    tag_3:\n      tag_6\n      tag_7\n      jump\t// in\n    tag_6:\n      mload(0x40)\n      tag_8\n      swap2\n      swap1\n      tag_9\n      jump\t// in\n    tag_8:\n      mload(0x40)\n      dup1\n      swap2\n      sub\n      swap1\n      return\n        /* \"week4/04_1_counter.sol\":104:155  function inc() external {... */\n    tag_4:\n      tag_10\n      tag_11\n      jump\t// in\n    tag_10:\n      stop\n        /* \"week4/04_1_counter.sol\":165:216  function dev() external {... */\n    tag_5:\n      tag_12\n      tag_13\n      jump\t// in\n    tag_12:\n      stop\n        /* \"week4/04_1_counter.sol\":80:97  uint public count */\n    tag_7:\n      sload(0x00)\n      dup2\n      jump\t// out\n        /* \"week4/04_1_counter.sol\":104:155  function inc() external {... */\n    tag_11:\n        /* \"week4/04_1_counter.sol\":147:148  1 */\n      0x01\n        /* \"week4/04_1_counter.sol\":138:143  count */\n      0x00\n      dup1\n        /* \"week4/04_1_counter.sol\":138:148  count += 1 */\n      dup3\n      dup3\n      sload\n      tag_15\n      swap2\n      swap1\n      tag_16\n      jump\t// in\n    tag_15:\n      swap3\n      pop\n      pop\n      dup2\n      swap1\n      sstore\n      pop\n        /* \"week4/04_1_counter.sol\":104:155  function inc() external {... */\n      jump\t// out\n        /* \"week4/04_1_counter.sol\":165:216  function dev() external {... */\n    tag_13:\n        /* \"week4/04_1_counter.sol\":208:209  1 */\n      0x01\n        /* \"week4/04_1_counter.sol\":199:204  count */\n      0x00\n      dup1\n        /* \"week4/04_1_counter.sol\":199:209  count -= 1 */\n      dup3\n      dup3\n      sload\n      tag_18\n      swap2\n      swap1\n      tag_19\n      jump\t// in\n    tag_18:\n      swap3\n      pop\n      pop\n      dup2\n      swap1\n      sstore\n      pop\n        /* \"week4/04_1_counter.sol\":165:216  function dev() external {... */\n      jump\t// out\n        /* \"#utility.yul\":7:84   */\n    tag_20:\n        /* \"#utility.yul\":44:51   */\n      0x00\n        /* \"#utility.yul\":73:78   */\n      dup2\n        /* \"#utility.yul\":62:78   */\n      swap1\n      pop\n        /* \"#utility.yul\":7:84   */\n      swap2\n      swap1\n      pop\n      jump\t// out\n        /* \"#utility.yul\":90:208   */\n    tag_21:\n        /* \"#utility.yul\":177:201   */\n      tag_26\n        /* \"#utility.yul\":195:200   */\n      dup2\n        /* \"#utility.yul\":177:201   */\n      tag_20\n      jump\t// in\n    tag_26:\n        /* \"#utility.yul\":172:175   */\n      dup3\n        /* \"#utility.yul\":165:202   */\n      mstore\n        /* \"#utility.yul\":90:208   */\n      pop\n      pop\n      jump\t// out\n        /* \"#utility.yul\":214:436   */\n    tag_9:\n        /* \"#utility.yul\":307:311   */\n      0x00\n        /* \"#utility.yul\":345:347   */\n      0x20\n        /* \"#utility.yul\":334:343   */\n      dup3\n        /* \"#utility.yul\":330:348   */\n      add\n        /* \"#utility.yul\":322:348   */\n      swap1\n      pop\n        /* \"#utility.yul\":358:429   */\n      tag_28\n        /* \"#utility.yul\":426:427   */\n      0x00\n        /* \"#utility.yul\":415:424   */\n      dup4\n        /* \"#utility.yul\":411:428   */\n      add\n        /* \"#utility.yul\":402:408   */\n      dup5\n        /* \"#utility.yul\":358:429   */\n      tag_21\n      jump\t// in\n    tag_28:\n        /* \"#utility.yul\":214:436   */\n      swap3\n      swap2\n      pop\n      pop\n      jump\t// out\n        /* \"#utility.yul\":442:622   */\n    tag_22:\n        /* \"#utility.yul\":490:567   */\n      0x4e487b7100000000000000000000000000000000000000000000000000000000\n        /* \"#utility.yul\":487:488   */\n      0x00\n        /* \"#utility.yul\":480:568   */\n      mstore\n        /* \"#utility.yul\":587:591   */\n      0x11\n        /* \"#utility.yul\":584:585   */\n      0x04\n        /* \"#utility.yul\":577:592   */\n      mstore\n        /* \"#utility.yul\":611:615   */\n      0x24\n        /* \"#utility.yul\":608:609   */\n      0x00\n        /* \"#utility.yul\":601:616   */\n      revert\n        /* \"#utility.yul\":628:819   */\n    tag_16:\n        /* \"#utility.yul\":668:671   */\n      0x00\n        /* \"#utility.yul\":687:707   */\n      tag_31\n        /* \"#utility.yul\":705:706   */\n      dup3\n        /* \"#utility.yul\":687:707   */\n      tag_20\n      jump\t// in\n    tag_31:\n        /* \"#utility.yul\":682:707   */\n      swap2\n      pop\n        /* \"#utility.yul\":721:741   */\n      tag_32\n        /* \"#utility.yul\":739:740   */\n      dup4\n        /* \"#utility.yul\":721:741   */\n      tag_20\n      jump\t// in\n    tag_32:\n        /* \"#utility.yul\":716:741   */\n      swap3\n      pop\n        /* \"#utility.yul\":764:765   */\n      dup3\n        /* \"#utility.yul\":761:762   */\n      dup3\n        /* \"#utility.yul\":757:766   */\n      add\n        /* \"#utility.yul\":750:766   */\n      swap1\n      pop\n        /* \"#utility.yul\":785:788   */\n      dup1\n        /* \"#utility.yul\":782:783   */\n      dup3\n        /* \"#utility.yul\":779:789   */\n      gt\n        /* \"#utility.yul\":776:812   */\n      iszero\n      tag_33\n      jumpi\n        /* \"#utility.yul\":792:810   */\n      tag_34\n      tag_22\n      jump\t// in\n    tag_34:\n        /* \"#utility.yul\":776:812   */\n    tag_33:\n        /* \"#utility.yul\":628:819   */\n      swap3\n      swap2\n      pop\n      pop\n      jump\t// out\n        /* \"#utility.yul\":825:1019   */\n    tag_19:\n        /* \"#utility.yul\":865:869   */\n      0x00\n        /* \"#utility.yul\":885:905   */\n      tag_36\n        /* \"#utility.yul\":903:904   */\n      dup3\n        /* \"#utility.yul\":885:905   */\n      tag_20\n      jump\t// in\n    tag_36:\n        /* \"#utility.yul\":880:905   */\n      swap2\n      pop\n        /* \"#utility.yul\":919:939   */\n      tag_37\n        /* \"#utility.yul\":937:938   */\n      dup4\n        /* \"#utility.yul\":919:939   */\n      tag_20\n      jump\t// in\n    tag_37:\n        /* \"#utility.yul\":914:939   */\n      swap3\n      pop\n        /* \"#utility.yul\":963:964   */\n      dup3\n        /* \"#utility.yul\":960:961   */\n      dup3\n        /* \"#utility.yul\":956:965   */\n      sub\n        /* \"#utility.yul\":948:965   */\n      swap1\n      pop\n        /* \"#utility.yul\":987:988   */\n      dup2\n        /* \"#utility.yul\":981:985   */\n      dup2\n        /* \"#utility.yul\":978:989   */\n      gt\n        /* \"#utility.yul\":975:1012   */\n      iszero\n      tag_38\n      jumpi\n        /* \"#utility.yul\":992:1010   */\n      tag_39\n      tag_22\n      jump\t// in\n    tag_39:\n        /* \"#utility.yul\":975:1012   */\n    tag_38:\n        /* \"#utility.yul\":825:1019   */\n      swap3\n      swap2\n      pop\n      pop\n      jump\t// out\n\n    auxdata: 0xa26469706673582212202e9c153976a38f61311c691123f42601fd9dd31c7d78eed7bcb778b93c8096e164736f6c63430008130033\n}\n",
				"bytecode": {
					"linkReferences": {},
					"object": "608060405234801561001057600080fd5b506101b5806100206000396000f3fe608060405234801561001057600080fd5b50600436106100415760003560e01c806306661abd14610046578063371303c01461006457806391cca3db1461006e575b600080fd5b61004e610078565b60405161005b91906100cd565b60405180910390f35b61006c61007e565b005b610076610099565b005b60005481565b60016000808282546100909190610117565b92505081905550565b60016000808282546100ab919061014b565b92505081905550565b6000819050919050565b6100c7816100b4565b82525050565b60006020820190506100e260008301846100be565b92915050565b7f4e487b7100000000000000000000000000000000000000000000000000000000600052601160045260246000fd5b6000610122826100b4565b915061012d836100b4565b9250828201905080821115610145576101446100e8565b5b92915050565b6000610156826100b4565b9150610161836100b4565b9250828203905081811115610179576101786100e8565b5b9291505056fea26469706673582212202e9c153976a38f61311c691123f42601fd9dd31c7d78eed7bcb778b93c8096e164736f6c63430008130033",
					"opcodes": "PUSH1 0x80 PUSH1 0x40 MSTORE CALLVALUE DUP1 ISZERO PUSH2 0x10 JUMPI PUSH1 0x0 DUP1 REVERT JUMPDEST POP PUSH2 0x1B5 DUP1 PUSH2 0x20 PUSH1 0x0 CODECOPY PUSH1 0x0 RETURN INVALID PUSH1 0x80 PUSH1 0x40 MSTORE CALLVALUE DUP1 ISZERO PUSH2 0x10 JUMPI PUSH1 0x0 DUP1 REVERT JUMPDEST POP PUSH1 0x4 CALLDATASIZE LT PUSH2 0x41 JUMPI PUSH1 0x0 CALLDATALOAD PUSH1 0xE0 SHR DUP1 PUSH4 0x6661ABD EQ PUSH2 0x46 JUMPI DUP1 PUSH4 0x371303C0 EQ PUSH2 0x64 JUMPI DUP1 PUSH4 0x91CCA3DB EQ PUSH2 0x6E JUMPI JUMPDEST PUSH1 0x0 DUP1 REVERT JUMPDEST PUSH2 0x4E PUSH2 0x78 JUMP JUMPDEST PUSH1 0x40 MLOAD PUSH2 0x5B SWAP2 SWAP1 PUSH2 0xCD JUMP JUMPDEST PUSH1 0x40 MLOAD DUP1 SWAP2 SUB SWAP1 RETURN JUMPDEST PUSH2 0x6C PUSH2 0x7E JUMP JUMPDEST STOP JUMPDEST PUSH2 0x76 PUSH2 0x99 JUMP JUMPDEST STOP JUMPDEST PUSH1 0x0 SLOAD DUP2 JUMP JUMPDEST PUSH1 0x1 PUSH1 0x0 DUP1 DUP3 DUP3 SLOAD PUSH2 0x90 SWAP2 SWAP1 PUSH2 0x117 JUMP JUMPDEST SWAP3 POP POP DUP2 SWAP1 SSTORE POP JUMP JUMPDEST PUSH1 0x1 PUSH1 0x0 DUP1 DUP3 DUP3 SLOAD PUSH2 0xAB SWAP2 SWAP1 PUSH2 0x14B JUMP JUMPDEST SWAP3 POP POP DUP2 SWAP1 SSTORE POP JUMP JUMPDEST PUSH1 0x0 DUP2 SWAP1 POP SWAP2 SWAP1 POP JUMP JUMPDEST PUSH2 0xC7 DUP2 PUSH2 0xB4 JUMP JUMPDEST DUP3 MSTORE POP POP JUMP JUMPDEST PUSH1 0x0 PUSH1 0x20 DUP3 ADD SWAP1 POP PUSH2 0xE2 PUSH1 0x0 DUP4 ADD DUP5 PUSH2 0xBE JUMP JUMPDEST SWAP3 SWAP2 POP POP JUMP JUMPDEST PUSH32 0x4E487B7100000000000000000000000000000000000000000000000000000000 PUSH1 0x0 MSTORE PUSH1 0x11 PUSH1 0x4 MSTORE PUSH1 0x24 PUSH1 0x0 REVERT JUMPDEST PUSH1 0x0 PUSH2 0x122 DUP3 PUSH2 0xB4 JUMP JUMPDEST SWAP2 POP PUSH2 0x12D DUP4 PUSH2 0xB4 JUMP JUMPDEST SWAP3 POP DUP3 DUP3 ADD SWAP1 POP DUP1 DUP3 GT ISZERO PUSH2 0x145 JUMPI PUSH2 0x144 PUSH2 0xE8 JUMP JUMPDEST JUMPDEST SWAP3 SWAP2 POP POP JUMP JUMPDEST PUSH1 0x0 PUSH2 0x156 DUP3 PUSH2 0xB4 JUMP JUMPDEST SWAP2 POP PUSH2 0x161 DUP4 PUSH2 0xB4 JUMP JUMPDEST SWAP3 POP DUP3 DUP3 SUB SWAP1 POP DUP2 DUP2 GT ISZERO PUSH2 0x179 JUMPI PUSH2 0x178 PUSH2 0xE8 JUMP JUMPDEST JUMPDEST SWAP3 SWAP2 POP POP JUMP INVALID LOG2 PUSH5 0x6970667358 0x22 SLT KECCAK256 0x2E SWAP13 ISZERO CODECOPY PUSH23 0xA38F61311C691123F42601FD9DD31C7D78EED7BCB778B9 EXTCODECOPY DUP1 SWAP7 0xE1 PUSH5 0x736F6C6343 STOP ADDMOD SGT STOP CALLER "
				},
				"gasEstimates": {
					"creation": {
						"codeDepositCost": "87400",
						"executionCost": "135",
						"totalCost": "87535"
					},
					"external": {
						"count()": "2407",
						"dev()": "infinite",
						"inc()": "infinite"
					}
				},
				"methodIdentifiers": {
					"count()": "06661abd",
					"dev()": "91cca3db",
					"inc()": "371303c0"
				}
			},
			"storageLayout": {
				"storage": [
					{
						"astId": 3,
						"contract": "week4/04_1_counter.sol:Counter",
						"label": "count",
						"offset": 0,
						"slot": "0",
						"type": "t_uint256"
					}
				],
				"types": {
					"t_uint256": {
						"encoding": "inplace",
						"label": "uint256",
						"numberOfBytes": "32"
					}
				}
			},
			"userdoc": {
				"kind": "user",
				"methods": {},
				"version": 1
			}
		}
	}
}