{
	"week6/FunctionSelector.sol": {
		"FunctionSelector": {
			"abi": [
				{
					"inputs": [
						{
							"internalType": "string",
							"name": "_func",
							"type": "string"
						}
					],
					"name": "getSelector",
					"outputs": [
						{
							"internalType": "bytes4",
							"name": "",
							"type": "bytes4"
						}
					],
					"stateMutability": "pure",
					"type": "function"
				}
			],
			"devdoc": {
				"kind": "dev",
				"methods": {},
				"version": 1
			},
			"evm": {
				"assembly": "    /* \"week6/FunctionSelector.sol\":58:221  contract FunctionSelector {... */\n  mstore(0x40, 0x80)\n  callvalue\n  dup1\n  iszero\n  tag_1\n  jumpi\n  0x00\n  dup1\n  revert\ntag_1:\n  pop\n  dataSize(sub_0)\n  dup1\n  dataOffset(sub_0)\n  0x00\n  codecopy\n  0x00\n  return\nstop\n\nsub_0: assembly {\n        /* \"week6/FunctionSelector.sol\":58:221  contract FunctionSelector {... */\n      mstore(0x40, 0x80)\n      callvalue\n      dup1\n      iszero\n      tag_1\n      jumpi\n      0x00\n      dup1\n      revert\n    tag_1:\n      pop\n      jumpi(tag_2, lt(calldatasize, 0x04))\n      shr(0xe0, calldataload(0x00))\n      dup1\n      0x80a003ff\n      eq\n      tag_3\n      jumpi\n    tag_2:\n      0x00\n      dup1\n      revert\n        /* \"week6/FunctionSelector.sol\":90:219  function getSelector(string calldata _func) external pure returns(bytes4) {... */\n    tag_3:\n      tag_4\n      0x04\n      dup1\n      calldatasize\n      sub\n      dup2\n      add\n      swap1\n      tag_5\n      swap2\n      swap1\n      tag_6\n      jump\t// in\n    tag_5:\n      tag_7\n      jump\t// in\n    tag_4:\n      mload(0x40)\n      tag_8\n      swap2\n      swap1\n      tag_9\n      jump\t// in\n    tag_8:\n      mload(0x40)\n      dup1\n      swap2\n      sub\n      swap1\n      return\n    tag_7:\n        /* \"week6/FunctionSelector.sol\":156:162  bytes4 */\n      0x00\n        /* \"week6/FunctionSelector.sol\":204:209  _func */\n      dup3\n      dup3\n        /* \"week6/FunctionSelector.sol\":188:211  keccak256(bytes(_func)) */\n      mload(0x40)\n      tag_11\n      swap3\n      swap2\n      swap1\n      tag_12\n      jump\t// in\n    tag_11:\n      mload(0x40)\n      dup1\n      swap2\n      sub\n      swap1\n      keccak256\n        /* \"week6/FunctionSelector.sol\":174:212  return bytes4(keccak256(bytes(_func))) */\n      swap1\n      pop\n        /* \"week6/FunctionSelector.sol\":90:219  function getSelector(string calldata _func) external pure returns(bytes4) {... */\n      swap3\n      swap2\n      pop\n      pop\n      jump\t// out\n        /* \"#utility.yul\":88:205   */\n    tag_14:\n        /* \"#utility.yul\":197:198   */\n      0x00\n        /* \"#utility.yul\":194:195   */\n      dup1\n        /* \"#utility.yul\":187:199   */\n      revert\n        /* \"#utility.yul\":211:328   */\n    tag_15:\n        /* \"#utility.yul\":320:321   */\n      0x00\n        /* \"#utility.yul\":317:318   */\n      dup1\n        /* \"#utility.yul\":310:322   */\n      revert\n        /* \"#utility.yul\":334:451   */\n    tag_16:\n        /* \"#utility.yul\":443:444   */\n      0x00\n        /* \"#utility.yul\":440:441   */\n      dup1\n        /* \"#utility.yul\":433:445   */\n      revert\n        /* \"#utility.yul\":457:574   */\n    tag_17:\n        /* \"#utility.yul\":566:567   */\n      0x00\n        /* \"#utility.yul\":563:564   */\n      dup1\n        /* \"#utility.yul\":556:568   */\n      revert\n        /* \"#utility.yul\":580:697   */\n    tag_18:\n        /* \"#utility.yul\":689:690   */\n      0x00\n        /* \"#utility.yul\":686:687   */\n      dup1\n        /* \"#utility.yul\":679:691   */\n      revert\n        /* \"#utility.yul\":717:1270   */\n    tag_19:\n        /* \"#utility.yul\":775:783   */\n      0x00\n        /* \"#utility.yul\":785:791   */\n      dup1\n        /* \"#utility.yul\":835:838   */\n      dup4\n        /* \"#utility.yul\":828:832   */\n      0x1f\n        /* \"#utility.yul\":820:826   */\n      dup5\n        /* \"#utility.yul\":816:833   */\n      add\n        /* \"#utility.yul\":812:839   */\n      slt\n        /* \"#utility.yul\":802:924   */\n      tag_33\n      jumpi\n        /* \"#utility.yul\":843:922   */\n      tag_34\n      tag_16\n      jump\t// in\n    tag_34:\n        /* \"#utility.yul\":802:924   */\n    tag_33:\n        /* \"#utility.yul\":956:962   */\n      dup3\n        /* \"#utility.yul\":943:963   */\n      calldataload\n        /* \"#utility.yul\":933:963   */\n      swap1\n      pop\n        /* \"#utility.yul\":986:1004   */\n      0xffffffffffffffff\n        /* \"#utility.yul\":978:984   */\n      dup2\n        /* \"#utility.yul\":975:1005   */\n      gt\n        /* \"#utility.yul\":972:1089   */\n      iszero\n      tag_35\n      jumpi\n        /* \"#utility.yul\":1008:1087   */\n      tag_36\n      tag_17\n      jump\t// in\n    tag_36:\n        /* \"#utility.yul\":972:1089   */\n    tag_35:\n        /* \"#utility.yul\":1122:1126   */\n      0x20\n        /* \"#utility.yul\":1114:1120   */\n      dup4\n        /* \"#utility.yul\":1110:1127   */\n      add\n        /* \"#utility.yul\":1098:1127   */\n      swap2\n      pop\n        /* \"#utility.yul\":1176:1179   */\n      dup4\n        /* \"#utility.yul\":1168:1172   */\n      0x01\n        /* \"#utility.yul\":1160:1166   */\n      dup3\n        /* \"#utility.yul\":1156:1173   */\n      mul\n        /* \"#utility.yul\":1146:1154   */\n      dup4\n        /* \"#utility.yul\":1142:1174   */\n      add\n        /* \"#utility.yul\":1139:1180   */\n      gt\n        /* \"#utility.yul\":1136:1264   */\n      iszero\n      tag_37\n      jumpi\n        /* \"#utility.yul\":1183:1262   */\n      tag_38\n      tag_18\n      jump\t// in\n    tag_38:\n        /* \"#utility.yul\":1136:1264   */\n    tag_37:\n        /* \"#utility.yul\":717:1270   */\n      swap3\n      pop\n      swap3\n      swap1\n      pop\n      jump\t// out\n        /* \"#utility.yul\":1276:1805   */\n    tag_6:\n        /* \"#utility.yul\":1347:1353   */\n      0x00\n        /* \"#utility.yul\":1355:1361   */\n      dup1\n        /* \"#utility.yul\":1404:1406   */\n      0x20\n        /* \"#utility.yul\":1392:1401   */\n      dup4\n        /* \"#utility.yul\":1383:1390   */\n      dup6\n        /* \"#utility.yul\":1379:1402   */\n      sub\n        /* \"#utility.yul\":1375:1407   */\n      slt\n        /* \"#utility.yul\":1372:1491   */\n      iszero\n      tag_40\n      jumpi\n        /* \"#utility.yul\":1410:1489   */\n      tag_41\n      tag_14\n      jump\t// in\n    tag_41:\n        /* \"#utility.yul\":1372:1491   */\n    tag_40:\n        /* \"#utility.yul\":1558:1559   */\n      0x00\n        /* \"#utility.yul\":1547:1556   */\n      dup4\n        /* \"#utility.yul\":1543:1560   */\n      add\n        /* \"#utility.yul\":1530:1561   */\n      calldataload\n        /* \"#utility.yul\":1588:1606   */\n      0xffffffffffffffff\n        /* \"#utility.yul\":1580:1586   */\n      dup2\n        /* \"#utility.yul\":1577:1607   */\n      gt\n        /* \"#utility.yul\":1574:1691   */\n      iszero\n      tag_42\n      jumpi\n        /* \"#utility.yul\":1610:1689   */\n      tag_43\n      tag_15\n      jump\t// in\n    tag_43:\n        /* \"#utility.yul\":1574:1691   */\n    tag_42:\n        /* \"#utility.yul\":1723:1788   */\n      tag_44\n        /* \"#utility.yul\":1780:1787   */\n      dup6\n        /* \"#utility.yul\":1771:1777   */\n      dup3\n        /* \"#utility.yul\":1760:1769   */\n      dup7\n        /* \"#utility.yul\":1756:1778   */\n      add\n        /* \"#utility.yul\":1723:1788   */\n      tag_19\n      jump\t// in\n    tag_44:\n        /* \"#utility.yul\":1705:1788   */\n      swap3\n      pop\n      swap3\n      pop\n        /* \"#utility.yul\":1501:1798   */\n      pop\n        /* \"#utility.yul\":1276:1805   */\n      swap3\n      pop\n      swap3\n      swap1\n      pop\n      jump\t// out\n        /* \"#utility.yul\":1811:1960   */\n    tag_20:\n        /* \"#utility.yul\":1847:1854   */\n      0x00\n        /* \"#utility.yul\":1887:1953   */\n      0xffffffff00000000000000000000000000000000000000000000000000000000\n        /* \"#utility.yul\":1880:1885   */\n      dup3\n        /* \"#utility.yul\":1876:1954   */\n      and\n        /* \"#utility.yul\":1865:1954   */\n      swap1\n      pop\n        /* \"#utility.yul\":1811:1960   */\n      swap2\n      swap1\n      pop\n      jump\t// out\n        /* \"#utility.yul\":1966:2081   */\n    tag_21:\n        /* \"#utility.yul\":2051:2074   */\n      tag_47\n        /* \"#utility.yul\":2068:2073   */\n      dup2\n        /* \"#utility.yul\":2051:2074   */\n      tag_20\n      jump\t// in\n    tag_47:\n        /* \"#utility.yul\":2046:2049   */\n      dup3\n        /* \"#utility.yul\":2039:2075   */\n      mstore\n        /* \"#utility.yul\":1966:2081   */\n      pop\n      pop\n      jump\t// out\n        /* \"#utility.yul\":2087:2305   */\n    tag_9:\n        /* \"#utility.yul\":2178:2182   */\n      0x00\n        /* \"#utility.yul\":2216:2218   */\n      0x20\n        /* \"#utility.yul\":2205:2214   */\n      dup3\n        /* \"#utility.yul\":2201:2219   */\n      add\n        /* \"#utility.yul\":2193:2219   */\n      swap1\n      pop\n        /* \"#utility.yul\":2229:2298   */\n      tag_49\n        /* \"#utility.yul\":2295:2296   */\n      0x00\n        /* \"#utility.yul\":2284:2293   */\n      dup4\n        /* \"#utility.yul\":2280:2297   */\n      add\n        /* \"#utility.yul\":2271:2277   */\n      dup5\n        /* \"#utility.yul\":2229:2298   */\n      tag_21\n      jump\t// in\n    tag_49:\n        /* \"#utility.yul\":2087:2305   */\n      swap3\n      swap2\n      pop\n      pop\n      jump\t// out\n        /* \"#utility.yul\":2311:2458   */\n    tag_22:\n        /* \"#utility.yul\":2412:2423   */\n      0x00\n        /* \"#utility.yul\":2449:2452   */\n      dup2\n        /* \"#utility.yul\":2434:2452   */\n      swap1\n      pop\n        /* \"#utility.yul\":2311:2458   */\n      swap3\n      swap2\n      pop\n      pop\n      jump\t// out\n        /* \"#utility.yul\":2464:2610   */\n    tag_23:\n        /* \"#utility.yul\":2561:2567   */\n      dup3\n        /* \"#utility.yul\":2556:2559   */\n      dup2\n        /* \"#utility.yul\":2551:2554   */\n      dup4\n        /* \"#utility.yul\":2538:2568   */\n      calldatacopy\n        /* \"#utility.yul\":2602:2603   */\n      0x00\n        /* \"#utility.yul\":2593:2599   */\n      dup4\n        /* \"#utility.yul\":2588:2591   */\n      dup4\n        /* \"#utility.yul\":2584:2600   */\n      add\n        /* \"#utility.yul\":2577:2604   */\n      mstore\n        /* \"#utility.yul\":2464:2610   */\n      pop\n      pop\n      pop\n      jump\t// out\n        /* \"#utility.yul\":2638:2965   */\n    tag_24:\n        /* \"#utility.yul\":2752:2755   */\n      0x00\n        /* \"#utility.yul\":2773:2861   */\n      tag_53\n        /* \"#utility.yul\":2854:2860   */\n      dup4\n        /* \"#utility.yul\":2849:2852   */\n      dup6\n        /* \"#utility.yul\":2773:2861   */\n      tag_22\n      jump\t// in\n    tag_53:\n        /* \"#utility.yul\":2766:2861   */\n      swap4\n      pop\n        /* \"#utility.yul\":2871:2927   */\n      tag_54\n        /* \"#utility.yul\":2920:2926   */\n      dup4\n        /* \"#utility.yul\":2915:2918   */\n      dup6\n        /* \"#utility.yul\":2908:2913   */\n      dup5\n        /* \"#utility.yul\":2871:2927   */\n      tag_23\n      jump\t// in\n    tag_54:\n        /* \"#utility.yul\":2952:2958   */\n      dup3\n        /* \"#utility.yul\":2947:2950   */\n      dup5\n        /* \"#utility.yul\":2943:2959   */\n      add\n        /* \"#utility.yul\":2936:2959   */\n      swap1\n      pop\n        /* \"#utility.yul\":2638:2965   */\n      swap4\n      swap3\n      pop\n      pop\n      pop\n      jump\t// out\n        /* \"#utility.yul\":2971:3262   */\n    tag_12:\n        /* \"#utility.yul\":3111:3114   */\n      0x00\n        /* \"#utility.yul\":3133:3236   */\n      tag_56\n        /* \"#utility.yul\":3232:3235   */\n      dup3\n        /* \"#utility.yul\":3223:3229   */\n      dup5\n        /* \"#utility.yul\":3215:3221   */\n      dup7\n        /* \"#utility.yul\":3133:3236   */\n      tag_24\n      jump\t// in\n    tag_56:\n        /* \"#utility.yul\":3126:3236   */\n      swap2\n      pop\n        /* \"#utility.yul\":3253:3256   */\n      dup2\n        /* \"#utility.yul\":3246:3256   */\n      swap1\n      pop\n        /* \"#utility.yul\":2971:3262   */\n      swap4\n      swap3\n      pop\n      pop\n      pop\n      jump\t// out\n\n    auxdata: 0xa2646970667358221220276839998667111ab0be82dc3359416330ba464c6d3de572136aad5aa39aed0a64736f6c63430008120033\n}\n",
				"bytecode": {
					"linkReferences": {},
					"object": "608060405234801561001057600080fd5b50610222806100206000396000f3fe608060405234801561001057600080fd5b506004361061002b5760003560e01c806380a003ff14610030575b600080fd5b61004a600480360381019061004591906100f1565b610060565b6040516100579190610179565b60405180910390f35b600082826040516100729291906101d3565b6040518091039020905092915050565b600080fd5b600080fd5b600080fd5b600080fd5b600080fd5b60008083601f8401126100b1576100b061008c565b5b8235905067ffffffffffffffff8111156100ce576100cd610091565b5b6020830191508360018202830111156100ea576100e9610096565b5b9250929050565b6000806020838503121561010857610107610082565b5b600083013567ffffffffffffffff81111561012657610125610087565b5b6101328582860161009b565b92509250509250929050565b60007fffffffff0000000000000000000000000000000000000000000000000000000082169050919050565b6101738161013e565b82525050565b600060208201905061018e600083018461016a565b92915050565b600081905092915050565b82818337600083830152505050565b60006101ba8385610194565b93506101c783858461019f565b82840190509392505050565b60006101e08284866101ae565b9150819050939250505056fea2646970667358221220276839998667111ab0be82dc3359416330ba464c6d3de572136aad5aa39aed0a64736f6c63430008120033",
					"opcodes": "PUSH1 0x80 PUSH1 0x40 MSTORE CALLVALUE DUP1 ISZERO PUSH2 0x10 JUMPI PUSH1 0x0 DUP1 REVERT JUMPDEST POP PUSH2 0x222 DUP1 PUSH2 0x20 PUSH1 0x0 CODECOPY PUSH1 0x0 RETURN INVALID PUSH1 0x80 PUSH1 0x40 MSTORE CALLVALUE DUP1 ISZERO PUSH2 0x10 JUMPI PUSH1 0x0 DUP1 REVERT JUMPDEST POP PUSH1 0x4 CALLDATASIZE LT PUSH2 0x2B JUMPI PUSH1 0x0 CALLDATALOAD PUSH1 0xE0 SHR DUP1 PUSH4 0x80A003FF EQ PUSH2 0x30 JUMPI JUMPDEST PUSH1 0x0 DUP1 REVERT JUMPDEST PUSH2 0x4A PUSH1 0x4 DUP1 CALLDATASIZE SUB DUP2 ADD SWAP1 PUSH2 0x45 SWAP2 SWAP1 PUSH2 0xF1 JUMP JUMPDEST PUSH2 0x60 JUMP JUMPDEST PUSH1 0x40 MLOAD PUSH2 0x57 SWAP2 SWAP1 PUSH2 0x179 JUMP JUMPDEST PUSH1 0x40 MLOAD DUP1 SWAP2 SUB SWAP1 RETURN JUMPDEST PUSH1 0x0 DUP3 DUP3 PUSH1 0x40 MLOAD PUSH2 0x72 SWAP3 SWAP2 SWAP1 PUSH2 0x1D3 JUMP JUMPDEST PUSH1 0x40 MLOAD DUP1 SWAP2 SUB SWAP1 KECCAK256 SWAP1 POP SWAP3 SWAP2 POP POP JUMP JUMPDEST PUSH1 0x0 DUP1 REVERT JUMPDEST PUSH1 0x0 DUP1 REVERT JUMPDEST PUSH1 0x0 DUP1 REVERT JUMPDEST PUSH1 0x0 DUP1 REVERT JUMPDEST PUSH1 0x0 DUP1 REVERT JUMPDEST PUSH1 0x0 DUP1 DUP4 PUSH1 0x1F DUP5 ADD SLT PUSH2 0xB1 JUMPI PUSH2 0xB0 PUSH2 0x8C JUMP JUMPDEST JUMPDEST DUP3 CALLDATALOAD SWAP1 POP PUSH8 0xFFFFFFFFFFFFFFFF DUP2 GT ISZERO PUSH2 0xCE JUMPI PUSH2 0xCD PUSH2 0x91 JUMP JUMPDEST JUMPDEST PUSH1 0x20 DUP4 ADD SWAP2 POP DUP4 PUSH1 0x1 DUP3 MUL DUP4 ADD GT ISZERO PUSH2 0xEA JUMPI PUSH2 0xE9 PUSH2 0x96 JUMP JUMPDEST JUMPDEST SWAP3 POP SWAP3 SWAP1 POP JUMP JUMPDEST PUSH1 0x0 DUP1 PUSH1 0x20 DUP4 DUP6 SUB SLT ISZERO PUSH2 0x108 JUMPI PUSH2 0x107 PUSH2 0x82 JUMP JUMPDEST JUMPDEST PUSH1 0x0 DUP4 ADD CALLDATALOAD PUSH8 0xFFFFFFFFFFFFFFFF DUP2 GT ISZERO PUSH2 0x126 JUMPI PUSH2 0x125 PUSH2 0x87 JUMP JUMPDEST JUMPDEST PUSH2 0x132 DUP6 DUP3 DUP7 ADD PUSH2 0x9B JUMP JUMPDEST SWAP3 POP SWAP3 POP POP SWAP3 POP SWAP3 SWAP1 POP JUMP JUMPDEST PUSH1 0x0 PUSH32 0xFFFFFFFF00000000000000000000000000000000000000000000000000000000 DUP3 AND SWAP1 POP SWAP2 SWAP1 POP JUMP JUMPDEST PUSH2 0x173 DUP2 PUSH2 0x13E JUMP JUMPDEST DUP3 MSTORE POP POP JUMP JUMPDEST PUSH1 0x0 PUSH1 0x20 DUP3 ADD SWAP1 POP PUSH2 0x18E PUSH1 0x0 DUP4 ADD DUP5 PUSH2 0x16A JUMP JUMPDEST SWAP3 SWAP2 POP POP JUMP JUMPDEST PUSH1 0x0 DUP2 SWAP1 POP SWAP3 SWAP2 POP POP JUMP JUMPDEST DUP3 DUP2 DUP4 CALLDATACOPY PUSH1 0x0 DUP4 DUP4 ADD MSTORE POP POP POP JUMP JUMPDEST PUSH1 0x0 PUSH2 0x1BA DUP4 DUP6 PUSH2 0x194 JUMP JUMPDEST SWAP4 POP PUSH2 0x1C7 DUP4 DUP6 DUP5 PUSH2 0x19F JUMP JUMPDEST DUP3 DUP5 ADD SWAP1 POP SWAP4 SWAP3 POP POP POP JUMP JUMPDEST PUSH1 0x0 PUSH2 0x1E0 DUP3 DUP5 DUP7 PUSH2 0x1AE JUMP JUMPDEST SWAP2 POP DUP2 SWAP1 POP SWAP4 SWAP3 POP POP POP JUMP INVALID LOG2 PUSH5 0x6970667358 0x22 SLT KECCAK256 0x27 PUSH9 0x39998667111AB0BE82 0xDC CALLER MSIZE COINBASE PUSH4 0x30BA464C PUSH14 0x3DE572136AAD5AA39AED0A64736F PUSH13 0x63430008120033000000000000 "
				},
				"gasEstimates": {
					"creation": {
						"codeDepositCost": "109200",
						"executionCost": "159",
						"totalCost": "109359"
					},
					"external": {
						"getSelector(string)": "infinite"
					}
				},
				"methodIdentifiers": {
					"getSelector(string)": "80a003ff"
				}
			},
			"storageLayout": {
				"storage": [],
				"types": null
			},
			"userdoc": {
				"kind": "user",
				"methods": {},
				"version": 1
			}
		}
	}
}