{
	"week6/SaveGas.sol": {
		"SaveGas": {
			"abi": [
				{
					"inputs": [],
					"name": "cache",
					"outputs": [
						{
							"internalType": "uint256",
							"name": "",
							"type": "uint256"
						}
					],
					"stateMutability": "view",
					"type": "function"
				},
				{
					"inputs": [],
					"name": "n",
					"outputs": [
						{
							"internalType": "uint256",
							"name": "",
							"type": "uint256"
						}
					],
					"stateMutability": "view",
					"type": "function"
				},
				{
					"inputs": [],
					"name": "noCache",
					"outputs": [
						{
							"internalType": "uint256",
							"name": "",
							"type": "uint256"
						}
					],
					"stateMutability": "view",
					"type": "function"
				}
			],
			"devdoc": {
				"kind": "dev",
				"methods": {},
				"version": 1
			},
			"evm": {
				"assembly": "    /* \"week6/SaveGas.sol\":136:683  contract SaveGas {... */\n  mstore(0x40, 0x80)\n    /* \"week6/SaveGas.sol\":175:176  5 */\n  0x05\n    /* \"week6/SaveGas.sol\":159:176  uint public n = 5 */\n  0x00\n  sstore\n    /* \"week6/SaveGas.sol\":136:683  contract SaveGas {... */\n  callvalue\n  dup1\n  iszero\n  tag_1\n  jumpi\n  0x00\n  dup1\n  revert\ntag_1:\n  pop\n  dataSize(sub_0)\n  dup1\n  dataOffset(sub_0)\n  0x00\n  codecopy\n  0x00\n  return\nstop\n\nsub_0: assembly {\n        /* \"week6/SaveGas.sol\":136:683  contract SaveGas {... */\n      mstore(0x40, 0x80)\n      callvalue\n      dup1\n      iszero\n      tag_1\n      jumpi\n      0x00\n      dup1\n      revert\n    tag_1:\n      pop\n      jumpi(tag_2, lt(calldatasize, 0x04))\n      shr(0xe0, calldataload(0x00))\n      dup1\n      0x2e52d606\n      eq\n      tag_3\n      jumpi\n      dup1\n      0x60c7d295\n      eq\n      tag_4\n      jumpi\n      dup1\n      0xe3269bbe\n      eq\n      tag_5\n      jumpi\n    tag_2:\n      0x00\n      dup1\n      revert\n        /* \"week6/SaveGas.sol\":159:176  uint public n = 5 */\n    tag_3:\n      tag_6\n      tag_7\n      jump\t// in\n    tag_6:\n      mload(0x40)\n      tag_8\n      swap2\n      swap1\n      tag_9\n      jump\t// in\n    tag_8:\n      mload(0x40)\n      dup1\n      swap2\n      sub\n      swap1\n      return\n        /* \"week6/SaveGas.sol\":498:681  function cache() external view returns (uint) {... */\n    tag_4:\n      tag_10\n      tag_11\n      jump\t// in\n    tag_10:\n      mload(0x40)\n      tag_12\n      swap2\n      swap1\n      tag_9\n      jump\t// in\n    tag_12:\n      mload(0x40)\n      dup1\n      swap2\n      sub\n      swap1\n      return\n        /* \"week6/SaveGas.sol\":247:410  function noCache() external view returns (uint) {... */\n    tag_5:\n      tag_13\n      tag_14\n      jump\t// in\n    tag_13:\n      mload(0x40)\n      tag_15\n      swap2\n      swap1\n      tag_9\n      jump\t// in\n    tag_15:\n      mload(0x40)\n      dup1\n      swap2\n      sub\n      swap1\n      return\n        /* \"week6/SaveGas.sol\":159:176  uint public n = 5 */\n    tag_7:\n      sload(0x00)\n      dup2\n      jump\t// out\n        /* \"week6/SaveGas.sol\":498:681  function cache() external view returns (uint) {... */\n    tag_11:\n        /* \"week6/SaveGas.sol\":538:542  uint */\n      0x00\n        /* \"week6/SaveGas.sol\":554:560  uint s */\n      dup1\n        /* \"week6/SaveGas.sol\":563:564  0 */\n      0x00\n        /* \"week6/SaveGas.sol\":554:564  uint s = 0 */\n      swap1\n      pop\n        /* \"week6/SaveGas.sol\":574:581  uint _n */\n      0x00\n        /* \"week6/SaveGas.sol\":584:585  n */\n      dup1\n      sload\n        /* \"week6/SaveGas.sol\":574:585  uint _n = n */\n      swap1\n      pop\n        /* \"week6/SaveGas.sol\":600:606  uint i */\n      0x00\n        /* \"week6/SaveGas.sol\":595:656  for (uint i = 0; i < _n; i++) {... */\n    tag_17:\n        /* \"week6/SaveGas.sol\":616:618  _n */\n      dup2\n        /* \"week6/SaveGas.sol\":612:613  i */\n      dup2\n        /* \"week6/SaveGas.sol\":612:618  i < _n */\n      lt\n        /* \"week6/SaveGas.sol\":595:656  for (uint i = 0; i < _n; i++) {... */\n      iszero\n      tag_18\n      jumpi\n        /* \"week6/SaveGas.sol\":644:645  1 */\n      0x01\n        /* \"week6/SaveGas.sol\":639:645  s += 1 */\n      dup4\n      tag_20\n      swap2\n      swap1\n      tag_21\n      jump\t// in\n    tag_20:\n      swap3\n      pop\n        /* \"week6/SaveGas.sol\":620:623  i++ */\n      dup1\n      dup1\n      tag_22\n      swap1\n      tag_23\n      jump\t// in\n    tag_22:\n      swap2\n      pop\n      pop\n        /* \"week6/SaveGas.sol\":595:656  for (uint i = 0; i < _n; i++) {... */\n      jump(tag_17)\n    tag_18:\n      pop\n        /* \"week6/SaveGas.sol\":673:674  s */\n      dup2\n        /* \"week6/SaveGas.sol\":666:674  return s */\n      swap3\n      pop\n      pop\n      pop\n        /* \"week6/SaveGas.sol\":498:681  function cache() external view returns (uint) {... */\n      swap1\n      jump\t// out\n        /* \"week6/SaveGas.sol\":247:410  function noCache() external view returns (uint) {... */\n    tag_14:\n        /* \"week6/SaveGas.sol\":289:293  uint */\n      0x00\n        /* \"week6/SaveGas.sol\":305:311  uint s */\n      dup1\n        /* \"week6/SaveGas.sol\":314:315  0 */\n      0x00\n        /* \"week6/SaveGas.sol\":305:315  uint s = 0 */\n      swap1\n      pop\n        /* \"week6/SaveGas.sol\":330:336  uint i */\n      0x00\n        /* \"week6/SaveGas.sol\":325:385  for (uint i = 0; i < n; i++) {... */\n    tag_25:\n        /* \"week6/SaveGas.sol\":346:347  n */\n      sload(0x00)\n        /* \"week6/SaveGas.sol\":342:343  i */\n      dup2\n        /* \"week6/SaveGas.sol\":342:347  i < n */\n      lt\n        /* \"week6/SaveGas.sol\":325:385  for (uint i = 0; i < n; i++) {... */\n      iszero\n      tag_26\n      jumpi\n        /* \"week6/SaveGas.sol\":373:374  1 */\n      0x01\n        /* \"week6/SaveGas.sol\":368:374  s += 1 */\n      dup3\n      tag_28\n      swap2\n      swap1\n      tag_21\n      jump\t// in\n    tag_28:\n      swap2\n      pop\n        /* \"week6/SaveGas.sol\":349:352  i++ */\n      dup1\n      dup1\n      tag_29\n      swap1\n      tag_23\n      jump\t// in\n    tag_29:\n      swap2\n      pop\n      pop\n        /* \"week6/SaveGas.sol\":325:385  for (uint i = 0; i < n; i++) {... */\n      jump(tag_25)\n    tag_26:\n      pop\n        /* \"week6/SaveGas.sol\":402:403  s */\n      dup1\n        /* \"week6/SaveGas.sol\":395:403  return s */\n      swap2\n      pop\n      pop\n        /* \"week6/SaveGas.sol\":247:410  function noCache() external view returns (uint) {... */\n      swap1\n      jump\t// out\n        /* \"#utility.yul\":7:84   */\n    tag_30:\n        /* \"#utility.yul\":44:51   */\n      0x00\n        /* \"#utility.yul\":73:78   */\n      dup2\n        /* \"#utility.yul\":62:78   */\n      swap1\n      pop\n        /* \"#utility.yul\":7:84   */\n      swap2\n      swap1\n      pop\n      jump\t// out\n        /* \"#utility.yul\":90:208   */\n    tag_31:\n        /* \"#utility.yul\":177:201   */\n      tag_36\n        /* \"#utility.yul\":195:200   */\n      dup2\n        /* \"#utility.yul\":177:201   */\n      tag_30\n      jump\t// in\n    tag_36:\n        /* \"#utility.yul\":172:175   */\n      dup3\n        /* \"#utility.yul\":165:202   */\n      mstore\n        /* \"#utility.yul\":90:208   */\n      pop\n      pop\n      jump\t// out\n        /* \"#utility.yul\":214:436   */\n    tag_9:\n        /* \"#utility.yul\":307:311   */\n      0x00\n        /* \"#utility.yul\":345:347   */\n      0x20\n        /* \"#utility.yul\":334:343   */\n      dup3\n        /* \"#utility.yul\":330:348   */\n      add\n        /* \"#utility.yul\":322:348   */\n      swap1\n      pop\n        /* \"#utility.yul\":358:429   */\n      tag_38\n        /* \"#utility.yul\":426:427   */\n      0x00\n        /* \"#utility.yul\":415:424   */\n      dup4\n        /* \"#utility.yul\":411:428   */\n      add\n        /* \"#utility.yul\":402:408   */\n      dup5\n        /* \"#utility.yul\":358:429   */\n      tag_31\n      jump\t// in\n    tag_38:\n        /* \"#utility.yul\":214:436   */\n      swap3\n      swap2\n      pop\n      pop\n      jump\t// out\n        /* \"#utility.yul\":442:622   */\n    tag_32:\n        /* \"#utility.yul\":490:567   */\n      0x4e487b7100000000000000000000000000000000000000000000000000000000\n        /* \"#utility.yul\":487:488   */\n      0x00\n        /* \"#utility.yul\":480:568   */\n      mstore\n        /* \"#utility.yul\":587:591   */\n      0x11\n        /* \"#utility.yul\":584:585   */\n      0x04\n        /* \"#utility.yul\":577:592   */\n      mstore\n        /* \"#utility.yul\":611:615   */\n      0x24\n        /* \"#utility.yul\":608:609   */\n      0x00\n        /* \"#utility.yul\":601:616   */\n      revert\n        /* \"#utility.yul\":628:819   */\n    tag_21:\n        /* \"#utility.yul\":668:671   */\n      0x00\n        /* \"#utility.yul\":687:707   */\n      tag_41\n        /* \"#utility.yul\":705:706   */\n      dup3\n        /* \"#utility.yul\":687:707   */\n      tag_30\n      jump\t// in\n    tag_41:\n        /* \"#utility.yul\":682:707   */\n      swap2\n      pop\n        /* \"#utility.yul\":721:741   */\n      tag_42\n        /* \"#utility.yul\":739:740   */\n      dup4\n        /* \"#utility.yul\":721:741   */\n      tag_30\n      jump\t// in\n    tag_42:\n        /* \"#utility.yul\":716:741   */\n      swap3\n      pop\n        /* \"#utility.yul\":764:765   */\n      dup3\n        /* \"#utility.yul\":761:762   */\n      dup3\n        /* \"#utility.yul\":757:766   */\n      add\n        /* \"#utility.yul\":750:766   */\n      swap1\n      pop\n        /* \"#utility.yul\":785:788   */\n      dup1\n        /* \"#utility.yul\":782:783   */\n      dup3\n        /* \"#utility.yul\":779:789   */\n      gt\n        /* \"#utility.yul\":776:812   */\n      iszero\n      tag_43\n      jumpi\n        /* \"#utility.yul\":792:810   */\n      tag_44\n      tag_32\n      jump\t// in\n    tag_44:\n        /* \"#utility.yul\":776:812   */\n    tag_43:\n        /* \"#utility.yul\":628:819   */\n      swap3\n      swap2\n      pop\n      pop\n      jump\t// out\n        /* \"#utility.yul\":825:1058   */\n    tag_23:\n        /* \"#utility.yul\":864:867   */\n      0x00\n        /* \"#utility.yul\":887:911   */\n      tag_46\n        /* \"#utility.yul\":905:910   */\n      dup3\n        /* \"#utility.yul\":887:911   */\n      tag_30\n      jump\t// in\n    tag_46:\n        /* \"#utility.yul\":878:911   */\n      swap2\n      pop\n        /* \"#utility.yul\":933:999   */\n      0xffffffffffffffffffffffffffffffffffffffffffffffffffffffffffffffff\n        /* \"#utility.yul\":926:931   */\n      dup3\n        /* \"#utility.yul\":923:1000   */\n      sub\n        /* \"#utility.yul\":920:1023   */\n      tag_47\n      jumpi\n        /* \"#utility.yul\":1003:1021   */\n      tag_48\n      tag_32\n      jump\t// in\n    tag_48:\n        /* \"#utility.yul\":920:1023   */\n    tag_47:\n        /* \"#utility.yul\":1050:1051   */\n      0x01\n        /* \"#utility.yul\":1043:1048   */\n      dup3\n        /* \"#utility.yul\":1039:1052   */\n      add\n        /* \"#utility.yul\":1032:1052   */\n      swap1\n      pop\n        /* \"#utility.yul\":825:1058   */\n      swap2\n      swap1\n      pop\n      jump\t// out\n\n    auxdata: 0xa264697066735822122017accf9374a55faa0f68ef235c47e45f980a4a4e457ecadabcf8c9cf7c1495dc64736f6c63430008120033\n}\n",
				"bytecode": {
					"linkReferences": {},
					"object": "6080604052600560005534801561001557600080fd5b5061023c806100256000396000f3fe608060405234801561001057600080fd5b50600436106100415760003560e01c80632e52d6061461004657806360c7d29514610064578063e3269bbe14610082575b600080fd5b61004e6100a0565b60405161005b9190610140565b60405180910390f35b61006c6100a6565b6040516100799190610140565b60405180910390f35b61008a6100e9565b6040516100979190610140565b60405180910390f35b60005481565b6000806000905060008054905060005b818110156100e0576001836100cb919061018a565b925080806100d8906101be565b9150506100b6565b50819250505090565b6000806000905060005b60005481101561011f5760018261010a919061018a565b91508080610117906101be565b9150506100f3565b508091505090565b6000819050919050565b61013a81610127565b82525050565b60006020820190506101556000830184610131565b92915050565b7f4e487b7100000000000000000000000000000000000000000000000000000000600052601160045260246000fd5b600061019582610127565b91506101a083610127565b92508282019050808211156101b8576101b761015b565b5b92915050565b60006101c982610127565b91507fffffffffffffffffffffffffffffffffffffffffffffffffffffffffffffffff82036101fb576101fa61015b565b5b60018201905091905056fea264697066735822122017accf9374a55faa0f68ef235c47e45f980a4a4e457ecadabcf8c9cf7c1495dc64736f6c63430008120033",
					"opcodes": "PUSH1 0x80 PUSH1 0x40 MSTORE PUSH1 0x5 PUSH1 0x0 SSTORE CALLVALUE DUP1 ISZERO PUSH2 0x15 JUMPI PUSH1 0x0 DUP1 REVERT JUMPDEST POP PUSH2 0x23C DUP1 PUSH2 0x25 PUSH1 0x0 CODECOPY PUSH1 0x0 RETURN INVALID PUSH1 0x80 PUSH1 0x40 MSTORE CALLVALUE DUP1 ISZERO PUSH2 0x10 JUMPI PUSH1 0x0 DUP1 REVERT JUMPDEST POP PUSH1 0x4 CALLDATASIZE LT PUSH2 0x41 JUMPI PUSH1 0x0 CALLDATALOAD PUSH1 0xE0 SHR DUP1 PUSH4 0x2E52D606 EQ PUSH2 0x46 JUMPI DUP1 PUSH4 0x60C7D295 EQ PUSH2 0x64 JUMPI DUP1 PUSH4 0xE3269BBE EQ PUSH2 0x82 JUMPI JUMPDEST PUSH1 0x0 DUP1 REVERT JUMPDEST PUSH2 0x4E PUSH2 0xA0 JUMP JUMPDEST PUSH1 0x40 MLOAD PUSH2 0x5B SWAP2 SWAP1 PUSH2 0x140 JUMP JUMPDEST PUSH1 0x40 MLOAD DUP1 SWAP2 SUB SWAP1 RETURN JUMPDEST PUSH2 0x6C PUSH2 0xA6 JUMP JUMPDEST PUSH1 0x40 MLOAD PUSH2 0x79 SWAP2 SWAP1 PUSH2 0x140 JUMP JUMPDEST PUSH1 0x40 MLOAD DUP1 SWAP2 SUB SWAP1 RETURN JUMPDEST PUSH2 0x8A PUSH2 0xE9 JUMP JUMPDEST PUSH1 0x40 MLOAD PUSH2 0x97 SWAP2 SWAP1 PUSH2 0x140 JUMP JUMPDEST PUSH1 0x40 MLOAD DUP1 SWAP2 SUB SWAP1 RETURN JUMPDEST PUSH1 0x0 SLOAD DUP2 JUMP JUMPDEST PUSH1 0x0 DUP1 PUSH1 0x0 SWAP1 POP PUSH1 0x0 DUP1 SLOAD SWAP1 POP PUSH1 0x0 JUMPDEST DUP2 DUP2 LT ISZERO PUSH2 0xE0 JUMPI PUSH1 0x1 DUP4 PUSH2 0xCB SWAP2 SWAP1 PUSH2 0x18A JUMP JUMPDEST SWAP3 POP DUP1 DUP1 PUSH2 0xD8 SWAP1 PUSH2 0x1BE JUMP JUMPDEST SWAP2 POP POP PUSH2 0xB6 JUMP JUMPDEST POP DUP2 SWAP3 POP POP POP SWAP1 JUMP JUMPDEST PUSH1 0x0 DUP1 PUSH1 0x0 SWAP1 POP PUSH1 0x0 JUMPDEST PUSH1 0x0 SLOAD DUP2 LT ISZERO PUSH2 0x11F JUMPI PUSH1 0x1 DUP3 PUSH2 0x10A SWAP2 SWAP1 PUSH2 0x18A JUMP JUMPDEST SWAP2 POP DUP1 DUP1 PUSH2 0x117 SWAP1 PUSH2 0x1BE JUMP JUMPDEST SWAP2 POP POP PUSH2 0xF3 JUMP JUMPDEST POP DUP1 SWAP2 POP POP SWAP1 JUMP JUMPDEST PUSH1 0x0 DUP2 SWAP1 POP SWAP2 SWAP1 POP JUMP JUMPDEST PUSH2 0x13A DUP2 PUSH2 0x127 JUMP JUMPDEST DUP3 MSTORE POP POP JUMP JUMPDEST PUSH1 0x0 PUSH1 0x20 DUP3 ADD SWAP1 POP PUSH2 0x155 PUSH1 0x0 DUP4 ADD DUP5 PUSH2 0x131 JUMP JUMPDEST SWAP3 SWAP2 POP POP JUMP JUMPDEST PUSH32 0x4E487B7100000000000000000000000000000000000000000000000000000000 PUSH1 0x0 MSTORE PUSH1 0x11 PUSH1 0x4 MSTORE PUSH1 0x24 PUSH1 0x0 REVERT JUMPDEST PUSH1 0x0 PUSH2 0x195 DUP3 PUSH2 0x127 JUMP JUMPDEST SWAP2 POP PUSH2 0x1A0 DUP4 PUSH2 0x127 JUMP JUMPDEST SWAP3 POP DUP3 DUP3 ADD SWAP1 POP DUP1 DUP3 GT ISZERO PUSH2 0x1B8 JUMPI PUSH2 0x1B7 PUSH2 0x15B JUMP JUMPDEST JUMPDEST SWAP3 SWAP2 POP POP JUMP JUMPDEST PUSH1 0x0 PUSH2 0x1C9 DUP3 PUSH2 0x127 JUMP JUMPDEST SWAP2 POP PUSH32 0xFFFFFFFFFFFFFFFFFFFFFFFFFFFFFFFFFFFFFFFFFFFFFFFFFFFFFFFFFFFFFFFF DUP3 SUB PUSH2 0x1FB JUMPI PUSH2 0x1FA PUSH2 0x15B JUMP JUMPDEST JUMPDEST PUSH1 0x1 DUP3 ADD SWAP1 POP SWAP2 SWAP1 POP JUMP INVALID LOG2 PUSH5 0x6970667358 0x22 SLT KECCAK256 OR 0xAC 0xCF SWAP4 PUSH21 0xA55FAA0F68EF235C47E45F980A4A4E457ECADABCF8 0xC9 0xCF PUSH29 0x1495DC64736F6C63430008120033000000000000000000000000000000 "
				},
				"gasEstimates": {
					"creation": {
						"codeDepositCost": "114400",
						"executionCost": "22265",
						"totalCost": "136665"
					},
					"external": {
						"cache()": "infinite",
						"n()": "2407",
						"noCache()": "infinite"
					}
				},
				"methodIdentifiers": {
					"cache()": "60c7d295",
					"n()": "2e52d606",
					"noCache()": "e3269bbe"
				}
			},
			"storageLayout": {
				"storage": [
					{
						"astId": 4,
						"contract": "week6/SaveGas.sol:SaveGas",
						"label": "n",
						"offset": 0,
						"slot": "0",
						"type": "t_uint256"
					}
				],
				"types": {
					"t_uint256": {
						"encoding": "inplace",
						"label": "uint256",
						"numberOfBytes": "32"
					}
				}
			},
			"userdoc": {
				"kind": "user",
				"methods": {},
				"version": 1
			}
		}
	}
}