{
	"week3/04_constants.sol": {
		"Constants": {
			"abi": [
				{
					"inputs": [],
					"name": "MY_ADDRESS",
					"outputs": [
						{
							"internalType": "address",
							"name": "",
							"type": "address"
						}
					],
					"stateMutability": "view",
					"type": "function"
				},
				{
					"inputs": [],
					"name": "MY_UINT",
					"outputs": [
						{
							"internalType": "uint256",
							"name": "",
							"type": "uint256"
						}
					],
					"stateMutability": "view",
					"type": "function"
				}
			],
			"devdoc": {
				"kind": "dev",
				"methods": {},
				"version": 1
			},
			"evm": {
				"assembly": "    /* \"week3/04_constants.sol\":75:222  contract Constants {... */\n  mstore(0x40, 0x80)\n  callvalue\n  dup1\n  iszero\n  tag_1\n  jumpi\n  0x00\n  dup1\n  revert\ntag_1:\n  pop\n  dataSize(sub_0)\n  dup1\n  dataOffset(sub_0)\n  0x00\n  codecopy\n  0x00\n  return\nstop\n\nsub_0: assembly {\n        /* \"week3/04_constants.sol\":75:222  contract Constants {... */\n      mstore(0x40, 0x80)\n      callvalue\n      dup1\n      iszero\n      tag_1\n      jumpi\n      0x00\n      dup1\n      revert\n    tag_1:\n      pop\n      jumpi(tag_2, lt(calldatasize, 0x04))\n      shr(0xe0, calldataload(0x00))\n      dup1\n      0x1f6649e3\n      eq\n      tag_3\n      jumpi\n      dup1\n      0x3a756cec\n      eq\n      tag_4\n      jumpi\n    tag_2:\n      0x00\n      dup1\n      revert\n        /* \"week3/04_constants.sol\":185:219  uint public constant MY_UINT = 123 */\n    tag_3:\n      tag_5\n      tag_6\n      jump\t// in\n    tag_5:\n      mload(0x40)\n      tag_7\n      swap2\n      swap1\n      tag_8\n      jump\t// in\n    tag_7:\n      mload(0x40)\n      dup1\n      swap2\n      sub\n      swap1\n      return\n        /* \"week3/04_constants.sol\":100:179  address public constant MY_ADDRESS = 0xAdC0fec4459b55Af7B615e1aA28F5BE9C50D6b06 */\n    tag_4:\n      tag_9\n      tag_10\n      jump\t// in\n    tag_9:\n      mload(0x40)\n      tag_11\n      swap2\n      swap1\n      tag_12\n      jump\t// in\n    tag_11:\n      mload(0x40)\n      dup1\n      swap2\n      sub\n      swap1\n      return\n        /* \"week3/04_constants.sol\":185:219  uint public constant MY_UINT = 123 */\n    tag_6:\n        /* \"week3/04_constants.sol\":216:219  123 */\n      0x7b\n        /* \"week3/04_constants.sol\":185:219  uint public constant MY_UINT = 123 */\n      dup2\n      jump\t// out\n        /* \"week3/04_constants.sol\":100:179  address public constant MY_ADDRESS = 0xAdC0fec4459b55Af7B615e1aA28F5BE9C50D6b06 */\n    tag_10:\n        /* \"week3/04_constants.sol\":137:179  0xAdC0fec4459b55Af7B615e1aA28F5BE9C50D6b06 */\n      0xadc0fec4459b55af7b615e1aa28f5be9c50d6b06\n        /* \"week3/04_constants.sol\":100:179  address public constant MY_ADDRESS = 0xAdC0fec4459b55Af7B615e1aA28F5BE9C50D6b06 */\n      dup2\n      jump\t// out\n        /* \"#utility.yul\":7:84   */\n    tag_13:\n        /* \"#utility.yul\":44:51   */\n      0x00\n        /* \"#utility.yul\":73:78   */\n      dup2\n        /* \"#utility.yul\":62:78   */\n      swap1\n      pop\n        /* \"#utility.yul\":7:84   */\n      swap2\n      swap1\n      pop\n      jump\t// out\n        /* \"#utility.yul\":90:208   */\n    tag_14:\n        /* \"#utility.yul\":177:201   */\n      tag_21\n        /* \"#utility.yul\":195:200   */\n      dup2\n        /* \"#utility.yul\":177:201   */\n      tag_13\n      jump\t// in\n    tag_21:\n        /* \"#utility.yul\":172:175   */\n      dup3\n        /* \"#utility.yul\":165:202   */\n      mstore\n        /* \"#utility.yul\":90:208   */\n      pop\n      pop\n      jump\t// out\n        /* \"#utility.yul\":214:436   */\n    tag_8:\n        /* \"#utility.yul\":307:311   */\n      0x00\n        /* \"#utility.yul\":345:347   */\n      0x20\n        /* \"#utility.yul\":334:343   */\n      dup3\n        /* \"#utility.yul\":330:348   */\n      add\n        /* \"#utility.yul\":322:348   */\n      swap1\n      pop\n        /* \"#utility.yul\":358:429   */\n      tag_23\n        /* \"#utility.yul\":426:427   */\n      0x00\n        /* \"#utility.yul\":415:424   */\n      dup4\n        /* \"#utility.yul\":411:428   */\n      add\n        /* \"#utility.yul\":402:408   */\n      dup5\n        /* \"#utility.yul\":358:429   */\n      tag_14\n      jump\t// in\n    tag_23:\n        /* \"#utility.yul\":214:436   */\n      swap3\n      swap2\n      pop\n      pop\n      jump\t// out\n        /* \"#utility.yul\":442:568   */\n    tag_15:\n        /* \"#utility.yul\":479:486   */\n      0x00\n        /* \"#utility.yul\":519:561   */\n      0xffffffffffffffffffffffffffffffffffffffff\n        /* \"#utility.yul\":512:517   */\n      dup3\n        /* \"#utility.yul\":508:562   */\n      and\n        /* \"#utility.yul\":497:562   */\n      swap1\n      pop\n        /* \"#utility.yul\":442:568   */\n      swap2\n      swap1\n      pop\n      jump\t// out\n        /* \"#utility.yul\":574:670   */\n    tag_16:\n        /* \"#utility.yul\":611:618   */\n      0x00\n        /* \"#utility.yul\":640:664   */\n      tag_26\n        /* \"#utility.yul\":658:663   */\n      dup3\n        /* \"#utility.yul\":640:664   */\n      tag_15\n      jump\t// in\n    tag_26:\n        /* \"#utility.yul\":629:664   */\n      swap1\n      pop\n        /* \"#utility.yul\":574:670   */\n      swap2\n      swap1\n      pop\n      jump\t// out\n        /* \"#utility.yul\":676:794   */\n    tag_17:\n        /* \"#utility.yul\":763:787   */\n      tag_28\n        /* \"#utility.yul\":781:786   */\n      dup2\n        /* \"#utility.yul\":763:787   */\n      tag_16\n      jump\t// in\n    tag_28:\n        /* \"#utility.yul\":758:761   */\n      dup3\n        /* \"#utility.yul\":751:788   */\n      mstore\n        /* \"#utility.yul\":676:794   */\n      pop\n      pop\n      jump\t// out\n        /* \"#utility.yul\":800:1022   */\n    tag_12:\n        /* \"#utility.yul\":893:897   */\n      0x00\n        /* \"#utility.yul\":931:933   */\n      0x20\n        /* \"#utility.yul\":920:929   */\n      dup3\n        /* \"#utility.yul\":916:934   */\n      add\n        /* \"#utility.yul\":908:934   */\n      swap1\n      pop\n        /* \"#utility.yul\":944:1015   */\n      tag_30\n        /* \"#utility.yul\":1012:1013   */\n      0x00\n        /* \"#utility.yul\":1001:1010   */\n      dup4\n        /* \"#utility.yul\":997:1014   */\n      add\n        /* \"#utility.yul\":988:994   */\n      dup5\n        /* \"#utility.yul\":944:1015   */\n      tag_17\n      jump\t// in\n    tag_30:\n        /* \"#utility.yul\":800:1022   */\n      swap3\n      swap2\n      pop\n      pop\n      jump\t// out\n\n    auxdata: 0xa26469706673582212207918209ded9f1cfc2a62f78c0563d6088bf570a09f1cc5b4341af9b6c39173fe64736f6c63430008130033\n}\n",
				"bytecode": {
					"linkReferences": {},
					"object": "608060405234801561001057600080fd5b5061015a806100206000396000f3fe608060405234801561001057600080fd5b50600436106100365760003560e01c80631f6649e31461003b5780633a756cec14610059575b600080fd5b610043610077565b60405161005091906100ad565b60405180910390f35b61006161007c565b60405161006e9190610109565b60405180910390f35b607b81565b73adc0fec4459b55af7b615e1aa28f5be9c50d6b0681565b6000819050919050565b6100a781610094565b82525050565b60006020820190506100c2600083018461009e565b92915050565b600073ffffffffffffffffffffffffffffffffffffffff82169050919050565b60006100f3826100c8565b9050919050565b610103816100e8565b82525050565b600060208201905061011e60008301846100fa565b9291505056fea26469706673582212207918209ded9f1cfc2a62f78c0563d6088bf570a09f1cc5b4341af9b6c39173fe64736f6c63430008130033",
					"opcodes": "PUSH1 0x80 PUSH1 0x40 MSTORE CALLVALUE DUP1 ISZERO PUSH2 0x10 JUMPI PUSH1 0x0 DUP1 REVERT JUMPDEST POP PUSH2 0x15A DUP1 PUSH2 0x20 PUSH1 0x0 CODECOPY PUSH1 0x0 RETURN INVALID PUSH1 0x80 PUSH1 0x40 MSTORE CALLVALUE DUP1 ISZERO PUSH2 0x10 JUMPI PUSH1 0x0 DUP1 REVERT JUMPDEST POP PUSH1 0x4 CALLDATASIZE LT PUSH2 0x36 JUMPI PUSH1 0x0 CALLDATALOAD PUSH1 0xE0 SHR DUP1 PUSH4 0x1F6649E3 EQ PUSH2 0x3B JUMPI DUP1 PUSH4 0x3A756CEC EQ PUSH2 0x59 JUMPI JUMPDEST PUSH1 0x0 DUP1 REVERT JUMPDEST PUSH2 0x43 PUSH2 0x77 JUMP JUMPDEST PUSH1 0x40 MLOAD PUSH2 0x50 SWAP2 SWAP1 PUSH2 0xAD JUMP JUMPDEST PUSH1 0x40 MLOAD DUP1 SWAP2 SUB SWAP1 RETURN JUMPDEST PUSH2 0x61 PUSH2 0x7C JUMP JUMPDEST PUSH1 0x40 MLOAD PUSH2 0x6E SWAP2 SWAP1 PUSH2 0x109 JUMP JUMPDEST PUSH1 0x40 MLOAD DUP1 SWAP2 SUB SWAP1 RETURN JUMPDEST PUSH1 0x7B DUP2 JUMP JUMPDEST PUSH20 0xADC0FEC4459B55AF7B615E1AA28F5BE9C50D6B06 DUP2 JUMP JUMPDEST PUSH1 0x0 DUP2 SWAP1 POP SWAP2 SWAP1 POP JUMP JUMPDEST PUSH2 0xA7 DUP2 PUSH2 0x94 JUMP JUMPDEST DUP3 MSTORE POP POP JUMP JUMPDEST PUSH1 0x0 PUSH1 0x20 DUP3 ADD SWAP1 POP PUSH2 0xC2 PUSH1 0x0 DUP4 ADD DUP5 PUSH2 0x9E JUMP JUMPDEST SWAP3 SWAP2 POP POP JUMP JUMPDEST PUSH1 0x0 PUSH20 0xFFFFFFFFFFFFFFFFFFFFFFFFFFFFFFFFFFFFFFFF DUP3 AND SWAP1 POP SWAP2 SWAP1 POP JUMP JUMPDEST PUSH1 0x0 PUSH2 0xF3 DUP3 PUSH2 0xC8 JUMP JUMPDEST SWAP1 POP SWAP2 SWAP1 POP JUMP JUMPDEST PUSH2 0x103 DUP2 PUSH2 0xE8 JUMP JUMPDEST DUP3 MSTORE POP POP JUMP JUMPDEST PUSH1 0x0 PUSH1 0x20 DUP3 ADD SWAP1 POP PUSH2 0x11E PUSH1 0x0 DUP4 ADD DUP5 PUSH2 0xFA JUMP JUMPDEST SWAP3 SWAP2 POP POP JUMP INVALID LOG2 PUSH5 0x6970667358 0x22 SLT KECCAK256 PUSH26 0x18209DED9F1CFC2A62F78C0563D6088BF570A09F1CC5B4341AF9 0xB6 0xC3 SWAP2 PUSH20 0xFE64736F6C634300081300330000000000000000 "
				},
				"gasEstimates": {
					"creation": {
						"codeDepositCost": "69200",
						"executionCost": "117",
						"totalCost": "69317"
					},
					"external": {
						"MY_ADDRESS()": "378",
						"MY_UINT()": "307"
					}
				},
				"methodIdentifiers": {
					"MY_ADDRESS()": "3a756cec",
					"MY_UINT()": "1f6649e3"
				}
			},
			"storageLayout": {
				"storage": [],
				"types": null
			},
			"userdoc": {
				"kind": "user",
				"methods": {},
				"version": 1
			}
		}
	}
}