{
	"week3/13_keccak256_hash_function.sol": {
		"HashFunc": {
			"abi": [
				{
					"inputs": [
						{
							"internalType": "string",
							"name": "text0",
							"type": "string"
						},
						{
							"internalType": "uint256",
							"name": "x",
							"type": "uint256"
						},
						{
							"internalType": "string",
							"name": "text1",
							"type": "string"
						}
					],
					"name": "collision",
					"outputs": [
						{
							"internalType": "bytes32",
							"name": "",
							"type": "bytes32"
						}
					],
					"stateMutability": "pure",
					"type": "function"
				},
				{
					"inputs": [
						{
							"internalType": "string",
							"name": "text0",
							"type": "string"
						},
						{
							"internalType": "string",
							"name": "text1",
							"type": "string"
						}
					],
					"name": "encode",
					"outputs": [
						{
							"internalType": "bytes",
							"name": "",
							"type": "bytes"
						}
					],
					"stateMutability": "pure",
					"type": "function"
				},
				{
					"inputs": [
						{
							"internalType": "string",
							"name": "text0",
							"type": "string"
						},
						{
							"internalType": "string",
							"name": "text1",
							"type": "string"
						}
					],
					"name": "encodePacked",
					"outputs": [
						{
							"internalType": "bytes",
							"name": "",
							"type": "bytes"
						}
					],
					"stateMutability": "pure",
					"type": "function"
				},
				{
					"inputs": [
						{
							"internalType": "string",
							"name": "text",
							"type": "string"
						},
						{
							"internalType": "uint256",
							"name": "num",
							"type": "uint256"
						},
						{
							"internalType": "address",
							"name": "addr",
							"type": "address"
						}
					],
					"name": "hash",
					"outputs": [
						{
							"internalType": "bytes32",
							"name": "",
							"type": "bytes32"
						}
					],
					"stateMutability": "pure",
					"type": "function"
				}
			],
			"devdoc": {
				"kind": "dev",
				"methods": {},
				"version": 1
			},
			"evm": {
				"assembly": "    /* \"week3/13_keccak256_hash_function.sol\":57:767  contract HashFunc {... */\n  mstore(0x40, 0x80)\n  callvalue\n  dup1\n  iszero\n  tag_1\n  jumpi\n  0x00\n  dup1\n  revert\ntag_1:\n  pop\n  dataSize(sub_0)\n  dup1\n  dataOffset(sub_0)\n  0x00\n  codecopy\n  0x00\n  return\nstop\n\nsub_0: assembly {\n        /* \"week3/13_keccak256_hash_function.sol\":57:767  contract HashFunc {... */\n      mstore(0x40, 0x80)\n      callvalue\n      dup1\n      iszero\n      tag_1\n      jumpi\n      0x00\n      dup1\n      revert\n    tag_1:\n      pop\n      jumpi(tag_2, lt(calldatasize, 0x04))\n      shr(0xe0, calldataload(0x00))\n      dup1\n      0x09518e1e\n      eq\n      tag_3\n      jumpi\n      dup1\n      0x17fe2da2\n      eq\n      tag_4\n      jumpi\n      dup1\n      0x5dda416e\n      eq\n      tag_5\n      jumpi\n      dup1\n      0x892e5d01\n      eq\n      tag_6\n      jumpi\n    tag_2:\n      0x00\n      dup1\n      revert\n        /* \"week3/13_keccak256_hash_function.sol\":596:765  function collision(string memory text0, uint x, string memory text1) external pure returns (bytes32) {... */\n    tag_3:\n      tag_7\n      0x04\n      dup1\n      calldatasize\n      sub\n      dup2\n      add\n      swap1\n      tag_8\n      swap2\n      swap1\n      tag_9\n      jump\t// in\n    tag_8:\n      tag_10\n      jump\t// in\n    tag_7:\n      mload(0x40)\n      tag_11\n      swap2\n      swap1\n      tag_12\n      jump\t// in\n    tag_11:\n      mload(0x40)\n      dup1\n      swap2\n      sub\n      swap1\n      return\n        /* \"week3/13_keccak256_hash_function.sol\":245:388  function encode(string memory text0, string memory text1) external pure returns (bytes memory) {... */\n    tag_4:\n      tag_13\n      0x04\n      dup1\n      calldatasize\n      sub\n      dup2\n      add\n      swap1\n      tag_14\n      swap2\n      swap1\n      tag_15\n      jump\t// in\n    tag_14:\n      tag_16\n      jump\t// in\n    tag_13:\n      mload(0x40)\n      tag_17\n      swap2\n      swap1\n      tag_18\n      jump\t// in\n    tag_17:\n      mload(0x40)\n      dup1\n      swap2\n      sub\n      swap1\n      return\n        /* \"week3/13_keccak256_hash_function.sol\":81:239  function hash(string memory text, uint num, address addr) external pure returns (bytes32) {... */\n    tag_5:\n      tag_19\n      0x04\n      dup1\n      calldatasize\n      sub\n      dup2\n      add\n      swap1\n      tag_20\n      swap2\n      swap1\n      tag_21\n      jump\t// in\n    tag_20:\n      tag_22\n      jump\t// in\n    tag_19:\n      mload(0x40)\n      tag_23\n      swap2\n      swap1\n      tag_12\n      jump\t// in\n    tag_23:\n      mload(0x40)\n      dup1\n      swap2\n      sub\n      swap1\n      return\n        /* \"week3/13_keccak256_hash_function.sol\":394:549  function encodePacked(string memory text0, string memory text1) external pure returns (bytes memory) {... */\n    tag_6:\n      tag_24\n      0x04\n      dup1\n      calldatasize\n      sub\n      dup2\n      add\n      swap1\n      tag_25\n      swap2\n      swap1\n      tag_15\n      jump\t// in\n    tag_25:\n      tag_26\n      jump\t// in\n    tag_24:\n      mload(0x40)\n      tag_27\n      swap2\n      swap1\n      tag_18\n      jump\t// in\n    tag_27:\n      mload(0x40)\n      dup1\n      swap2\n      sub\n      swap1\n      return\n        /* \"week3/13_keccak256_hash_function.sol\":596:765  function collision(string memory text0, uint x, string memory text1) external pure returns (bytes32) {... */\n    tag_10:\n        /* \"week3/13_keccak256_hash_function.sol\":688:695  bytes32 */\n      0x00\n        /* \"week3/13_keccak256_hash_function.sol\":741:746  text0 */\n      dup4\n        /* \"week3/13_keccak256_hash_function.sol\":748:749  x */\n      dup4\n        /* \"week3/13_keccak256_hash_function.sol\":751:756  text1 */\n      dup4\n        /* \"week3/13_keccak256_hash_function.sol\":724:757  abi.encodePacked(text0, x, text1) */\n      add(0x20, mload(0x40))\n      tag_29\n      swap4\n      swap3\n      swap2\n      swap1\n      tag_30\n      jump\t// in\n    tag_29:\n      mload(0x40)\n      0x20\n      dup2\n      dup4\n      sub\n      sub\n      dup2\n      mstore\n      swap1\n      0x40\n      mstore\n        /* \"week3/13_keccak256_hash_function.sol\":714:758  keccak256(abi.encodePacked(text0, x, text1)) */\n      dup1\n      mload\n      swap1\n      0x20\n      add\n      keccak256\n        /* \"week3/13_keccak256_hash_function.sol\":707:758  return keccak256(abi.encodePacked(text0, x, text1)) */\n      swap1\n      pop\n        /* \"week3/13_keccak256_hash_function.sol\":596:765  function collision(string memory text0, uint x, string memory text1) external pure returns (bytes32) {... */\n      swap4\n      swap3\n      pop\n      pop\n      pop\n      jump\t// out\n        /* \"week3/13_keccak256_hash_function.sol\":245:388  function encode(string memory text0, string memory text1) external pure returns (bytes memory) {... */\n    tag_16:\n        /* \"week3/13_keccak256_hash_function.sol\":326:338  bytes memory */\n      0x60\n        /* \"week3/13_keccak256_hash_function.sol\":368:373  text0 */\n      dup3\n        /* \"week3/13_keccak256_hash_function.sol\":375:380  text1 */\n      dup3\n        /* \"week3/13_keccak256_hash_function.sol\":357:381  abi.encode(text0, text1) */\n      add(0x20, mload(0x40))\n      tag_32\n      swap3\n      swap2\n      swap1\n      tag_33\n      jump\t// in\n    tag_32:\n      mload(0x40)\n      0x20\n      dup2\n      dup4\n      sub\n      sub\n      dup2\n      mstore\n      swap1\n      0x40\n      mstore\n        /* \"week3/13_keccak256_hash_function.sol\":350:381  return abi.encode(text0, text1) */\n      swap1\n      pop\n        /* \"week3/13_keccak256_hash_function.sol\":245:388  function encode(string memory text0, string memory text1) external pure returns (bytes memory) {... */\n      swap3\n      swap2\n      pop\n      pop\n      jump\t// out\n        /* \"week3/13_keccak256_hash_function.sol\":81:239  function hash(string memory text, uint num, address addr) external pure returns (bytes32) {... */\n    tag_22:\n        /* \"week3/13_keccak256_hash_function.sol\":162:169  bytes32 */\n      0x00\n        /* \"week3/13_keccak256_hash_function.sol\":215:219  text */\n      dup4\n        /* \"week3/13_keccak256_hash_function.sol\":221:224  num */\n      dup4\n        /* \"week3/13_keccak256_hash_function.sol\":226:230  addr */\n      dup4\n        /* \"week3/13_keccak256_hash_function.sol\":198:231  abi.encodePacked(text, num, addr) */\n      add(0x20, mload(0x40))\n      tag_35\n      swap4\n      swap3\n      swap2\n      swap1\n      tag_36\n      jump\t// in\n    tag_35:\n      mload(0x40)\n      0x20\n      dup2\n      dup4\n      sub\n      sub\n      dup2\n      mstore\n      swap1\n      0x40\n      mstore\n        /* \"week3/13_keccak256_hash_function.sol\":188:232  keccak256(abi.encodePacked(text, num, addr)) */\n      dup1\n      mload\n      swap1\n      0x20\n      add\n      keccak256\n        /* \"week3/13_keccak256_hash_function.sol\":181:232  return keccak256(abi.encodePacked(text, num, addr)) */\n      swap1\n      pop\n        /* \"week3/13_keccak256_hash_function.sol\":81:239  function hash(string memory text, uint num, address addr) external pure returns (bytes32) {... */\n      swap4\n      swap3\n      pop\n      pop\n      pop\n      jump\t// out\n        /* \"week3/13_keccak256_hash_function.sol\":394:549  function encodePacked(string memory text0, string memory text1) external pure returns (bytes memory) {... */\n    tag_26:\n        /* \"week3/13_keccak256_hash_function.sol\":481:493  bytes memory */\n      0x60\n        /* \"week3/13_keccak256_hash_function.sol\":529:534  text0 */\n      dup3\n        /* \"week3/13_keccak256_hash_function.sol\":536:541  text1 */\n      dup3\n        /* \"week3/13_keccak256_hash_function.sol\":512:542  abi.encodePacked(text0, text1) */\n      add(0x20, mload(0x40))\n      tag_38\n      swap3\n      swap2\n      swap1\n      tag_39\n      jump\t// in\n    tag_38:\n      mload(0x40)\n      0x20\n      dup2\n      dup4\n      sub\n      sub\n      dup2\n      mstore\n      swap1\n      0x40\n      mstore\n        /* \"week3/13_keccak256_hash_function.sol\":505:542  return abi.encodePacked(text0, text1) */\n      swap1\n      pop\n        /* \"week3/13_keccak256_hash_function.sol\":394:549  function encodePacked(string memory text0, string memory text1) external pure returns (bytes memory) {... */\n      swap3\n      swap2\n      pop\n      pop\n      jump\t// out\n        /* \"#utility.yul\":7:82   */\n    tag_40:\n        /* \"#utility.yul\":40:46   */\n      0x00\n        /* \"#utility.yul\":73:75   */\n      0x40\n        /* \"#utility.yul\":67:76   */\n      mload\n        /* \"#utility.yul\":57:76   */\n      swap1\n      pop\n        /* \"#utility.yul\":7:82   */\n      swap1\n      jump\t// out\n        /* \"#utility.yul\":88:205   */\n    tag_41:\n        /* \"#utility.yul\":197:198   */\n      0x00\n        /* \"#utility.yul\":194:195   */\n      dup1\n        /* \"#utility.yul\":187:199   */\n      revert\n        /* \"#utility.yul\":211:328   */\n    tag_42:\n        /* \"#utility.yul\":320:321   */\n      0x00\n        /* \"#utility.yul\":317:318   */\n      dup1\n        /* \"#utility.yul\":310:322   */\n      revert\n        /* \"#utility.yul\":334:451   */\n    tag_43:\n        /* \"#utility.yul\":443:444   */\n      0x00\n        /* \"#utility.yul\":440:441   */\n      dup1\n        /* \"#utility.yul\":433:445   */\n      revert\n        /* \"#utility.yul\":457:574   */\n    tag_44:\n        /* \"#utility.yul\":566:567   */\n      0x00\n        /* \"#utility.yul\":563:564   */\n      dup1\n        /* \"#utility.yul\":556:568   */\n      revert\n        /* \"#utility.yul\":580:682   */\n    tag_45:\n        /* \"#utility.yul\":621:627   */\n      0x00\n        /* \"#utility.yul\":672:674   */\n      0x1f\n        /* \"#utility.yul\":668:675   */\n      not\n        /* \"#utility.yul\":663:665   */\n      0x1f\n        /* \"#utility.yul\":656:661   */\n      dup4\n        /* \"#utility.yul\":652:666   */\n      add\n        /* \"#utility.yul\":648:676   */\n      and\n        /* \"#utility.yul\":638:676   */\n      swap1\n      pop\n        /* \"#utility.yul\":580:682   */\n      swap2\n      swap1\n      pop\n      jump\t// out\n        /* \"#utility.yul\":688:868   */\n    tag_46:\n        /* \"#utility.yul\":736:813   */\n      0x4e487b7100000000000000000000000000000000000000000000000000000000\n        /* \"#utility.yul\":733:734   */\n      0x00\n        /* \"#utility.yul\":726:814   */\n      mstore\n        /* \"#utility.yul\":833:837   */\n      0x41\n        /* \"#utility.yul\":830:831   */\n      0x04\n        /* \"#utility.yul\":823:838   */\n      mstore\n        /* \"#utility.yul\":857:861   */\n      0x24\n        /* \"#utility.yul\":854:855   */\n      0x00\n        /* \"#utility.yul\":847:862   */\n      revert\n        /* \"#utility.yul\":874:1155   */\n    tag_47:\n        /* \"#utility.yul\":957:984   */\n      tag_86\n        /* \"#utility.yul\":979:983   */\n      dup3\n        /* \"#utility.yul\":957:984   */\n      tag_45\n      jump\t// in\n    tag_86:\n        /* \"#utility.yul\":949:955   */\n      dup2\n        /* \"#utility.yul\":945:985   */\n      add\n        /* \"#utility.yul\":1087:1093   */\n      dup2\n        /* \"#utility.yul\":1075:1085   */\n      dup2\n        /* \"#utility.yul\":1072:1094   */\n      lt\n        /* \"#utility.yul\":1051:1069   */\n      0xffffffffffffffff\n        /* \"#utility.yul\":1039:1049   */\n      dup3\n        /* \"#utility.yul\":1036:1070   */\n      gt\n        /* \"#utility.yul\":1033:1095   */\n      or\n        /* \"#utility.yul\":1030:1118   */\n      iszero\n      tag_87\n      jumpi\n        /* \"#utility.yul\":1098:1116   */\n      tag_88\n      tag_46\n      jump\t// in\n    tag_88:\n        /* \"#utility.yul\":1030:1118   */\n    tag_87:\n        /* \"#utility.yul\":1138:1148   */\n      dup1\n        /* \"#utility.yul\":1134:1136   */\n      0x40\n        /* \"#utility.yul\":1127:1149   */\n      mstore\n        /* \"#utility.yul\":917:1155   */\n      pop\n        /* \"#utility.yul\":874:1155   */\n      pop\n      pop\n      jump\t// out\n        /* \"#utility.yul\":1161:1290   */\n    tag_48:\n        /* \"#utility.yul\":1195:1201   */\n      0x00\n        /* \"#utility.yul\":1222:1242   */\n      tag_90\n      tag_40\n      jump\t// in\n    tag_90:\n        /* \"#utility.yul\":1212:1242   */\n      swap1\n      pop\n        /* \"#utility.yul\":1251:1284   */\n      tag_91\n        /* \"#utility.yul\":1279:1283   */\n      dup3\n        /* \"#utility.yul\":1271:1277   */\n      dup3\n        /* \"#utility.yul\":1251:1284   */\n      tag_47\n      jump\t// in\n    tag_91:\n        /* \"#utility.yul\":1161:1290   */\n      swap2\n      swap1\n      pop\n      jump\t// out\n        /* \"#utility.yul\":1296:1604   */\n    tag_49:\n        /* \"#utility.yul\":1358:1362   */\n      0x00\n        /* \"#utility.yul\":1448:1466   */\n      0xffffffffffffffff\n        /* \"#utility.yul\":1440:1446   */\n      dup3\n        /* \"#utility.yul\":1437:1467   */\n      gt\n        /* \"#utility.yul\":1434:1490   */\n      iszero\n      tag_93\n      jumpi\n        /* \"#utility.yul\":1470:1488   */\n      tag_94\n      tag_46\n      jump\t// in\n    tag_94:\n        /* \"#utility.yul\":1434:1490   */\n    tag_93:\n        /* \"#utility.yul\":1508:1537   */\n      tag_95\n        /* \"#utility.yul\":1530:1536   */\n      dup3\n        /* \"#utility.yul\":1508:1537   */\n      tag_45\n      jump\t// in\n    tag_95:\n        /* \"#utility.yul\":1500:1537   */\n      swap1\n      pop\n        /* \"#utility.yul\":1592:1596   */\n      0x20\n        /* \"#utility.yul\":1586:1590   */\n      dup2\n        /* \"#utility.yul\":1582:1597   */\n      add\n        /* \"#utility.yul\":1574:1597   */\n      swap1\n      pop\n        /* \"#utility.yul\":1296:1604   */\n      swap2\n      swap1\n      pop\n      jump\t// out\n        /* \"#utility.yul\":1610:1756   */\n    tag_50:\n        /* \"#utility.yul\":1707:1713   */\n      dup3\n        /* \"#utility.yul\":1702:1705   */\n      dup2\n        /* \"#utility.yul\":1697:1700   */\n      dup4\n        /* \"#utility.yul\":1684:1714   */\n      calldatacopy\n        /* \"#utility.yul\":1748:1749   */\n      0x00\n        /* \"#utility.yul\":1739:1745   */\n      dup4\n        /* \"#utility.yul\":1734:1737   */\n      dup4\n        /* \"#utility.yul\":1730:1746   */\n      add\n        /* \"#utility.yul\":1723:1750   */\n      mstore\n        /* \"#utility.yul\":1610:1756   */\n      pop\n      pop\n      pop\n      jump\t// out\n        /* \"#utility.yul\":1762:2187   */\n    tag_51:\n        /* \"#utility.yul\":1840:1845   */\n      0x00\n        /* \"#utility.yul\":1865:1931   */\n      tag_98\n        /* \"#utility.yul\":1881:1930   */\n      tag_99\n        /* \"#utility.yul\":1923:1929   */\n      dup5\n        /* \"#utility.yul\":1881:1930   */\n      tag_49\n      jump\t// in\n    tag_99:\n        /* \"#utility.yul\":1865:1931   */\n      tag_48\n      jump\t// in\n    tag_98:\n        /* \"#utility.yul\":1856:1931   */\n      swap1\n      pop\n        /* \"#utility.yul\":1954:1960   */\n      dup3\n        /* \"#utility.yul\":1947:1952   */\n      dup2\n        /* \"#utility.yul\":1940:1961   */\n      mstore\n        /* \"#utility.yul\":1992:1996   */\n      0x20\n        /* \"#utility.yul\":1985:1990   */\n      dup2\n        /* \"#utility.yul\":1981:1997   */\n      add\n        /* \"#utility.yul\":2030:2033   */\n      dup5\n        /* \"#utility.yul\":2021:2027   */\n      dup5\n        /* \"#utility.yul\":2016:2019   */\n      dup5\n        /* \"#utility.yul\":2012:2028   */\n      add\n        /* \"#utility.yul\":2009:2034   */\n      gt\n        /* \"#utility.yul\":2006:2118   */\n      iszero\n      tag_100\n      jumpi\n        /* \"#utility.yul\":2037:2116   */\n      tag_101\n      tag_44\n      jump\t// in\n    tag_101:\n        /* \"#utility.yul\":2006:2118   */\n    tag_100:\n        /* \"#utility.yul\":2127:2181   */\n      tag_102\n        /* \"#utility.yul\":2174:2180   */\n      dup5\n        /* \"#utility.yul\":2169:2172   */\n      dup3\n        /* \"#utility.yul\":2164:2167   */\n      dup6\n        /* \"#utility.yul\":2127:2181   */\n      tag_50\n      jump\t// in\n    tag_102:\n        /* \"#utility.yul\":1846:2187   */\n      pop\n        /* \"#utility.yul\":1762:2187   */\n      swap4\n      swap3\n      pop\n      pop\n      pop\n      jump\t// out\n        /* \"#utility.yul\":2207:2547   */\n    tag_52:\n        /* \"#utility.yul\":2263:2268   */\n      0x00\n        /* \"#utility.yul\":2312:2315   */\n      dup3\n        /* \"#utility.yul\":2305:2309   */\n      0x1f\n        /* \"#utility.yul\":2297:2303   */\n      dup4\n        /* \"#utility.yul\":2293:2310   */\n      add\n        /* \"#utility.yul\":2289:2316   */\n      slt\n        /* \"#utility.yul\":2279:2401   */\n      tag_104\n      jumpi\n        /* \"#utility.yul\":2320:2399   */\n      tag_105\n      tag_43\n      jump\t// in\n    tag_105:\n        /* \"#utility.yul\":2279:2401   */\n    tag_104:\n        /* \"#utility.yul\":2437:2443   */\n      dup2\n        /* \"#utility.yul\":2424:2444   */\n      calldataload\n        /* \"#utility.yul\":2462:2541   */\n      tag_106\n        /* \"#utility.yul\":2537:2540   */\n      dup5\n        /* \"#utility.yul\":2529:2535   */\n      dup3\n        /* \"#utility.yul\":2522:2526   */\n      0x20\n        /* \"#utility.yul\":2514:2520   */\n      dup7\n        /* \"#utility.yul\":2510:2527   */\n      add\n        /* \"#utility.yul\":2462:2541   */\n      tag_51\n      jump\t// in\n    tag_106:\n        /* \"#utility.yul\":2453:2541   */\n      swap2\n      pop\n        /* \"#utility.yul\":2269:2547   */\n      pop\n        /* \"#utility.yul\":2207:2547   */\n      swap3\n      swap2\n      pop\n      pop\n      jump\t// out\n        /* \"#utility.yul\":2553:2630   */\n    tag_53:\n        /* \"#utility.yul\":2590:2597   */\n      0x00\n        /* \"#utility.yul\":2619:2624   */\n      dup2\n        /* \"#utility.yul\":2608:2624   */\n      swap1\n      pop\n        /* \"#utility.yul\":2553:2630   */\n      swap2\n      swap1\n      pop\n      jump\t// out\n        /* \"#utility.yul\":2636:2758   */\n    tag_54:\n        /* \"#utility.yul\":2709:2733   */\n      tag_109\n        /* \"#utility.yul\":2727:2732   */\n      dup2\n        /* \"#utility.yul\":2709:2733   */\n      tag_53\n      jump\t// in\n    tag_109:\n        /* \"#utility.yul\":2702:2707   */\n      dup2\n        /* \"#utility.yul\":2699:2734   */\n      eq\n        /* \"#utility.yul\":2689:2752   */\n      tag_110\n      jumpi\n        /* \"#utility.yul\":2748:2749   */\n      0x00\n        /* \"#utility.yul\":2745:2746   */\n      dup1\n        /* \"#utility.yul\":2738:2750   */\n      revert\n        /* \"#utility.yul\":2689:2752   */\n    tag_110:\n        /* \"#utility.yul\":2636:2758   */\n      pop\n      jump\t// out\n        /* \"#utility.yul\":2764:2903   */\n    tag_55:\n        /* \"#utility.yul\":2810:2815   */\n      0x00\n        /* \"#utility.yul\":2848:2854   */\n      dup2\n        /* \"#utility.yul\":2835:2855   */\n      calldataload\n        /* \"#utility.yul\":2826:2855   */\n      swap1\n      pop\n        /* \"#utility.yul\":2864:2897   */\n      tag_112\n        /* \"#utility.yul\":2891:2896   */\n      dup2\n        /* \"#utility.yul\":2864:2897   */\n      tag_54\n      jump\t// in\n    tag_112:\n        /* \"#utility.yul\":2764:2903   */\n      swap3\n      swap2\n      pop\n      pop\n      jump\t// out\n        /* \"#utility.yul\":2909:3888   */\n    tag_9:\n        /* \"#utility.yul\":3006:3012   */\n      0x00\n        /* \"#utility.yul\":3014:3020   */\n      dup1\n        /* \"#utility.yul\":3022:3028   */\n      0x00\n        /* \"#utility.yul\":3071:3073   */\n      0x60\n        /* \"#utility.yul\":3059:3068   */\n      dup5\n        /* \"#utility.yul\":3050:3057   */\n      dup7\n        /* \"#utility.yul\":3046:3069   */\n      sub\n        /* \"#utility.yul\":3042:3074   */\n      slt\n        /* \"#utility.yul\":3039:3158   */\n      iszero\n      tag_114\n      jumpi\n        /* \"#utility.yul\":3077:3156   */\n      tag_115\n      tag_41\n      jump\t// in\n    tag_115:\n        /* \"#utility.yul\":3039:3158   */\n    tag_114:\n        /* \"#utility.yul\":3225:3226   */\n      0x00\n        /* \"#utility.yul\":3214:3223   */\n      dup5\n        /* \"#utility.yul\":3210:3227   */\n      add\n        /* \"#utility.yul\":3197:3228   */\n      calldataload\n        /* \"#utility.yul\":3255:3273   */\n      0xffffffffffffffff\n        /* \"#utility.yul\":3247:3253   */\n      dup2\n        /* \"#utility.yul\":3244:3274   */\n      gt\n        /* \"#utility.yul\":3241:3358   */\n      iszero\n      tag_116\n      jumpi\n        /* \"#utility.yul\":3277:3356   */\n      tag_117\n      tag_42\n      jump\t// in\n    tag_117:\n        /* \"#utility.yul\":3241:3358   */\n    tag_116:\n        /* \"#utility.yul\":3382:3445   */\n      tag_118\n        /* \"#utility.yul\":3437:3444   */\n      dup7\n        /* \"#utility.yul\":3428:3434   */\n      dup3\n        /* \"#utility.yul\":3417:3426   */\n      dup8\n        /* \"#utility.yul\":3413:3435   */\n      add\n        /* \"#utility.yul\":3382:3445   */\n      tag_52\n      jump\t// in\n    tag_118:\n        /* \"#utility.yul\":3372:3445   */\n      swap4\n      pop\n        /* \"#utility.yul\":3168:3455   */\n      pop\n        /* \"#utility.yul\":3494:3496   */\n      0x20\n        /* \"#utility.yul\":3520:3573   */\n      tag_119\n        /* \"#utility.yul\":3565:3572   */\n      dup7\n        /* \"#utility.yul\":3556:3562   */\n      dup3\n        /* \"#utility.yul\":3545:3554   */\n      dup8\n        /* \"#utility.yul\":3541:3563   */\n      add\n        /* \"#utility.yul\":3520:3573   */\n      tag_55\n      jump\t// in\n    tag_119:\n        /* \"#utility.yul\":3510:3573   */\n      swap3\n      pop\n        /* \"#utility.yul\":3465:3583   */\n      pop\n        /* \"#utility.yul\":3650:3652   */\n      0x40\n        /* \"#utility.yul\":3639:3648   */\n      dup5\n        /* \"#utility.yul\":3635:3653   */\n      add\n        /* \"#utility.yul\":3622:3654   */\n      calldataload\n        /* \"#utility.yul\":3681:3699   */\n      0xffffffffffffffff\n        /* \"#utility.yul\":3673:3679   */\n      dup2\n        /* \"#utility.yul\":3670:3700   */\n      gt\n        /* \"#utility.yul\":3667:3784   */\n      iszero\n      tag_120\n      jumpi\n        /* \"#utility.yul\":3703:3782   */\n      tag_121\n      tag_42\n      jump\t// in\n    tag_121:\n        /* \"#utility.yul\":3667:3784   */\n    tag_120:\n        /* \"#utility.yul\":3808:3871   */\n      tag_122\n        /* \"#utility.yul\":3863:3870   */\n      dup7\n        /* \"#utility.yul\":3854:3860   */\n      dup3\n        /* \"#utility.yul\":3843:3852   */\n      dup8\n        /* \"#utility.yul\":3839:3861   */\n      add\n        /* \"#utility.yul\":3808:3871   */\n      tag_52\n      jump\t// in\n    tag_122:\n        /* \"#utility.yul\":3798:3871   */\n      swap2\n      pop\n        /* \"#utility.yul\":3593:3881   */\n      pop\n        /* \"#utility.yul\":2909:3888   */\n      swap3\n      pop\n      swap3\n      pop\n      swap3\n      jump\t// out\n        /* \"#utility.yul\":3894:3971   */\n    tag_56:\n        /* \"#utility.yul\":3931:3938   */\n      0x00\n        /* \"#utility.yul\":3960:3965   */\n      dup2\n        /* \"#utility.yul\":3949:3965   */\n      swap1\n      pop\n        /* \"#utility.yul\":3894:3971   */\n      swap2\n      swap1\n      pop\n      jump\t// out\n        /* \"#utility.yul\":3977:4095   */\n    tag_57:\n        /* \"#utility.yul\":4064:4088   */\n      tag_125\n        /* \"#utility.yul\":4082:4087   */\n      dup2\n        /* \"#utility.yul\":4064:4088   */\n      tag_56\n      jump\t// in\n    tag_125:\n        /* \"#utility.yul\":4059:4062   */\n      dup3\n        /* \"#utility.yul\":4052:4089   */\n      mstore\n        /* \"#utility.yul\":3977:4095   */\n      pop\n      pop\n      jump\t// out\n        /* \"#utility.yul\":4101:4323   */\n    tag_12:\n        /* \"#utility.yul\":4194:4198   */\n      0x00\n        /* \"#utility.yul\":4232:4234   */\n      0x20\n        /* \"#utility.yul\":4221:4230   */\n      dup3\n        /* \"#utility.yul\":4217:4235   */\n      add\n        /* \"#utility.yul\":4209:4235   */\n      swap1\n      pop\n        /* \"#utility.yul\":4245:4316   */\n      tag_127\n        /* \"#utility.yul\":4313:4314   */\n      0x00\n        /* \"#utility.yul\":4302:4311   */\n      dup4\n        /* \"#utility.yul\":4298:4315   */\n      add\n        /* \"#utility.yul\":4289:4295   */\n      dup5\n        /* \"#utility.yul\":4245:4316   */\n      tag_57\n      jump\t// in\n    tag_127:\n        /* \"#utility.yul\":4101:4323   */\n      swap3\n      swap2\n      pop\n      pop\n      jump\t// out\n        /* \"#utility.yul\":4329:5163   */\n    tag_15:\n        /* \"#utility.yul\":4417:4423   */\n      0x00\n        /* \"#utility.yul\":4425:4431   */\n      dup1\n        /* \"#utility.yul\":4474:4476   */\n      0x40\n        /* \"#utility.yul\":4462:4471   */\n      dup4\n        /* \"#utility.yul\":4453:4460   */\n      dup6\n        /* \"#utility.yul\":4449:4472   */\n      sub\n        /* \"#utility.yul\":4445:4477   */\n      slt\n        /* \"#utility.yul\":4442:4561   */\n      iszero\n      tag_129\n      jumpi\n        /* \"#utility.yul\":4480:4559   */\n      tag_130\n      tag_41\n      jump\t// in\n    tag_130:\n        /* \"#utility.yul\":4442:4561   */\n    tag_129:\n        /* \"#utility.yul\":4628:4629   */\n      0x00\n        /* \"#utility.yul\":4617:4626   */\n      dup4\n        /* \"#utility.yul\":4613:4630   */\n      add\n        /* \"#utility.yul\":4600:4631   */\n      calldataload\n        /* \"#utility.yul\":4658:4676   */\n      0xffffffffffffffff\n        /* \"#utility.yul\":4650:4656   */\n      dup2\n        /* \"#utility.yul\":4647:4677   */\n      gt\n        /* \"#utility.yul\":4644:4761   */\n      iszero\n      tag_131\n      jumpi\n        /* \"#utility.yul\":4680:4759   */\n      tag_132\n      tag_42\n      jump\t// in\n    tag_132:\n        /* \"#utility.yul\":4644:4761   */\n    tag_131:\n        /* \"#utility.yul\":4785:4848   */\n      tag_133\n        /* \"#utility.yul\":4840:4847   */\n      dup6\n        /* \"#utility.yul\":4831:4837   */\n      dup3\n        /* \"#utility.yul\":4820:4829   */\n      dup7\n        /* \"#utility.yul\":4816:4838   */\n      add\n        /* \"#utility.yul\":4785:4848   */\n      tag_52\n      jump\t// in\n    tag_133:\n        /* \"#utility.yul\":4775:4848   */\n      swap3\n      pop\n        /* \"#utility.yul\":4571:4858   */\n      pop\n        /* \"#utility.yul\":4925:4927   */\n      0x20\n        /* \"#utility.yul\":4914:4923   */\n      dup4\n        /* \"#utility.yul\":4910:4928   */\n      add\n        /* \"#utility.yul\":4897:4929   */\n      calldataload\n        /* \"#utility.yul\":4956:4974   */\n      0xffffffffffffffff\n        /* \"#utility.yul\":4948:4954   */\n      dup2\n        /* \"#utility.yul\":4945:4975   */\n      gt\n        /* \"#utility.yul\":4942:5059   */\n      iszero\n      tag_134\n      jumpi\n        /* \"#utility.yul\":4978:5057   */\n      tag_135\n      tag_42\n      jump\t// in\n    tag_135:\n        /* \"#utility.yul\":4942:5059   */\n    tag_134:\n        /* \"#utility.yul\":5083:5146   */\n      tag_136\n        /* \"#utility.yul\":5138:5145   */\n      dup6\n        /* \"#utility.yul\":5129:5135   */\n      dup3\n        /* \"#utility.yul\":5118:5127   */\n      dup7\n        /* \"#utility.yul\":5114:5136   */\n      add\n        /* \"#utility.yul\":5083:5146   */\n      tag_52\n      jump\t// in\n    tag_136:\n        /* \"#utility.yul\":5073:5146   */\n      swap2\n      pop\n        /* \"#utility.yul\":4868:5156   */\n      pop\n        /* \"#utility.yul\":4329:5163   */\n      swap3\n      pop\n      swap3\n      swap1\n      pop\n      jump\t// out\n        /* \"#utility.yul\":5169:5267   */\n    tag_58:\n        /* \"#utility.yul\":5220:5226   */\n      0x00\n        /* \"#utility.yul\":5254:5259   */\n      dup2\n        /* \"#utility.yul\":5248:5260   */\n      mload\n        /* \"#utility.yul\":5238:5260   */\n      swap1\n      pop\n        /* \"#utility.yul\":5169:5267   */\n      swap2\n      swap1\n      pop\n      jump\t// out\n        /* \"#utility.yul\":5273:5441   */\n    tag_59:\n        /* \"#utility.yul\":5356:5367   */\n      0x00\n        /* \"#utility.yul\":5390:5396   */\n      dup3\n        /* \"#utility.yul\":5385:5388   */\n      dup3\n        /* \"#utility.yul\":5378:5397   */\n      mstore\n        /* \"#utility.yul\":5430:5434   */\n      0x20\n        /* \"#utility.yul\":5425:5428   */\n      dup3\n        /* \"#utility.yul\":5421:5435   */\n      add\n        /* \"#utility.yul\":5406:5435   */\n      swap1\n      pop\n        /* \"#utility.yul\":5273:5441   */\n      swap3\n      swap2\n      pop\n      pop\n      jump\t// out\n        /* \"#utility.yul\":5447:5693   */\n    tag_60:\n        /* \"#utility.yul\":5528:5529   */\n      0x00\n        /* \"#utility.yul\":5538:5651   */\n    tag_140:\n        /* \"#utility.yul\":5552:5558   */\n      dup4\n        /* \"#utility.yul\":5549:5550   */\n      dup2\n        /* \"#utility.yul\":5546:5559   */\n      lt\n        /* \"#utility.yul\":5538:5651   */\n      iszero\n      tag_142\n      jumpi\n        /* \"#utility.yul\":5637:5638   */\n      dup1\n        /* \"#utility.yul\":5632:5635   */\n      dup3\n        /* \"#utility.yul\":5628:5639   */\n      add\n        /* \"#utility.yul\":5622:5640   */\n      mload\n        /* \"#utility.yul\":5618:5619   */\n      dup2\n        /* \"#utility.yul\":5613:5616   */\n      dup5\n        /* \"#utility.yul\":5609:5620   */\n      add\n        /* \"#utility.yul\":5602:5641   */\n      mstore\n        /* \"#utility.yul\":5574:5576   */\n      0x20\n        /* \"#utility.yul\":5571:5572   */\n      dup2\n        /* \"#utility.yul\":5567:5577   */\n      add\n        /* \"#utility.yul\":5562:5577   */\n      swap1\n      pop\n        /* \"#utility.yul\":5538:5651   */\n      jump(tag_140)\n    tag_142:\n        /* \"#utility.yul\":5685:5686   */\n      0x00\n        /* \"#utility.yul\":5676:5682   */\n      dup5\n        /* \"#utility.yul\":5671:5674   */\n      dup5\n        /* \"#utility.yul\":5667:5683   */\n      add\n        /* \"#utility.yul\":5660:5687   */\n      mstore\n        /* \"#utility.yul\":5509:5693   */\n      pop\n        /* \"#utility.yul\":5447:5693   */\n      pop\n      pop\n      pop\n      jump\t// out\n        /* \"#utility.yul\":5699:6072   */\n    tag_61:\n        /* \"#utility.yul\":5785:5788   */\n      0x00\n        /* \"#utility.yul\":5813:5851   */\n      tag_144\n        /* \"#utility.yul\":5845:5850   */\n      dup3\n        /* \"#utility.yul\":5813:5851   */\n      tag_58\n      jump\t// in\n    tag_144:\n        /* \"#utility.yul\":5867:5937   */\n      tag_145\n        /* \"#utility.yul\":5930:5936   */\n      dup2\n        /* \"#utility.yul\":5925:5928   */\n      dup6\n        /* \"#utility.yul\":5867:5937   */\n      tag_59\n      jump\t// in\n    tag_145:\n        /* \"#utility.yul\":5860:5937   */\n      swap4\n      pop\n        /* \"#utility.yul\":5946:6011   */\n      tag_146\n        /* \"#utility.yul\":6004:6010   */\n      dup2\n        /* \"#utility.yul\":5999:6002   */\n      dup6\n        /* \"#utility.yul\":5992:5996   */\n      0x20\n        /* \"#utility.yul\":5985:5990   */\n      dup7\n        /* \"#utility.yul\":5981:5997   */\n      add\n        /* \"#utility.yul\":5946:6011   */\n      tag_60\n      jump\t// in\n    tag_146:\n        /* \"#utility.yul\":6036:6065   */\n      tag_147\n        /* \"#utility.yul\":6058:6064   */\n      dup2\n        /* \"#utility.yul\":6036:6065   */\n      tag_45\n      jump\t// in\n    tag_147:\n        /* \"#utility.yul\":6031:6034   */\n      dup5\n        /* \"#utility.yul\":6027:6066   */\n      add\n        /* \"#utility.yul\":6020:6066   */\n      swap2\n      pop\n        /* \"#utility.yul\":5789:6072   */\n      pop\n        /* \"#utility.yul\":5699:6072   */\n      swap3\n      swap2\n      pop\n      pop\n      jump\t// out\n        /* \"#utility.yul\":6078:6387   */\n    tag_18:\n        /* \"#utility.yul\":6189:6193   */\n      0x00\n        /* \"#utility.yul\":6227:6229   */\n      0x20\n        /* \"#utility.yul\":6216:6225   */\n      dup3\n        /* \"#utility.yul\":6212:6230   */\n      add\n        /* \"#utility.yul\":6204:6230   */\n      swap1\n      pop\n        /* \"#utility.yul\":6276:6285   */\n      dup2\n        /* \"#utility.yul\":6270:6274   */\n      dup2\n        /* \"#utility.yul\":6266:6286   */\n      sub\n        /* \"#utility.yul\":6262:6263   */\n      0x00\n        /* \"#utility.yul\":6251:6260   */\n      dup4\n        /* \"#utility.yul\":6247:6264   */\n      add\n        /* \"#utility.yul\":6240:6287   */\n      mstore\n        /* \"#utility.yul\":6304:6380   */\n      tag_149\n        /* \"#utility.yul\":6375:6379   */\n      dup2\n        /* \"#utility.yul\":6366:6372   */\n      dup5\n        /* \"#utility.yul\":6304:6380   */\n      tag_61\n      jump\t// in\n    tag_149:\n        /* \"#utility.yul\":6296:6380   */\n      swap1\n      pop\n        /* \"#utility.yul\":6078:6387   */\n      swap3\n      swap2\n      pop\n      pop\n      jump\t// out\n        /* \"#utility.yul\":6393:6519   */\n    tag_62:\n        /* \"#utility.yul\":6430:6437   */\n      0x00\n        /* \"#utility.yul\":6470:6512   */\n      0xffffffffffffffffffffffffffffffffffffffff\n        /* \"#utility.yul\":6463:6468   */\n      dup3\n        /* \"#utility.yul\":6459:6513   */\n      and\n        /* \"#utility.yul\":6448:6513   */\n      swap1\n      pop\n        /* \"#utility.yul\":6393:6519   */\n      swap2\n      swap1\n      pop\n      jump\t// out\n        /* \"#utility.yul\":6525:6621   */\n    tag_63:\n        /* \"#utility.yul\":6562:6569   */\n      0x00\n        /* \"#utility.yul\":6591:6615   */\n      tag_152\n        /* \"#utility.yul\":6609:6614   */\n      dup3\n        /* \"#utility.yul\":6591:6615   */\n      tag_62\n      jump\t// in\n    tag_152:\n        /* \"#utility.yul\":6580:6615   */\n      swap1\n      pop\n        /* \"#utility.yul\":6525:6621   */\n      swap2\n      swap1\n      pop\n      jump\t// out\n        /* \"#utility.yul\":6627:6749   */\n    tag_64:\n        /* \"#utility.yul\":6700:6724   */\n      tag_154\n        /* \"#utility.yul\":6718:6723   */\n      dup2\n        /* \"#utility.yul\":6700:6724   */\n      tag_63\n      jump\t// in\n    tag_154:\n        /* \"#utility.yul\":6693:6698   */\n      dup2\n        /* \"#utility.yul\":6690:6725   */\n      eq\n        /* \"#utility.yul\":6680:6743   */\n      tag_155\n      jumpi\n        /* \"#utility.yul\":6739:6740   */\n      0x00\n        /* \"#utility.yul\":6736:6737   */\n      dup1\n        /* \"#utility.yul\":6729:6741   */\n      revert\n        /* \"#utility.yul\":6680:6743   */\n    tag_155:\n        /* \"#utility.yul\":6627:6749   */\n      pop\n      jump\t// out\n        /* \"#utility.yul\":6755:6894   */\n    tag_65:\n        /* \"#utility.yul\":6801:6806   */\n      0x00\n        /* \"#utility.yul\":6839:6845   */\n      dup2\n        /* \"#utility.yul\":6826:6846   */\n      calldataload\n        /* \"#utility.yul\":6817:6846   */\n      swap1\n      pop\n        /* \"#utility.yul\":6855:6888   */\n      tag_157\n        /* \"#utility.yul\":6882:6887   */\n      dup2\n        /* \"#utility.yul\":6855:6888   */\n      tag_64\n      jump\t// in\n    tag_157:\n        /* \"#utility.yul\":6755:6894   */\n      swap3\n      swap2\n      pop\n      pop\n      jump\t// out\n        /* \"#utility.yul\":6900:7699   */\n    tag_21:\n        /* \"#utility.yul\":6987:6993   */\n      0x00\n        /* \"#utility.yul\":6995:7001   */\n      dup1\n        /* \"#utility.yul\":7003:7009   */\n      0x00\n        /* \"#utility.yul\":7052:7054   */\n      0x60\n        /* \"#utility.yul\":7040:7049   */\n      dup5\n        /* \"#utility.yul\":7031:7038   */\n      dup7\n        /* \"#utility.yul\":7027:7050   */\n      sub\n        /* \"#utility.yul\":7023:7055   */\n      slt\n        /* \"#utility.yul\":7020:7139   */\n      iszero\n      tag_159\n      jumpi\n        /* \"#utility.yul\":7058:7137   */\n      tag_160\n      tag_41\n      jump\t// in\n    tag_160:\n        /* \"#utility.yul\":7020:7139   */\n    tag_159:\n        /* \"#utility.yul\":7206:7207   */\n      0x00\n        /* \"#utility.yul\":7195:7204   */\n      dup5\n        /* \"#utility.yul\":7191:7208   */\n      add\n        /* \"#utility.yul\":7178:7209   */\n      calldataload\n        /* \"#utility.yul\":7236:7254   */\n      0xffffffffffffffff\n        /* \"#utility.yul\":7228:7234   */\n      dup2\n        /* \"#utility.yul\":7225:7255   */\n      gt\n        /* \"#utility.yul\":7222:7339   */\n      iszero\n      tag_161\n      jumpi\n        /* \"#utility.yul\":7258:7337   */\n      tag_162\n      tag_42\n      jump\t// in\n    tag_162:\n        /* \"#utility.yul\":7222:7339   */\n    tag_161:\n        /* \"#utility.yul\":7363:7426   */\n      tag_163\n        /* \"#utility.yul\":7418:7425   */\n      dup7\n        /* \"#utility.yul\":7409:7415   */\n      dup3\n        /* \"#utility.yul\":7398:7407   */\n      dup8\n        /* \"#utility.yul\":7394:7416   */\n      add\n        /* \"#utility.yul\":7363:7426   */\n      tag_52\n      jump\t// in\n    tag_163:\n        /* \"#utility.yul\":7353:7426   */\n      swap4\n      pop\n        /* \"#utility.yul\":7149:7436   */\n      pop\n        /* \"#utility.yul\":7475:7477   */\n      0x20\n        /* \"#utility.yul\":7501:7554   */\n      tag_164\n        /* \"#utility.yul\":7546:7553   */\n      dup7\n        /* \"#utility.yul\":7537:7543   */\n      dup3\n        /* \"#utility.yul\":7526:7535   */\n      dup8\n        /* \"#utility.yul\":7522:7544   */\n      add\n        /* \"#utility.yul\":7501:7554   */\n      tag_55\n      jump\t// in\n    tag_164:\n        /* \"#utility.yul\":7491:7554   */\n      swap3\n      pop\n        /* \"#utility.yul\":7446:7564   */\n      pop\n        /* \"#utility.yul\":7603:7605   */\n      0x40\n        /* \"#utility.yul\":7629:7682   */\n      tag_165\n        /* \"#utility.yul\":7674:7681   */\n      dup7\n        /* \"#utility.yul\":7665:7671   */\n      dup3\n        /* \"#utility.yul\":7654:7663   */\n      dup8\n        /* \"#utility.yul\":7650:7672   */\n      add\n        /* \"#utility.yul\":7629:7682   */\n      tag_65\n      jump\t// in\n    tag_165:\n        /* \"#utility.yul\":7619:7682   */\n      swap2\n      pop\n        /* \"#utility.yul\":7574:7692   */\n      pop\n        /* \"#utility.yul\":6900:7699   */\n      swap3\n      pop\n      swap3\n      pop\n      swap3\n      jump\t// out\n        /* \"#utility.yul\":7705:7804   */\n    tag_66:\n        /* \"#utility.yul\":7757:7763   */\n      0x00\n        /* \"#utility.yul\":7791:7796   */\n      dup2\n        /* \"#utility.yul\":7785:7797   */\n      mload\n        /* \"#utility.yul\":7775:7797   */\n      swap1\n      pop\n        /* \"#utility.yul\":7705:7804   */\n      swap2\n      swap1\n      pop\n      jump\t// out\n        /* \"#utility.yul\":7810:7958   */\n    tag_67:\n        /* \"#utility.yul\":7912:7923   */\n      0x00\n        /* \"#utility.yul\":7949:7952   */\n      dup2\n        /* \"#utility.yul\":7934:7952   */\n      swap1\n      pop\n        /* \"#utility.yul\":7810:7958   */\n      swap3\n      swap2\n      pop\n      pop\n      jump\t// out\n        /* \"#utility.yul\":7964:8354   */\n    tag_68:\n        /* \"#utility.yul\":8070:8073   */\n      0x00\n        /* \"#utility.yul\":8098:8137   */\n      tag_169\n        /* \"#utility.yul\":8131:8136   */\n      dup3\n        /* \"#utility.yul\":8098:8137   */\n      tag_66\n      jump\t// in\n    tag_169:\n        /* \"#utility.yul\":8153:8242   */\n      tag_170\n        /* \"#utility.yul\":8235:8241   */\n      dup2\n        /* \"#utility.yul\":8230:8233   */\n      dup6\n        /* \"#utility.yul\":8153:8242   */\n      tag_67\n      jump\t// in\n    tag_170:\n        /* \"#utility.yul\":8146:8242   */\n      swap4\n      pop\n        /* \"#utility.yul\":8251:8316   */\n      tag_171\n        /* \"#utility.yul\":8309:8315   */\n      dup2\n        /* \"#utility.yul\":8304:8307   */\n      dup6\n        /* \"#utility.yul\":8297:8301   */\n      0x20\n        /* \"#utility.yul\":8290:8295   */\n      dup7\n        /* \"#utility.yul\":8286:8302   */\n      add\n        /* \"#utility.yul\":8251:8316   */\n      tag_60\n      jump\t// in\n    tag_171:\n        /* \"#utility.yul\":8341:8347   */\n      dup1\n        /* \"#utility.yul\":8336:8339   */\n      dup5\n        /* \"#utility.yul\":8332:8348   */\n      add\n        /* \"#utility.yul\":8325:8348   */\n      swap2\n      pop\n        /* \"#utility.yul\":8074:8354   */\n      pop\n        /* \"#utility.yul\":7964:8354   */\n      swap3\n      swap2\n      pop\n      pop\n      jump\t// out\n        /* \"#utility.yul\":8360:8439   */\n    tag_69:\n        /* \"#utility.yul\":8399:8406   */\n      0x00\n        /* \"#utility.yul\":8428:8433   */\n      dup2\n        /* \"#utility.yul\":8417:8433   */\n      swap1\n      pop\n        /* \"#utility.yul\":8360:8439   */\n      swap2\n      swap1\n      pop\n      jump\t// out\n        /* \"#utility.yul\":8445:8602   */\n    tag_70:\n        /* \"#utility.yul\":8550:8595   */\n      tag_174\n        /* \"#utility.yul\":8570:8594   */\n      tag_175\n        /* \"#utility.yul\":8588:8593   */\n      dup3\n        /* \"#utility.yul\":8570:8594   */\n      tag_53\n      jump\t// in\n    tag_175:\n        /* \"#utility.yul\":8550:8595   */\n      tag_69\n      jump\t// in\n    tag_174:\n        /* \"#utility.yul\":8545:8548   */\n      dup3\n        /* \"#utility.yul\":8538:8596   */\n      mstore\n        /* \"#utility.yul\":8445:8602   */\n      pop\n      pop\n      jump\t// out\n        /* \"#utility.yul\":8608:9184   */\n    tag_30:\n        /* \"#utility.yul\":8816:8819   */\n      0x00\n        /* \"#utility.yul\":8838:8933   */\n      tag_177\n        /* \"#utility.yul\":8929:8932   */\n      dup3\n        /* \"#utility.yul\":8920:8926   */\n      dup7\n        /* \"#utility.yul\":8838:8933   */\n      tag_68\n      jump\t// in\n    tag_177:\n        /* \"#utility.yul\":8831:8933   */\n      swap2\n      pop\n        /* \"#utility.yul\":8943:9018   */\n      tag_178\n        /* \"#utility.yul\":9014:9017   */\n      dup3\n        /* \"#utility.yul\":9005:9011   */\n      dup6\n        /* \"#utility.yul\":8943:9018   */\n      tag_70\n      jump\t// in\n    tag_178:\n        /* \"#utility.yul\":9043:9045   */\n      0x20\n        /* \"#utility.yul\":9038:9041   */\n      dup3\n        /* \"#utility.yul\":9034:9046   */\n      add\n        /* \"#utility.yul\":9027:9046   */\n      swap2\n      pop\n        /* \"#utility.yul\":9063:9158   */\n      tag_179\n        /* \"#utility.yul\":9154:9157   */\n      dup3\n        /* \"#utility.yul\":9145:9151   */\n      dup5\n        /* \"#utility.yul\":9063:9158   */\n      tag_68\n      jump\t// in\n    tag_179:\n        /* \"#utility.yul\":9056:9158   */\n      swap2\n      pop\n        /* \"#utility.yul\":9175:9178   */\n      dup2\n        /* \"#utility.yul\":9168:9178   */\n      swap1\n      pop\n        /* \"#utility.yul\":8608:9184   */\n      swap5\n      swap4\n      pop\n      pop\n      pop\n      pop\n      jump\t// out\n        /* \"#utility.yul\":9190:9359   */\n    tag_71:\n        /* \"#utility.yul\":9274:9285   */\n      0x00\n        /* \"#utility.yul\":9308:9314   */\n      dup3\n        /* \"#utility.yul\":9303:9306   */\n      dup3\n        /* \"#utility.yul\":9296:9315   */\n      mstore\n        /* \"#utility.yul\":9348:9352   */\n      0x20\n        /* \"#utility.yul\":9343:9346   */\n      dup3\n        /* \"#utility.yul\":9339:9353   */\n      add\n        /* \"#utility.yul\":9324:9353   */\n      swap1\n      pop\n        /* \"#utility.yul\":9190:9359   */\n      swap3\n      swap2\n      pop\n      pop\n      jump\t// out\n        /* \"#utility.yul\":9365:9742   */\n    tag_72:\n        /* \"#utility.yul\":9453:9456   */\n      0x00\n        /* \"#utility.yul\":9481:9520   */\n      tag_182\n        /* \"#utility.yul\":9514:9519   */\n      dup3\n        /* \"#utility.yul\":9481:9520   */\n      tag_66\n      jump\t// in\n    tag_182:\n        /* \"#utility.yul\":9536:9607   */\n      tag_183\n        /* \"#utility.yul\":9600:9606   */\n      dup2\n        /* \"#utility.yul\":9595:9598   */\n      dup6\n        /* \"#utility.yul\":9536:9607   */\n      tag_71\n      jump\t// in\n    tag_183:\n        /* \"#utility.yul\":9529:9607   */\n      swap4\n      pop\n        /* \"#utility.yul\":9616:9681   */\n      tag_184\n        /* \"#utility.yul\":9674:9680   */\n      dup2\n        /* \"#utility.yul\":9669:9672   */\n      dup6\n        /* \"#utility.yul\":9662:9666   */\n      0x20\n        /* \"#utility.yul\":9655:9660   */\n      dup7\n        /* \"#utility.yul\":9651:9667   */\n      add\n        /* \"#utility.yul\":9616:9681   */\n      tag_60\n      jump\t// in\n    tag_184:\n        /* \"#utility.yul\":9706:9735   */\n      tag_185\n        /* \"#utility.yul\":9728:9734   */\n      dup2\n        /* \"#utility.yul\":9706:9735   */\n      tag_45\n      jump\t// in\n    tag_185:\n        /* \"#utility.yul\":9701:9704   */\n      dup5\n        /* \"#utility.yul\":9697:9736   */\n      add\n        /* \"#utility.yul\":9690:9736   */\n      swap2\n      pop\n        /* \"#utility.yul\":9457:9742   */\n      pop\n        /* \"#utility.yul\":9365:9742   */\n      swap3\n      swap2\n      pop\n      pop\n      jump\t// out\n        /* \"#utility.yul\":9748:10262   */\n    tag_33:\n        /* \"#utility.yul\":9909:9913   */\n      0x00\n        /* \"#utility.yul\":9947:9949   */\n      0x40\n        /* \"#utility.yul\":9936:9945   */\n      dup3\n        /* \"#utility.yul\":9932:9950   */\n      add\n        /* \"#utility.yul\":9924:9950   */\n      swap1\n      pop\n        /* \"#utility.yul\":9996:10005   */\n      dup2\n        /* \"#utility.yul\":9990:9994   */\n      dup2\n        /* \"#utility.yul\":9986:10006   */\n      sub\n        /* \"#utility.yul\":9982:9983   */\n      0x00\n        /* \"#utility.yul\":9971:9980   */\n      dup4\n        /* \"#utility.yul\":9967:9984   */\n      add\n        /* \"#utility.yul\":9960:10007   */\n      mstore\n        /* \"#utility.yul\":10024:10102   */\n      tag_187\n        /* \"#utility.yul\":10097:10101   */\n      dup2\n        /* \"#utility.yul\":10088:10094   */\n      dup6\n        /* \"#utility.yul\":10024:10102   */\n      tag_72\n      jump\t// in\n    tag_187:\n        /* \"#utility.yul\":10016:10102   */\n      swap1\n      pop\n        /* \"#utility.yul\":10149:10158   */\n      dup2\n        /* \"#utility.yul\":10143:10147   */\n      dup2\n        /* \"#utility.yul\":10139:10159   */\n      sub\n        /* \"#utility.yul\":10134:10136   */\n      0x20\n        /* \"#utility.yul\":10123:10132   */\n      dup4\n        /* \"#utility.yul\":10119:10137   */\n      add\n        /* \"#utility.yul\":10112:10160   */\n      mstore\n        /* \"#utility.yul\":10177:10255   */\n      tag_188\n        /* \"#utility.yul\":10250:10254   */\n      dup2\n        /* \"#utility.yul\":10241:10247   */\n      dup5\n        /* \"#utility.yul\":10177:10255   */\n      tag_72\n      jump\t// in\n    tag_188:\n        /* \"#utility.yul\":10169:10255   */\n      swap1\n      pop\n        /* \"#utility.yul\":9748:10262   */\n      swap4\n      swap3\n      pop\n      pop\n      pop\n      jump\t// out\n        /* \"#utility.yul\":10268:10362   */\n    tag_73:\n        /* \"#utility.yul\":10301:10309   */\n      0x00\n        /* \"#utility.yul\":10349:10354   */\n      dup2\n        /* \"#utility.yul\":10345:10347   */\n      0x60\n        /* \"#utility.yul\":10341:10355   */\n      shl\n        /* \"#utility.yul\":10320:10355   */\n      swap1\n      pop\n        /* \"#utility.yul\":10268:10362   */\n      swap2\n      swap1\n      pop\n      jump\t// out\n        /* \"#utility.yul\":10368:10462   */\n    tag_74:\n        /* \"#utility.yul\":10407:10414   */\n      0x00\n        /* \"#utility.yul\":10436:10456   */\n      tag_191\n        /* \"#utility.yul\":10450:10455   */\n      dup3\n        /* \"#utility.yul\":10436:10456   */\n      tag_73\n      jump\t// in\n    tag_191:\n        /* \"#utility.yul\":10425:10456   */\n      swap1\n      pop\n        /* \"#utility.yul\":10368:10462   */\n      swap2\n      swap1\n      pop\n      jump\t// out\n        /* \"#utility.yul\":10468:10568   */\n    tag_75:\n        /* \"#utility.yul\":10507:10514   */\n      0x00\n        /* \"#utility.yul\":10536:10562   */\n      tag_193\n        /* \"#utility.yul\":10556:10561   */\n      dup3\n        /* \"#utility.yul\":10536:10562   */\n      tag_74\n      jump\t// in\n    tag_193:\n        /* \"#utility.yul\":10525:10562   */\n      swap1\n      pop\n        /* \"#utility.yul\":10468:10568   */\n      swap2\n      swap1\n      pop\n      jump\t// out\n        /* \"#utility.yul\":10574:10731   */\n    tag_76:\n        /* \"#utility.yul\":10679:10724   */\n      tag_195\n        /* \"#utility.yul\":10699:10723   */\n      tag_196\n        /* \"#utility.yul\":10717:10722   */\n      dup3\n        /* \"#utility.yul\":10699:10723   */\n      tag_63\n      jump\t// in\n    tag_196:\n        /* \"#utility.yul\":10679:10724   */\n      tag_75\n      jump\t// in\n    tag_195:\n        /* \"#utility.yul\":10674:10677   */\n      dup3\n        /* \"#utility.yul\":10667:10725   */\n      mstore\n        /* \"#utility.yul\":10574:10731   */\n      pop\n      pop\n      jump\t// out\n        /* \"#utility.yul\":10737:11294   */\n    tag_36:\n        /* \"#utility.yul\":10925:10928   */\n      0x00\n        /* \"#utility.yul\":10947:11042   */\n      tag_198\n        /* \"#utility.yul\":11038:11041   */\n      dup3\n        /* \"#utility.yul\":11029:11035   */\n      dup7\n        /* \"#utility.yul\":10947:11042   */\n      tag_68\n      jump\t// in\n    tag_198:\n        /* \"#utility.yul\":10940:11042   */\n      swap2\n      pop\n        /* \"#utility.yul\":11052:11127   */\n      tag_199\n        /* \"#utility.yul\":11123:11126   */\n      dup3\n        /* \"#utility.yul\":11114:11120   */\n      dup6\n        /* \"#utility.yul\":11052:11127   */\n      tag_70\n      jump\t// in\n    tag_199:\n        /* \"#utility.yul\":11152:11154   */\n      0x20\n        /* \"#utility.yul\":11147:11150   */\n      dup3\n        /* \"#utility.yul\":11143:11155   */\n      add\n        /* \"#utility.yul\":11136:11155   */\n      swap2\n      pop\n        /* \"#utility.yul\":11165:11240   */\n      tag_200\n        /* \"#utility.yul\":11236:11239   */\n      dup3\n        /* \"#utility.yul\":11227:11233   */\n      dup5\n        /* \"#utility.yul\":11165:11240   */\n      tag_76\n      jump\t// in\n    tag_200:\n        /* \"#utility.yul\":11265:11267   */\n      0x14\n        /* \"#utility.yul\":11260:11263   */\n      dup3\n        /* \"#utility.yul\":11256:11268   */\n      add\n        /* \"#utility.yul\":11249:11268   */\n      swap2\n      pop\n        /* \"#utility.yul\":11285:11288   */\n      dup2\n        /* \"#utility.yul\":11278:11288   */\n      swap1\n      pop\n        /* \"#utility.yul\":10737:11294   */\n      swap5\n      swap4\n      pop\n      pop\n      pop\n      pop\n      jump\t// out\n        /* \"#utility.yul\":11300:11735   */\n    tag_39:\n        /* \"#utility.yul\":11480:11483   */\n      0x00\n        /* \"#utility.yul\":11502:11597   */\n      tag_202\n        /* \"#utility.yul\":11593:11596   */\n      dup3\n        /* \"#utility.yul\":11584:11590   */\n      dup6\n        /* \"#utility.yul\":11502:11597   */\n      tag_68\n      jump\t// in\n    tag_202:\n        /* \"#utility.yul\":11495:11597   */\n      swap2\n      pop\n        /* \"#utility.yul\":11614:11709   */\n      tag_203\n        /* \"#utility.yul\":11705:11708   */\n      dup3\n        /* \"#utility.yul\":11696:11702   */\n      dup5\n        /* \"#utility.yul\":11614:11709   */\n      tag_68\n      jump\t// in\n    tag_203:\n        /* \"#utility.yul\":11607:11709   */\n      swap2\n      pop\n        /* \"#utility.yul\":11726:11729   */\n      dup2\n        /* \"#utility.yul\":11719:11729   */\n      swap1\n      pop\n        /* \"#utility.yul\":11300:11735   */\n      swap4\n      swap3\n      pop\n      pop\n      pop\n      jump\t// out\n\n    auxdata: 0xa2646970667358221220b8c8d66097ed3b71f5db1d1e330e5ea7c99c5fa044e981ddbcc991d99670d07064736f6c63430008130033\n}\n",
				"bytecode": {
					"linkReferences": {},
					"object": "608060405234801561001057600080fd5b50610803806100206000396000f3fe608060405234801561001057600080fd5b506004361061004c5760003560e01c806309518e1e1461005157806317fe2da2146100815780635dda416e146100b1578063892e5d01146100e1575b600080fd5b61006b60048036038101906100669190610365565b610111565b6040516100789190610409565b60405180910390f35b61009b60048036038101906100969190610424565b610147565b6040516100a8919061051b565b60405180910390f35b6100cb60048036038101906100c6919061059b565b610173565b6040516100d89190610409565b60405180910390f35b6100fb60048036038101906100f69190610424565b6101a9565b604051610108919061051b565b60405180910390f35b600083838360405160200161012893929190610672565b6040516020818303038152906040528051906020012090509392505050565b6060828260405160200161015c9291906106f1565b604051602081830303815290604052905092915050565b600083838360405160200161018a93929190610770565b6040516020818303038152906040528051906020012090509392505050565b606082826040516020016101be9291906107a9565b604051602081830303815290604052905092915050565b6000604051905090565b600080fd5b600080fd5b600080fd5b600080fd5b6000601f19601f8301169050919050565b7f4e487b7100000000000000000000000000000000000000000000000000000000600052604160045260246000fd5b61023c826101f3565b810181811067ffffffffffffffff8211171561025b5761025a610204565b5b80604052505050565b600061026e6101d5565b905061027a8282610233565b919050565b600067ffffffffffffffff82111561029a57610299610204565b5b6102a3826101f3565b9050602081019050919050565b82818337600083830152505050565b60006102d26102cd8461027f565b610264565b9050828152602081018484840111156102ee576102ed6101ee565b5b6102f98482856102b0565b509392505050565b600082601f830112610316576103156101e9565b5b81356103268482602086016102bf565b91505092915050565b6000819050919050565b6103428161032f565b811461034d57600080fd5b50565b60008135905061035f81610339565b92915050565b60008060006060848603121561037e5761037d6101df565b5b600084013567ffffffffffffffff81111561039c5761039b6101e4565b5b6103a886828701610301565b93505060206103b986828701610350565b925050604084013567ffffffffffffffff8111156103da576103d96101e4565b5b6103e686828701610301565b9150509250925092565b6000819050919050565b610403816103f0565b82525050565b600060208201905061041e60008301846103fa565b92915050565b6000806040838503121561043b5761043a6101df565b5b600083013567ffffffffffffffff811115610459576104586101e4565b5b61046585828601610301565b925050602083013567ffffffffffffffff811115610486576104856101e4565b5b61049285828601610301565b9150509250929050565b600081519050919050565b600082825260208201905092915050565b60005b838110156104d65780820151818401526020810190506104bb565b60008484015250505050565b60006104ed8261049c565b6104f781856104a7565b93506105078185602086016104b8565b610510816101f3565b840191505092915050565b6000602082019050818103600083015261053581846104e2565b905092915050565b600073ffffffffffffffffffffffffffffffffffffffff82169050919050565b60006105688261053d565b9050919050565b6105788161055d565b811461058357600080fd5b50565b6000813590506105958161056f565b92915050565b6000806000606084860312156105b4576105b36101df565b5b600084013567ffffffffffffffff8111156105d2576105d16101e4565b5b6105de86828701610301565b93505060206105ef86828701610350565b925050604061060086828701610586565b9150509250925092565b600081519050919050565b600081905092915050565b600061062b8261060a565b6106358185610615565b93506106458185602086016104b8565b80840191505092915050565b6000819050919050565b61066c6106678261032f565b610651565b82525050565b600061067e8286610620565b915061068a828561065b565b60208201915061069a8284610620565b9150819050949350505050565b600082825260208201905092915050565b60006106c38261060a565b6106cd81856106a7565b93506106dd8185602086016104b8565b6106e6816101f3565b840191505092915050565b6000604082019050818103600083015261070b81856106b8565b9050818103602083015261071f81846106b8565b90509392505050565b60008160601b9050919050565b600061074082610728565b9050919050565b600061075282610735565b9050919050565b61076a6107658261055d565b610747565b82525050565b600061077c8286610620565b9150610788828561065b565b6020820191506107988284610759565b601482019150819050949350505050565b60006107b58285610620565b91506107c18284610620565b9150819050939250505056fea2646970667358221220b8c8d66097ed3b71f5db1d1e330e5ea7c99c5fa044e981ddbcc991d99670d07064736f6c63430008130033",
					"opcodes": "PUSH1 0x80 PUSH1 0x40 MSTORE CALLVALUE DUP1 ISZERO PUSH2 0x10 JUMPI PUSH1 0x0 DUP1 REVERT JUMPDEST POP PUSH2 0x803 DUP1 PUSH2 0x20 PUSH1 0x0 CODECOPY PUSH1 0x0 RETURN INVALID PUSH1 0x80 PUSH1 0x40 MSTORE CALLVALUE DUP1 ISZERO PUSH2 0x10 JUMPI PUSH1 0x0 DUP1 REVERT JUMPDEST POP PUSH1 0x4 CALLDATASIZE LT PUSH2 0x4C JUMPI PUSH1 0x0 CALLDATALOAD PUSH1 0xE0 SHR DUP1 PUSH4 0x9518E1E EQ PUSH2 0x51 JUMPI DUP1 PUSH4 0x17FE2DA2 EQ PUSH2 0x81 JUMPI DUP1 PUSH4 0x5DDA416E EQ PUSH2 0xB1 JUMPI DUP1 PUSH4 0x892E5D01 EQ PUSH2 0xE1 JUMPI JUMPDEST PUSH1 0x0 DUP1 REVERT JUMPDEST PUSH2 0x6B PUSH1 0x4 DUP1 CALLDATASIZE SUB DUP2 ADD SWAP1 PUSH2 0x66 SWAP2 SWAP1 PUSH2 0x365 JUMP JUMPDEST PUSH2 0x111 JUMP JUMPDEST PUSH1 0x40 MLOAD PUSH2 0x78 SWAP2 SWAP1 PUSH2 0x409 JUMP JUMPDEST PUSH1 0x40 MLOAD DUP1 SWAP2 SUB SWAP1 RETURN JUMPDEST PUSH2 0x9B PUSH1 0x4 DUP1 CALLDATASIZE SUB DUP2 ADD SWAP1 PUSH2 0x96 SWAP2 SWAP1 PUSH2 0x424 JUMP JUMPDEST PUSH2 0x147 JUMP JUMPDEST PUSH1 0x40 MLOAD PUSH2 0xA8 SWAP2 SWAP1 PUSH2 0x51B JUMP JUMPDEST PUSH1 0x40 MLOAD DUP1 SWAP2 SUB SWAP1 RETURN JUMPDEST PUSH2 0xCB PUSH1 0x4 DUP1 CALLDATASIZE SUB DUP2 ADD SWAP1 PUSH2 0xC6 SWAP2 SWAP1 PUSH2 0x59B JUMP JUMPDEST PUSH2 0x173 JUMP JUMPDEST PUSH1 0x40 MLOAD PUSH2 0xD8 SWAP2 SWAP1 PUSH2 0x409 JUMP JUMPDEST PUSH1 0x40 MLOAD DUP1 SWAP2 SUB SWAP1 RETURN JUMPDEST PUSH2 0xFB PUSH1 0x4 DUP1 CALLDATASIZE SUB DUP2 ADD SWAP1 PUSH2 0xF6 SWAP2 SWAP1 PUSH2 0x424 JUMP JUMPDEST PUSH2 0x1A9 JUMP JUMPDEST PUSH1 0x40 MLOAD PUSH2 0x108 SWAP2 SWAP1 PUSH2 0x51B JUMP JUMPDEST PUSH1 0x40 MLOAD DUP1 SWAP2 SUB SWAP1 RETURN JUMPDEST PUSH1 0x0 DUP4 DUP4 DUP4 PUSH1 0x40 MLOAD PUSH1 0x20 ADD PUSH2 0x128 SWAP4 SWAP3 SWAP2 SWAP1 PUSH2 0x672 JUMP JUMPDEST PUSH1 0x40 MLOAD PUSH1 0x20 DUP2 DUP4 SUB SUB DUP2 MSTORE SWAP1 PUSH1 0x40 MSTORE DUP1 MLOAD SWAP1 PUSH1 0x20 ADD KECCAK256 SWAP1 POP SWAP4 SWAP3 POP POP POP JUMP JUMPDEST PUSH1 0x60 DUP3 DUP3 PUSH1 0x40 MLOAD PUSH1 0x20 ADD PUSH2 0x15C SWAP3 SWAP2 SWAP1 PUSH2 0x6F1 JUMP JUMPDEST PUSH1 0x40 MLOAD PUSH1 0x20 DUP2 DUP4 SUB SUB DUP2 MSTORE SWAP1 PUSH1 0x40 MSTORE SWAP1 POP SWAP3 SWAP2 POP POP JUMP JUMPDEST PUSH1 0x0 DUP4 DUP4 DUP4 PUSH1 0x40 MLOAD PUSH1 0x20 ADD PUSH2 0x18A SWAP4 SWAP3 SWAP2 SWAP1 PUSH2 0x770 JUMP JUMPDEST PUSH1 0x40 MLOAD PUSH1 0x20 DUP2 DUP4 SUB SUB DUP2 MSTORE SWAP1 PUSH1 0x40 MSTORE DUP1 MLOAD SWAP1 PUSH1 0x20 ADD KECCAK256 SWAP1 POP SWAP4 SWAP3 POP POP POP JUMP JUMPDEST PUSH1 0x60 DUP3 DUP3 PUSH1 0x40 MLOAD PUSH1 0x20 ADD PUSH2 0x1BE SWAP3 SWAP2 SWAP1 PUSH2 0x7A9 JUMP JUMPDEST PUSH1 0x40 MLOAD PUSH1 0x20 DUP2 DUP4 SUB SUB DUP2 MSTORE SWAP1 PUSH1 0x40 MSTORE SWAP1 POP SWAP3 SWAP2 POP POP JUMP JUMPDEST PUSH1 0x0 PUSH1 0x40 MLOAD SWAP1 POP SWAP1 JUMP JUMPDEST PUSH1 0x0 DUP1 REVERT JUMPDEST PUSH1 0x0 DUP1 REVERT JUMPDEST PUSH1 0x0 DUP1 REVERT JUMPDEST PUSH1 0x0 DUP1 REVERT JUMPDEST PUSH1 0x0 PUSH1 0x1F NOT PUSH1 0x1F DUP4 ADD AND SWAP1 POP SWAP2 SWAP1 POP JUMP JUMPDEST PUSH32 0x4E487B7100000000000000000000000000000000000000000000000000000000 PUSH1 0x0 MSTORE PUSH1 0x41 PUSH1 0x4 MSTORE PUSH1 0x24 PUSH1 0x0 REVERT JUMPDEST PUSH2 0x23C DUP3 PUSH2 0x1F3 JUMP JUMPDEST DUP2 ADD DUP2 DUP2 LT PUSH8 0xFFFFFFFFFFFFFFFF DUP3 GT OR ISZERO PUSH2 0x25B JUMPI PUSH2 0x25A PUSH2 0x204 JUMP JUMPDEST JUMPDEST DUP1 PUSH1 0x40 MSTORE POP POP POP JUMP JUMPDEST PUSH1 0x0 PUSH2 0x26E PUSH2 0x1D5 JUMP JUMPDEST SWAP1 POP PUSH2 0x27A DUP3 DUP3 PUSH2 0x233 JUMP JUMPDEST SWAP2 SWAP1 POP JUMP JUMPDEST PUSH1 0x0 PUSH8 0xFFFFFFFFFFFFFFFF DUP3 GT ISZERO PUSH2 0x29A JUMPI PUSH2 0x299 PUSH2 0x204 JUMP JUMPDEST JUMPDEST PUSH2 0x2A3 DUP3 PUSH2 0x1F3 JUMP JUMPDEST SWAP1 POP PUSH1 0x20 DUP2 ADD SWAP1 POP SWAP2 SWAP1 POP JUMP JUMPDEST DUP3 DUP2 DUP4 CALLDATACOPY PUSH1 0x0 DUP4 DUP4 ADD MSTORE POP POP POP JUMP JUMPDEST PUSH1 0x0 PUSH2 0x2D2 PUSH2 0x2CD DUP5 PUSH2 0x27F JUMP JUMPDEST PUSH2 0x264 JUMP JUMPDEST SWAP1 POP DUP3 DUP2 MSTORE PUSH1 0x20 DUP2 ADD DUP5 DUP5 DUP5 ADD GT ISZERO PUSH2 0x2EE JUMPI PUSH2 0x2ED PUSH2 0x1EE JUMP JUMPDEST JUMPDEST PUSH2 0x2F9 DUP5 DUP3 DUP6 PUSH2 0x2B0 JUMP JUMPDEST POP SWAP4 SWAP3 POP POP POP JUMP JUMPDEST PUSH1 0x0 DUP3 PUSH1 0x1F DUP4 ADD SLT PUSH2 0x316 JUMPI PUSH2 0x315 PUSH2 0x1E9 JUMP JUMPDEST JUMPDEST DUP2 CALLDATALOAD PUSH2 0x326 DUP5 DUP3 PUSH1 0x20 DUP7 ADD PUSH2 0x2BF JUMP JUMPDEST SWAP2 POP POP SWAP3 SWAP2 POP POP JUMP JUMPDEST PUSH1 0x0 DUP2 SWAP1 POP SWAP2 SWAP1 POP JUMP JUMPDEST PUSH2 0x342 DUP2 PUSH2 0x32F JUMP JUMPDEST DUP2 EQ PUSH2 0x34D JUMPI PUSH1 0x0 DUP1 REVERT JUMPDEST POP JUMP JUMPDEST PUSH1 0x0 DUP2 CALLDATALOAD SWAP1 POP PUSH2 0x35F DUP2 PUSH2 0x339 JUMP JUMPDEST SWAP3 SWAP2 POP POP JUMP JUMPDEST PUSH1 0x0 DUP1 PUSH1 0x0 PUSH1 0x60 DUP5 DUP7 SUB SLT ISZERO PUSH2 0x37E JUMPI PUSH2 0x37D PUSH2 0x1DF JUMP JUMPDEST JUMPDEST PUSH1 0x0 DUP5 ADD CALLDATALOAD PUSH8 0xFFFFFFFFFFFFFFFF DUP2 GT ISZERO PUSH2 0x39C JUMPI PUSH2 0x39B PUSH2 0x1E4 JUMP JUMPDEST JUMPDEST PUSH2 0x3A8 DUP7 DUP3 DUP8 ADD PUSH2 0x301 JUMP JUMPDEST SWAP4 POP POP PUSH1 0x20 PUSH2 0x3B9 DUP7 DUP3 DUP8 ADD PUSH2 0x350 JUMP JUMPDEST SWAP3 POP POP PUSH1 0x40 DUP5 ADD CALLDATALOAD PUSH8 0xFFFFFFFFFFFFFFFF DUP2 GT ISZERO PUSH2 0x3DA JUMPI PUSH2 0x3D9 PUSH2 0x1E4 JUMP JUMPDEST JUMPDEST PUSH2 0x3E6 DUP7 DUP3 DUP8 ADD PUSH2 0x301 JUMP JUMPDEST SWAP2 POP POP SWAP3 POP SWAP3 POP SWAP3 JUMP JUMPDEST PUSH1 0x0 DUP2 SWAP1 POP SWAP2 SWAP1 POP JUMP JUMPDEST PUSH2 0x403 DUP2 PUSH2 0x3F0 JUMP JUMPDEST DUP3 MSTORE POP POP JUMP JUMPDEST PUSH1 0x0 PUSH1 0x20 DUP3 ADD SWAP1 POP PUSH2 0x41E PUSH1 0x0 DUP4 ADD DUP5 PUSH2 0x3FA JUMP JUMPDEST SWAP3 SWAP2 POP POP JUMP JUMPDEST PUSH1 0x0 DUP1 PUSH1 0x40 DUP4 DUP6 SUB SLT ISZERO PUSH2 0x43B JUMPI PUSH2 0x43A PUSH2 0x1DF JUMP JUMPDEST JUMPDEST PUSH1 0x0 DUP4 ADD CALLDATALOAD PUSH8 0xFFFFFFFFFFFFFFFF DUP2 GT ISZERO PUSH2 0x459 JUMPI PUSH2 0x458 PUSH2 0x1E4 JUMP JUMPDEST JUMPDEST PUSH2 0x465 DUP6 DUP3 DUP7 ADD PUSH2 0x301 JUMP JUMPDEST SWAP3 POP POP PUSH1 0x20 DUP4 ADD CALLDATALOAD PUSH8 0xFFFFFFFFFFFFFFFF DUP2 GT ISZERO PUSH2 0x486 JUMPI PUSH2 0x485 PUSH2 0x1E4 JUMP JUMPDEST JUMPDEST PUSH2 0x492 DUP6 DUP3 DUP7 ADD PUSH2 0x301 JUMP JUMPDEST SWAP2 POP POP SWAP3 POP SWAP3 SWAP1 POP JUMP JUMPDEST PUSH1 0x0 DUP2 MLOAD SWAP1 POP SWAP2 SWAP1 POP JUMP JUMPDEST PUSH1 0x0 DUP3 DUP3 MSTORE PUSH1 0x20 DUP3 ADD SWAP1 POP SWAP3 SWAP2 POP POP JUMP JUMPDEST PUSH1 0x0 JUMPDEST DUP4 DUP2 LT ISZERO PUSH2 0x4D6 JUMPI DUP1 DUP3 ADD MLOAD DUP2 DUP5 ADD MSTORE PUSH1 0x20 DUP2 ADD SWAP1 POP PUSH2 0x4BB JUMP JUMPDEST PUSH1 0x0 DUP5 DUP5 ADD MSTORE POP POP POP POP JUMP JUMPDEST PUSH1 0x0 PUSH2 0x4ED DUP3 PUSH2 0x49C JUMP JUMPDEST PUSH2 0x4F7 DUP2 DUP6 PUSH2 0x4A7 JUMP JUMPDEST SWAP4 POP PUSH2 0x507 DUP2 DUP6 PUSH1 0x20 DUP7 ADD PUSH2 0x4B8 JUMP JUMPDEST PUSH2 0x510 DUP2 PUSH2 0x1F3 JUMP JUMPDEST DUP5 ADD SWAP2 POP POP SWAP3 SWAP2 POP POP JUMP JUMPDEST PUSH1 0x0 PUSH1 0x20 DUP3 ADD SWAP1 POP DUP2 DUP2 SUB PUSH1 0x0 DUP4 ADD MSTORE PUSH2 0x535 DUP2 DUP5 PUSH2 0x4E2 JUMP JUMPDEST SWAP1 POP SWAP3 SWAP2 POP POP JUMP JUMPDEST PUSH1 0x0 PUSH20 0xFFFFFFFFFFFFFFFFFFFFFFFFFFFFFFFFFFFFFFFF DUP3 AND SWAP1 POP SWAP2 SWAP1 POP JUMP JUMPDEST PUSH1 0x0 PUSH2 0x568 DUP3 PUSH2 0x53D JUMP JUMPDEST SWAP1 POP SWAP2 SWAP1 POP JUMP JUMPDEST PUSH2 0x578 DUP2 PUSH2 0x55D JUMP JUMPDEST DUP2 EQ PUSH2 0x583 JUMPI PUSH1 0x0 DUP1 REVERT JUMPDEST POP JUMP JUMPDEST PUSH1 0x0 DUP2 CALLDATALOAD SWAP1 POP PUSH2 0x595 DUP2 PUSH2 0x56F JUMP JUMPDEST SWAP3 SWAP2 POP POP JUMP JUMPDEST PUSH1 0x0 DUP1 PUSH1 0x0 PUSH1 0x60 DUP5 DUP7 SUB SLT ISZERO PUSH2 0x5B4 JUMPI PUSH2 0x5B3 PUSH2 0x1DF JUMP JUMPDEST JUMPDEST PUSH1 0x0 DUP5 ADD CALLDATALOAD PUSH8 0xFFFFFFFFFFFFFFFF DUP2 GT ISZERO PUSH2 0x5D2 JUMPI PUSH2 0x5D1 PUSH2 0x1E4 JUMP JUMPDEST JUMPDEST PUSH2 0x5DE DUP7 DUP3 DUP8 ADD PUSH2 0x301 JUMP JUMPDEST SWAP4 POP POP PUSH1 0x20 PUSH2 0x5EF DUP7 DUP3 DUP8 ADD PUSH2 0x350 JUMP JUMPDEST SWAP3 POP POP PUSH1 0x40 PUSH2 0x600 DUP7 DUP3 DUP8 ADD PUSH2 0x586 JUMP JUMPDEST SWAP2 POP POP SWAP3 POP SWAP3 POP SWAP3 JUMP JUMPDEST PUSH1 0x0 DUP2 MLOAD SWAP1 POP SWAP2 SWAP1 POP JUMP JUMPDEST PUSH1 0x0 DUP2 SWAP1 POP SWAP3 SWAP2 POP POP JUMP JUMPDEST PUSH1 0x0 PUSH2 0x62B DUP3 PUSH2 0x60A JUMP JUMPDEST PUSH2 0x635 DUP2 DUP6 PUSH2 0x615 JUMP JUMPDEST SWAP4 POP PUSH2 0x645 DUP2 DUP6 PUSH1 0x20 DUP7 ADD PUSH2 0x4B8 JUMP JUMPDEST DUP1 DUP5 ADD SWAP2 POP POP SWAP3 SWAP2 POP POP JUMP JUMPDEST PUSH1 0x0 DUP2 SWAP1 POP SWAP2 SWAP1 POP JUMP JUMPDEST PUSH2 0x66C PUSH2 0x667 DUP3 PUSH2 0x32F JUMP JUMPDEST PUSH2 0x651 JUMP JUMPDEST DUP3 MSTORE POP POP JUMP JUMPDEST PUSH1 0x0 PUSH2 0x67E DUP3 DUP7 PUSH2 0x620 JUMP JUMPDEST SWAP2 POP PUSH2 0x68A DUP3 DUP6 PUSH2 0x65B JUMP JUMPDEST PUSH1 0x20 DUP3 ADD SWAP2 POP PUSH2 0x69A DUP3 DUP5 PUSH2 0x620 JUMP JUMPDEST SWAP2 POP DUP2 SWAP1 POP SWAP5 SWAP4 POP POP POP POP JUMP JUMPDEST PUSH1 0x0 DUP3 DUP3 MSTORE PUSH1 0x20 DUP3 ADD SWAP1 POP SWAP3 SWAP2 POP POP JUMP JUMPDEST PUSH1 0x0 PUSH2 0x6C3 DUP3 PUSH2 0x60A JUMP JUMPDEST PUSH2 0x6CD DUP2 DUP6 PUSH2 0x6A7 JUMP JUMPDEST SWAP4 POP PUSH2 0x6DD DUP2 DUP6 PUSH1 0x20 DUP7 ADD PUSH2 0x4B8 JUMP JUMPDEST PUSH2 0x6E6 DUP2 PUSH2 0x1F3 JUMP JUMPDEST DUP5 ADD SWAP2 POP POP SWAP3 SWAP2 POP POP JUMP JUMPDEST PUSH1 0x0 PUSH1 0x40 DUP3 ADD SWAP1 POP DUP2 DUP2 SUB PUSH1 0x0 DUP4 ADD MSTORE PUSH2 0x70B DUP2 DUP6 PUSH2 0x6B8 JUMP JUMPDEST SWAP1 POP DUP2 DUP2 SUB PUSH1 0x20 DUP4 ADD MSTORE PUSH2 0x71F DUP2 DUP5 PUSH2 0x6B8 JUMP JUMPDEST SWAP1 POP SWAP4 SWAP3 POP POP POP JUMP JUMPDEST PUSH1 0x0 DUP2 PUSH1 0x60 SHL SWAP1 POP SWAP2 SWAP1 POP JUMP JUMPDEST PUSH1 0x0 PUSH2 0x740 DUP3 PUSH2 0x728 JUMP JUMPDEST SWAP1 POP SWAP2 SWAP1 POP JUMP JUMPDEST PUSH1 0x0 PUSH2 0x752 DUP3 PUSH2 0x735 JUMP JUMPDEST SWAP1 POP SWAP2 SWAP1 POP JUMP JUMPDEST PUSH2 0x76A PUSH2 0x765 DUP3 PUSH2 0x55D JUMP JUMPDEST PUSH2 0x747 JUMP JUMPDEST DUP3 MSTORE POP POP JUMP JUMPDEST PUSH1 0x0 PUSH2 0x77C DUP3 DUP7 PUSH2 0x620 JUMP JUMPDEST SWAP2 POP PUSH2 0x788 DUP3 DUP6 PUSH2 0x65B JUMP JUMPDEST PUSH1 0x20 DUP3 ADD SWAP2 POP PUSH2 0x798 DUP3 DUP5 PUSH2 0x759 JUMP JUMPDEST PUSH1 0x14 DUP3 ADD SWAP2 POP DUP2 SWAP1 POP SWAP5 SWAP4 POP POP POP POP JUMP JUMPDEST PUSH1 0x0 PUSH2 0x7B5 DUP3 DUP6 PUSH2 0x620 JUMP JUMPDEST SWAP2 POP PUSH2 0x7C1 DUP3 DUP5 PUSH2 0x620 JUMP JUMPDEST SWAP2 POP DUP2 SWAP1 POP SWAP4 SWAP3 POP POP POP JUMP INVALID LOG2 PUSH5 0x6970667358 0x22 SLT KECCAK256 0xB8 0xC8 0xD6 PUSH1 0x97 0xED EXTCODESIZE PUSH18 0xF5DB1D1E330E5EA7C99C5FA044E981DDBCC9 SWAP2 0xD9 SWAP7 PUSH17 0xD07064736F6C6343000813003300000000 "
				},
				"gasEstimates": {
					"creation": {
						"codeDepositCost": "410200",
						"executionCost": "449",
						"totalCost": "410649"
					},
					"external": {
						"collision(string,uint256,string)": "infinite",
						"encode(string,string)": "infinite",
						"encodePacked(string,string)": "infinite",
						"hash(string,uint256,address)": "infinite"
					}
				},
				"methodIdentifiers": {
					"collision(string,uint256,string)": "09518e1e",
					"encode(string,string)": "17fe2da2",
					"encodePacked(string,string)": "892e5d01",
					"hash(string,uint256,address)": "5dda416e"
				}
			},
			"storageLayout": {
				"storage": [],
				"types": null
			},
			"userdoc": {
				"kind": "user",
				"methods": {},
				"version": 1
			}
		}
	}
}