{
	"week6/class/DelegatecallPractice.sol": {
		"A": {
			"abi": [
				{
					"inputs": [
						{
							"internalType": "address",
							"name": "addr",
							"type": "address"
						}
					],
					"name": "callB",
					"outputs": [
						{
							"internalType": "address",
							"name": "",
							"type": "address"
						}
					],
					"stateMutability": "view",
					"type": "function"
				},
				{
					"inputs": [
						{
							"internalType": "address",
							"name": "addrB",
							"type": "address"
						},
						{
							"internalType": "address",
							"name": "addrC",
							"type": "address"
						}
					],
					"name": "callBdelegatecallC",
					"outputs": [
						{
							"internalType": "address",
							"name": "",
							"type": "address"
						}
					],
					"stateMutability": "nonpayable",
					"type": "function"
				},
				{
					"inputs": [
						{
							"internalType": "address",
							"name": "addr",
							"type": "address"
						}
					],
					"name": "delegatecallB",
					"outputs": [
						{
							"internalType": "address",
							"name": "",
							"type": "address"
						}
					],
					"stateMutability": "nonpayable",
					"type": "function"
				},
				{
					"inputs": [
						{
							"internalType": "address",
							"name": "addrB",
							"type": "address"
						},
						{
							"internalType": "address",
							"name": "addrC",
							"type": "address"
						}
					],
					"name": "delegatecallBcallC",
					"outputs": [
						{
							"internalType": "address",
							"name": "",
							"type": "address"
						}
					],
					"stateMutability": "nonpayable",
					"type": "function"
				}
			],
			"devdoc": {
				"kind": "dev",
				"methods": {},
				"version": 1
			},
			"evm": {
				"assembly": "    /* \"week6/class/DelegatecallPractice.sol\":548:1596  contract A {... */\n  mstore(0x40, 0x80)\n  callvalue\n  dup1\n  iszero\n  tag_1\n  jumpi\n  0x00\n  dup1\n  revert\ntag_1:\n  pop\n  dataSize(sub_0)\n  dup1\n  dataOffset(sub_0)\n  0x00\n  codecopy\n  0x00\n  return\nstop\n\nsub_0: assembly {\n        /* \"week6/class/DelegatecallPractice.sol\":548:1596  contract A {... */\n      mstore(0x40, 0x80)\n      callvalue\n      dup1\n      iszero\n      tag_1\n      jumpi\n      0x00\n      dup1\n      revert\n    tag_1:\n      pop\n      jumpi(tag_2, lt(calldatasize, 0x04))\n      shr(0xe0, calldataload(0x00))\n      dup1\n      0x06a98827\n      eq\n      tag_3\n      jumpi\n      dup1\n      0x4c024c8f\n      eq\n      tag_4\n      jumpi\n      dup1\n      0x729ad6b2\n      eq\n      tag_5\n      jumpi\n      dup1\n      0xc78dc6b1\n      eq\n      tag_6\n      jumpi\n    tag_2:\n      0x00\n      dup1\n      revert\n        /* \"week6/class/DelegatecallPractice.sol\":565:798  function callB(address addr) public view returns (address) {... */\n    tag_3:\n      tag_7\n      0x04\n      dup1\n      calldatasize\n      sub\n      dup2\n      add\n      swap1\n      tag_8\n      swap2\n      swap1\n      tag_9\n      jump\t// in\n    tag_8:\n      tag_10\n      jump\t// in\n    tag_7:\n      mload(0x40)\n      tag_11\n      swap2\n      swap1\n      tag_12\n      jump\t// in\n    tag_11:\n      mload(0x40)\n      dup1\n      swap2\n      sub\n      swap1\n      return\n        /* \"week6/class/DelegatecallPractice.sol\":1048:1318  function delegatecallBcallC(address addrB, address addrC) public returns (address) {... */\n    tag_4:\n      tag_13\n      0x04\n      dup1\n      calldatasize\n      sub\n      dup2\n      add\n      swap1\n      tag_14\n      swap2\n      swap1\n      tag_15\n      jump\t// in\n    tag_14:\n      tag_16\n      jump\t// in\n    tag_13:\n      mload(0x40)\n      tag_17\n      swap2\n      swap1\n      tag_12\n      jump\t// in\n    tag_17:\n      mload(0x40)\n      dup1\n      swap2\n      sub\n      swap1\n      return\n        /* \"week6/class/DelegatecallPractice.sol\":804:1042  function delegatecallB(address addr) public returns (address) {... */\n    tag_5:\n      tag_18\n      0x04\n      dup1\n      calldatasize\n      sub\n      dup2\n      add\n      swap1\n      tag_19\n      swap2\n      swap1\n      tag_9\n      jump\t// in\n    tag_19:\n      tag_20\n      jump\t// in\n    tag_18:\n      mload(0x40)\n      tag_21\n      swap2\n      swap1\n      tag_12\n      jump\t// in\n    tag_21:\n      mload(0x40)\n      dup1\n      swap2\n      sub\n      swap1\n      return\n        /* \"week6/class/DelegatecallPractice.sol\":1324:1594  function callBdelegatecallC(address addrB, address addrC) public returns (address) {... */\n    tag_6:\n      tag_22\n      0x04\n      dup1\n      calldatasize\n      sub\n      dup2\n      add\n      swap1\n      tag_23\n      swap2\n      swap1\n      tag_15\n      jump\t// in\n    tag_23:\n      tag_24\n      jump\t// in\n    tag_22:\n      mload(0x40)\n      tag_25\n      swap2\n      swap1\n      tag_12\n      jump\t// in\n    tag_25:\n      mload(0x40)\n      dup1\n      swap2\n      sub\n      swap1\n      return\n        /* \"week6/class/DelegatecallPractice.sol\":565:798  function callB(address addr) public view returns (address) {... */\n    tag_10:\n        /* \"week6/class/DelegatecallPractice.sol\":615:622  address */\n      0x00\n        /* \"week6/class/DelegatecallPractice.sol\":637:654  bytes memory data */\n      dup1\n        /* \"week6/class/DelegatecallPractice.sol\":658:662  addr */\n      dup3\n        /* \"week6/class/DelegatecallPractice.sol\":658:673  addr.staticcall */\n      0xffffffffffffffffffffffffffffffffffffffff\n      and\n        /* \"week6/class/DelegatecallPractice.sol\":674:712  abi.encodeWithSignature(\"getSender()\") */\n      add(0x24, mload(0x40))\n      mload(0x40)\n      0x20\n      dup2\n      dup4\n      sub\n      sub\n      dup2\n      mstore\n      swap1\n      0x40\n      mstore\n      and(not(0xffffffffffffffffffffffffffffffffffffffffffffffffffffffff), 0x5e01eb5a00000000000000000000000000000000000000000000000000000000)\n      0x20\n      dup3\n      add\n      dup1\n      mload\n      0xffffffffffffffffffffffffffffffffffffffffffffffffffffffff\n      dup4\n      dup2\n      dup4\n      and\n      or\n      dup4\n      mstore\n      pop\n      pop\n      pop\n      pop\n        /* \"week6/class/DelegatecallPractice.sol\":658:713  addr.staticcall(abi.encodeWithSignature(\"getSender()\")) */\n      mload(0x40)\n      tag_27\n      swap2\n      swap1\n      tag_28\n      jump\t// in\n    tag_27:\n      0x00\n      mload(0x40)\n      dup1\n      dup4\n      sub\n      dup2\n      dup6\n      gas\n      staticcall\n      swap2\n      pop\n      pop\n      returndatasize\n      dup1\n      0x00\n      dup2\n      eq\n      tag_31\n      jumpi\n      mload(0x40)\n      swap2\n      pop\n      and(add(returndatasize, 0x3f), not(0x1f))\n      dup3\n      add\n      0x40\n      mstore\n      returndatasize\n      dup3\n      mstore\n      returndatasize\n      0x00\n      0x20\n      dup5\n      add\n      returndatacopy\n      jump(tag_30)\n    tag_31:\n      0x60\n      swap2\n      pop\n    tag_30:\n      pop\n        /* \"week6/class/DelegatecallPractice.sol\":634:713  (, bytes memory data) = addr.staticcall(abi.encodeWithSignature(\"getSender()\")) */\n      swap2\n      pop\n      pop\n        /* \"week6/class/DelegatecallPractice.sol\":723:737  address sender */\n      0x00\n        /* \"week6/class/DelegatecallPractice.sol\":751:755  data */\n      dup2\n        /* \"week6/class/DelegatecallPractice.sol\":740:767  abi.decode(data, (address)) */\n      dup1\n      0x20\n      add\n      swap1\n      mload\n      dup2\n      add\n      swap1\n      tag_32\n      swap2\n      swap1\n      tag_33\n      jump\t// in\n    tag_32:\n        /* \"week6/class/DelegatecallPractice.sol\":723:767  address sender = abi.decode(data, (address)) */\n      swap1\n      pop\n        /* \"week6/class/DelegatecallPractice.sol\":785:791  sender */\n      dup1\n        /* \"week6/class/DelegatecallPractice.sol\":778:791  return sender */\n      swap3\n      pop\n      pop\n      pop\n        /* \"week6/class/DelegatecallPractice.sol\":565:798  function callB(address addr) public view returns (address) {... */\n      swap2\n      swap1\n      pop\n      jump\t// out\n        /* \"week6/class/DelegatecallPractice.sol\":1048:1318  function delegatecallBcallC(address addrB, address addrC) public returns (address) {... */\n    tag_16:\n        /* \"week6/class/DelegatecallPractice.sol\":1122:1129  address */\n      0x00\n        /* \"week6/class/DelegatecallPractice.sol\":1144:1161  bytes memory data */\n      dup1\n        /* \"week6/class/DelegatecallPractice.sol\":1165:1170  addrB */\n      dup4\n        /* \"week6/class/DelegatecallPractice.sol\":1165:1183  addrB.delegatecall */\n      0xffffffffffffffffffffffffffffffffffffffff\n      and\n        /* \"week6/class/DelegatecallPractice.sol\":1226:1231  addrC */\n      dup4\n        /* \"week6/class/DelegatecallPractice.sol\":1184:1232  abi.encodeWithSignature(\"callC(address)\", addrC) */\n      add(0x24, mload(0x40))\n      tag_35\n      swap2\n      swap1\n      tag_12\n      jump\t// in\n    tag_35:\n      mload(0x40)\n      0x20\n      dup2\n      dup4\n      sub\n      sub\n      dup2\n      mstore\n      swap1\n      0x40\n      mstore\n      and(not(0xffffffffffffffffffffffffffffffffffffffffffffffffffffffff), 0xed0f23ab00000000000000000000000000000000000000000000000000000000)\n      0x20\n      dup3\n      add\n      dup1\n      mload\n      0xffffffffffffffffffffffffffffffffffffffffffffffffffffffff\n      dup4\n      dup2\n      dup4\n      and\n      or\n      dup4\n      mstore\n      pop\n      pop\n      pop\n      pop\n        /* \"week6/class/DelegatecallPractice.sol\":1165:1233  addrB.delegatecall(abi.encodeWithSignature(\"callC(address)\", addrC)) */\n      mload(0x40)\n      tag_36\n      swap2\n      swap1\n      tag_28\n      jump\t// in\n    tag_36:\n      0x00\n      mload(0x40)\n      dup1\n      dup4\n      sub\n      dup2\n      dup6\n      gas\n      delegatecall\n      swap2\n      pop\n      pop\n      returndatasize\n      dup1\n      0x00\n      dup2\n      eq\n      tag_39\n      jumpi\n      mload(0x40)\n      swap2\n      pop\n      and(add(returndatasize, 0x3f), not(0x1f))\n      dup3\n      add\n      0x40\n      mstore\n      returndatasize\n      dup3\n      mstore\n      returndatasize\n      0x00\n      0x20\n      dup5\n      add\n      returndatacopy\n      jump(tag_38)\n    tag_39:\n      0x60\n      swap2\n      pop\n    tag_38:\n      pop\n        /* \"week6/class/DelegatecallPractice.sol\":1141:1233  (, bytes memory data) = addrB.delegatecall(abi.encodeWithSignature(\"callC(address)\", addrC)) */\n      swap2\n      pop\n      pop\n        /* \"week6/class/DelegatecallPractice.sol\":1243:1257  address sender */\n      0x00\n        /* \"week6/class/DelegatecallPractice.sol\":1271:1275  data */\n      dup2\n        /* \"week6/class/DelegatecallPractice.sol\":1260:1287  abi.decode(data, (address)) */\n      dup1\n      0x20\n      add\n      swap1\n      mload\n      dup2\n      add\n      swap1\n      tag_40\n      swap2\n      swap1\n      tag_33\n      jump\t// in\n    tag_40:\n        /* \"week6/class/DelegatecallPractice.sol\":1243:1287  address sender = abi.decode(data, (address)) */\n      swap1\n      pop\n        /* \"week6/class/DelegatecallPractice.sol\":1305:1311  sender */\n      dup1\n        /* \"week6/class/DelegatecallPractice.sol\":1298:1311  return sender */\n      swap3\n      pop\n      pop\n      pop\n        /* \"week6/class/DelegatecallPractice.sol\":1048:1318  function delegatecallBcallC(address addrB, address addrC) public returns (address) {... */\n      swap3\n      swap2\n      pop\n      pop\n      jump\t// out\n        /* \"week6/class/DelegatecallPractice.sol\":804:1042  function delegatecallB(address addr) public returns (address) {... */\n    tag_20:\n        /* \"week6/class/DelegatecallPractice.sol\":857:864  address */\n      0x00\n        /* \"week6/class/DelegatecallPractice.sol\":879:896  bytes memory data */\n      dup1\n        /* \"week6/class/DelegatecallPractice.sol\":900:904  addr */\n      dup3\n        /* \"week6/class/DelegatecallPractice.sol\":900:917  addr.delegatecall */\n      0xffffffffffffffffffffffffffffffffffffffff\n      and\n        /* \"week6/class/DelegatecallPractice.sol\":918:956  abi.encodeWithSignature(\"getSender()\") */\n      add(0x24, mload(0x40))\n      mload(0x40)\n      0x20\n      dup2\n      dup4\n      sub\n      sub\n      dup2\n      mstore\n      swap1\n      0x40\n      mstore\n      and(not(0xffffffffffffffffffffffffffffffffffffffffffffffffffffffff), 0x5e01eb5a00000000000000000000000000000000000000000000000000000000)\n      0x20\n      dup3\n      add\n      dup1\n      mload\n      0xffffffffffffffffffffffffffffffffffffffffffffffffffffffff\n      dup4\n      dup2\n      dup4\n      and\n      or\n      dup4\n      mstore\n      pop\n      pop\n      pop\n      pop\n        /* \"week6/class/DelegatecallPractice.sol\":900:957  addr.delegatecall(abi.encodeWithSignature(\"getSender()\")) */\n      mload(0x40)\n      tag_42\n      swap2\n      swap1\n      tag_28\n      jump\t// in\n    tag_42:\n      0x00\n      mload(0x40)\n      dup1\n      dup4\n      sub\n      dup2\n      dup6\n      gas\n      delegatecall\n      swap2\n      pop\n      pop\n      returndatasize\n      dup1\n      0x00\n      dup2\n      eq\n      tag_45\n      jumpi\n      mload(0x40)\n      swap2\n      pop\n      and(add(returndatasize, 0x3f), not(0x1f))\n      dup3\n      add\n      0x40\n      mstore\n      returndatasize\n      dup3\n      mstore\n      returndatasize\n      0x00\n      0x20\n      dup5\n      add\n      returndatacopy\n      jump(tag_44)\n    tag_45:\n      0x60\n      swap2\n      pop\n    tag_44:\n      pop\n        /* \"week6/class/DelegatecallPractice.sol\":876:957  (, bytes memory data) = addr.delegatecall(abi.encodeWithSignature(\"getSender()\")) */\n      swap2\n      pop\n      pop\n        /* \"week6/class/DelegatecallPractice.sol\":967:981  address sender */\n      0x00\n        /* \"week6/class/DelegatecallPractice.sol\":995:999  data */\n      dup2\n        /* \"week6/class/DelegatecallPractice.sol\":984:1011  abi.decode(data, (address)) */\n      dup1\n      0x20\n      add\n      swap1\n      mload\n      dup2\n      add\n      swap1\n      tag_46\n      swap2\n      swap1\n      tag_33\n      jump\t// in\n    tag_46:\n        /* \"week6/class/DelegatecallPractice.sol\":967:1011  address sender = abi.decode(data, (address)) */\n      swap1\n      pop\n        /* \"week6/class/DelegatecallPractice.sol\":1029:1035  sender */\n      dup1\n        /* \"week6/class/DelegatecallPractice.sol\":1022:1035  return sender */\n      swap3\n      pop\n      pop\n      pop\n        /* \"week6/class/DelegatecallPractice.sol\":804:1042  function delegatecallB(address addr) public returns (address) {... */\n      swap2\n      swap1\n      pop\n      jump\t// out\n        /* \"week6/class/DelegatecallPractice.sol\":1324:1594  function callBdelegatecallC(address addrB, address addrC) public returns (address) {... */\n    tag_24:\n        /* \"week6/class/DelegatecallPractice.sol\":1398:1405  address */\n      0x00\n        /* \"week6/class/DelegatecallPractice.sol\":1420:1437  bytes memory data */\n      dup1\n        /* \"week6/class/DelegatecallPractice.sol\":1441:1446  addrB */\n      dup4\n        /* \"week6/class/DelegatecallPractice.sol\":1441:1451  addrB.call */\n      0xffffffffffffffffffffffffffffffffffffffff\n      and\n        /* \"week6/class/DelegatecallPractice.sol\":1502:1507  addrC */\n      dup4\n        /* \"week6/class/DelegatecallPractice.sol\":1452:1508  abi.encodeWithSignature(\"delegatecallC(address)\", addrC) */\n      add(0x24, mload(0x40))\n      tag_48\n      swap2\n      swap1\n      tag_12\n      jump\t// in\n    tag_48:\n      mload(0x40)\n      0x20\n      dup2\n      dup4\n      sub\n      sub\n      dup2\n      mstore\n      swap1\n      0x40\n      mstore\n      and(not(0xffffffffffffffffffffffffffffffffffffffffffffffffffffffff), 0x7dd84ffb00000000000000000000000000000000000000000000000000000000)\n      0x20\n      dup3\n      add\n      dup1\n      mload\n      0xffffffffffffffffffffffffffffffffffffffffffffffffffffffff\n      dup4\n      dup2\n      dup4\n      and\n      or\n      dup4\n      mstore\n      pop\n      pop\n      pop\n      pop\n        /* \"week6/class/DelegatecallPractice.sol\":1441:1509  addrB.call(abi.encodeWithSignature(\"delegatecallC(address)\", addrC)) */\n      mload(0x40)\n      tag_49\n      swap2\n      swap1\n      tag_28\n      jump\t// in\n    tag_49:\n      0x00\n      mload(0x40)\n      dup1\n      dup4\n      sub\n      dup2\n      0x00\n      dup7\n      gas\n      call\n      swap2\n      pop\n      pop\n      returndatasize\n      dup1\n      0x00\n      dup2\n      eq\n      tag_52\n      jumpi\n      mload(0x40)\n      swap2\n      pop\n      and(add(returndatasize, 0x3f), not(0x1f))\n      dup3\n      add\n      0x40\n      mstore\n      returndatasize\n      dup3\n      mstore\n      returndatasize\n      0x00\n      0x20\n      dup5\n      add\n      returndatacopy\n      jump(tag_51)\n    tag_52:\n      0x60\n      swap2\n      pop\n    tag_51:\n      pop\n        /* \"week6/class/DelegatecallPractice.sol\":1417:1509  (, bytes memory data) = addrB.call(abi.encodeWithSignature(\"delegatecallC(address)\", addrC)) */\n      swap2\n      pop\n      pop\n        /* \"week6/class/DelegatecallPractice.sol\":1519:1533  address sender */\n      0x00\n        /* \"week6/class/DelegatecallPractice.sol\":1547:1551  data */\n      dup2\n        /* \"week6/class/DelegatecallPractice.sol\":1536:1563  abi.decode(data, (address)) */\n      dup1\n      0x20\n      add\n      swap1\n      mload\n      dup2\n      add\n      swap1\n      tag_53\n      swap2\n      swap1\n      tag_33\n      jump\t// in\n    tag_53:\n        /* \"week6/class/DelegatecallPractice.sol\":1519:1563  address sender = abi.decode(data, (address)) */\n      swap1\n      pop\n        /* \"week6/class/DelegatecallPractice.sol\":1581:1587  sender */\n      dup1\n        /* \"week6/class/DelegatecallPractice.sol\":1574:1587  return sender */\n      swap3\n      pop\n      pop\n      pop\n        /* \"week6/class/DelegatecallPractice.sol\":1324:1594  function callBdelegatecallC(address addrB, address addrC) public returns (address) {... */\n      swap3\n      swap2\n      pop\n      pop\n      jump\t// out\n        /* \"#utility.yul\":88:205   */\n    tag_55:\n        /* \"#utility.yul\":197:198   */\n      0x00\n        /* \"#utility.yul\":194:195   */\n      dup1\n        /* \"#utility.yul\":187:199   */\n      revert\n        /* \"#utility.yul\":334:460   */\n    tag_57:\n        /* \"#utility.yul\":371:378   */\n      0x00\n        /* \"#utility.yul\":411:453   */\n      0xffffffffffffffffffffffffffffffffffffffff\n        /* \"#utility.yul\":404:409   */\n      dup3\n        /* \"#utility.yul\":400:454   */\n      and\n        /* \"#utility.yul\":389:454   */\n      swap1\n      pop\n        /* \"#utility.yul\":334:460   */\n      swap2\n      swap1\n      pop\n      jump\t// out\n        /* \"#utility.yul\":466:562   */\n    tag_58:\n        /* \"#utility.yul\":503:510   */\n      0x00\n        /* \"#utility.yul\":532:556   */\n      tag_75\n        /* \"#utility.yul\":550:555   */\n      dup3\n        /* \"#utility.yul\":532:556   */\n      tag_57\n      jump\t// in\n    tag_75:\n        /* \"#utility.yul\":521:556   */\n      swap1\n      pop\n        /* \"#utility.yul\":466:562   */\n      swap2\n      swap1\n      pop\n      jump\t// out\n        /* \"#utility.yul\":568:690   */\n    tag_59:\n        /* \"#utility.yul\":641:665   */\n      tag_77\n        /* \"#utility.yul\":659:664   */\n      dup2\n        /* \"#utility.yul\":641:665   */\n      tag_58\n      jump\t// in\n    tag_77:\n        /* \"#utility.yul\":634:639   */\n      dup2\n        /* \"#utility.yul\":631:666   */\n      eq\n        /* \"#utility.yul\":621:684   */\n      tag_78\n      jumpi\n        /* \"#utility.yul\":680:681   */\n      0x00\n        /* \"#utility.yul\":677:678   */\n      dup1\n        /* \"#utility.yul\":670:682   */\n      revert\n        /* \"#utility.yul\":621:684   */\n    tag_78:\n        /* \"#utility.yul\":568:690   */\n      pop\n      jump\t// out\n        /* \"#utility.yul\":696:835   */\n    tag_60:\n        /* \"#utility.yul\":742:747   */\n      0x00\n        /* \"#utility.yul\":780:786   */\n      dup2\n        /* \"#utility.yul\":767:787   */\n      calldataload\n        /* \"#utility.yul\":758:787   */\n      swap1\n      pop\n        /* \"#utility.yul\":796:829   */\n      tag_80\n        /* \"#utility.yul\":823:828   */\n      dup2\n        /* \"#utility.yul\":796:829   */\n      tag_59\n      jump\t// in\n    tag_80:\n        /* \"#utility.yul\":696:835   */\n      swap3\n      swap2\n      pop\n      pop\n      jump\t// out\n        /* \"#utility.yul\":841:1170   */\n    tag_9:\n        /* \"#utility.yul\":900:906   */\n      0x00\n        /* \"#utility.yul\":949:951   */\n      0x20\n        /* \"#utility.yul\":937:946   */\n      dup3\n        /* \"#utility.yul\":928:935   */\n      dup5\n        /* \"#utility.yul\":924:947   */\n      sub\n        /* \"#utility.yul\":920:952   */\n      slt\n        /* \"#utility.yul\":917:1036   */\n      iszero\n      tag_82\n      jumpi\n        /* \"#utility.yul\":955:1034   */\n      tag_83\n      tag_55\n      jump\t// in\n    tag_83:\n        /* \"#utility.yul\":917:1036   */\n    tag_82:\n        /* \"#utility.yul\":1075:1076   */\n      0x00\n        /* \"#utility.yul\":1100:1153   */\n      tag_84\n        /* \"#utility.yul\":1145:1152   */\n      dup5\n        /* \"#utility.yul\":1136:1142   */\n      dup3\n        /* \"#utility.yul\":1125:1134   */\n      dup6\n        /* \"#utility.yul\":1121:1143   */\n      add\n        /* \"#utility.yul\":1100:1153   */\n      tag_60\n      jump\t// in\n    tag_84:\n        /* \"#utility.yul\":1090:1153   */\n      swap2\n      pop\n        /* \"#utility.yul\":1046:1163   */\n      pop\n        /* \"#utility.yul\":841:1170   */\n      swap3\n      swap2\n      pop\n      pop\n      jump\t// out\n        /* \"#utility.yul\":1176:1294   */\n    tag_61:\n        /* \"#utility.yul\":1263:1287   */\n      tag_86\n        /* \"#utility.yul\":1281:1286   */\n      dup2\n        /* \"#utility.yul\":1263:1287   */\n      tag_58\n      jump\t// in\n    tag_86:\n        /* \"#utility.yul\":1258:1261   */\n      dup3\n        /* \"#utility.yul\":1251:1288   */\n      mstore\n        /* \"#utility.yul\":1176:1294   */\n      pop\n      pop\n      jump\t// out\n        /* \"#utility.yul\":1300:1522   */\n    tag_12:\n        /* \"#utility.yul\":1393:1397   */\n      0x00\n        /* \"#utility.yul\":1431:1433   */\n      0x20\n        /* \"#utility.yul\":1420:1429   */\n      dup3\n        /* \"#utility.yul\":1416:1434   */\n      add\n        /* \"#utility.yul\":1408:1434   */\n      swap1\n      pop\n        /* \"#utility.yul\":1444:1515   */\n      tag_88\n        /* \"#utility.yul\":1512:1513   */\n      0x00\n        /* \"#utility.yul\":1501:1510   */\n      dup4\n        /* \"#utility.yul\":1497:1514   */\n      add\n        /* \"#utility.yul\":1488:1494   */\n      dup5\n        /* \"#utility.yul\":1444:1515   */\n      tag_61\n      jump\t// in\n    tag_88:\n        /* \"#utility.yul\":1300:1522   */\n      swap3\n      swap2\n      pop\n      pop\n      jump\t// out\n        /* \"#utility.yul\":1528:2002   */\n    tag_15:\n        /* \"#utility.yul\":1596:1602   */\n      0x00\n        /* \"#utility.yul\":1604:1610   */\n      dup1\n        /* \"#utility.yul\":1653:1655   */\n      0x40\n        /* \"#utility.yul\":1641:1650   */\n      dup4\n        /* \"#utility.yul\":1632:1639   */\n      dup6\n        /* \"#utility.yul\":1628:1651   */\n      sub\n        /* \"#utility.yul\":1624:1656   */\n      slt\n        /* \"#utility.yul\":1621:1740   */\n      iszero\n      tag_90\n      jumpi\n        /* \"#utility.yul\":1659:1738   */\n      tag_91\n      tag_55\n      jump\t// in\n    tag_91:\n        /* \"#utility.yul\":1621:1740   */\n    tag_90:\n        /* \"#utility.yul\":1779:1780   */\n      0x00\n        /* \"#utility.yul\":1804:1857   */\n      tag_92\n        /* \"#utility.yul\":1849:1856   */\n      dup6\n        /* \"#utility.yul\":1840:1846   */\n      dup3\n        /* \"#utility.yul\":1829:1838   */\n      dup7\n        /* \"#utility.yul\":1825:1847   */\n      add\n        /* \"#utility.yul\":1804:1857   */\n      tag_60\n      jump\t// in\n    tag_92:\n        /* \"#utility.yul\":1794:1857   */\n      swap3\n      pop\n        /* \"#utility.yul\":1750:1867   */\n      pop\n        /* \"#utility.yul\":1906:1908   */\n      0x20\n        /* \"#utility.yul\":1932:1985   */\n      tag_93\n        /* \"#utility.yul\":1977:1984   */\n      dup6\n        /* \"#utility.yul\":1968:1974   */\n      dup3\n        /* \"#utility.yul\":1957:1966   */\n      dup7\n        /* \"#utility.yul\":1953:1975   */\n      add\n        /* \"#utility.yul\":1932:1985   */\n      tag_60\n      jump\t// in\n    tag_93:\n        /* \"#utility.yul\":1922:1985   */\n      swap2\n      pop\n        /* \"#utility.yul\":1877:1995   */\n      pop\n        /* \"#utility.yul\":1528:2002   */\n      swap3\n      pop\n      swap3\n      swap1\n      pop\n      jump\t// out\n        /* \"#utility.yul\":2008:2106   */\n    tag_62:\n        /* \"#utility.yul\":2059:2065   */\n      0x00\n        /* \"#utility.yul\":2093:2098   */\n      dup2\n        /* \"#utility.yul\":2087:2099   */\n      mload\n        /* \"#utility.yul\":2077:2099   */\n      swap1\n      pop\n        /* \"#utility.yul\":2008:2106   */\n      swap2\n      swap1\n      pop\n      jump\t// out\n        /* \"#utility.yul\":2112:2259   */\n    tag_63:\n        /* \"#utility.yul\":2213:2224   */\n      0x00\n        /* \"#utility.yul\":2250:2253   */\n      dup2\n        /* \"#utility.yul\":2235:2253   */\n      swap1\n      pop\n        /* \"#utility.yul\":2112:2259   */\n      swap3\n      swap2\n      pop\n      pop\n      jump\t// out\n        /* \"#utility.yul\":2265:2511   */\n    tag_64:\n        /* \"#utility.yul\":2346:2347   */\n      0x00\n        /* \"#utility.yul\":2356:2469   */\n    tag_97:\n        /* \"#utility.yul\":2370:2376   */\n      dup4\n        /* \"#utility.yul\":2367:2368   */\n      dup2\n        /* \"#utility.yul\":2364:2377   */\n      lt\n        /* \"#utility.yul\":2356:2469   */\n      iszero\n      tag_99\n      jumpi\n        /* \"#utility.yul\":2455:2456   */\n      dup1\n        /* \"#utility.yul\":2450:2453   */\n      dup3\n        /* \"#utility.yul\":2446:2457   */\n      add\n        /* \"#utility.yul\":2440:2458   */\n      mload\n        /* \"#utility.yul\":2436:2437   */\n      dup2\n        /* \"#utility.yul\":2431:2434   */\n      dup5\n        /* \"#utility.yul\":2427:2438   */\n      add\n        /* \"#utility.yul\":2420:2459   */\n      mstore\n        /* \"#utility.yul\":2392:2394   */\n      0x20\n        /* \"#utility.yul\":2389:2390   */\n      dup2\n        /* \"#utility.yul\":2385:2395   */\n      add\n        /* \"#utility.yul\":2380:2395   */\n      swap1\n      pop\n        /* \"#utility.yul\":2356:2469   */\n      jump(tag_97)\n    tag_99:\n        /* \"#utility.yul\":2503:2504   */\n      0x00\n        /* \"#utility.yul\":2494:2500   */\n      dup5\n        /* \"#utility.yul\":2489:2492   */\n      dup5\n        /* \"#utility.yul\":2485:2501   */\n      add\n        /* \"#utility.yul\":2478:2505   */\n      mstore\n        /* \"#utility.yul\":2327:2511   */\n      pop\n        /* \"#utility.yul\":2265:2511   */\n      pop\n      pop\n      pop\n      jump\t// out\n        /* \"#utility.yul\":2517:2903   */\n    tag_65:\n        /* \"#utility.yul\":2621:2624   */\n      0x00\n        /* \"#utility.yul\":2649:2687   */\n      tag_101\n        /* \"#utility.yul\":2681:2686   */\n      dup3\n        /* \"#utility.yul\":2649:2687   */\n      tag_62\n      jump\t// in\n    tag_101:\n        /* \"#utility.yul\":2703:2791   */\n      tag_102\n        /* \"#utility.yul\":2784:2790   */\n      dup2\n        /* \"#utility.yul\":2779:2782   */\n      dup6\n        /* \"#utility.yul\":2703:2791   */\n      tag_63\n      jump\t// in\n    tag_102:\n        /* \"#utility.yul\":2696:2791   */\n      swap4\n      pop\n        /* \"#utility.yul\":2800:2865   */\n      tag_103\n        /* \"#utility.yul\":2858:2864   */\n      dup2\n        /* \"#utility.yul\":2853:2856   */\n      dup6\n        /* \"#utility.yul\":2846:2850   */\n      0x20\n        /* \"#utility.yul\":2839:2844   */\n      dup7\n        /* \"#utility.yul\":2835:2851   */\n      add\n        /* \"#utility.yul\":2800:2865   */\n      tag_64\n      jump\t// in\n    tag_103:\n        /* \"#utility.yul\":2890:2896   */\n      dup1\n        /* \"#utility.yul\":2885:2888   */\n      dup5\n        /* \"#utility.yul\":2881:2897   */\n      add\n        /* \"#utility.yul\":2874:2897   */\n      swap2\n      pop\n        /* \"#utility.yul\":2625:2903   */\n      pop\n        /* \"#utility.yul\":2517:2903   */\n      swap3\n      swap2\n      pop\n      pop\n      jump\t// out\n        /* \"#utility.yul\":2909:3180   */\n    tag_28:\n        /* \"#utility.yul\":3039:3042   */\n      0x00\n        /* \"#utility.yul\":3061:3154   */\n      tag_105\n        /* \"#utility.yul\":3150:3153   */\n      dup3\n        /* \"#utility.yul\":3141:3147   */\n      dup5\n        /* \"#utility.yul\":3061:3154   */\n      tag_65\n      jump\t// in\n    tag_105:\n        /* \"#utility.yul\":3054:3154   */\n      swap2\n      pop\n        /* \"#utility.yul\":3171:3174   */\n      dup2\n        /* \"#utility.yul\":3164:3174   */\n      swap1\n      pop\n        /* \"#utility.yul\":2909:3180   */\n      swap3\n      swap2\n      pop\n      pop\n      jump\t// out\n        /* \"#utility.yul\":3186:3290   */\n    tag_66:\n        /* \"#utility.yul\":3231:3238   */\n      0x00\n        /* \"#utility.yul\":3260:3284   */\n      tag_107\n        /* \"#utility.yul\":3278:3283   */\n      dup3\n        /* \"#utility.yul\":3260:3284   */\n      tag_57\n      jump\t// in\n    tag_107:\n        /* \"#utility.yul\":3249:3284   */\n      swap1\n      pop\n        /* \"#utility.yul\":3186:3290   */\n      swap2\n      swap1\n      pop\n      jump\t// out\n        /* \"#utility.yul\":3296:3434   */\n    tag_67:\n        /* \"#utility.yul\":3377:3409   */\n      tag_109\n        /* \"#utility.yul\":3403:3408   */\n      dup2\n        /* \"#utility.yul\":3377:3409   */\n      tag_66\n      jump\t// in\n    tag_109:\n        /* \"#utility.yul\":3370:3375   */\n      dup2\n        /* \"#utility.yul\":3367:3410   */\n      eq\n        /* \"#utility.yul\":3357:3428   */\n      tag_110\n      jumpi\n        /* \"#utility.yul\":3424:3425   */\n      0x00\n        /* \"#utility.yul\":3421:3422   */\n      dup1\n        /* \"#utility.yul\":3414:3426   */\n      revert\n        /* \"#utility.yul\":3357:3428   */\n    tag_110:\n        /* \"#utility.yul\":3296:3434   */\n      pop\n      jump\t// out\n        /* \"#utility.yul\":3440:3599   */\n    tag_68:\n        /* \"#utility.yul\":3505:3510   */\n      0x00\n        /* \"#utility.yul\":3536:3542   */\n      dup2\n        /* \"#utility.yul\":3530:3543   */\n      mload\n        /* \"#utility.yul\":3521:3543   */\n      swap1\n      pop\n        /* \"#utility.yul\":3552:3593   */\n      tag_112\n        /* \"#utility.yul\":3587:3592   */\n      dup2\n        /* \"#utility.yul\":3552:3593   */\n      tag_67\n      jump\t// in\n    tag_112:\n        /* \"#utility.yul\":3440:3599   */\n      swap3\n      swap2\n      pop\n      pop\n      jump\t// out\n        /* \"#utility.yul\":3605:3972   */\n    tag_33:\n        /* \"#utility.yul\":3683:3689   */\n      0x00\n        /* \"#utility.yul\":3732:3734   */\n      0x20\n        /* \"#utility.yul\":3720:3729   */\n      dup3\n        /* \"#utility.yul\":3711:3718   */\n      dup5\n        /* \"#utility.yul\":3707:3730   */\n      sub\n        /* \"#utility.yul\":3703:3735   */\n      slt\n        /* \"#utility.yul\":3700:3819   */\n      iszero\n      tag_114\n      jumpi\n        /* \"#utility.yul\":3738:3817   */\n      tag_115\n      tag_55\n      jump\t// in\n    tag_115:\n        /* \"#utility.yul\":3700:3819   */\n    tag_114:\n        /* \"#utility.yul\":3858:3859   */\n      0x00\n        /* \"#utility.yul\":3883:3955   */\n      tag_116\n        /* \"#utility.yul\":3947:3954   */\n      dup5\n        /* \"#utility.yul\":3938:3944   */\n      dup3\n        /* \"#utility.yul\":3927:3936   */\n      dup6\n        /* \"#utility.yul\":3923:3945   */\n      add\n        /* \"#utility.yul\":3883:3955   */\n      tag_68\n      jump\t// in\n    tag_116:\n        /* \"#utility.yul\":3873:3955   */\n      swap2\n      pop\n        /* \"#utility.yul\":3829:3965   */\n      pop\n        /* \"#utility.yul\":3605:3972   */\n      swap3\n      swap2\n      pop\n      pop\n      jump\t// out\n\n    auxdata: 0xa264697066735822122096628a99ba1d9c9ce62bda633193485c14209b55b0f7f08fa0c1e73fe9357d3d64736f6c63430008120033\n}\n",
				"bytecode": {
					"linkReferences": {},
					"object": "608060405234801561001057600080fd5b5061078e806100206000396000f3fe608060405234801561001057600080fd5b506004361061004c5760003560e01c806306a98827146100515780634c024c8f14610081578063729ad6b2146100b1578063c78dc6b1146100e1575b600080fd5b61006b600480360381019061006691906105ce565b610111565b604051610078919061060a565b60405180910390f35b61009b60048036038101906100969190610625565b610221565b6040516100a8919061060a565b60405180910390f35b6100cb60048036038101906100c691906105ce565b61033d565b6040516100d8919061060a565b60405180910390f35b6100fb60048036038101906100f69190610625565b61044d565b604051610108919061060a565b60405180910390f35b6000808273ffffffffffffffffffffffffffffffffffffffff166040516024016040516020818303038152906040527f5e01eb5a000000000000000000000000000000000000000000000000000000007bffffffffffffffffffffffffffffffffffffffffffffffffffffffff19166020820180517bffffffffffffffffffffffffffffffffffffffffffffffffffffffff83818316178352505050506040516101bb91906106d6565b600060405180830381855afa9150503d80600081146101f6576040519150601f19603f3d011682016040523d82523d6000602084013e6101fb565b606091505b50915050600081806020019051810190610215919061072b565b90508092505050919050565b6000808373ffffffffffffffffffffffffffffffffffffffff168360405160240161024c919061060a565b6040516020818303038152906040527fed0f23ab000000000000000000000000000000000000000000000000000000007bffffffffffffffffffffffffffffffffffffffffffffffffffffffff19166020820180517bffffffffffffffffffffffffffffffffffffffffffffffffffffffff83818316178352505050506040516102d691906106d6565b600060405180830381855af49150503d8060008114610311576040519150601f19603f3d011682016040523d82523d6000602084013e610316565b606091505b50915050600081806020019051810190610330919061072b565b9050809250505092915050565b6000808273ffffffffffffffffffffffffffffffffffffffff166040516024016040516020818303038152906040527f5e01eb5a000000000000000000000000000000000000000000000000000000007bffffffffffffffffffffffffffffffffffffffffffffffffffffffff19166020820180517bffffffffffffffffffffffffffffffffffffffffffffffffffffffff83818316178352505050506040516103e791906106d6565b600060405180830381855af49150503d8060008114610422576040519150601f19603f3d011682016040523d82523d6000602084013e610427565b606091505b50915050600081806020019051810190610441919061072b565b90508092505050919050565b6000808373ffffffffffffffffffffffffffffffffffffffff1683604051602401610478919061060a565b6040516020818303038152906040527f7dd84ffb000000000000000000000000000000000000000000000000000000007bffffffffffffffffffffffffffffffffffffffffffffffffffffffff19166020820180517bffffffffffffffffffffffffffffffffffffffffffffffffffffffff838183161783525050505060405161050291906106d6565b6000604051808303816000865af19150503d806000811461053f576040519150601f19603f3d011682016040523d82523d6000602084013e610544565b606091505b5091505060008180602001905181019061055e919061072b565b9050809250505092915050565b600080fd5b600073ffffffffffffffffffffffffffffffffffffffff82169050919050565b600061059b82610570565b9050919050565b6105ab81610590565b81146105b657600080fd5b50565b6000813590506105c8816105a2565b92915050565b6000602082840312156105e4576105e361056b565b5b60006105f2848285016105b9565b91505092915050565b61060481610590565b82525050565b600060208201905061061f60008301846105fb565b92915050565b6000806040838503121561063c5761063b61056b565b5b600061064a858286016105b9565b925050602061065b858286016105b9565b9150509250929050565b600081519050919050565b600081905092915050565b60005b8381101561069957808201518184015260208101905061067e565b60008484015250505050565b60006106b082610665565b6106ba8185610670565b93506106ca81856020860161067b565b80840191505092915050565b60006106e282846106a5565b915081905092915050565b60006106f882610570565b9050919050565b610708816106ed565b811461071357600080fd5b50565b600081519050610725816106ff565b92915050565b6000602082840312156107415761074061056b565b5b600061074f84828501610716565b9150509291505056fea264697066735822122096628a99ba1d9c9ce62bda633193485c14209b55b0f7f08fa0c1e73fe9357d3d64736f6c63430008120033",
					"opcodes": "PUSH1 0x80 PUSH1 0x40 MSTORE CALLVALUE DUP1 ISZERO PUSH2 0x10 JUMPI PUSH1 0x0 DUP1 REVERT JUMPDEST POP PUSH2 0x78E DUP1 PUSH2 0x20 PUSH1 0x0 CODECOPY PUSH1 0x0 RETURN INVALID PUSH1 0x80 PUSH1 0x40 MSTORE CALLVALUE DUP1 ISZERO PUSH2 0x10 JUMPI PUSH1 0x0 DUP1 REVERT JUMPDEST POP PUSH1 0x4 CALLDATASIZE LT PUSH2 0x4C JUMPI PUSH1 0x0 CALLDATALOAD PUSH1 0xE0 SHR DUP1 PUSH4 0x6A98827 EQ PUSH2 0x51 JUMPI DUP1 PUSH4 0x4C024C8F EQ PUSH2 0x81 JUMPI DUP1 PUSH4 0x729AD6B2 EQ PUSH2 0xB1 JUMPI DUP1 PUSH4 0xC78DC6B1 EQ PUSH2 0xE1 JUMPI JUMPDEST PUSH1 0x0 DUP1 REVERT JUMPDEST PUSH2 0x6B PUSH1 0x4 DUP1 CALLDATASIZE SUB DUP2 ADD SWAP1 PUSH2 0x66 SWAP2 SWAP1 PUSH2 0x5CE JUMP JUMPDEST PUSH2 0x111 JUMP JUMPDEST PUSH1 0x40 MLOAD PUSH2 0x78 SWAP2 SWAP1 PUSH2 0x60A JUMP JUMPDEST PUSH1 0x40 MLOAD DUP1 SWAP2 SUB SWAP1 RETURN JUMPDEST PUSH2 0x9B PUSH1 0x4 DUP1 CALLDATASIZE SUB DUP2 ADD SWAP1 PUSH2 0x96 SWAP2 SWAP1 PUSH2 0x625 JUMP JUMPDEST PUSH2 0x221 JUMP JUMPDEST PUSH1 0x40 MLOAD PUSH2 0xA8 SWAP2 SWAP1 PUSH2 0x60A JUMP JUMPDEST PUSH1 0x40 MLOAD DUP1 SWAP2 SUB SWAP1 RETURN JUMPDEST PUSH2 0xCB PUSH1 0x4 DUP1 CALLDATASIZE SUB DUP2 ADD SWAP1 PUSH2 0xC6 SWAP2 SWAP1 PUSH2 0x5CE JUMP JUMPDEST PUSH2 0x33D JUMP JUMPDEST PUSH1 0x40 MLOAD PUSH2 0xD8 SWAP2 SWAP1 PUSH2 0x60A JUMP JUMPDEST PUSH1 0x40 MLOAD DUP1 SWAP2 SUB SWAP1 RETURN JUMPDEST PUSH2 0xFB PUSH1 0x4 DUP1 CALLDATASIZE SUB DUP2 ADD SWAP1 PUSH2 0xF6 SWAP2 SWAP1 PUSH2 0x625 JUMP JUMPDEST PUSH2 0x44D JUMP JUMPDEST PUSH1 0x40 MLOAD PUSH2 0x108 SWAP2 SWAP1 PUSH2 0x60A JUMP JUMPDEST PUSH1 0x40 MLOAD DUP1 SWAP2 SUB SWAP1 RETURN JUMPDEST PUSH1 0x0 DUP1 DUP3 PUSH20 0xFFFFFFFFFFFFFFFFFFFFFFFFFFFFFFFFFFFFFFFF AND PUSH1 0x40 MLOAD PUSH1 0x24 ADD PUSH1 0x40 MLOAD PUSH1 0x20 DUP2 DUP4 SUB SUB DUP2 MSTORE SWAP1 PUSH1 0x40 MSTORE PUSH32 0x5E01EB5A00000000000000000000000000000000000000000000000000000000 PUSH28 0xFFFFFFFFFFFFFFFFFFFFFFFFFFFFFFFFFFFFFFFFFFFFFFFFFFFFFFFF NOT AND PUSH1 0x20 DUP3 ADD DUP1 MLOAD PUSH28 0xFFFFFFFFFFFFFFFFFFFFFFFFFFFFFFFFFFFFFFFFFFFFFFFFFFFFFFFF DUP4 DUP2 DUP4 AND OR DUP4 MSTORE POP POP POP POP PUSH1 0x40 MLOAD PUSH2 0x1BB SWAP2 SWAP1 PUSH2 0x6D6 JUMP JUMPDEST PUSH1 0x0 PUSH1 0x40 MLOAD DUP1 DUP4 SUB DUP2 DUP6 GAS STATICCALL SWAP2 POP POP RETURNDATASIZE DUP1 PUSH1 0x0 DUP2 EQ PUSH2 0x1F6 JUMPI PUSH1 0x40 MLOAD SWAP2 POP PUSH1 0x1F NOT PUSH1 0x3F RETURNDATASIZE ADD AND DUP3 ADD PUSH1 0x40 MSTORE RETURNDATASIZE DUP3 MSTORE RETURNDATASIZE PUSH1 0x0 PUSH1 0x20 DUP5 ADD RETURNDATACOPY PUSH2 0x1FB JUMP JUMPDEST PUSH1 0x60 SWAP2 POP JUMPDEST POP SWAP2 POP POP PUSH1 0x0 DUP2 DUP1 PUSH1 0x20 ADD SWAP1 MLOAD DUP2 ADD SWAP1 PUSH2 0x215 SWAP2 SWAP1 PUSH2 0x72B JUMP JUMPDEST SWAP1 POP DUP1 SWAP3 POP POP POP SWAP2 SWAP1 POP JUMP JUMPDEST PUSH1 0x0 DUP1 DUP4 PUSH20 0xFFFFFFFFFFFFFFFFFFFFFFFFFFFFFFFFFFFFFFFF AND DUP4 PUSH1 0x40 MLOAD PUSH1 0x24 ADD PUSH2 0x24C SWAP2 SWAP1 PUSH2 0x60A JUMP JUMPDEST PUSH1 0x40 MLOAD PUSH1 0x20 DUP2 DUP4 SUB SUB DUP2 MSTORE SWAP1 PUSH1 0x40 MSTORE PUSH32 0xED0F23AB00000000000000000000000000000000000000000000000000000000 PUSH28 0xFFFFFFFFFFFFFFFFFFFFFFFFFFFFFFFFFFFFFFFFFFFFFFFFFFFFFFFF NOT AND PUSH1 0x20 DUP3 ADD DUP1 MLOAD PUSH28 0xFFFFFFFFFFFFFFFFFFFFFFFFFFFFFFFFFFFFFFFFFFFFFFFFFFFFFFFF DUP4 DUP2 DUP4 AND OR DUP4 MSTORE POP POP POP POP PUSH1 0x40 MLOAD PUSH2 0x2D6 SWAP2 SWAP1 PUSH2 0x6D6 JUMP JUMPDEST PUSH1 0x0 PUSH1 0x40 MLOAD DUP1 DUP4 SUB DUP2 DUP6 GAS DELEGATECALL SWAP2 POP POP RETURNDATASIZE DUP1 PUSH1 0x0 DUP2 EQ PUSH2 0x311 JUMPI PUSH1 0x40 MLOAD SWAP2 POP PUSH1 0x1F NOT PUSH1 0x3F RETURNDATASIZE ADD AND DUP3 ADD PUSH1 0x40 MSTORE RETURNDATASIZE DUP3 MSTORE RETURNDATASIZE PUSH1 0x0 PUSH1 0x20 DUP5 ADD RETURNDATACOPY PUSH2 0x316 JUMP JUMPDEST PUSH1 0x60 SWAP2 POP JUMPDEST POP SWAP2 POP POP PUSH1 0x0 DUP2 DUP1 PUSH1 0x20 ADD SWAP1 MLOAD DUP2 ADD SWAP1 PUSH2 0x330 SWAP2 SWAP1 PUSH2 0x72B JUMP JUMPDEST SWAP1 POP DUP1 SWAP3 POP POP POP SWAP3 SWAP2 POP POP JUMP JUMPDEST PUSH1 0x0 DUP1 DUP3 PUSH20 0xFFFFFFFFFFFFFFFFFFFFFFFFFFFFFFFFFFFFFFFF AND PUSH1 0x40 MLOAD PUSH1 0x24 ADD PUSH1 0x40 MLOAD PUSH1 0x20 DUP2 DUP4 SUB SUB DUP2 MSTORE SWAP1 PUSH1 0x40 MSTORE PUSH32 0x5E01EB5A00000000000000000000000000000000000000000000000000000000 PUSH28 0xFFFFFFFFFFFFFFFFFFFFFFFFFFFFFFFFFFFFFFFFFFFFFFFFFFFFFFFF NOT AND PUSH1 0x20 DUP3 ADD DUP1 MLOAD PUSH28 0xFFFFFFFFFFFFFFFFFFFFFFFFFFFFFFFFFFFFFFFFFFFFFFFFFFFFFFFF DUP4 DUP2 DUP4 AND OR DUP4 MSTORE POP POP POP POP PUSH1 0x40 MLOAD PUSH2 0x3E7 SWAP2 SWAP1 PUSH2 0x6D6 JUMP JUMPDEST PUSH1 0x0 PUSH1 0x40 MLOAD DUP1 DUP4 SUB DUP2 DUP6 GAS DELEGATECALL SWAP2 POP POP RETURNDATASIZE DUP1 PUSH1 0x0 DUP2 EQ PUSH2 0x422 JUMPI PUSH1 0x40 MLOAD SWAP2 POP PUSH1 0x1F NOT PUSH1 0x3F RETURNDATASIZE ADD AND DUP3 ADD PUSH1 0x40 MSTORE RETURNDATASIZE DUP3 MSTORE RETURNDATASIZE PUSH1 0x0 PUSH1 0x20 DUP5 ADD RETURNDATACOPY PUSH2 0x427 JUMP JUMPDEST PUSH1 0x60 SWAP2 POP JUMPDEST POP SWAP2 POP POP PUSH1 0x0 DUP2 DUP1 PUSH1 0x20 ADD SWAP1 MLOAD DUP2 ADD SWAP1 PUSH2 0x441 SWAP2 SWAP1 PUSH2 0x72B JUMP JUMPDEST SWAP1 POP DUP1 SWAP3 POP POP POP SWAP2 SWAP1 POP JUMP JUMPDEST PUSH1 0x0 DUP1 DUP4 PUSH20 0xFFFFFFFFFFFFFFFFFFFFFFFFFFFFFFFFFFFFFFFF AND DUP4 PUSH1 0x40 MLOAD PUSH1 0x24 ADD PUSH2 0x478 SWAP2 SWAP1 PUSH2 0x60A JUMP JUMPDEST PUSH1 0x40 MLOAD PUSH1 0x20 DUP2 DUP4 SUB SUB DUP2 MSTORE SWAP1 PUSH1 0x40 MSTORE PUSH32 0x7DD84FFB00000000000000000000000000000000000000000000000000000000 PUSH28 0xFFFFFFFFFFFFFFFFFFFFFFFFFFFFFFFFFFFFFFFFFFFFFFFFFFFFFFFF NOT AND PUSH1 0x20 DUP3 ADD DUP1 MLOAD PUSH28 0xFFFFFFFFFFFFFFFFFFFFFFFFFFFFFFFFFFFFFFFFFFFFFFFFFFFFFFFF DUP4 DUP2 DUP4 AND OR DUP4 MSTORE POP POP POP POP PUSH1 0x40 MLOAD PUSH2 0x502 SWAP2 SWAP1 PUSH2 0x6D6 JUMP JUMPDEST PUSH1 0x0 PUSH1 0x40 MLOAD DUP1 DUP4 SUB DUP2 PUSH1 0x0 DUP7 GAS CALL SWAP2 POP POP RETURNDATASIZE DUP1 PUSH1 0x0 DUP2 EQ PUSH2 0x53F JUMPI PUSH1 0x40 MLOAD SWAP2 POP PUSH1 0x1F NOT PUSH1 0x3F RETURNDATASIZE ADD AND DUP3 ADD PUSH1 0x40 MSTORE RETURNDATASIZE DUP3 MSTORE RETURNDATASIZE PUSH1 0x0 PUSH1 0x20 DUP5 ADD RETURNDATACOPY PUSH2 0x544 JUMP JUMPDEST PUSH1 0x60 SWAP2 POP JUMPDEST POP SWAP2 POP POP PUSH1 0x0 DUP2 DUP1 PUSH1 0x20 ADD SWAP1 MLOAD DUP2 ADD SWAP1 PUSH2 0x55E SWAP2 SWAP1 PUSH2 0x72B JUMP JUMPDEST SWAP1 POP DUP1 SWAP3 POP POP POP SWAP3 SWAP2 POP POP JUMP JUMPDEST PUSH1 0x0 DUP1 REVERT JUMPDEST PUSH1 0x0 PUSH20 0xFFFFFFFFFFFFFFFFFFFFFFFFFFFFFFFFFFFFFFFF DUP3 AND SWAP1 POP SWAP2 SWAP1 POP JUMP JUMPDEST PUSH1 0x0 PUSH2 0x59B DUP3 PUSH2 0x570 JUMP JUMPDEST SWAP1 POP SWAP2 SWAP1 POP JUMP JUMPDEST PUSH2 0x5AB DUP2 PUSH2 0x590 JUMP JUMPDEST DUP2 EQ PUSH2 0x5B6 JUMPI PUSH1 0x0 DUP1 REVERT JUMPDEST POP JUMP JUMPDEST PUSH1 0x0 DUP2 CALLDATALOAD SWAP1 POP PUSH2 0x5C8 DUP2 PUSH2 0x5A2 JUMP JUMPDEST SWAP3 SWAP2 POP POP JUMP JUMPDEST PUSH1 0x0 PUSH1 0x20 DUP3 DUP5 SUB SLT ISZERO PUSH2 0x5E4 JUMPI PUSH2 0x5E3 PUSH2 0x56B JUMP JUMPDEST JUMPDEST PUSH1 0x0 PUSH2 0x5F2 DUP5 DUP3 DUP6 ADD PUSH2 0x5B9 JUMP JUMPDEST SWAP2 POP POP SWAP3 SWAP2 POP POP JUMP JUMPDEST PUSH2 0x604 DUP2 PUSH2 0x590 JUMP JUMPDEST DUP3 MSTORE POP POP JUMP JUMPDEST PUSH1 0x0 PUSH1 0x20 DUP3 ADD SWAP1 POP PUSH2 0x61F PUSH1 0x0 DUP4 ADD DUP5 PUSH2 0x5FB JUMP JUMPDEST SWAP3 SWAP2 POP POP JUMP JUMPDEST PUSH1 0x0 DUP1 PUSH1 0x40 DUP4 DUP6 SUB SLT ISZERO PUSH2 0x63C JUMPI PUSH2 0x63B PUSH2 0x56B JUMP JUMPDEST JUMPDEST PUSH1 0x0 PUSH2 0x64A DUP6 DUP3 DUP7 ADD PUSH2 0x5B9 JUMP JUMPDEST SWAP3 POP POP PUSH1 0x20 PUSH2 0x65B DUP6 DUP3 DUP7 ADD PUSH2 0x5B9 JUMP JUMPDEST SWAP2 POP POP SWAP3 POP SWAP3 SWAP1 POP JUMP JUMPDEST PUSH1 0x0 DUP2 MLOAD SWAP1 POP SWAP2 SWAP1 POP JUMP JUMPDEST PUSH1 0x0 DUP2 SWAP1 POP SWAP3 SWAP2 POP POP JUMP JUMPDEST PUSH1 0x0 JUMPDEST DUP4 DUP2 LT ISZERO PUSH2 0x699 JUMPI DUP1 DUP3 ADD MLOAD DUP2 DUP5 ADD MSTORE PUSH1 0x20 DUP2 ADD SWAP1 POP PUSH2 0x67E JUMP JUMPDEST PUSH1 0x0 DUP5 DUP5 ADD MSTORE POP POP POP POP JUMP JUMPDEST PUSH1 0x0 PUSH2 0x6B0 DUP3 PUSH2 0x665 JUMP JUMPDEST PUSH2 0x6BA DUP2 DUP6 PUSH2 0x670 JUMP JUMPDEST SWAP4 POP PUSH2 0x6CA DUP2 DUP6 PUSH1 0x20 DUP7 ADD PUSH2 0x67B JUMP JUMPDEST DUP1 DUP5 ADD SWAP2 POP POP SWAP3 SWAP2 POP POP JUMP JUMPDEST PUSH1 0x0 PUSH2 0x6E2 DUP3 DUP5 PUSH2 0x6A5 JUMP JUMPDEST SWAP2 POP DUP2 SWAP1 POP SWAP3 SWAP2 POP POP JUMP JUMPDEST PUSH1 0x0 PUSH2 0x6F8 DUP3 PUSH2 0x570 JUMP JUMPDEST SWAP1 POP SWAP2 SWAP1 POP JUMP JUMPDEST PUSH2 0x708 DUP2 PUSH2 0x6ED JUMP JUMPDEST DUP2 EQ PUSH2 0x713 JUMPI PUSH1 0x0 DUP1 REVERT JUMPDEST POP JUMP JUMPDEST PUSH1 0x0 DUP2 MLOAD SWAP1 POP PUSH2 0x725 DUP2 PUSH2 0x6FF JUMP JUMPDEST SWAP3 SWAP2 POP POP JUMP JUMPDEST PUSH1 0x0 PUSH1 0x20 DUP3 DUP5 SUB SLT ISZERO PUSH2 0x741 JUMPI PUSH2 0x740 PUSH2 0x56B JUMP JUMPDEST JUMPDEST PUSH1 0x0 PUSH2 0x74F DUP5 DUP3 DUP6 ADD PUSH2 0x716 JUMP JUMPDEST SWAP2 POP POP SWAP3 SWAP2 POP POP JUMP INVALID LOG2 PUSH5 0x6970667358 0x22 SLT KECCAK256 SWAP7 PUSH3 0x8A99BA SAR SWAP13 SWAP13 0xE6 0x2B 0xDA PUSH4 0x3193485C EQ KECCAK256 SWAP12 SSTORE 0xB0 0xF7 CREATE DUP16 LOG0 0xC1 0xE7 EXTCODEHASH 0xE9 CALLDATALOAD PUSH30 0x3D64736F6C63430008120033000000000000000000000000000000000000 "
				},
				"gasEstimates": {
					"creation": {
						"codeDepositCost": "386800",
						"executionCost": "424",
						"totalCost": "387224"
					},
					"external": {
						"callB(address)": "infinite",
						"callBdelegatecallC(address,address)": "infinite",
						"delegatecallB(address)": "infinite",
						"delegatecallBcallC(address,address)": "infinite"
					}
				},
				"methodIdentifiers": {
					"callB(address)": "06a98827",
					"callBdelegatecallC(address,address)": "c78dc6b1",
					"delegatecallB(address)": "729ad6b2",
					"delegatecallBcallC(address,address)": "4c024c8f"
				}
			},
			"storageLayout": {
				"storage": [],
				"types": null
			},
			"userdoc": {
				"kind": "user",
				"methods": {},
				"version": 1
			}
		}
	}
}