{
	"week6/class/DelegatecallPractice.sol": {
		"B": {
			"abi": [
				{
					"inputs": [
						{
							"internalType": "address",
							"name": "addr",
							"type": "address"
						}
					],
					"name": "callC",
					"outputs": [
						{
							"internalType": "address",
							"name": "",
							"type": "address"
						}
					],
					"stateMutability": "nonpayable",
					"type": "function"
				},
				{
					"inputs": [
						{
							"internalType": "address",
							"name": "addr",
							"type": "address"
						}
					],
					"name": "delegatecallC",
					"outputs": [
						{
							"internalType": "address",
							"name": "",
							"type": "address"
						}
					],
					"stateMutability": "nonpayable",
					"type": "function"
				},
				{
					"inputs": [],
					"name": "getSender",
					"outputs": [
						{
							"internalType": "address",
							"name": "",
							"type": "address"
						}
					],
					"stateMutability": "view",
					"type": "function"
				}
			],
			"devdoc": {
				"kind": "dev",
				"methods": {},
				"version": 1
			},
			"evm": {
				"assembly": "    /* \"week6/class/DelegatecallPractice.sol\":1598:2169  contract B {... */\n  mstore(0x40, 0x80)\n  callvalue\n  dup1\n  iszero\n  tag_1\n  jumpi\n  0x00\n  dup1\n  revert\ntag_1:\n  pop\n  dataSize(sub_0)\n  dup1\n  dataOffset(sub_0)\n  0x00\n  codecopy\n  0x00\n  return\nstop\n\nsub_0: assembly {\n        /* \"week6/class/DelegatecallPractice.sol\":1598:2169  contract B {... */\n      mstore(0x40, 0x80)\n      callvalue\n      dup1\n      iszero\n      tag_1\n      jumpi\n      0x00\n      dup1\n      revert\n    tag_1:\n      pop\n      jumpi(tag_2, lt(calldatasize, 0x04))\n      shr(0xe0, calldataload(0x00))\n      dup1\n      0x5e01eb5a\n      eq\n      tag_3\n      jumpi\n      dup1\n      0x7dd84ffb\n      eq\n      tag_4\n      jumpi\n      dup1\n      0xed0f23ab\n      eq\n      tag_5\n      jumpi\n    tag_2:\n      0x00\n      dup1\n      revert\n        /* \"week6/class/DelegatecallPractice.sol\":1614:1696  function getSender() public view returns (address) {... */\n    tag_3:\n      tag_6\n      tag_7\n      jump\t// in\n    tag_6:\n      mload(0x40)\n      tag_8\n      swap2\n      swap1\n      tag_9\n      jump\t// in\n    tag_8:\n      mload(0x40)\n      dup1\n      swap2\n      sub\n      swap1\n      return\n        /* \"week6/class/DelegatecallPractice.sol\":1929:2167  function delegatecallC(address addr) public returns (address) {... */\n    tag_4:\n      tag_10\n      0x04\n      dup1\n      calldatasize\n      sub\n      dup2\n      add\n      swap1\n      tag_11\n      swap2\n      swap1\n      tag_12\n      jump\t// in\n    tag_11:\n      tag_13\n      jump\t// in\n    tag_10:\n      mload(0x40)\n      tag_14\n      swap2\n      swap1\n      tag_9\n      jump\t// in\n    tag_14:\n      mload(0x40)\n      dup1\n      swap2\n      sub\n      swap1\n      return\n        /* \"week6/class/DelegatecallPractice.sol\":1701:1923  function callC(address addr) public returns (address) {... */\n    tag_5:\n      tag_15\n      0x04\n      dup1\n      calldatasize\n      sub\n      dup2\n      add\n      swap1\n      tag_16\n      swap2\n      swap1\n      tag_12\n      jump\t// in\n    tag_16:\n      tag_17\n      jump\t// in\n    tag_15:\n      mload(0x40)\n      tag_18\n      swap2\n      swap1\n      tag_9\n      jump\t// in\n    tag_18:\n      mload(0x40)\n      dup1\n      swap2\n      sub\n      swap1\n      return\n        /* \"week6/class/DelegatecallPractice.sol\":1614:1696  function getSender() public view returns (address) {... */\n    tag_7:\n        /* \"week6/class/DelegatecallPractice.sol\":1656:1663  address */\n      0x00\n        /* \"week6/class/DelegatecallPractice.sol\":1680:1690  msg.sender */\n      caller\n        /* \"week6/class/DelegatecallPractice.sol\":1673:1690  return msg.sender */\n      swap1\n      pop\n        /* \"week6/class/DelegatecallPractice.sol\":1614:1696  function getSender() public view returns (address) {... */\n      swap1\n      jump\t// out\n        /* \"week6/class/DelegatecallPractice.sol\":1929:2167  function delegatecallC(address addr) public returns (address) {... */\n    tag_13:\n        /* \"week6/class/DelegatecallPractice.sol\":1982:1989  address */\n      0x00\n        /* \"week6/class/DelegatecallPractice.sol\":2004:2021  bytes memory data */\n      dup1\n        /* \"week6/class/DelegatecallPractice.sol\":2025:2029  addr */\n      dup3\n        /* \"week6/class/DelegatecallPractice.sol\":2025:2042  addr.delegatecall */\n      0xffffffffffffffffffffffffffffffffffffffff\n      and\n        /* \"week6/class/DelegatecallPractice.sol\":2043:2081  abi.encodeWithSignature(\"getSender()\") */\n      add(0x24, mload(0x40))\n      mload(0x40)\n      0x20\n      dup2\n      dup4\n      sub\n      sub\n      dup2\n      mstore\n      swap1\n      0x40\n      mstore\n      and(not(0xffffffffffffffffffffffffffffffffffffffffffffffffffffffff), 0x5e01eb5a00000000000000000000000000000000000000000000000000000000)\n      0x20\n      dup3\n      add\n      dup1\n      mload\n      0xffffffffffffffffffffffffffffffffffffffffffffffffffffffff\n      dup4\n      dup2\n      dup4\n      and\n      or\n      dup4\n      mstore\n      pop\n      pop\n      pop\n      pop\n        /* \"week6/class/DelegatecallPractice.sol\":2025:2082  addr.delegatecall(abi.encodeWithSignature(\"getSender()\")) */\n      mload(0x40)\n      tag_21\n      swap2\n      swap1\n      tag_22\n      jump\t// in\n    tag_21:\n      0x00\n      mload(0x40)\n      dup1\n      dup4\n      sub\n      dup2\n      dup6\n      gas\n      delegatecall\n      swap2\n      pop\n      pop\n      returndatasize\n      dup1\n      0x00\n      dup2\n      eq\n      tag_25\n      jumpi\n      mload(0x40)\n      swap2\n      pop\n      and(add(returndatasize, 0x3f), not(0x1f))\n      dup3\n      add\n      0x40\n      mstore\n      returndatasize\n      dup3\n      mstore\n      returndatasize\n      0x00\n      0x20\n      dup5\n      add\n      returndatacopy\n      jump(tag_24)\n    tag_25:\n      0x60\n      swap2\n      pop\n    tag_24:\n      pop\n        /* \"week6/class/DelegatecallPractice.sol\":2001:2082  (, bytes memory data) = addr.delegatecall(abi.encodeWithSignature(\"getSender()\")) */\n      swap2\n      pop\n      pop\n        /* \"week6/class/DelegatecallPractice.sol\":2092:2106  address sender */\n      0x00\n        /* \"week6/class/DelegatecallPractice.sol\":2120:2124  data */\n      dup2\n        /* \"week6/class/DelegatecallPractice.sol\":2109:2136  abi.decode(data, (address)) */\n      dup1\n      0x20\n      add\n      swap1\n      mload\n      dup2\n      add\n      swap1\n      tag_26\n      swap2\n      swap1\n      tag_27\n      jump\t// in\n    tag_26:\n        /* \"week6/class/DelegatecallPractice.sol\":2092:2136  address sender = abi.decode(data, (address)) */\n      swap1\n      pop\n        /* \"week6/class/DelegatecallPractice.sol\":2154:2160  sender */\n      dup1\n        /* \"week6/class/DelegatecallPractice.sol\":2147:2160  return sender */\n      swap3\n      pop\n      pop\n      pop\n        /* \"week6/class/DelegatecallPractice.sol\":1929:2167  function delegatecallC(address addr) public returns (address) {... */\n      swap2\n      swap1\n      pop\n      jump\t// out\n        /* \"week6/class/DelegatecallPractice.sol\":1701:1923  function callC(address addr) public returns (address) {... */\n    tag_17:\n        /* \"week6/class/DelegatecallPractice.sol\":1746:1753  address */\n      0x00\n        /* \"week6/class/DelegatecallPractice.sol\":1768:1785  bytes memory data */\n      dup1\n        /* \"week6/class/DelegatecallPractice.sol\":1789:1793  addr */\n      dup3\n        /* \"week6/class/DelegatecallPractice.sol\":1789:1798  addr.call */\n      0xffffffffffffffffffffffffffffffffffffffff\n      and\n        /* \"week6/class/DelegatecallPractice.sol\":1799:1837  abi.encodeWithSignature(\"getSender()\") */\n      add(0x24, mload(0x40))\n      mload(0x40)\n      0x20\n      dup2\n      dup4\n      sub\n      sub\n      dup2\n      mstore\n      swap1\n      0x40\n      mstore\n      and(not(0xffffffffffffffffffffffffffffffffffffffffffffffffffffffff), 0x5e01eb5a00000000000000000000000000000000000000000000000000000000)\n      0x20\n      dup3\n      add\n      dup1\n      mload\n      0xffffffffffffffffffffffffffffffffffffffffffffffffffffffff\n      dup4\n      dup2\n      dup4\n      and\n      or\n      dup4\n      mstore\n      pop\n      pop\n      pop\n      pop\n        /* \"week6/class/DelegatecallPractice.sol\":1789:1838  addr.call(abi.encodeWithSignature(\"getSender()\")) */\n      mload(0x40)\n      tag_29\n      swap2\n      swap1\n      tag_22\n      jump\t// in\n    tag_29:\n      0x00\n      mload(0x40)\n      dup1\n      dup4\n      sub\n      dup2\n      0x00\n      dup7\n      gas\n      call\n      swap2\n      pop\n      pop\n      returndatasize\n      dup1\n      0x00\n      dup2\n      eq\n      tag_32\n      jumpi\n      mload(0x40)\n      swap2\n      pop\n      and(add(returndatasize, 0x3f), not(0x1f))\n      dup3\n      add\n      0x40\n      mstore\n      returndatasize\n      dup3\n      mstore\n      returndatasize\n      0x00\n      0x20\n      dup5\n      add\n      returndatacopy\n      jump(tag_31)\n    tag_32:\n      0x60\n      swap2\n      pop\n    tag_31:\n      pop\n        /* \"week6/class/DelegatecallPractice.sol\":1765:1838  (, bytes memory data) = addr.call(abi.encodeWithSignature(\"getSender()\")) */\n      swap2\n      pop\n      pop\n        /* \"week6/class/DelegatecallPractice.sol\":1848:1862  address sender */\n      0x00\n        /* \"week6/class/DelegatecallPractice.sol\":1876:1880  data */\n      dup2\n        /* \"week6/class/DelegatecallPractice.sol\":1865:1892  abi.decode(data, (address)) */\n      dup1\n      0x20\n      add\n      swap1\n      mload\n      dup2\n      add\n      swap1\n      tag_33\n      swap2\n      swap1\n      tag_27\n      jump\t// in\n    tag_33:\n        /* \"week6/class/DelegatecallPractice.sol\":1848:1892  address sender = abi.decode(data, (address)) */\n      swap1\n      pop\n        /* \"week6/class/DelegatecallPractice.sol\":1910:1916  sender */\n      dup1\n        /* \"week6/class/DelegatecallPractice.sol\":1903:1916  return sender */\n      swap3\n      pop\n      pop\n      pop\n        /* \"week6/class/DelegatecallPractice.sol\":1701:1923  function callC(address addr) public returns (address) {... */\n      swap2\n      swap1\n      pop\n      jump\t// out\n        /* \"#utility.yul\":7:133   */\n    tag_34:\n        /* \"#utility.yul\":44:51   */\n      0x00\n        /* \"#utility.yul\":84:126   */\n      0xffffffffffffffffffffffffffffffffffffffff\n        /* \"#utility.yul\":77:82   */\n      dup3\n        /* \"#utility.yul\":73:127   */\n      and\n        /* \"#utility.yul\":62:127   */\n      swap1\n      pop\n        /* \"#utility.yul\":7:133   */\n      swap2\n      swap1\n      pop\n      jump\t// out\n        /* \"#utility.yul\":139:235   */\n    tag_35:\n        /* \"#utility.yul\":176:183   */\n      0x00\n        /* \"#utility.yul\":205:229   */\n      tag_52\n        /* \"#utility.yul\":223:228   */\n      dup3\n        /* \"#utility.yul\":205:229   */\n      tag_34\n      jump\t// in\n    tag_52:\n        /* \"#utility.yul\":194:229   */\n      swap1\n      pop\n        /* \"#utility.yul\":139:235   */\n      swap2\n      swap1\n      pop\n      jump\t// out\n        /* \"#utility.yul\":241:359   */\n    tag_36:\n        /* \"#utility.yul\":328:352   */\n      tag_54\n        /* \"#utility.yul\":346:351   */\n      dup2\n        /* \"#utility.yul\":328:352   */\n      tag_35\n      jump\t// in\n    tag_54:\n        /* \"#utility.yul\":323:326   */\n      dup3\n        /* \"#utility.yul\":316:353   */\n      mstore\n        /* \"#utility.yul\":241:359   */\n      pop\n      pop\n      jump\t// out\n        /* \"#utility.yul\":365:587   */\n    tag_9:\n        /* \"#utility.yul\":458:462   */\n      0x00\n        /* \"#utility.yul\":496:498   */\n      0x20\n        /* \"#utility.yul\":485:494   */\n      dup3\n        /* \"#utility.yul\":481:499   */\n      add\n        /* \"#utility.yul\":473:499   */\n      swap1\n      pop\n        /* \"#utility.yul\":509:580   */\n      tag_56\n        /* \"#utility.yul\":577:578   */\n      0x00\n        /* \"#utility.yul\":566:575   */\n      dup4\n        /* \"#utility.yul\":562:579   */\n      add\n        /* \"#utility.yul\":553:559   */\n      dup5\n        /* \"#utility.yul\":509:580   */\n      tag_36\n      jump\t// in\n    tag_56:\n        /* \"#utility.yul\":365:587   */\n      swap3\n      swap2\n      pop\n      pop\n      jump\t// out\n        /* \"#utility.yul\":674:791   */\n    tag_38:\n        /* \"#utility.yul\":783:784   */\n      0x00\n        /* \"#utility.yul\":780:781   */\n      dup1\n        /* \"#utility.yul\":773:785   */\n      revert\n        /* \"#utility.yul\":920:1042   */\n    tag_40:\n        /* \"#utility.yul\":993:1017   */\n      tag_61\n        /* \"#utility.yul\":1011:1016   */\n      dup2\n        /* \"#utility.yul\":993:1017   */\n      tag_35\n      jump\t// in\n    tag_61:\n        /* \"#utility.yul\":986:991   */\n      dup2\n        /* \"#utility.yul\":983:1018   */\n      eq\n        /* \"#utility.yul\":973:1036   */\n      tag_62\n      jumpi\n        /* \"#utility.yul\":1032:1033   */\n      0x00\n        /* \"#utility.yul\":1029:1030   */\n      dup1\n        /* \"#utility.yul\":1022:1034   */\n      revert\n        /* \"#utility.yul\":973:1036   */\n    tag_62:\n        /* \"#utility.yul\":920:1042   */\n      pop\n      jump\t// out\n        /* \"#utility.yul\":1048:1187   */\n    tag_41:\n        /* \"#utility.yul\":1094:1099   */\n      0x00\n        /* \"#utility.yul\":1132:1138   */\n      dup2\n        /* \"#utility.yul\":1119:1139   */\n      calldataload\n        /* \"#utility.yul\":1110:1139   */\n      swap1\n      pop\n        /* \"#utility.yul\":1148:1181   */\n      tag_64\n        /* \"#utility.yul\":1175:1180   */\n      dup2\n        /* \"#utility.yul\":1148:1181   */\n      tag_40\n      jump\t// in\n    tag_64:\n        /* \"#utility.yul\":1048:1187   */\n      swap3\n      swap2\n      pop\n      pop\n      jump\t// out\n        /* \"#utility.yul\":1193:1522   */\n    tag_12:\n        /* \"#utility.yul\":1252:1258   */\n      0x00\n        /* \"#utility.yul\":1301:1303   */\n      0x20\n        /* \"#utility.yul\":1289:1298   */\n      dup3\n        /* \"#utility.yul\":1280:1287   */\n      dup5\n        /* \"#utility.yul\":1276:1299   */\n      sub\n        /* \"#utility.yul\":1272:1304   */\n      slt\n        /* \"#utility.yul\":1269:1388   */\n      iszero\n      tag_66\n      jumpi\n        /* \"#utility.yul\":1307:1386   */\n      tag_67\n      tag_38\n      jump\t// in\n    tag_67:\n        /* \"#utility.yul\":1269:1388   */\n    tag_66:\n        /* \"#utility.yul\":1427:1428   */\n      0x00\n        /* \"#utility.yul\":1452:1505   */\n      tag_68\n        /* \"#utility.yul\":1497:1504   */\n      dup5\n        /* \"#utility.yul\":1488:1494   */\n      dup3\n        /* \"#utility.yul\":1477:1486   */\n      dup6\n        /* \"#utility.yul\":1473:1495   */\n      add\n        /* \"#utility.yul\":1452:1505   */\n      tag_41\n      jump\t// in\n    tag_68:\n        /* \"#utility.yul\":1442:1505   */\n      swap2\n      pop\n        /* \"#utility.yul\":1398:1515   */\n      pop\n        /* \"#utility.yul\":1193:1522   */\n      swap3\n      swap2\n      pop\n      pop\n      jump\t// out\n        /* \"#utility.yul\":1528:1626   */\n    tag_42:\n        /* \"#utility.yul\":1579:1585   */\n      0x00\n        /* \"#utility.yul\":1613:1618   */\n      dup2\n        /* \"#utility.yul\":1607:1619   */\n      mload\n        /* \"#utility.yul\":1597:1619   */\n      swap1\n      pop\n        /* \"#utility.yul\":1528:1626   */\n      swap2\n      swap1\n      pop\n      jump\t// out\n        /* \"#utility.yul\":1632:1779   */\n    tag_43:\n        /* \"#utility.yul\":1733:1744   */\n      0x00\n        /* \"#utility.yul\":1770:1773   */\n      dup2\n        /* \"#utility.yul\":1755:1773   */\n      swap1\n      pop\n        /* \"#utility.yul\":1632:1779   */\n      swap3\n      swap2\n      pop\n      pop\n      jump\t// out\n        /* \"#utility.yul\":1785:2031   */\n    tag_44:\n        /* \"#utility.yul\":1866:1867   */\n      0x00\n        /* \"#utility.yul\":1876:1989   */\n    tag_72:\n        /* \"#utility.yul\":1890:1896   */\n      dup4\n        /* \"#utility.yul\":1887:1888   */\n      dup2\n        /* \"#utility.yul\":1884:1897   */\n      lt\n        /* \"#utility.yul\":1876:1989   */\n      iszero\n      tag_74\n      jumpi\n        /* \"#utility.yul\":1975:1976   */\n      dup1\n        /* \"#utility.yul\":1970:1973   */\n      dup3\n        /* \"#utility.yul\":1966:1977   */\n      add\n        /* \"#utility.yul\":1960:1978   */\n      mload\n        /* \"#utility.yul\":1956:1957   */\n      dup2\n        /* \"#utility.yul\":1951:1954   */\n      dup5\n        /* \"#utility.yul\":1947:1958   */\n      add\n        /* \"#utility.yul\":1940:1979   */\n      mstore\n        /* \"#utility.yul\":1912:1914   */\n      0x20\n        /* \"#utility.yul\":1909:1910   */\n      dup2\n        /* \"#utility.yul\":1905:1915   */\n      add\n        /* \"#utility.yul\":1900:1915   */\n      swap1\n      pop\n        /* \"#utility.yul\":1876:1989   */\n      jump(tag_72)\n    tag_74:\n        /* \"#utility.yul\":2023:2024   */\n      0x00\n        /* \"#utility.yul\":2014:2020   */\n      dup5\n        /* \"#utility.yul\":2009:2012   */\n      dup5\n        /* \"#utility.yul\":2005:2021   */\n      add\n        /* \"#utility.yul\":1998:2025   */\n      mstore\n        /* \"#utility.yul\":1847:2031   */\n      pop\n        /* \"#utility.yul\":1785:2031   */\n      pop\n      pop\n      pop\n      jump\t// out\n        /* \"#utility.yul\":2037:2423   */\n    tag_45:\n        /* \"#utility.yul\":2141:2144   */\n      0x00\n        /* \"#utility.yul\":2169:2207   */\n      tag_76\n        /* \"#utility.yul\":2201:2206   */\n      dup3\n        /* \"#utility.yul\":2169:2207   */\n      tag_42\n      jump\t// in\n    tag_76:\n        /* \"#utility.yul\":2223:2311   */\n      tag_77\n        /* \"#utility.yul\":2304:2310   */\n      dup2\n        /* \"#utility.yul\":2299:2302   */\n      dup6\n        /* \"#utility.yul\":2223:2311   */\n      tag_43\n      jump\t// in\n    tag_77:\n        /* \"#utility.yul\":2216:2311   */\n      swap4\n      pop\n        /* \"#utility.yul\":2320:2385   */\n      tag_78\n        /* \"#utility.yul\":2378:2384   */\n      dup2\n        /* \"#utility.yul\":2373:2376   */\n      dup6\n        /* \"#utility.yul\":2366:2370   */\n      0x20\n        /* \"#utility.yul\":2359:2364   */\n      dup7\n        /* \"#utility.yul\":2355:2371   */\n      add\n        /* \"#utility.yul\":2320:2385   */\n      tag_44\n      jump\t// in\n    tag_78:\n        /* \"#utility.yul\":2410:2416   */\n      dup1\n        /* \"#utility.yul\":2405:2408   */\n      dup5\n        /* \"#utility.yul\":2401:2417   */\n      add\n        /* \"#utility.yul\":2394:2417   */\n      swap2\n      pop\n        /* \"#utility.yul\":2145:2423   */\n      pop\n        /* \"#utility.yul\":2037:2423   */\n      swap3\n      swap2\n      pop\n      pop\n      jump\t// out\n        /* \"#utility.yul\":2429:2700   */\n    tag_22:\n        /* \"#utility.yul\":2559:2562   */\n      0x00\n        /* \"#utility.yul\":2581:2674   */\n      tag_80\n        /* \"#utility.yul\":2670:2673   */\n      dup3\n        /* \"#utility.yul\":2661:2667   */\n      dup5\n        /* \"#utility.yul\":2581:2674   */\n      tag_45\n      jump\t// in\n    tag_80:\n        /* \"#utility.yul\":2574:2674   */\n      swap2\n      pop\n        /* \"#utility.yul\":2691:2694   */\n      dup2\n        /* \"#utility.yul\":2684:2694   */\n      swap1\n      pop\n        /* \"#utility.yul\":2429:2700   */\n      swap3\n      swap2\n      pop\n      pop\n      jump\t// out\n        /* \"#utility.yul\":2706:2810   */\n    tag_46:\n        /* \"#utility.yul\":2751:2758   */\n      0x00\n        /* \"#utility.yul\":2780:2804   */\n      tag_82\n        /* \"#utility.yul\":2798:2803   */\n      dup3\n        /* \"#utility.yul\":2780:2804   */\n      tag_34\n      jump\t// in\n    tag_82:\n        /* \"#utility.yul\":2769:2804   */\n      swap1\n      pop\n        /* \"#utility.yul\":2706:2810   */\n      swap2\n      swap1\n      pop\n      jump\t// out\n        /* \"#utility.yul\":2816:2954   */\n    tag_47:\n        /* \"#utility.yul\":2897:2929   */\n      tag_84\n        /* \"#utility.yul\":2923:2928   */\n      dup2\n        /* \"#utility.yul\":2897:2929   */\n      tag_46\n      jump\t// in\n    tag_84:\n        /* \"#utility.yul\":2890:2895   */\n      dup2\n        /* \"#utility.yul\":2887:2930   */\n      eq\n        /* \"#utility.yul\":2877:2948   */\n      tag_85\n      jumpi\n        /* \"#utility.yul\":2944:2945   */\n      0x00\n        /* \"#utility.yul\":2941:2942   */\n      dup1\n        /* \"#utility.yul\":2934:2946   */\n      revert\n        /* \"#utility.yul\":2877:2948   */\n    tag_85:\n        /* \"#utility.yul\":2816:2954   */\n      pop\n      jump\t// out\n        /* \"#utility.yul\":2960:3119   */\n    tag_48:\n        /* \"#utility.yul\":3025:3030   */\n      0x00\n        /* \"#utility.yul\":3056:3062   */\n      dup2\n        /* \"#utility.yul\":3050:3063   */\n      mload\n        /* \"#utility.yul\":3041:3063   */\n      swap1\n      pop\n        /* \"#utility.yul\":3072:3113   */\n      tag_87\n        /* \"#utility.yul\":3107:3112   */\n      dup2\n        /* \"#utility.yul\":3072:3113   */\n      tag_47\n      jump\t// in\n    tag_87:\n        /* \"#utility.yul\":2960:3119   */\n      swap3\n      swap2\n      pop\n      pop\n      jump\t// out\n        /* \"#utility.yul\":3125:3492   */\n    tag_27:\n        /* \"#utility.yul\":3203:3209   */\n      0x00\n        /* \"#utility.yul\":3252:3254   */\n      0x20\n        /* \"#utility.yul\":3240:3249   */\n      dup3\n        /* \"#utility.yul\":3231:3238   */\n      dup5\n        /* \"#utility.yul\":3227:3250   */\n      sub\n        /* \"#utility.yul\":3223:3255   */\n      slt\n        /* \"#utility.yul\":3220:3339   */\n      iszero\n      tag_89\n      jumpi\n        /* \"#utility.yul\":3258:3337   */\n      tag_90\n      tag_38\n      jump\t// in\n    tag_90:\n        /* \"#utility.yul\":3220:3339   */\n    tag_89:\n        /* \"#utility.yul\":3378:3379   */\n      0x00\n        /* \"#utility.yul\":3403:3475   */\n      tag_91\n        /* \"#utility.yul\":3467:3474   */\n      dup5\n        /* \"#utility.yul\":3458:3464   */\n      dup3\n        /* \"#utility.yul\":3447:3456   */\n      dup6\n        /* \"#utility.yul\":3443:3465   */\n      add\n        /* \"#utility.yul\":3403:3475   */\n      tag_48\n      jump\t// in\n    tag_91:\n        /* \"#utility.yul\":3393:3475   */\n      swap2\n      pop\n        /* \"#utility.yul\":3349:3485   */\n      pop\n        /* \"#utility.yul\":3125:3492   */\n      swap3\n      swap2\n      pop\n      pop\n      jump\t// out\n\n    auxdata: 0xa2646970667358221220e110c152f1354c59f3e23de004c8f05fc9353643a46f3f0bba5e12c78b4cdcc164736f6c63430008120033\n}\n",
				"bytecode": {
					"linkReferences": {},
					"object": "608060405234801561001057600080fd5b506104d1806100206000396000f3fe608060405234801561001057600080fd5b50600436106100415760003560e01c80635e01eb5a146100465780637dd84ffb14610064578063ed0f23ab14610094575b600080fd5b61004e6100c4565b60405161005b919061032f565b60405180910390f35b61007e6004803603810190610079919061037b565b6100cc565b60405161008b919061032f565b60405180910390f35b6100ae60048036038101906100a9919061037b565b6101dc565b6040516100bb919061032f565b60405180910390f35b600033905090565b6000808273ffffffffffffffffffffffffffffffffffffffff166040516024016040516020818303038152906040527f5e01eb5a000000000000000000000000000000000000000000000000000000007bffffffffffffffffffffffffffffffffffffffffffffffffffffffff19166020820180517bffffffffffffffffffffffffffffffffffffffffffffffffffffffff83818316178352505050506040516101769190610419565b600060405180830381855af49150503d80600081146101b1576040519150601f19603f3d011682016040523d82523d6000602084013e6101b6565b606091505b509150506000818060200190518101906101d0919061046e565b90508092505050919050565b6000808273ffffffffffffffffffffffffffffffffffffffff166040516024016040516020818303038152906040527f5e01eb5a000000000000000000000000000000000000000000000000000000007bffffffffffffffffffffffffffffffffffffffffffffffffffffffff19166020820180517bffffffffffffffffffffffffffffffffffffffffffffffffffffffff83818316178352505050506040516102869190610419565b6000604051808303816000865af19150503d80600081146102c3576040519150601f19603f3d011682016040523d82523d6000602084013e6102c8565b606091505b509150506000818060200190518101906102e2919061046e565b90508092505050919050565b600073ffffffffffffffffffffffffffffffffffffffff82169050919050565b6000610319826102ee565b9050919050565b6103298161030e565b82525050565b60006020820190506103446000830184610320565b92915050565b600080fd5b6103588161030e565b811461036357600080fd5b50565b6000813590506103758161034f565b92915050565b6000602082840312156103915761039061034a565b5b600061039f84828501610366565b91505092915050565b600081519050919050565b600081905092915050565b60005b838110156103dc5780820151818401526020810190506103c1565b60008484015250505050565b60006103f3826103a8565b6103fd81856103b3565b935061040d8185602086016103be565b80840191505092915050565b600061042582846103e8565b915081905092915050565b600061043b826102ee565b9050919050565b61044b81610430565b811461045657600080fd5b50565b60008151905061046881610442565b92915050565b6000602082840312156104845761048361034a565b5b600061049284828501610459565b9150509291505056fea2646970667358221220e110c152f1354c59f3e23de004c8f05fc9353643a46f3f0bba5e12c78b4cdcc164736f6c63430008120033",
					"opcodes": "PUSH1 0x80 PUSH1 0x40 MSTORE CALLVALUE DUP1 ISZERO PUSH2 0x10 JUMPI PUSH1 0x0 DUP1 REVERT JUMPDEST POP PUSH2 0x4D1 DUP1 PUSH2 0x20 PUSH1 0x0 CODECOPY PUSH1 0x0 RETURN INVALID PUSH1 0x80 PUSH1 0x40 MSTORE CALLVALUE DUP1 ISZERO PUSH2 0x10 JUMPI PUSH1 0x0 DUP1 REVERT JUMPDEST POP PUSH1 0x4 CALLDATASIZE LT PUSH2 0x41 JUMPI PUSH1 0x0 CALLDATALOAD PUSH1 0xE0 SHR DUP1 PUSH4 0x5E01EB5A EQ PUSH2 0x46 JUMPI DUP1 PUSH4 0x7DD84FFB EQ PUSH2 0x64 JUMPI DUP1 PUSH4 0xED0F23AB EQ PUSH2 0x94 JUMPI JUMPDEST PUSH1 0x0 DUP1 REVERT JUMPDEST PUSH2 0x4E PUSH2 0xC4 JUMP JUMPDEST PUSH1 0x40 MLOAD PUSH2 0x5B SWAP2 SWAP1 PUSH2 0x32F JUMP JUMPDEST PUSH1 0x40 MLOAD DUP1 SWAP2 SUB SWAP1 RETURN JUMPDEST PUSH2 0x7E PUSH1 0x4 DUP1 CALLDATASIZE SUB DUP2 ADD SWAP1 PUSH2 0x79 SWAP2 SWAP1 PUSH2 0x37B JUMP JUMPDEST PUSH2 0xCC JUMP JUMPDEST PUSH1 0x40 MLOAD PUSH2 0x8B SWAP2 SWAP1 PUSH2 0x32F JUMP JUMPDEST PUSH1 0x40 MLOAD DUP1 SWAP2 SUB SWAP1 RETURN JUMPDEST PUSH2 0xAE PUSH1 0x4 DUP1 CALLDATASIZE SUB DUP2 ADD SWAP1 PUSH2 0xA9 SWAP2 SWAP1 PUSH2 0x37B JUMP JUMPDEST PUSH2 0x1DC JUMP JUMPDEST PUSH1 0x40 MLOAD PUSH2 0xBB SWAP2 SWAP1 PUSH2 0x32F JUMP JUMPDEST PUSH1 0x40 MLOAD DUP1 SWAP2 SUB SWAP1 RETURN JUMPDEST PUSH1 0x0 CALLER SWAP1 POP SWAP1 JUMP JUMPDEST PUSH1 0x0 DUP1 DUP3 PUSH20 0xFFFFFFFFFFFFFFFFFFFFFFFFFFFFFFFFFFFFFFFF AND PUSH1 0x40 MLOAD PUSH1 0x24 ADD PUSH1 0x40 MLOAD PUSH1 0x20 DUP2 DUP4 SUB SUB DUP2 MSTORE SWAP1 PUSH1 0x40 MSTORE PUSH32 0x5E01EB5A00000000000000000000000000000000000000000000000000000000 PUSH28 0xFFFFFFFFFFFFFFFFFFFFFFFFFFFFFFFFFFFFFFFFFFFFFFFFFFFFFFFF NOT AND PUSH1 0x20 DUP3 ADD DUP1 MLOAD PUSH28 0xFFFFFFFFFFFFFFFFFFFFFFFFFFFFFFFFFFFFFFFFFFFFFFFFFFFFFFFF DUP4 DUP2 DUP4 AND OR DUP4 MSTORE POP POP POP POP PUSH1 0x40 MLOAD PUSH2 0x176 SWAP2 SWAP1 PUSH2 0x419 JUMP JUMPDEST PUSH1 0x0 PUSH1 0x40 MLOAD DUP1 DUP4 SUB DUP2 DUP6 GAS DELEGATECALL SWAP2 POP POP RETURNDATASIZE DUP1 PUSH1 0x0 DUP2 EQ PUSH2 0x1B1 JUMPI PUSH1 0x40 MLOAD SWAP2 POP PUSH1 0x1F NOT PUSH1 0x3F RETURNDATASIZE ADD AND DUP3 ADD PUSH1 0x40 MSTORE RETURNDATASIZE DUP3 MSTORE RETURNDATASIZE PUSH1 0x0 PUSH1 0x20 DUP5 ADD RETURNDATACOPY PUSH2 0x1B6 JUMP JUMPDEST PUSH1 0x60 SWAP2 POP JUMPDEST POP SWAP2 POP POP PUSH1 0x0 DUP2 DUP1 PUSH1 0x20 ADD SWAP1 MLOAD DUP2 ADD SWAP1 PUSH2 0x1D0 SWAP2 SWAP1 PUSH2 0x46E JUMP JUMPDEST SWAP1 POP DUP1 SWAP3 POP POP POP SWAP2 SWAP1 POP JUMP JUMPDEST PUSH1 0x0 DUP1 DUP3 PUSH20 0xFFFFFFFFFFFFFFFFFFFFFFFFFFFFFFFFFFFFFFFF AND PUSH1 0x40 MLOAD PUSH1 0x24 ADD PUSH1 0x40 MLOAD PUSH1 0x20 DUP2 DUP4 SUB SUB DUP2 MSTORE SWAP1 PUSH1 0x40 MSTORE PUSH32 0x5E01EB5A00000000000000000000000000000000000000000000000000000000 PUSH28 0xFFFFFFFFFFFFFFFFFFFFFFFFFFFFFFFFFFFFFFFFFFFFFFFFFFFFFFFF NOT AND PUSH1 0x20 DUP3 ADD DUP1 MLOAD PUSH28 0xFFFFFFFFFFFFFFFFFFFFFFFFFFFFFFFFFFFFFFFFFFFFFFFFFFFFFFFF DUP4 DUP2 DUP4 AND OR DUP4 MSTORE POP POP POP POP PUSH1 0x40 MLOAD PUSH2 0x286 SWAP2 SWAP1 PUSH2 0x419 JUMP JUMPDEST PUSH1 0x0 PUSH1 0x40 MLOAD DUP1 DUP4 SUB DUP2 PUSH1 0x0 DUP7 GAS CALL SWAP2 POP POP RETURNDATASIZE DUP1 PUSH1 0x0 DUP2 EQ PUSH2 0x2C3 JUMPI PUSH1 0x40 MLOAD SWAP2 POP PUSH1 0x1F NOT PUSH1 0x3F RETURNDATASIZE ADD AND DUP3 ADD PUSH1 0x40 MSTORE RETURNDATASIZE DUP3 MSTORE RETURNDATASIZE PUSH1 0x0 PUSH1 0x20 DUP5 ADD RETURNDATACOPY PUSH2 0x2C8 JUMP JUMPDEST PUSH1 0x60 SWAP2 POP JUMPDEST POP SWAP2 POP POP PUSH1 0x0 DUP2 DUP1 PUSH1 0x20 ADD SWAP1 MLOAD DUP2 ADD SWAP1 PUSH2 0x2E2 SWAP2 SWAP1 PUSH2 0x46E JUMP JUMPDEST SWAP1 POP DUP1 SWAP3 POP POP POP SWAP2 SWAP1 POP JUMP JUMPDEST PUSH1 0x0 PUSH20 0xFFFFFFFFFFFFFFFFFFFFFFFFFFFFFFFFFFFFFFFF DUP3 AND SWAP1 POP SWAP2 SWAP1 POP JUMP JUMPDEST PUSH1 0x0 PUSH2 0x319 DUP3 PUSH2 0x2EE JUMP JUMPDEST SWAP1 POP SWAP2 SWAP1 POP JUMP JUMPDEST PUSH2 0x329 DUP2 PUSH2 0x30E JUMP JUMPDEST DUP3 MSTORE POP POP JUMP JUMPDEST PUSH1 0x0 PUSH1 0x20 DUP3 ADD SWAP1 POP PUSH2 0x344 PUSH1 0x0 DUP4 ADD DUP5 PUSH2 0x320 JUMP JUMPDEST SWAP3 SWAP2 POP POP JUMP JUMPDEST PUSH1 0x0 DUP1 REVERT JUMPDEST PUSH2 0x358 DUP2 PUSH2 0x30E JUMP JUMPDEST DUP2 EQ PUSH2 0x363 JUMPI PUSH1 0x0 DUP1 REVERT JUMPDEST POP JUMP JUMPDEST PUSH1 0x0 DUP2 CALLDATALOAD SWAP1 POP PUSH2 0x375 DUP2 PUSH2 0x34F JUMP JUMPDEST SWAP3 SWAP2 POP POP JUMP JUMPDEST PUSH1 0x0 PUSH1 0x20 DUP3 DUP5 SUB SLT ISZERO PUSH2 0x391 JUMPI PUSH2 0x390 PUSH2 0x34A JUMP JUMPDEST JUMPDEST PUSH1 0x0 PUSH2 0x39F DUP5 DUP3 DUP6 ADD PUSH2 0x366 JUMP JUMPDEST SWAP2 POP POP SWAP3 SWAP2 POP POP JUMP JUMPDEST PUSH1 0x0 DUP2 MLOAD SWAP1 POP SWAP2 SWAP1 POP JUMP JUMPDEST PUSH1 0x0 DUP2 SWAP1 POP SWAP3 SWAP2 POP POP JUMP JUMPDEST PUSH1 0x0 JUMPDEST DUP4 DUP2 LT ISZERO PUSH2 0x3DC JUMPI DUP1 DUP3 ADD MLOAD DUP2 DUP5 ADD MSTORE PUSH1 0x20 DUP2 ADD SWAP1 POP PUSH2 0x3C1 JUMP JUMPDEST PUSH1 0x0 DUP5 DUP5 ADD MSTORE POP POP POP POP JUMP JUMPDEST PUSH1 0x0 PUSH2 0x3F3 DUP3 PUSH2 0x3A8 JUMP JUMPDEST PUSH2 0x3FD DUP2 DUP6 PUSH2 0x3B3 JUMP JUMPDEST SWAP4 POP PUSH2 0x40D DUP2 DUP6 PUSH1 0x20 DUP7 ADD PUSH2 0x3BE JUMP JUMPDEST DUP1 DUP5 ADD SWAP2 POP POP SWAP3 SWAP2 POP POP JUMP JUMPDEST PUSH1 0x0 PUSH2 0x425 DUP3 DUP5 PUSH2 0x3E8 JUMP JUMPDEST SWAP2 POP DUP2 SWAP1 POP SWAP3 SWAP2 POP POP JUMP JUMPDEST PUSH1 0x0 PUSH2 0x43B DUP3 PUSH2 0x2EE JUMP JUMPDEST SWAP1 POP SWAP2 SWAP1 POP JUMP JUMPDEST PUSH2 0x44B DUP2 PUSH2 0x430 JUMP JUMPDEST DUP2 EQ PUSH2 0x456 JUMPI PUSH1 0x0 DUP1 REVERT JUMPDEST POP JUMP JUMPDEST PUSH1 0x0 DUP2 MLOAD SWAP1 POP PUSH2 0x468 DUP2 PUSH2 0x442 JUMP JUMPDEST SWAP3 SWAP2 POP POP JUMP JUMPDEST PUSH1 0x0 PUSH1 0x20 DUP3 DUP5 SUB SLT ISZERO PUSH2 0x484 JUMPI PUSH2 0x483 PUSH2 0x34A JUMP JUMPDEST JUMPDEST PUSH1 0x0 PUSH2 0x492 DUP5 DUP3 DUP6 ADD PUSH2 0x459 JUMP JUMPDEST SWAP2 POP POP SWAP3 SWAP2 POP POP JUMP INVALID LOG2 PUSH5 0x6970667358 0x22 SLT KECCAK256 0xE1 LT 0xC1 MSTORE CALL CALLDATALOAD 0x4C MSIZE RETURN 0xE2 RETURNDATASIZE 0xE0 DIV 0xC8 CREATE 0x5F 0xC9 CALLDATALOAD CALLDATASIZE NUMBER LOG4 PUSH16 0x3F0BBA5E12C78B4CDCC164736F6C6343 STOP ADDMOD SLT STOP CALLER "
				},
				"gasEstimates": {
					"creation": {
						"codeDepositCost": "246600",
						"executionCost": "287",
						"totalCost": "246887"
					},
					"external": {
						"callC(address)": "infinite",
						"delegatecallC(address)": "infinite",
						"getSender()": "363"
					}
				},
				"methodIdentifiers": {
					"callC(address)": "ed0f23ab",
					"delegatecallC(address)": "7dd84ffb",
					"getSender()": "5e01eb5a"
				}
			},
			"storageLayout": {
				"storage": [],
				"types": null
			},
			"userdoc": {
				"kind": "user",
				"methods": {},
				"version": 1
			}
		}
	}
}