{
	"week6/class/ClassPractice.sol": {
		"B": {
			"abi": [
				{
					"inputs": [],
					"name": "amount",
					"outputs": [
						{
							"internalType": "uint256",
							"name": "",
							"type": "uint256"
						}
					],
					"stateMutability": "view",
					"type": "function"
				},
				{
					"inputs": [],
					"name": "amount2",
					"outputs": [
						{
							"internalType": "uint256",
							"name": "",
							"type": "uint256"
						}
					],
					"stateMutability": "view",
					"type": "function"
				},
				{
					"inputs": [
						{
							"internalType": "address",
							"name": "a",
							"type": "address"
						}
					],
					"name": "callSetA",
					"outputs": [],
					"stateMutability": "nonpayable",
					"type": "function"
				}
			],
			"devdoc": {
				"kind": "dev",
				"methods": {},
				"version": 1
			},
			"evm": {
				"assembly": "    /* \"week6/class/ClassPractice.sol\":305:565  contract B {... */\n  mstore(0x40, 0x80)\n  callvalue\n  dup1\n  iszero\n  tag_1\n  jumpi\n  0x00\n  dup1\n  revert\ntag_1:\n  pop\n  dataSize(sub_0)\n  dup1\n  dataOffset(sub_0)\n  0x00\n  codecopy\n  0x00\n  return\nstop\n\nsub_0: assembly {\n        /* \"week6/class/ClassPractice.sol\":305:565  contract B {... */\n      mstore(0x40, 0x80)\n      callvalue\n      dup1\n      iszero\n      tag_1\n      jumpi\n      0x00\n      dup1\n      revert\n    tag_1:\n      pop\n      jumpi(tag_2, lt(calldatasize, 0x04))\n      shr(0xe0, calldataload(0x00))\n      dup1\n      0x057bfcc7\n      eq\n      tag_3\n      jumpi\n      dup1\n      0x9ed05a87\n      eq\n      tag_4\n      jumpi\n      dup1\n      0xaa8c217c\n      eq\n      tag_5\n      jumpi\n    tag_2:\n      0x00\n      dup1\n      revert\n        /* \"week6/class/ClassPractice.sol\":349:371  uint256 public amount2 */\n    tag_3:\n      tag_6\n      tag_7\n      jump\t// in\n    tag_6:\n      mload(0x40)\n      tag_8\n      swap2\n      swap1\n      tag_9\n      jump\t// in\n    tag_8:\n      mload(0x40)\n      dup1\n      swap2\n      sub\n      swap1\n      return\n        /* \"week6/class/ClassPractice.sol\":378:563  function callSetA(address a) external {... */\n    tag_4:\n      tag_10\n      0x04\n      dup1\n      calldatasize\n      sub\n      dup2\n      add\n      swap1\n      tag_11\n      swap2\n      swap1\n      tag_12\n      jump\t// in\n    tag_11:\n      tag_13\n      jump\t// in\n    tag_10:\n      stop\n        /* \"week6/class/ClassPractice.sol\":322:343  uint256 public amount */\n    tag_5:\n      tag_14\n      tag_15\n      jump\t// in\n    tag_14:\n      mload(0x40)\n      tag_16\n      swap2\n      swap1\n      tag_9\n      jump\t// in\n    tag_16:\n      mload(0x40)\n      dup1\n      swap2\n      sub\n      swap1\n      return\n        /* \"week6/class/ClassPractice.sol\":349:371  uint256 public amount2 */\n    tag_7:\n      sload(0x01)\n      dup2\n      jump\t// out\n        /* \"week6/class/ClassPractice.sol\":378:563  function callSetA(address a) external {... */\n    tag_13:\n        /* \"week6/class/ClassPractice.sol\":426:443  bytes memory hash */\n      0x00\n        /* \"week6/class/ClassPractice.sol\":487:489  10 */\n      0x0a\n        /* \"week6/class/ClassPractice.sol\":446:490  abi.encodeWithSignature(\"setA(uint256)\", 10) */\n      add(0x24, mload(0x40))\n      tag_18\n      swap2\n      swap1\n      tag_19\n      jump\t// in\n    tag_18:\n      mload(0x40)\n      0x20\n      dup2\n      dup4\n      sub\n      sub\n      dup2\n      mstore\n      swap1\n      0x40\n      mstore\n      and(not(0xffffffffffffffffffffffffffffffffffffffffffffffffffffffff), 0xee919d5000000000000000000000000000000000000000000000000000000000)\n      0x20\n      dup3\n      add\n      dup1\n      mload\n      0xffffffffffffffffffffffffffffffffffffffffffffffffffffffff\n      dup4\n      dup2\n      dup4\n      and\n      or\n      dup4\n      mstore\n      pop\n      pop\n      pop\n      pop\n        /* \"week6/class/ClassPractice.sol\":426:490  bytes memory hash = abi.encodeWithSignature(\"setA(uint256)\", 10) */\n      swap1\n      pop\n        /* \"week6/class/ClassPractice.sol\":501:513  bool success */\n      0x00\n        /* \"week6/class/ClassPractice.sol\":515:532  bytes memory data */\n      dup1\n        /* \"week6/class/ClassPractice.sol\":536:537  a */\n      dup4\n        /* \"week6/class/ClassPractice.sol\":536:550  a.delegatecall */\n      0xffffffffffffffffffffffffffffffffffffffff\n      and\n        /* \"week6/class/ClassPractice.sol\":551:555  hash */\n      dup4\n        /* \"week6/class/ClassPractice.sol\":536:556  a.delegatecall(hash) */\n      mload(0x40)\n      tag_20\n      swap2\n      swap1\n      tag_21\n      jump\t// in\n    tag_20:\n      0x00\n      mload(0x40)\n      dup1\n      dup4\n      sub\n      dup2\n      dup6\n      gas\n      delegatecall\n      swap2\n      pop\n      pop\n      returndatasize\n      dup1\n      0x00\n      dup2\n      eq\n      tag_24\n      jumpi\n      mload(0x40)\n      swap2\n      pop\n      and(add(returndatasize, 0x3f), not(0x1f))\n      dup3\n      add\n      0x40\n      mstore\n      returndatasize\n      dup3\n      mstore\n      returndatasize\n      0x00\n      0x20\n      dup5\n      add\n      returndatacopy\n      jump(tag_23)\n    tag_24:\n      0x60\n      swap2\n      pop\n    tag_23:\n      pop\n        /* \"week6/class/ClassPractice.sol\":500:556  (bool success, bytes memory data) = a.delegatecall(hash) */\n      swap2\n      pop\n      swap2\n      pop\n        /* \"week6/class/ClassPractice.sol\":416:563  {... */\n      pop\n      pop\n      pop\n        /* \"week6/class/ClassPractice.sol\":378:563  function callSetA(address a) external {... */\n      pop\n      jump\t// out\n        /* \"week6/class/ClassPractice.sol\":322:343  uint256 public amount */\n    tag_15:\n      sload(0x00)\n      dup2\n      jump\t// out\n        /* \"#utility.yul\":7:84   */\n    tag_25:\n        /* \"#utility.yul\":44:51   */\n      0x00\n        /* \"#utility.yul\":73:78   */\n      dup2\n        /* \"#utility.yul\":62:78   */\n      swap1\n      pop\n        /* \"#utility.yul\":7:84   */\n      swap2\n      swap1\n      pop\n      jump\t// out\n        /* \"#utility.yul\":90:208   */\n    tag_26:\n        /* \"#utility.yul\":177:201   */\n      tag_46\n        /* \"#utility.yul\":195:200   */\n      dup2\n        /* \"#utility.yul\":177:201   */\n      tag_25\n      jump\t// in\n    tag_46:\n        /* \"#utility.yul\":172:175   */\n      dup3\n        /* \"#utility.yul\":165:202   */\n      mstore\n        /* \"#utility.yul\":90:208   */\n      pop\n      pop\n      jump\t// out\n        /* \"#utility.yul\":214:436   */\n    tag_9:\n        /* \"#utility.yul\":307:311   */\n      0x00\n        /* \"#utility.yul\":345:347   */\n      0x20\n        /* \"#utility.yul\":334:343   */\n      dup3\n        /* \"#utility.yul\":330:348   */\n      add\n        /* \"#utility.yul\":322:348   */\n      swap1\n      pop\n        /* \"#utility.yul\":358:429   */\n      tag_48\n        /* \"#utility.yul\":426:427   */\n      0x00\n        /* \"#utility.yul\":415:424   */\n      dup4\n        /* \"#utility.yul\":411:428   */\n      add\n        /* \"#utility.yul\":402:408   */\n      dup5\n        /* \"#utility.yul\":358:429   */\n      tag_26\n      jump\t// in\n    tag_48:\n        /* \"#utility.yul\":214:436   */\n      swap3\n      swap2\n      pop\n      pop\n      jump\t// out\n        /* \"#utility.yul\":523:640   */\n    tag_28:\n        /* \"#utility.yul\":632:633   */\n      0x00\n        /* \"#utility.yul\":629:630   */\n      dup1\n        /* \"#utility.yul\":622:634   */\n      revert\n        /* \"#utility.yul\":769:895   */\n    tag_30:\n        /* \"#utility.yul\":806:813   */\n      0x00\n        /* \"#utility.yul\":846:888   */\n      0xffffffffffffffffffffffffffffffffffffffff\n        /* \"#utility.yul\":839:844   */\n      dup3\n        /* \"#utility.yul\":835:889   */\n      and\n        /* \"#utility.yul\":824:889   */\n      swap1\n      pop\n        /* \"#utility.yul\":769:895   */\n      swap2\n      swap1\n      pop\n      jump\t// out\n        /* \"#utility.yul\":901:997   */\n    tag_31:\n        /* \"#utility.yul\":938:945   */\n      0x00\n        /* \"#utility.yul\":967:991   */\n      tag_54\n        /* \"#utility.yul\":985:990   */\n      dup3\n        /* \"#utility.yul\":967:991   */\n      tag_30\n      jump\t// in\n    tag_54:\n        /* \"#utility.yul\":956:991   */\n      swap1\n      pop\n        /* \"#utility.yul\":901:997   */\n      swap2\n      swap1\n      pop\n      jump\t// out\n        /* \"#utility.yul\":1003:1125   */\n    tag_32:\n        /* \"#utility.yul\":1076:1100   */\n      tag_56\n        /* \"#utility.yul\":1094:1099   */\n      dup2\n        /* \"#utility.yul\":1076:1100   */\n      tag_31\n      jump\t// in\n    tag_56:\n        /* \"#utility.yul\":1069:1074   */\n      dup2\n        /* \"#utility.yul\":1066:1101   */\n      eq\n        /* \"#utility.yul\":1056:1119   */\n      tag_57\n      jumpi\n        /* \"#utility.yul\":1115:1116   */\n      0x00\n        /* \"#utility.yul\":1112:1113   */\n      dup1\n        /* \"#utility.yul\":1105:1117   */\n      revert\n        /* \"#utility.yul\":1056:1119   */\n    tag_57:\n        /* \"#utility.yul\":1003:1125   */\n      pop\n      jump\t// out\n        /* \"#utility.yul\":1131:1270   */\n    tag_33:\n        /* \"#utility.yul\":1177:1182   */\n      0x00\n        /* \"#utility.yul\":1215:1221   */\n      dup2\n        /* \"#utility.yul\":1202:1222   */\n      calldataload\n        /* \"#utility.yul\":1193:1222   */\n      swap1\n      pop\n        /* \"#utility.yul\":1231:1264   */\n      tag_59\n        /* \"#utility.yul\":1258:1263   */\n      dup2\n        /* \"#utility.yul\":1231:1264   */\n      tag_32\n      jump\t// in\n    tag_59:\n        /* \"#utility.yul\":1131:1270   */\n      swap3\n      swap2\n      pop\n      pop\n      jump\t// out\n        /* \"#utility.yul\":1276:1605   */\n    tag_12:\n        /* \"#utility.yul\":1335:1341   */\n      0x00\n        /* \"#utility.yul\":1384:1386   */\n      0x20\n        /* \"#utility.yul\":1372:1381   */\n      dup3\n        /* \"#utility.yul\":1363:1370   */\n      dup5\n        /* \"#utility.yul\":1359:1382   */\n      sub\n        /* \"#utility.yul\":1355:1387   */\n      slt\n        /* \"#utility.yul\":1352:1471   */\n      iszero\n      tag_61\n      jumpi\n        /* \"#utility.yul\":1390:1469   */\n      tag_62\n      tag_28\n      jump\t// in\n    tag_62:\n        /* \"#utility.yul\":1352:1471   */\n    tag_61:\n        /* \"#utility.yul\":1510:1511   */\n      0x00\n        /* \"#utility.yul\":1535:1588   */\n      tag_63\n        /* \"#utility.yul\":1580:1587   */\n      dup5\n        /* \"#utility.yul\":1571:1577   */\n      dup3\n        /* \"#utility.yul\":1560:1569   */\n      dup6\n        /* \"#utility.yul\":1556:1578   */\n      add\n        /* \"#utility.yul\":1535:1588   */\n      tag_33\n      jump\t// in\n    tag_63:\n        /* \"#utility.yul\":1525:1588   */\n      swap2\n      pop\n        /* \"#utility.yul\":1481:1598   */\n      pop\n        /* \"#utility.yul\":1276:1605   */\n      swap3\n      swap2\n      pop\n      pop\n      jump\t// out\n        /* \"#utility.yul\":1611:1697   */\n    tag_34:\n        /* \"#utility.yul\":1657:1664   */\n      0x00\n        /* \"#utility.yul\":1686:1691   */\n      dup2\n        /* \"#utility.yul\":1675:1691   */\n      swap1\n      pop\n        /* \"#utility.yul\":1611:1697   */\n      swap2\n      swap1\n      pop\n      jump\t// out\n        /* \"#utility.yul\":1703:1789   */\n    tag_35:\n        /* \"#utility.yul\":1738:1745   */\n      0x00\n        /* \"#utility.yul\":1778:1782   */\n      0xff\n        /* \"#utility.yul\":1771:1776   */\n      dup3\n        /* \"#utility.yul\":1767:1783   */\n      and\n        /* \"#utility.yul\":1756:1783   */\n      swap1\n      pop\n        /* \"#utility.yul\":1703:1789   */\n      swap2\n      swap1\n      pop\n      jump\t// out\n        /* \"#utility.yul\":1795:1855   */\n    tag_36:\n        /* \"#utility.yul\":1823:1826   */\n      0x00\n        /* \"#utility.yul\":1844:1849   */\n      dup2\n        /* \"#utility.yul\":1837:1849   */\n      swap1\n      pop\n        /* \"#utility.yul\":1795:1855   */\n      swap2\n      swap1\n      pop\n      jump\t// out\n        /* \"#utility.yul\":1861:2017   */\n    tag_37:\n        /* \"#utility.yul\":1918:1927   */\n      0x00\n        /* \"#utility.yul\":1951:2011   */\n      tag_68\n        /* \"#utility.yul\":1967:2010   */\n      tag_69\n        /* \"#utility.yul\":1976:2009   */\n      tag_70\n        /* \"#utility.yul\":2003:2008   */\n      dup5\n        /* \"#utility.yul\":1976:2009   */\n      tag_34\n      jump\t// in\n    tag_70:\n        /* \"#utility.yul\":1967:2010   */\n      tag_36\n      jump\t// in\n    tag_69:\n        /* \"#utility.yul\":1951:2011   */\n      tag_35\n      jump\t// in\n    tag_68:\n        /* \"#utility.yul\":1938:2011   */\n      swap1\n      pop\n        /* \"#utility.yul\":1861:2017   */\n      swap2\n      swap1\n      pop\n      jump\t// out\n        /* \"#utility.yul\":2023:2168   */\n    tag_38:\n        /* \"#utility.yul\":2117:2161   */\n      tag_72\n        /* \"#utility.yul\":2155:2160   */\n      dup2\n        /* \"#utility.yul\":2117:2161   */\n      tag_37\n      jump\t// in\n    tag_72:\n        /* \"#utility.yul\":2112:2115   */\n      dup3\n        /* \"#utility.yul\":2105:2162   */\n      mstore\n        /* \"#utility.yul\":2023:2168   */\n      pop\n      pop\n      jump\t// out\n        /* \"#utility.yul\":2174:2410   */\n    tag_19:\n        /* \"#utility.yul\":2274:2278   */\n      0x00\n        /* \"#utility.yul\":2312:2314   */\n      0x20\n        /* \"#utility.yul\":2301:2310   */\n      dup3\n        /* \"#utility.yul\":2297:2315   */\n      add\n        /* \"#utility.yul\":2289:2315   */\n      swap1\n      pop\n        /* \"#utility.yul\":2325:2403   */\n      tag_74\n        /* \"#utility.yul\":2400:2401   */\n      0x00\n        /* \"#utility.yul\":2389:2398   */\n      dup4\n        /* \"#utility.yul\":2385:2402   */\n      add\n        /* \"#utility.yul\":2376:2382   */\n      dup5\n        /* \"#utility.yul\":2325:2403   */\n      tag_38\n      jump\t// in\n    tag_74:\n        /* \"#utility.yul\":2174:2410   */\n      swap3\n      swap2\n      pop\n      pop\n      jump\t// out\n        /* \"#utility.yul\":2416:2514   */\n    tag_39:\n        /* \"#utility.yul\":2467:2473   */\n      0x00\n        /* \"#utility.yul\":2501:2506   */\n      dup2\n        /* \"#utility.yul\":2495:2507   */\n      mload\n        /* \"#utility.yul\":2485:2507   */\n      swap1\n      pop\n        /* \"#utility.yul\":2416:2514   */\n      swap2\n      swap1\n      pop\n      jump\t// out\n        /* \"#utility.yul\":2520:2667   */\n    tag_40:\n        /* \"#utility.yul\":2621:2632   */\n      0x00\n        /* \"#utility.yul\":2658:2661   */\n      dup2\n        /* \"#utility.yul\":2643:2661   */\n      swap1\n      pop\n        /* \"#utility.yul\":2520:2667   */\n      swap3\n      swap2\n      pop\n      pop\n      jump\t// out\n        /* \"#utility.yul\":2673:2919   */\n    tag_41:\n        /* \"#utility.yul\":2754:2755   */\n      0x00\n        /* \"#utility.yul\":2764:2877   */\n    tag_78:\n        /* \"#utility.yul\":2778:2784   */\n      dup4\n        /* \"#utility.yul\":2775:2776   */\n      dup2\n        /* \"#utility.yul\":2772:2785   */\n      lt\n        /* \"#utility.yul\":2764:2877   */\n      iszero\n      tag_80\n      jumpi\n        /* \"#utility.yul\":2863:2864   */\n      dup1\n        /* \"#utility.yul\":2858:2861   */\n      dup3\n        /* \"#utility.yul\":2854:2865   */\n      add\n        /* \"#utility.yul\":2848:2866   */\n      mload\n        /* \"#utility.yul\":2844:2845   */\n      dup2\n        /* \"#utility.yul\":2839:2842   */\n      dup5\n        /* \"#utility.yul\":2835:2846   */\n      add\n        /* \"#utility.yul\":2828:2867   */\n      mstore\n        /* \"#utility.yul\":2800:2802   */\n      0x20\n        /* \"#utility.yul\":2797:2798   */\n      dup2\n        /* \"#utility.yul\":2793:2803   */\n      add\n        /* \"#utility.yul\":2788:2803   */\n      swap1\n      pop\n        /* \"#utility.yul\":2764:2877   */\n      jump(tag_78)\n    tag_80:\n        /* \"#utility.yul\":2911:2912   */\n      0x00\n        /* \"#utility.yul\":2902:2908   */\n      dup5\n        /* \"#utility.yul\":2897:2900   */\n      dup5\n        /* \"#utility.yul\":2893:2909   */\n      add\n        /* \"#utility.yul\":2886:2913   */\n      mstore\n        /* \"#utility.yul\":2735:2919   */\n      pop\n        /* \"#utility.yul\":2673:2919   */\n      pop\n      pop\n      pop\n      jump\t// out\n        /* \"#utility.yul\":2925:3311   */\n    tag_42:\n        /* \"#utility.yul\":3029:3032   */\n      0x00\n        /* \"#utility.yul\":3057:3095   */\n      tag_82\n        /* \"#utility.yul\":3089:3094   */\n      dup3\n        /* \"#utility.yul\":3057:3095   */\n      tag_39\n      jump\t// in\n    tag_82:\n        /* \"#utility.yul\":3111:3199   */\n      tag_83\n        /* \"#utility.yul\":3192:3198   */\n      dup2\n        /* \"#utility.yul\":3187:3190   */\n      dup6\n        /* \"#utility.yul\":3111:3199   */\n      tag_40\n      jump\t// in\n    tag_83:\n        /* \"#utility.yul\":3104:3199   */\n      swap4\n      pop\n        /* \"#utility.yul\":3208:3273   */\n      tag_84\n        /* \"#utility.yul\":3266:3272   */\n      dup2\n        /* \"#utility.yul\":3261:3264   */\n      dup6\n        /* \"#utility.yul\":3254:3258   */\n      0x20\n        /* \"#utility.yul\":3247:3252   */\n      dup7\n        /* \"#utility.yul\":3243:3259   */\n      add\n        /* \"#utility.yul\":3208:3273   */\n      tag_41\n      jump\t// in\n    tag_84:\n        /* \"#utility.yul\":3298:3304   */\n      dup1\n        /* \"#utility.yul\":3293:3296   */\n      dup5\n        /* \"#utility.yul\":3289:3305   */\n      add\n        /* \"#utility.yul\":3282:3305   */\n      swap2\n      pop\n        /* \"#utility.yul\":3033:3311   */\n      pop\n        /* \"#utility.yul\":2925:3311   */\n      swap3\n      swap2\n      pop\n      pop\n      jump\t// out\n        /* \"#utility.yul\":3317:3588   */\n    tag_21:\n        /* \"#utility.yul\":3447:3450   */\n      0x00\n        /* \"#utility.yul\":3469:3562   */\n      tag_86\n        /* \"#utility.yul\":3558:3561   */\n      dup3\n        /* \"#utility.yul\":3549:3555   */\n      dup5\n        /* \"#utility.yul\":3469:3562   */\n      tag_42\n      jump\t// in\n    tag_86:\n        /* \"#utility.yul\":3462:3562   */\n      swap2\n      pop\n        /* \"#utility.yul\":3579:3582   */\n      dup2\n        /* \"#utility.yul\":3572:3582   */\n      swap1\n      pop\n        /* \"#utility.yul\":3317:3588   */\n      swap3\n      swap2\n      pop\n      pop\n      jump\t// out\n\n    auxdata: 0xa26469706673582212206e1c0536b99aa66865a0c2e6d5575c967cffc8a4e1f5200986b208d641f746d864736f6c63430008120033\n}\n",
				"bytecode": {
					"linkReferences": {},
					"object": "608060405234801561001057600080fd5b5061039f806100206000396000f3fe608060405234801561001057600080fd5b50600436106100415760003560e01c8063057bfcc7146100465780639ed05a8714610064578063aa8c217c14610080575b600080fd5b61004e61009e565b60405161005b91906101c9565b60405180910390f35b61007e60048036038101906100799190610247565b6100a4565b005b6100886101aa565b60405161009591906101c9565b60405180910390f35b60015481565b6000600a6040516024016100b891906102c6565b6040516020818303038152906040527fee919d50000000000000000000000000000000000000000000000000000000007bffffffffffffffffffffffffffffffffffffffffffffffffffffffff19166020820180517bffffffffffffffffffffffffffffffffffffffffffffffffffffffff838183161783525050505090506000808373ffffffffffffffffffffffffffffffffffffffff168360405161015f9190610352565b600060405180830381855af49150503d806000811461019a576040519150601f19603f3d011682016040523d82523d6000602084013e61019f565b606091505b509150915050505050565b60005481565b6000819050919050565b6101c3816101b0565b82525050565b60006020820190506101de60008301846101ba565b92915050565b600080fd5b600073ffffffffffffffffffffffffffffffffffffffff82169050919050565b6000610214826101e9565b9050919050565b61022481610209565b811461022f57600080fd5b50565b6000813590506102418161021b565b92915050565b60006020828403121561025d5761025c6101e4565b5b600061026b84828501610232565b91505092915050565b6000819050919050565b600060ff82169050919050565b6000819050919050565b60006102b06102ab6102a684610274565b61028b565b61027e565b9050919050565b6102c081610295565b82525050565b60006020820190506102db60008301846102b7565b92915050565b600081519050919050565b600081905092915050565b60005b838110156103155780820151818401526020810190506102fa565b60008484015250505050565b600061032c826102e1565b61033681856102ec565b93506103468185602086016102f7565b80840191505092915050565b600061035e8284610321565b91508190509291505056fea26469706673582212206e1c0536b99aa66865a0c2e6d5575c967cffc8a4e1f5200986b208d641f746d864736f6c63430008120033",
					"opcodes": "PUSH1 0x80 PUSH1 0x40 MSTORE CALLVALUE DUP1 ISZERO PUSH2 0x10 JUMPI PUSH1 0x0 DUP1 REVERT JUMPDEST POP PUSH2 0x39F DUP1 PUSH2 0x20 PUSH1 0x0 CODECOPY PUSH1 0x0 RETURN INVALID PUSH1 0x80 PUSH1 0x40 MSTORE CALLVALUE DUP1 ISZERO PUSH2 0x10 JUMPI PUSH1 0x0 DUP1 REVERT JUMPDEST POP PUSH1 0x4 CALLDATASIZE LT PUSH2 0x41 JUMPI PUSH1 0x0 CALLDATALOAD PUSH1 0xE0 SHR DUP1 PUSH4 0x57BFCC7 EQ PUSH2 0x46 JUMPI DUP1 PUSH4 0x9ED05A87 EQ PUSH2 0x64 JUMPI DUP1 PUSH4 0xAA8C217C EQ PUSH2 0x80 JUMPI JUMPDEST PUSH1 0x0 DUP1 REVERT JUMPDEST PUSH2 0x4E PUSH2 0x9E JUMP JUMPDEST PUSH1 0x40 MLOAD PUSH2 0x5B SWAP2 SWAP1 PUSH2 0x1C9 JUMP JUMPDEST PUSH1 0x40 MLOAD DUP1 SWAP2 SUB SWAP1 RETURN JUMPDEST PUSH2 0x7E PUSH1 0x4 DUP1 CALLDATASIZE SUB DUP2 ADD SWAP1 PUSH2 0x79 SWAP2 SWAP1 PUSH2 0x247 JUMP JUMPDEST PUSH2 0xA4 JUMP JUMPDEST STOP JUMPDEST PUSH2 0x88 PUSH2 0x1AA JUMP JUMPDEST PUSH1 0x40 MLOAD PUSH2 0x95 SWAP2 SWAP1 PUSH2 0x1C9 JUMP JUMPDEST PUSH1 0x40 MLOAD DUP1 SWAP2 SUB SWAP1 RETURN JUMPDEST PUSH1 0x1 SLOAD DUP2 JUMP JUMPDEST PUSH1 0x0 PUSH1 0xA PUSH1 0x40 MLOAD PUSH1 0x24 ADD PUSH2 0xB8 SWAP2 SWAP1 PUSH2 0x2C6 JUMP JUMPDEST PUSH1 0x40 MLOAD PUSH1 0x20 DUP2 DUP4 SUB SUB DUP2 MSTORE SWAP1 PUSH1 0x40 MSTORE PUSH32 0xEE919D5000000000000000000000000000000000000000000000000000000000 PUSH28 0xFFFFFFFFFFFFFFFFFFFFFFFFFFFFFFFFFFFFFFFFFFFFFFFFFFFFFFFF NOT AND PUSH1 0x20 DUP3 ADD DUP1 MLOAD PUSH28 0xFFFFFFFFFFFFFFFFFFFFFFFFFFFFFFFFFFFFFFFFFFFFFFFFFFFFFFFF DUP4 DUP2 DUP4 AND OR DUP4 MSTORE POP POP POP POP SWAP1 POP PUSH1 0x0 DUP1 DUP4 PUSH20 0xFFFFFFFFFFFFFFFFFFFFFFFFFFFFFFFFFFFFFFFF AND DUP4 PUSH1 0x40 MLOAD PUSH2 0x15F SWAP2 SWAP1 PUSH2 0x352 JUMP JUMPDEST PUSH1 0x0 PUSH1 0x40 MLOAD DUP1 DUP4 SUB DUP2 DUP6 GAS DELEGATECALL SWAP2 POP POP RETURNDATASIZE DUP1 PUSH1 0x0 DUP2 EQ PUSH2 0x19A JUMPI PUSH1 0x40 MLOAD SWAP2 POP PUSH1 0x1F NOT PUSH1 0x3F RETURNDATASIZE ADD AND DUP3 ADD PUSH1 0x40 MSTORE RETURNDATASIZE DUP3 MSTORE RETURNDATASIZE PUSH1 0x0 PUSH1 0x20 DUP5 ADD RETURNDATACOPY PUSH2 0x19F JUMP JUMPDEST PUSH1 0x60 SWAP2 POP JUMPDEST POP SWAP2 POP SWAP2 POP POP POP POP POP JUMP JUMPDEST PUSH1 0x0 SLOAD DUP2 JUMP JUMPDEST PUSH1 0x0 DUP2 SWAP1 POP SWAP2 SWAP1 POP JUMP JUMPDEST PUSH2 0x1C3 DUP2 PUSH2 0x1B0 JUMP JUMPDEST DUP3 MSTORE POP POP JUMP JUMPDEST PUSH1 0x0 PUSH1 0x20 DUP3 ADD SWAP1 POP PUSH2 0x1DE PUSH1 0x0 DUP4 ADD DUP5 PUSH2 0x1BA JUMP JUMPDEST SWAP3 SWAP2 POP POP JUMP JUMPDEST PUSH1 0x0 DUP1 REVERT JUMPDEST PUSH1 0x0 PUSH20 0xFFFFFFFFFFFFFFFFFFFFFFFFFFFFFFFFFFFFFFFF DUP3 AND SWAP1 POP SWAP2 SWAP1 POP JUMP JUMPDEST PUSH1 0x0 PUSH2 0x214 DUP3 PUSH2 0x1E9 JUMP JUMPDEST SWAP1 POP SWAP2 SWAP1 POP JUMP JUMPDEST PUSH2 0x224 DUP2 PUSH2 0x209 JUMP JUMPDEST DUP2 EQ PUSH2 0x22F JUMPI PUSH1 0x0 DUP1 REVERT JUMPDEST POP JUMP JUMPDEST PUSH1 0x0 DUP2 CALLDATALOAD SWAP1 POP PUSH2 0x241 DUP2 PUSH2 0x21B JUMP JUMPDEST SWAP3 SWAP2 POP POP JUMP JUMPDEST PUSH1 0x0 PUSH1 0x20 DUP3 DUP5 SUB SLT ISZERO PUSH2 0x25D JUMPI PUSH2 0x25C PUSH2 0x1E4 JUMP JUMPDEST JUMPDEST PUSH1 0x0 PUSH2 0x26B DUP5 DUP3 DUP6 ADD PUSH2 0x232 JUMP JUMPDEST SWAP2 POP POP SWAP3 SWAP2 POP POP JUMP JUMPDEST PUSH1 0x0 DUP2 SWAP1 POP SWAP2 SWAP1 POP JUMP JUMPDEST PUSH1 0x0 PUSH1 0xFF DUP3 AND SWAP1 POP SWAP2 SWAP1 POP JUMP JUMPDEST PUSH1 0x0 DUP2 SWAP1 POP SWAP2 SWAP1 POP JUMP JUMPDEST PUSH1 0x0 PUSH2 0x2B0 PUSH2 0x2AB PUSH2 0x2A6 DUP5 PUSH2 0x274 JUMP JUMPDEST PUSH2 0x28B JUMP JUMPDEST PUSH2 0x27E JUMP JUMPDEST SWAP1 POP SWAP2 SWAP1 POP JUMP JUMPDEST PUSH2 0x2C0 DUP2 PUSH2 0x295 JUMP JUMPDEST DUP3 MSTORE POP POP JUMP JUMPDEST PUSH1 0x0 PUSH1 0x20 DUP3 ADD SWAP1 POP PUSH2 0x2DB PUSH1 0x0 DUP4 ADD DUP5 PUSH2 0x2B7 JUMP JUMPDEST SWAP3 SWAP2 POP POP JUMP JUMPDEST PUSH1 0x0 DUP2 MLOAD SWAP1 POP SWAP2 SWAP1 POP JUMP JUMPDEST PUSH1 0x0 DUP2 SWAP1 POP SWAP3 SWAP2 POP POP JUMP JUMPDEST PUSH1 0x0 JUMPDEST DUP4 DUP2 LT ISZERO PUSH2 0x315 JUMPI DUP1 DUP3 ADD MLOAD DUP2 DUP5 ADD MSTORE PUSH1 0x20 DUP2 ADD SWAP1 POP PUSH2 0x2FA JUMP JUMPDEST PUSH1 0x0 DUP5 DUP5 ADD MSTORE POP POP POP POP JUMP JUMPDEST PUSH1 0x0 PUSH2 0x32C DUP3 PUSH2 0x2E1 JUMP JUMPDEST PUSH2 0x336 DUP2 DUP6 PUSH2 0x2EC JUMP JUMPDEST SWAP4 POP PUSH2 0x346 DUP2 DUP6 PUSH1 0x20 DUP7 ADD PUSH2 0x2F7 JUMP JUMPDEST DUP1 DUP5 ADD SWAP2 POP POP SWAP3 SWAP2 POP POP JUMP JUMPDEST PUSH1 0x0 PUSH2 0x35E DUP3 DUP5 PUSH2 0x321 JUMP JUMPDEST SWAP2 POP DUP2 SWAP1 POP SWAP3 SWAP2 POP POP JUMP INVALID LOG2 PUSH5 0x6970667358 0x22 SLT KECCAK256 PUSH15 0x1C0536B99AA66865A0C2E6D5575C96 PUSH29 0xFFC8A4E1F5200986B208D641F746D864736F6C63430008120033000000 "
				},
				"gasEstimates": {
					"creation": {
						"codeDepositCost": "185400",
						"executionCost": "226",
						"totalCost": "185626"
					},
					"external": {
						"amount()": "2451",
						"amount2()": "2407",
						"callSetA(address)": "infinite"
					}
				},
				"methodIdentifiers": {
					"amount()": "aa8c217c",
					"amount2()": "057bfcc7",
					"callSetA(address)": "9ed05a87"
				}
			},
			"storageLayout": {
				"storage": [
					{
						"astId": 17,
						"contract": "week6/class/ClassPractice.sol:B",
						"label": "amount",
						"offset": 0,
						"slot": "0",
						"type": "t_uint256"
					},
					{
						"astId": 19,
						"contract": "week6/class/ClassPractice.sol:B",
						"label": "amount2",
						"offset": 0,
						"slot": "1",
						"type": "t_uint256"
					}
				],
				"types": {
					"t_uint256": {
						"encoding": "inplace",
						"label": "uint256",
						"numberOfBytes": "32"
					}
				}
			},
			"userdoc": {
				"kind": "user",
				"methods": {},
				"version": 1
			}
		}
	}
}