{
	"week6/class/Delegatecall.sol": {
		"Call": {
			"abi": [
				{
					"inputs": [
						{
							"internalType": "address",
							"name": "addr",
							"type": "address"
						}
					],
					"name": "callOrigin",
					"outputs": [
						{
							"internalType": "address",
							"name": "",
							"type": "address"
						}
					],
					"stateMutability": "nonpayable",
					"type": "function"
				},
				{
					"inputs": [
						{
							"internalType": "address",
							"name": "addr",
							"type": "address"
						}
					],
					"name": "callSender",
					"outputs": [
						{
							"internalType": "address",
							"name": "",
							"type": "address"
						}
					],
					"stateMutability": "nonpayable",
					"type": "function"
				}
			],
			"devdoc": {
				"kind": "dev",
				"methods": {},
				"version": 1
			},
			"evm": {
				"assembly": "    /* \"week6/class/Delegatecall.sol\":564:1054  contract Call {... */\n  mstore(0x40, 0x80)\n  callvalue\n  dup1\n  iszero\n  tag_1\n  jumpi\n  0x00\n  dup1\n  revert\ntag_1:\n  pop\n  dataSize(sub_0)\n  dup1\n  dataOffset(sub_0)\n  0x00\n  codecopy\n  0x00\n  return\nstop\n\nsub_0: assembly {\n        /* \"week6/class/Delegatecall.sol\":564:1054  contract Call {... */\n      mstore(0x40, 0x80)\n      callvalue\n      dup1\n      iszero\n      tag_1\n      jumpi\n      0x00\n      dup1\n      revert\n    tag_1:\n      pop\n      jumpi(tag_2, lt(calldatasize, 0x04))\n      shr(0xe0, calldataload(0x00))\n      dup1\n      0x2b6e8fda\n      eq\n      tag_3\n      jumpi\n      dup1\n      0x3207ad96\n      eq\n      tag_4\n      jumpi\n    tag_2:\n      0x00\n      dup1\n      revert\n        /* \"week6/class/Delegatecall.sol\":817:1052  function callOrigin(address addr) public returns (address) {... */\n    tag_3:\n      tag_5\n      0x04\n      dup1\n      calldatasize\n      sub\n      dup2\n      add\n      swap1\n      tag_6\n      swap2\n      swap1\n      tag_7\n      jump\t// in\n    tag_6:\n      tag_8\n      jump\t// in\n    tag_5:\n      mload(0x40)\n      tag_9\n      swap2\n      swap1\n      tag_10\n      jump\t// in\n    tag_9:\n      mload(0x40)\n      dup1\n      swap2\n      sub\n      swap1\n      return\n        /* \"week6/class/Delegatecall.sol\":584:811  function callSender(address addr) public returns (address) {... */\n    tag_4:\n      tag_11\n      0x04\n      dup1\n      calldatasize\n      sub\n      dup2\n      add\n      swap1\n      tag_12\n      swap2\n      swap1\n      tag_7\n      jump\t// in\n    tag_12:\n      tag_13\n      jump\t// in\n    tag_11:\n      mload(0x40)\n      tag_14\n      swap2\n      swap1\n      tag_10\n      jump\t// in\n    tag_14:\n      mload(0x40)\n      dup1\n      swap2\n      sub\n      swap1\n      return\n        /* \"week6/class/Delegatecall.sol\":817:1052  function callOrigin(address addr) public returns (address) {... */\n    tag_8:\n        /* \"week6/class/Delegatecall.sol\":867:874  address */\n      0x00\n        /* \"week6/class/Delegatecall.sol\":889:906  bytes memory data */\n      dup1\n        /* \"week6/class/Delegatecall.sol\":910:914  addr */\n      dup3\n        /* \"week6/class/Delegatecall.sol\":910:927  addr.delegatecall */\n      0xffffffffffffffffffffffffffffffffffffffff\n      and\n        /* \"week6/class/Delegatecall.sol\":928:966  abi.encodeWithSignature(\"getOrigin()\") */\n      add(0x24, mload(0x40))\n      mload(0x40)\n      0x20\n      dup2\n      dup4\n      sub\n      sub\n      dup2\n      mstore\n      swap1\n      0x40\n      mstore\n      and(not(0xffffffffffffffffffffffffffffffffffffffffffffffffffffffff), 0xdf1f29ee00000000000000000000000000000000000000000000000000000000)\n      0x20\n      dup3\n      add\n      dup1\n      mload\n      0xffffffffffffffffffffffffffffffffffffffffffffffffffffffff\n      dup4\n      dup2\n      dup4\n      and\n      or\n      dup4\n      mstore\n      pop\n      pop\n      pop\n      pop\n        /* \"week6/class/Delegatecall.sol\":910:967  addr.delegatecall(abi.encodeWithSignature(\"getOrigin()\")) */\n      mload(0x40)\n      tag_16\n      swap2\n      swap1\n      tag_17\n      jump\t// in\n    tag_16:\n      0x00\n      mload(0x40)\n      dup1\n      dup4\n      sub\n      dup2\n      dup6\n      gas\n      delegatecall\n      swap2\n      pop\n      pop\n      returndatasize\n      dup1\n      0x00\n      dup2\n      eq\n      tag_20\n      jumpi\n      mload(0x40)\n      swap2\n      pop\n      and(add(returndatasize, 0x3f), not(0x1f))\n      dup3\n      add\n      0x40\n      mstore\n      returndatasize\n      dup3\n      mstore\n      returndatasize\n      0x00\n      0x20\n      dup5\n      add\n      returndatacopy\n      jump(tag_19)\n    tag_20:\n      0x60\n      swap2\n      pop\n    tag_19:\n      pop\n        /* \"week6/class/Delegatecall.sol\":886:967  (, bytes memory data) = addr.delegatecall(abi.encodeWithSignature(\"getOrigin()\")) */\n      swap2\n      pop\n      pop\n        /* \"week6/class/Delegatecall.sol\":977:991  address origin */\n      0x00\n        /* \"week6/class/Delegatecall.sol\":1005:1009  data */\n      dup2\n        /* \"week6/class/Delegatecall.sol\":994:1021  abi.decode(data, (address)) */\n      dup1\n      0x20\n      add\n      swap1\n      mload\n      dup2\n      add\n      swap1\n      tag_21\n      swap2\n      swap1\n      tag_22\n      jump\t// in\n    tag_21:\n        /* \"week6/class/Delegatecall.sol\":977:1021  address origin = abi.decode(data, (address)) */\n      swap1\n      pop\n        /* \"week6/class/Delegatecall.sol\":1039:1045  origin */\n      dup1\n        /* \"week6/class/Delegatecall.sol\":1032:1045  return origin */\n      swap3\n      pop\n      pop\n      pop\n        /* \"week6/class/Delegatecall.sol\":817:1052  function callOrigin(address addr) public returns (address) {... */\n      swap2\n      swap1\n      pop\n      jump\t// out\n        /* \"week6/class/Delegatecall.sol\":584:811  function callSender(address addr) public returns (address) {... */\n    tag_13:\n        /* \"week6/class/Delegatecall.sol\":634:641  address */\n      0x00\n        /* \"week6/class/Delegatecall.sol\":656:673  bytes memory data */\n      dup1\n        /* \"week6/class/Delegatecall.sol\":677:681  addr */\n      dup3\n        /* \"week6/class/Delegatecall.sol\":677:686  addr.call */\n      0xffffffffffffffffffffffffffffffffffffffff\n      and\n        /* \"week6/class/Delegatecall.sol\":687:725  abi.encodeWithSignature(\"getSender()\") */\n      add(0x24, mload(0x40))\n      mload(0x40)\n      0x20\n      dup2\n      dup4\n      sub\n      sub\n      dup2\n      mstore\n      swap1\n      0x40\n      mstore\n      and(not(0xffffffffffffffffffffffffffffffffffffffffffffffffffffffff), 0x5e01eb5a00000000000000000000000000000000000000000000000000000000)\n      0x20\n      dup3\n      add\n      dup1\n      mload\n      0xffffffffffffffffffffffffffffffffffffffffffffffffffffffff\n      dup4\n      dup2\n      dup4\n      and\n      or\n      dup4\n      mstore\n      pop\n      pop\n      pop\n      pop\n        /* \"week6/class/Delegatecall.sol\":677:726  addr.call(abi.encodeWithSignature(\"getSender()\")) */\n      mload(0x40)\n      tag_24\n      swap2\n      swap1\n      tag_17\n      jump\t// in\n    tag_24:\n      0x00\n      mload(0x40)\n      dup1\n      dup4\n      sub\n      dup2\n      0x00\n      dup7\n      gas\n      call\n      swap2\n      pop\n      pop\n      returndatasize\n      dup1\n      0x00\n      dup2\n      eq\n      tag_27\n      jumpi\n      mload(0x40)\n      swap2\n      pop\n      and(add(returndatasize, 0x3f), not(0x1f))\n      dup3\n      add\n      0x40\n      mstore\n      returndatasize\n      dup3\n      mstore\n      returndatasize\n      0x00\n      0x20\n      dup5\n      add\n      returndatacopy\n      jump(tag_26)\n    tag_27:\n      0x60\n      swap2\n      pop\n    tag_26:\n      pop\n        /* \"week6/class/Delegatecall.sol\":653:726  (, bytes memory data) = addr.call(abi.encodeWithSignature(\"getSender()\")) */\n      swap2\n      pop\n      pop\n        /* \"week6/class/Delegatecall.sol\":736:750  address sender */\n      0x00\n        /* \"week6/class/Delegatecall.sol\":764:768  data */\n      dup2\n        /* \"week6/class/Delegatecall.sol\":753:780  abi.decode(data, (address)) */\n      dup1\n      0x20\n      add\n      swap1\n      mload\n      dup2\n      add\n      swap1\n      tag_28\n      swap2\n      swap1\n      tag_22\n      jump\t// in\n    tag_28:\n        /* \"week6/class/Delegatecall.sol\":736:780  address sender = abi.decode(data, (address)) */\n      swap1\n      pop\n        /* \"week6/class/Delegatecall.sol\":798:804  sender */\n      dup1\n        /* \"week6/class/Delegatecall.sol\":791:804  return sender */\n      swap3\n      pop\n      pop\n      pop\n        /* \"week6/class/Delegatecall.sol\":584:811  function callSender(address addr) public returns (address) {... */\n      swap2\n      swap1\n      pop\n      jump\t// out\n        /* \"#utility.yul\":88:205   */\n    tag_30:\n        /* \"#utility.yul\":197:198   */\n      0x00\n        /* \"#utility.yul\":194:195   */\n      dup1\n        /* \"#utility.yul\":187:199   */\n      revert\n        /* \"#utility.yul\":334:460   */\n    tag_32:\n        /* \"#utility.yul\":371:378   */\n      0x00\n        /* \"#utility.yul\":411:453   */\n      0xffffffffffffffffffffffffffffffffffffffff\n        /* \"#utility.yul\":404:409   */\n      dup3\n        /* \"#utility.yul\":400:454   */\n      and\n        /* \"#utility.yul\":389:454   */\n      swap1\n      pop\n        /* \"#utility.yul\":334:460   */\n      swap2\n      swap1\n      pop\n      jump\t// out\n        /* \"#utility.yul\":466:562   */\n    tag_33:\n        /* \"#utility.yul\":503:510   */\n      0x00\n        /* \"#utility.yul\":532:556   */\n      tag_50\n        /* \"#utility.yul\":550:555   */\n      dup3\n        /* \"#utility.yul\":532:556   */\n      tag_32\n      jump\t// in\n    tag_50:\n        /* \"#utility.yul\":521:556   */\n      swap1\n      pop\n        /* \"#utility.yul\":466:562   */\n      swap2\n      swap1\n      pop\n      jump\t// out\n        /* \"#utility.yul\":568:690   */\n    tag_34:\n        /* \"#utility.yul\":641:665   */\n      tag_52\n        /* \"#utility.yul\":659:664   */\n      dup2\n        /* \"#utility.yul\":641:665   */\n      tag_33\n      jump\t// in\n    tag_52:\n        /* \"#utility.yul\":634:639   */\n      dup2\n        /* \"#utility.yul\":631:666   */\n      eq\n        /* \"#utility.yul\":621:684   */\n      tag_53\n      jumpi\n        /* \"#utility.yul\":680:681   */\n      0x00\n        /* \"#utility.yul\":677:678   */\n      dup1\n        /* \"#utility.yul\":670:682   */\n      revert\n        /* \"#utility.yul\":621:684   */\n    tag_53:\n        /* \"#utility.yul\":568:690   */\n      pop\n      jump\t// out\n        /* \"#utility.yul\":696:835   */\n    tag_35:\n        /* \"#utility.yul\":742:747   */\n      0x00\n        /* \"#utility.yul\":780:786   */\n      dup2\n        /* \"#utility.yul\":767:787   */\n      calldataload\n        /* \"#utility.yul\":758:787   */\n      swap1\n      pop\n        /* \"#utility.yul\":796:829   */\n      tag_55\n        /* \"#utility.yul\":823:828   */\n      dup2\n        /* \"#utility.yul\":796:829   */\n      tag_34\n      jump\t// in\n    tag_55:\n        /* \"#utility.yul\":696:835   */\n      swap3\n      swap2\n      pop\n      pop\n      jump\t// out\n        /* \"#utility.yul\":841:1170   */\n    tag_7:\n        /* \"#utility.yul\":900:906   */\n      0x00\n        /* \"#utility.yul\":949:951   */\n      0x20\n        /* \"#utility.yul\":937:946   */\n      dup3\n        /* \"#utility.yul\":928:935   */\n      dup5\n        /* \"#utility.yul\":924:947   */\n      sub\n        /* \"#utility.yul\":920:952   */\n      slt\n        /* \"#utility.yul\":917:1036   */\n      iszero\n      tag_57\n      jumpi\n        /* \"#utility.yul\":955:1034   */\n      tag_58\n      tag_30\n      jump\t// in\n    tag_58:\n        /* \"#utility.yul\":917:1036   */\n    tag_57:\n        /* \"#utility.yul\":1075:1076   */\n      0x00\n        /* \"#utility.yul\":1100:1153   */\n      tag_59\n        /* \"#utility.yul\":1145:1152   */\n      dup5\n        /* \"#utility.yul\":1136:1142   */\n      dup3\n        /* \"#utility.yul\":1125:1134   */\n      dup6\n        /* \"#utility.yul\":1121:1143   */\n      add\n        /* \"#utility.yul\":1100:1153   */\n      tag_35\n      jump\t// in\n    tag_59:\n        /* \"#utility.yul\":1090:1153   */\n      swap2\n      pop\n        /* \"#utility.yul\":1046:1163   */\n      pop\n        /* \"#utility.yul\":841:1170   */\n      swap3\n      swap2\n      pop\n      pop\n      jump\t// out\n        /* \"#utility.yul\":1176:1294   */\n    tag_36:\n        /* \"#utility.yul\":1263:1287   */\n      tag_61\n        /* \"#utility.yul\":1281:1286   */\n      dup2\n        /* \"#utility.yul\":1263:1287   */\n      tag_33\n      jump\t// in\n    tag_61:\n        /* \"#utility.yul\":1258:1261   */\n      dup3\n        /* \"#utility.yul\":1251:1288   */\n      mstore\n        /* \"#utility.yul\":1176:1294   */\n      pop\n      pop\n      jump\t// out\n        /* \"#utility.yul\":1300:1522   */\n    tag_10:\n        /* \"#utility.yul\":1393:1397   */\n      0x00\n        /* \"#utility.yul\":1431:1433   */\n      0x20\n        /* \"#utility.yul\":1420:1429   */\n      dup3\n        /* \"#utility.yul\":1416:1434   */\n      add\n        /* \"#utility.yul\":1408:1434   */\n      swap1\n      pop\n        /* \"#utility.yul\":1444:1515   */\n      tag_63\n        /* \"#utility.yul\":1512:1513   */\n      0x00\n        /* \"#utility.yul\":1501:1510   */\n      dup4\n        /* \"#utility.yul\":1497:1514   */\n      add\n        /* \"#utility.yul\":1488:1494   */\n      dup5\n        /* \"#utility.yul\":1444:1515   */\n      tag_36\n      jump\t// in\n    tag_63:\n        /* \"#utility.yul\":1300:1522   */\n      swap3\n      swap2\n      pop\n      pop\n      jump\t// out\n        /* \"#utility.yul\":1528:1626   */\n    tag_37:\n        /* \"#utility.yul\":1579:1585   */\n      0x00\n        /* \"#utility.yul\":1613:1618   */\n      dup2\n        /* \"#utility.yul\":1607:1619   */\n      mload\n        /* \"#utility.yul\":1597:1619   */\n      swap1\n      pop\n        /* \"#utility.yul\":1528:1626   */\n      swap2\n      swap1\n      pop\n      jump\t// out\n        /* \"#utility.yul\":1632:1779   */\n    tag_38:\n        /* \"#utility.yul\":1733:1744   */\n      0x00\n        /* \"#utility.yul\":1770:1773   */\n      dup2\n        /* \"#utility.yul\":1755:1773   */\n      swap1\n      pop\n        /* \"#utility.yul\":1632:1779   */\n      swap3\n      swap2\n      pop\n      pop\n      jump\t// out\n        /* \"#utility.yul\":1785:2031   */\n    tag_39:\n        /* \"#utility.yul\":1866:1867   */\n      0x00\n        /* \"#utility.yul\":1876:1989   */\n    tag_67:\n        /* \"#utility.yul\":1890:1896   */\n      dup4\n        /* \"#utility.yul\":1887:1888   */\n      dup2\n        /* \"#utility.yul\":1884:1897   */\n      lt\n        /* \"#utility.yul\":1876:1989   */\n      iszero\n      tag_69\n      jumpi\n        /* \"#utility.yul\":1975:1976   */\n      dup1\n        /* \"#utility.yul\":1970:1973   */\n      dup3\n        /* \"#utility.yul\":1966:1977   */\n      add\n        /* \"#utility.yul\":1960:1978   */\n      mload\n        /* \"#utility.yul\":1956:1957   */\n      dup2\n        /* \"#utility.yul\":1951:1954   */\n      dup5\n        /* \"#utility.yul\":1947:1958   */\n      add\n        /* \"#utility.yul\":1940:1979   */\n      mstore\n        /* \"#utility.yul\":1912:1914   */\n      0x20\n        /* \"#utility.yul\":1909:1910   */\n      dup2\n        /* \"#utility.yul\":1905:1915   */\n      add\n        /* \"#utility.yul\":1900:1915   */\n      swap1\n      pop\n        /* \"#utility.yul\":1876:1989   */\n      jump(tag_67)\n    tag_69:\n        /* \"#utility.yul\":2023:2024   */\n      0x00\n        /* \"#utility.yul\":2014:2020   */\n      dup5\n        /* \"#utility.yul\":2009:2012   */\n      dup5\n        /* \"#utility.yul\":2005:2021   */\n      add\n        /* \"#utility.yul\":1998:2025   */\n      mstore\n        /* \"#utility.yul\":1847:2031   */\n      pop\n        /* \"#utility.yul\":1785:2031   */\n      pop\n      pop\n      pop\n      jump\t// out\n        /* \"#utility.yul\":2037:2423   */\n    tag_40:\n        /* \"#utility.yul\":2141:2144   */\n      0x00\n        /* \"#utility.yul\":2169:2207   */\n      tag_71\n        /* \"#utility.yul\":2201:2206   */\n      dup3\n        /* \"#utility.yul\":2169:2207   */\n      tag_37\n      jump\t// in\n    tag_71:\n        /* \"#utility.yul\":2223:2311   */\n      tag_72\n        /* \"#utility.yul\":2304:2310   */\n      dup2\n        /* \"#utility.yul\":2299:2302   */\n      dup6\n        /* \"#utility.yul\":2223:2311   */\n      tag_38\n      jump\t// in\n    tag_72:\n        /* \"#utility.yul\":2216:2311   */\n      swap4\n      pop\n        /* \"#utility.yul\":2320:2385   */\n      tag_73\n        /* \"#utility.yul\":2378:2384   */\n      dup2\n        /* \"#utility.yul\":2373:2376   */\n      dup6\n        /* \"#utility.yul\":2366:2370   */\n      0x20\n        /* \"#utility.yul\":2359:2364   */\n      dup7\n        /* \"#utility.yul\":2355:2371   */\n      add\n        /* \"#utility.yul\":2320:2385   */\n      tag_39\n      jump\t// in\n    tag_73:\n        /* \"#utility.yul\":2410:2416   */\n      dup1\n        /* \"#utility.yul\":2405:2408   */\n      dup5\n        /* \"#utility.yul\":2401:2417   */\n      add\n        /* \"#utility.yul\":2394:2417   */\n      swap2\n      pop\n        /* \"#utility.yul\":2145:2423   */\n      pop\n        /* \"#utility.yul\":2037:2423   */\n      swap3\n      swap2\n      pop\n      pop\n      jump\t// out\n        /* \"#utility.yul\":2429:2700   */\n    tag_17:\n        /* \"#utility.yul\":2559:2562   */\n      0x00\n        /* \"#utility.yul\":2581:2674   */\n      tag_75\n        /* \"#utility.yul\":2670:2673   */\n      dup3\n        /* \"#utility.yul\":2661:2667   */\n      dup5\n        /* \"#utility.yul\":2581:2674   */\n      tag_40\n      jump\t// in\n    tag_75:\n        /* \"#utility.yul\":2574:2674   */\n      swap2\n      pop\n        /* \"#utility.yul\":2691:2694   */\n      dup2\n        /* \"#utility.yul\":2684:2694   */\n      swap1\n      pop\n        /* \"#utility.yul\":2429:2700   */\n      swap3\n      swap2\n      pop\n      pop\n      jump\t// out\n        /* \"#utility.yul\":2706:2810   */\n    tag_41:\n        /* \"#utility.yul\":2751:2758   */\n      0x00\n        /* \"#utility.yul\":2780:2804   */\n      tag_77\n        /* \"#utility.yul\":2798:2803   */\n      dup3\n        /* \"#utility.yul\":2780:2804   */\n      tag_32\n      jump\t// in\n    tag_77:\n        /* \"#utility.yul\":2769:2804   */\n      swap1\n      pop\n        /* \"#utility.yul\":2706:2810   */\n      swap2\n      swap1\n      pop\n      jump\t// out\n        /* \"#utility.yul\":2816:2954   */\n    tag_42:\n        /* \"#utility.yul\":2897:2929   */\n      tag_79\n        /* \"#utility.yul\":2923:2928   */\n      dup2\n        /* \"#utility.yul\":2897:2929   */\n      tag_41\n      jump\t// in\n    tag_79:\n        /* \"#utility.yul\":2890:2895   */\n      dup2\n        /* \"#utility.yul\":2887:2930   */\n      eq\n        /* \"#utility.yul\":2877:2948   */\n      tag_80\n      jumpi\n        /* \"#utility.yul\":2944:2945   */\n      0x00\n        /* \"#utility.yul\":2941:2942   */\n      dup1\n        /* \"#utility.yul\":2934:2946   */\n      revert\n        /* \"#utility.yul\":2877:2948   */\n    tag_80:\n        /* \"#utility.yul\":2816:2954   */\n      pop\n      jump\t// out\n        /* \"#utility.yul\":2960:3119   */\n    tag_43:\n        /* \"#utility.yul\":3025:3030   */\n      0x00\n        /* \"#utility.yul\":3056:3062   */\n      dup2\n        /* \"#utility.yul\":3050:3063   */\n      mload\n        /* \"#utility.yul\":3041:3063   */\n      swap1\n      pop\n        /* \"#utility.yul\":3072:3113   */\n      tag_82\n        /* \"#utility.yul\":3107:3112   */\n      dup2\n        /* \"#utility.yul\":3072:3113   */\n      tag_42\n      jump\t// in\n    tag_82:\n        /* \"#utility.yul\":2960:3119   */\n      swap3\n      swap2\n      pop\n      pop\n      jump\t// out\n        /* \"#utility.yul\":3125:3492   */\n    tag_22:\n        /* \"#utility.yul\":3203:3209   */\n      0x00\n        /* \"#utility.yul\":3252:3254   */\n      0x20\n        /* \"#utility.yul\":3240:3249   */\n      dup3\n        /* \"#utility.yul\":3231:3238   */\n      dup5\n        /* \"#utility.yul\":3227:3250   */\n      sub\n        /* \"#utility.yul\":3223:3255   */\n      slt\n        /* \"#utility.yul\":3220:3339   */\n      iszero\n      tag_84\n      jumpi\n        /* \"#utility.yul\":3258:3337   */\n      tag_85\n      tag_30\n      jump\t// in\n    tag_85:\n        /* \"#utility.yul\":3220:3339   */\n    tag_84:\n        /* \"#utility.yul\":3378:3379   */\n      0x00\n        /* \"#utility.yul\":3403:3475   */\n      tag_86\n        /* \"#utility.yul\":3467:3474   */\n      dup5\n        /* \"#utility.yul\":3458:3464   */\n      dup3\n        /* \"#utility.yul\":3447:3456   */\n      dup6\n        /* \"#utility.yul\":3443:3465   */\n      add\n        /* \"#utility.yul\":3403:3475   */\n      tag_43\n      jump\t// in\n    tag_86:\n        /* \"#utility.yul\":3393:3475   */\n      swap2\n      pop\n        /* \"#utility.yul\":3349:3485   */\n      pop\n        /* \"#utility.yul\":3125:3492   */\n      swap3\n      swap2\n      pop\n      pop\n      jump\t// out\n\n    auxdata: 0xa26469706673582212208311111a3f517f6d8c036531cdc97f0e40453c4c63b342efa4619a8b5b9ed63e64736f6c63430008120033\n}\n",
				"bytecode": {
					"linkReferences": {},
					"object": "608060405234801561001057600080fd5b506104a0806100206000396000f3fe608060405234801561001057600080fd5b50600436106100365760003560e01c80632b6e8fda1461003b5780633207ad961461006b575b600080fd5b61005560048036038101906100509190610320565b61009b565b604051610062919061035c565b60405180910390f35b61008560048036038101906100809190610320565b6101ab565b604051610092919061035c565b60405180910390f35b6000808273ffffffffffffffffffffffffffffffffffffffff166040516024016040516020818303038152906040527fdf1f29ee000000000000000000000000000000000000000000000000000000007bffffffffffffffffffffffffffffffffffffffffffffffffffffffff19166020820180517bffffffffffffffffffffffffffffffffffffffffffffffffffffffff838183161783525050505060405161014591906103e8565b600060405180830381855af49150503d8060008114610180576040519150601f19603f3d011682016040523d82523d6000602084013e610185565b606091505b5091505060008180602001905181019061019f919061043d565b90508092505050919050565b6000808273ffffffffffffffffffffffffffffffffffffffff166040516024016040516020818303038152906040527f5e01eb5a000000000000000000000000000000000000000000000000000000007bffffffffffffffffffffffffffffffffffffffffffffffffffffffff19166020820180517bffffffffffffffffffffffffffffffffffffffffffffffffffffffff838183161783525050505060405161025591906103e8565b6000604051808303816000865af19150503d8060008114610292576040519150601f19603f3d011682016040523d82523d6000602084013e610297565b606091505b509150506000818060200190518101906102b1919061043d565b90508092505050919050565b600080fd5b600073ffffffffffffffffffffffffffffffffffffffff82169050919050565b60006102ed826102c2565b9050919050565b6102fd816102e2565b811461030857600080fd5b50565b60008135905061031a816102f4565b92915050565b600060208284031215610336576103356102bd565b5b60006103448482850161030b565b91505092915050565b610356816102e2565b82525050565b6000602082019050610371600083018461034d565b92915050565b600081519050919050565b600081905092915050565b60005b838110156103ab578082015181840152602081019050610390565b60008484015250505050565b60006103c282610377565b6103cc8185610382565b93506103dc81856020860161038d565b80840191505092915050565b60006103f482846103b7565b915081905092915050565b600061040a826102c2565b9050919050565b61041a816103ff565b811461042557600080fd5b50565b60008151905061043781610411565b92915050565b600060208284031215610453576104526102bd565b5b600061046184828501610428565b9150509291505056fea26469706673582212208311111a3f517f6d8c036531cdc97f0e40453c4c63b342efa4619a8b5b9ed63e64736f6c63430008120033",
					"opcodes": "PUSH1 0x80 PUSH1 0x40 MSTORE CALLVALUE DUP1 ISZERO PUSH2 0x10 JUMPI PUSH1 0x0 DUP1 REVERT JUMPDEST POP PUSH2 0x4A0 DUP1 PUSH2 0x20 PUSH1 0x0 CODECOPY PUSH1 0x0 RETURN INVALID PUSH1 0x80 PUSH1 0x40 MSTORE CALLVALUE DUP1 ISZERO PUSH2 0x10 JUMPI PUSH1 0x0 DUP1 REVERT JUMPDEST POP PUSH1 0x4 CALLDATASIZE LT PUSH2 0x36 JUMPI PUSH1 0x0 CALLDATALOAD PUSH1 0xE0 SHR DUP1 PUSH4 0x2B6E8FDA EQ PUSH2 0x3B JUMPI DUP1 PUSH4 0x3207AD96 EQ PUSH2 0x6B JUMPI JUMPDEST PUSH1 0x0 DUP1 REVERT JUMPDEST PUSH2 0x55 PUSH1 0x4 DUP1 CALLDATASIZE SUB DUP2 ADD SWAP1 PUSH2 0x50 SWAP2 SWAP1 PUSH2 0x320 JUMP JUMPDEST PUSH2 0x9B JUMP JUMPDEST PUSH1 0x40 MLOAD PUSH2 0x62 SWAP2 SWAP1 PUSH2 0x35C JUMP JUMPDEST PUSH1 0x40 MLOAD DUP1 SWAP2 SUB SWAP1 RETURN JUMPDEST PUSH2 0x85 PUSH1 0x4 DUP1 CALLDATASIZE SUB DUP2 ADD SWAP1 PUSH2 0x80 SWAP2 SWAP1 PUSH2 0x320 JUMP JUMPDEST PUSH2 0x1AB JUMP JUMPDEST PUSH1 0x40 MLOAD PUSH2 0x92 SWAP2 SWAP1 PUSH2 0x35C JUMP JUMPDEST PUSH1 0x40 MLOAD DUP1 SWAP2 SUB SWAP1 RETURN JUMPDEST PUSH1 0x0 DUP1 DUP3 PUSH20 0xFFFFFFFFFFFFFFFFFFFFFFFFFFFFFFFFFFFFFFFF AND PUSH1 0x40 MLOAD PUSH1 0x24 ADD PUSH1 0x40 MLOAD PUSH1 0x20 DUP2 DUP4 SUB SUB DUP2 MSTORE SWAP1 PUSH1 0x40 MSTORE PUSH32 0xDF1F29EE00000000000000000000000000000000000000000000000000000000 PUSH28 0xFFFFFFFFFFFFFFFFFFFFFFFFFFFFFFFFFFFFFFFFFFFFFFFFFFFFFFFF NOT AND PUSH1 0x20 DUP3 ADD DUP1 MLOAD PUSH28 0xFFFFFFFFFFFFFFFFFFFFFFFFFFFFFFFFFFFFFFFFFFFFFFFFFFFFFFFF DUP4 DUP2 DUP4 AND OR DUP4 MSTORE POP POP POP POP PUSH1 0x40 MLOAD PUSH2 0x145 SWAP2 SWAP1 PUSH2 0x3E8 JUMP JUMPDEST PUSH1 0x0 PUSH1 0x40 MLOAD DUP1 DUP4 SUB DUP2 DUP6 GAS DELEGATECALL SWAP2 POP POP RETURNDATASIZE DUP1 PUSH1 0x0 DUP2 EQ PUSH2 0x180 JUMPI PUSH1 0x40 MLOAD SWAP2 POP PUSH1 0x1F NOT PUSH1 0x3F RETURNDATASIZE ADD AND DUP3 ADD PUSH1 0x40 MSTORE RETURNDATASIZE DUP3 MSTORE RETURNDATASIZE PUSH1 0x0 PUSH1 0x20 DUP5 ADD RETURNDATACOPY PUSH2 0x185 JUMP JUMPDEST PUSH1 0x60 SWAP2 POP JUMPDEST POP SWAP2 POP POP PUSH1 0x0 DUP2 DUP1 PUSH1 0x20 ADD SWAP1 MLOAD DUP2 ADD SWAP1 PUSH2 0x19F SWAP2 SWAP1 PUSH2 0x43D JUMP JUMPDEST SWAP1 POP DUP1 SWAP3 POP POP POP SWAP2 SWAP1 POP JUMP JUMPDEST PUSH1 0x0 DUP1 DUP3 PUSH20 0xFFFFFFFFFFFFFFFFFFFFFFFFFFFFFFFFFFFFFFFF AND PUSH1 0x40 MLOAD PUSH1 0x24 ADD PUSH1 0x40 MLOAD PUSH1 0x20 DUP2 DUP4 SUB SUB DUP2 MSTORE SWAP1 PUSH1 0x40 MSTORE PUSH32 0x5E01EB5A00000000000000000000000000000000000000000000000000000000 PUSH28 0xFFFFFFFFFFFFFFFFFFFFFFFFFFFFFFFFFFFFFFFFFFFFFFFFFFFFFFFF NOT AND PUSH1 0x20 DUP3 ADD DUP1 MLOAD PUSH28 0xFFFFFFFFFFFFFFFFFFFFFFFFFFFFFFFFFFFFFFFFFFFFFFFFFFFFFFFF DUP4 DUP2 DUP4 AND OR DUP4 MSTORE POP POP POP POP PUSH1 0x40 MLOAD PUSH2 0x255 SWAP2 SWAP1 PUSH2 0x3E8 JUMP JUMPDEST PUSH1 0x0 PUSH1 0x40 MLOAD DUP1 DUP4 SUB DUP2 PUSH1 0x0 DUP7 GAS CALL SWAP2 POP POP RETURNDATASIZE DUP1 PUSH1 0x0 DUP2 EQ PUSH2 0x292 JUMPI PUSH1 0x40 MLOAD SWAP2 POP PUSH1 0x1F NOT PUSH1 0x3F RETURNDATASIZE ADD AND DUP3 ADD PUSH1 0x40 MSTORE RETURNDATASIZE DUP3 MSTORE RETURNDATASIZE PUSH1 0x0 PUSH1 0x20 DUP5 ADD RETURNDATACOPY PUSH2 0x297 JUMP JUMPDEST PUSH1 0x60 SWAP2 POP JUMPDEST POP SWAP2 POP POP PUSH1 0x0 DUP2 DUP1 PUSH1 0x20 ADD SWAP1 MLOAD DUP2 ADD SWAP1 PUSH2 0x2B1 SWAP2 SWAP1 PUSH2 0x43D JUMP JUMPDEST SWAP1 POP DUP1 SWAP3 POP POP POP SWAP2 SWAP1 POP JUMP JUMPDEST PUSH1 0x0 DUP1 REVERT JUMPDEST PUSH1 0x0 PUSH20 0xFFFFFFFFFFFFFFFFFFFFFFFFFFFFFFFFFFFFFFFF DUP3 AND SWAP1 POP SWAP2 SWAP1 POP JUMP JUMPDEST PUSH1 0x0 PUSH2 0x2ED DUP3 PUSH2 0x2C2 JUMP JUMPDEST SWAP1 POP SWAP2 SWAP1 POP JUMP JUMPDEST PUSH2 0x2FD DUP2 PUSH2 0x2E2 JUMP JUMPDEST DUP2 EQ PUSH2 0x308 JUMPI PUSH1 0x0 DUP1 REVERT JUMPDEST POP JUMP JUMPDEST PUSH1 0x0 DUP2 CALLDATALOAD SWAP1 POP PUSH2 0x31A DUP2 PUSH2 0x2F4 JUMP JUMPDEST SWAP3 SWAP2 POP POP JUMP JUMPDEST PUSH1 0x0 PUSH1 0x20 DUP3 DUP5 SUB SLT ISZERO PUSH2 0x336 JUMPI PUSH2 0x335 PUSH2 0x2BD JUMP JUMPDEST JUMPDEST PUSH1 0x0 PUSH2 0x344 DUP5 DUP3 DUP6 ADD PUSH2 0x30B JUMP JUMPDEST SWAP2 POP POP SWAP3 SWAP2 POP POP JUMP JUMPDEST PUSH2 0x356 DUP2 PUSH2 0x2E2 JUMP JUMPDEST DUP3 MSTORE POP POP JUMP JUMPDEST PUSH1 0x0 PUSH1 0x20 DUP3 ADD SWAP1 POP PUSH2 0x371 PUSH1 0x0 DUP4 ADD DUP5 PUSH2 0x34D JUMP JUMPDEST SWAP3 SWAP2 POP POP JUMP JUMPDEST PUSH1 0x0 DUP2 MLOAD SWAP1 POP SWAP2 SWAP1 POP JUMP JUMPDEST PUSH1 0x0 DUP2 SWAP1 POP SWAP3 SWAP2 POP POP JUMP JUMPDEST PUSH1 0x0 JUMPDEST DUP4 DUP2 LT ISZERO PUSH2 0x3AB JUMPI DUP1 DUP3 ADD MLOAD DUP2 DUP5 ADD MSTORE PUSH1 0x20 DUP2 ADD SWAP1 POP PUSH2 0x390 JUMP JUMPDEST PUSH1 0x0 DUP5 DUP5 ADD MSTORE POP POP POP POP JUMP JUMPDEST PUSH1 0x0 PUSH2 0x3C2 DUP3 PUSH2 0x377 JUMP JUMPDEST PUSH2 0x3CC DUP2 DUP6 PUSH2 0x382 JUMP JUMPDEST SWAP4 POP PUSH2 0x3DC DUP2 DUP6 PUSH1 0x20 DUP7 ADD PUSH2 0x38D JUMP JUMPDEST DUP1 DUP5 ADD SWAP2 POP POP SWAP3 SWAP2 POP POP JUMP JUMPDEST PUSH1 0x0 PUSH2 0x3F4 DUP3 DUP5 PUSH2 0x3B7 JUMP JUMPDEST SWAP2 POP DUP2 SWAP1 POP SWAP3 SWAP2 POP POP JUMP JUMPDEST PUSH1 0x0 PUSH2 0x40A DUP3 PUSH2 0x2C2 JUMP JUMPDEST SWAP1 POP SWAP2 SWAP1 POP JUMP JUMPDEST PUSH2 0x41A DUP2 PUSH2 0x3FF JUMP JUMPDEST DUP2 EQ PUSH2 0x425 JUMPI PUSH1 0x0 DUP1 REVERT JUMPDEST POP JUMP JUMPDEST PUSH1 0x0 DUP2 MLOAD SWAP1 POP PUSH2 0x437 DUP2 PUSH2 0x411 JUMP JUMPDEST SWAP3 SWAP2 POP POP JUMP JUMPDEST PUSH1 0x0 PUSH1 0x20 DUP3 DUP5 SUB SLT ISZERO PUSH2 0x453 JUMPI PUSH2 0x452 PUSH2 0x2BD JUMP JUMPDEST JUMPDEST PUSH1 0x0 PUSH2 0x461 DUP5 DUP3 DUP6 ADD PUSH2 0x428 JUMP JUMPDEST SWAP2 POP POP SWAP3 SWAP2 POP POP JUMP INVALID LOG2 PUSH5 0x6970667358 0x22 SLT KECCAK256 DUP4 GT GT BYTE EXTCODEHASH MLOAD PUSH32 0x6D8C036531CDC97F0E40453C4C63B342EFA4619A8B5B9ED63E64736F6C634300 ADDMOD SLT STOP CALLER "
				},
				"gasEstimates": {
					"creation": {
						"codeDepositCost": "236800",
						"executionCost": "275",
						"totalCost": "237075"
					},
					"external": {
						"callOrigin(address)": "infinite",
						"callSender(address)": "infinite"
					}
				},
				"methodIdentifiers": {
					"callOrigin(address)": "2b6e8fda",
					"callSender(address)": "3207ad96"
				}
			},
			"storageLayout": {
				"storage": [],
				"types": null
			},
			"userdoc": {
				"kind": "user",
				"methods": {},
				"version": 1
			}
		}
	}
}