{
	"week6/class/Delegatecall.sol": {
		"A": {
			"abi": [
				{
					"inputs": [],
					"name": "getOrigin",
					"outputs": [
						{
							"internalType": "address",
							"name": "",
							"type": "address"
						}
					],
					"stateMutability": "view",
					"type": "function"
				},
				{
					"inputs": [],
					"name": "getSender",
					"outputs": [
						{
							"internalType": "address",
							"name": "",
							"type": "address"
						}
					],
					"stateMutability": "view",
					"type": "function"
				}
			],
			"devdoc": {
				"kind": "dev",
				"methods": {},
				"version": 1
			},
			"evm": {
				"assembly": "    /* \"week6/class/Delegatecall.sol\":1056:1242  contract A {... */\n  mstore(0x40, 0x80)\n  callvalue\n  dup1\n  iszero\n  tag_1\n  jumpi\n  0x00\n  dup1\n  revert\ntag_1:\n  pop\n  dataSize(sub_0)\n  dup1\n  dataOffset(sub_0)\n  0x00\n  codecopy\n  0x00\n  return\nstop\n\nsub_0: assembly {\n        /* \"week6/class/Delegatecall.sol\":1056:1242  contract A {... */\n      mstore(0x40, 0x80)\n      callvalue\n      dup1\n      iszero\n      tag_1\n      jumpi\n      0x00\n      dup1\n      revert\n    tag_1:\n      pop\n      jumpi(tag_2, lt(calldatasize, 0x04))\n      shr(0xe0, calldataload(0x00))\n      dup1\n      0x5e01eb5a\n      eq\n      tag_3\n      jumpi\n      dup1\n      0xdf1f29ee\n      eq\n      tag_4\n      jumpi\n    tag_2:\n      0x00\n      dup1\n      revert\n        /* \"week6/class/Delegatecall.sol\":1072:1154  function getSender() public view returns (address) {... */\n    tag_3:\n      tag_5\n      tag_6\n      jump\t// in\n    tag_5:\n      mload(0x40)\n      tag_7\n      swap2\n      swap1\n      tag_8\n      jump\t// in\n    tag_7:\n      mload(0x40)\n      dup1\n      swap2\n      sub\n      swap1\n      return\n        /* \"week6/class/Delegatecall.sol\":1159:1240  function getOrigin() public view returns (address) {... */\n    tag_4:\n      tag_9\n      tag_10\n      jump\t// in\n    tag_9:\n      mload(0x40)\n      tag_11\n      swap2\n      swap1\n      tag_8\n      jump\t// in\n    tag_11:\n      mload(0x40)\n      dup1\n      swap2\n      sub\n      swap1\n      return\n        /* \"week6/class/Delegatecall.sol\":1072:1154  function getSender() public view returns (address) {... */\n    tag_6:\n        /* \"week6/class/Delegatecall.sol\":1114:1121  address */\n      0x00\n        /* \"week6/class/Delegatecall.sol\":1138:1148  msg.sender */\n      caller\n        /* \"week6/class/Delegatecall.sol\":1131:1148  return msg.sender */\n      swap1\n      pop\n        /* \"week6/class/Delegatecall.sol\":1072:1154  function getSender() public view returns (address) {... */\n      swap1\n      jump\t// out\n        /* \"week6/class/Delegatecall.sol\":1159:1240  function getOrigin() public view returns (address) {... */\n    tag_10:\n        /* \"week6/class/Delegatecall.sol\":1201:1208  address */\n      0x00\n        /* \"week6/class/Delegatecall.sol\":1225:1234  tx.origin */\n      origin\n        /* \"week6/class/Delegatecall.sol\":1218:1234  return tx.origin */\n      swap1\n      pop\n        /* \"week6/class/Delegatecall.sol\":1159:1240  function getOrigin() public view returns (address) {... */\n      swap1\n      jump\t// out\n        /* \"#utility.yul\":7:133   */\n    tag_14:\n        /* \"#utility.yul\":44:51   */\n      0x00\n        /* \"#utility.yul\":84:126   */\n      0xffffffffffffffffffffffffffffffffffffffff\n        /* \"#utility.yul\":77:82   */\n      dup3\n        /* \"#utility.yul\":73:127   */\n      and\n        /* \"#utility.yul\":62:127   */\n      swap1\n      pop\n        /* \"#utility.yul\":7:133   */\n      swap2\n      swap1\n      pop\n      jump\t// out\n        /* \"#utility.yul\":139:235   */\n    tag_15:\n        /* \"#utility.yul\":176:183   */\n      0x00\n        /* \"#utility.yul\":205:229   */\n      tag_20\n        /* \"#utility.yul\":223:228   */\n      dup3\n        /* \"#utility.yul\":205:229   */\n      tag_14\n      jump\t// in\n    tag_20:\n        /* \"#utility.yul\":194:229   */\n      swap1\n      pop\n        /* \"#utility.yul\":139:235   */\n      swap2\n      swap1\n      pop\n      jump\t// out\n        /* \"#utility.yul\":241:359   */\n    tag_16:\n        /* \"#utility.yul\":328:352   */\n      tag_22\n        /* \"#utility.yul\":346:351   */\n      dup2\n        /* \"#utility.yul\":328:352   */\n      tag_15\n      jump\t// in\n    tag_22:\n        /* \"#utility.yul\":323:326   */\n      dup3\n        /* \"#utility.yul\":316:353   */\n      mstore\n        /* \"#utility.yul\":241:359   */\n      pop\n      pop\n      jump\t// out\n        /* \"#utility.yul\":365:587   */\n    tag_8:\n        /* \"#utility.yul\":458:462   */\n      0x00\n        /* \"#utility.yul\":496:498   */\n      0x20\n        /* \"#utility.yul\":485:494   */\n      dup3\n        /* \"#utility.yul\":481:499   */\n      add\n        /* \"#utility.yul\":473:499   */\n      swap1\n      pop\n        /* \"#utility.yul\":509:580   */\n      tag_24\n        /* \"#utility.yul\":577:578   */\n      0x00\n        /* \"#utility.yul\":566:575   */\n      dup4\n        /* \"#utility.yul\":562:579   */\n      add\n        /* \"#utility.yul\":553:559   */\n      dup5\n        /* \"#utility.yul\":509:580   */\n      tag_16\n      jump\t// in\n    tag_24:\n        /* \"#utility.yul\":365:587   */\n      swap3\n      swap2\n      pop\n      pop\n      jump\t// out\n\n    auxdata: 0xa26469706673582212206f89a9fc606a174fa28cb7ffebab41a01106eb2c473a872f784c5fa33405976e64736f6c63430008120033\n}\n",
				"bytecode": {
					"linkReferences": {},
					"object": "608060405234801561001057600080fd5b50610107806100206000396000f3fe6080604052348015600f57600080fd5b506004361060325760003560e01c80635e01eb5a146037578063df1f29ee146051575b600080fd5b603d606b565b6040516048919060b8565b60405180910390f35b60576073565b6040516062919060b8565b60405180910390f35b600033905090565b600032905090565b600073ffffffffffffffffffffffffffffffffffffffff82169050919050565b600060a482607b565b9050919050565b60b281609b565b82525050565b600060208201905060cb600083018460ab565b9291505056fea26469706673582212206f89a9fc606a174fa28cb7ffebab41a01106eb2c473a872f784c5fa33405976e64736f6c63430008120033",
					"opcodes": "PUSH1 0x80 PUSH1 0x40 MSTORE CALLVALUE DUP1 ISZERO PUSH2 0x10 JUMPI PUSH1 0x0 DUP1 REVERT JUMPDEST POP PUSH2 0x107 DUP1 PUSH2 0x20 PUSH1 0x0 CODECOPY PUSH1 0x0 RETURN INVALID PUSH1 0x80 PUSH1 0x40 MSTORE CALLVALUE DUP1 ISZERO PUSH1 0xF JUMPI PUSH1 0x0 DUP1 REVERT JUMPDEST POP PUSH1 0x4 CALLDATASIZE LT PUSH1 0x32 JUMPI PUSH1 0x0 CALLDATALOAD PUSH1 0xE0 SHR DUP1 PUSH4 0x5E01EB5A EQ PUSH1 0x37 JUMPI DUP1 PUSH4 0xDF1F29EE EQ PUSH1 0x51 JUMPI JUMPDEST PUSH1 0x0 DUP1 REVERT JUMPDEST PUSH1 0x3D PUSH1 0x6B JUMP JUMPDEST PUSH1 0x40 MLOAD PUSH1 0x48 SWAP2 SWAP1 PUSH1 0xB8 JUMP JUMPDEST PUSH1 0x40 MLOAD DUP1 SWAP2 SUB SWAP1 RETURN JUMPDEST PUSH1 0x57 PUSH1 0x73 JUMP JUMPDEST PUSH1 0x40 MLOAD PUSH1 0x62 SWAP2 SWAP1 PUSH1 0xB8 JUMP JUMPDEST PUSH1 0x40 MLOAD DUP1 SWAP2 SUB SWAP1 RETURN JUMPDEST PUSH1 0x0 CALLER SWAP1 POP SWAP1 JUMP JUMPDEST PUSH1 0x0 ORIGIN SWAP1 POP SWAP1 JUMP JUMPDEST PUSH1 0x0 PUSH20 0xFFFFFFFFFFFFFFFFFFFFFFFFFFFFFFFFFFFFFFFF DUP3 AND SWAP1 POP SWAP2 SWAP1 POP JUMP JUMPDEST PUSH1 0x0 PUSH1 0xA4 DUP3 PUSH1 0x7B JUMP JUMPDEST SWAP1 POP SWAP2 SWAP1 POP JUMP JUMPDEST PUSH1 0xB2 DUP2 PUSH1 0x9B JUMP JUMPDEST DUP3 MSTORE POP POP JUMP JUMPDEST PUSH1 0x0 PUSH1 0x20 DUP3 ADD SWAP1 POP PUSH1 0xCB PUSH1 0x0 DUP4 ADD DUP5 PUSH1 0xAB JUMP JUMPDEST SWAP3 SWAP2 POP POP JUMP INVALID LOG2 PUSH5 0x6970667358 0x22 SLT KECCAK256 PUSH16 0x89A9FC606A174FA28CB7FFEBAB41A011 MOD 0xEB 0x2C SELFBALANCE GASPRICE DUP8 0x2F PUSH25 0x4C5FA33405976E64736F6C6343000812003300000000000000 "
				},
				"gasEstimates": {
					"creation": {
						"codeDepositCost": "52600",
						"executionCost": "105",
						"totalCost": "52705"
					},
					"external": {
						"getOrigin()": "385",
						"getSender()": "363"
					}
				},
				"methodIdentifiers": {
					"getOrigin()": "df1f29ee",
					"getSender()": "5e01eb5a"
				}
			},
			"storageLayout": {
				"storage": [],
				"types": null
			},
			"userdoc": {
				"kind": "user",
				"methods": {},
				"version": 1
			}
		}
	}
}