{
	"data": {
		"bytecode": {
			"linkReferences": {},
			"object": "6080604052607b60005534801561001557600080fd5b50610471806100256000396000f3fe608060405234801561001057600080fd5b50600436106100625760003560e01c806320987767146100675780632b813bc0146100835780632fbebd381461008d5780634e70b1dc146100a957806375f7286c146100c7578063b8bd717f146100e3575b600080fd5b610081600480360381019061007c919061026b565b6100ff565b005b61008b61015a565b005b6100a760048036038101906100a2919061026b565b61016f565b005b6100b1610198565b6040516100be91906102a7565b60405180910390f35b6100e160048036038101906100dc919061026b565b61019e565b005b6100fd60048036038101906100f8919061026b565b6101e9565b005b600181111561015757600281111561015657600a811115610155576040517f08c379a000000000000000000000000000000000000000000000000000000000815260040161014c9061031f565b60405180910390fd5b5b5b50565b607b6000541461016d5761016c61033f565b5b565b6001600080828254610181919061039d565b92505081905550600a811061019557600080fd5b50565b60005481565b600a8111156101e65733816040517fe2399bb80000000000000000000000000000000000000000000000000000000081526004016101dd929190610412565b60405180910390fd5b50565b600a81111561022d576040517f08c379a00000000000000000000000000000000000000000000000000000000081526004016102249061031f565b60405180910390fd5b50565b600080fd5b6000819050919050565b61024881610235565b811461025357600080fd5b50565b6000813590506102658161023f565b92915050565b60006020828403121561028157610280610230565b5b600061028f84828501610256565b91505092915050565b6102a181610235565b82525050565b60006020820190506102bc6000830184610298565b92915050565b600082825260208201905092915050565b7f69203e2031300000000000000000000000000000000000000000000000000000600082015250565b60006103096006836102c2565b9150610314826102d3565b602082019050919050565b60006020820190508181036000830152610338816102fc565b9050919050565b7f4e487b7100000000000000000000000000000000000000000000000000000000600052600160045260246000fd5b7f4e487b7100000000000000000000000000000000000000000000000000000000600052601160045260246000fd5b60006103a882610235565b91506103b383610235565b92508282019050808211156103cb576103ca61036e565b5b92915050565b600073ffffffffffffffffffffffffffffffffffffffff82169050919050565b60006103fc826103d1565b9050919050565b61040c816103f1565b82525050565b60006040820190506104276000830185610403565b6104346020830184610298565b939250505056fea2646970667358221220d87df86b56dd91a223fd21a61c30d354182d43850f9f5500bf8d724db0fd9e4164736f6c63430008130033",
			"opcodes": "PUSH1 0x80 PUSH1 0x40 MSTORE PUSH1 0x7B PUSH1 0x0 SSTORE CALLVALUE DUP1 ISZERO PUSH2 0x15 JUMPI PUSH1 0x0 DUP1 REVERT JUMPDEST POP PUSH2 0x471 DUP1 PUSH2 0x25 PUSH1 0x0 CODECOPY PUSH1 0x0 RETURN INVALID PUSH1 0x80 PUSH1 0x40 MSTORE CALLVALUE DUP1 ISZERO PUSH2 0x10 JUMPI PUSH1 0x0 DUP1 REVERT JUMPDEST POP PUSH1 0x4 CALLDATASIZE LT PUSH2 0x62 JUMPI PUSH1 0x0 CALLDATALOAD PUSH1 0xE0 SHR DUP1 PUSH4 0x20987767 EQ PUSH2 0x67 JUMPI DUP1 PUSH4 0x2B813BC0 EQ PUSH2 0x83 JUMPI DUP1 PUSH4 0x2FBEBD38 EQ PUSH2 0x8D JUMPI DUP1 PUSH4 0x4E70B1DC EQ PUSH2 0xA9 JUMPI DUP1 PUSH4 0x75F7286C EQ PUSH2 0xC7 JUMPI DUP1 PUSH4 0xB8BD717F EQ PUSH2 0xE3 JUMPI JUMPDEST PUSH1 0x0 DUP1 REVERT JUMPDEST PUSH2 0x81 PUSH1 0x4 DUP1 CALLDATASIZE SUB DUP2 ADD SWAP1 PUSH2 0x7C SWAP2 SWAP1 PUSH2 0x26B JUMP JUMPDEST PUSH2 0xFF JUMP JUMPDEST STOP JUMPDEST PUSH2 0x8B PUSH2 0x15A JUMP JUMPDEST STOP JUMPDEST PUSH2 0xA7 PUSH1 0x4 DUP1 CALLDATASIZE SUB DUP2 ADD SWAP1 PUSH2 0xA2 SWAP2 SWAP1 PUSH2 0x26B JUMP JUMPDEST PUSH2 0x16F JUMP JUMPDEST STOP JUMPDEST PUSH2 0xB1 PUSH2 0x198 JUMP JUMPDEST PUSH1 0x40 MLOAD PUSH2 0xBE SWAP2 SWAP1 PUSH2 0x2A7 JUMP JUMPDEST PUSH1 0x40 MLOAD DUP1 SWAP2 SUB SWAP1 RETURN JUMPDEST PUSH2 0xE1 PUSH1 0x4 DUP1 CALLDATASIZE SUB DUP2 ADD SWAP1 PUSH2 0xDC SWAP2 SWAP1 PUSH2 0x26B JUMP JUMPDEST PUSH2 0x19E JUMP JUMPDEST STOP JUMPDEST PUSH2 0xFD PUSH1 0x4 DUP1 CALLDATASIZE SUB DUP2 ADD SWAP1 PUSH2 0xF8 SWAP2 SWAP1 PUSH2 0x26B JUMP JUMPDEST PUSH2 0x1E9 JUMP JUMPDEST STOP JUMPDEST PUSH1 0x1 DUP2 GT ISZERO PUSH2 0x157 JUMPI PUSH1 0x2 DUP2 GT ISZERO PUSH2 0x156 JUMPI PUSH1 0xA DUP2 GT ISZERO PUSH2 0x155 JUMPI PUSH1 0x40 MLOAD PUSH32 0x8C379A000000000000000000000000000000000000000000000000000000000 DUP2 MSTORE PUSH1 0x4 ADD PUSH2 0x14C SWAP1 PUSH2 0x31F JUMP JUMPDEST PUSH1 0x40 MLOAD DUP1 SWAP2 SUB SWAP1 REVERT JUMPDEST JUMPDEST JUMPDEST POP JUMP JUMPDEST PUSH1 0x7B PUSH1 0x0 SLOAD EQ PUSH2 0x16D JUMPI PUSH2 0x16C PUSH2 0x33F JUMP JUMPDEST JUMPDEST JUMP JUMPDEST PUSH1 0x1 PUSH1 0x0 DUP1 DUP3 DUP3 SLOAD PUSH2 0x181 SWAP2 SWAP1 PUSH2 0x39D JUMP JUMPDEST SWAP3 POP POP DUP2 SWAP1 SSTORE POP PUSH1 0xA DUP2 LT PUSH2 0x195 JUMPI PUSH1 0x0 DUP1 REVERT JUMPDEST POP JUMP JUMPDEST PUSH1 0x0 SLOAD DUP2 JUMP JUMPDEST PUSH1 0xA DUP2 GT ISZERO PUSH2 0x1E6 JUMPI CALLER DUP2 PUSH1 0x40 MLOAD PUSH32 0xE2399BB800000000000000000000000000000000000000000000000000000000 DUP2 MSTORE PUSH1 0x4 ADD PUSH2 0x1DD SWAP3 SWAP2 SWAP1 PUSH2 0x412 JUMP JUMPDEST PUSH1 0x40 MLOAD DUP1 SWAP2 SUB SWAP1 REVERT JUMPDEST POP JUMP JUMPDEST PUSH1 0xA DUP2 GT ISZERO PUSH2 0x22D JUMPI PUSH1 0x40 MLOAD PUSH32 0x8C379A000000000000000000000000000000000000000000000000000000000 DUP2 MSTORE PUSH1 0x4 ADD PUSH2 0x224 SWAP1 PUSH2 0x31F JUMP JUMPDEST PUSH1 0x40 MLOAD DUP1 SWAP2 SUB SWAP1 REVERT JUMPDEST POP JUMP JUMPDEST PUSH1 0x0 DUP1 REVERT JUMPDEST PUSH1 0x0 DUP2 SWAP1 POP SWAP2 SWAP1 POP JUMP JUMPDEST PUSH2 0x248 DUP2 PUSH2 0x235 JUMP JUMPDEST DUP2 EQ PUSH2 0x253 JUMPI PUSH1 0x0 DUP1 REVERT JUMPDEST POP JUMP JUMPDEST PUSH1 0x0 DUP2 CALLDATALOAD SWAP1 POP PUSH2 0x265 DUP2 PUSH2 0x23F JUMP JUMPDEST SWAP3 SWAP2 POP POP JUMP JUMPDEST PUSH1 0x0 PUSH1 0x20 DUP3 DUP5 SUB SLT ISZERO PUSH2 0x281 JUMPI PUSH2 0x280 PUSH2 0x230 JUMP JUMPDEST JUMPDEST PUSH1 0x0 PUSH2 0x28F DUP5 DUP3 DUP6 ADD PUSH2 0x256 JUMP JUMPDEST SWAP2 POP POP SWAP3 SWAP2 POP POP JUMP JUMPDEST PUSH2 0x2A1 DUP2 PUSH2 0x235 JUMP JUMPDEST DUP3 MSTORE POP POP JUMP JUMPDEST PUSH1 0x0 PUSH1 0x20 DUP3 ADD SWAP1 POP PUSH2 0x2BC PUSH1 0x0 DUP4 ADD DUP5 PUSH2 0x298 JUMP JUMPDEST SWAP3 SWAP2 POP POP JUMP JUMPDEST PUSH1 0x0 DUP3 DUP3 MSTORE PUSH1 0x20 DUP3 ADD SWAP1 POP SWAP3 SWAP2 POP POP JUMP JUMPDEST PUSH32 0x69203E2031300000000000000000000000000000000000000000000000000000 PUSH1 0x0 DUP3 ADD MSTORE POP JUMP JUMPDEST PUSH1 0x0 PUSH2 0x309 PUSH1 0x6 DUP4 PUSH2 0x2C2 JUMP JUMPDEST SWAP2 POP PUSH2 0x314 DUP3 PUSH2 0x2D3 JUMP JUMPDEST PUSH1 0x20 DUP3 ADD SWAP1 POP SWAP2 SWAP1 POP JUMP JUMPDEST PUSH1 0x0 PUSH1 0x20 DUP3 ADD SWAP1 POP DUP2 DUP2 SUB PUSH1 0x0 DUP4 ADD MSTORE PUSH2 0x338 DUP2 PUSH2 0x2FC JUMP JUMPDEST SWAP1 POP SWAP2 SWAP1 POP JUMP JUMPDEST PUSH32 0x4E487B7100000000000000000000000000000000000000000000000000000000 PUSH1 0x0 MSTORE PUSH1 0x1 PUSH1 0x4 MSTORE PUSH1 0x24 PUSH1 0x0 REVERT JUMPDEST PUSH32 0x4E487B7100000000000000000000000000000000000000000000000000000000 PUSH1 0x0 MSTORE PUSH1 0x11 PUSH1 0x4 MSTORE PUSH1 0x24 PUSH1 0x0 REVERT JUMPDEST PUSH1 0x0 PUSH2 0x3A8 DUP3 PUSH2 0x235 JUMP JUMPDEST SWAP2 POP PUSH2 0x3B3 DUP4 PUSH2 0x235 JUMP JUMPDEST SWAP3 POP DUP3 DUP3 ADD SWAP1 POP DUP1 DUP3 GT ISZERO PUSH2 0x3CB JUMPI PUSH2 0x3CA PUSH2 0x36E JUMP JUMPDEST JUMPDEST SWAP3 SWAP2 POP POP JUMP JUMPDEST PUSH1 0x0 PUSH20 0xFFFFFFFFFFFFFFFFFFFFFFFFFFFFFFFFFFFFFFFF DUP3 AND SWAP1 POP SWAP2 SWAP1 POP JUMP JUMPDEST PUSH1 0x0 PUSH2 0x3FC DUP3 PUSH2 0x3D1 JUMP JUMPDEST SWAP1 POP SWAP2 SWAP1 POP JUMP JUMPDEST PUSH2 0x40C DUP2 PUSH2 0x3F1 JUMP JUMPDEST DUP3 MSTORE POP POP JUMP JUMPDEST PUSH1 0x0 PUSH1 0x40 DUP3 ADD SWAP1 POP PUSH2 0x427 PUSH1 0x0 DUP4 ADD DUP6 PUSH2 0x403 JUMP JUMPDEST PUSH2 0x434 PUSH1 0x20 DUP4 ADD DUP5 PUSH2 0x298 JUMP JUMPDEST SWAP4 SWAP3 POP POP POP JUMP INVALID LOG2 PUSH5 0x6970667358 0x22 SLT KECCAK256 0xD8 PUSH30 0xF86B56DD91A223FD21A61C30D354182D43850F9F5500BF8D724DB0FD9E41 PUSH5 0x736F6C6343 STOP ADDMOD SGT STOP CALLER "
		},
		"gasEstimates": {
			"creation": {
				"codeDepositCost": "227400",
				"executionCost": "22375",
				"totalCost": "249775"
			},
			"external": {
				"foo(uint256)": "infinite",
				"num()": "2473",
				"testAssert()": "2296",
				"testCustomError(uint256)": "infinite",
				"testRequire(uint256)": "807",
				"testRevert(uint256)": "747"
			}
		},
		"methodIdentifiers": {
			"foo(uint256)": "2fbebd38",
			"num()": "4e70b1dc",
			"testAssert()": "2b813bc0",
			"testCustomError(uint256)": "75f7286c",
			"testRequire(uint256)": "b8bd717f",
			"testRevert(uint256)": "20987767"
		}
	},
	"abi": [
		{
			"inputs": [
				{
					"internalType": "address",
					"name": "caller",
					"type": "address"
				},
				{
					"internalType": "uint256",
					"name": "i",
					"type": "uint256"
				}
			],
			"name": "MyError",
			"type": "error"
		},
		{
			"inputs": [
				{
					"internalType": "uint256",
					"name": "_i",
					"type": "uint256"
				}
			],
			"name": "foo",
			"outputs": [],
			"stateMutability": "nonpayable",
			"type": "function"
		},
		{
			"inputs": [],
			"name": "num",
			"outputs": [
				{
					"internalType": "uint256",
					"name": "",
					"type": "uint256"
				}
			],
			"stateMutability": "view",
			"type": "function"
		},
		{
			"inputs": [],
			"name": "testAssert",
			"outputs": [],
			"stateMutability": "view",
			"type": "function"
		},
		{
			"inputs": [
				{
					"internalType": "uint256",
					"name": "_i",
					"type": "uint256"
				}
			],
			"name": "testCustomError",
			"outputs": [],
			"stateMutability": "view",
			"type": "function"
		},
		{
			"inputs": [
				{
					"internalType": "uint256",
					"name": "_i",
					"type": "uint256"
				}
			],
			"name": "testRequire",
			"outputs": [],
			"stateMutability": "pure",
			"type": "function"
		},
		{
			"inputs": [
				{
					"internalType": "uint256",
					"name": "_i",
					"type": "uint256"
				}
			],
			"name": "testRevert",
			"outputs": [],
			"stateMutability": "pure",
			"type": "function"
		}
	]
}