{
  "abi": [
    {
      "inputs": [
        {
          "internalType": "address",
          "name": "tokenA",
          "type": "address"
        },
        {
          "internalType": "address",
          "name": "tokenB",
          "type": "address"
        }
      ],
      "stateMutability": "nonpayable",
      "type": "constructor"
    },
    {
      "anonymous": false,
      "inputs": [
        {
          "indexed": true,
          "internalType": "address",
          "name": "sender",
          "type": "address"
        },
        {
          "indexed": false,
          "internalType": "uint256",
          "name": "amountA",
          "type": "uint256"
        },
        {
          "indexed": false,
          "internalType": "uint256",
          "name": "amountB",
          "type": "uint256"
        },
        {
          "indexed": false,
          "internalType": "uint256",
          "name": "liquidity",
          "type": "uint256"
        }
      ],
      "name": "AddLiquidity",
      "type": "event"
    },
    {
      "anonymous": false,
      "inputs": [
        {
          "indexed": true,
          "internalType": "address",
          "name": "owner",
          "type": "address"
        },
        {
          "indexed": true,
          "internalType": "address",
          "name": "spender",
          "type": "address"
        },
        {
          "indexed": false,
          "internalType": "uint256",
          "name": "value",
          "type": "uint256"
        }
      ],
      "name": "Approval",
      "type": "event"
    },
    {
      "anonymous": false,
      "inputs": [
        {
          "indexed": true,
          "internalType": "address",
          "name": "sender",
          "type": "address"
        },
        {
          "indexed": false,
          "internalType": "uint256",
          "name": "amountA",
          "type": "uint256"
        },
        {
          "indexed": false,
          "internalType": "uint256",
          "name": "amountB",
          "type": "uint256"
        },
        {
          "indexed": false,
          "internalType": "uint256",
          "name": "liquidity",
          "type": "uint256"
        }
      ],
      "name": "RemoveLiquidity",
      "type": "event"
    },
    {
      "anonymous": false,
      "inputs": [
        {
          "indexed": true,
          "internalType": "address",
          "name": "sender",
          "type": "address"
        },
        {
          "indexed": true,
          "internalType": "address",
          "name": "tokenIn",
          "type": "address"
        },
        {
          "indexed": true,
          "internalType": "address",
          "name": "tokenOut",
          "type": "address"
        },
        {
          "indexed": false,
          "internalType": "uint256",
          "name": "amountIn",
          "type": "uint256"
        },
        {
          "indexed": false,
          "internalType": "uint256",
          "name": "amountOut",
          "type": "uint256"
        }
      ],
      "name": "Swap",
      "type": "event"
    },
    {
      "anonymous": false,
      "inputs": [
        {
          "indexed": true,
          "internalType": "address",
          "name": "from",
          "type": "address"
        },
        {
          "indexed": true,
          "internalType": "address",
          "name": "to",
          "type": "address"
        },
        {
          "indexed": false,
          "internalType": "uint256",
          "name": "value",
          "type": "uint256"
        }
      ],
      "name": "Transfer",
      "type": "event"
    },
    {
      "inputs": [
        {
          "internalType": "uint256",
          "name": "amountAIn",
          "type": "uint256"
        },
        {
          "internalType": "uint256",
          "name": "amountBIn",
          "type": "uint256"
        }
      ],
      "name": "addLiquidity",
      "outputs": [
        {
          "internalType": "uint256",
          "name": "amountA",
          "type": "uint256"
        },
        {
          "internalType": "uint256",
          "name": "amountB",
          "type": "uint256"
        },
        {
          "internalType": "uint256",
          "name": "liquidity",
          "type": "uint256"
        }
      ],
      "stateMutability": "nonpayable",
      "type": "function"
    },
    {
      "inputs": [
        {
          "internalType": "address",
          "name": "owner",
          "type": "address"
        },
        {
          "internalType": "address",
          "name": "spender",
          "type": "address"
        }
      ],
      "name": "allowance",
      "outputs": [
        {
          "internalType": "uint256",
          "name": "",
          "type": "uint256"
        }
      ],
      "stateMutability": "view",
      "type": "function"
    },
    {
      "inputs": [
        {
          "internalType": "address",
          "name": "spender",
          "type": "address"
        },
        {
          "internalType": "uint256",
          "name": "amount",
          "type": "uint256"
        }
      ],
      "name": "approve",
      "outputs": [
        {
          "internalType": "bool",
          "name": "",
          "type": "bool"
        }
      ],
      "stateMutability": "nonpayable",
      "type": "function"
    },
    {
      "inputs": [
        {
          "internalType": "address",
          "name": "account",
          "type": "address"
        }
      ],
      "name": "balanceOf",
      "outputs": [
        {
          "internalType": "uint256",
          "name": "",
          "type": "uint256"
        }
      ],
      "stateMutability": "view",
      "type": "function"
    },
    {
      "inputs": [],
      "name": "decimals",
      "outputs": [
        {
          "internalType": "uint8",
          "name": "",
          "type": "uint8"
        }
      ],
      "stateMutability": "view",
      "type": "function"
    },
    {
      "inputs": [
        {
          "internalType": "address",
          "name": "spender",
          "type": "address"
        },
        {
          "internalType": "uint256",
          "name": "subtractedValue",
          "type": "uint256"
        }
      ],
      "name": "decreaseAllowance",
      "outputs": [
        {
          "internalType": "bool",
          "name": "",
          "type": "bool"
        }
      ],
      "stateMutability": "nonpayable",
      "type": "function"
    },
    {
      "inputs": [],
      "name": "getReserves",
      "outputs": [
        {
          "internalType": "uint256",
          "name": "reserveA",
          "type": "uint256"
        },
        {
          "internalType": "uint256",
          "name": "reserveB",
          "type": "uint256"
        }
      ],
      "stateMutability": "view",
      "type": "function"
    },
    {
      "inputs": [],
      "name": "getTokenA",
      "outputs": [
        {
          "internalType": "address",
          "name": "tokenA",
          "type": "address"
        }
      ],
      "stateMutability": "view",
      "type": "function"
    },
    {
      "inputs": [],
      "name": "getTokenB",
      "outputs": [
        {
          "internalType": "address",
          "name": "tokenB",
          "type": "address"
        }
      ],
      "stateMutability": "view",
      "type": "function"
    },
    {
      "inputs": [
        {
          "internalType": "address",
          "name": "spender",
          "type": "address"
        },
        {
          "internalType": "uint256",
          "name": "addedValue",
          "type": "uint256"
        }
      ],
      "name": "increaseAllowance",
      "outputs": [
        {
          "internalType": "bool",
          "name": "",
          "type": "bool"
        }
      ],
      "stateMutability": "nonpayable",
      "type": "function"
    },
    {
      "inputs": [
        {
          "internalType": "address",
          "name": "_addr",
          "type": "address"
        }
      ],
      "name": "isContract",
      "outputs": [
        {
          "internalType": "bool",
          "name": "",
          "type": "bool"
        }
      ],
      "stateMutability": "view",
      "type": "function"
    },
    {
      "inputs": [],
      "name": "name",
      "outputs": [
        {
          "internalType": "string",
          "name": "",
          "type": "string"
        }
      ],
      "stateMutability": "view",
      "type": "function"
    },
    {
      "inputs": [],
      "name": "price0CumulativeLast",
      "outputs": [
        {
          "internalType": "uint256",
          "name": "",
          "type": "uint256"
        }
      ],
      "stateMutability": "view",
      "type": "function"
    },
    {
      "inputs": [],
      "name": "price1CumulativeLast",
      "outputs": [
        {
          "internalType": "uint256",
          "name": "",
          "type": "uint256"
        }
      ],
      "stateMutability": "view",
      "type": "function"
    },
    {
      "inputs": [
        {
          "internalType": "uint256",
          "name": "liquidity",
          "type": "uint256"
        }
      ],
      "name": "removeLiquidity",
      "outputs": [
        {
          "internalType": "uint256",
          "name": "amountA",
          "type": "uint256"
        },
        {
          "internalType": "uint256",
          "name": "amountB",
          "type": "uint256"
        }
      ],
      "stateMutability": "nonpayable",
      "type": "function"
    },
    {
      "inputs": [
        {
          "internalType": "address",
          "name": "tokenIn",
          "type": "address"
        },
        {
          "internalType": "address",
          "name": "tokenOut",
          "type": "address"
        },
        {
          "internalType": "uint256",
          "name": "amountIn",
          "type": "uint256"
        }
      ],
      "name": "swap",
      "outputs": [
        {
          "internalType": "uint256",
          "name": "amountOut",
          "type": "uint256"
        }
      ],
      "stateMutability": "nonpayable",
      "type": "function"
    },
    {
      "inputs": [],
      "name": "symbol",
      "outputs": [
        {
          "internalType": "string",
          "name": "",
          "type": "string"
        }
      ],
      "stateMutability": "view",
      "type": "function"
    },
    {
      "inputs": [],
      "name": "token0",
      "outputs": [
        {
          "internalType": "address",
          "name": "",
          "type": "address"
        }
      ],
      "stateMutability": "view",
      "type": "function"
    },
    {
      "inputs": [],
      "name": "token1",
      "outputs": [
        {
          "internalType": "address",
          "name": "",
          "type": "address"
        }
      ],
      "stateMutability": "view",
      "type": "function"
    },
    {
      "inputs": [],
      "name": "totalSupply",
      "outputs": [
        {
          "internalType": "uint256",
          "name": "",
          "type": "uint256"
        }
      ],
      "stateMutability": "view",
      "type": "function"
    },
    {
      "inputs": [
        {
          "internalType": "address",
          "name": "to",
          "type": "address"
        },
        {
          "internalType": "uint256",
          "name": "amount",
          "type": "uint256"
        }
      ],
      "name": "transfer",
      "outputs": [
        {
          "internalType": "bool",
          "name": "",
          "type": "bool"
        }
      ],
      "stateMutability": "nonpayable",
      "type": "function"
    },
    {
      "inputs": [
        {
          "internalType": "address",
          "name": "from",
          "type": "address"
        },
        {
          "internalType": "address",
          "name": "to",
          "type": "address"
        },
        {
          "internalType": "uint256",
          "name": "amount",
          "type": "uint256"
        }
      ],
      "name": "transferFrom",
      "outputs": [
        {
          "internalType": "bool",
          "name": "",
          "type": "bool"
        }
      ],
      "stateMutability": "nonpayable",
      "type": "function"
    }
  ],
  "bytecode": {
    "object": "0x60806040523480156200001157600080fd5b5060405162001f3a38038062001f3a83398101604081905262000034916200025a565b604080518082018252600a80825269053696d706c65537761760b41b602080840182905284518086019095529184529083015290600362000076838262000337565b50600462000085828262000337565b50505062000099826200022e60201b60201c565b620000f65760405162461bcd60e51b815260206004820152602260248201527f53696d706c65537761703a20544f4b454e415f49535f4e4f545f434f4e54524160448201526110d560f21b60648201526084015b60405180910390fd5b6001600160a01b0381163b6200015a5760405162461bcd60e51b815260206004820152602260248201527f53696d706c65537761703a20544f4b454e425f49535f4e4f545f434f4e54524160448201526110d560f21b6064820152608401620000ed565b806001600160a01b0316826001600160a01b031603620001d15760405162461bcd60e51b815260206004820152602b60248201527f53696d706c65537761703a20544f4b454e415f544f4b454e425f4944454e544960448201526a43414c5f4144445245535360a81b6064820152608401620000ed565b806001600160a01b0316826001600160a01b031610620001f3578082620001f6565b81815b600680546001600160a01b039283166001600160a01b0319918216179091556005805493909216921691909117905550620004039050565b6001600160a01b03163b151590565b80516001600160a01b03811681146200025557600080fd5b919050565b600080604083850312156200026e57600080fd5b62000279836200023d565b915062000289602084016200023d565b90509250929050565b634e487b7160e01b600052604160045260246000fd5b600181811c90821680620002bd57607f821691505b602082108103620002de57634e487b7160e01b600052602260045260246000fd5b50919050565b601f8211156200033257600081815260208120601f850160051c810160208610156200030d5750805b601f850160051c820191505b818110156200032e5782815560010162000319565b5050505b505050565b81516001600160401b0381111562000353576200035362000292565b6200036b81620003648454620002a8565b84620002e4565b602080601f831160018114620003a357600084156200038a5750858301515b600019600386901b1c1916600185901b1785556200032e565b600085815260208120601f198616915b82811015620003d457888601518255948401946001909101908401620003b3565b5085821015620003f35787850151600019600388901b60f8161c191681555b5050505050600190811b01905550565b611b2780620004136000396000f3fe608060405234801561001057600080fd5b50600436106101425760003560e01c80635a3d5493116100b8578063a457c2d71161007c578063a457c2d7146102d9578063a9059cbb146102ec578063ae0ba2fb146102ff578063d21220a714610310578063dd62ed3e14610323578063df791e501461033657600080fd5b80635a3d54931461025e57806370a082311461026757806395d89b41146102905780639c8f9f23146102985780639cd441da146102ab57600080fd5b8063162790551161010a57806316279055146101f157806318160ddd1461020e57806323b872dd14610220578063313ce5671461023357806339509351146102425780635909c0d51461025557600080fd5b806306fdde03146101475780630902f1ac14610165578063095ea7b3146101925780630dfe1681146101b55780630f0148ea146101e0575b600080fd5b61014f610349565b60405161015c919061181a565b60405180910390f35b6007546001600160701b0380821691600160701b9004165b6040805192835260208301919091520161015c565b6101a56101a036600461187f565b6103db565b604051901515815260200161015c565b6005546101c8906001600160a01b031681565b6040516001600160a01b03909116815260200161015c565b6006546001600160a01b03166101c8565b6101a56101ff3660046118a9565b6001600160a01b03163b151590565b6002545b60405190815260200161015c565b6101a561022e3660046118c4565b6103f5565b6040516012815260200161015c565b6101a561025036600461187f565b610419565b61021260085481565b61021260095481565b6102126102753660046118a9565b6001600160a01b031660009081526020819052604090205490565b61014f61043b565b61017d6102a6366004611900565b61044a565b6102be6102b9366004611919565b6108a0565b6040805193845260208401929092529082015260600161015c565b6101a56102e736600461187f565b610d00565b6101a56102fa36600461187f565b610d7b565b6005546001600160a01b03166101c8565b6006546101c8906001600160a01b031681565b61021261033136600461193b565b610d89565b6102126103443660046118c4565b610db4565b6060600380546103589061196e565b80601f01602080910402602001604051908101604052809291908181526020018280546103849061196e565b80156103d15780601f106103a6576101008083540402835291602001916103d1565b820191906000526020600020905b8154815290600101906020018083116103b457829003601f168201915b5050505050905090565b6000336103e981858561118f565b60019150505b92915050565b6000336104038582856112b4565b61040e85858561132e565b506001949350505050565b6000336103e981858561042c8383610d89565b61043691906119b8565b61118f565b6060600480546103589061196e565b600080600083116104b45760405162461bcd60e51b815260206004820152602960248201527f53696d706c65537761703a20494e53554646494349454e545f4c495155494449604482015268151657d0955493915160ba1b60648201526084015b60405180910390fd5b6040516323b872dd60e01b815230906323b872dd906104db903390849088906004016119cb565b6020604051808303816000875af11580156104fa573d6000803e3d6000fd5b505050506040513d601f19601f8201168201806040525081019061051e91906119ef565b506005546040516370a0823160e01b81523060048201526000916001600160a01b0316906370a0823190602401602060405180830381865afa158015610568573d6000803e3d6000fd5b505050506040513d601f19601f8201168201806040525081019061058c9190611a11565b6006546040516370a0823160e01b81523060048201529192506000916001600160a01b03909116906370a0823190602401602060405180830381865afa1580156105da573d6000803e3d6000fd5b505050506040513d601f19601f820116820180604052508101906105fe9190611a11565b9050600061060b60025490565b90508061061887856114c0565b6106229190611a2a565b94508061062f87846114c0565b6106399190611a2a565b935060008511801561064b5750600084115b6106975760405162461bcd60e51b815260206004820152601d60248201527f494e53554646494349454e545f4c49515549444954595f4255524e454400000060448201526064016104ab565b6106a13087611527565b60055460405163a9059cbb60e01b8152336004820152602481018790526001600160a01b039091169063a9059cbb906044016020604051808303816000875af11580156106f2573d6000803e3d6000fd5b505050506040513d601f19601f8201168201806040525081019061071691906119ef565b5060065460405163a9059cbb60e01b8152336004820152602481018690526001600160a01b039091169063a9059cbb906044016020604051808303816000875af1158015610768573d6000803e3d6000fd5b505050506040513d601f19601f8201168201806040525081019061078c91906119ef565b506005546040516370a0823160e01b81523060048201526001600160a01b03909116906370a0823190602401602060405180830381865afa1580156107d5573d6000803e3d6000fd5b505050506040513d601f19601f820116820180604052508101906107f99190611a11565b6006546040516370a0823160e01b81523060048201529194506001600160a01b0316906370a0823190602401602060405180830381865afa158015610842573d6000803e3d6000fd5b505050506040513d601f19601f820116820180604052508101906108669190611a11565b9150610872838361163f565b6040518681526000903090600080516020611ad28339815191529060200160405180910390a3505050915091565b60008060008085116108c45760405162461bcd60e51b81526004016104ab90611a4c565b600084116108e45760405162461bcd60e51b81526004016104ab90611a4c565b6007546001600160701b031615801561090d5750600754600160701b90046001600160701b0316155b1561091d57849250839150610994565b6007546000906109429087906001600160701b0380821691600160701b900416611670565b905084811161095657859350915081610992565b60075460009061097a9087906001600160701b03600160701b820481169116611670565b90508681111561098c5761098c611a91565b93508492505b505b6005546040516323b872dd60e01b81526001600160a01b03909116906323b872dd906109c8903390309088906004016119cb565b6020604051808303816000875af11580156109e7573d6000803e3d6000fd5b505050506040513d601f19601f82011682018060405250810190610a0b91906119ef565b506006546040516323b872dd60e01b81526001600160a01b03909116906323b872dd90610a40903390309087906004016119cb565b6020604051808303816000875af1158015610a5f573d6000803e3d6000fd5b505050506040513d601f19601f82011682018060405250810190610a8391906119ef565b506005546040516370a0823160e01b81523060048201526000916001600160a01b0316906370a0823190602401602060405180830381865afa158015610acd573d6000803e3d6000fd5b505050506040513d601f19601f82011682018060405250810190610af19190611a11565b6006546040516370a0823160e01b81523060048201529192506000916001600160a01b03909116906370a0823190602401602060405180830381865afa158015610b3f573d6000803e3d6000fd5b505050506040513d601f19601f82011682018060405250810190610b639190611a11565b600754909150600090610b809084906001600160701b031661168f565b600754909150600090610ba4908490600160701b90046001600160701b031661168f565b90506000610bb160025490565b905080600003610bd457610bcd610bc884846114c0565b6116e5565b9550610c27565b600754610c24906001600160701b0316610bee85846114c0565b610bf89190611a2a565b600754600160701b90046001600160701b0316610c1585856114c0565b610c1f9190611a2a565b611755565b95505b60008611610c775760405162461bcd60e51b815260206004820152601d60248201527f494e53554646494349454e545f4c49515549444954595f4d494e54454400000060448201526064016104ab565b610c81338761176d565b610c8b858561163f565b6040518681523390600090600080516020611ad28339815191529060200160405180910390a3604080518481526020810184905290810187905233907fbeb3885786d637a474cbc287c0a44587231633a077f0bd30354d5a4b18996fce9060600160405180910390a250505050509250925092565b60003381610d0e8286610d89565b905083811015610d6e5760405162461bcd60e51b815260206004820152602560248201527f45524332303a2064656372656173656420616c6c6f77616e63652062656c6f77604482015264207a65726f60d81b60648201526084016104ab565b61040e828686840361118f565b6000336103e981858561132e565b6001600160a01b03918216600090815260016020908152604080832093909416825291909152205490565b6005546000906001600160a01b0385811691161480610de057506006546001600160a01b038581169116145b610e2c5760405162461bcd60e51b815260206004820152601c60248201527f53696d706c65537761703a20494e56414c49445f544f4b454e5f494e0000000060448201526064016104ab565b6005546001600160a01b0384811691161480610e5557506006546001600160a01b038481169116145b610ea15760405162461bcd60e51b815260206004820152601d60248201527f53696d706c65537761703a20494e56414c49445f544f4b454e5f4f555400000060448201526064016104ab565b826001600160a01b0316846001600160a01b031603610f025760405162461bcd60e51b815260206004820152601d60248201527f53696d706c65537761703a204944454e544943414c5f4144445245535300000060448201526064016104ab565b60008211610f225760405162461bcd60e51b81526004016104ab90611a4c565b600754610f399083906001600160701b03166119b8565b600754610f5690600160701b90046001600160701b031684611aa7565b610f609190611a2a565b90508015610fdd576040516323b872dd60e01b81526001600160a01b038516906323b872dd90610f98903390309087906004016119cb565b6020604051808303816000875af1158015610fb7573d6000803e3d6000fd5b505050506040513d601f19601f82011682018060405250810190610fdb91906119ef565b505b80156110565760405163a9059cbb60e01b8152336004820152602481018290526001600160a01b0384169063a9059cbb906044016020604051808303816000875af1158015611030573d6000803e3d6000fd5b505050506040513d601f19601f8201168201806040525081019061105491906119ef565b505b6040516370a0823160e01b81523060048201526000906001600160a01b038616906370a0823190602401602060405180830381865afa15801561109d573d6000803e3d6000fd5b505050506040513d601f19601f820116820180604052508101906110c19190611a11565b6040516370a0823160e01b81523060048201529091506000906001600160a01b038616906370a0823190602401602060405180830381865afa15801561110b573d6000803e3d6000fd5b505050506040513d601f19601f8201168201806040525081019061112f9190611a11565b905061113b828261163f565b60408051858152602081018590526001600160a01b03808816929089169133917fcd3829a3813dc3cdd188fd3d01dcf3268c16be2fdd2dd21d0665418816e46062910160405180910390a450509392505050565b6001600160a01b0383166111f15760405162461bcd60e51b8152602060048201526024808201527f45524332303a20617070726f76652066726f6d20746865207a65726f206164646044820152637265737360e01b60648201526084016104ab565b6001600160a01b0382166112525760405162461bcd60e51b815260206004820152602260248201527f45524332303a20617070726f766520746f20746865207a65726f206164647265604482015261737360f01b60648201526084016104ab565b6001600160a01b0383811660008181526001602090815260408083209487168084529482529182902085905590518481527f8c5be1e5ebec7d5bd14f71427d1e84f3dd0314c0f7b2291e5b200ac8c7c3b92591015b60405180910390a3505050565b60006112c08484610d89565b90506000198114611328578181101561131b5760405162461bcd60e51b815260206004820152601d60248201527f45524332303a20696e73756666696369656e7420616c6c6f77616e636500000060448201526064016104ab565b611328848484840361118f565b50505050565b6001600160a01b0383166113925760405162461bcd60e51b815260206004820152602560248201527f45524332303a207472616e736665722066726f6d20746865207a65726f206164604482015264647265737360d81b60648201526084016104ab565b6001600160a01b0382166113f45760405162461bcd60e51b815260206004820152602360248201527f45524332303a207472616e7366657220746f20746865207a65726f206164647260448201526265737360e81b60648201526084016104ab565b6001600160a01b0383166000908152602081905260409020548181101561146c5760405162461bcd60e51b815260206004820152602660248201527f45524332303a207472616e7366657220616d6f756e7420657863656564732062604482015265616c616e636560d01b60648201526084016104ab565b6001600160a01b0384811660008181526020818152604080832087870390559387168083529184902080548701905592518581529092600080516020611ad2833981519152910160405180910390a3611328565b60008115806114e4575082826114d68183611aa7565b92506114e29083611a2a565b145b6103ef5760405162461bcd60e51b815260206004820152601460248201527364732d6d6174682d6d756c2d6f766572666c6f7760601b60448201526064016104ab565b6001600160a01b0382166115875760405162461bcd60e51b815260206004820152602160248201527f45524332303a206275726e2066726f6d20746865207a65726f206164647265736044820152607360f81b60648201526084016104ab565b6001600160a01b038216600090815260208190526040902054818110156115fb5760405162461bcd60e51b815260206004820152602260248201527f45524332303a206275726e20616d6f756e7420657863656564732062616c616e604482015261636560f01b60648201526084016104ab565b6001600160a01b038316600081815260208181526040808320868603905560028054879003905551858152919291600080516020611ad283398151915291016112a7565b600780546001600160701b03928316600160701b026001600160e01b03199091169290931691909117919091179055565b60008261167d85846114c0565b6116879190611a2a565b949350505050565b60008261169c8382611abe565b91508111156103ef5760405162461bcd60e51b815260206004820152601560248201527464732d6d6174682d7375622d756e646572666c6f7760581b60448201526064016104ab565b6000600382111561174657508060006116ff600283611a2a565b61170a9060016119b8565b90505b81811015611740579050806002816117258186611a2a565b61172f91906119b8565b6117399190611a2a565b905061170d565b50919050565b8115611750575060015b919050565b60008183106117645781611766565b825b9392505050565b6001600160a01b0382166117c35760405162461bcd60e51b815260206004820152601f60248201527f45524332303a206d696e7420746f20746865207a65726f20616464726573730060448201526064016104ab565b80600260008282546117d591906119b8565b90915550506001600160a01b03821660008181526020818152604080832080548601905551848152600080516020611ad2833981519152910160405180910390a35050565b600060208083528351808285015260005b818110156118475785810183015185820160400152820161182b565b506000604082860101526040601f19601f8301168501019250505092915050565b80356001600160a01b038116811461175057600080fd5b6000806040838503121561189257600080fd5b61189b83611868565b946020939093013593505050565b6000602082840312156118bb57600080fd5b61176682611868565b6000806000606084860312156118d957600080fd5b6118e284611868565b92506118f060208501611868565b9150604084013590509250925092565b60006020828403121561191257600080fd5b5035919050565b6000806040838503121561192c57600080fd5b50508035926020909101359150565b6000806040838503121561194e57600080fd5b61195783611868565b915061196560208401611868565b90509250929050565b600181811c9082168061198257607f821691505b60208210810361174057634e487b7160e01b600052602260045260246000fd5b634e487b7160e01b600052601160045260246000fd5b808201808211156103ef576103ef6119a2565b6001600160a01b039384168152919092166020820152604081019190915260600190565b600060208284031215611a0157600080fd5b8151801515811461176657600080fd5b600060208284031215611a2357600080fd5b5051919050565b600082611a4757634e487b7160e01b600052601260045260246000fd5b500490565b60208082526025908201527f53696d706c65537761703a20494e53554646494349454e545f494e5055545f416040820152641353d5539560da1b606082015260800190565b634e487b7160e01b600052600160045260246000fd5b80820281158282048414176103ef576103ef6119a2565b818103818111156103ef576103ef6119a256feddf252ad1be2c89b69c2b068fc378daa952ba7f163c4a11628f55a4df523b3efa26469706673582212206f812db54cce848bd1f4b9a92b1a0e29ef557a4cb5f86d31c7b3f288e23d9aa964736f6c63430008110033",
    "linkReferences": {}
  },
  "methodIdentifiers": {
    "addLiquidity(uint256,uint256)": "9cd441da",
    "allowance(address,address)": "dd62ed3e",
    "approve(address,uint256)": "095ea7b3",
    "balanceOf(address)": "70a08231",
    "decimals()": "313ce567",
    "decreaseAllowance(address,uint256)": "a457c2d7",
    "getReserves()": "0902f1ac",
    "getTokenA()": "ae0ba2fb",
    "getTokenB()": "0f0148ea",
    "increaseAllowance(address,uint256)": "39509351",
    "isContract(address)": "16279055",
    "name()": "06fdde03",
    "price0CumulativeLast()": "5909c0d5",
    "price1CumulativeLast()": "5a3d5493",
    "removeLiquidity(uint256)": "9c8f9f23",
    "swap(address,address,uint256)": "df791e50",
    "symbol()": "95d89b41",
    "token0()": "0dfe1681",
    "token1()": "d21220a7",
    "totalSupply()": "18160ddd",
    "transfer(address,uint256)": "a9059cbb",
    "transferFrom(address,address,uint256)": "23b872dd"
  },
  "id": 0
}