{
	"data": {
		"bytecode": {
			"linkReferences": {},
			"object": "608060405234801561001057600080fd5b50610b15806100206000396000f3fe608060405234801561001057600080fd5b50600436106100625760003560e01c806373d4a13a14610067578063972fdc6014610085578063c1f926ee146100a1578063e3a7fd75146100bd578063f9fbd554146100db578063fc26b0ab146100f7575b600080fd5b61006f610115565b60405161007c91906103a8565b60405180910390f35b61009f600480360381019061009a9190610513565b6101a3565b005b6100bb60048036038101906100b691906105bc565b6101b6565b005b6100c56101cc565b6040516100d291906103a8565b60405180910390f35b6100f560048036038101906100f09190610513565b61025a565b005b6100ff610277565b60405161010c91906103a8565b60405180910390f35b6000805461012290610638565b80601f016020809104026020016040519081016040528092919081815260200182805461014e90610638565b801561019b5780601f106101705761010080835404028352916020019161019b565b820191906000526020600020905b81548152906001019060200180831161017e57829003601f168201915b505050505081565b80600190816101b2919061081f565b5050565b8181600291826101c79291906108fc565b505050565b600180546101d990610638565b80601f016020809104026020016040519081016040528092919081815260200182805461020590610638565b80156102525780601f1061022757610100808354040283529160200191610252565b820191906000526020600020905b81548152906001019060200180831161023557829003601f168201915b505050505081565b8060009081610269919061081f565b506102746000610305565b50565b6002805461028490610638565b80601f01602080910402602001604051908101604052809291908181526020018280546102b090610638565b80156102fd5780601f106102d2576101008083540402835291602001916102fd565b820191906000526020600020905b8154815290600101906020018083116102e057829003601f168201915b505050505081565b806000908161031491906109f7565b5050565b600081519050919050565b600082825260208201905092915050565b60005b83811015610352578082015181840152602081019050610337565b60008484015250505050565b6000601f19601f8301169050919050565b600061037a82610318565b6103848185610323565b9350610394818560208601610334565b61039d8161035e565b840191505092915050565b600060208201905081810360008301526103c2818461036f565b905092915050565b6000604051905090565b600080fd5b600080fd5b600080fd5b600080fd5b7f4e487b7100000000000000000000000000000000000000000000000000000000600052604160045260246000fd5b6104208261035e565b810181811067ffffffffffffffff8211171561043f5761043e6103e8565b5b80604052505050565b60006104526103ca565b905061045e8282610417565b919050565b600067ffffffffffffffff82111561047e5761047d6103e8565b5b6104878261035e565b9050602081019050919050565b82818337600083830152505050565b60006104b66104b184610463565b610448565b9050828152602081018484840111156104d2576104d16103e3565b5b6104dd848285610494565b509392505050565b600082601f8301126104fa576104f96103de565b5b813561050a8482602086016104a3565b91505092915050565b600060208284031215610529576105286103d4565b5b600082013567ffffffffffffffff811115610547576105466103d9565b5b610553848285016104e5565b91505092915050565b600080fd5b600080fd5b60008083601f84011261057c5761057b6103de565b5b8235905067ffffffffffffffff8111156105995761059861055c565b5b6020830191508360018202830111156105b5576105b4610561565b5b9250929050565b600080602083850312156105d3576105d26103d4565b5b600083013567ffffffffffffffff8111156105f1576105f06103d9565b5b6105fd85828601610566565b92509250509250929050565b7f4e487b7100000000000000000000000000000000000000000000000000000000600052602260045260246000fd5b6000600282049050600182168061065057607f821691505b60208210810361066357610662610609565b5b50919050565b60008190508160005260206000209050919050565b60006020601f8301049050919050565b600082821b905092915050565b6000600883026106cb7fffffffffffffffffffffffffffffffffffffffffffffffffffffffffffffffff8261068e565b6106d5868361068e565b95508019841693508086168417925050509392505050565b6000819050919050565b6000819050919050565b600061071c610717610712846106ed565b6106f7565b6106ed565b9050919050565b6000819050919050565b61073683610701565b61074a61074282610723565b84845461069b565b825550505050565b600090565b61075f610752565b61076a81848461072d565b505050565b5b8181101561078e57610783600082610757565b600181019050610770565b5050565b601f8211156107d3576107a481610669565b6107ad8461067e565b810160208510156107bc578190505b6107d06107c88561067e565b83018261076f565b50505b505050565b600082821c905092915050565b60006107f6600019846008026107d8565b1980831691505092915050565b600061080f83836107e5565b9150826002028217905092915050565b61082882610318565b67ffffffffffffffff811115610841576108406103e8565b5b61084b8254610638565b610856828285610792565b600060209050601f8311600181146108895760008415610877578287015190505b6108818582610803565b8655506108e9565b601f19841661089786610669565b60005b828110156108bf5784890151825560018201915060208501945060208101905061089a565b868310156108dc57848901516108d8601f8916826107e5565b8355505b6001600288020188555050505b505050505050565b600082905092915050565b61090683836108f1565b67ffffffffffffffff81111561091f5761091e6103e8565b5b6109298254610638565b610934828285610792565b6000601f8311600181146109635760008415610951578287013590505b61095b8582610803565b8655506109c3565b601f19841661097186610669565b60005b8281101561099957848901358255600182019150602085019450602081019050610974565b868310156109b657848901356109b2601f8916826107e5565b8355505b6001600288020188555050505b50505050505050565b6000815490506109db81610638565b9050919050565b60008190508160005260206000209050919050565b818103610a05575050610add565b610a0e826109cc565b67ffffffffffffffff811115610a2757610a266103e8565b5b610a318254610638565b610a3c828285610792565b6000601f831160018114610a6b5760008415610a59578287015490505b610a638582610803565b865550610ad6565b601f198416610a79876109e2565b9650610a8486610669565b60005b82811015610aac57848901548255600182019150600185019450602081019050610a87565b86831015610ac95784890154610ac5601f8916826107e5565b8355505b6001600288020188555050505b5050505050505b56fea2646970667358221220ce8f8c1a86716264127349813dc8899cda824badf21858d9ae9f3d545931fcbd64736f6c63430008130033",
			"opcodes": "PUSH1 0x80 PUSH1 0x40 MSTORE CALLVALUE DUP1 ISZERO PUSH2 0x10 JUMPI PUSH1 0x0 DUP1 REVERT JUMPDEST POP PUSH2 0xB15 DUP1 PUSH2 0x20 PUSH1 0x0 CODECOPY PUSH1 0x0 RETURN INVALID PUSH1 0x80 PUSH1 0x40 MSTORE CALLVALUE DUP1 ISZERO PUSH2 0x10 JUMPI PUSH1 0x0 DUP1 REVERT JUMPDEST POP PUSH1 0x4 CALLDATASIZE LT PUSH2 0x62 JUMPI PUSH1 0x0 CALLDATALOAD PUSH1 0xE0 SHR DUP1 PUSH4 0x73D4A13A EQ PUSH2 0x67 JUMPI DUP1 PUSH4 0x972FDC60 EQ PUSH2 0x85 JUMPI DUP1 PUSH4 0xC1F926EE EQ PUSH2 0xA1 JUMPI DUP1 PUSH4 0xE3A7FD75 EQ PUSH2 0xBD JUMPI DUP1 PUSH4 0xF9FBD554 EQ PUSH2 0xDB JUMPI DUP1 PUSH4 0xFC26B0AB EQ PUSH2 0xF7 JUMPI JUMPDEST PUSH1 0x0 DUP1 REVERT JUMPDEST PUSH2 0x6F PUSH2 0x115 JUMP JUMPDEST PUSH1 0x40 MLOAD PUSH2 0x7C SWAP2 SWAP1 PUSH2 0x3A8 JUMP JUMPDEST PUSH1 0x40 MLOAD DUP1 SWAP2 SUB SWAP1 RETURN JUMPDEST PUSH2 0x9F PUSH1 0x4 DUP1 CALLDATASIZE SUB DUP2 ADD SWAP1 PUSH2 0x9A SWAP2 SWAP1 PUSH2 0x513 JUMP JUMPDEST PUSH2 0x1A3 JUMP JUMPDEST STOP JUMPDEST PUSH2 0xBB PUSH1 0x4 DUP1 CALLDATASIZE SUB DUP2 ADD SWAP1 PUSH2 0xB6 SWAP2 SWAP1 PUSH2 0x5BC JUMP JUMPDEST PUSH2 0x1B6 JUMP JUMPDEST STOP JUMPDEST PUSH2 0xC5 PUSH2 0x1CC JUMP JUMPDEST PUSH1 0x40 MLOAD PUSH2 0xD2 SWAP2 SWAP1 PUSH2 0x3A8 JUMP JUMPDEST PUSH1 0x40 MLOAD DUP1 SWAP2 SUB SWAP1 RETURN JUMPDEST PUSH2 0xF5 PUSH1 0x4 DUP1 CALLDATASIZE SUB DUP2 ADD SWAP1 PUSH2 0xF0 SWAP2 SWAP1 PUSH2 0x513 JUMP JUMPDEST PUSH2 0x25A JUMP JUMPDEST STOP JUMPDEST PUSH2 0xFF PUSH2 0x277 JUMP JUMPDEST PUSH1 0x40 MLOAD PUSH2 0x10C SWAP2 SWAP1 PUSH2 0x3A8 JUMP JUMPDEST PUSH1 0x40 MLOAD DUP1 SWAP2 SUB SWAP1 RETURN JUMPDEST PUSH1 0x0 DUP1 SLOAD PUSH2 0x122 SWAP1 PUSH2 0x638 JUMP JUMPDEST DUP1 PUSH1 0x1F ADD PUSH1 0x20 DUP1 SWAP2 DIV MUL PUSH1 0x20 ADD PUSH1 0x40 MLOAD SWAP1 DUP2 ADD PUSH1 0x40 MSTORE DUP1 SWAP3 SWAP2 SWAP1 DUP2 DUP2 MSTORE PUSH1 0x20 ADD DUP3 DUP1 SLOAD PUSH2 0x14E SWAP1 PUSH2 0x638 JUMP JUMPDEST DUP1 ISZERO PUSH2 0x19B JUMPI DUP1 PUSH1 0x1F LT PUSH2 0x170 JUMPI PUSH2 0x100 DUP1 DUP4 SLOAD DIV MUL DUP4 MSTORE SWAP2 PUSH1 0x20 ADD SWAP2 PUSH2 0x19B JUMP JUMPDEST DUP3 ADD SWAP2 SWAP1 PUSH1 0x0 MSTORE PUSH1 0x20 PUSH1 0x0 KECCAK256 SWAP1 JUMPDEST DUP2 SLOAD DUP2 MSTORE SWAP1 PUSH1 0x1 ADD SWAP1 PUSH1 0x20 ADD DUP1 DUP4 GT PUSH2 0x17E JUMPI DUP3 SWAP1 SUB PUSH1 0x1F AND DUP3 ADD SWAP2 JUMPDEST POP POP POP POP POP DUP2 JUMP JUMPDEST DUP1 PUSH1 0x1 SWAP1 DUP2 PUSH2 0x1B2 SWAP2 SWAP1 PUSH2 0x81F JUMP JUMPDEST POP POP JUMP JUMPDEST DUP2 DUP2 PUSH1 0x2 SWAP2 DUP3 PUSH2 0x1C7 SWAP3 SWAP2 SWAP1 PUSH2 0x8FC JUMP JUMPDEST POP POP POP JUMP JUMPDEST PUSH1 0x1 DUP1 SLOAD PUSH2 0x1D9 SWAP1 PUSH2 0x638 JUMP JUMPDEST DUP1 PUSH1 0x1F ADD PUSH1 0x20 DUP1 SWAP2 DIV MUL PUSH1 0x20 ADD PUSH1 0x40 MLOAD SWAP1 DUP2 ADD PUSH1 0x40 MSTORE DUP1 SWAP3 SWAP2 SWAP1 DUP2 DUP2 MSTORE PUSH1 0x20 ADD DUP3 DUP1 SLOAD PUSH2 0x205 SWAP1 PUSH2 0x638 JUMP JUMPDEST DUP1 ISZERO PUSH2 0x252 JUMPI DUP1 PUSH1 0x1F LT PUSH2 0x227 JUMPI PUSH2 0x100 DUP1 DUP4 SLOAD DIV MUL DUP4 MSTORE SWAP2 PUSH1 0x20 ADD SWAP2 PUSH2 0x252 JUMP JUMPDEST DUP3 ADD SWAP2 SWAP1 PUSH1 0x0 MSTORE PUSH1 0x20 PUSH1 0x0 KECCAK256 SWAP1 JUMPDEST DUP2 SLOAD DUP2 MSTORE SWAP1 PUSH1 0x1 ADD SWAP1 PUSH1 0x20 ADD DUP1 DUP4 GT PUSH2 0x235 JUMPI DUP3 SWAP1 SUB PUSH1 0x1F AND DUP3 ADD SWAP2 JUMPDEST POP POP POP POP POP DUP2 JUMP JUMPDEST DUP1 PUSH1 0x0 SWAP1 DUP2 PUSH2 0x269 SWAP2 SWAP1 PUSH2 0x81F JUMP JUMPDEST POP PUSH2 0x274 PUSH1 0x0 PUSH2 0x305 JUMP JUMPDEST POP JUMP JUMPDEST PUSH1 0x2 DUP1 SLOAD PUSH2 0x284 SWAP1 PUSH2 0x638 JUMP JUMPDEST DUP1 PUSH1 0x1F ADD PUSH1 0x20 DUP1 SWAP2 DIV MUL PUSH1 0x20 ADD PUSH1 0x40 MLOAD SWAP1 DUP2 ADD PUSH1 0x40 MSTORE DUP1 SWAP3 SWAP2 SWAP1 DUP2 DUP2 MSTORE PUSH1 0x20 ADD DUP3 DUP1 SLOAD PUSH2 0x2B0 SWAP1 PUSH2 0x638 JUMP JUMPDEST DUP1 ISZERO PUSH2 0x2FD JUMPI DUP1 PUSH1 0x1F LT PUSH2 0x2D2 JUMPI PUSH2 0x100 DUP1 DUP4 SLOAD DIV MUL DUP4 MSTORE SWAP2 PUSH1 0x20 ADD SWAP2 PUSH2 0x2FD JUMP JUMPDEST DUP3 ADD SWAP2 SWAP1 PUSH1 0x0 MSTORE PUSH1 0x20 PUSH1 0x0 KECCAK256 SWAP1 JUMPDEST DUP2 SLOAD DUP2 MSTORE SWAP1 PUSH1 0x1 ADD SWAP1 PUSH1 0x20 ADD DUP1 DUP4 GT PUSH2 0x2E0 JUMPI DUP3 SWAP1 SUB PUSH1 0x1F AND DUP3 ADD SWAP2 JUMPDEST POP POP POP POP POP DUP2 JUMP JUMPDEST DUP1 PUSH1 0x0 SWAP1 DUP2 PUSH2 0x314 SWAP2 SWAP1 PUSH2 0x9F7 JUMP JUMPDEST POP POP JUMP JUMPDEST PUSH1 0x0 DUP2 MLOAD SWAP1 POP SWAP2 SWAP1 POP JUMP JUMPDEST PUSH1 0x0 DUP3 DUP3 MSTORE PUSH1 0x20 DUP3 ADD SWAP1 POP SWAP3 SWAP2 POP POP JUMP JUMPDEST PUSH1 0x0 JUMPDEST DUP4 DUP2 LT ISZERO PUSH2 0x352 JUMPI DUP1 DUP3 ADD MLOAD DUP2 DUP5 ADD MSTORE PUSH1 0x20 DUP2 ADD SWAP1 POP PUSH2 0x337 JUMP JUMPDEST PUSH1 0x0 DUP5 DUP5 ADD MSTORE POP POP POP POP JUMP JUMPDEST PUSH1 0x0 PUSH1 0x1F NOT PUSH1 0x1F DUP4 ADD AND SWAP1 POP SWAP2 SWAP1 POP JUMP JUMPDEST PUSH1 0x0 PUSH2 0x37A DUP3 PUSH2 0x318 JUMP JUMPDEST PUSH2 0x384 DUP2 DUP6 PUSH2 0x323 JUMP JUMPDEST SWAP4 POP PUSH2 0x394 DUP2 DUP6 PUSH1 0x20 DUP7 ADD PUSH2 0x334 JUMP JUMPDEST PUSH2 0x39D DUP2 PUSH2 0x35E JUMP JUMPDEST DUP5 ADD SWAP2 POP POP SWAP3 SWAP2 POP POP JUMP JUMPDEST PUSH1 0x0 PUSH1 0x20 DUP3 ADD SWAP1 POP DUP2 DUP2 SUB PUSH1 0x0 DUP4 ADD MSTORE PUSH2 0x3C2 DUP2 DUP5 PUSH2 0x36F JUMP JUMPDEST SWAP1 POP SWAP3 SWAP2 POP POP JUMP JUMPDEST PUSH1 0x0 PUSH1 0x40 MLOAD SWAP1 POP SWAP1 JUMP JUMPDEST PUSH1 0x0 DUP1 REVERT JUMPDEST PUSH1 0x0 DUP1 REVERT JUMPDEST PUSH1 0x0 DUP1 REVERT JUMPDEST PUSH1 0x0 DUP1 REVERT JUMPDEST PUSH32 0x4E487B7100000000000000000000000000000000000000000000000000000000 PUSH1 0x0 MSTORE PUSH1 0x41 PUSH1 0x4 MSTORE PUSH1 0x24 PUSH1 0x0 REVERT JUMPDEST PUSH2 0x420 DUP3 PUSH2 0x35E JUMP JUMPDEST DUP2 ADD DUP2 DUP2 LT PUSH8 0xFFFFFFFFFFFFFFFF DUP3 GT OR ISZERO PUSH2 0x43F JUMPI PUSH2 0x43E PUSH2 0x3E8 JUMP JUMPDEST JUMPDEST DUP1 PUSH1 0x40 MSTORE POP POP POP JUMP JUMPDEST PUSH1 0x0 PUSH2 0x452 PUSH2 0x3CA JUMP JUMPDEST SWAP1 POP PUSH2 0x45E DUP3 DUP3 PUSH2 0x417 JUMP JUMPDEST SWAP2 SWAP1 POP JUMP JUMPDEST PUSH1 0x0 PUSH8 0xFFFFFFFFFFFFFFFF DUP3 GT ISZERO PUSH2 0x47E JUMPI PUSH2 0x47D PUSH2 0x3E8 JUMP JUMPDEST JUMPDEST PUSH2 0x487 DUP3 PUSH2 0x35E JUMP JUMPDEST SWAP1 POP PUSH1 0x20 DUP2 ADD SWAP1 POP SWAP2 SWAP1 POP JUMP JUMPDEST DUP3 DUP2 DUP4 CALLDATACOPY PUSH1 0x0 DUP4 DUP4 ADD MSTORE POP POP POP JUMP JUMPDEST PUSH1 0x0 PUSH2 0x4B6 PUSH2 0x4B1 DUP5 PUSH2 0x463 JUMP JUMPDEST PUSH2 0x448 JUMP JUMPDEST SWAP1 POP DUP3 DUP2 MSTORE PUSH1 0x20 DUP2 ADD DUP5 DUP5 DUP5 ADD GT ISZERO PUSH2 0x4D2 JUMPI PUSH2 0x4D1 PUSH2 0x3E3 JUMP JUMPDEST JUMPDEST PUSH2 0x4DD DUP5 DUP3 DUP6 PUSH2 0x494 JUMP JUMPDEST POP SWAP4 SWAP3 POP POP POP JUMP JUMPDEST PUSH1 0x0 DUP3 PUSH1 0x1F DUP4 ADD SLT PUSH2 0x4FA JUMPI PUSH2 0x4F9 PUSH2 0x3DE JUMP JUMPDEST JUMPDEST DUP2 CALLDATALOAD PUSH2 0x50A DUP5 DUP3 PUSH1 0x20 DUP7 ADD PUSH2 0x4A3 JUMP JUMPDEST SWAP2 POP POP SWAP3 SWAP2 POP POP JUMP JUMPDEST PUSH1 0x0 PUSH1 0x20 DUP3 DUP5 SUB SLT ISZERO PUSH2 0x529 JUMPI PUSH2 0x528 PUSH2 0x3D4 JUMP JUMPDEST JUMPDEST PUSH1 0x0 DUP3 ADD CALLDATALOAD PUSH8 0xFFFFFFFFFFFFFFFF DUP2 GT ISZERO PUSH2 0x547 JUMPI PUSH2 0x546 PUSH2 0x3D9 JUMP JUMPDEST JUMPDEST PUSH2 0x553 DUP5 DUP3 DUP6 ADD PUSH2 0x4E5 JUMP JUMPDEST SWAP2 POP POP SWAP3 SWAP2 POP POP JUMP JUMPDEST PUSH1 0x0 DUP1 REVERT JUMPDEST PUSH1 0x0 DUP1 REVERT JUMPDEST PUSH1 0x0 DUP1 DUP4 PUSH1 0x1F DUP5 ADD SLT PUSH2 0x57C JUMPI PUSH2 0x57B PUSH2 0x3DE JUMP JUMPDEST JUMPDEST DUP3 CALLDATALOAD SWAP1 POP PUSH8 0xFFFFFFFFFFFFFFFF DUP2 GT ISZERO PUSH2 0x599 JUMPI PUSH2 0x598 PUSH2 0x55C JUMP JUMPDEST JUMPDEST PUSH1 0x20 DUP4 ADD SWAP2 POP DUP4 PUSH1 0x1 DUP3 MUL DUP4 ADD GT ISZERO PUSH2 0x5B5 JUMPI PUSH2 0x5B4 PUSH2 0x561 JUMP JUMPDEST JUMPDEST SWAP3 POP SWAP3 SWAP1 POP JUMP JUMPDEST PUSH1 0x0 DUP1 PUSH1 0x20 DUP4 DUP6 SUB SLT ISZERO PUSH2 0x5D3 JUMPI PUSH2 0x5D2 PUSH2 0x3D4 JUMP JUMPDEST JUMPDEST PUSH1 0x0 DUP4 ADD CALLDATALOAD PUSH8 0xFFFFFFFFFFFFFFFF DUP2 GT ISZERO PUSH2 0x5F1 JUMPI PUSH2 0x5F0 PUSH2 0x3D9 JUMP JUMPDEST JUMPDEST PUSH2 0x5FD DUP6 DUP3 DUP7 ADD PUSH2 0x566 JUMP JUMPDEST SWAP3 POP SWAP3 POP POP SWAP3 POP SWAP3 SWAP1 POP JUMP JUMPDEST PUSH32 0x4E487B7100000000000000000000000000000000000000000000000000000000 PUSH1 0x0 MSTORE PUSH1 0x22 PUSH1 0x4 MSTORE PUSH1 0x24 PUSH1 0x0 REVERT JUMPDEST PUSH1 0x0 PUSH1 0x2 DUP3 DIV SWAP1 POP PUSH1 0x1 DUP3 AND DUP1 PUSH2 0x650 JUMPI PUSH1 0x7F DUP3 AND SWAP2 POP JUMPDEST PUSH1 0x20 DUP3 LT DUP2 SUB PUSH2 0x663 JUMPI PUSH2 0x662 PUSH2 0x609 JUMP JUMPDEST JUMPDEST POP SWAP2 SWAP1 POP JUMP JUMPDEST PUSH1 0x0 DUP2 SWAP1 POP DUP2 PUSH1 0x0 MSTORE PUSH1 0x20 PUSH1 0x0 KECCAK256 SWAP1 POP SWAP2 SWAP1 POP JUMP JUMPDEST PUSH1 0x0 PUSH1 0x20 PUSH1 0x1F DUP4 ADD DIV SWAP1 POP SWAP2 SWAP1 POP JUMP JUMPDEST PUSH1 0x0 DUP3 DUP3 SHL SWAP1 POP SWAP3 SWAP2 POP POP JUMP JUMPDEST PUSH1 0x0 PUSH1 0x8 DUP4 MUL PUSH2 0x6CB PUSH32 0xFFFFFFFFFFFFFFFFFFFFFFFFFFFFFFFFFFFFFFFFFFFFFFFFFFFFFFFFFFFFFFFF DUP3 PUSH2 0x68E JUMP JUMPDEST PUSH2 0x6D5 DUP7 DUP4 PUSH2 0x68E JUMP JUMPDEST SWAP6 POP DUP1 NOT DUP5 AND SWAP4 POP DUP1 DUP7 AND DUP5 OR SWAP3 POP POP POP SWAP4 SWAP3 POP POP POP JUMP JUMPDEST PUSH1 0x0 DUP2 SWAP1 POP SWAP2 SWAP1 POP JUMP JUMPDEST PUSH1 0x0 DUP2 SWAP1 POP SWAP2 SWAP1 POP JUMP JUMPDEST PUSH1 0x0 PUSH2 0x71C PUSH2 0x717 PUSH2 0x712 DUP5 PUSH2 0x6ED JUMP JUMPDEST PUSH2 0x6F7 JUMP JUMPDEST PUSH2 0x6ED JUMP JUMPDEST SWAP1 POP SWAP2 SWAP1 POP JUMP JUMPDEST PUSH1 0x0 DUP2 SWAP1 POP SWAP2 SWAP1 POP JUMP JUMPDEST PUSH2 0x736 DUP4 PUSH2 0x701 JUMP JUMPDEST PUSH2 0x74A PUSH2 0x742 DUP3 PUSH2 0x723 JUMP JUMPDEST DUP5 DUP5 SLOAD PUSH2 0x69B JUMP JUMPDEST DUP3 SSTORE POP POP POP POP JUMP JUMPDEST PUSH1 0x0 SWAP1 JUMP JUMPDEST PUSH2 0x75F PUSH2 0x752 JUMP JUMPDEST PUSH2 0x76A DUP2 DUP5 DUP5 PUSH2 0x72D JUMP JUMPDEST POP POP POP JUMP JUMPDEST JUMPDEST DUP2 DUP2 LT ISZERO PUSH2 0x78E JUMPI PUSH2 0x783 PUSH1 0x0 DUP3 PUSH2 0x757 JUMP JUMPDEST PUSH1 0x1 DUP2 ADD SWAP1 POP PUSH2 0x770 JUMP JUMPDEST POP POP JUMP JUMPDEST PUSH1 0x1F DUP3 GT ISZERO PUSH2 0x7D3 JUMPI PUSH2 0x7A4 DUP2 PUSH2 0x669 JUMP JUMPDEST PUSH2 0x7AD DUP5 PUSH2 0x67E JUMP JUMPDEST DUP2 ADD PUSH1 0x20 DUP6 LT ISZERO PUSH2 0x7BC JUMPI DUP2 SWAP1 POP JUMPDEST PUSH2 0x7D0 PUSH2 0x7C8 DUP6 PUSH2 0x67E JUMP JUMPDEST DUP4 ADD DUP3 PUSH2 0x76F JUMP JUMPDEST POP POP JUMPDEST POP POP POP JUMP JUMPDEST PUSH1 0x0 DUP3 DUP3 SHR SWAP1 POP SWAP3 SWAP2 POP POP JUMP JUMPDEST PUSH1 0x0 PUSH2 0x7F6 PUSH1 0x0 NOT DUP5 PUSH1 0x8 MUL PUSH2 0x7D8 JUMP JUMPDEST NOT DUP1 DUP4 AND SWAP2 POP POP SWAP3 SWAP2 POP POP JUMP JUMPDEST PUSH1 0x0 PUSH2 0x80F DUP4 DUP4 PUSH2 0x7E5 JUMP JUMPDEST SWAP2 POP DUP3 PUSH1 0x2 MUL DUP3 OR SWAP1 POP SWAP3 SWAP2 POP POP JUMP JUMPDEST PUSH2 0x828 DUP3 PUSH2 0x318 JUMP JUMPDEST PUSH8 0xFFFFFFFFFFFFFFFF DUP2 GT ISZERO PUSH2 0x841 JUMPI PUSH2 0x840 PUSH2 0x3E8 JUMP JUMPDEST JUMPDEST PUSH2 0x84B DUP3 SLOAD PUSH2 0x638 JUMP JUMPDEST PUSH2 0x856 DUP3 DUP3 DUP6 PUSH2 0x792 JUMP JUMPDEST PUSH1 0x0 PUSH1 0x20 SWAP1 POP PUSH1 0x1F DUP4 GT PUSH1 0x1 DUP2 EQ PUSH2 0x889 JUMPI PUSH1 0x0 DUP5 ISZERO PUSH2 0x877 JUMPI DUP3 DUP8 ADD MLOAD SWAP1 POP JUMPDEST PUSH2 0x881 DUP6 DUP3 PUSH2 0x803 JUMP JUMPDEST DUP7 SSTORE POP PUSH2 0x8E9 JUMP JUMPDEST PUSH1 0x1F NOT DUP5 AND PUSH2 0x897 DUP7 PUSH2 0x669 JUMP JUMPDEST PUSH1 0x0 JUMPDEST DUP3 DUP2 LT ISZERO PUSH2 0x8BF JUMPI DUP5 DUP10 ADD MLOAD DUP3 SSTORE PUSH1 0x1 DUP3 ADD SWAP2 POP PUSH1 0x20 DUP6 ADD SWAP5 POP PUSH1 0x20 DUP2 ADD SWAP1 POP PUSH2 0x89A JUMP JUMPDEST DUP7 DUP4 LT ISZERO PUSH2 0x8DC JUMPI DUP5 DUP10 ADD MLOAD PUSH2 0x8D8 PUSH1 0x1F DUP10 AND DUP3 PUSH2 0x7E5 JUMP JUMPDEST DUP4 SSTORE POP JUMPDEST PUSH1 0x1 PUSH1 0x2 DUP9 MUL ADD DUP9 SSTORE POP POP POP JUMPDEST POP POP POP POP POP POP JUMP JUMPDEST PUSH1 0x0 DUP3 SWAP1 POP SWAP3 SWAP2 POP POP JUMP JUMPDEST PUSH2 0x906 DUP4 DUP4 PUSH2 0x8F1 JUMP JUMPDEST PUSH8 0xFFFFFFFFFFFFFFFF DUP2 GT ISZERO PUSH2 0x91F JUMPI PUSH2 0x91E PUSH2 0x3E8 JUMP JUMPDEST JUMPDEST PUSH2 0x929 DUP3 SLOAD PUSH2 0x638 JUMP JUMPDEST PUSH2 0x934 DUP3 DUP3 DUP6 PUSH2 0x792 JUMP JUMPDEST PUSH1 0x0 PUSH1 0x1F DUP4 GT PUSH1 0x1 DUP2 EQ PUSH2 0x963 JUMPI PUSH1 0x0 DUP5 ISZERO PUSH2 0x951 JUMPI DUP3 DUP8 ADD CALLDATALOAD SWAP1 POP JUMPDEST PUSH2 0x95B DUP6 DUP3 PUSH2 0x803 JUMP JUMPDEST DUP7 SSTORE POP PUSH2 0x9C3 JUMP JUMPDEST PUSH1 0x1F NOT DUP5 AND PUSH2 0x971 DUP7 PUSH2 0x669 JUMP JUMPDEST PUSH1 0x0 JUMPDEST DUP3 DUP2 LT ISZERO PUSH2 0x999 JUMPI DUP5 DUP10 ADD CALLDATALOAD DUP3 SSTORE PUSH1 0x1 DUP3 ADD SWAP2 POP PUSH1 0x20 DUP6 ADD SWAP5 POP PUSH1 0x20 DUP2 ADD SWAP1 POP PUSH2 0x974 JUMP JUMPDEST DUP7 DUP4 LT ISZERO PUSH2 0x9B6 JUMPI DUP5 DUP10 ADD CALLDATALOAD PUSH2 0x9B2 PUSH1 0x1F DUP10 AND DUP3 PUSH2 0x7E5 JUMP JUMPDEST DUP4 SSTORE POP JUMPDEST PUSH1 0x1 PUSH1 0x2 DUP9 MUL ADD DUP9 SSTORE POP POP POP JUMPDEST POP POP POP POP POP POP POP JUMP JUMPDEST PUSH1 0x0 DUP2 SLOAD SWAP1 POP PUSH2 0x9DB DUP2 PUSH2 0x638 JUMP JUMPDEST SWAP1 POP SWAP2 SWAP1 POP JUMP JUMPDEST PUSH1 0x0 DUP2 SWAP1 POP DUP2 PUSH1 0x0 MSTORE PUSH1 0x20 PUSH1 0x0 KECCAK256 SWAP1 POP SWAP2 SWAP1 POP JUMP JUMPDEST DUP2 DUP2 SUB PUSH2 0xA05 JUMPI POP POP PUSH2 0xADD JUMP JUMPDEST PUSH2 0xA0E DUP3 PUSH2 0x9CC JUMP JUMPDEST PUSH8 0xFFFFFFFFFFFFFFFF DUP2 GT ISZERO PUSH2 0xA27 JUMPI PUSH2 0xA26 PUSH2 0x3E8 JUMP JUMPDEST JUMPDEST PUSH2 0xA31 DUP3 SLOAD PUSH2 0x638 JUMP JUMPDEST PUSH2 0xA3C DUP3 DUP3 DUP6 PUSH2 0x792 JUMP JUMPDEST PUSH1 0x0 PUSH1 0x1F DUP4 GT PUSH1 0x1 DUP2 EQ PUSH2 0xA6B JUMPI PUSH1 0x0 DUP5 ISZERO PUSH2 0xA59 JUMPI DUP3 DUP8 ADD SLOAD SWAP1 POP JUMPDEST PUSH2 0xA63 DUP6 DUP3 PUSH2 0x803 JUMP JUMPDEST DUP7 SSTORE POP PUSH2 0xAD6 JUMP JUMPDEST PUSH1 0x1F NOT DUP5 AND PUSH2 0xA79 DUP8 PUSH2 0x9E2 JUMP JUMPDEST SWAP7 POP PUSH2 0xA84 DUP7 PUSH2 0x669 JUMP JUMPDEST PUSH1 0x0 JUMPDEST DUP3 DUP2 LT ISZERO PUSH2 0xAAC JUMPI DUP5 DUP10 ADD SLOAD DUP3 SSTORE PUSH1 0x1 DUP3 ADD SWAP2 POP PUSH1 0x1 DUP6 ADD SWAP5 POP PUSH1 0x20 DUP2 ADD SWAP1 POP PUSH2 0xA87 JUMP JUMPDEST DUP7 DUP4 LT ISZERO PUSH2 0xAC9 JUMPI DUP5 DUP10 ADD SLOAD PUSH2 0xAC5 PUSH1 0x1F DUP10 AND DUP3 PUSH2 0x7E5 JUMP JUMPDEST DUP4 SSTORE POP JUMPDEST PUSH1 0x1 PUSH1 0x2 DUP9 MUL ADD DUP9 SSTORE POP POP POP JUMPDEST POP POP POP POP POP POP JUMPDEST JUMP INVALID LOG2 PUSH5 0x6970667358 0x22 SLT KECCAK256 0xCE DUP16 DUP13 BYTE DUP7 PUSH18 0x6264127349813DC8899CDA824BADF21858D9 0xAE SWAP16 RETURNDATASIZE SLOAD MSIZE BALANCE 0xFC 0xBD PUSH5 0x736F6C6343 STOP ADDMOD SGT STOP CALLER "
		},
		"gasEstimates": {
			"creation": {
				"codeDepositCost": "567400",
				"executionCost": "600",
				"totalCost": "568000"
			},
			"external": {
				"calldataExample(string)": "infinite",
				"data()": "infinite",
				"data2()": "infinite",
				"data3()": "infinite",
				"memoryExample(string)": "infinite",
				"test(string)": "infinite"
			},
			"internal": {
				"storageExample(string storage pointer)": "infinite"
			}
		},
		"methodIdentifiers": {
			"calldataExample(string)": "c1f926ee",
			"data()": "73d4a13a",
			"data2()": "e3a7fd75",
			"data3()": "fc26b0ab",
			"memoryExample(string)": "972fdc60",
			"test(string)": "f9fbd554"
		}
	},
	"abi": [
		{
			"inputs": [
				{
					"internalType": "string",
					"name": "_data",
					"type": "string"
				}
			],
			"name": "calldataExample",
			"outputs": [],
			"stateMutability": "nonpayable",
			"type": "function"
		},
		{
			"inputs": [],
			"name": "data",
			"outputs": [
				{
					"internalType": "string",
					"name": "",
					"type": "string"
				}
			],
			"stateMutability": "view",
			"type": "function"
		},
		{
			"inputs": [],
			"name": "data2",
			"outputs": [
				{
					"internalType": "string",
					"name": "",
					"type": "string"
				}
			],
			"stateMutability": "view",
			"type": "function"
		},
		{
			"inputs": [],
			"name": "data3",
			"outputs": [
				{
					"internalType": "string",
					"name": "",
					"type": "string"
				}
			],
			"stateMutability": "view",
			"type": "function"
		},
		{
			"inputs": [
				{
					"internalType": "string",
					"name": "_data",
					"type": "string"
				}
			],
			"name": "memoryExample",
			"outputs": [],
			"stateMutability": "nonpayable",
			"type": "function"
		},
		{
			"inputs": [
				{
					"internalType": "string",
					"name": "_data",
					"type": "string"
				}
			],
			"name": "test",
			"outputs": [],
			"stateMutability": "nonpayable",
			"type": "function"
		}
	]
}