{
	"data": {
		"bytecode": {
			"linkReferences": {},
			"object": "60806040526000805534801561001457600080fd5b50610243806100246000396000f3fe6080604052600436106100295760003560e01c806361bc221a1461002e5780637bb98a6814610038575b600080fd5b610036610063565b005b34801561004457600080fd5b5061004d6100cd565b60405161005a91906100ec565b60405180910390f35b66038d7ea4c6800034146100ac576040517f08c379a00000000000000000000000000000000000000000000000000000000081526004016100a39061018a565b60405180910390fd5b66038d7ea4c680006000808282546100c491906101d9565b92505081905550565b60005481565b6000819050919050565b6100e6816100d3565b82525050565b600060208201905061010160008301846100dd565b92915050565b600082825260208201905092915050565b7f416d6f756e742073686f756c6420626520657175616c20746f2031303030303060008201527f3020477765690000000000000000000000000000000000000000000000000000602082015250565b6000610174602683610107565b915061017f82610118565b604082019050919050565b600060208201905081810360008301526101a381610167565b9050919050565b7f4e487b7100000000000000000000000000000000000000000000000000000000600052601160045260246000fd5b60006101e4826100d3565b91506101ef836100d3565b9250828201905080821115610207576102066101aa565b5b9291505056fea2646970667358221220e77cc1a9f0b8a523396215a9be1c022b6f5827e11df0bc5f3c5095fd834fa19664736f6c63430008130033",
			"opcodes": "PUSH1 0x80 PUSH1 0x40 MSTORE PUSH1 0x0 DUP1 SSTORE CALLVALUE DUP1 ISZERO PUSH2 0x14 JUMPI PUSH1 0x0 DUP1 REVERT JUMPDEST POP PUSH2 0x243 DUP1 PUSH2 0x24 PUSH1 0x0 CODECOPY PUSH1 0x0 RETURN INVALID PUSH1 0x80 PUSH1 0x40 MSTORE PUSH1 0x4 CALLDATASIZE LT PUSH2 0x29 JUMPI PUSH1 0x0 CALLDATALOAD PUSH1 0xE0 SHR DUP1 PUSH4 0x61BC221A EQ PUSH2 0x2E JUMPI DUP1 PUSH4 0x7BB98A68 EQ PUSH2 0x38 JUMPI JUMPDEST PUSH1 0x0 DUP1 REVERT JUMPDEST PUSH2 0x36 PUSH2 0x63 JUMP JUMPDEST STOP JUMPDEST CALLVALUE DUP1 ISZERO PUSH2 0x44 JUMPI PUSH1 0x0 DUP1 REVERT JUMPDEST POP PUSH2 0x4D PUSH2 0xCD JUMP JUMPDEST PUSH1 0x40 MLOAD PUSH2 0x5A SWAP2 SWAP1 PUSH2 0xEC JUMP JUMPDEST PUSH1 0x40 MLOAD DUP1 SWAP2 SUB SWAP1 RETURN JUMPDEST PUSH7 0x38D7EA4C68000 CALLVALUE EQ PUSH2 0xAC JUMPI PUSH1 0x40 MLOAD PUSH32 0x8C379A000000000000000000000000000000000000000000000000000000000 DUP2 MSTORE PUSH1 0x4 ADD PUSH2 0xA3 SWAP1 PUSH2 0x18A JUMP JUMPDEST PUSH1 0x40 MLOAD DUP1 SWAP2 SUB SWAP1 REVERT JUMPDEST PUSH7 0x38D7EA4C68000 PUSH1 0x0 DUP1 DUP3 DUP3 SLOAD PUSH2 0xC4 SWAP2 SWAP1 PUSH2 0x1D9 JUMP JUMPDEST SWAP3 POP POP DUP2 SWAP1 SSTORE POP JUMP JUMPDEST PUSH1 0x0 SLOAD DUP2 JUMP JUMPDEST PUSH1 0x0 DUP2 SWAP1 POP SWAP2 SWAP1 POP JUMP JUMPDEST PUSH2 0xE6 DUP2 PUSH2 0xD3 JUMP JUMPDEST DUP3 MSTORE POP POP JUMP JUMPDEST PUSH1 0x0 PUSH1 0x20 DUP3 ADD SWAP1 POP PUSH2 0x101 PUSH1 0x0 DUP4 ADD DUP5 PUSH2 0xDD JUMP JUMPDEST SWAP3 SWAP2 POP POP JUMP JUMPDEST PUSH1 0x0 DUP3 DUP3 MSTORE PUSH1 0x20 DUP3 ADD SWAP1 POP SWAP3 SWAP2 POP POP JUMP JUMPDEST PUSH32 0x416D6F756E742073686F756C6420626520657175616C20746F20313030303030 PUSH1 0x0 DUP3 ADD MSTORE PUSH32 0x3020477765690000000000000000000000000000000000000000000000000000 PUSH1 0x20 DUP3 ADD MSTORE POP JUMP JUMPDEST PUSH1 0x0 PUSH2 0x174 PUSH1 0x26 DUP4 PUSH2 0x107 JUMP JUMPDEST SWAP2 POP PUSH2 0x17F DUP3 PUSH2 0x118 JUMP JUMPDEST PUSH1 0x40 DUP3 ADD SWAP1 POP SWAP2 SWAP1 POP JUMP JUMPDEST PUSH1 0x0 PUSH1 0x20 DUP3 ADD SWAP1 POP DUP2 DUP2 SUB PUSH1 0x0 DUP4 ADD MSTORE PUSH2 0x1A3 DUP2 PUSH2 0x167 JUMP JUMPDEST SWAP1 POP SWAP2 SWAP1 POP JUMP JUMPDEST PUSH32 0x4E487B7100000000000000000000000000000000000000000000000000000000 PUSH1 0x0 MSTORE PUSH1 0x11 PUSH1 0x4 MSTORE PUSH1 0x24 PUSH1 0x0 REVERT JUMPDEST PUSH1 0x0 PUSH2 0x1E4 DUP3 PUSH2 0xD3 JUMP JUMPDEST SWAP2 POP PUSH2 0x1EF DUP4 PUSH2 0xD3 JUMP JUMPDEST SWAP3 POP DUP3 DUP3 ADD SWAP1 POP DUP1 DUP3 GT ISZERO PUSH2 0x207 JUMPI PUSH2 0x206 PUSH2 0x1AA JUMP JUMPDEST JUMPDEST SWAP3 SWAP2 POP POP JUMP INVALID LOG2 PUSH5 0x6970667358 0x22 SLT KECCAK256 0xE7 PUSH29 0xC1A9F0B8A523396215A9BE1C022B6F5827E11DF0BC5F3C5095FD834FA1 SWAP7 PUSH5 0x736F6C6343 STOP ADDMOD SGT STOP CALLER "
		},
		"gasEstimates": {
			"creation": {
				"codeDepositCost": "115800",
				"executionCost": "5171",
				"totalCost": "120971"
			},
			"external": {
				"balances()": "2429",
				"counter()": "infinite"
			}
		},
		"methodIdentifiers": {
			"balances()": "7bb98a68",
			"counter()": "61bc221a"
		}
	},
	"abi": [
		{
			"inputs": [],
			"name": "balances",
			"outputs": [
				{
					"internalType": "uint256",
					"name": "",
					"type": "uint256"
				}
			],
			"stateMutability": "view",
			"type": "function"
		},
		{
			"inputs": [],
			"name": "counter",
			"outputs": [],
			"stateMutability": "payable",
			"type": "function"
		}
	]
}