{
	"data": {
		"bytecode": {
			"linkReferences": {},
			"object": "6080604052348015600f57600080fd5b5060818061001e6000396000f3fe6080604052348015600f57600080fd5b506004361060325760003560e01c8063927c66f7146037578063fe87ea3014603f575b600080fd5b603d6047565b005b60456049565b005b565b56fea26469706673582212202e997bdfc1ff11abd61560fe2c43ddf74f2cdc0ad4e013dd66db9656c719a2dd64736f6c63430008130033",
			"opcodes": "PUSH1 0x80 PUSH1 0x40 MSTORE CALLVALUE DUP1 ISZERO PUSH1 0xF JUMPI PUSH1 0x0 DUP1 REVERT JUMPDEST POP PUSH1 0x81 DUP1 PUSH2 0x1E PUSH1 0x0 CODECOPY PUSH1 0x0 RETURN INVALID PUSH1 0x80 PUSH1 0x40 MSTORE CALLVALUE DUP1 ISZERO PUSH1 0xF JUMPI PUSH1 0x0 DUP1 REVERT JUMPDEST POP PUSH1 0x4 CALLDATASIZE LT PUSH1 0x32 JUMPI PUSH1 0x0 CALLDATALOAD PUSH1 0xE0 SHR DUP1 PUSH4 0x927C66F7 EQ PUSH1 0x37 JUMPI DUP1 PUSH4 0xFE87EA30 EQ PUSH1 0x3F JUMPI JUMPDEST PUSH1 0x0 DUP1 REVERT JUMPDEST PUSH1 0x3D PUSH1 0x47 JUMP JUMPDEST STOP JUMPDEST PUSH1 0x45 PUSH1 0x49 JUMP JUMPDEST STOP JUMPDEST JUMP JUMPDEST JUMP INVALID LOG2 PUSH5 0x6970667358 0x22 SLT KECCAK256 0x2E SWAP10 PUSH28 0xDFC1FF11ABD61560FE2C43DDF74F2CDC0AD4E013DD66DB9656C719A2 0xDD PUSH5 0x736F6C6343 STOP ADDMOD SGT STOP CALLER "
		},
		"gasEstimates": {
			"creation": {
				"codeDepositCost": "25800",
				"executionCost": "81",
				"totalCost": "25881"
			},
			"external": {
				"externalVer()": "144",
				"publicVer()": "122"
			},
			"internal": {
				"internalVer()": "infinite",
				"privateVer()": "infinite"
			}
		},
		"methodIdentifiers": {
			"externalVer()": "fe87ea30",
			"publicVer()": "927c66f7"
		}
	},
	"abi": [
		{
			"inputs": [],
			"name": "externalVer",
			"outputs": [],
			"stateMutability": "nonpayable",
			"type": "function"
		},
		{
			"inputs": [],
			"name": "publicVer",
			"outputs": [],
			"stateMutability": "nonpayable",
			"type": "function"
		}
	]
}